{
	"mokkozi/week3/erc721.sol": {
		"minionToken": {
			"abi": [
				{
					"anonymous": false,
					"inputs": [
						{
							"indexed": true,
							"internalType": "address",
							"name": "owner",
							"type": "address"
						},
						{
							"indexed": true,
							"internalType": "address",
							"name": "approved",
							"type": "address"
						},
						{
							"indexed": true,
							"internalType": "uint256",
							"name": "tokenId",
							"type": "uint256"
						}
					],
					"name": "Approval",
					"type": "event"
				},
				{
					"anonymous": false,
					"inputs": [
						{
							"indexed": true,
							"internalType": "address",
							"name": "owner",
							"type": "address"
						},
						{
							"indexed": true,
							"internalType": "address",
							"name": "operator",
							"type": "address"
						},
						{
							"indexed": false,
							"internalType": "bool",
							"name": "approved",
							"type": "bool"
						}
					],
					"name": "ApprovalForAll",
					"type": "event"
				},
				{
					"anonymous": false,
					"inputs": [
						{
							"indexed": true,
							"internalType": "address",
							"name": "from",
							"type": "address"
						},
						{
							"indexed": true,
							"internalType": "address",
							"name": "to",
							"type": "address"
						},
						{
							"indexed": true,
							"internalType": "uint256",
							"name": "tokenId",
							"type": "uint256"
						}
					],
					"name": "Transfer",
					"type": "event"
				},
				{
					"inputs": [
						{
							"internalType": "address",
							"name": "approved",
							"type": "address"
						},
						{
							"internalType": "uint256",
							"name": "tokenId",
							"type": "uint256"
						}
					],
					"name": "approve",
					"outputs": [],
					"stateMutability": "payable",
					"type": "function"
				},
				{
					"inputs": [
						{
							"internalType": "address",
							"name": "owner",
							"type": "address"
						}
					],
					"name": "balanceOf",
					"outputs": [
						{
							"internalType": "uint256",
							"name": "",
							"type": "uint256"
						}
					],
					"stateMutability": "view",
					"type": "function"
				},
				{
					"inputs": [
						{
							"internalType": "uint256",
							"name": "tokenId",
							"type": "uint256"
						}
					],
					"name": "getApproved",
					"outputs": [
						{
							"internalType": "address",
							"name": "",
							"type": "address"
						}
					],
					"stateMutability": "view",
					"type": "function"
				},
				{
					"inputs": [
						{
							"internalType": "address",
							"name": "owner",
							"type": "address"
						},
						{
							"internalType": "address",
							"name": "operator",
							"type": "address"
						}
					],
					"name": "isApprovedForAll",
					"outputs": [
						{
							"internalType": "bool",
							"name": "",
							"type": "bool"
						}
					],
					"stateMutability": "view",
					"type": "function"
				},
				{
					"inputs": [
						{
							"internalType": "address",
							"name": "to",
							"type": "address"
						},
						{
							"internalType": "uint256",
							"name": "tokenId",
							"type": "uint256"
						},
						{
							"internalType": "string",
							"name": "uri",
							"type": "string"
						}
					],
					"name": "mint",
					"outputs": [],
					"stateMutability": "nonpayable",
					"type": "function"
				},
				{
					"inputs": [],
					"name": "name",
					"outputs": [
						{
							"internalType": "string",
							"name": "_name",
							"type": "string"
						}
					],
					"stateMutability": "view",
					"type": "function"
				},
				{
					"inputs": [
						{
							"internalType": "uint256",
							"name": "tokenId",
							"type": "uint256"
						}
					],
					"name": "ownerOf",
					"outputs": [
						{
							"internalType": "address",
							"name": "",
							"type": "address"
						}
					],
					"stateMutability": "view",
					"type": "function"
				},
				{
					"inputs": [
						{
							"internalType": "address",
							"name": "from",
							"type": "address"
						},
						{
							"internalType": "address",
							"name": "to",
							"type": "address"
						},
						{
							"internalType": "uint256",
							"name": "tokenId",
							"type": "uint256"
						}
					],
					"name": "safeTransferFrom",
					"outputs": [],
					"stateMutability": "payable",
					"type": "function"
				},
				{
					"inputs": [
						{
							"internalType": "address",
							"name": "from",
							"type": "address"
						},
						{
							"internalType": "address",
							"name": "to",
							"type": "address"
						},
						{
							"internalType": "uint256",
							"name": "tokenId",
							"type": "uint256"
						},
						{
							"internalType": "bytes",
							"name": "data",
							"type": "bytes"
						}
					],
					"name": "safeTransferFrom",
					"outputs": [],
					"stateMutability": "payable",
					"type": "function"
				},
				{
					"inputs": [
						{
							"internalType": "address",
							"name": "operator",
							"type": "address"
						},
						{
							"internalType": "bool",
							"name": "approved",
							"type": "bool"
						}
					],
					"name": "setApprovalForAll",
					"outputs": [],
					"stateMutability": "nonpayable",
					"type": "function"
				},
				{
					"inputs": [
						{
							"internalType": "bytes4",
							"name": "interfaceID",
							"type": "bytes4"
						}
					],
					"name": "supportsInterface",
					"outputs": [
						{
							"internalType": "bool",
							"name": "",
							"type": "bool"
						}
					],
					"stateMutability": "pure",
					"type": "function"
				},
				{
					"inputs": [],
					"name": "symbol",
					"outputs": [
						{
							"internalType": "string",
							"name": "_symbol",
							"type": "string"
						}
					],
					"stateMutability": "view",
					"type": "function"
				},
				{
					"inputs": [],
					"name": "tokenName",
					"outputs": [
						{
							"internalType": "string",
							"name": "",
							"type": "string"
						}
					],
					"stateMutability": "view",
					"type": "function"
				},
				{
					"inputs": [],
					"name": "tokenSymbol",
					"outputs": [
						{
							"internalType": "string",
							"name": "",
							"type": "string"
						}
					],
					"stateMutability": "view",
					"type": "function"
				},
				{
					"inputs": [
						{
							"internalType": "uint256",
							"name": "_tokenId",
							"type": "uint256"
						}
					],
					"name": "tokenURI",
					"outputs": [
						{
							"internalType": "string",
							"name": "",
							"type": "string"
						}
					],
					"stateMutability": "view",
					"type": "function"
				},
				{
					"inputs": [
						{
							"internalType": "address",
							"name": "from",
							"type": "address"
						},
						{
							"internalType": "address",
							"name": "to",
							"type": "address"
						},
						{
							"internalType": "uint256",
							"name": "tokenId",
							"type": "uint256"
						}
					],
					"name": "transferFrom",
					"outputs": [],
					"stateMutability": "payable",
					"type": "function"
				}
			],
			"devdoc": {
				"kind": "dev",
				"methods": {
					"approve(address,uint256)": {
						"details": "The zero address indicates there is no approved address.  Throws unless `msg.sender` is the current NFT owner, or an authorized  operator of the current owner.",
						"params": {
							"approved": "The new approved NFT controller",
							"tokenId": "The NFT to approve"
						}
					},
					"balanceOf(address)": {
						"details": "NFTs assigned to the zero address are considered invalid, and this  function throws for queries about the zero address.",
						"params": {
							"owner": "An address for whom to query the balance"
						},
						"returns": {
							"_0": "The number of NFTs owned by `_owner`, possibly zero"
						}
					},
					"getApproved(uint256)": {
						"details": "Throws if `_tokenId` is not a valid NFT.",
						"params": {
							"tokenId": "The NFT to find the approved address for"
						},
						"returns": {
							"_0": "The approved address for this NFT, or the zero address if there is none"
						}
					},
					"isApprovedForAll(address,address)": {
						"params": {
							"operator": "The address that acts on behalf of the owner",
							"owner": "The address that owns the NFTs"
						},
						"returns": {
							"_0": "True if `_operator` is an approved operator for `_owner`, false otherwise"
						}
					},
					"ownerOf(uint256)": {
						"details": "NFTs assigned to zero address are considered invalid, and queries  about them do throw.",
						"params": {
							"tokenId": "The identifier for an NFT"
						},
						"returns": {
							"_0": "The address of the owner of the NFT"
						}
					},
					"safeTransferFrom(address,address,uint256)": {
						"details": "This works identically to the other function with an extra data parameter,  except this function just sets data to \"\".",
						"params": {
							"from": "The current owner of the NFT",
							"to": "The new owner",
							"tokenId": "The NFT to transfer"
						}
					},
					"safeTransferFrom(address,address,uint256,bytes)": {
						"details": "Throws unless `msg.sender` is the current owner, an authorized  operator, or the approved address for this NFT. Throws if `_from` is  not the current owner. Throws if `_to` is the zero address. Throws if  `_tokenId` is not a valid NFT. When transfer is complete, this function  checks if `_to` is a smart contract (code size > 0). If so, it calls  `onERC721Received` on `_to` and throws if the return value is not  `bytes4(keccak256(\"onERC721Received(address,address,uint256,bytes)\"))`.",
						"params": {
							"data": "Additional data with no specified format, sent in call to `_to`",
							"from": "The current owner of the NFT",
							"to": "The new owner",
							"tokenId": "The NFT to transfer"
						}
					},
					"setApprovalForAll(address,bool)": {
						"details": "Emits the ApprovalForAll event. The contract MUST allow  multiple operators per owner.",
						"params": {
							"approved": "True if the operator is approved, false to revoke approval",
							"operator": "Address to add to the set of authorized operators"
						}
					},
					"supportsInterface(bytes4)": {
						"details": "Interface identification is specified in ERC-165. This function  uses less than 30,000 gas.",
						"params": {
							"interfaceID": "The interface identifier, as specified in ERC-165"
						},
						"returns": {
							"_0": "`true` if the contract implements `interfaceID` and  `interfaceID` is not 0xffffffff, `false` otherwise"
						}
					},
					"tokenURI(uint256)": {
						"details": "Throws if `_tokenId` is not a valid NFT. URIs are defined in RFC  3986. The URI may point to a JSON file that conforms to the \"ERC721  Metadata JSON Schema\"."
					},
					"transferFrom(address,address,uint256)": {
						"details": "Throws unless `msg.sender` is the current owner, an authorized  operator, or the approved address for this NFT. Throws if `_from` is  not the current owner. Throws if `_to` is the zero address. Throws if  `_tokenId` is not a valid NFT.",
						"params": {
							"from": "The current owner of the NFT",
							"to": "The new owner",
							"tokenId": "The NFT to transfer"
						}
					}
				},
				"version": 1
			},
			"evm": {
				"assembly": "    /* \"mokkozi/week3/erc721.sol\":7184:11470  contract minionToken is ERC721, ERC721Metadata... */\n  mstore(0x40, 0x80)\n    /* \"mokkozi/week3/erc721.sol\":7271:7305  string public tokenName = \"minion\" */\n  mload(0x40)\n  dup1\n  0x40\n  add\n  0x40\n  mstore\n  dup1\n  0x06\n  dup2\n  mstore\n  0x20\n  add\n  0x6d696e696f6e0000000000000000000000000000000000000000000000000000\n  dup2\n  mstore\n  pop\n  0x00\n  swap1\n  dup1\n  mload\n  swap1\n  0x20\n  add\n  swap1\n  tag_1\n  swap3\n  swap2\n  swap1\n  tag_2\n  jump\t// in\ntag_1:\n  pop\n    /* \"mokkozi/week3/erc721.sol\":7311:7344  string public tokenSymbol = \"MIN\" */\n  mload(0x40)\n  dup1\n  0x40\n  add\n  0x40\n  mstore\n  dup1\n  0x03\n  dup2\n  mstore\n  0x20\n  add\n  0x4d494e0000000000000000000000000000000000000000000000000000000000\n  dup2\n  mstore\n  pop\n  0x01\n  swap1\n  dup1\n  mload\n  swap1\n  0x20\n  add\n  swap1\n  tag_3\n  swap3\n  swap2\n  swap1\n  tag_2\n  jump\t// in\ntag_3:\n  pop\n    /* \"mokkozi/week3/erc721.sol\":7184:11470  contract minionToken is ERC721, ERC721Metadata... */\n  callvalue\n  dup1\n  iszero\n  tag_4\n  jumpi\n  0x00\n  dup1\n  revert\ntag_4:\n  pop\n  jump(tag_5)\ntag_2:\n  dup3\n  dup1\n  sload\n  tag_6\n  swap1\n  tag_7\n  jump\t// in\ntag_6:\n  swap1\n  0x00\n  mstore\n  keccak256(0x00, 0x20)\n  swap1\n  0x1f\n  add\n  0x20\n  swap1\n  div\n  dup2\n  add\n  swap3\n  dup3\n  tag_9\n  jumpi\n  0x00\n  dup6\n  sstore\n  jump(tag_8)\ntag_9:\n  dup3\n  0x1f\n  lt\n  tag_10\n  jumpi\n  dup1\n  mload\n  not(0xff)\n  and\n  dup4\n  dup1\n  add\n  or\n  dup6\n  sstore\n  jump(tag_8)\ntag_10:\n  dup3\n  dup1\n  add\n  0x01\n  add\n  dup6\n  sstore\n  dup3\n  iszero\n  tag_8\n  jumpi\n  swap2\n  dup3\n  add\ntag_11:\n  dup3\n  dup2\n  gt\n  iszero\n  tag_12\n  jumpi\n  dup3\n  mload\n  dup3\n  sstore\n  swap2\n  0x20\n  add\n  swap2\n  swap1\n  0x01\n  add\n  swap1\n  jump(tag_11)\ntag_12:\ntag_8:\n  pop\n  swap1\n  pop\n  tag_13\n  swap2\n  swap1\n  tag_14\n  jump\t// in\ntag_13:\n  pop\n  swap1\n  jump\t// out\ntag_14:\ntag_15:\n  dup1\n  dup3\n  gt\n  iszero\n  tag_16\n  jumpi\n  0x00\n  dup2\n  0x00\n  swap1\n  sstore\n  pop\n  0x01\n  add\n  jump(tag_15)\ntag_16:\n  pop\n  swap1\n  jump\t// out\n    /* \"#utility.yul\":7:327   */\ntag_7:\n    /* \"#utility.yul\":51:57   */\n  0x00\n    /* \"#utility.yul\":88:89   */\n  0x02\n    /* \"#utility.yul\":82:86   */\n  dup3\n    /* \"#utility.yul\":78:90   */\n  div\n    /* \"#utility.yul\":68:90   */\n  swap1\n  pop\n    /* \"#utility.yul\":135:136   */\n  0x01\n    /* \"#utility.yul\":129:133   */\n  dup3\n    /* \"#utility.yul\":125:137   */\n  and\n    /* \"#utility.yul\":156:174   */\n  dup1\n    /* \"#utility.yul\":146:227   */\n  tag_19\n  jumpi\n    /* \"#utility.yul\":212:216   */\n  0x7f\n    /* \"#utility.yul\":204:210   */\n  dup3\n    /* \"#utility.yul\":200:217   */\n  and\n    /* \"#utility.yul\":190:217   */\n  swap2\n  pop\n    /* \"#utility.yul\":146:227   */\ntag_19:\n    /* \"#utility.yul\":274:276   */\n  0x20\n    /* \"#utility.yul\":266:272   */\n  dup3\n    /* \"#utility.yul\":263:277   */\n  lt\n    /* \"#utility.yul\":243:261   */\n  dup2\n    /* \"#utility.yul\":240:278   */\n  eq\n    /* \"#utility.yul\":237:321   */\n  iszero\n  tag_20\n  jumpi\n    /* \"#utility.yul\":293:311   */\n  tag_21\n  tag_22\n  jump\t// in\ntag_21:\n    /* \"#utility.yul\":237:321   */\ntag_20:\n    /* \"#utility.yul\":58:327   */\n  pop\n    /* \"#utility.yul\":7:327   */\n  swap2\n  swap1\n  pop\n  jump\t// out\n    /* \"#utility.yul\":333:513   */\ntag_22:\n    /* \"#utility.yul\":381:458   */\n  0x4e487b7100000000000000000000000000000000000000000000000000000000\n    /* \"#utility.yul\":378:379   */\n  0x00\n    /* \"#utility.yul\":371:459   */\n  mstore\n    /* \"#utility.yul\":478:482   */\n  0x22\n    /* \"#utility.yul\":475:476   */\n  0x04\n    /* \"#utility.yul\":468:483   */\n  mstore\n    /* \"#utility.yul\":502:506   */\n  0x24\n    /* \"#utility.yul\":499:500   */\n  0x00\n    /* \"#utility.yul\":492:507   */\n  revert\n    /* \"mokkozi/week3/erc721.sol\":7184:11470  contract minionToken is ERC721, ERC721Metadata... */\ntag_5:\n  dataSize(sub_0)\n  dup1\n  dataOffset(sub_0)\n  0x00\n  codecopy\n  0x00\n  return\nstop\n\nsub_0: assembly {\n        /* \"mokkozi/week3/erc721.sol\":7184:11470  contract minionToken is ERC721, ERC721Metadata... */\n      mstore(0x40, 0x80)\n      jumpi(tag_1, lt(calldatasize, 0x04))\n      shr(0xe0, calldataload(0x00))\n      dup1\n      0x70a08231\n      gt\n      tag_18\n      jumpi\n      dup1\n      0xb88d4fde\n      gt\n      tag_19\n      jumpi\n      dup1\n      0xb88d4fde\n      eq\n      tag_14\n      jumpi\n      dup1\n      0xc87b56dd\n      eq\n      tag_15\n      jumpi\n      dup1\n      0xd3fc9864\n      eq\n      tag_16\n      jumpi\n      dup1\n      0xe985e9c5\n      eq\n      tag_17\n      jumpi\n      jump(tag_1)\n    tag_19:\n      dup1\n      0x70a08231\n      eq\n      tag_10\n      jumpi\n      dup1\n      0x7b61c320\n      eq\n      tag_11\n      jumpi\n      dup1\n      0x95d89b41\n      eq\n      tag_12\n      jumpi\n      dup1\n      0xa22cb465\n      eq\n      tag_13\n      jumpi\n      jump(tag_1)\n    tag_18:\n      dup1\n      0x23b872dd\n      gt\n      tag_20\n      jumpi\n      dup1\n      0x23b872dd\n      eq\n      tag_6\n      jumpi\n      dup1\n      0x42842e0e\n      eq\n      tag_7\n      jumpi\n      dup1\n      0x6352211e\n      eq\n      tag_8\n      jumpi\n      dup1\n      0x6c02a931\n      eq\n      tag_9\n      jumpi\n      jump(tag_1)\n    tag_20:\n      dup1\n      0x01ffc9a7\n      eq\n      tag_2\n      jumpi\n      dup1\n      0x06fdde03\n      eq\n      tag_3\n      jumpi\n      dup1\n      0x081812fc\n      eq\n      tag_4\n      jumpi\n      dup1\n      0x095ea7b3\n      eq\n      tag_5\n      jumpi\n    tag_1:\n      0x00\n      dup1\n      revert\n        /* \"mokkozi/week3/erc721.sol\":7676:8105  function supportsInterface(bytes4 interfaceID) public override pure returns(bool)... */\n    tag_2:\n      callvalue\n      dup1\n      iszero\n      tag_21\n      jumpi\n      0x00\n      dup1\n      revert\n    tag_21:\n      pop\n      tag_22\n      0x04\n      dup1\n      calldatasize\n      sub\n      dup2\n      add\n      swap1\n      tag_23\n      swap2\n      swap1\n      tag_24\n      jump\t// in\n    tag_23:\n      tag_25\n      jump\t// in\n    tag_22:\n      mload(0x40)\n      tag_26\n      swap2\n      swap1\n      tag_27\n      jump\t// in\n    tag_26:\n      mload(0x40)\n      dup1\n      swap2\n      sub\n      swap1\n      return\n        /* \"mokkozi/week3/erc721.sol\":8110:8214  function name() public override view returns (string memory _name)... */\n    tag_3:\n      callvalue\n      dup1\n      iszero\n      tag_28\n      jumpi\n      0x00\n      dup1\n      revert\n    tag_28:\n      pop\n      tag_29\n      tag_30\n      jump\t// in\n    tag_29:\n      mload(0x40)\n      tag_31\n      swap2\n      swap1\n      tag_32\n      jump\t// in\n    tag_31:\n      mload(0x40)\n      dup1\n      swap2\n      sub\n      swap1\n      return\n        /* \"mokkozi/week3/erc721.sol\":10904:11034  function getApproved(uint256 tokenId) public override view returns (address)... */\n    tag_4:\n      callvalue\n      dup1\n      iszero\n      tag_33\n      jumpi\n      0x00\n      dup1\n      revert\n    tag_33:\n      pop\n      tag_34\n      0x04\n      dup1\n      calldatasize\n      sub\n      dup2\n      add\n      swap1\n      tag_35\n      swap2\n      swap1\n      tag_36\n      jump\t// in\n    tag_35:\n      tag_37\n      jump\t// in\n    tag_34:\n      mload(0x40)\n      tag_38\n      swap2\n      swap1\n      tag_39\n      jump\t// in\n    tag_38:\n      mload(0x40)\n      dup1\n      swap2\n      sub\n      swap1\n      return\n        /* \"mokkozi/week3/erc721.sol\":10510:10898  function approve(address approved, uint256 tokenId) public override payable... */\n    tag_5:\n      tag_40\n      0x04\n      dup1\n      calldatasize\n      sub\n      dup2\n      add\n      swap1\n      tag_41\n      swap2\n      swap1\n      tag_42\n      jump\t// in\n    tag_41:\n      tag_43\n      jump\t// in\n    tag_40:\n      stop\n        /* \"mokkozi/week3/erc721.sol\":8733:8878  function transferFrom(address from, address to, uint256 tokenId) public override payable... */\n    tag_6:\n      tag_44\n      0x04\n      dup1\n      calldatasize\n      sub\n      dup2\n      add\n      swap1\n      tag_45\n      swap2\n      swap1\n      tag_46\n      jump\t// in\n    tag_45:\n      tag_47\n      jump\t// in\n    tag_44:\n      stop\n        /* \"mokkozi/week3/erc721.sol\":9062:9801  function safeTransferFrom(address from, address to, uint256 tokenId) public override payable... */\n    tag_7:\n      tag_48\n      0x04\n      dup1\n      calldatasize\n      sub\n      dup2\n      add\n      swap1\n      tag_49\n      swap2\n      swap1\n      tag_46\n      jump\t// in\n    tag_49:\n      tag_50\n      jump\t// in\n    tag_48:\n      stop\n        /* \"mokkozi/week3/erc721.sol\":8603:8727  function ownerOf(uint256 tokenId) public override view returns (address)... */\n    tag_8:\n      callvalue\n      dup1\n      iszero\n      tag_51\n      jumpi\n      0x00\n      dup1\n      revert\n    tag_51:\n      pop\n      tag_52\n      0x04\n      dup1\n      calldatasize\n      sub\n      dup2\n      add\n      swap1\n      tag_53\n      swap2\n      swap1\n      tag_36\n      jump\t// in\n    tag_53:\n      tag_54\n      jump\t// in\n    tag_52:\n      mload(0x40)\n      tag_55\n      swap2\n      swap1\n      tag_39\n      jump\t// in\n    tag_55:\n      mload(0x40)\n      dup1\n      swap2\n      sub\n      swap1\n      return\n        /* \"mokkozi/week3/erc721.sol\":7271:7305  string public tokenName = \"minion\" */\n    tag_9:\n      callvalue\n      dup1\n      iszero\n      tag_56\n      jumpi\n      0x00\n      dup1\n      revert\n    tag_56:\n      pop\n      tag_57\n      tag_58\n      jump\t// in\n    tag_57:\n      mload(0x40)\n      tag_59\n      swap2\n      swap1\n      tag_32\n      jump\t// in\n    tag_59:\n      mload(0x40)\n      dup1\n      swap2\n      sub\n      swap1\n      return\n        /* \"mokkozi/week3/erc721.sol\":8475:8597  function balanceOf(address owner) public override view returns (uint256)... */\n    tag_10:\n      callvalue\n      dup1\n      iszero\n      tag_60\n      jumpi\n      0x00\n      dup1\n      revert\n    tag_60:\n      pop\n      tag_61\n      0x04\n      dup1\n      calldatasize\n      sub\n      dup2\n      add\n      swap1\n      tag_62\n      swap2\n      swap1\n      tag_63\n      jump\t// in\n    tag_62:\n      tag_64\n      jump\t// in\n    tag_61:\n      mload(0x40)\n      tag_65\n      swap2\n      swap1\n      tag_66\n      jump\t// in\n    tag_65:\n      mload(0x40)\n      dup1\n      swap2\n      sub\n      swap1\n      return\n        /* \"mokkozi/week3/erc721.sol\":7311:7344  string public tokenSymbol = \"MIN\" */\n    tag_11:\n      callvalue\n      dup1\n      iszero\n      tag_67\n      jumpi\n      0x00\n      dup1\n      revert\n    tag_67:\n      pop\n      tag_68\n      tag_69\n      jump\t// in\n    tag_68:\n      mload(0x40)\n      tag_70\n      swap2\n      swap1\n      tag_32\n      jump\t// in\n    tag_70:\n      mload(0x40)\n      dup1\n      swap2\n      sub\n      swap1\n      return\n        /* \"mokkozi/week3/erc721.sol\":8220:8330  function symbol() public override view returns (string memory _symbol)... */\n    tag_12:\n      callvalue\n      dup1\n      iszero\n      tag_71\n      jumpi\n      0x00\n      dup1\n      revert\n    tag_71:\n      pop\n      tag_72\n      tag_73\n      jump\t// in\n    tag_72:\n      mload(0x40)\n      tag_74\n      swap2\n      swap1\n      tag_32\n      jump\t// in\n    tag_74:\n      mload(0x40)\n      dup1\n      swap2\n      sub\n      swap1\n      return\n        /* \"mokkozi/week3/erc721.sol\":11040:11307  function setApprovalForAll(address operator, bool approved) public override... */\n    tag_13:\n      callvalue\n      dup1\n      iszero\n      tag_75\n      jumpi\n      0x00\n      dup1\n      revert\n    tag_75:\n      pop\n      tag_76\n      0x04\n      dup1\n      calldatasize\n      sub\n      dup2\n      add\n      swap1\n      tag_77\n      swap2\n      swap1\n      tag_78\n      jump\t// in\n    tag_77:\n      tag_79\n      jump\t// in\n    tag_76:\n      stop\n        /* \"mokkozi/week3/erc721.sol\":8884:9056  function safeTransferFrom(address from, address to, uint256 tokenId, bytes memory data) public override payable... */\n    tag_14:\n      tag_80\n      0x04\n      dup1\n      calldatasize\n      sub\n      dup2\n      add\n      swap1\n      tag_81\n      swap2\n      swap1\n      tag_82\n      jump\t// in\n    tag_81:\n      tag_83\n      jump\t// in\n    tag_80:\n      stop\n        /* \"mokkozi/week3/erc721.sol\":8336:8464  function tokenURI(uint256 _tokenId) public override view returns (string memory)... */\n    tag_15:\n      callvalue\n      dup1\n      iszero\n      tag_84\n      jumpi\n      0x00\n      dup1\n      revert\n    tag_84:\n      pop\n      tag_85\n      0x04\n      dup1\n      calldatasize\n      sub\n      dup2\n      add\n      swap1\n      tag_86\n      swap2\n      swap1\n      tag_36\n      jump\t// in\n    tag_86:\n      tag_87\n      jump\t// in\n    tag_85:\n      mload(0x40)\n      tag_88\n      swap2\n      swap1\n      tag_32\n      jump\t// in\n    tag_88:\n      mload(0x40)\n      dup1\n      swap2\n      sub\n      swap1\n      return\n        /* \"mokkozi/week3/erc721.sol\":10081:10394  function mint(address to, uint256 tokenId, string memory uri) public... */\n    tag_16:\n      callvalue\n      dup1\n      iszero\n      tag_89\n      jumpi\n      0x00\n      dup1\n      revert\n    tag_89:\n      pop\n      tag_90\n      0x04\n      dup1\n      calldatasize\n      sub\n      dup2\n      add\n      swap1\n      tag_91\n      swap2\n      swap1\n      tag_92\n      jump\t// in\n    tag_91:\n      tag_93\n      jump\t// in\n    tag_90:\n      stop\n        /* \"mokkozi/week3/erc721.sol\":11313:11468  function isApprovedForAll(address owner, address operator) public override view returns (bool)... */\n    tag_17:\n      callvalue\n      dup1\n      iszero\n      tag_94\n      jumpi\n      0x00\n      dup1\n      revert\n    tag_94:\n      pop\n      tag_95\n      0x04\n      dup1\n      calldatasize\n      sub\n      dup2\n      add\n      swap1\n      tag_96\n      swap2\n      swap1\n      tag_97\n      jump\t// in\n    tag_96:\n      tag_98\n      jump\t// in\n    tag_95:\n      mload(0x40)\n      tag_99\n      swap2\n      swap1\n      tag_27\n      jump\t// in\n    tag_99:\n      mload(0x40)\n      dup1\n      swap2\n      sub\n      swap1\n      return\n        /* \"mokkozi/week3/erc721.sol\":7676:8105  function supportsInterface(bytes4 interfaceID) public override pure returns(bool)... */\n    tag_25:\n        /* \"mokkozi/week3/erc721.sol\":7752:7756  bool */\n      0x00\n        /* \"mokkozi/week3/erc721.sol\":7791:7815  type(ERC165).interfaceId */\n      0x01ffc9a700000000000000000000000000000000000000000000000000000000\n        /* \"mokkozi/week3/erc721.sol\":7776:7815  interfaceID == type(ERC165).interfaceId */\n      not(0xffffffffffffffffffffffffffffffffffffffffffffffffffffffff)\n      and\n        /* \"mokkozi/week3/erc721.sol\":7776:7787  interfaceID */\n      dup3\n        /* \"mokkozi/week3/erc721.sol\":7776:7815  interfaceID == type(ERC165).interfaceId */\n      not(0xffffffffffffffffffffffffffffffffffffffffffffffffffffffff)\n      and\n      eq\n        /* \"mokkozi/week3/erc721.sol\":7772:8077  if (interfaceID == type(ERC165).interfaceId)... */\n      iszero\n      tag_101\n      jumpi\n        /* \"mokkozi/week3/erc721.sol\":7846:7850  true */\n      0x01\n        /* \"mokkozi/week3/erc721.sol\":7839:7850  return true */\n      swap1\n      pop\n      jump(tag_100)\n        /* \"mokkozi/week3/erc721.sol\":7772:8077  if (interfaceID == type(ERC165).interfaceId)... */\n    tag_101:\n        /* \"mokkozi/week3/erc721.sol\":7895:7919  type(ERC721).interfaceId */\n      0x80ac58cd00000000000000000000000000000000000000000000000000000000\n        /* \"mokkozi/week3/erc721.sol\":7880:7919  interfaceID == type(ERC721).interfaceId */\n      not(0xffffffffffffffffffffffffffffffffffffffffffffffffffffffff)\n      and\n        /* \"mokkozi/week3/erc721.sol\":7880:7891  interfaceID */\n      dup3\n        /* \"mokkozi/week3/erc721.sol\":7880:7919  interfaceID == type(ERC721).interfaceId */\n      not(0xffffffffffffffffffffffffffffffffffffffffffffffffffffffff)\n      and\n      eq\n        /* \"mokkozi/week3/erc721.sol\":7875:8077  if ( interfaceID == type(ERC721).interfaceId)... */\n      iszero\n      tag_103\n      jumpi\n        /* \"mokkozi/week3/erc721.sol\":7950:7954  true */\n      0x01\n        /* \"mokkozi/week3/erc721.sol\":7943:7954  return true */\n      swap1\n      pop\n      jump(tag_100)\n        /* \"mokkozi/week3/erc721.sol\":7875:8077  if ( interfaceID == type(ERC721).interfaceId)... */\n    tag_103:\n        /* \"mokkozi/week3/erc721.sol\":7999:8031  type(ERC721Metadata).interfaceId */\n      0x5b5e139f00000000000000000000000000000000000000000000000000000000\n        /* \"mokkozi/week3/erc721.sol\":7984:8031  interfaceID == type(ERC721Metadata).interfaceId */\n      not(0xffffffffffffffffffffffffffffffffffffffffffffffffffffffff)\n      and\n        /* \"mokkozi/week3/erc721.sol\":7984:7995  interfaceID */\n      dup3\n        /* \"mokkozi/week3/erc721.sol\":7984:8031  interfaceID == type(ERC721Metadata).interfaceId */\n      not(0xffffffffffffffffffffffffffffffffffffffffffffffffffffffff)\n      and\n      eq\n        /* \"mokkozi/week3/erc721.sol\":7979:8077  if ( interfaceID == type(ERC721Metadata).interfaceId)... */\n      iszero\n      tag_105\n      jumpi\n        /* \"mokkozi/week3/erc721.sol\":8062:8066  true */\n      0x01\n        /* \"mokkozi/week3/erc721.sol\":8055:8066  return true */\n      swap1\n      pop\n      jump(tag_100)\n        /* \"mokkozi/week3/erc721.sol\":7979:8077  if ( interfaceID == type(ERC721Metadata).interfaceId)... */\n    tag_105:\n        /* \"mokkozi/week3/erc721.sol\":8093:8098  false */\n      0x00\n        /* \"mokkozi/week3/erc721.sol\":8086:8098  return false */\n      swap1\n      pop\n        /* \"mokkozi/week3/erc721.sol\":7676:8105  function supportsInterface(bytes4 interfaceID) public override pure returns(bool)... */\n    tag_100:\n      swap2\n      swap1\n      pop\n      jump\t// out\n        /* \"mokkozi/week3/erc721.sol\":8110:8214  function name() public override view returns (string memory _name)... */\n    tag_30:\n        /* \"mokkozi/week3/erc721.sol\":8156:8175  string memory _name */\n      0x60\n        /* \"mokkozi/week3/erc721.sol\":8198:8207  tokenName */\n      0x00\n        /* \"mokkozi/week3/erc721.sol\":8191:8207  return tokenName */\n      dup1\n      sload\n      tag_107\n      swap1\n      tag_108\n      jump\t// in\n    tag_107:\n      dup1\n      0x1f\n      add\n      0x20\n      dup1\n      swap2\n      div\n      mul\n      0x20\n      add\n      mload(0x40)\n      swap1\n      dup2\n      add\n      0x40\n      mstore\n      dup1\n      swap3\n      swap2\n      swap1\n      dup2\n      dup2\n      mstore\n      0x20\n      add\n      dup3\n      dup1\n      sload\n      tag_109\n      swap1\n      tag_108\n      jump\t// in\n    tag_109:\n      dup1\n      iszero\n      tag_110\n      jumpi\n      dup1\n      0x1f\n      lt\n      tag_111\n      jumpi\n      0x0100\n      dup1\n      dup4\n      sload\n      div\n      mul\n      dup4\n      mstore\n      swap2\n      0x20\n      add\n      swap2\n      jump(tag_110)\n    tag_111:\n      dup3\n      add\n      swap2\n      swap1\n      0x00\n      mstore\n      keccak256(0x00, 0x20)\n      swap1\n    tag_112:\n      dup2\n      sload\n      dup2\n      mstore\n      swap1\n      0x01\n      add\n      swap1\n      0x20\n      add\n      dup1\n      dup4\n      gt\n      tag_112\n      jumpi\n      dup3\n      swap1\n      sub\n      0x1f\n      and\n      dup3\n      add\n      swap2\n    tag_110:\n      pop\n      pop\n      pop\n      pop\n      pop\n      swap1\n      pop\n        /* \"mokkozi/week3/erc721.sol\":8110:8214  function name() public override view returns (string memory _name)... */\n      swap1\n      jump\t// out\n        /* \"mokkozi/week3/erc721.sol\":10904:11034  function getApproved(uint256 tokenId) public override view returns (address)... */\n    tag_37:\n        /* \"mokkozi/week3/erc721.sol\":10972:10979  address */\n      0x00\n        /* \"mokkozi/week3/erc721.sol\":11002:11018  approveOfTokenId */\n      0x05\n        /* \"mokkozi/week3/erc721.sol\":11002:11027  approveOfTokenId[tokenId] */\n      0x00\n        /* \"mokkozi/week3/erc721.sol\":11019:11026  tokenId */\n      dup4\n        /* \"mokkozi/week3/erc721.sol\":11002:11027  approveOfTokenId[tokenId] */\n      dup2\n      mstore\n      0x20\n      add\n      swap1\n      dup2\n      mstore\n      0x20\n      add\n      0x00\n      keccak256\n      0x00\n      swap1\n      sload\n      swap1\n      0x0100\n      exp\n      swap1\n      div\n      0xffffffffffffffffffffffffffffffffffffffff\n      and\n        /* \"mokkozi/week3/erc721.sol\":10995:11027  return approveOfTokenId[tokenId] */\n      swap1\n      pop\n        /* \"mokkozi/week3/erc721.sol\":10904:11034  function getApproved(uint256 tokenId) public override view returns (address)... */\n      swap2\n      swap1\n      pop\n      jump\t// out\n        /* \"mokkozi/week3/erc721.sol\":10510:10898  function approve(address approved, uint256 tokenId) public override payable... */\n    tag_43:\n        /* \"mokkozi/week3/erc721.sol\":10649:10667  address tokenOwner */\n      0x00\n        /* \"mokkozi/week3/erc721.sol\":10670:10684  ownerByTokenId */\n      0x04\n        /* \"mokkozi/week3/erc721.sol\":10670:10693  ownerByTokenId[tokenId] */\n      0x00\n        /* \"mokkozi/week3/erc721.sol\":10685:10692  tokenId */\n      dup4\n        /* \"mokkozi/week3/erc721.sol\":10670:10693  ownerByTokenId[tokenId] */\n      dup2\n      mstore\n      0x20\n      add\n      swap1\n      dup2\n      mstore\n      0x20\n      add\n      0x00\n      keccak256\n      0x00\n      swap1\n      sload\n      swap1\n      0x0100\n      exp\n      swap1\n      div\n      0xffffffffffffffffffffffffffffffffffffffff\n      and\n        /* \"mokkozi/week3/erc721.sol\":10649:10693  address tokenOwner = ownerByTokenId[tokenId] */\n      swap1\n      pop\n        /* \"mokkozi/week3/erc721.sol\":10774:10775  0 */\n      0x00\n        /* \"mokkozi/week3/erc721.sol\":10752:10776  tokenOwner != address(0) */\n      0xffffffffffffffffffffffffffffffffffffffff\n      and\n        /* \"mokkozi/week3/erc721.sol\":10752:10762  tokenOwner */\n      dup2\n        /* \"mokkozi/week3/erc721.sol\":10752:10776  tokenOwner != address(0) */\n      0xffffffffffffffffffffffffffffffffffffffff\n      and\n      eq\n      iszero\n        /* \"mokkozi/week3/erc721.sol\":10744:10791  require(tokenOwner != address(0), \"not minted\") */\n      tag_115\n      jumpi\n      mload(0x40)\n      0x08c379a000000000000000000000000000000000000000000000000000000000\n      dup2\n      mstore\n      0x04\n      add\n      tag_116\n      swap1\n      tag_117\n      jump\t// in\n    tag_116:\n      mload(0x40)\n      dup1\n      swap2\n      sub\n      swap1\n      revert\n    tag_115:\n        /* \"mokkozi/week3/erc721.sol\":10829:10837  approved */\n      dup3\n        /* \"mokkozi/week3/erc721.sol\":10801:10817  approveOfTokenId */\n      0x05\n        /* \"mokkozi/week3/erc721.sol\":10801:10826  approveOfTokenId[tokenId] */\n      0x00\n        /* \"mokkozi/week3/erc721.sol\":10818:10825  tokenId */\n      dup5\n        /* \"mokkozi/week3/erc721.sol\":10801:10826  approveOfTokenId[tokenId] */\n      dup2\n      mstore\n      0x20\n      add\n      swap1\n      dup2\n      mstore\n      0x20\n      add\n      0x00\n      keccak256\n      0x00\n        /* \"mokkozi/week3/erc721.sol\":10801:10837  approveOfTokenId[tokenId] = approved */\n      0x0100\n      exp\n      dup2\n      sload\n      dup2\n      0xffffffffffffffffffffffffffffffffffffffff\n      mul\n      not\n      and\n      swap1\n      dup4\n      0xffffffffffffffffffffffffffffffffffffffff\n      and\n      mul\n      or\n      swap1\n      sstore\n      pop\n        /* \"mokkozi/week3/erc721.sol\":10883:10890  tokenId */\n      dup2\n        /* \"mokkozi/week3/erc721.sol\":10873:10881  approved */\n      dup4\n        /* \"mokkozi/week3/erc721.sol\":10852:10891  Approval(tokenOwner, approved, tokenId) */\n      0xffffffffffffffffffffffffffffffffffffffff\n      and\n        /* \"mokkozi/week3/erc721.sol\":10861:10871  tokenOwner */\n      dup3\n        /* \"mokkozi/week3/erc721.sol\":10852:10891  Approval(tokenOwner, approved, tokenId) */\n      0xffffffffffffffffffffffffffffffffffffffff\n      and\n      0x8c5be1e5ebec7d5bd14f71427d1e84f3dd0314c0f7b2291e5b200ac8c7c3b925\n      mload(0x40)\n      mload(0x40)\n      dup1\n      swap2\n      sub\n      swap1\n      log4\n        /* \"mokkozi/week3/erc721.sol\":10590:10898  {   // 소유권 이전의 원래 소유자 주소... */\n      pop\n        /* \"mokkozi/week3/erc721.sol\":10510:10898  function approve(address approved, uint256 tokenId) public override payable... */\n      pop\n      pop\n      jump\t// out\n        /* \"mokkozi/week3/erc721.sol\":8733:8878  function transferFrom(address from, address to, uint256 tokenId) public override payable... */\n    tag_47:\n        /* \"mokkozi/week3/erc721.sol\":8836:8871  safeTransferFrom(from, to, tokenId) */\n      tag_119\n        /* \"mokkozi/week3/erc721.sol\":8853:8857  from */\n      dup4\n        /* \"mokkozi/week3/erc721.sol\":8859:8861  to */\n      dup4\n        /* \"mokkozi/week3/erc721.sol\":8863:8870  tokenId */\n      dup4\n        /* \"mokkozi/week3/erc721.sol\":8836:8852  safeTransferFrom */\n      tag_50\n        /* \"mokkozi/week3/erc721.sol\":8836:8871  safeTransferFrom(from, to, tokenId) */\n      jump\t// in\n    tag_119:\n        /* \"mokkozi/week3/erc721.sol\":8733:8878  function transferFrom(address from, address to, uint256 tokenId) public override payable... */\n      pop\n      pop\n      pop\n      jump\t// out\n        /* \"mokkozi/week3/erc721.sol\":9062:9801  function safeTransferFrom(address from, address to, uint256 tokenId) public override payable... */\n    tag_50:\n        /* \"mokkozi/week3/erc721.sol\":9251:9252  0 */\n      0x00\n        /* \"mokkozi/week3/erc721.sol\":9237:9253  to != address(0) */\n      0xffffffffffffffffffffffffffffffffffffffff\n      and\n        /* \"mokkozi/week3/erc721.sol\":9237:9239  to */\n      dup3\n        /* \"mokkozi/week3/erc721.sol\":9237:9253  to != address(0) */\n      0xffffffffffffffffffffffffffffffffffffffff\n      and\n      eq\n      iszero\n        /* \"mokkozi/week3/erc721.sol\":9228:9276  require( to != address(0), \"invalid TO address\") */\n      tag_121\n      jumpi\n      mload(0x40)\n      0x08c379a000000000000000000000000000000000000000000000000000000000\n      dup2\n      mstore\n      0x04\n      add\n      tag_122\n      swap1\n      tag_123\n      jump\t// in\n    tag_122:\n      mload(0x40)\n      dup1\n      swap2\n      sub\n      swap1\n      revert\n    tag_121:\n        /* \"mokkozi/week3/erc721.sol\":9425:9443  address tokenOwner */\n      0x00\n        /* \"mokkozi/week3/erc721.sol\":9446:9460  ownerByTokenId */\n      0x04\n        /* \"mokkozi/week3/erc721.sol\":9446:9469  ownerByTokenId[tokenId] */\n      0x00\n        /* \"mokkozi/week3/erc721.sol\":9461:9468  tokenId */\n      dup4\n        /* \"mokkozi/week3/erc721.sol\":9446:9469  ownerByTokenId[tokenId] */\n      dup2\n      mstore\n      0x20\n      add\n      swap1\n      dup2\n      mstore\n      0x20\n      add\n      0x00\n      keccak256\n      0x00\n      swap1\n      sload\n      swap1\n      0x0100\n      exp\n      swap1\n      div\n      0xffffffffffffffffffffffffffffffffffffffff\n      and\n        /* \"mokkozi/week3/erc721.sol\":9425:9469  address tokenOwner = ownerByTokenId[tokenId] */\n      swap1\n      pop\n        /* \"mokkozi/week3/erc721.sol\":9510:9511  0 */\n      0x00\n        /* \"mokkozi/week3/erc721.sol\":9488:9512  tokenOwner != address(0) */\n      0xffffffffffffffffffffffffffffffffffffffff\n      and\n        /* \"mokkozi/week3/erc721.sol\":9488:9498  tokenOwner */\n      dup2\n        /* \"mokkozi/week3/erc721.sol\":9488:9512  tokenOwner != address(0) */\n      0xffffffffffffffffffffffffffffffffffffffff\n      and\n      eq\n      iszero\n        /* \"mokkozi/week3/erc721.sol\":9479:9532  require( tokenOwner != address(0), \"invalid tokenId\") */\n      tag_124\n      jumpi\n      mload(0x40)\n      0x08c379a000000000000000000000000000000000000000000000000000000000\n      dup2\n      mstore\n      0x04\n      add\n      tag_125\n      swap1\n      tag_126\n      jump\t// in\n    tag_125:\n      mload(0x40)\n      dup1\n      swap2\n      sub\n      swap1\n      revert\n    tag_124:\n        /* \"mokkozi/week3/erc721.sol\":9566:9570  from */\n      dup4\n        /* \"mokkozi/week3/erc721.sol\":9552:9570  tokenOwner == from */\n      0xffffffffffffffffffffffffffffffffffffffff\n      and\n        /* \"mokkozi/week3/erc721.sol\":9552:9562  tokenOwner */\n      dup2\n        /* \"mokkozi/week3/erc721.sol\":9552:9570  tokenOwner == from */\n      0xffffffffffffffffffffffffffffffffffffffff\n      and\n      eq\n        /* \"mokkozi/week3/erc721.sol\":9543:9583  require( tokenOwner == from, \"not Auth\") */\n      tag_127\n      jumpi\n      mload(0x40)\n      0x08c379a000000000000000000000000000000000000000000000000000000000\n      dup2\n      mstore\n      0x04\n      add\n      tag_128\n      swap1\n      tag_129\n      jump\t// in\n    tag_128:\n      mload(0x40)\n      dup1\n      swap2\n      sub\n      swap1\n      revert\n    tag_127:\n        /* \"mokkozi/week3/erc721.sol\":9611:9613  to */\n      dup3\n        /* \"mokkozi/week3/erc721.sol\":9603:9613  from != to */\n      0xffffffffffffffffffffffffffffffffffffffff\n      and\n        /* \"mokkozi/week3/erc721.sol\":9603:9607  from */\n      dup5\n        /* \"mokkozi/week3/erc721.sol\":9603:9613  from != to */\n      0xffffffffffffffffffffffffffffffffffffffff\n      and\n      eq\n      iszero\n        /* \"mokkozi/week3/erc721.sol\":9594:9643  require( from != to , \"you can tranfer yourself\") */\n      tag_130\n      jumpi\n      mload(0x40)\n      0x08c379a000000000000000000000000000000000000000000000000000000000\n      dup2\n      mstore\n      0x04\n      add\n      tag_131\n      swap1\n      tag_132\n      jump\t// in\n    tag_131:\n      mload(0x40)\n      dup1\n      swap2\n      sub\n      swap1\n      revert\n    tag_130:\n        /* \"mokkozi/week3/erc721.sol\":9680:9682  to */\n      dup3\n        /* \"mokkozi/week3/erc721.sol\":9654:9668  ownerByTokenId */\n      0x04\n        /* \"mokkozi/week3/erc721.sol\":9654:9677  ownerByTokenId[tokenId] */\n      0x00\n        /* \"mokkozi/week3/erc721.sol\":9669:9676  tokenId */\n      dup5\n        /* \"mokkozi/week3/erc721.sol\":9654:9677  ownerByTokenId[tokenId] */\n      dup2\n      mstore\n      0x20\n      add\n      swap1\n      dup2\n      mstore\n      0x20\n      add\n      0x00\n      keccak256\n      0x00\n        /* \"mokkozi/week3/erc721.sol\":9654:9682  ownerByTokenId[tokenId] = to */\n      0x0100\n      exp\n      dup2\n      sload\n      dup2\n      0xffffffffffffffffffffffffffffffffffffffff\n      mul\n      not\n      and\n      swap1\n      dup4\n      0xffffffffffffffffffffffffffffffffffffffff\n      and\n      mul\n      or\n      swap1\n      sstore\n      pop\n        /* \"mokkozi/week3/erc721.sol\":9717:9718  1 */\n      0x01\n        /* \"mokkozi/week3/erc721.sol\":9693:9707  balanceByOwner */\n      0x03\n        /* \"mokkozi/week3/erc721.sol\":9693:9713  balanceByOwner[from] */\n      0x00\n        /* \"mokkozi/week3/erc721.sol\":9708:9712  from */\n      dup7\n        /* \"mokkozi/week3/erc721.sol\":9693:9713  balanceByOwner[from] */\n      0xffffffffffffffffffffffffffffffffffffffff\n      and\n      0xffffffffffffffffffffffffffffffffffffffff\n      and\n      dup2\n      mstore\n      0x20\n      add\n      swap1\n      dup2\n      mstore\n      0x20\n      add\n      0x00\n      keccak256\n      0x00\n        /* \"mokkozi/week3/erc721.sol\":9693:9718  balanceByOwner[from] -= 1 */\n      dup3\n      dup3\n      sload\n      tag_133\n      swap2\n      swap1\n      tag_134\n      jump\t// in\n    tag_133:\n      swap3\n      pop\n      pop\n      dup2\n      swap1\n      sstore\n      pop\n        /* \"mokkozi/week3/erc721.sol\":9750:9751  1 */\n      0x01\n        /* \"mokkozi/week3/erc721.sol\":9728:9742  balanceByOwner */\n      0x03\n        /* \"mokkozi/week3/erc721.sol\":9728:9746  balanceByOwner[to] */\n      0x00\n        /* \"mokkozi/week3/erc721.sol\":9743:9745  to */\n      dup6\n        /* \"mokkozi/week3/erc721.sol\":9728:9746  balanceByOwner[to] */\n      0xffffffffffffffffffffffffffffffffffffffff\n      and\n      0xffffffffffffffffffffffffffffffffffffffff\n      and\n      dup2\n      mstore\n      0x20\n      add\n      swap1\n      dup2\n      mstore\n      0x20\n      add\n      0x00\n      keccak256\n      0x00\n        /* \"mokkozi/week3/erc721.sol\":9728:9751  balanceByOwner[to] += 1 */\n      dup3\n      dup3\n      sload\n      tag_135\n      swap2\n      swap1\n      tag_136\n      jump\t// in\n    tag_135:\n      swap3\n      pop\n      pop\n      dup2\n      swap1\n      sstore\n      pop\n        /* \"mokkozi/week3/erc721.sol\":9786:9793  tokenId */\n      dup2\n        /* \"mokkozi/week3/erc721.sol\":9782:9784  to */\n      dup4\n        /* \"mokkozi/week3/erc721.sol\":9767:9794  Transfer(from, to, tokenId) */\n      0xffffffffffffffffffffffffffffffffffffffff\n      and\n        /* \"mokkozi/week3/erc721.sol\":9776:9780  from */\n      dup6\n        /* \"mokkozi/week3/erc721.sol\":9767:9794  Transfer(from, to, tokenId) */\n      0xffffffffffffffffffffffffffffffffffffffff\n      and\n      0xddf252ad1be2c89b69c2b068fc378daa952ba7f163c4a11628f55a4df523b3ef\n      mload(0x40)\n      mload(0x40)\n      dup1\n      swap2\n      sub\n      swap1\n      log4\n        /* \"mokkozi/week3/erc721.sol\":9159:9801  {   ... */\n      pop\n        /* \"mokkozi/week3/erc721.sol\":9062:9801  function safeTransferFrom(address from, address to, uint256 tokenId) public override payable... */\n      pop\n      pop\n      pop\n      jump\t// out\n        /* \"mokkozi/week3/erc721.sol\":8603:8727  function ownerOf(uint256 tokenId) public override view returns (address)... */\n    tag_54:\n        /* \"mokkozi/week3/erc721.sol\":8667:8674  address */\n      0x00\n        /* \"mokkozi/week3/erc721.sol\":8697:8711  ownerByTokenId */\n      0x04\n        /* \"mokkozi/week3/erc721.sol\":8697:8720  ownerByTokenId[tokenId] */\n      0x00\n        /* \"mokkozi/week3/erc721.sol\":8712:8719  tokenId */\n      dup4\n        /* \"mokkozi/week3/erc721.sol\":8697:8720  ownerByTokenId[tokenId] */\n      dup2\n      mstore\n      0x20\n      add\n      swap1\n      dup2\n      mstore\n      0x20\n      add\n      0x00\n      keccak256\n      0x00\n      swap1\n      sload\n      swap1\n      0x0100\n      exp\n      swap1\n      div\n      0xffffffffffffffffffffffffffffffffffffffff\n      and\n        /* \"mokkozi/week3/erc721.sol\":8690:8720  return ownerByTokenId[tokenId] */\n      swap1\n      pop\n        /* \"mokkozi/week3/erc721.sol\":8603:8727  function ownerOf(uint256 tokenId) public override view returns (address)... */\n      swap2\n      swap1\n      pop\n      jump\t// out\n        /* \"mokkozi/week3/erc721.sol\":7271:7305  string public tokenName = \"minion\" */\n    tag_58:\n      0x00\n      dup1\n      sload\n      tag_138\n      swap1\n      tag_108\n      jump\t// in\n    tag_138:\n      dup1\n      0x1f\n      add\n      0x20\n      dup1\n      swap2\n      div\n      mul\n      0x20\n      add\n      mload(0x40)\n      swap1\n      dup2\n      add\n      0x40\n      mstore\n      dup1\n      swap3\n      swap2\n      swap1\n      dup2\n      dup2\n      mstore\n      0x20\n      add\n      dup3\n      dup1\n      sload\n      tag_139\n      swap1\n      tag_108\n      jump\t// in\n    tag_139:\n      dup1\n      iszero\n      tag_140\n      jumpi\n      dup1\n      0x1f\n      lt\n      tag_141\n      jumpi\n      0x0100\n      dup1\n      dup4\n      sload\n      div\n      mul\n      dup4\n      mstore\n      swap2\n      0x20\n      add\n      swap2\n      jump(tag_140)\n    tag_141:\n      dup3\n      add\n      swap2\n      swap1\n      0x00\n      mstore\n      keccak256(0x00, 0x20)\n      swap1\n    tag_142:\n      dup2\n      sload\n      dup2\n      mstore\n      swap1\n      0x01\n      add\n      swap1\n      0x20\n      add\n      dup1\n      dup4\n      gt\n      tag_142\n      jumpi\n      dup3\n      swap1\n      sub\n      0x1f\n      and\n      dup3\n      add\n      swap2\n    tag_140:\n      pop\n      pop\n      pop\n      pop\n      pop\n      dup2\n      jump\t// out\n        /* \"mokkozi/week3/erc721.sol\":8475:8597  function balanceOf(address owner) public override view returns (uint256)... */\n    tag_64:\n        /* \"mokkozi/week3/erc721.sol\":8539:8546  uint256 */\n      0x00\n        /* \"mokkozi/week3/erc721.sol\":8569:8583  balanceByOwner */\n      0x03\n        /* \"mokkozi/week3/erc721.sol\":8569:8590  balanceByOwner[owner] */\n      0x00\n        /* \"mokkozi/week3/erc721.sol\":8584:8589  owner */\n      dup4\n        /* \"mokkozi/week3/erc721.sol\":8569:8590  balanceByOwner[owner] */\n      0xffffffffffffffffffffffffffffffffffffffff\n      and\n      0xffffffffffffffffffffffffffffffffffffffff\n      and\n      dup2\n      mstore\n      0x20\n      add\n      swap1\n      dup2\n      mstore\n      0x20\n      add\n      0x00\n      keccak256\n      sload\n        /* \"mokkozi/week3/erc721.sol\":8562:8590  return balanceByOwner[owner] */\n      swap1\n      pop\n        /* \"mokkozi/week3/erc721.sol\":8475:8597  function balanceOf(address owner) public override view returns (uint256)... */\n      swap2\n      swap1\n      pop\n      jump\t// out\n        /* \"mokkozi/week3/erc721.sol\":7311:7344  string public tokenSymbol = \"MIN\" */\n    tag_69:\n      0x01\n      dup1\n      sload\n      tag_144\n      swap1\n      tag_108\n      jump\t// in\n    tag_144:\n      dup1\n      0x1f\n      add\n      0x20\n      dup1\n      swap2\n      div\n      mul\n      0x20\n      add\n      mload(0x40)\n      swap1\n      dup2\n      add\n      0x40\n      mstore\n      dup1\n      swap3\n      swap2\n      swap1\n      dup2\n      dup2\n      mstore\n      0x20\n      add\n      dup3\n      dup1\n      sload\n      tag_145\n      swap1\n      tag_108\n      jump\t// in\n    tag_145:\n      dup1\n      iszero\n      tag_146\n      jumpi\n      dup1\n      0x1f\n      lt\n      tag_147\n      jumpi\n      0x0100\n      dup1\n      dup4\n      sload\n      div\n      mul\n      dup4\n      mstore\n      swap2\n      0x20\n      add\n      swap2\n      jump(tag_146)\n    tag_147:\n      dup3\n      add\n      swap2\n      swap1\n      0x00\n      mstore\n      keccak256(0x00, 0x20)\n      swap1\n    tag_148:\n      dup2\n      sload\n      dup2\n      mstore\n      swap1\n      0x01\n      add\n      swap1\n      0x20\n      add\n      dup1\n      dup4\n      gt\n      tag_148\n      jumpi\n      dup3\n      swap1\n      sub\n      0x1f\n      and\n      dup3\n      add\n      swap2\n    tag_146:\n      pop\n      pop\n      pop\n      pop\n      pop\n      dup2\n      jump\t// out\n        /* \"mokkozi/week3/erc721.sol\":8220:8330  function symbol() public override view returns (string memory _symbol)... */\n    tag_73:\n        /* \"mokkozi/week3/erc721.sol\":8268:8289  string memory _symbol */\n      0x60\n        /* \"mokkozi/week3/erc721.sol\":8312:8323  tokenSymbol */\n      0x01\n        /* \"mokkozi/week3/erc721.sol\":8305:8323  return tokenSymbol */\n      dup1\n      sload\n      tag_150\n      swap1\n      tag_108\n      jump\t// in\n    tag_150:\n      dup1\n      0x1f\n      add\n      0x20\n      dup1\n      swap2\n      div\n      mul\n      0x20\n      add\n      mload(0x40)\n      swap1\n      dup2\n      add\n      0x40\n      mstore\n      dup1\n      swap3\n      swap2\n      swap1\n      dup2\n      dup2\n      mstore\n      0x20\n      add\n      dup3\n      dup1\n      sload\n      tag_151\n      swap1\n      tag_108\n      jump\t// in\n    tag_151:\n      dup1\n      iszero\n      tag_152\n      jumpi\n      dup1\n      0x1f\n      lt\n      tag_153\n      jumpi\n      0x0100\n      dup1\n      dup4\n      sload\n      div\n      mul\n      dup4\n      mstore\n      swap2\n      0x20\n      add\n      swap2\n      jump(tag_152)\n    tag_153:\n      dup3\n      add\n      swap2\n      swap1\n      0x00\n      mstore\n      keccak256(0x00, 0x20)\n      swap1\n    tag_154:\n      dup2\n      sload\n      dup2\n      mstore\n      swap1\n      0x01\n      add\n      swap1\n      0x20\n      add\n      dup1\n      dup4\n      gt\n      tag_154\n      jumpi\n      dup3\n      swap1\n      sub\n      0x1f\n      and\n      dup3\n      add\n      swap2\n    tag_152:\n      pop\n      pop\n      pop\n      pop\n      pop\n      swap1\n      pop\n        /* \"mokkozi/week3/erc721.sol\":8220:8330  function symbol() public override view returns (string memory _symbol)... */\n      swap1\n      jump\t// out\n        /* \"mokkozi/week3/erc721.sol\":11040:11307  function setApprovalForAll(address operator, bool approved) public override... */\n    tag_79:\n        /* \"mokkozi/week3/erc721.sol\":11152:11160  operator */\n      dup2\n        /* \"mokkozi/week3/erc721.sol\":11138:11160  msg.sender != operator */\n      0xffffffffffffffffffffffffffffffffffffffff\n      and\n        /* \"mokkozi/week3/erc721.sol\":11138:11148  msg.sender */\n      caller\n        /* \"mokkozi/week3/erc721.sol\":11138:11160  msg.sender != operator */\n      0xffffffffffffffffffffffffffffffffffffffff\n      and\n      eq\n      iszero\n        /* \"mokkozi/week3/erc721.sol\":11130:11181  require(msg.sender != operator, \"invalid operator\") */\n      tag_156\n      jumpi\n      mload(0x40)\n      0x08c379a000000000000000000000000000000000000000000000000000000000\n      dup2\n      mstore\n      0x04\n      add\n      tag_157\n      swap1\n      tag_158\n      jump\t// in\n    tag_157:\n      mload(0x40)\n      dup1\n      swap2\n      sub\n      swap1\n      revert\n    tag_156:\n        /* \"mokkozi/week3/erc721.sol\":11231:11239  approved */\n      dup1\n        /* \"mokkozi/week3/erc721.sol\":11191:11206  approvedOfOwner */\n      0x06\n        /* \"mokkozi/week3/erc721.sol\":11191:11218  approvedOfOwner[msg.sender] */\n      0x00\n        /* \"mokkozi/week3/erc721.sol\":11207:11217  msg.sender */\n      caller\n        /* \"mokkozi/week3/erc721.sol\":11191:11218  approvedOfOwner[msg.sender] */\n      0xffffffffffffffffffffffffffffffffffffffff\n      and\n      0xffffffffffffffffffffffffffffffffffffffff\n      and\n      dup2\n      mstore\n      0x20\n      add\n      swap1\n      dup2\n      mstore\n      0x20\n      add\n      0x00\n      keccak256\n        /* \"mokkozi/week3/erc721.sol\":11191:11228  approvedOfOwner[msg.sender][operator] */\n      0x00\n        /* \"mokkozi/week3/erc721.sol\":11219:11227  operator */\n      dup5\n        /* \"mokkozi/week3/erc721.sol\":11191:11228  approvedOfOwner[msg.sender][operator] */\n      0xffffffffffffffffffffffffffffffffffffffff\n      and\n      0xffffffffffffffffffffffffffffffffffffffff\n      and\n      dup2\n      mstore\n      0x20\n      add\n      swap1\n      dup2\n      mstore\n      0x20\n      add\n      0x00\n      keccak256\n      0x00\n        /* \"mokkozi/week3/erc721.sol\":11191:11239  approvedOfOwner[msg.sender][operator] = approved */\n      0x0100\n      exp\n      dup2\n      sload\n      dup2\n      0xff\n      mul\n      not\n      and\n      swap1\n      dup4\n      iszero\n      iszero\n      mul\n      or\n      swap1\n      sstore\n      pop\n        /* \"mokkozi/week3/erc721.sol\":11281:11289  operator */\n      dup2\n        /* \"mokkozi/week3/erc721.sol\":11254:11300  ApprovalForAll(msg.sender, operator, approved) */\n      0xffffffffffffffffffffffffffffffffffffffff\n      and\n        /* \"mokkozi/week3/erc721.sol\":11269:11279  msg.sender */\n      caller\n        /* \"mokkozi/week3/erc721.sol\":11254:11300  ApprovalForAll(msg.sender, operator, approved) */\n      0xffffffffffffffffffffffffffffffffffffffff\n      and\n      0x17307eab39ab6107e8899845ad3d59bd9653f200f220920489ca2b5937696c31\n        /* \"mokkozi/week3/erc721.sol\":11291:11299  approved */\n      dup4\n        /* \"mokkozi/week3/erc721.sol\":11254:11300  ApprovalForAll(msg.sender, operator, approved) */\n      mload(0x40)\n      tag_159\n      swap2\n      swap1\n      tag_27\n      jump\t// in\n    tag_159:\n      mload(0x40)\n      dup1\n      swap2\n      sub\n      swap1\n      log3\n        /* \"mokkozi/week3/erc721.sol\":11040:11307  function setApprovalForAll(address operator, bool approved) public override... */\n      pop\n      pop\n      jump\t// out\n        /* \"mokkozi/week3/erc721.sol\":8884:9056  function safeTransferFrom(address from, address to, uint256 tokenId, bytes memory data) public override payable... */\n    tag_83:\n        /* \"mokkozi/week3/erc721.sol\":9010:9049  safeTransferFrom(from, to, tokenId, \"\") */\n      tag_161\n        /* \"mokkozi/week3/erc721.sol\":9027:9031  from */\n      dup5\n        /* \"mokkozi/week3/erc721.sol\":9033:9035  to */\n      dup5\n        /* \"mokkozi/week3/erc721.sol\":9037:9044  tokenId */\n      dup5\n        /* \"mokkozi/week3/erc721.sol\":9010:9049  safeTransferFrom(from, to, tokenId, \"\") */\n      mload(0x40)\n      dup1\n      0x20\n      add\n      0x40\n      mstore\n      dup1\n      0x00\n      dup2\n      mstore\n      pop\n        /* \"mokkozi/week3/erc721.sol\":9010:9026  safeTransferFrom */\n      tag_83\n        /* \"mokkozi/week3/erc721.sol\":9010:9049  safeTransferFrom(from, to, tokenId, \"\") */\n      jump\t// in\n    tag_161:\n        /* \"mokkozi/week3/erc721.sol\":8884:9056  function safeTransferFrom(address from, address to, uint256 tokenId, bytes memory data) public override payable... */\n      pop\n      pop\n      pop\n      pop\n      jump\t// out\n        /* \"mokkozi/week3/erc721.sol\":8336:8464  function tokenURI(uint256 _tokenId) public override view returns (string memory)... */\n    tag_87:\n        /* \"mokkozi/week3/erc721.sol\":8402:8415  string memory */\n      0x60\n        /* \"mokkozi/week3/erc721.sol\":8438:8447  tokenURIs */\n      0x02\n        /* \"mokkozi/week3/erc721.sol\":8438:8457  tokenURIs[_tokenId] */\n      0x00\n        /* \"mokkozi/week3/erc721.sol\":8448:8456  _tokenId */\n      dup4\n        /* \"mokkozi/week3/erc721.sol\":8438:8457  tokenURIs[_tokenId] */\n      dup2\n      mstore\n      0x20\n      add\n      swap1\n      dup2\n      mstore\n      0x20\n      add\n      0x00\n      keccak256\n        /* \"mokkozi/week3/erc721.sol\":8431:8457  return tokenURIs[_tokenId] */\n      dup1\n      sload\n      tag_163\n      swap1\n      tag_108\n      jump\t// in\n    tag_163:\n      dup1\n      0x1f\n      add\n      0x20\n      dup1\n      swap2\n      div\n      mul\n      0x20\n      add\n      mload(0x40)\n      swap1\n      dup2\n      add\n      0x40\n      mstore\n      dup1\n      swap3\n      swap2\n      swap1\n      dup2\n      dup2\n      mstore\n      0x20\n      add\n      dup3\n      dup1\n      sload\n      tag_164\n      swap1\n      tag_108\n      jump\t// in\n    tag_164:\n      dup1\n      iszero\n      tag_165\n      jumpi\n      dup1\n      0x1f\n      lt\n      tag_166\n      jumpi\n      0x0100\n      dup1\n      dup4\n      sload\n      div\n      mul\n      dup4\n      mstore\n      swap2\n      0x20\n      add\n      swap2\n      jump(tag_165)\n    tag_166:\n      dup3\n      add\n      swap2\n      swap1\n      0x00\n      mstore\n      keccak256(0x00, 0x20)\n      swap1\n    tag_167:\n      dup2\n      sload\n      dup2\n      mstore\n      swap1\n      0x01\n      add\n      swap1\n      0x20\n      add\n      dup1\n      dup4\n      gt\n      tag_167\n      jumpi\n      dup3\n      swap1\n      sub\n      0x1f\n      and\n      dup3\n      add\n      swap2\n    tag_165:\n      pop\n      pop\n      pop\n      pop\n      pop\n      swap1\n      pop\n        /* \"mokkozi/week3/erc721.sol\":8336:8464  function tokenURI(uint256 _tokenId) public override view returns (string memory)... */\n      swap2\n      swap1\n      pop\n      jump\t// out\n        /* \"mokkozi/week3/erc721.sol\":10081:10394  function mint(address to, uint256 tokenId, string memory uri) public... */\n    tag_93:\n        /* \"mokkozi/week3/erc721.sol\":10211:10212  0 */\n      0x00\n        /* \"mokkozi/week3/erc721.sol\":10176:10213  ownerByTokenId[tokenId] == address(0) */\n      0xffffffffffffffffffffffffffffffffffffffff\n      and\n        /* \"mokkozi/week3/erc721.sol\":10176:10190  ownerByTokenId */\n      0x04\n        /* \"mokkozi/week3/erc721.sol\":10176:10199  ownerByTokenId[tokenId] */\n      0x00\n        /* \"mokkozi/week3/erc721.sol\":10191:10198  tokenId */\n      dup5\n        /* \"mokkozi/week3/erc721.sol\":10176:10199  ownerByTokenId[tokenId] */\n      dup2\n      mstore\n      0x20\n      add\n      swap1\n      dup2\n      mstore\n      0x20\n      add\n      0x00\n      keccak256\n      0x00\n      swap1\n      sload\n      swap1\n      0x0100\n      exp\n      swap1\n      div\n      0xffffffffffffffffffffffffffffffffffffffff\n      and\n        /* \"mokkozi/week3/erc721.sol\":10176:10213  ownerByTokenId[tokenId] == address(0) */\n      0xffffffffffffffffffffffffffffffffffffffff\n      and\n      eq\n        /* \"mokkozi/week3/erc721.sol\":10168:10232  require(ownerByTokenId[tokenId] == address(0), \"already minted\") */\n      tag_169\n      jumpi\n      mload(0x40)\n      0x08c379a000000000000000000000000000000000000000000000000000000000\n      dup2\n      mstore\n      0x04\n      add\n      tag_170\n      swap1\n      tag_171\n      jump\t// in\n    tag_170:\n      mload(0x40)\n      dup1\n      swap2\n      sub\n      swap1\n      revert\n    tag_169:\n        /* \"mokkozi/week3/erc721.sol\":10269:10271  to */\n      dup3\n        /* \"mokkozi/week3/erc721.sol\":10243:10257  ownerByTokenId */\n      0x04\n        /* \"mokkozi/week3/erc721.sol\":10243:10266  ownerByTokenId[tokenId] */\n      0x00\n        /* \"mokkozi/week3/erc721.sol\":10258:10265  tokenId */\n      dup5\n        /* \"mokkozi/week3/erc721.sol\":10243:10266  ownerByTokenId[tokenId] */\n      dup2\n      mstore\n      0x20\n      add\n      swap1\n      dup2\n      mstore\n      0x20\n      add\n      0x00\n      keccak256\n      0x00\n        /* \"mokkozi/week3/erc721.sol\":10243:10271  ownerByTokenId[tokenId] = to */\n      0x0100\n      exp\n      dup2\n      sload\n      dup2\n      0xffffffffffffffffffffffffffffffffffffffff\n      mul\n      not\n      and\n      swap1\n      dup4\n      0xffffffffffffffffffffffffffffffffffffffff\n      and\n      mul\n      or\n      swap1\n      sstore\n      pop\n        /* \"mokkozi/week3/erc721.sol\":10303:10304  1 */\n      0x01\n        /* \"mokkozi/week3/erc721.sol\":10281:10295  balanceByOwner */\n      0x03\n        /* \"mokkozi/week3/erc721.sol\":10281:10299  balanceByOwner[to] */\n      0x00\n        /* \"mokkozi/week3/erc721.sol\":10296:10298  to */\n      dup6\n        /* \"mokkozi/week3/erc721.sol\":10281:10299  balanceByOwner[to] */\n      0xffffffffffffffffffffffffffffffffffffffff\n      and\n      0xffffffffffffffffffffffffffffffffffffffff\n      and\n      dup2\n      mstore\n      0x20\n      add\n      swap1\n      dup2\n      mstore\n      0x20\n      add\n      0x00\n      keccak256\n      0x00\n        /* \"mokkozi/week3/erc721.sol\":10281:10304  balanceByOwner[to] += 1 */\n      dup3\n      dup3\n      sload\n      tag_172\n      swap2\n      swap1\n      tag_136\n      jump\t// in\n    tag_172:\n      swap3\n      pop\n      pop\n      dup2\n      swap1\n      sstore\n      pop\n        /* \"mokkozi/week3/erc721.sol\":10336:10339  uri */\n      dup1\n        /* \"mokkozi/week3/erc721.sol\":10315:10324  tokenURIs */\n      0x02\n        /* \"mokkozi/week3/erc721.sol\":10315:10333  tokenURIs[tokenId] */\n      0x00\n        /* \"mokkozi/week3/erc721.sol\":10325:10332  tokenId */\n      dup5\n        /* \"mokkozi/week3/erc721.sol\":10315:10333  tokenURIs[tokenId] */\n      dup2\n      mstore\n      0x20\n      add\n      swap1\n      dup2\n      mstore\n      0x20\n      add\n      0x00\n      keccak256\n        /* \"mokkozi/week3/erc721.sol\":10315:10339  tokenURIs[tokenId] = uri */\n      swap1\n      dup1\n      mload\n      swap1\n      0x20\n      add\n      swap1\n      tag_173\n      swap3\n      swap2\n      swap1\n      tag_174\n      jump\t// in\n    tag_173:\n      pop\n        /* \"mokkozi/week3/erc721.sol\":10379:10386  tokenId */\n      dup2\n        /* \"mokkozi/week3/erc721.sol\":10375:10377  to */\n      dup4\n        /* \"mokkozi/week3/erc721.sol\":10354:10387  Transfer(address(0), to, tokenId) */\n      0xffffffffffffffffffffffffffffffffffffffff\n      and\n        /* \"mokkozi/week3/erc721.sol\":10371:10372  0 */\n      0x00\n        /* \"mokkozi/week3/erc721.sol\":10354:10387  Transfer(address(0), to, tokenId) */\n      0xffffffffffffffffffffffffffffffffffffffff\n      and\n      0xddf252ad1be2c89b69c2b068fc378daa952ba7f163c4a11628f55a4df523b3ef\n      mload(0x40)\n      mload(0x40)\n      dup1\n      swap2\n      sub\n      swap1\n      log4\n        /* \"mokkozi/week3/erc721.sol\":10081:10394  function mint(address to, uint256 tokenId, string memory uri) public... */\n      pop\n      pop\n      pop\n      jump\t// out\n        /* \"mokkozi/week3/erc721.sol\":11313:11468  function isApprovedForAll(address owner, address operator) public override view returns (bool)... */\n    tag_98:\n        /* \"mokkozi/week3/erc721.sol\":11402:11406  bool */\n      0x00\n        /* \"mokkozi/week3/erc721.sol\":11429:11444  approvedOfOwner */\n      0x06\n        /* \"mokkozi/week3/erc721.sol\":11429:11451  approvedOfOwner[owner] */\n      0x00\n        /* \"mokkozi/week3/erc721.sol\":11445:11450  owner */\n      dup5\n        /* \"mokkozi/week3/erc721.sol\":11429:11451  approvedOfOwner[owner] */\n      0xffffffffffffffffffffffffffffffffffffffff\n      and\n      0xffffffffffffffffffffffffffffffffffffffff\n      and\n      dup2\n      mstore\n      0x20\n      add\n      swap1\n      dup2\n      mstore\n      0x20\n      add\n      0x00\n      keccak256\n        /* \"mokkozi/week3/erc721.sol\":11429:11461  approvedOfOwner[owner][operator] */\n      0x00\n        /* \"mokkozi/week3/erc721.sol\":11452:11460  operator */\n      dup4\n        /* \"mokkozi/week3/erc721.sol\":11429:11461  approvedOfOwner[owner][operator] */\n      0xffffffffffffffffffffffffffffffffffffffff\n      and\n      0xffffffffffffffffffffffffffffffffffffffff\n      and\n      dup2\n      mstore\n      0x20\n      add\n      swap1\n      dup2\n      mstore\n      0x20\n      add\n      0x00\n      keccak256\n      0x00\n      swap1\n      sload\n      swap1\n      0x0100\n      exp\n      swap1\n      div\n      0xff\n      and\n        /* \"mokkozi/week3/erc721.sol\":11422:11461  return approvedOfOwner[owner][operator] */\n      swap1\n      pop\n        /* \"mokkozi/week3/erc721.sol\":11313:11468  function isApprovedForAll(address owner, address operator) public override view returns (bool)... */\n      swap3\n      swap2\n      pop\n      pop\n      jump\t// out\n    tag_174:\n      dup3\n      dup1\n      sload\n      tag_176\n      swap1\n      tag_108\n      jump\t// in\n    tag_176:\n      swap1\n      0x00\n      mstore\n      keccak256(0x00, 0x20)\n      swap1\n      0x1f\n      add\n      0x20\n      swap1\n      div\n      dup2\n      add\n      swap3\n      dup3\n      tag_178\n      jumpi\n      0x00\n      dup6\n      sstore\n      jump(tag_177)\n    tag_178:\n      dup3\n      0x1f\n      lt\n      tag_179\n      jumpi\n      dup1\n      mload\n      not(0xff)\n      and\n      dup4\n      dup1\n      add\n      or\n      dup6\n      sstore\n      jump(tag_177)\n    tag_179:\n      dup3\n      dup1\n      add\n      0x01\n      add\n      dup6\n      sstore\n      dup3\n      iszero\n      tag_177\n      jumpi\n      swap2\n      dup3\n      add\n    tag_180:\n      dup3\n      dup2\n      gt\n      iszero\n      tag_181\n      jumpi\n      dup3\n      mload\n      dup3\n      sstore\n      swap2\n      0x20\n      add\n      swap2\n      swap1\n      0x01\n      add\n      swap1\n      jump(tag_180)\n    tag_181:\n    tag_177:\n      pop\n      swap1\n      pop\n      tag_182\n      swap2\n      swap1\n      tag_183\n      jump\t// in\n    tag_182:\n      pop\n      swap1\n      jump\t// out\n    tag_183:\n    tag_184:\n      dup1\n      dup3\n      gt\n      iszero\n      tag_185\n      jumpi\n      0x00\n      dup2\n      0x00\n      swap1\n      sstore\n      pop\n      0x01\n      add\n      jump(tag_184)\n    tag_185:\n      pop\n      swap1\n      jump\t// out\n        /* \"#utility.yul\":7:417   */\n    tag_187:\n        /* \"#utility.yul\":84:89   */\n      0x00\n        /* \"#utility.yul\":109:174   */\n      tag_189\n        /* \"#utility.yul\":125:173   */\n      tag_190\n        /* \"#utility.yul\":166:172   */\n      dup5\n        /* \"#utility.yul\":125:173   */\n      tag_191\n      jump\t// in\n    tag_190:\n        /* \"#utility.yul\":109:174   */\n      tag_192\n      jump\t// in\n    tag_189:\n        /* \"#utility.yul\":100:174   */\n      swap1\n      pop\n        /* \"#utility.yul\":197:203   */\n      dup3\n        /* \"#utility.yul\":190:195   */\n      dup2\n        /* \"#utility.yul\":183:204   */\n      mstore\n        /* \"#utility.yul\":235:239   */\n      0x20\n        /* \"#utility.yul\":228:233   */\n      dup2\n        /* \"#utility.yul\":224:240   */\n      add\n        /* \"#utility.yul\":273:276   */\n      dup5\n        /* \"#utility.yul\":264:270   */\n      dup5\n        /* \"#utility.yul\":259:262   */\n      dup5\n        /* \"#utility.yul\":255:271   */\n      add\n        /* \"#utility.yul\":252:277   */\n      gt\n        /* \"#utility.yul\":249:361   */\n      iszero\n      tag_193\n      jumpi\n        /* \"#utility.yul\":280:359   */\n      tag_194\n      tag_195\n      jump\t// in\n    tag_194:\n        /* \"#utility.yul\":249:361   */\n    tag_193:\n        /* \"#utility.yul\":370:411   */\n      tag_196\n        /* \"#utility.yul\":404:410   */\n      dup5\n        /* \"#utility.yul\":399:402   */\n      dup3\n        /* \"#utility.yul\":394:397   */\n      dup6\n        /* \"#utility.yul\":370:411   */\n      tag_197\n      jump\t// in\n    tag_196:\n        /* \"#utility.yul\":90:417   */\n      pop\n        /* \"#utility.yul\":7:417   */\n      swap4\n      swap3\n      pop\n      pop\n      pop\n      jump\t// out\n        /* \"#utility.yul\":423:835   */\n    tag_198:\n        /* \"#utility.yul\":501:506   */\n      0x00\n        /* \"#utility.yul\":526:592   */\n      tag_200\n        /* \"#utility.yul\":542:591   */\n      tag_201\n        /* \"#utility.yul\":584:590   */\n      dup5\n        /* \"#utility.yul\":542:591   */\n      tag_202\n      jump\t// in\n    tag_201:\n        /* \"#utility.yul\":526:592   */\n      tag_192\n      jump\t// in\n    tag_200:\n        /* \"#utility.yul\":517:592   */\n      swap1\n      pop\n        /* \"#utility.yul\":615:621   */\n      dup3\n        /* \"#utility.yul\":608:613   */\n      dup2\n        /* \"#utility.yul\":601:622   */\n      mstore\n        /* \"#utility.yul\":653:657   */\n      0x20\n        /* \"#utility.yul\":646:651   */\n      dup2\n        /* \"#utility.yul\":642:658   */\n      add\n        /* \"#utility.yul\":691:694   */\n      dup5\n        /* \"#utility.yul\":682:688   */\n      dup5\n        /* \"#utility.yul\":677:680   */\n      dup5\n        /* \"#utility.yul\":673:689   */\n      add\n        /* \"#utility.yul\":670:695   */\n      gt\n        /* \"#utility.yul\":667:779   */\n      iszero\n      tag_203\n      jumpi\n        /* \"#utility.yul\":698:777   */\n      tag_204\n      tag_195\n      jump\t// in\n    tag_204:\n        /* \"#utility.yul\":667:779   */\n    tag_203:\n        /* \"#utility.yul\":788:829   */\n      tag_205\n        /* \"#utility.yul\":822:828   */\n      dup5\n        /* \"#utility.yul\":817:820   */\n      dup3\n        /* \"#utility.yul\":812:815   */\n      dup6\n        /* \"#utility.yul\":788:829   */\n      tag_197\n      jump\t// in\n    tag_205:\n        /* \"#utility.yul\":507:835   */\n      pop\n        /* \"#utility.yul\":423:835   */\n      swap4\n      swap3\n      pop\n      pop\n      pop\n      jump\t// out\n        /* \"#utility.yul\":841:980   */\n    tag_206:\n        /* \"#utility.yul\":887:892   */\n      0x00\n        /* \"#utility.yul\":925:931   */\n      dup2\n        /* \"#utility.yul\":912:932   */\n      calldataload\n        /* \"#utility.yul\":903:932   */\n      swap1\n      pop\n        /* \"#utility.yul\":941:974   */\n      tag_208\n        /* \"#utility.yul\":968:973   */\n      dup2\n        /* \"#utility.yul\":941:974   */\n      tag_209\n      jump\t// in\n    tag_208:\n        /* \"#utility.yul\":841:980   */\n      swap3\n      swap2\n      pop\n      pop\n      jump\t// out\n        /* \"#utility.yul\":986:1119   */\n    tag_210:\n        /* \"#utility.yul\":1029:1034   */\n      0x00\n        /* \"#utility.yul\":1067:1073   */\n      dup2\n        /* \"#utility.yul\":1054:1074   */\n      calldataload\n        /* \"#utility.yul\":1045:1074   */\n      swap1\n      pop\n        /* \"#utility.yul\":1083:1113   */\n      tag_212\n        /* \"#utility.yul\":1107:1112   */\n      dup2\n        /* \"#utility.yul\":1083:1113   */\n      tag_213\n      jump\t// in\n    tag_212:\n        /* \"#utility.yul\":986:1119   */\n      swap3\n      swap2\n      pop\n      pop\n      jump\t// out\n        /* \"#utility.yul\":1125:1262   */\n    tag_214:\n        /* \"#utility.yul\":1170:1175   */\n      0x00\n        /* \"#utility.yul\":1208:1214   */\n      dup2\n        /* \"#utility.yul\":1195:1215   */\n      calldataload\n        /* \"#utility.yul\":1186:1215   */\n      swap1\n      pop\n        /* \"#utility.yul\":1224:1256   */\n      tag_216\n        /* \"#utility.yul\":1250:1255   */\n      dup2\n        /* \"#utility.yul\":1224:1256   */\n      tag_217\n      jump\t// in\n    tag_216:\n        /* \"#utility.yul\":1125:1262   */\n      swap3\n      swap2\n      pop\n      pop\n      jump\t// out\n        /* \"#utility.yul\":1281:1619   */\n    tag_218:\n        /* \"#utility.yul\":1336:1341   */\n      0x00\n        /* \"#utility.yul\":1385:1388   */\n      dup3\n        /* \"#utility.yul\":1378:1382   */\n      0x1f\n        /* \"#utility.yul\":1370:1376   */\n      dup4\n        /* \"#utility.yul\":1366:1383   */\n      add\n        /* \"#utility.yul\":1362:1389   */\n      slt\n        /* \"#utility.yul\":1352:1474   */\n      tag_220\n      jumpi\n        /* \"#utility.yul\":1393:1472   */\n      tag_221\n      tag_222\n      jump\t// in\n    tag_221:\n        /* \"#utility.yul\":1352:1474   */\n    tag_220:\n        /* \"#utility.yul\":1510:1516   */\n      dup2\n        /* \"#utility.yul\":1497:1517   */\n      calldataload\n        /* \"#utility.yul\":1535:1613   */\n      tag_223\n        /* \"#utility.yul\":1609:1612   */\n      dup5\n        /* \"#utility.yul\":1601:1607   */\n      dup3\n        /* \"#utility.yul\":1594:1598   */\n      0x20\n        /* \"#utility.yul\":1586:1592   */\n      dup7\n        /* \"#utility.yul\":1582:1599   */\n      add\n        /* \"#utility.yul\":1535:1613   */\n      tag_187\n      jump\t// in\n    tag_223:\n        /* \"#utility.yul\":1526:1613   */\n      swap2\n      pop\n        /* \"#utility.yul\":1342:1619   */\n      pop\n        /* \"#utility.yul\":1281:1619   */\n      swap3\n      swap2\n      pop\n      pop\n      jump\t// out\n        /* \"#utility.yul\":1639:1979   */\n    tag_224:\n        /* \"#utility.yul\":1695:1700   */\n      0x00\n        /* \"#utility.yul\":1744:1747   */\n      dup3\n        /* \"#utility.yul\":1737:1741   */\n      0x1f\n        /* \"#utility.yul\":1729:1735   */\n      dup4\n        /* \"#utility.yul\":1725:1742   */\n      add\n        /* \"#utility.yul\":1721:1748   */\n      slt\n        /* \"#utility.yul\":1711:1833   */\n      tag_226\n      jumpi\n        /* \"#utility.yul\":1752:1831   */\n      tag_227\n      tag_222\n      jump\t// in\n    tag_227:\n        /* \"#utility.yul\":1711:1833   */\n    tag_226:\n        /* \"#utility.yul\":1869:1875   */\n      dup2\n        /* \"#utility.yul\":1856:1876   */\n      calldataload\n        /* \"#utility.yul\":1894:1973   */\n      tag_228\n        /* \"#utility.yul\":1969:1972   */\n      dup5\n        /* \"#utility.yul\":1961:1967   */\n      dup3\n        /* \"#utility.yul\":1954:1958   */\n      0x20\n        /* \"#utility.yul\":1946:1952   */\n      dup7\n        /* \"#utility.yul\":1942:1959   */\n      add\n        /* \"#utility.yul\":1894:1973   */\n      tag_198\n      jump\t// in\n    tag_228:\n        /* \"#utility.yul\":1885:1973   */\n      swap2\n      pop\n        /* \"#utility.yul\":1701:1979   */\n      pop\n        /* \"#utility.yul\":1639:1979   */\n      swap3\n      swap2\n      pop\n      pop\n      jump\t// out\n        /* \"#utility.yul\":1985:2124   */\n    tag_229:\n        /* \"#utility.yul\":2031:2036   */\n      0x00\n        /* \"#utility.yul\":2069:2075   */\n      dup2\n        /* \"#utility.yul\":2056:2076   */\n      calldataload\n        /* \"#utility.yul\":2047:2076   */\n      swap1\n      pop\n        /* \"#utility.yul\":2085:2118   */\n      tag_231\n        /* \"#utility.yul\":2112:2117   */\n      dup2\n        /* \"#utility.yul\":2085:2118   */\n      tag_232\n      jump\t// in\n    tag_231:\n        /* \"#utility.yul\":1985:2124   */\n      swap3\n      swap2\n      pop\n      pop\n      jump\t// out\n        /* \"#utility.yul\":2130:2459   */\n    tag_63:\n        /* \"#utility.yul\":2189:2195   */\n      0x00\n        /* \"#utility.yul\":2238:2240   */\n      0x20\n        /* \"#utility.yul\":2226:2235   */\n      dup3\n        /* \"#utility.yul\":2217:2224   */\n      dup5\n        /* \"#utility.yul\":2213:2236   */\n      sub\n        /* \"#utility.yul\":2209:2241   */\n      slt\n        /* \"#utility.yul\":2206:2325   */\n      iszero\n      tag_234\n      jumpi\n        /* \"#utility.yul\":2244:2323   */\n      tag_235\n      tag_236\n      jump\t// in\n    tag_235:\n        /* \"#utility.yul\":2206:2325   */\n    tag_234:\n        /* \"#utility.yul\":2364:2365   */\n      0x00\n        /* \"#utility.yul\":2389:2442   */\n      tag_237\n        /* \"#utility.yul\":2434:2441   */\n      dup5\n        /* \"#utility.yul\":2425:2431   */\n      dup3\n        /* \"#utility.yul\":2414:2423   */\n      dup6\n        /* \"#utility.yul\":2410:2432   */\n      add\n        /* \"#utility.yul\":2389:2442   */\n      tag_206\n      jump\t// in\n    tag_237:\n        /* \"#utility.yul\":2379:2442   */\n      swap2\n      pop\n        /* \"#utility.yul\":2335:2452   */\n      pop\n        /* \"#utility.yul\":2130:2459   */\n      swap3\n      swap2\n      pop\n      pop\n      jump\t// out\n        /* \"#utility.yul\":2465:2939   */\n    tag_97:\n        /* \"#utility.yul\":2533:2539   */\n      0x00\n        /* \"#utility.yul\":2541:2547   */\n      dup1\n        /* \"#utility.yul\":2590:2592   */\n      0x40\n        /* \"#utility.yul\":2578:2587   */\n      dup4\n        /* \"#utility.yul\":2569:2576   */\n      dup6\n        /* \"#utility.yul\":2565:2588   */\n      sub\n        /* \"#utility.yul\":2561:2593   */\n      slt\n        /* \"#utility.yul\":2558:2677   */\n      iszero\n      tag_239\n      jumpi\n        /* \"#utility.yul\":2596:2675   */\n      tag_240\n      tag_236\n      jump\t// in\n    tag_240:\n        /* \"#utility.yul\":2558:2677   */\n    tag_239:\n        /* \"#utility.yul\":2716:2717   */\n      0x00\n        /* \"#utility.yul\":2741:2794   */\n      tag_241\n        /* \"#utility.yul\":2786:2793   */\n      dup6\n        /* \"#utility.yul\":2777:2783   */\n      dup3\n        /* \"#utility.yul\":2766:2775   */\n      dup7\n        /* \"#utility.yul\":2762:2784   */\n      add\n        /* \"#utility.yul\":2741:2794   */\n      tag_206\n      jump\t// in\n    tag_241:\n        /* \"#utility.yul\":2731:2794   */\n      swap3\n      pop\n        /* \"#utility.yul\":2687:2804   */\n      pop\n        /* \"#utility.yul\":2843:2845   */\n      0x20\n        /* \"#utility.yul\":2869:2922   */\n      tag_242\n        /* \"#utility.yul\":2914:2921   */\n      dup6\n        /* \"#utility.yul\":2905:2911   */\n      dup3\n        /* \"#utility.yul\":2894:2903   */\n      dup7\n        /* \"#utility.yul\":2890:2912   */\n      add\n        /* \"#utility.yul\":2869:2922   */\n      tag_206\n      jump\t// in\n    tag_242:\n        /* \"#utility.yul\":2859:2922   */\n      swap2\n      pop\n        /* \"#utility.yul\":2814:2932   */\n      pop\n        /* \"#utility.yul\":2465:2939   */\n      swap3\n      pop\n      swap3\n      swap1\n      pop\n      jump\t// out\n        /* \"#utility.yul\":2945:3564   */\n    tag_46:\n        /* \"#utility.yul\":3022:3028   */\n      0x00\n        /* \"#utility.yul\":3030:3036   */\n      dup1\n        /* \"#utility.yul\":3038:3044   */\n      0x00\n        /* \"#utility.yul\":3087:3089   */\n      0x60\n        /* \"#utility.yul\":3075:3084   */\n      dup5\n        /* \"#utility.yul\":3066:3073   */\n      dup7\n        /* \"#utility.yul\":3062:3085   */\n      sub\n        /* \"#utility.yul\":3058:3090   */\n      slt\n        /* \"#utility.yul\":3055:3174   */\n      iszero\n      tag_244\n      jumpi\n        /* \"#utility.yul\":3093:3172   */\n      tag_245\n      tag_236\n      jump\t// in\n    tag_245:\n        /* \"#utility.yul\":3055:3174   */\n    tag_244:\n        /* \"#utility.yul\":3213:3214   */\n      0x00\n        /* \"#utility.yul\":3238:3291   */\n      tag_246\n        /* \"#utility.yul\":3283:3290   */\n      dup7\n        /* \"#utility.yul\":3274:3280   */\n      dup3\n        /* \"#utility.yul\":3263:3272   */\n      dup8\n        /* \"#utility.yul\":3259:3281   */\n      add\n        /* \"#utility.yul\":3238:3291   */\n      tag_206\n      jump\t// in\n    tag_246:\n        /* \"#utility.yul\":3228:3291   */\n      swap4\n      pop\n        /* \"#utility.yul\":3184:3301   */\n      pop\n        /* \"#utility.yul\":3340:3342   */\n      0x20\n        /* \"#utility.yul\":3366:3419   */\n      tag_247\n        /* \"#utility.yul\":3411:3418   */\n      dup7\n        /* \"#utility.yul\":3402:3408   */\n      dup3\n        /* \"#utility.yul\":3391:3400   */\n      dup8\n        /* \"#utility.yul\":3387:3409   */\n      add\n        /* \"#utility.yul\":3366:3419   */\n      tag_206\n      jump\t// in\n    tag_247:\n        /* \"#utility.yul\":3356:3419   */\n      swap3\n      pop\n        /* \"#utility.yul\":3311:3429   */\n      pop\n        /* \"#utility.yul\":3468:3470   */\n      0x40\n        /* \"#utility.yul\":3494:3547   */\n      tag_248\n        /* \"#utility.yul\":3539:3546   */\n      dup7\n        /* \"#utility.yul\":3530:3536   */\n      dup3\n        /* \"#utility.yul\":3519:3528   */\n      dup8\n        /* \"#utility.yul\":3515:3537   */\n      add\n        /* \"#utility.yul\":3494:3547   */\n      tag_229\n      jump\t// in\n    tag_248:\n        /* \"#utility.yul\":3484:3547   */\n      swap2\n      pop\n        /* \"#utility.yul\":3439:3557   */\n      pop\n        /* \"#utility.yul\":2945:3564   */\n      swap3\n      pop\n      swap3\n      pop\n      swap3\n      jump\t// out\n        /* \"#utility.yul\":3570:4513   */\n    tag_82:\n        /* \"#utility.yul\":3665:3671   */\n      0x00\n        /* \"#utility.yul\":3673:3679   */\n      dup1\n        /* \"#utility.yul\":3681:3687   */\n      0x00\n        /* \"#utility.yul\":3689:3695   */\n      dup1\n        /* \"#utility.yul\":3738:3741   */\n      0x80\n        /* \"#utility.yul\":3726:3735   */\n      dup6\n        /* \"#utility.yul\":3717:3724   */\n      dup8\n        /* \"#utility.yul\":3713:3736   */\n      sub\n        /* \"#utility.yul\":3709:3742   */\n      slt\n        /* \"#utility.yul\":3706:3826   */\n      iszero\n      tag_250\n      jumpi\n        /* \"#utility.yul\":3745:3824   */\n      tag_251\n      tag_236\n      jump\t// in\n    tag_251:\n        /* \"#utility.yul\":3706:3826   */\n    tag_250:\n        /* \"#utility.yul\":3865:3866   */\n      0x00\n        /* \"#utility.yul\":3890:3943   */\n      tag_252\n        /* \"#utility.yul\":3935:3942   */\n      dup8\n        /* \"#utility.yul\":3926:3932   */\n      dup3\n        /* \"#utility.yul\":3915:3924   */\n      dup9\n        /* \"#utility.yul\":3911:3933   */\n      add\n        /* \"#utility.yul\":3890:3943   */\n      tag_206\n      jump\t// in\n    tag_252:\n        /* \"#utility.yul\":3880:3943   */\n      swap5\n      pop\n        /* \"#utility.yul\":3836:3953   */\n      pop\n        /* \"#utility.yul\":3992:3994   */\n      0x20\n        /* \"#utility.yul\":4018:4071   */\n      tag_253\n        /* \"#utility.yul\":4063:4070   */\n      dup8\n        /* \"#utility.yul\":4054:4060   */\n      dup3\n        /* \"#utility.yul\":4043:4052   */\n      dup9\n        /* \"#utility.yul\":4039:4061   */\n      add\n        /* \"#utility.yul\":4018:4071   */\n      tag_206\n      jump\t// in\n    tag_253:\n        /* \"#utility.yul\":4008:4071   */\n      swap4\n      pop\n        /* \"#utility.yul\":3963:4081   */\n      pop\n        /* \"#utility.yul\":4120:4122   */\n      0x40\n        /* \"#utility.yul\":4146:4199   */\n      tag_254\n        /* \"#utility.yul\":4191:4198   */\n      dup8\n        /* \"#utility.yul\":4182:4188   */\n      dup3\n        /* \"#utility.yul\":4171:4180   */\n      dup9\n        /* \"#utility.yul\":4167:4189   */\n      add\n        /* \"#utility.yul\":4146:4199   */\n      tag_229\n      jump\t// in\n    tag_254:\n        /* \"#utility.yul\":4136:4199   */\n      swap3\n      pop\n        /* \"#utility.yul\":4091:4209   */\n      pop\n        /* \"#utility.yul\":4276:4278   */\n      0x60\n        /* \"#utility.yul\":4265:4274   */\n      dup6\n        /* \"#utility.yul\":4261:4279   */\n      add\n        /* \"#utility.yul\":4248:4280   */\n      calldataload\n        /* \"#utility.yul\":4307:4325   */\n      0xffffffffffffffff\n        /* \"#utility.yul\":4299:4305   */\n      dup2\n        /* \"#utility.yul\":4296:4326   */\n      gt\n        /* \"#utility.yul\":4293:4410   */\n      iszero\n      tag_255\n      jumpi\n        /* \"#utility.yul\":4329:4408   */\n      tag_256\n      tag_257\n      jump\t// in\n    tag_256:\n        /* \"#utility.yul\":4293:4410   */\n    tag_255:\n        /* \"#utility.yul\":4434:4496   */\n      tag_258\n        /* \"#utility.yul\":4488:4495   */\n      dup8\n        /* \"#utility.yul\":4479:4485   */\n      dup3\n        /* \"#utility.yul\":4468:4477   */\n      dup9\n        /* \"#utility.yul\":4464:4486   */\n      add\n        /* \"#utility.yul\":4434:4496   */\n      tag_218\n      jump\t// in\n    tag_258:\n        /* \"#utility.yul\":4424:4496   */\n      swap2\n      pop\n        /* \"#utility.yul\":4219:4506   */\n      pop\n        /* \"#utility.yul\":3570:4513   */\n      swap3\n      swap6\n      swap2\n      swap5\n      pop\n      swap3\n      pop\n      jump\t// out\n        /* \"#utility.yul\":4519:4987   */\n    tag_78:\n        /* \"#utility.yul\":4584:4590   */\n      0x00\n        /* \"#utility.yul\":4592:4598   */\n      dup1\n        /* \"#utility.yul\":4641:4643   */\n      0x40\n        /* \"#utility.yul\":4629:4638   */\n      dup4\n        /* \"#utility.yul\":4620:4627   */\n      dup6\n        /* \"#utility.yul\":4616:4639   */\n      sub\n        /* \"#utility.yul\":4612:4644   */\n      slt\n        /* \"#utility.yul\":4609:4728   */\n      iszero\n      tag_260\n      jumpi\n        /* \"#utility.yul\":4647:4726   */\n      tag_261\n      tag_236\n      jump\t// in\n    tag_261:\n        /* \"#utility.yul\":4609:4728   */\n    tag_260:\n        /* \"#utility.yul\":4767:4768   */\n      0x00\n        /* \"#utility.yul\":4792:4845   */\n      tag_262\n        /* \"#utility.yul\":4837:4844   */\n      dup6\n        /* \"#utility.yul\":4828:4834   */\n      dup3\n        /* \"#utility.yul\":4817:4826   */\n      dup7\n        /* \"#utility.yul\":4813:4835   */\n      add\n        /* \"#utility.yul\":4792:4845   */\n      tag_206\n      jump\t// in\n    tag_262:\n        /* \"#utility.yul\":4782:4845   */\n      swap3\n      pop\n        /* \"#utility.yul\":4738:4855   */\n      pop\n        /* \"#utility.yul\":4894:4896   */\n      0x20\n        /* \"#utility.yul\":4920:4970   */\n      tag_263\n        /* \"#utility.yul\":4962:4969   */\n      dup6\n        /* \"#utility.yul\":4953:4959   */\n      dup3\n        /* \"#utility.yul\":4942:4951   */\n      dup7\n        /* \"#utility.yul\":4938:4960   */\n      add\n        /* \"#utility.yul\":4920:4970   */\n      tag_210\n      jump\t// in\n    tag_263:\n        /* \"#utility.yul\":4910:4970   */\n      swap2\n      pop\n        /* \"#utility.yul\":4865:4980   */\n      pop\n        /* \"#utility.yul\":4519:4987   */\n      swap3\n      pop\n      swap3\n      swap1\n      pop\n      jump\t// out\n        /* \"#utility.yul\":4993:5467   */\n    tag_42:\n        /* \"#utility.yul\":5061:5067   */\n      0x00\n        /* \"#utility.yul\":5069:5075   */\n      dup1\n        /* \"#utility.yul\":5118:5120   */\n      0x40\n        /* \"#utility.yul\":5106:5115   */\n      dup4\n        /* \"#utility.yul\":5097:5104   */\n      dup6\n        /* \"#utility.yul\":5093:5116   */\n      sub\n        /* \"#utility.yul\":5089:5121   */\n      slt\n        /* \"#utility.yul\":5086:5205   */\n      iszero\n      tag_265\n      jumpi\n        /* \"#utility.yul\":5124:5203   */\n      tag_266\n      tag_236\n      jump\t// in\n    tag_266:\n        /* \"#utility.yul\":5086:5205   */\n    tag_265:\n        /* \"#utility.yul\":5244:5245   */\n      0x00\n        /* \"#utility.yul\":5269:5322   */\n      tag_267\n        /* \"#utility.yul\":5314:5321   */\n      dup6\n        /* \"#utility.yul\":5305:5311   */\n      dup3\n        /* \"#utility.yul\":5294:5303   */\n      dup7\n        /* \"#utility.yul\":5290:5312   */\n      add\n        /* \"#utility.yul\":5269:5322   */\n      tag_206\n      jump\t// in\n    tag_267:\n        /* \"#utility.yul\":5259:5322   */\n      swap3\n      pop\n        /* \"#utility.yul\":5215:5332   */\n      pop\n        /* \"#utility.yul\":5371:5373   */\n      0x20\n        /* \"#utility.yul\":5397:5450   */\n      tag_268\n        /* \"#utility.yul\":5442:5449   */\n      dup6\n        /* \"#utility.yul\":5433:5439   */\n      dup3\n        /* \"#utility.yul\":5422:5431   */\n      dup7\n        /* \"#utility.yul\":5418:5440   */\n      add\n        /* \"#utility.yul\":5397:5450   */\n      tag_229\n      jump\t// in\n    tag_268:\n        /* \"#utility.yul\":5387:5450   */\n      swap2\n      pop\n        /* \"#utility.yul\":5342:5460   */\n      pop\n        /* \"#utility.yul\":4993:5467   */\n      swap3\n      pop\n      swap3\n      swap1\n      pop\n      jump\t// out\n        /* \"#utility.yul\":5473:6272   */\n    tag_92:\n        /* \"#utility.yul\":5560:5566   */\n      0x00\n        /* \"#utility.yul\":5568:5574   */\n      dup1\n        /* \"#utility.yul\":5576:5582   */\n      0x00\n        /* \"#utility.yul\":5625:5627   */\n      0x60\n        /* \"#utility.yul\":5613:5622   */\n      dup5\n        /* \"#utility.yul\":5604:5611   */\n      dup7\n        /* \"#utility.yul\":5600:5623   */\n      sub\n        /* \"#utility.yul\":5596:5628   */\n      slt\n        /* \"#utility.yul\":5593:5712   */\n      iszero\n      tag_270\n      jumpi\n        /* \"#utility.yul\":5631:5710   */\n      tag_271\n      tag_236\n      jump\t// in\n    tag_271:\n        /* \"#utility.yul\":5593:5712   */\n    tag_270:\n        /* \"#utility.yul\":5751:5752   */\n      0x00\n        /* \"#utility.yul\":5776:5829   */\n      tag_272\n        /* \"#utility.yul\":5821:5828   */\n      dup7\n        /* \"#utility.yul\":5812:5818   */\n      dup3\n        /* \"#utility.yul\":5801:5810   */\n      dup8\n        /* \"#utility.yul\":5797:5819   */\n      add\n        /* \"#utility.yul\":5776:5829   */\n      tag_206\n      jump\t// in\n    tag_272:\n        /* \"#utility.yul\":5766:5829   */\n      swap4\n      pop\n        /* \"#utility.yul\":5722:5839   */\n      pop\n        /* \"#utility.yul\":5878:5880   */\n      0x20\n        /* \"#utility.yul\":5904:5957   */\n      tag_273\n        /* \"#utility.yul\":5949:5956   */\n      dup7\n        /* \"#utility.yul\":5940:5946   */\n      dup3\n        /* \"#utility.yul\":5929:5938   */\n      dup8\n        /* \"#utility.yul\":5925:5947   */\n      add\n        /* \"#utility.yul\":5904:5957   */\n      tag_229\n      jump\t// in\n    tag_273:\n        /* \"#utility.yul\":5894:5957   */\n      swap3\n      pop\n        /* \"#utility.yul\":5849:5967   */\n      pop\n        /* \"#utility.yul\":6034:6036   */\n      0x40\n        /* \"#utility.yul\":6023:6032   */\n      dup5\n        /* \"#utility.yul\":6019:6037   */\n      add\n        /* \"#utility.yul\":6006:6038   */\n      calldataload\n        /* \"#utility.yul\":6065:6083   */\n      0xffffffffffffffff\n        /* \"#utility.yul\":6057:6063   */\n      dup2\n        /* \"#utility.yul\":6054:6084   */\n      gt\n        /* \"#utility.yul\":6051:6168   */\n      iszero\n      tag_274\n      jumpi\n        /* \"#utility.yul\":6087:6166   */\n      tag_275\n      tag_257\n      jump\t// in\n    tag_275:\n        /* \"#utility.yul\":6051:6168   */\n    tag_274:\n        /* \"#utility.yul\":6192:6255   */\n      tag_276\n        /* \"#utility.yul\":6247:6254   */\n      dup7\n        /* \"#utility.yul\":6238:6244   */\n      dup3\n        /* \"#utility.yul\":6227:6236   */\n      dup8\n        /* \"#utility.yul\":6223:6245   */\n      add\n        /* \"#utility.yul\":6192:6255   */\n      tag_224\n      jump\t// in\n    tag_276:\n        /* \"#utility.yul\":6182:6255   */\n      swap2\n      pop\n        /* \"#utility.yul\":5977:6265   */\n      pop\n        /* \"#utility.yul\":5473:6272   */\n      swap3\n      pop\n      swap3\n      pop\n      swap3\n      jump\t// out\n        /* \"#utility.yul\":6278:6605   */\n    tag_24:\n        /* \"#utility.yul\":6336:6342   */\n      0x00\n        /* \"#utility.yul\":6385:6387   */\n      0x20\n        /* \"#utility.yul\":6373:6382   */\n      dup3\n        /* \"#utility.yul\":6364:6371   */\n      dup5\n        /* \"#utility.yul\":6360:6383   */\n      sub\n        /* \"#utility.yul\":6356:6388   */\n      slt\n        /* \"#utility.yul\":6353:6472   */\n      iszero\n      tag_278\n      jumpi\n        /* \"#utility.yul\":6391:6470   */\n      tag_279\n      tag_236\n      jump\t// in\n    tag_279:\n        /* \"#utility.yul\":6353:6472   */\n    tag_278:\n        /* \"#utility.yul\":6511:6512   */\n      0x00\n        /* \"#utility.yul\":6536:6588   */\n      tag_280\n        /* \"#utility.yul\":6580:6587   */\n      dup5\n        /* \"#utility.yul\":6571:6577   */\n      dup3\n        /* \"#utility.yul\":6560:6569   */\n      dup6\n        /* \"#utility.yul\":6556:6578   */\n      add\n        /* \"#utility.yul\":6536:6588   */\n      tag_214\n      jump\t// in\n    tag_280:\n        /* \"#utility.yul\":6526:6588   */\n      swap2\n      pop\n        /* \"#utility.yul\":6482:6598   */\n      pop\n        /* \"#utility.yul\":6278:6605   */\n      swap3\n      swap2\n      pop\n      pop\n      jump\t// out\n        /* \"#utility.yul\":6611:6940   */\n    tag_36:\n        /* \"#utility.yul\":6670:6676   */\n      0x00\n        /* \"#utility.yul\":6719:6721   */\n      0x20\n        /* \"#utility.yul\":6707:6716   */\n      dup3\n        /* \"#utility.yul\":6698:6705   */\n      dup5\n        /* \"#utility.yul\":6694:6717   */\n      sub\n        /* \"#utility.yul\":6690:6722   */\n      slt\n        /* \"#utility.yul\":6687:6806   */\n      iszero\n      tag_282\n      jumpi\n        /* \"#utility.yul\":6725:6804   */\n      tag_283\n      tag_236\n      jump\t// in\n    tag_283:\n        /* \"#utility.yul\":6687:6806   */\n    tag_282:\n        /* \"#utility.yul\":6845:6846   */\n      0x00\n        /* \"#utility.yul\":6870:6923   */\n      tag_284\n        /* \"#utility.yul\":6915:6922   */\n      dup5\n        /* \"#utility.yul\":6906:6912   */\n      dup3\n        /* \"#utility.yul\":6895:6904   */\n      dup6\n        /* \"#utility.yul\":6891:6913   */\n      add\n        /* \"#utility.yul\":6870:6923   */\n      tag_229\n      jump\t// in\n    tag_284:\n        /* \"#utility.yul\":6860:6923   */\n      swap2\n      pop\n        /* \"#utility.yul\":6816:6933   */\n      pop\n        /* \"#utility.yul\":6611:6940   */\n      swap3\n      swap2\n      pop\n      pop\n      jump\t// out\n        /* \"#utility.yul\":6946:7064   */\n    tag_285:\n        /* \"#utility.yul\":7033:7057   */\n      tag_287\n        /* \"#utility.yul\":7051:7056   */\n      dup2\n        /* \"#utility.yul\":7033:7057   */\n      tag_288\n      jump\t// in\n    tag_287:\n        /* \"#utility.yul\":7028:7031   */\n      dup3\n        /* \"#utility.yul\":7021:7058   */\n      mstore\n        /* \"#utility.yul\":6946:7064   */\n      pop\n      pop\n      jump\t// out\n        /* \"#utility.yul\":7070:7179   */\n    tag_289:\n        /* \"#utility.yul\":7151:7172   */\n      tag_291\n        /* \"#utility.yul\":7166:7171   */\n      dup2\n        /* \"#utility.yul\":7151:7172   */\n      tag_292\n      jump\t// in\n    tag_291:\n        /* \"#utility.yul\":7146:7149   */\n      dup3\n        /* \"#utility.yul\":7139:7173   */\n      mstore\n        /* \"#utility.yul\":7070:7179   */\n      pop\n      pop\n      jump\t// out\n        /* \"#utility.yul\":7185:7549   */\n    tag_293:\n        /* \"#utility.yul\":7273:7276   */\n      0x00\n        /* \"#utility.yul\":7301:7340   */\n      tag_295\n        /* \"#utility.yul\":7334:7339   */\n      dup3\n        /* \"#utility.yul\":7301:7340   */\n      tag_296\n      jump\t// in\n    tag_295:\n        /* \"#utility.yul\":7356:7427   */\n      tag_297\n        /* \"#utility.yul\":7420:7426   */\n      dup2\n        /* \"#utility.yul\":7415:7418   */\n      dup6\n        /* \"#utility.yul\":7356:7427   */\n      tag_298\n      jump\t// in\n    tag_297:\n        /* \"#utility.yul\":7349:7427   */\n      swap4\n      pop\n        /* \"#utility.yul\":7436:7488   */\n      tag_299\n        /* \"#utility.yul\":7481:7487   */\n      dup2\n        /* \"#utility.yul\":7476:7479   */\n      dup6\n        /* \"#utility.yul\":7469:7473   */\n      0x20\n        /* \"#utility.yul\":7462:7467   */\n      dup7\n        /* \"#utility.yul\":7458:7474   */\n      add\n        /* \"#utility.yul\":7436:7488   */\n      tag_300\n      jump\t// in\n    tag_299:\n        /* \"#utility.yul\":7513:7542   */\n      tag_301\n        /* \"#utility.yul\":7535:7541   */\n      dup2\n        /* \"#utility.yul\":7513:7542   */\n      tag_302\n      jump\t// in\n    tag_301:\n        /* \"#utility.yul\":7508:7511   */\n      dup5\n        /* \"#utility.yul\":7504:7543   */\n      add\n        /* \"#utility.yul\":7497:7543   */\n      swap2\n      pop\n        /* \"#utility.yul\":7277:7549   */\n      pop\n        /* \"#utility.yul\":7185:7549   */\n      swap3\n      swap2\n      pop\n      pop\n      jump\t// out\n        /* \"#utility.yul\":7555:7921   */\n    tag_303:\n        /* \"#utility.yul\":7697:7700   */\n      0x00\n        /* \"#utility.yul\":7718:7785   */\n      tag_305\n        /* \"#utility.yul\":7782:7784   */\n      0x0f\n        /* \"#utility.yul\":7777:7780   */\n      dup4\n        /* \"#utility.yul\":7718:7785   */\n      tag_298\n      jump\t// in\n    tag_305:\n        /* \"#utility.yul\":7711:7785   */\n      swap2\n      pop\n        /* \"#utility.yul\":7794:7887   */\n      tag_306\n        /* \"#utility.yul\":7883:7886   */\n      dup3\n        /* \"#utility.yul\":7794:7887   */\n      tag_307\n      jump\t// in\n    tag_306:\n        /* \"#utility.yul\":7912:7914   */\n      0x20\n        /* \"#utility.yul\":7907:7910   */\n      dup3\n        /* \"#utility.yul\":7903:7915   */\n      add\n        /* \"#utility.yul\":7896:7915   */\n      swap1\n      pop\n        /* \"#utility.yul\":7555:7921   */\n      swap2\n      swap1\n      pop\n      jump\t// out\n        /* \"#utility.yul\":7927:8293   */\n    tag_308:\n        /* \"#utility.yul\":8069:8072   */\n      0x00\n        /* \"#utility.yul\":8090:8157   */\n      tag_310\n        /* \"#utility.yul\":8154:8156   */\n      0x12\n        /* \"#utility.yul\":8149:8152   */\n      dup4\n        /* \"#utility.yul\":8090:8157   */\n      tag_298\n      jump\t// in\n    tag_310:\n        /* \"#utility.yul\":8083:8157   */\n      swap2\n      pop\n        /* \"#utility.yul\":8166:8259   */\n      tag_311\n        /* \"#utility.yul\":8255:8258   */\n      dup3\n        /* \"#utility.yul\":8166:8259   */\n      tag_312\n      jump\t// in\n    tag_311:\n        /* \"#utility.yul\":8284:8286   */\n      0x20\n        /* \"#utility.yul\":8279:8282   */\n      dup3\n        /* \"#utility.yul\":8275:8287   */\n      add\n        /* \"#utility.yul\":8268:8287   */\n      swap1\n      pop\n        /* \"#utility.yul\":7927:8293   */\n      swap2\n      swap1\n      pop\n      jump\t// out\n        /* \"#utility.yul\":8299:8664   */\n    tag_313:\n        /* \"#utility.yul\":8441:8444   */\n      0x00\n        /* \"#utility.yul\":8462:8528   */\n      tag_315\n        /* \"#utility.yul\":8526:8527   */\n      0x08\n        /* \"#utility.yul\":8521:8524   */\n      dup4\n        /* \"#utility.yul\":8462:8528   */\n      tag_298\n      jump\t// in\n    tag_315:\n        /* \"#utility.yul\":8455:8528   */\n      swap2\n      pop\n        /* \"#utility.yul\":8537:8630   */\n      tag_316\n        /* \"#utility.yul\":8626:8629   */\n      dup3\n        /* \"#utility.yul\":8537:8630   */\n      tag_317\n      jump\t// in\n    tag_316:\n        /* \"#utility.yul\":8655:8657   */\n      0x20\n        /* \"#utility.yul\":8650:8653   */\n      dup3\n        /* \"#utility.yul\":8646:8658   */\n      add\n        /* \"#utility.yul\":8639:8658   */\n      swap1\n      pop\n        /* \"#utility.yul\":8299:8664   */\n      swap2\n      swap1\n      pop\n      jump\t// out\n        /* \"#utility.yul\":8670:9036   */\n    tag_318:\n        /* \"#utility.yul\":8812:8815   */\n      0x00\n        /* \"#utility.yul\":8833:8900   */\n      tag_320\n        /* \"#utility.yul\":8897:8899   */\n      0x0a\n        /* \"#utility.yul\":8892:8895   */\n      dup4\n        /* \"#utility.yul\":8833:8900   */\n      tag_298\n      jump\t// in\n    tag_320:\n        /* \"#utility.yul\":8826:8900   */\n      swap2\n      pop\n        /* \"#utility.yul\":8909:9002   */\n      tag_321\n        /* \"#utility.yul\":8998:9001   */\n      dup3\n        /* \"#utility.yul\":8909:9002   */\n      tag_322\n      jump\t// in\n    tag_321:\n        /* \"#utility.yul\":9027:9029   */\n      0x20\n        /* \"#utility.yul\":9022:9025   */\n      dup3\n        /* \"#utility.yul\":9018:9030   */\n      add\n        /* \"#utility.yul\":9011:9030   */\n      swap1\n      pop\n        /* \"#utility.yul\":8670:9036   */\n      swap2\n      swap1\n      pop\n      jump\t// out\n        /* \"#utility.yul\":9042:9408   */\n    tag_323:\n        /* \"#utility.yul\":9184:9187   */\n      0x00\n        /* \"#utility.yul\":9205:9272   */\n      tag_325\n        /* \"#utility.yul\":9269:9271   */\n      0x10\n        /* \"#utility.yul\":9264:9267   */\n      dup4\n        /* \"#utility.yul\":9205:9272   */\n      tag_298\n      jump\t// in\n    tag_325:\n        /* \"#utility.yul\":9198:9272   */\n      swap2\n      pop\n        /* \"#utility.yul\":9281:9374   */\n      tag_326\n        /* \"#utility.yul\":9370:9373   */\n      dup3\n        /* \"#utility.yul\":9281:9374   */\n      tag_327\n      jump\t// in\n    tag_326:\n        /* \"#utility.yul\":9399:9401   */\n      0x20\n        /* \"#utility.yul\":9394:9397   */\n      dup3\n        /* \"#utility.yul\":9390:9402   */\n      add\n        /* \"#utility.yul\":9383:9402   */\n      swap1\n      pop\n        /* \"#utility.yul\":9042:9408   */\n      swap2\n      swap1\n      pop\n      jump\t// out\n        /* \"#utility.yul\":9414:9780   */\n    tag_328:\n        /* \"#utility.yul\":9556:9559   */\n      0x00\n        /* \"#utility.yul\":9577:9644   */\n      tag_330\n        /* \"#utility.yul\":9641:9643   */\n      0x0e\n        /* \"#utility.yul\":9636:9639   */\n      dup4\n        /* \"#utility.yul\":9577:9644   */\n      tag_298\n      jump\t// in\n    tag_330:\n        /* \"#utility.yul\":9570:9644   */\n      swap2\n      pop\n        /* \"#utility.yul\":9653:9746   */\n      tag_331\n        /* \"#utility.yul\":9742:9745   */\n      dup3\n        /* \"#utility.yul\":9653:9746   */\n      tag_332\n      jump\t// in\n    tag_331:\n        /* \"#utility.yul\":9771:9773   */\n      0x20\n        /* \"#utility.yul\":9766:9769   */\n      dup3\n        /* \"#utility.yul\":9762:9774   */\n      add\n        /* \"#utility.yul\":9755:9774   */\n      swap1\n      pop\n        /* \"#utility.yul\":9414:9780   */\n      swap2\n      swap1\n      pop\n      jump\t// out\n        /* \"#utility.yul\":9786:10152   */\n    tag_333:\n        /* \"#utility.yul\":9928:9931   */\n      0x00\n        /* \"#utility.yul\":9949:10016   */\n      tag_335\n        /* \"#utility.yul\":10013:10015   */\n      0x18\n        /* \"#utility.yul\":10008:10011   */\n      dup4\n        /* \"#utility.yul\":9949:10016   */\n      tag_298\n      jump\t// in\n    tag_335:\n        /* \"#utility.yul\":9942:10016   */\n      swap2\n      pop\n        /* \"#utility.yul\":10025:10118   */\n      tag_336\n        /* \"#utility.yul\":10114:10117   */\n      dup3\n        /* \"#utility.yul\":10025:10118   */\n      tag_337\n      jump\t// in\n    tag_336:\n        /* \"#utility.yul\":10143:10145   */\n      0x20\n        /* \"#utility.yul\":10138:10141   */\n      dup3\n        /* \"#utility.yul\":10134:10146   */\n      add\n        /* \"#utility.yul\":10127:10146   */\n      swap1\n      pop\n        /* \"#utility.yul\":9786:10152   */\n      swap2\n      swap1\n      pop\n      jump\t// out\n        /* \"#utility.yul\":10158:10276   */\n    tag_338:\n        /* \"#utility.yul\":10245:10269   */\n      tag_340\n        /* \"#utility.yul\":10263:10268   */\n      dup2\n        /* \"#utility.yul\":10245:10269   */\n      tag_341\n      jump\t// in\n    tag_340:\n        /* \"#utility.yul\":10240:10243   */\n      dup3\n        /* \"#utility.yul\":10233:10270   */\n      mstore\n        /* \"#utility.yul\":10158:10276   */\n      pop\n      pop\n      jump\t// out\n        /* \"#utility.yul\":10282:10504   */\n    tag_39:\n        /* \"#utility.yul\":10375:10379   */\n      0x00\n        /* \"#utility.yul\":10413:10415   */\n      0x20\n        /* \"#utility.yul\":10402:10411   */\n      dup3\n        /* \"#utility.yul\":10398:10416   */\n      add\n        /* \"#utility.yul\":10390:10416   */\n      swap1\n      pop\n        /* \"#utility.yul\":10426:10497   */\n      tag_343\n        /* \"#utility.yul\":10494:10495   */\n      0x00\n        /* \"#utility.yul\":10483:10492   */\n      dup4\n        /* \"#utility.yul\":10479:10496   */\n      add\n        /* \"#utility.yul\":10470:10476   */\n      dup5\n        /* \"#utility.yul\":10426:10497   */\n      tag_285\n      jump\t// in\n    tag_343:\n        /* \"#utility.yul\":10282:10504   */\n      swap3\n      swap2\n      pop\n      pop\n      jump\t// out\n        /* \"#utility.yul\":10510:10720   */\n    tag_27:\n        /* \"#utility.yul\":10597:10601   */\n      0x00\n        /* \"#utility.yul\":10635:10637   */\n      0x20\n        /* \"#utility.yul\":10624:10633   */\n      dup3\n        /* \"#utility.yul\":10620:10638   */\n      add\n        /* \"#utility.yul\":10612:10638   */\n      swap1\n      pop\n        /* \"#utility.yul\":10648:10713   */\n      tag_345\n        /* \"#utility.yul\":10710:10711   */\n      0x00\n        /* \"#utility.yul\":10699:10708   */\n      dup4\n        /* \"#utility.yul\":10695:10712   */\n      add\n        /* \"#utility.yul\":10686:10692   */\n      dup5\n        /* \"#utility.yul\":10648:10713   */\n      tag_289\n      jump\t// in\n    tag_345:\n        /* \"#utility.yul\":10510:10720   */\n      swap3\n      swap2\n      pop\n      pop\n      jump\t// out\n        /* \"#utility.yul\":10726:11039   */\n    tag_32:\n        /* \"#utility.yul\":10839:10843   */\n      0x00\n        /* \"#utility.yul\":10877:10879   */\n      0x20\n        /* \"#utility.yul\":10866:10875   */\n      dup3\n        /* \"#utility.yul\":10862:10880   */\n      add\n        /* \"#utility.yul\":10854:10880   */\n      swap1\n      pop\n        /* \"#utility.yul\":10926:10935   */\n      dup2\n        /* \"#utility.yul\":10920:10924   */\n      dup2\n        /* \"#utility.yul\":10916:10936   */\n      sub\n        /* \"#utility.yul\":10912:10913   */\n      0x00\n        /* \"#utility.yul\":10901:10910   */\n      dup4\n        /* \"#utility.yul\":10897:10914   */\n      add\n        /* \"#utility.yul\":10890:10937   */\n      mstore\n        /* \"#utility.yul\":10954:11032   */\n      tag_347\n        /* \"#utility.yul\":11027:11031   */\n      dup2\n        /* \"#utility.yul\":11018:11024   */\n      dup5\n        /* \"#utility.yul\":10954:11032   */\n      tag_293\n      jump\t// in\n    tag_347:\n        /* \"#utility.yul\":10946:11032   */\n      swap1\n      pop\n        /* \"#utility.yul\":10726:11039   */\n      swap3\n      swap2\n      pop\n      pop\n      jump\t// out\n        /* \"#utility.yul\":11045:11464   */\n    tag_126:\n        /* \"#utility.yul\":11211:11215   */\n      0x00\n        /* \"#utility.yul\":11249:11251   */\n      0x20\n        /* \"#utility.yul\":11238:11247   */\n      dup3\n        /* \"#utility.yul\":11234:11252   */\n      add\n        /* \"#utility.yul\":11226:11252   */\n      swap1\n      pop\n        /* \"#utility.yul\":11298:11307   */\n      dup2\n        /* \"#utility.yul\":11292:11296   */\n      dup2\n        /* \"#utility.yul\":11288:11308   */\n      sub\n        /* \"#utility.yul\":11284:11285   */\n      0x00\n        /* \"#utility.yul\":11273:11282   */\n      dup4\n        /* \"#utility.yul\":11269:11286   */\n      add\n        /* \"#utility.yul\":11262:11309   */\n      mstore\n        /* \"#utility.yul\":11326:11457   */\n      tag_349\n        /* \"#utility.yul\":11452:11456   */\n      dup2\n        /* \"#utility.yul\":11326:11457   */\n      tag_303\n      jump\t// in\n    tag_349:\n        /* \"#utility.yul\":11318:11457   */\n      swap1\n      pop\n        /* \"#utility.yul\":11045:11464   */\n      swap2\n      swap1\n      pop\n      jump\t// out\n        /* \"#utility.yul\":11470:11889   */\n    tag_123:\n        /* \"#utility.yul\":11636:11640   */\n      0x00\n        /* \"#utility.yul\":11674:11676   */\n      0x20\n        /* \"#utility.yul\":11663:11672   */\n      dup3\n        /* \"#utility.yul\":11659:11677   */\n      add\n        /* \"#utility.yul\":11651:11677   */\n      swap1\n      pop\n        /* \"#utility.yul\":11723:11732   */\n      dup2\n        /* \"#utility.yul\":11717:11721   */\n      dup2\n        /* \"#utility.yul\":11713:11733   */\n      sub\n        /* \"#utility.yul\":11709:11710   */\n      0x00\n        /* \"#utility.yul\":11698:11707   */\n      dup4\n        /* \"#utility.yul\":11694:11711   */\n      add\n        /* \"#utility.yul\":11687:11734   */\n      mstore\n        /* \"#utility.yul\":11751:11882   */\n      tag_351\n        /* \"#utility.yul\":11877:11881   */\n      dup2\n        /* \"#utility.yul\":11751:11882   */\n      tag_308\n      jump\t// in\n    tag_351:\n        /* \"#utility.yul\":11743:11882   */\n      swap1\n      pop\n        /* \"#utility.yul\":11470:11889   */\n      swap2\n      swap1\n      pop\n      jump\t// out\n        /* \"#utility.yul\":11895:12314   */\n    tag_129:\n        /* \"#utility.yul\":12061:12065   */\n      0x00\n        /* \"#utility.yul\":12099:12101   */\n      0x20\n        /* \"#utility.yul\":12088:12097   */\n      dup3\n        /* \"#utility.yul\":12084:12102   */\n      add\n        /* \"#utility.yul\":12076:12102   */\n      swap1\n      pop\n        /* \"#utility.yul\":12148:12157   */\n      dup2\n        /* \"#utility.yul\":12142:12146   */\n      dup2\n        /* \"#utility.yul\":12138:12158   */\n      sub\n        /* \"#utility.yul\":12134:12135   */\n      0x00\n        /* \"#utility.yul\":12123:12132   */\n      dup4\n        /* \"#utility.yul\":12119:12136   */\n      add\n        /* \"#utility.yul\":12112:12159   */\n      mstore\n        /* \"#utility.yul\":12176:12307   */\n      tag_353\n        /* \"#utility.yul\":12302:12306   */\n      dup2\n        /* \"#utility.yul\":12176:12307   */\n      tag_313\n      jump\t// in\n    tag_353:\n        /* \"#utility.yul\":12168:12307   */\n      swap1\n      pop\n        /* \"#utility.yul\":11895:12314   */\n      swap2\n      swap1\n      pop\n      jump\t// out\n        /* \"#utility.yul\":12320:12739   */\n    tag_117:\n        /* \"#utility.yul\":12486:12490   */\n      0x00\n        /* \"#utility.yul\":12524:12526   */\n      0x20\n        /* \"#utility.yul\":12513:12522   */\n      dup3\n        /* \"#utility.yul\":12509:12527   */\n      add\n        /* \"#utility.yul\":12501:12527   */\n      swap1\n      pop\n        /* \"#utility.yul\":12573:12582   */\n      dup2\n        /* \"#utility.yul\":12567:12571   */\n      dup2\n        /* \"#utility.yul\":12563:12583   */\n      sub\n        /* \"#utility.yul\":12559:12560   */\n      0x00\n        /* \"#utility.yul\":12548:12557   */\n      dup4\n        /* \"#utility.yul\":12544:12561   */\n      add\n        /* \"#utility.yul\":12537:12584   */\n      mstore\n        /* \"#utility.yul\":12601:12732   */\n      tag_355\n        /* \"#utility.yul\":12727:12731   */\n      dup2\n        /* \"#utility.yul\":12601:12732   */\n      tag_318\n      jump\t// in\n    tag_355:\n        /* \"#utility.yul\":12593:12732   */\n      swap1\n      pop\n        /* \"#utility.yul\":12320:12739   */\n      swap2\n      swap1\n      pop\n      jump\t// out\n        /* \"#utility.yul\":12745:13164   */\n    tag_158:\n        /* \"#utility.yul\":12911:12915   */\n      0x00\n        /* \"#utility.yul\":12949:12951   */\n      0x20\n        /* \"#utility.yul\":12938:12947   */\n      dup3\n        /* \"#utility.yul\":12934:12952   */\n      add\n        /* \"#utility.yul\":12926:12952   */\n      swap1\n      pop\n        /* \"#utility.yul\":12998:13007   */\n      dup2\n        /* \"#utility.yul\":12992:12996   */\n      dup2\n        /* \"#utility.yul\":12988:13008   */\n      sub\n        /* \"#utility.yul\":12984:12985   */\n      0x00\n        /* \"#utility.yul\":12973:12982   */\n      dup4\n        /* \"#utility.yul\":12969:12986   */\n      add\n        /* \"#utility.yul\":12962:13009   */\n      mstore\n        /* \"#utility.yul\":13026:13157   */\n      tag_357\n        /* \"#utility.yul\":13152:13156   */\n      dup2\n        /* \"#utility.yul\":13026:13157   */\n      tag_323\n      jump\t// in\n    tag_357:\n        /* \"#utility.yul\":13018:13157   */\n      swap1\n      pop\n        /* \"#utility.yul\":12745:13164   */\n      swap2\n      swap1\n      pop\n      jump\t// out\n        /* \"#utility.yul\":13170:13589   */\n    tag_171:\n        /* \"#utility.yul\":13336:13340   */\n      0x00\n        /* \"#utility.yul\":13374:13376   */\n      0x20\n        /* \"#utility.yul\":13363:13372   */\n      dup3\n        /* \"#utility.yul\":13359:13377   */\n      add\n        /* \"#utility.yul\":13351:13377   */\n      swap1\n      pop\n        /* \"#utility.yul\":13423:13432   */\n      dup2\n        /* \"#utility.yul\":13417:13421   */\n      dup2\n        /* \"#utility.yul\":13413:13433   */\n      sub\n        /* \"#utility.yul\":13409:13410   */\n      0x00\n        /* \"#utility.yul\":13398:13407   */\n      dup4\n        /* \"#utility.yul\":13394:13411   */\n      add\n        /* \"#utility.yul\":13387:13434   */\n      mstore\n        /* \"#utility.yul\":13451:13582   */\n      tag_359\n        /* \"#utility.yul\":13577:13581   */\n      dup2\n        /* \"#utility.yul\":13451:13582   */\n      tag_328\n      jump\t// in\n    tag_359:\n        /* \"#utility.yul\":13443:13582   */\n      swap1\n      pop\n        /* \"#utility.yul\":13170:13589   */\n      swap2\n      swap1\n      pop\n      jump\t// out\n        /* \"#utility.yul\":13595:14014   */\n    tag_132:\n        /* \"#utility.yul\":13761:13765   */\n      0x00\n        /* \"#utility.yul\":13799:13801   */\n      0x20\n        /* \"#utility.yul\":13788:13797   */\n      dup3\n        /* \"#utility.yul\":13784:13802   */\n      add\n        /* \"#utility.yul\":13776:13802   */\n      swap1\n      pop\n        /* \"#utility.yul\":13848:13857   */\n      dup2\n        /* \"#utility.yul\":13842:13846   */\n      dup2\n        /* \"#utility.yul\":13838:13858   */\n      sub\n        /* \"#utility.yul\":13834:13835   */\n      0x00\n        /* \"#utility.yul\":13823:13832   */\n      dup4\n        /* \"#utility.yul\":13819:13836   */\n      add\n        /* \"#utility.yul\":13812:13859   */\n      mstore\n        /* \"#utility.yul\":13876:14007   */\n      tag_361\n        /* \"#utility.yul\":14002:14006   */\n      dup2\n        /* \"#utility.yul\":13876:14007   */\n      tag_333\n      jump\t// in\n    tag_361:\n        /* \"#utility.yul\":13868:14007   */\n      swap1\n      pop\n        /* \"#utility.yul\":13595:14014   */\n      swap2\n      swap1\n      pop\n      jump\t// out\n        /* \"#utility.yul\":14020:14242   */\n    tag_66:\n        /* \"#utility.yul\":14113:14117   */\n      0x00\n        /* \"#utility.yul\":14151:14153   */\n      0x20\n        /* \"#utility.yul\":14140:14149   */\n      dup3\n        /* \"#utility.yul\":14136:14154   */\n      add\n        /* \"#utility.yul\":14128:14154   */\n      swap1\n      pop\n        /* \"#utility.yul\":14164:14235   */\n      tag_363\n        /* \"#utility.yul\":14232:14233   */\n      0x00\n        /* \"#utility.yul\":14221:14230   */\n      dup4\n        /* \"#utility.yul\":14217:14234   */\n      add\n        /* \"#utility.yul\":14208:14214   */\n      dup5\n        /* \"#utility.yul\":14164:14235   */\n      tag_338\n      jump\t// in\n    tag_363:\n        /* \"#utility.yul\":14020:14242   */\n      swap3\n      swap2\n      pop\n      pop\n      jump\t// out\n        /* \"#utility.yul\":14248:14377   */\n    tag_192:\n        /* \"#utility.yul\":14282:14288   */\n      0x00\n        /* \"#utility.yul\":14309:14329   */\n      tag_365\n      tag_366\n      jump\t// in\n    tag_365:\n        /* \"#utility.yul\":14299:14329   */\n      swap1\n      pop\n        /* \"#utility.yul\":14338:14371   */\n      tag_367\n        /* \"#utility.yul\":14366:14370   */\n      dup3\n        /* \"#utility.yul\":14358:14364   */\n      dup3\n        /* \"#utility.yul\":14338:14371   */\n      tag_368\n      jump\t// in\n    tag_367:\n        /* \"#utility.yul\":14248:14377   */\n      swap2\n      swap1\n      pop\n      jump\t// out\n        /* \"#utility.yul\":14383:14458   */\n    tag_366:\n        /* \"#utility.yul\":14416:14422   */\n      0x00\n        /* \"#utility.yul\":14449:14451   */\n      0x40\n        /* \"#utility.yul\":14443:14452   */\n      mload\n        /* \"#utility.yul\":14433:14452   */\n      swap1\n      pop\n        /* \"#utility.yul\":14383:14458   */\n      swap1\n      jump\t// out\n        /* \"#utility.yul\":14464:14771   */\n    tag_191:\n        /* \"#utility.yul\":14525:14529   */\n      0x00\n        /* \"#utility.yul\":14615:14633   */\n      0xffffffffffffffff\n        /* \"#utility.yul\":14607:14613   */\n      dup3\n        /* \"#utility.yul\":14604:14634   */\n      gt\n        /* \"#utility.yul\":14601:14657   */\n      iszero\n      tag_371\n      jumpi\n        /* \"#utility.yul\":14637:14655   */\n      tag_372\n      tag_373\n      jump\t// in\n    tag_372:\n        /* \"#utility.yul\":14601:14657   */\n    tag_371:\n        /* \"#utility.yul\":14675:14704   */\n      tag_374\n        /* \"#utility.yul\":14697:14703   */\n      dup3\n        /* \"#utility.yul\":14675:14704   */\n      tag_302\n      jump\t// in\n    tag_374:\n        /* \"#utility.yul\":14667:14704   */\n      swap1\n      pop\n        /* \"#utility.yul\":14759:14763   */\n      0x20\n        /* \"#utility.yul\":14753:14757   */\n      dup2\n        /* \"#utility.yul\":14749:14764   */\n      add\n        /* \"#utility.yul\":14741:14764   */\n      swap1\n      pop\n        /* \"#utility.yul\":14464:14771   */\n      swap2\n      swap1\n      pop\n      jump\t// out\n        /* \"#utility.yul\":14777:15085   */\n    tag_202:\n        /* \"#utility.yul\":14839:14843   */\n      0x00\n        /* \"#utility.yul\":14929:14947   */\n      0xffffffffffffffff\n        /* \"#utility.yul\":14921:14927   */\n      dup3\n        /* \"#utility.yul\":14918:14948   */\n      gt\n        /* \"#utility.yul\":14915:14971   */\n      iszero\n      tag_376\n      jumpi\n        /* \"#utility.yul\":14951:14969   */\n      tag_377\n      tag_373\n      jump\t// in\n    tag_377:\n        /* \"#utility.yul\":14915:14971   */\n    tag_376:\n        /* \"#utility.yul\":14989:15018   */\n      tag_378\n        /* \"#utility.yul\":15011:15017   */\n      dup3\n        /* \"#utility.yul\":14989:15018   */\n      tag_302\n      jump\t// in\n    tag_378:\n        /* \"#utility.yul\":14981:15018   */\n      swap1\n      pop\n        /* \"#utility.yul\":15073:15077   */\n      0x20\n        /* \"#utility.yul\":15067:15071   */\n      dup2\n        /* \"#utility.yul\":15063:15078   */\n      add\n        /* \"#utility.yul\":15055:15078   */\n      swap1\n      pop\n        /* \"#utility.yul\":14777:15085   */\n      swap2\n      swap1\n      pop\n      jump\t// out\n        /* \"#utility.yul\":15091:15190   */\n    tag_296:\n        /* \"#utility.yul\":15143:15149   */\n      0x00\n        /* \"#utility.yul\":15177:15182   */\n      dup2\n        /* \"#utility.yul\":15171:15183   */\n      mload\n        /* \"#utility.yul\":15161:15183   */\n      swap1\n      pop\n        /* \"#utility.yul\":15091:15190   */\n      swap2\n      swap1\n      pop\n      jump\t// out\n        /* \"#utility.yul\":15196:15365   */\n    tag_298:\n        /* \"#utility.yul\":15280:15291   */\n      0x00\n        /* \"#utility.yul\":15314:15320   */\n      dup3\n        /* \"#utility.yul\":15309:15312   */\n      dup3\n        /* \"#utility.yul\":15302:15321   */\n      mstore\n        /* \"#utility.yul\":15354:15358   */\n      0x20\n        /* \"#utility.yul\":15349:15352   */\n      dup3\n        /* \"#utility.yul\":15345:15359   */\n      add\n        /* \"#utility.yul\":15330:15359   */\n      swap1\n      pop\n        /* \"#utility.yul\":15196:15365   */\n      swap3\n      swap2\n      pop\n      pop\n      jump\t// out\n        /* \"#utility.yul\":15371:15676   */\n    tag_136:\n        /* \"#utility.yul\":15411:15414   */\n      0x00\n        /* \"#utility.yul\":15430:15450   */\n      tag_382\n        /* \"#utility.yul\":15448:15449   */\n      dup3\n        /* \"#utility.yul\":15430:15450   */\n      tag_341\n      jump\t// in\n    tag_382:\n        /* \"#utility.yul\":15425:15450   */\n      swap2\n      pop\n        /* \"#utility.yul\":15464:15484   */\n      tag_383\n        /* \"#utility.yul\":15482:15483   */\n      dup4\n        /* \"#utility.yul\":15464:15484   */\n      tag_341\n      jump\t// in\n    tag_383:\n        /* \"#utility.yul\":15459:15484   */\n      swap3\n      pop\n        /* \"#utility.yul\":15618:15619   */\n      dup3\n        /* \"#utility.yul\":15550:15616   */\n      0xffffffffffffffffffffffffffffffffffffffffffffffffffffffffffffffff\n        /* \"#utility.yul\":15546:15620   */\n      sub\n        /* \"#utility.yul\":15543:15544   */\n      dup3\n        /* \"#utility.yul\":15540:15621   */\n      gt\n        /* \"#utility.yul\":15537:15644   */\n      iszero\n      tag_384\n      jumpi\n        /* \"#utility.yul\":15624:15642   */\n      tag_385\n      tag_386\n      jump\t// in\n    tag_385:\n        /* \"#utility.yul\":15537:15644   */\n    tag_384:\n        /* \"#utility.yul\":15668:15669   */\n      dup3\n        /* \"#utility.yul\":15665:15666   */\n      dup3\n        /* \"#utility.yul\":15661:15670   */\n      add\n        /* \"#utility.yul\":15654:15670   */\n      swap1\n      pop\n        /* \"#utility.yul\":15371:15676   */\n      swap3\n      swap2\n      pop\n      pop\n      jump\t// out\n        /* \"#utility.yul\":15682:15873   */\n    tag_134:\n        /* \"#utility.yul\":15722:15726   */\n      0x00\n        /* \"#utility.yul\":15742:15762   */\n      tag_388\n        /* \"#utility.yul\":15760:15761   */\n      dup3\n        /* \"#utility.yul\":15742:15762   */\n      tag_341\n      jump\t// in\n    tag_388:\n        /* \"#utility.yul\":15737:15762   */\n      swap2\n      pop\n        /* \"#utility.yul\":15776:15796   */\n      tag_389\n        /* \"#utility.yul\":15794:15795   */\n      dup4\n        /* \"#utility.yul\":15776:15796   */\n      tag_341\n      jump\t// in\n    tag_389:\n        /* \"#utility.yul\":15771:15796   */\n      swap3\n      pop\n        /* \"#utility.yul\":15815:15816   */\n      dup3\n        /* \"#utility.yul\":15812:15813   */\n      dup3\n        /* \"#utility.yul\":15809:15817   */\n      lt\n        /* \"#utility.yul\":15806:15840   */\n      iszero\n      tag_390\n      jumpi\n        /* \"#utility.yul\":15820:15838   */\n      tag_391\n      tag_386\n      jump\t// in\n    tag_391:\n        /* \"#utility.yul\":15806:15840   */\n    tag_390:\n        /* \"#utility.yul\":15865:15866   */\n      dup3\n        /* \"#utility.yul\":15862:15863   */\n      dup3\n        /* \"#utility.yul\":15858:15867   */\n      sub\n        /* \"#utility.yul\":15850:15867   */\n      swap1\n      pop\n        /* \"#utility.yul\":15682:15873   */\n      swap3\n      swap2\n      pop\n      pop\n      jump\t// out\n        /* \"#utility.yul\":15879:15975   */\n    tag_288:\n        /* \"#utility.yul\":15916:15923   */\n      0x00\n        /* \"#utility.yul\":15945:15969   */\n      tag_393\n        /* \"#utility.yul\":15963:15968   */\n      dup3\n        /* \"#utility.yul\":15945:15969   */\n      tag_394\n      jump\t// in\n    tag_393:\n        /* \"#utility.yul\":15934:15969   */\n      swap1\n      pop\n        /* \"#utility.yul\":15879:15975   */\n      swap2\n      swap1\n      pop\n      jump\t// out\n        /* \"#utility.yul\":15981:16071   */\n    tag_292:\n        /* \"#utility.yul\":16015:16022   */\n      0x00\n        /* \"#utility.yul\":16058:16063   */\n      dup2\n        /* \"#utility.yul\":16051:16064   */\n      iszero\n        /* \"#utility.yul\":16044:16065   */\n      iszero\n        /* \"#utility.yul\":16033:16065   */\n      swap1\n      pop\n        /* \"#utility.yul\":15981:16071   */\n      swap2\n      swap1\n      pop\n      jump\t// out\n        /* \"#utility.yul\":16077:16226   */\n    tag_396:\n        /* \"#utility.yul\":16113:16120   */\n      0x00\n        /* \"#utility.yul\":16153:16219   */\n      0xffffffff00000000000000000000000000000000000000000000000000000000\n        /* \"#utility.yul\":16146:16151   */\n      dup3\n        /* \"#utility.yul\":16142:16220   */\n      and\n        /* \"#utility.yul\":16131:16220   */\n      swap1\n      pop\n        /* \"#utility.yul\":16077:16226   */\n      swap2\n      swap1\n      pop\n      jump\t// out\n        /* \"#utility.yul\":16232:16358   */\n    tag_394:\n        /* \"#utility.yul\":16269:16276   */\n      0x00\n        /* \"#utility.yul\":16309:16351   */\n      0xffffffffffffffffffffffffffffffffffffffff\n        /* \"#utility.yul\":16302:16307   */\n      dup3\n        /* \"#utility.yul\":16298:16352   */\n      and\n        /* \"#utility.yul\":16287:16352   */\n      swap1\n      pop\n        /* \"#utility.yul\":16232:16358   */\n      swap2\n      swap1\n      pop\n      jump\t// out\n        /* \"#utility.yul\":16364:16441   */\n    tag_341:\n        /* \"#utility.yul\":16401:16408   */\n      0x00\n        /* \"#utility.yul\":16430:16435   */\n      dup2\n        /* \"#utility.yul\":16419:16435   */\n      swap1\n      pop\n        /* \"#utility.yul\":16364:16441   */\n      swap2\n      swap1\n      pop\n      jump\t// out\n        /* \"#utility.yul\":16447:16601   */\n    tag_197:\n        /* \"#utility.yul\":16531:16537   */\n      dup3\n        /* \"#utility.yul\":16526:16529   */\n      dup2\n        /* \"#utility.yul\":16521:16524   */\n      dup4\n        /* \"#utility.yul\":16508:16538   */\n      calldatacopy\n        /* \"#utility.yul\":16593:16594   */\n      0x00\n        /* \"#utility.yul\":16584:16590   */\n      dup4\n        /* \"#utility.yul\":16579:16582   */\n      dup4\n        /* \"#utility.yul\":16575:16591   */\n      add\n        /* \"#utility.yul\":16568:16595   */\n      mstore\n        /* \"#utility.yul\":16447:16601   */\n      pop\n      pop\n      pop\n      jump\t// out\n        /* \"#utility.yul\":16607:16914   */\n    tag_300:\n        /* \"#utility.yul\":16675:16676   */\n      0x00\n        /* \"#utility.yul\":16685:16798   */\n    tag_402:\n        /* \"#utility.yul\":16699:16705   */\n      dup4\n        /* \"#utility.yul\":16696:16697   */\n      dup2\n        /* \"#utility.yul\":16693:16706   */\n      lt\n        /* \"#utility.yul\":16685:16798   */\n      iszero\n      tag_404\n      jumpi\n        /* \"#utility.yul\":16784:16785   */\n      dup1\n        /* \"#utility.yul\":16779:16782   */\n      dup3\n        /* \"#utility.yul\":16775:16786   */\n      add\n        /* \"#utility.yul\":16769:16787   */\n      mload\n        /* \"#utility.yul\":16765:16766   */\n      dup2\n        /* \"#utility.yul\":16760:16763   */\n      dup5\n        /* \"#utility.yul\":16756:16767   */\n      add\n        /* \"#utility.yul\":16749:16788   */\n      mstore\n        /* \"#utility.yul\":16721:16723   */\n      0x20\n        /* \"#utility.yul\":16718:16719   */\n      dup2\n        /* \"#utility.yul\":16714:16724   */\n      add\n        /* \"#utility.yul\":16709:16724   */\n      swap1\n      pop\n        /* \"#utility.yul\":16685:16798   */\n      jump(tag_402)\n    tag_404:\n        /* \"#utility.yul\":16816:16822   */\n      dup4\n        /* \"#utility.yul\":16813:16814   */\n      dup2\n        /* \"#utility.yul\":16810:16823   */\n      gt\n        /* \"#utility.yul\":16807:16908   */\n      iszero\n      tag_405\n      jumpi\n        /* \"#utility.yul\":16896:16897   */\n      0x00\n        /* \"#utility.yul\":16887:16893   */\n      dup5\n        /* \"#utility.yul\":16882:16885   */\n      dup5\n        /* \"#utility.yul\":16878:16894   */\n      add\n        /* \"#utility.yul\":16871:16898   */\n      mstore\n        /* \"#utility.yul\":16807:16908   */\n    tag_405:\n        /* \"#utility.yul\":16656:16914   */\n      pop\n        /* \"#utility.yul\":16607:16914   */\n      pop\n      pop\n      pop\n      jump\t// out\n        /* \"#utility.yul\":16920:17240   */\n    tag_108:\n        /* \"#utility.yul\":16964:16970   */\n      0x00\n        /* \"#utility.yul\":17001:17002   */\n      0x02\n        /* \"#utility.yul\":16995:16999   */\n      dup3\n        /* \"#utility.yul\":16991:17003   */\n      div\n        /* \"#utility.yul\":16981:17003   */\n      swap1\n      pop\n        /* \"#utility.yul\":17048:17049   */\n      0x01\n        /* \"#utility.yul\":17042:17046   */\n      dup3\n        /* \"#utility.yul\":17038:17050   */\n      and\n        /* \"#utility.yul\":17069:17087   */\n      dup1\n        /* \"#utility.yul\":17059:17140   */\n      tag_407\n      jumpi\n        /* \"#utility.yul\":17125:17129   */\n      0x7f\n        /* \"#utility.yul\":17117:17123   */\n      dup3\n        /* \"#utility.yul\":17113:17130   */\n      and\n        /* \"#utility.yul\":17103:17130   */\n      swap2\n      pop\n        /* \"#utility.yul\":17059:17140   */\n    tag_407:\n        /* \"#utility.yul\":17187:17189   */\n      0x20\n        /* \"#utility.yul\":17179:17185   */\n      dup3\n        /* \"#utility.yul\":17176:17190   */\n      lt\n        /* \"#utility.yul\":17156:17174   */\n      dup2\n        /* \"#utility.yul\":17153:17191   */\n      eq\n        /* \"#utility.yul\":17150:17234   */\n      iszero\n      tag_408\n      jumpi\n        /* \"#utility.yul\":17206:17224   */\n      tag_409\n      tag_410\n      jump\t// in\n    tag_409:\n        /* \"#utility.yul\":17150:17234   */\n    tag_408:\n        /* \"#utility.yul\":16971:17240   */\n      pop\n        /* \"#utility.yul\":16920:17240   */\n      swap2\n      swap1\n      pop\n      jump\t// out\n        /* \"#utility.yul\":17246:17527   */\n    tag_368:\n        /* \"#utility.yul\":17329:17356   */\n      tag_412\n        /* \"#utility.yul\":17351:17355   */\n      dup3\n        /* \"#utility.yul\":17329:17356   */\n      tag_302\n      jump\t// in\n    tag_412:\n        /* \"#utility.yul\":17321:17327   */\n      dup2\n        /* \"#utility.yul\":17317:17357   */\n      add\n        /* \"#utility.yul\":17459:17465   */\n      dup2\n        /* \"#utility.yul\":17447:17457   */\n      dup2\n        /* \"#utility.yul\":17444:17466   */\n      lt\n        /* \"#utility.yul\":17423:17441   */\n      0xffffffffffffffff\n        /* \"#utility.yul\":17411:17421   */\n      dup3\n        /* \"#utility.yul\":17408:17442   */\n      gt\n        /* \"#utility.yul\":17405:17467   */\n      or\n        /* \"#utility.yul\":17402:17490   */\n      iszero\n      tag_413\n      jumpi\n        /* \"#utility.yul\":17470:17488   */\n      tag_414\n      tag_373\n      jump\t// in\n    tag_414:\n        /* \"#utility.yul\":17402:17490   */\n    tag_413:\n        /* \"#utility.yul\":17510:17520   */\n      dup1\n        /* \"#utility.yul\":17506:17508   */\n      0x40\n        /* \"#utility.yul\":17499:17521   */\n      mstore\n        /* \"#utility.yul\":17289:17527   */\n      pop\n        /* \"#utility.yul\":17246:17527   */\n      pop\n      pop\n      jump\t// out\n        /* \"#utility.yul\":17533:17713   */\n    tag_386:\n        /* \"#utility.yul\":17581:17658   */\n      0x4e487b7100000000000000000000000000000000000000000000000000000000\n        /* \"#utility.yul\":17578:17579   */\n      0x00\n        /* \"#utility.yul\":17571:17659   */\n      mstore\n        /* \"#utility.yul\":17678:17682   */\n      0x11\n        /* \"#utility.yul\":17675:17676   */\n      0x04\n        /* \"#utility.yul\":17668:17683   */\n      mstore\n        /* \"#utility.yul\":17702:17706   */\n      0x24\n        /* \"#utility.yul\":17699:17700   */\n      0x00\n        /* \"#utility.yul\":17692:17707   */\n      revert\n        /* \"#utility.yul\":17719:17899   */\n    tag_410:\n        /* \"#utility.yul\":17767:17844   */\n      0x4e487b7100000000000000000000000000000000000000000000000000000000\n        /* \"#utility.yul\":17764:17765   */\n      0x00\n        /* \"#utility.yul\":17757:17845   */\n      mstore\n        /* \"#utility.yul\":17864:17868   */\n      0x22\n        /* \"#utility.yul\":17861:17862   */\n      0x04\n        /* \"#utility.yul\":17854:17869   */\n      mstore\n        /* \"#utility.yul\":17888:17892   */\n      0x24\n        /* \"#utility.yul\":17885:17886   */\n      0x00\n        /* \"#utility.yul\":17878:17893   */\n      revert\n        /* \"#utility.yul\":17905:18085   */\n    tag_373:\n        /* \"#utility.yul\":17953:18030   */\n      0x4e487b7100000000000000000000000000000000000000000000000000000000\n        /* \"#utility.yul\":17950:17951   */\n      0x00\n        /* \"#utility.yul\":17943:18031   */\n      mstore\n        /* \"#utility.yul\":18050:18054   */\n      0x41\n        /* \"#utility.yul\":18047:18048   */\n      0x04\n        /* \"#utility.yul\":18040:18055   */\n      mstore\n        /* \"#utility.yul\":18074:18078   */\n      0x24\n        /* \"#utility.yul\":18071:18072   */\n      0x00\n        /* \"#utility.yul\":18064:18079   */\n      revert\n        /* \"#utility.yul\":18091:18208   */\n    tag_222:\n        /* \"#utility.yul\":18200:18201   */\n      0x00\n        /* \"#utility.yul\":18197:18198   */\n      dup1\n        /* \"#utility.yul\":18190:18202   */\n      revert\n        /* \"#utility.yul\":18214:18331   */\n    tag_195:\n        /* \"#utility.yul\":18323:18324   */\n      0x00\n        /* \"#utility.yul\":18320:18321   */\n      dup1\n        /* \"#utility.yul\":18313:18325   */\n      revert\n        /* \"#utility.yul\":18337:18454   */\n    tag_257:\n        /* \"#utility.yul\":18446:18447   */\n      0x00\n        /* \"#utility.yul\":18443:18444   */\n      dup1\n        /* \"#utility.yul\":18436:18448   */\n      revert\n        /* \"#utility.yul\":18460:18577   */\n    tag_236:\n        /* \"#utility.yul\":18569:18570   */\n      0x00\n        /* \"#utility.yul\":18566:18567   */\n      dup1\n        /* \"#utility.yul\":18559:18571   */\n      revert\n        /* \"#utility.yul\":18583:18685   */\n    tag_302:\n        /* \"#utility.yul\":18624:18630   */\n      0x00\n        /* \"#utility.yul\":18675:18677   */\n      0x1f\n        /* \"#utility.yul\":18671:18678   */\n      not\n        /* \"#utility.yul\":18666:18668   */\n      0x1f\n        /* \"#utility.yul\":18659:18664   */\n      dup4\n        /* \"#utility.yul\":18655:18669   */\n      add\n        /* \"#utility.yul\":18651:18679   */\n      and\n        /* \"#utility.yul\":18641:18679   */\n      swap1\n      pop\n        /* \"#utility.yul\":18583:18685   */\n      swap2\n      swap1\n      pop\n      jump\t// out\n        /* \"#utility.yul\":18691:18856   */\n    tag_307:\n        /* \"#utility.yul\":18831:18848   */\n      0x696e76616c696420746f6b656e49640000000000000000000000000000000000\n        /* \"#utility.yul\":18827:18828   */\n      0x00\n        /* \"#utility.yul\":18819:18825   */\n      dup3\n        /* \"#utility.yul\":18815:18829   */\n      add\n        /* \"#utility.yul\":18808:18849   */\n      mstore\n        /* \"#utility.yul\":18691:18856   */\n      pop\n      jump\t// out\n        /* \"#utility.yul\":18862:19030   */\n    tag_312:\n        /* \"#utility.yul\":19002:19022   */\n      0x696e76616c696420544f20616464726573730000000000000000000000000000\n        /* \"#utility.yul\":18998:18999   */\n      0x00\n        /* \"#utility.yul\":18990:18996   */\n      dup3\n        /* \"#utility.yul\":18986:19000   */\n      add\n        /* \"#utility.yul\":18979:19023   */\n      mstore\n        /* \"#utility.yul\":18862:19030   */\n      pop\n      jump\t// out\n        /* \"#utility.yul\":19036:19194   */\n    tag_317:\n        /* \"#utility.yul\":19176:19186   */\n      0x6e6f742041757468000000000000000000000000000000000000000000000000\n        /* \"#utility.yul\":19172:19173   */\n      0x00\n        /* \"#utility.yul\":19164:19170   */\n      dup3\n        /* \"#utility.yul\":19160:19174   */\n      add\n        /* \"#utility.yul\":19153:19187   */\n      mstore\n        /* \"#utility.yul\":19036:19194   */\n      pop\n      jump\t// out\n        /* \"#utility.yul\":19200:19360   */\n    tag_322:\n        /* \"#utility.yul\":19340:19352   */\n      0x6e6f74206d696e74656400000000000000000000000000000000000000000000\n        /* \"#utility.yul\":19336:19337   */\n      0x00\n        /* \"#utility.yul\":19328:19334   */\n      dup3\n        /* \"#utility.yul\":19324:19338   */\n      add\n        /* \"#utility.yul\":19317:19353   */\n      mstore\n        /* \"#utility.yul\":19200:19360   */\n      pop\n      jump\t// out\n        /* \"#utility.yul\":19366:19532   */\n    tag_327:\n        /* \"#utility.yul\":19506:19524   */\n      0x696e76616c6964206f70657261746f7200000000000000000000000000000000\n        /* \"#utility.yul\":19502:19503   */\n      0x00\n        /* \"#utility.yul\":19494:19500   */\n      dup3\n        /* \"#utility.yul\":19490:19504   */\n      add\n        /* \"#utility.yul\":19483:19525   */\n      mstore\n        /* \"#utility.yul\":19366:19532   */\n      pop\n      jump\t// out\n        /* \"#utility.yul\":19538:19702   */\n    tag_332:\n        /* \"#utility.yul\":19678:19694   */\n      0x616c7265616479206d696e746564000000000000000000000000000000000000\n        /* \"#utility.yul\":19674:19675   */\n      0x00\n        /* \"#utility.yul\":19666:19672   */\n      dup3\n        /* \"#utility.yul\":19662:19676   */\n      add\n        /* \"#utility.yul\":19655:19695   */\n      mstore\n        /* \"#utility.yul\":19538:19702   */\n      pop\n      jump\t// out\n        /* \"#utility.yul\":19708:19882   */\n    tag_337:\n        /* \"#utility.yul\":19848:19874   */\n      0x796f752063616e207472616e66657220796f757273656c660000000000000000\n        /* \"#utility.yul\":19844:19845   */\n      0x00\n        /* \"#utility.yul\":19836:19842   */\n      dup3\n        /* \"#utility.yul\":19832:19846   */\n      add\n        /* \"#utility.yul\":19825:19875   */\n      mstore\n        /* \"#utility.yul\":19708:19882   */\n      pop\n      jump\t// out\n        /* \"#utility.yul\":19888:20010   */\n    tag_209:\n        /* \"#utility.yul\":19961:19985   */\n      tag_431\n        /* \"#utility.yul\":19979:19984   */\n      dup2\n        /* \"#utility.yul\":19961:19985   */\n      tag_288\n      jump\t// in\n    tag_431:\n        /* \"#utility.yul\":19954:19959   */\n      dup2\n        /* \"#utility.yul\":19951:19986   */\n      eq\n        /* \"#utility.yul\":19941:20004   */\n      tag_432\n      jumpi\n        /* \"#utility.yul\":20000:20001   */\n      0x00\n        /* \"#utility.yul\":19997:19998   */\n      dup1\n        /* \"#utility.yul\":19990:20002   */\n      revert\n        /* \"#utility.yul\":19941:20004   */\n    tag_432:\n        /* \"#utility.yul\":19888:20010   */\n      pop\n      jump\t// out\n        /* \"#utility.yul\":20016:20132   */\n    tag_213:\n        /* \"#utility.yul\":20086:20107   */\n      tag_434\n        /* \"#utility.yul\":20101:20106   */\n      dup2\n        /* \"#utility.yul\":20086:20107   */\n      tag_292\n      jump\t// in\n    tag_434:\n        /* \"#utility.yul\":20079:20084   */\n      dup2\n        /* \"#utility.yul\":20076:20108   */\n      eq\n        /* \"#utility.yul\":20066:20126   */\n      tag_435\n      jumpi\n        /* \"#utility.yul\":20122:20123   */\n      0x00\n        /* \"#utility.yul\":20119:20120   */\n      dup1\n        /* \"#utility.yul\":20112:20124   */\n      revert\n        /* \"#utility.yul\":20066:20126   */\n    tag_435:\n        /* \"#utility.yul\":20016:20132   */\n      pop\n      jump\t// out\n        /* \"#utility.yul\":20138:20258   */\n    tag_217:\n        /* \"#utility.yul\":20210:20233   */\n      tag_437\n        /* \"#utility.yul\":20227:20232   */\n      dup2\n        /* \"#utility.yul\":20210:20233   */\n      tag_396\n      jump\t// in\n    tag_437:\n        /* \"#utility.yul\":20203:20208   */\n      dup2\n        /* \"#utility.yul\":20200:20234   */\n      eq\n        /* \"#utility.yul\":20190:20252   */\n      tag_438\n      jumpi\n        /* \"#utility.yul\":20248:20249   */\n      0x00\n        /* \"#utility.yul\":20245:20246   */\n      dup1\n        /* \"#utility.yul\":20238:20250   */\n      revert\n        /* \"#utility.yul\":20190:20252   */\n    tag_438:\n        /* \"#utility.yul\":20138:20258   */\n      pop\n      jump\t// out\n        /* \"#utility.yul\":20264:20386   */\n    tag_232:\n        /* \"#utility.yul\":20337:20361   */\n      tag_440\n        /* \"#utility.yul\":20355:20360   */\n      dup2\n        /* \"#utility.yul\":20337:20361   */\n      tag_341\n      jump\t// in\n    tag_440:\n        /* \"#utility.yul\":20330:20335   */\n      dup2\n        /* \"#utility.yul\":20327:20362   */\n      eq\n        /* \"#utility.yul\":20317:20380   */\n      tag_441\n      jumpi\n        /* \"#utility.yul\":20376:20377   */\n      0x00\n        /* \"#utility.yul\":20373:20374   */\n      dup1\n        /* \"#utility.yul\":20366:20378   */\n      revert\n        /* \"#utility.yul\":20317:20380   */\n    tag_441:\n        /* \"#utility.yul\":20264:20386   */\n      pop\n      jump\t// out\n\n    auxdata: 0xa264697066735822122035c519630a4f2ecf4b79ba60f889728b970a4883aae076f35aab01e3187d769264736f6c63430008070033\n}\n",
				"bytecode": {
					"linkReferences": {},
					"object": "60806040526040518060400160405280600681526020017f6d696e696f6e00000000000000000000000000000000000000000000000000008152506000908051906020019062000051929190620000b4565b506040518060400160405280600381526020017f4d494e0000000000000000000000000000000000000000000000000000000000815250600190805190602001906200009f929190620000b4565b50348015620000ad57600080fd5b50620001c9565b828054620000c29062000164565b90600052602060002090601f016020900481019282620000e6576000855562000132565b82601f106200010157805160ff191683800117855562000132565b8280016001018555821562000132579182015b828111156200013157825182559160200191906001019062000114565b5b50905062000141919062000145565b5090565b5b808211156200016057600081600090555060010162000146565b5090565b600060028204905060018216806200017d57607f821691505b602082108114156200019457620001936200019a565b5b50919050565b7f4e487b7100000000000000000000000000000000000000000000000000000000600052602260045260246000fd5b611d4480620001d96000396000f3fe6080604052600436106100f35760003560e01c806370a082311161008a578063b88d4fde11610059578063b88d4fde14610315578063c87b56dd14610331578063d3fc98641461036e578063e985e9c514610397576100f3565b806370a08231146102595780637b61c3201461029657806395d89b41146102c1578063a22cb465146102ec576100f3565b806323b872dd116100c657806323b872dd146101b957806342842e0e146101d55780636352211e146101f15780636c02a9311461022e576100f3565b806301ffc9a7146100f857806306fdde0314610135578063081812fc14610160578063095ea7b31461019d575b600080fd5b34801561010457600080fd5b5061011f600480360381019061011a9190611593565b6103d4565b60405161012c9190611763565b60405180910390f35b34801561014157600080fd5b5061014a61052d565b604051610157919061177e565b60405180910390f35b34801561016c57600080fd5b50610187600480360381019061018291906115c0565b6105bf565b6040516101949190611748565b60405180910390f35b6101b760048036038101906101b291906114e4565b6105fc565b005b6101d360048036038101906101ce91906113ce565b610756565b005b6101ef60048036038101906101ea91906113ce565b610766565b005b3480156101fd57600080fd5b50610218600480360381019061021391906115c0565b610abc565b6040516102259190611748565b60405180910390f35b34801561023a57600080fd5b50610243610af9565b604051610250919061177e565b60405180910390f35b34801561026557600080fd5b50610280600480360381019061027b9190611361565b610b87565b60405161028d9190611880565b60405180910390f35b3480156102a257600080fd5b506102ab610bd0565b6040516102b8919061177e565b60405180910390f35b3480156102cd57600080fd5b506102d6610c5e565b6040516102e3919061177e565b60405180910390f35b3480156102f857600080fd5b50610313600480360381019061030e91906114a4565b610cf0565b005b61032f600480360381019061032a9190611421565b610e5c565b005b34801561033d57600080fd5b50610358600480360381019061035391906115c0565b610e7d565b604051610365919061177e565b60405180910390f35b34801561037a57600080fd5b5061039560048036038101906103909190611524565b610f22565b005b3480156103a357600080fd5b506103be60048036038101906103b9919061138e565b6110f6565b6040516103cb9190611763565b60405180910390f35b60007f01ffc9a7000000000000000000000000000000000000000000000000000000007bffffffffffffffffffffffffffffffffffffffffffffffffffffffff1916827bffffffffffffffffffffffffffffffffffffffffffffffffffffffff191614156104455760019050610528565b7f80ac58cd000000000000000000000000000000000000000000000000000000007bffffffffffffffffffffffffffffffffffffffffffffffffffffffff1916827bffffffffffffffffffffffffffffffffffffffffffffffffffffffff191614156104b45760019050610528565b7f5b5e139f000000000000000000000000000000000000000000000000000000007bffffffffffffffffffffffffffffffffffffffffffffffffffffffff1916827bffffffffffffffffffffffffffffffffffffffffffffffffffffffff191614156105235760019050610528565b600090505b919050565b60606000805461053c90611a7e565b80601f016020809104026020016040519081016040528092919081815260200182805461056890611a7e565b80156105b55780601f1061058a576101008083540402835291602001916105b5565b820191906000526020600020905b81548152906001019060200180831161059857829003601f168201915b5050505050905090565b60006005600083815260200190815260200160002060009054906101000a900473ffffffffffffffffffffffffffffffffffffffff169050919050565b60006004600083815260200190815260200160002060009054906101000a900473ffffffffffffffffffffffffffffffffffffffff169050600073ffffffffffffffffffffffffffffffffffffffff168173ffffffffffffffffffffffffffffffffffffffff1614156106a4576040517f08c379a000000000000000000000000000000000000000000000000000000000815260040161069b90611800565b60405180910390fd5b826005600084815260200190815260200160002060006101000a81548173ffffffffffffffffffffffffffffffffffffffff021916908373ffffffffffffffffffffffffffffffffffffffff160217905550818373ffffffffffffffffffffffffffffffffffffffff168273ffffffffffffffffffffffffffffffffffffffff167f8c5be1e5ebec7d5bd14f71427d1e84f3dd0314c0f7b2291e5b200ac8c7c3b92560405160405180910390a4505050565b610761838383610766565b505050565b600073ffffffffffffffffffffffffffffffffffffffff168273ffffffffffffffffffffffffffffffffffffffff1614156107d6576040517f08c379a00000000000000000000000000000000000000000000000000000000081526004016107cd906117c0565b60405180910390fd5b60006004600083815260200190815260200160002060009054906101000a900473ffffffffffffffffffffffffffffffffffffffff169050600073ffffffffffffffffffffffffffffffffffffffff168173ffffffffffffffffffffffffffffffffffffffff16141561087e576040517f08c379a0000000000000000000000000000000000000000000000000000000008152600401610875906117a0565b60405180910390fd5b8373ffffffffffffffffffffffffffffffffffffffff168173ffffffffffffffffffffffffffffffffffffffff16146108ec576040517f08c379a00000000000000000000000000000000000000000000000000000000081526004016108e3906117e0565b60405180910390fd5b8273ffffffffffffffffffffffffffffffffffffffff168473ffffffffffffffffffffffffffffffffffffffff16141561095b576040517f08c379a000000000000000000000000000000000000000000000000000000000815260040161095290611860565b60405180910390fd5b826004600084815260200190815260200160002060006101000a81548173ffffffffffffffffffffffffffffffffffffffff021916908373ffffffffffffffffffffffffffffffffffffffff1602179055506001600360008673ffffffffffffffffffffffffffffffffffffffff1673ffffffffffffffffffffffffffffffffffffffff16815260200190815260200160002060008282546109fd9190611994565b925050819055506001600360008573ffffffffffffffffffffffffffffffffffffffff1673ffffffffffffffffffffffffffffffffffffffff1681526020019081526020016000206000828254610a54919061193e565b92505081905550818373ffffffffffffffffffffffffffffffffffffffff168573ffffffffffffffffffffffffffffffffffffffff167fddf252ad1be2c89b69c2b068fc378daa952ba7f163c4a11628f55a4df523b3ef60405160405180910390a450505050565b60006004600083815260200190815260200160002060009054906101000a900473ffffffffffffffffffffffffffffffffffffffff169050919050565b60008054610b0690611a7e565b80601f0160208091040260200160405190810160405280929190818152602001828054610b3290611a7e565b8015610b7f5780601f10610b5457610100808354040283529160200191610b7f565b820191906000526020600020905b815481529060010190602001808311610b6257829003601f168201915b505050505081565b6000600360008373ffffffffffffffffffffffffffffffffffffffff1673ffffffffffffffffffffffffffffffffffffffff168152602001908152602001600020549050919050565b60018054610bdd90611a7e565b80601f0160208091040260200160405190810160405280929190818152602001828054610c0990611a7e565b8015610c565780601f10610c2b57610100808354040283529160200191610c56565b820191906000526020600020905b815481529060010190602001808311610c3957829003601f168201915b505050505081565b606060018054610c6d90611a7e565b80601f0160208091040260200160405190810160405280929190818152602001828054610c9990611a7e565b8015610ce65780601f10610cbb57610100808354040283529160200191610ce6565b820191906000526020600020905b815481529060010190602001808311610cc957829003601f168201915b5050505050905090565b8173ffffffffffffffffffffffffffffffffffffffff163373ffffffffffffffffffffffffffffffffffffffff161415610d5f576040517f08c379a0000000000000000000000000000000000000000000000000000000008152600401610d5690611820565b60405180910390fd5b80600660003373ffffffffffffffffffffffffffffffffffffffff1673ffffffffffffffffffffffffffffffffffffffff16815260200190815260200160002060008473ffffffffffffffffffffffffffffffffffffffff1673ffffffffffffffffffffffffffffffffffffffff16815260200190815260200160002060006101000a81548160ff0219169083151502179055508173ffffffffffffffffffffffffffffffffffffffff163373ffffffffffffffffffffffffffffffffffffffff167f17307eab39ab6107e8899845ad3d59bd9653f200f220920489ca2b5937696c3183604051610e509190611763565b60405180910390a35050565b610e7784848460405180602001604052806000815250610e5c565b50505050565b6060600260008381526020019081526020016000208054610e9d90611a7e565b80601f0160208091040260200160405190810160405280929190818152602001828054610ec990611a7e565b8015610f165780601f10610eeb57610100808354040283529160200191610f16565b820191906000526020600020905b815481529060010190602001808311610ef957829003601f168201915b50505050509050919050565b600073ffffffffffffffffffffffffffffffffffffffff166004600084815260200190815260200160002060009054906101000a900473ffffffffffffffffffffffffffffffffffffffff1673ffffffffffffffffffffffffffffffffffffffff1614610fc4576040517f08c379a0000000000000000000000000000000000000000000000000000000008152600401610fbb90611840565b60405180910390fd5b826004600084815260200190815260200160002060006101000a81548173ffffffffffffffffffffffffffffffffffffffff021916908373ffffffffffffffffffffffffffffffffffffffff1602179055506001600360008573ffffffffffffffffffffffffffffffffffffffff1673ffffffffffffffffffffffffffffffffffffffff1681526020019081526020016000206000828254611066919061193e565b925050819055508060026000848152602001908152602001600020908051906020019061109492919061118a565b50818373ffffffffffffffffffffffffffffffffffffffff16600073ffffffffffffffffffffffffffffffffffffffff167fddf252ad1be2c89b69c2b068fc378daa952ba7f163c4a11628f55a4df523b3ef60405160405180910390a4505050565b6000600660008473ffffffffffffffffffffffffffffffffffffffff1673ffffffffffffffffffffffffffffffffffffffff16815260200190815260200160002060008373ffffffffffffffffffffffffffffffffffffffff1673ffffffffffffffffffffffffffffffffffffffff16815260200190815260200160002060009054906101000a900460ff16905092915050565b82805461119690611a7e565b90600052602060002090601f0160209004810192826111b857600085556111ff565b82601f106111d157805160ff19168380011785556111ff565b828001600101855582156111ff579182015b828111156111fe5782518255916020019190600101906111e3565b5b50905061120c9190611210565b5090565b5b80821115611229576000816000905550600101611211565b5090565b600061124061123b846118c0565b61189b565b90508281526020810184848401111561125c5761125b611b73565b5b611267848285611a3c565b509392505050565b600061128261127d846118f1565b61189b565b90508281526020810184848401111561129e5761129d611b73565b5b6112a9848285611a3c565b509392505050565b6000813590506112c081611cb2565b92915050565b6000813590506112d581611cc9565b92915050565b6000813590506112ea81611ce0565b92915050565b600082601f83011261130557611304611b6e565b5b813561131584826020860161122d565b91505092915050565b600082601f83011261133357611332611b6e565b5b813561134384826020860161126f565b91505092915050565b60008135905061135b81611cf7565b92915050565b60006020828403121561137757611376611b7d565b5b6000611385848285016112b1565b91505092915050565b600080604083850312156113a5576113a4611b7d565b5b60006113b3858286016112b1565b92505060206113c4858286016112b1565b9150509250929050565b6000806000606084860312156113e7576113e6611b7d565b5b60006113f5868287016112b1565b9350506020611406868287016112b1565b92505060406114178682870161134c565b9150509250925092565b6000806000806080858703121561143b5761143a611b7d565b5b6000611449878288016112b1565b945050602061145a878288016112b1565b935050604061146b8782880161134c565b925050606085013567ffffffffffffffff81111561148c5761148b611b78565b5b611498878288016112f0565b91505092959194509250565b600080604083850312156114bb576114ba611b7d565b5b60006114c9858286016112b1565b92505060206114da858286016112c6565b9150509250929050565b600080604083850312156114fb576114fa611b7d565b5b6000611509858286016112b1565b925050602061151a8582860161134c565b9150509250929050565b60008060006060848603121561153d5761153c611b7d565b5b600061154b868287016112b1565b935050602061155c8682870161134c565b925050604084013567ffffffffffffffff81111561157d5761157c611b78565b5b6115898682870161131e565b9150509250925092565b6000602082840312156115a9576115a8611b7d565b5b60006115b7848285016112db565b91505092915050565b6000602082840312156115d6576115d5611b7d565b5b60006115e48482850161134c565b91505092915050565b6115f6816119c8565b82525050565b611605816119da565b82525050565b600061161682611922565b611620818561192d565b9350611630818560208601611a4b565b61163981611b82565b840191505092915050565b6000611651600f8361192d565b915061165c82611b93565b602082019050919050565b600061167460128361192d565b915061167f82611bbc565b602082019050919050565b600061169760088361192d565b91506116a282611be5565b602082019050919050565b60006116ba600a8361192d565b91506116c582611c0e565b602082019050919050565b60006116dd60108361192d565b91506116e882611c37565b602082019050919050565b6000611700600e8361192d565b915061170b82611c60565b602082019050919050565b600061172360188361192d565b915061172e82611c89565b602082019050919050565b61174281611a32565b82525050565b600060208201905061175d60008301846115ed565b92915050565b600060208201905061177860008301846115fc565b92915050565b60006020820190508181036000830152611798818461160b565b905092915050565b600060208201905081810360008301526117b981611644565b9050919050565b600060208201905081810360008301526117d981611667565b9050919050565b600060208201905081810360008301526117f98161168a565b9050919050565b60006020820190508181036000830152611819816116ad565b9050919050565b60006020820190508181036000830152611839816116d0565b9050919050565b60006020820190508181036000830152611859816116f3565b9050919050565b6000602082019050818103600083015261187981611716565b9050919050565b60006020820190506118956000830184611739565b92915050565b60006118a56118b6565b90506118b18282611ab0565b919050565b6000604051905090565b600067ffffffffffffffff8211156118db576118da611b3f565b5b6118e482611b82565b9050602081019050919050565b600067ffffffffffffffff82111561190c5761190b611b3f565b5b61191582611b82565b9050602081019050919050565b600081519050919050565b600082825260208201905092915050565b600061194982611a32565b915061195483611a32565b9250827fffffffffffffffffffffffffffffffffffffffffffffffffffffffffffffffff0382111561198957611988611ae1565b5b828201905092915050565b600061199f82611a32565b91506119aa83611a32565b9250828210156119bd576119bc611ae1565b5b828203905092915050565b60006119d382611a12565b9050919050565b60008115159050919050565b60007fffffffff0000000000000000000000000000000000000000000000000000000082169050919050565b600073ffffffffffffffffffffffffffffffffffffffff82169050919050565b6000819050919050565b82818337600083830152505050565b60005b83811015611a69578082015181840152602081019050611a4e565b83811115611a78576000848401525b50505050565b60006002820490506001821680611a9657607f821691505b60208210811415611aaa57611aa9611b10565b5b50919050565b611ab982611b82565b810181811067ffffffffffffffff82111715611ad857611ad7611b3f565b5b80604052505050565b7f4e487b7100000000000000000000000000000000000000000000000000000000600052601160045260246000fd5b7f4e487b7100000000000000000000000000000000000000000000000000000000600052602260045260246000fd5b7f4e487b7100000000000000000000000000000000000000000000000000000000600052604160045260246000fd5b600080fd5b600080fd5b600080fd5b600080fd5b6000601f19601f8301169050919050565b7f696e76616c696420746f6b656e49640000000000000000000000000000000000600082015250565b7f696e76616c696420544f20616464726573730000000000000000000000000000600082015250565b7f6e6f742041757468000000000000000000000000000000000000000000000000600082015250565b7f6e6f74206d696e74656400000000000000000000000000000000000000000000600082015250565b7f696e76616c6964206f70657261746f7200000000000000000000000000000000600082015250565b7f616c7265616479206d696e746564000000000000000000000000000000000000600082015250565b7f796f752063616e207472616e66657220796f757273656c660000000000000000600082015250565b611cbb816119c8565b8114611cc657600080fd5b50565b611cd2816119da565b8114611cdd57600080fd5b50565b611ce9816119e6565b8114611cf457600080fd5b50565b611d0081611a32565b8114611d0b57600080fd5b5056fea264697066735822122035c519630a4f2ecf4b79ba60f889728b970a4883aae076f35aab01e3187d769264736f6c63430008070033",
					"opcodes": "PUSH1 0x80 PUSH1 0x40 MSTORE PUSH1 0x40 MLOAD DUP1 PUSH1 0x40 ADD PUSH1 0x40 MSTORE DUP1 PUSH1 0x6 DUP2 MSTORE PUSH1 0x20 ADD PUSH32 0x6D696E696F6E0000000000000000000000000000000000000000000000000000 DUP2 MSTORE POP PUSH1 0x0 SWAP1 DUP1 MLOAD SWAP1 PUSH1 0x20 ADD SWAP1 PUSH3 0x51 SWAP3 SWAP2 SWAP1 PUSH3 0xB4 JUMP JUMPDEST POP PUSH1 0x40 MLOAD DUP1 PUSH1 0x40 ADD PUSH1 0x40 MSTORE DUP1 PUSH1 0x3 DUP2 MSTORE PUSH1 0x20 ADD PUSH32 0x4D494E0000000000000000000000000000000000000000000000000000000000 DUP2 MSTORE POP PUSH1 0x1 SWAP1 DUP1 MLOAD SWAP1 PUSH1 0x20 ADD SWAP1 PUSH3 0x9F SWAP3 SWAP2 SWAP1 PUSH3 0xB4 JUMP JUMPDEST POP CALLVALUE DUP1 ISZERO PUSH3 0xAD JUMPI PUSH1 0x0 DUP1 REVERT JUMPDEST POP PUSH3 0x1C9 JUMP JUMPDEST DUP3 DUP1 SLOAD PUSH3 0xC2 SWAP1 PUSH3 0x164 JUMP JUMPDEST SWAP1 PUSH1 0x0 MSTORE PUSH1 0x20 PUSH1 0x0 KECCAK256 SWAP1 PUSH1 0x1F ADD PUSH1 0x20 SWAP1 DIV DUP2 ADD SWAP3 DUP3 PUSH3 0xE6 JUMPI PUSH1 0x0 DUP6 SSTORE PUSH3 0x132 JUMP JUMPDEST DUP3 PUSH1 0x1F LT PUSH3 0x101 JUMPI DUP1 MLOAD PUSH1 0xFF NOT AND DUP4 DUP1 ADD OR DUP6 SSTORE PUSH3 0x132 JUMP JUMPDEST DUP3 DUP1 ADD PUSH1 0x1 ADD DUP6 SSTORE DUP3 ISZERO PUSH3 0x132 JUMPI SWAP2 DUP3 ADD JUMPDEST DUP3 DUP2 GT ISZERO PUSH3 0x131 JUMPI DUP3 MLOAD DUP3 SSTORE SWAP2 PUSH1 0x20 ADD SWAP2 SWAP1 PUSH1 0x1 ADD SWAP1 PUSH3 0x114 JUMP JUMPDEST JUMPDEST POP SWAP1 POP PUSH3 0x141 SWAP2 SWAP1 PUSH3 0x145 JUMP JUMPDEST POP SWAP1 JUMP JUMPDEST JUMPDEST DUP1 DUP3 GT ISZERO PUSH3 0x160 JUMPI PUSH1 0x0 DUP2 PUSH1 0x0 SWAP1 SSTORE POP PUSH1 0x1 ADD PUSH3 0x146 JUMP JUMPDEST POP SWAP1 JUMP JUMPDEST PUSH1 0x0 PUSH1 0x2 DUP3 DIV SWAP1 POP PUSH1 0x1 DUP3 AND DUP1 PUSH3 0x17D JUMPI PUSH1 0x7F DUP3 AND SWAP2 POP JUMPDEST PUSH1 0x20 DUP3 LT DUP2 EQ ISZERO PUSH3 0x194 JUMPI PUSH3 0x193 PUSH3 0x19A JUMP JUMPDEST JUMPDEST POP SWAP2 SWAP1 POP JUMP JUMPDEST PUSH32 0x4E487B7100000000000000000000000000000000000000000000000000000000 PUSH1 0x0 MSTORE PUSH1 0x22 PUSH1 0x4 MSTORE PUSH1 0x24 PUSH1 0x0 REVERT JUMPDEST PUSH2 0x1D44 DUP1 PUSH3 0x1D9 PUSH1 0x0 CODECOPY PUSH1 0x0 RETURN INVALID PUSH1 0x80 PUSH1 0x40 MSTORE PUSH1 0x4 CALLDATASIZE LT PUSH2 0xF3 JUMPI PUSH1 0x0 CALLDATALOAD PUSH1 0xE0 SHR DUP1 PUSH4 0x70A08231 GT PUSH2 0x8A JUMPI DUP1 PUSH4 0xB88D4FDE GT PUSH2 0x59 JUMPI DUP1 PUSH4 0xB88D4FDE EQ PUSH2 0x315 JUMPI DUP1 PUSH4 0xC87B56DD EQ PUSH2 0x331 JUMPI DUP1 PUSH4 0xD3FC9864 EQ PUSH2 0x36E JUMPI DUP1 PUSH4 0xE985E9C5 EQ PUSH2 0x397 JUMPI PUSH2 0xF3 JUMP JUMPDEST DUP1 PUSH4 0x70A08231 EQ PUSH2 0x259 JUMPI DUP1 PUSH4 0x7B61C320 EQ PUSH2 0x296 JUMPI DUP1 PUSH4 0x95D89B41 EQ PUSH2 0x2C1 JUMPI DUP1 PUSH4 0xA22CB465 EQ PUSH2 0x2EC JUMPI PUSH2 0xF3 JUMP JUMPDEST DUP1 PUSH4 0x23B872DD GT PUSH2 0xC6 JUMPI DUP1 PUSH4 0x23B872DD EQ PUSH2 0x1B9 JUMPI DUP1 PUSH4 0x42842E0E EQ PUSH2 0x1D5 JUMPI DUP1 PUSH4 0x6352211E EQ PUSH2 0x1F1 JUMPI DUP1 PUSH4 0x6C02A931 EQ PUSH2 0x22E JUMPI PUSH2 0xF3 JUMP JUMPDEST DUP1 PUSH4 0x1FFC9A7 EQ PUSH2 0xF8 JUMPI DUP1 PUSH4 0x6FDDE03 EQ PUSH2 0x135 JUMPI DUP1 PUSH4 0x81812FC EQ PUSH2 0x160 JUMPI DUP1 PUSH4 0x95EA7B3 EQ PUSH2 0x19D JUMPI JUMPDEST PUSH1 0x0 DUP1 REVERT JUMPDEST CALLVALUE DUP1 ISZERO PUSH2 0x104 JUMPI PUSH1 0x0 DUP1 REVERT JUMPDEST POP PUSH2 0x11F PUSH1 0x4 DUP1 CALLDATASIZE SUB DUP2 ADD SWAP1 PUSH2 0x11A SWAP2 SWAP1 PUSH2 0x1593 JUMP JUMPDEST PUSH2 0x3D4 JUMP JUMPDEST PUSH1 0x40 MLOAD PUSH2 0x12C SWAP2 SWAP1 PUSH2 0x1763 JUMP JUMPDEST PUSH1 0x40 MLOAD DUP1 SWAP2 SUB SWAP1 RETURN JUMPDEST CALLVALUE DUP1 ISZERO PUSH2 0x141 JUMPI PUSH1 0x0 DUP1 REVERT JUMPDEST POP PUSH2 0x14A PUSH2 0x52D JUMP JUMPDEST PUSH1 0x40 MLOAD PUSH2 0x157 SWAP2 SWAP1 PUSH2 0x177E JUMP JUMPDEST PUSH1 0x40 MLOAD DUP1 SWAP2 SUB SWAP1 RETURN JUMPDEST CALLVALUE DUP1 ISZERO PUSH2 0x16C JUMPI PUSH1 0x0 DUP1 REVERT JUMPDEST POP PUSH2 0x187 PUSH1 0x4 DUP1 CALLDATASIZE SUB DUP2 ADD SWAP1 PUSH2 0x182 SWAP2 SWAP1 PUSH2 0x15C0 JUMP JUMPDEST PUSH2 0x5BF JUMP JUMPDEST PUSH1 0x40 MLOAD PUSH2 0x194 SWAP2 SWAP1 PUSH2 0x1748 JUMP JUMPDEST PUSH1 0x40 MLOAD DUP1 SWAP2 SUB SWAP1 RETURN JUMPDEST PUSH2 0x1B7 PUSH1 0x4 DUP1 CALLDATASIZE SUB DUP2 ADD SWAP1 PUSH2 0x1B2 SWAP2 SWAP1 PUSH2 0x14E4 JUMP JUMPDEST PUSH2 0x5FC JUMP JUMPDEST STOP JUMPDEST PUSH2 0x1D3 PUSH1 0x4 DUP1 CALLDATASIZE SUB DUP2 ADD SWAP1 PUSH2 0x1CE SWAP2 SWAP1 PUSH2 0x13CE JUMP JUMPDEST PUSH2 0x756 JUMP JUMPDEST STOP JUMPDEST PUSH2 0x1EF PUSH1 0x4 DUP1 CALLDATASIZE SUB DUP2 ADD SWAP1 PUSH2 0x1EA SWAP2 SWAP1 PUSH2 0x13CE JUMP JUMPDEST PUSH2 0x766 JUMP JUMPDEST STOP JUMPDEST CALLVALUE DUP1 ISZERO PUSH2 0x1FD JUMPI PUSH1 0x0 DUP1 REVERT JUMPDEST POP PUSH2 0x218 PUSH1 0x4 DUP1 CALLDATASIZE SUB DUP2 ADD SWAP1 PUSH2 0x213 SWAP2 SWAP1 PUSH2 0x15C0 JUMP JUMPDEST PUSH2 0xABC JUMP JUMPDEST PUSH1 0x40 MLOAD PUSH2 0x225 SWAP2 SWAP1 PUSH2 0x1748 JUMP JUMPDEST PUSH1 0x40 MLOAD DUP1 SWAP2 SUB SWAP1 RETURN JUMPDEST CALLVALUE DUP1 ISZERO PUSH2 0x23A JUMPI PUSH1 0x0 DUP1 REVERT JUMPDEST POP PUSH2 0x243 PUSH2 0xAF9 JUMP JUMPDEST PUSH1 0x40 MLOAD PUSH2 0x250 SWAP2 SWAP1 PUSH2 0x177E JUMP JUMPDEST PUSH1 0x40 MLOAD DUP1 SWAP2 SUB SWAP1 RETURN JUMPDEST CALLVALUE DUP1 ISZERO PUSH2 0x265 JUMPI PUSH1 0x0 DUP1 REVERT JUMPDEST POP PUSH2 0x280 PUSH1 0x4 DUP1 CALLDATASIZE SUB DUP2 ADD SWAP1 PUSH2 0x27B SWAP2 SWAP1 PUSH2 0x1361 JUMP JUMPDEST PUSH2 0xB87 JUMP JUMPDEST PUSH1 0x40 MLOAD PUSH2 0x28D SWAP2 SWAP1 PUSH2 0x1880 JUMP JUMPDEST PUSH1 0x40 MLOAD DUP1 SWAP2 SUB SWAP1 RETURN JUMPDEST CALLVALUE DUP1 ISZERO PUSH2 0x2A2 JUMPI PUSH1 0x0 DUP1 REVERT JUMPDEST POP PUSH2 0x2AB PUSH2 0xBD0 JUMP JUMPDEST PUSH1 0x40 MLOAD PUSH2 0x2B8 SWAP2 SWAP1 PUSH2 0x177E JUMP JUMPDEST PUSH1 0x40 MLOAD DUP1 SWAP2 SUB SWAP1 RETURN JUMPDEST CALLVALUE DUP1 ISZERO PUSH2 0x2CD JUMPI PUSH1 0x0 DUP1 REVERT JUMPDEST POP PUSH2 0x2D6 PUSH2 0xC5E JUMP JUMPDEST PUSH1 0x40 MLOAD PUSH2 0x2E3 SWAP2 SWAP1 PUSH2 0x177E JUMP JUMPDEST PUSH1 0x40 MLOAD DUP1 SWAP2 SUB SWAP1 RETURN JUMPDEST CALLVALUE DUP1 ISZERO PUSH2 0x2F8 JUMPI PUSH1 0x0 DUP1 REVERT JUMPDEST POP PUSH2 0x313 PUSH1 0x4 DUP1 CALLDATASIZE SUB DUP2 ADD SWAP1 PUSH2 0x30E SWAP2 SWAP1 PUSH2 0x14A4 JUMP JUMPDEST PUSH2 0xCF0 JUMP JUMPDEST STOP JUMPDEST PUSH2 0x32F PUSH1 0x4 DUP1 CALLDATASIZE SUB DUP2 ADD SWAP1 PUSH2 0x32A SWAP2 SWAP1 PUSH2 0x1421 JUMP JUMPDEST PUSH2 0xE5C JUMP JUMPDEST STOP JUMPDEST CALLVALUE DUP1 ISZERO PUSH2 0x33D JUMPI PUSH1 0x0 DUP1 REVERT JUMPDEST POP PUSH2 0x358 PUSH1 0x4 DUP1 CALLDATASIZE SUB DUP2 ADD SWAP1 PUSH2 0x353 SWAP2 SWAP1 PUSH2 0x15C0 JUMP JUMPDEST PUSH2 0xE7D JUMP JUMPDEST PUSH1 0x40 MLOAD PUSH2 0x365 SWAP2 SWAP1 PUSH2 0x177E JUMP JUMPDEST PUSH1 0x40 MLOAD DUP1 SWAP2 SUB SWAP1 RETURN JUMPDEST CALLVALUE DUP1 ISZERO PUSH2 0x37A JUMPI PUSH1 0x0 DUP1 REVERT JUMPDEST POP PUSH2 0x395 PUSH1 0x4 DUP1 CALLDATASIZE SUB DUP2 ADD SWAP1 PUSH2 0x390 SWAP2 SWAP1 PUSH2 0x1524 JUMP JUMPDEST PUSH2 0xF22 JUMP JUMPDEST STOP JUMPDEST CALLVALUE DUP1 ISZERO PUSH2 0x3A3 JUMPI PUSH1 0x0 DUP1 REVERT JUMPDEST POP PUSH2 0x3BE PUSH1 0x4 DUP1 CALLDATASIZE SUB DUP2 ADD SWAP1 PUSH2 0x3B9 SWAP2 SWAP1 PUSH2 0x138E JUMP JUMPDEST PUSH2 0x10F6 JUMP JUMPDEST PUSH1 0x40 MLOAD PUSH2 0x3CB SWAP2 SWAP1 PUSH2 0x1763 JUMP JUMPDEST PUSH1 0x40 MLOAD DUP1 SWAP2 SUB SWAP1 RETURN JUMPDEST PUSH1 0x0 PUSH32 0x1FFC9A700000000000000000000000000000000000000000000000000000000 PUSH28 0xFFFFFFFFFFFFFFFFFFFFFFFFFFFFFFFFFFFFFFFFFFFFFFFFFFFFFFFF NOT AND DUP3 PUSH28 0xFFFFFFFFFFFFFFFFFFFFFFFFFFFFFFFFFFFFFFFFFFFFFFFFFFFFFFFF NOT AND EQ ISZERO PUSH2 0x445 JUMPI PUSH1 0x1 SWAP1 POP PUSH2 0x528 JUMP JUMPDEST PUSH32 0x80AC58CD00000000000000000000000000000000000000000000000000000000 PUSH28 0xFFFFFFFFFFFFFFFFFFFFFFFFFFFFFFFFFFFFFFFFFFFFFFFFFFFFFFFF NOT AND DUP3 PUSH28 0xFFFFFFFFFFFFFFFFFFFFFFFFFFFFFFFFFFFFFFFFFFFFFFFFFFFFFFFF NOT AND EQ ISZERO PUSH2 0x4B4 JUMPI PUSH1 0x1 SWAP1 POP PUSH2 0x528 JUMP JUMPDEST PUSH32 0x5B5E139F00000000000000000000000000000000000000000000000000000000 PUSH28 0xFFFFFFFFFFFFFFFFFFFFFFFFFFFFFFFFFFFFFFFFFFFFFFFFFFFFFFFF NOT AND DUP3 PUSH28 0xFFFFFFFFFFFFFFFFFFFFFFFFFFFFFFFFFFFFFFFFFFFFFFFFFFFFFFFF NOT AND EQ ISZERO PUSH2 0x523 JUMPI PUSH1 0x1 SWAP1 POP PUSH2 0x528 JUMP JUMPDEST PUSH1 0x0 SWAP1 POP JUMPDEST SWAP2 SWAP1 POP JUMP JUMPDEST PUSH1 0x60 PUSH1 0x0 DUP1 SLOAD PUSH2 0x53C SWAP1 PUSH2 0x1A7E JUMP JUMPDEST DUP1 PUSH1 0x1F ADD PUSH1 0x20 DUP1 SWAP2 DIV MUL PUSH1 0x20 ADD PUSH1 0x40 MLOAD SWAP1 DUP2 ADD PUSH1 0x40 MSTORE DUP1 SWAP3 SWAP2 SWAP1 DUP2 DUP2 MSTORE PUSH1 0x20 ADD DUP3 DUP1 SLOAD PUSH2 0x568 SWAP1 PUSH2 0x1A7E JUMP JUMPDEST DUP1 ISZERO PUSH2 0x5B5 JUMPI DUP1 PUSH1 0x1F LT PUSH2 0x58A JUMPI PUSH2 0x100 DUP1 DUP4 SLOAD DIV MUL DUP4 MSTORE SWAP2 PUSH1 0x20 ADD SWAP2 PUSH2 0x5B5 JUMP JUMPDEST DUP3 ADD SWAP2 SWAP1 PUSH1 0x0 MSTORE PUSH1 0x20 PUSH1 0x0 KECCAK256 SWAP1 JUMPDEST DUP2 SLOAD DUP2 MSTORE SWAP1 PUSH1 0x1 ADD SWAP1 PUSH1 0x20 ADD DUP1 DUP4 GT PUSH2 0x598 JUMPI DUP3 SWAP1 SUB PUSH1 0x1F AND DUP3 ADD SWAP2 JUMPDEST POP POP POP POP POP SWAP1 POP SWAP1 JUMP JUMPDEST PUSH1 0x0 PUSH1 0x5 PUSH1 0x0 DUP4 DUP2 MSTORE PUSH1 0x20 ADD SWAP1 DUP2 MSTORE PUSH1 0x20 ADD PUSH1 0x0 KECCAK256 PUSH1 0x0 SWAP1 SLOAD SWAP1 PUSH2 0x100 EXP SWAP1 DIV PUSH20 0xFFFFFFFFFFFFFFFFFFFFFFFFFFFFFFFFFFFFFFFF AND SWAP1 POP SWAP2 SWAP1 POP JUMP JUMPDEST PUSH1 0x0 PUSH1 0x4 PUSH1 0x0 DUP4 DUP2 MSTORE PUSH1 0x20 ADD SWAP1 DUP2 MSTORE PUSH1 0x20 ADD PUSH1 0x0 KECCAK256 PUSH1 0x0 SWAP1 SLOAD SWAP1 PUSH2 0x100 EXP SWAP1 DIV PUSH20 0xFFFFFFFFFFFFFFFFFFFFFFFFFFFFFFFFFFFFFFFF AND SWAP1 POP PUSH1 0x0 PUSH20 0xFFFFFFFFFFFFFFFFFFFFFFFFFFFFFFFFFFFFFFFF AND DUP2 PUSH20 0xFFFFFFFFFFFFFFFFFFFFFFFFFFFFFFFFFFFFFFFF AND EQ ISZERO PUSH2 0x6A4 JUMPI PUSH1 0x40 MLOAD PUSH32 0x8C379A000000000000000000000000000000000000000000000000000000000 DUP2 MSTORE PUSH1 0x4 ADD PUSH2 0x69B SWAP1 PUSH2 0x1800 JUMP JUMPDEST PUSH1 0x40 MLOAD DUP1 SWAP2 SUB SWAP1 REVERT JUMPDEST DUP3 PUSH1 0x5 PUSH1 0x0 DUP5 DUP2 MSTORE PUSH1 0x20 ADD SWAP1 DUP2 MSTORE PUSH1 0x20 ADD PUSH1 0x0 KECCAK256 PUSH1 0x0 PUSH2 0x100 EXP DUP2 SLOAD DUP2 PUSH20 0xFFFFFFFFFFFFFFFFFFFFFFFFFFFFFFFFFFFFFFFF MUL NOT AND SWAP1 DUP4 PUSH20 0xFFFFFFFFFFFFFFFFFFFFFFFFFFFFFFFFFFFFFFFF AND MUL OR SWAP1 SSTORE POP DUP2 DUP4 PUSH20 0xFFFFFFFFFFFFFFFFFFFFFFFFFFFFFFFFFFFFFFFF AND DUP3 PUSH20 0xFFFFFFFFFFFFFFFFFFFFFFFFFFFFFFFFFFFFFFFF AND PUSH32 0x8C5BE1E5EBEC7D5BD14F71427D1E84F3DD0314C0F7B2291E5B200AC8C7C3B925 PUSH1 0x40 MLOAD PUSH1 0x40 MLOAD DUP1 SWAP2 SUB SWAP1 LOG4 POP POP POP JUMP JUMPDEST PUSH2 0x761 DUP4 DUP4 DUP4 PUSH2 0x766 JUMP JUMPDEST POP POP POP JUMP JUMPDEST PUSH1 0x0 PUSH20 0xFFFFFFFFFFFFFFFFFFFFFFFFFFFFFFFFFFFFFFFF AND DUP3 PUSH20 0xFFFFFFFFFFFFFFFFFFFFFFFFFFFFFFFFFFFFFFFF AND EQ ISZERO PUSH2 0x7D6 JUMPI PUSH1 0x40 MLOAD PUSH32 0x8C379A000000000000000000000000000000000000000000000000000000000 DUP2 MSTORE PUSH1 0x4 ADD PUSH2 0x7CD SWAP1 PUSH2 0x17C0 JUMP JUMPDEST PUSH1 0x40 MLOAD DUP1 SWAP2 SUB SWAP1 REVERT JUMPDEST PUSH1 0x0 PUSH1 0x4 PUSH1 0x0 DUP4 DUP2 MSTORE PUSH1 0x20 ADD SWAP1 DUP2 MSTORE PUSH1 0x20 ADD PUSH1 0x0 KECCAK256 PUSH1 0x0 SWAP1 SLOAD SWAP1 PUSH2 0x100 EXP SWAP1 DIV PUSH20 0xFFFFFFFFFFFFFFFFFFFFFFFFFFFFFFFFFFFFFFFF AND SWAP1 POP PUSH1 0x0 PUSH20 0xFFFFFFFFFFFFFFFFFFFFFFFFFFFFFFFFFFFFFFFF AND DUP2 PUSH20 0xFFFFFFFFFFFFFFFFFFFFFFFFFFFFFFFFFFFFFFFF AND EQ ISZERO PUSH2 0x87E JUMPI PUSH1 0x40 MLOAD PUSH32 0x8C379A000000000000000000000000000000000000000000000000000000000 DUP2 MSTORE PUSH1 0x4 ADD PUSH2 0x875 SWAP1 PUSH2 0x17A0 JUMP JUMPDEST PUSH1 0x40 MLOAD DUP1 SWAP2 SUB SWAP1 REVERT JUMPDEST DUP4 PUSH20 0xFFFFFFFFFFFFFFFFFFFFFFFFFFFFFFFFFFFFFFFF AND DUP2 PUSH20 0xFFFFFFFFFFFFFFFFFFFFFFFFFFFFFFFFFFFFFFFF AND EQ PUSH2 0x8EC JUMPI PUSH1 0x40 MLOAD PUSH32 0x8C379A000000000000000000000000000000000000000000000000000000000 DUP2 MSTORE PUSH1 0x4 ADD PUSH2 0x8E3 SWAP1 PUSH2 0x17E0 JUMP JUMPDEST PUSH1 0x40 MLOAD DUP1 SWAP2 SUB SWAP1 REVERT JUMPDEST DUP3 PUSH20 0xFFFFFFFFFFFFFFFFFFFFFFFFFFFFFFFFFFFFFFFF AND DUP5 PUSH20 0xFFFFFFFFFFFFFFFFFFFFFFFFFFFFFFFFFFFFFFFF AND EQ ISZERO PUSH2 0x95B JUMPI PUSH1 0x40 MLOAD PUSH32 0x8C379A000000000000000000000000000000000000000000000000000000000 DUP2 MSTORE PUSH1 0x4 ADD PUSH2 0x952 SWAP1 PUSH2 0x1860 JUMP JUMPDEST PUSH1 0x40 MLOAD DUP1 SWAP2 SUB SWAP1 REVERT JUMPDEST DUP3 PUSH1 0x4 PUSH1 0x0 DUP5 DUP2 MSTORE PUSH1 0x20 ADD SWAP1 DUP2 MSTORE PUSH1 0x20 ADD PUSH1 0x0 KECCAK256 PUSH1 0x0 PUSH2 0x100 EXP DUP2 SLOAD DUP2 PUSH20 0xFFFFFFFFFFFFFFFFFFFFFFFFFFFFFFFFFFFFFFFF MUL NOT AND SWAP1 DUP4 PUSH20 0xFFFFFFFFFFFFFFFFFFFFFFFFFFFFFFFFFFFFFFFF AND MUL OR SWAP1 SSTORE POP PUSH1 0x1 PUSH1 0x3 PUSH1 0x0 DUP7 PUSH20 0xFFFFFFFFFFFFFFFFFFFFFFFFFFFFFFFFFFFFFFFF AND PUSH20 0xFFFFFFFFFFFFFFFFFFFFFFFFFFFFFFFFFFFFFFFF AND DUP2 MSTORE PUSH1 0x20 ADD SWAP1 DUP2 MSTORE PUSH1 0x20 ADD PUSH1 0x0 KECCAK256 PUSH1 0x0 DUP3 DUP3 SLOAD PUSH2 0x9FD SWAP2 SWAP1 PUSH2 0x1994 JUMP JUMPDEST SWAP3 POP POP DUP2 SWAP1 SSTORE POP PUSH1 0x1 PUSH1 0x3 PUSH1 0x0 DUP6 PUSH20 0xFFFFFFFFFFFFFFFFFFFFFFFFFFFFFFFFFFFFFFFF AND PUSH20 0xFFFFFFFFFFFFFFFFFFFFFFFFFFFFFFFFFFFFFFFF AND DUP2 MSTORE PUSH1 0x20 ADD SWAP1 DUP2 MSTORE PUSH1 0x20 ADD PUSH1 0x0 KECCAK256 PUSH1 0x0 DUP3 DUP3 SLOAD PUSH2 0xA54 SWAP2 SWAP1 PUSH2 0x193E JUMP JUMPDEST SWAP3 POP POP DUP2 SWAP1 SSTORE POP DUP2 DUP4 PUSH20 0xFFFFFFFFFFFFFFFFFFFFFFFFFFFFFFFFFFFFFFFF AND DUP6 PUSH20 0xFFFFFFFFFFFFFFFFFFFFFFFFFFFFFFFFFFFFFFFF AND PUSH32 0xDDF252AD1BE2C89B69C2B068FC378DAA952BA7F163C4A11628F55A4DF523B3EF PUSH1 0x40 MLOAD PUSH1 0x40 MLOAD DUP1 SWAP2 SUB SWAP1 LOG4 POP POP POP POP JUMP JUMPDEST PUSH1 0x0 PUSH1 0x4 PUSH1 0x0 DUP4 DUP2 MSTORE PUSH1 0x20 ADD SWAP1 DUP2 MSTORE PUSH1 0x20 ADD PUSH1 0x0 KECCAK256 PUSH1 0x0 SWAP1 SLOAD SWAP1 PUSH2 0x100 EXP SWAP1 DIV PUSH20 0xFFFFFFFFFFFFFFFFFFFFFFFFFFFFFFFFFFFFFFFF AND SWAP1 POP SWAP2 SWAP1 POP JUMP JUMPDEST PUSH1 0x0 DUP1 SLOAD PUSH2 0xB06 SWAP1 PUSH2 0x1A7E JUMP JUMPDEST DUP1 PUSH1 0x1F ADD PUSH1 0x20 DUP1 SWAP2 DIV MUL PUSH1 0x20 ADD PUSH1 0x40 MLOAD SWAP1 DUP2 ADD PUSH1 0x40 MSTORE DUP1 SWAP3 SWAP2 SWAP1 DUP2 DUP2 MSTORE PUSH1 0x20 ADD DUP3 DUP1 SLOAD PUSH2 0xB32 SWAP1 PUSH2 0x1A7E JUMP JUMPDEST DUP1 ISZERO PUSH2 0xB7F JUMPI DUP1 PUSH1 0x1F LT PUSH2 0xB54 JUMPI PUSH2 0x100 DUP1 DUP4 SLOAD DIV MUL DUP4 MSTORE SWAP2 PUSH1 0x20 ADD SWAP2 PUSH2 0xB7F JUMP JUMPDEST DUP3 ADD SWAP2 SWAP1 PUSH1 0x0 MSTORE PUSH1 0x20 PUSH1 0x0 KECCAK256 SWAP1 JUMPDEST DUP2 SLOAD DUP2 MSTORE SWAP1 PUSH1 0x1 ADD SWAP1 PUSH1 0x20 ADD DUP1 DUP4 GT PUSH2 0xB62 JUMPI DUP3 SWAP1 SUB PUSH1 0x1F AND DUP3 ADD SWAP2 JUMPDEST POP POP POP POP POP DUP2 JUMP JUMPDEST PUSH1 0x0 PUSH1 0x3 PUSH1 0x0 DUP4 PUSH20 0xFFFFFFFFFFFFFFFFFFFFFFFFFFFFFFFFFFFFFFFF AND PUSH20 0xFFFFFFFFFFFFFFFFFFFFFFFFFFFFFFFFFFFFFFFF AND DUP2 MSTORE PUSH1 0x20 ADD SWAP1 DUP2 MSTORE PUSH1 0x20 ADD PUSH1 0x0 KECCAK256 SLOAD SWAP1 POP SWAP2 SWAP1 POP JUMP JUMPDEST PUSH1 0x1 DUP1 SLOAD PUSH2 0xBDD SWAP1 PUSH2 0x1A7E JUMP JUMPDEST DUP1 PUSH1 0x1F ADD PUSH1 0x20 DUP1 SWAP2 DIV MUL PUSH1 0x20 ADD PUSH1 0x40 MLOAD SWAP1 DUP2 ADD PUSH1 0x40 MSTORE DUP1 SWAP3 SWAP2 SWAP1 DUP2 DUP2 MSTORE PUSH1 0x20 ADD DUP3 DUP1 SLOAD PUSH2 0xC09 SWAP1 PUSH2 0x1A7E JUMP JUMPDEST DUP1 ISZERO PUSH2 0xC56 JUMPI DUP1 PUSH1 0x1F LT PUSH2 0xC2B JUMPI PUSH2 0x100 DUP1 DUP4 SLOAD DIV MUL DUP4 MSTORE SWAP2 PUSH1 0x20 ADD SWAP2 PUSH2 0xC56 JUMP JUMPDEST DUP3 ADD SWAP2 SWAP1 PUSH1 0x0 MSTORE PUSH1 0x20 PUSH1 0x0 KECCAK256 SWAP1 JUMPDEST DUP2 SLOAD DUP2 MSTORE SWAP1 PUSH1 0x1 ADD SWAP1 PUSH1 0x20 ADD DUP1 DUP4 GT PUSH2 0xC39 JUMPI DUP3 SWAP1 SUB PUSH1 0x1F AND DUP3 ADD SWAP2 JUMPDEST POP POP POP POP POP DUP2 JUMP JUMPDEST PUSH1 0x60 PUSH1 0x1 DUP1 SLOAD PUSH2 0xC6D SWAP1 PUSH2 0x1A7E JUMP JUMPDEST DUP1 PUSH1 0x1F ADD PUSH1 0x20 DUP1 SWAP2 DIV MUL PUSH1 0x20 ADD PUSH1 0x40 MLOAD SWAP1 DUP2 ADD PUSH1 0x40 MSTORE DUP1 SWAP3 SWAP2 SWAP1 DUP2 DUP2 MSTORE PUSH1 0x20 ADD DUP3 DUP1 SLOAD PUSH2 0xC99 SWAP1 PUSH2 0x1A7E JUMP JUMPDEST DUP1 ISZERO PUSH2 0xCE6 JUMPI DUP1 PUSH1 0x1F LT PUSH2 0xCBB JUMPI PUSH2 0x100 DUP1 DUP4 SLOAD DIV MUL DUP4 MSTORE SWAP2 PUSH1 0x20 ADD SWAP2 PUSH2 0xCE6 JUMP JUMPDEST DUP3 ADD SWAP2 SWAP1 PUSH1 0x0 MSTORE PUSH1 0x20 PUSH1 0x0 KECCAK256 SWAP1 JUMPDEST DUP2 SLOAD DUP2 MSTORE SWAP1 PUSH1 0x1 ADD SWAP1 PUSH1 0x20 ADD DUP1 DUP4 GT PUSH2 0xCC9 JUMPI DUP3 SWAP1 SUB PUSH1 0x1F AND DUP3 ADD SWAP2 JUMPDEST POP POP POP POP POP SWAP1 POP SWAP1 JUMP JUMPDEST DUP2 PUSH20 0xFFFFFFFFFFFFFFFFFFFFFFFFFFFFFFFFFFFFFFFF AND CALLER PUSH20 0xFFFFFFFFFFFFFFFFFFFFFFFFFFFFFFFFFFFFFFFF AND EQ ISZERO PUSH2 0xD5F JUMPI PUSH1 0x40 MLOAD PUSH32 0x8C379A000000000000000000000000000000000000000000000000000000000 DUP2 MSTORE PUSH1 0x4 ADD PUSH2 0xD56 SWAP1 PUSH2 0x1820 JUMP JUMPDEST PUSH1 0x40 MLOAD DUP1 SWAP2 SUB SWAP1 REVERT JUMPDEST DUP1 PUSH1 0x6 PUSH1 0x0 CALLER PUSH20 0xFFFFFFFFFFFFFFFFFFFFFFFFFFFFFFFFFFFFFFFF AND PUSH20 0xFFFFFFFFFFFFFFFFFFFFFFFFFFFFFFFFFFFFFFFF AND DUP2 MSTORE PUSH1 0x20 ADD SWAP1 DUP2 MSTORE PUSH1 0x20 ADD PUSH1 0x0 KECCAK256 PUSH1 0x0 DUP5 PUSH20 0xFFFFFFFFFFFFFFFFFFFFFFFFFFFFFFFFFFFFFFFF AND PUSH20 0xFFFFFFFFFFFFFFFFFFFFFFFFFFFFFFFFFFFFFFFF AND DUP2 MSTORE PUSH1 0x20 ADD SWAP1 DUP2 MSTORE PUSH1 0x20 ADD PUSH1 0x0 KECCAK256 PUSH1 0x0 PUSH2 0x100 EXP DUP2 SLOAD DUP2 PUSH1 0xFF MUL NOT AND SWAP1 DUP4 ISZERO ISZERO MUL OR SWAP1 SSTORE POP DUP2 PUSH20 0xFFFFFFFFFFFFFFFFFFFFFFFFFFFFFFFFFFFFFFFF AND CALLER PUSH20 0xFFFFFFFFFFFFFFFFFFFFFFFFFFFFFFFFFFFFFFFF AND PUSH32 0x17307EAB39AB6107E8899845AD3D59BD9653F200F220920489CA2B5937696C31 DUP4 PUSH1 0x40 MLOAD PUSH2 0xE50 SWAP2 SWAP1 PUSH2 0x1763 JUMP JUMPDEST PUSH1 0x40 MLOAD DUP1 SWAP2 SUB SWAP1 LOG3 POP POP JUMP JUMPDEST PUSH2 0xE77 DUP5 DUP5 DUP5 PUSH1 0x40 MLOAD DUP1 PUSH1 0x20 ADD PUSH1 0x40 MSTORE DUP1 PUSH1 0x0 DUP2 MSTORE POP PUSH2 0xE5C JUMP JUMPDEST POP POP POP POP JUMP JUMPDEST PUSH1 0x60 PUSH1 0x2 PUSH1 0x0 DUP4 DUP2 MSTORE PUSH1 0x20 ADD SWAP1 DUP2 MSTORE PUSH1 0x20 ADD PUSH1 0x0 KECCAK256 DUP1 SLOAD PUSH2 0xE9D SWAP1 PUSH2 0x1A7E JUMP JUMPDEST DUP1 PUSH1 0x1F ADD PUSH1 0x20 DUP1 SWAP2 DIV MUL PUSH1 0x20 ADD PUSH1 0x40 MLOAD SWAP1 DUP2 ADD PUSH1 0x40 MSTORE DUP1 SWAP3 SWAP2 SWAP1 DUP2 DUP2 MSTORE PUSH1 0x20 ADD DUP3 DUP1 SLOAD PUSH2 0xEC9 SWAP1 PUSH2 0x1A7E JUMP JUMPDEST DUP1 ISZERO PUSH2 0xF16 JUMPI DUP1 PUSH1 0x1F LT PUSH2 0xEEB JUMPI PUSH2 0x100 DUP1 DUP4 SLOAD DIV MUL DUP4 MSTORE SWAP2 PUSH1 0x20 ADD SWAP2 PUSH2 0xF16 JUMP JUMPDEST DUP3 ADD SWAP2 SWAP1 PUSH1 0x0 MSTORE PUSH1 0x20 PUSH1 0x0 KECCAK256 SWAP1 JUMPDEST DUP2 SLOAD DUP2 MSTORE SWAP1 PUSH1 0x1 ADD SWAP1 PUSH1 0x20 ADD DUP1 DUP4 GT PUSH2 0xEF9 JUMPI DUP3 SWAP1 SUB PUSH1 0x1F AND DUP3 ADD SWAP2 JUMPDEST POP POP POP POP POP SWAP1 POP SWAP2 SWAP1 POP JUMP JUMPDEST PUSH1 0x0 PUSH20 0xFFFFFFFFFFFFFFFFFFFFFFFFFFFFFFFFFFFFFFFF AND PUSH1 0x4 PUSH1 0x0 DUP5 DUP2 MSTORE PUSH1 0x20 ADD SWAP1 DUP2 MSTORE PUSH1 0x20 ADD PUSH1 0x0 KECCAK256 PUSH1 0x0 SWAP1 SLOAD SWAP1 PUSH2 0x100 EXP SWAP1 DIV PUSH20 0xFFFFFFFFFFFFFFFFFFFFFFFFFFFFFFFFFFFFFFFF AND PUSH20 0xFFFFFFFFFFFFFFFFFFFFFFFFFFFFFFFFFFFFFFFF AND EQ PUSH2 0xFC4 JUMPI PUSH1 0x40 MLOAD PUSH32 0x8C379A000000000000000000000000000000000000000000000000000000000 DUP2 MSTORE PUSH1 0x4 ADD PUSH2 0xFBB SWAP1 PUSH2 0x1840 JUMP JUMPDEST PUSH1 0x40 MLOAD DUP1 SWAP2 SUB SWAP1 REVERT JUMPDEST DUP3 PUSH1 0x4 PUSH1 0x0 DUP5 DUP2 MSTORE PUSH1 0x20 ADD SWAP1 DUP2 MSTORE PUSH1 0x20 ADD PUSH1 0x0 KECCAK256 PUSH1 0x0 PUSH2 0x100 EXP DUP2 SLOAD DUP2 PUSH20 0xFFFFFFFFFFFFFFFFFFFFFFFFFFFFFFFFFFFFFFFF MUL NOT AND SWAP1 DUP4 PUSH20 0xFFFFFFFFFFFFFFFFFFFFFFFFFFFFFFFFFFFFFFFF AND MUL OR SWAP1 SSTORE POP PUSH1 0x1 PUSH1 0x3 PUSH1 0x0 DUP6 PUSH20 0xFFFFFFFFFFFFFFFFFFFFFFFFFFFFFFFFFFFFFFFF AND PUSH20 0xFFFFFFFFFFFFFFFFFFFFFFFFFFFFFFFFFFFFFFFF AND DUP2 MSTORE PUSH1 0x20 ADD SWAP1 DUP2 MSTORE PUSH1 0x20 ADD PUSH1 0x0 KECCAK256 PUSH1 0x0 DUP3 DUP3 SLOAD PUSH2 0x1066 SWAP2 SWAP1 PUSH2 0x193E JUMP JUMPDEST SWAP3 POP POP DUP2 SWAP1 SSTORE POP DUP1 PUSH1 0x2 PUSH1 0x0 DUP5 DUP2 MSTORE PUSH1 0x20 ADD SWAP1 DUP2 MSTORE PUSH1 0x20 ADD PUSH1 0x0 KECCAK256 SWAP1 DUP1 MLOAD SWAP1 PUSH1 0x20 ADD SWAP1 PUSH2 0x1094 SWAP3 SWAP2 SWAP1 PUSH2 0x118A JUMP JUMPDEST POP DUP2 DUP4 PUSH20 0xFFFFFFFFFFFFFFFFFFFFFFFFFFFFFFFFFFFFFFFF AND PUSH1 0x0 PUSH20 0xFFFFFFFFFFFFFFFFFFFFFFFFFFFFFFFFFFFFFFFF AND PUSH32 0xDDF252AD1BE2C89B69C2B068FC378DAA952BA7F163C4A11628F55A4DF523B3EF PUSH1 0x40 MLOAD PUSH1 0x40 MLOAD DUP1 SWAP2 SUB SWAP1 LOG4 POP POP POP JUMP JUMPDEST PUSH1 0x0 PUSH1 0x6 PUSH1 0x0 DUP5 PUSH20 0xFFFFFFFFFFFFFFFFFFFFFFFFFFFFFFFFFFFFFFFF AND PUSH20 0xFFFFFFFFFFFFFFFFFFFFFFFFFFFFFFFFFFFFFFFF AND DUP2 MSTORE PUSH1 0x20 ADD SWAP1 DUP2 MSTORE PUSH1 0x20 ADD PUSH1 0x0 KECCAK256 PUSH1 0x0 DUP4 PUSH20 0xFFFFFFFFFFFFFFFFFFFFFFFFFFFFFFFFFFFFFFFF AND PUSH20 0xFFFFFFFFFFFFFFFFFFFFFFFFFFFFFFFFFFFFFFFF AND DUP2 MSTORE PUSH1 0x20 ADD SWAP1 DUP2 MSTORE PUSH1 0x20 ADD PUSH1 0x0 KECCAK256 PUSH1 0x0 SWAP1 SLOAD SWAP1 PUSH2 0x100 EXP SWAP1 DIV PUSH1 0xFF AND SWAP1 POP SWAP3 SWAP2 POP POP JUMP JUMPDEST DUP3 DUP1 SLOAD PUSH2 0x1196 SWAP1 PUSH2 0x1A7E JUMP JUMPDEST SWAP1 PUSH1 0x0 MSTORE PUSH1 0x20 PUSH1 0x0 KECCAK256 SWAP1 PUSH1 0x1F ADD PUSH1 0x20 SWAP1 DIV DUP2 ADD SWAP3 DUP3 PUSH2 0x11B8 JUMPI PUSH1 0x0 DUP6 SSTORE PUSH2 0x11FF JUMP JUMPDEST DUP3 PUSH1 0x1F LT PUSH2 0x11D1 JUMPI DUP1 MLOAD PUSH1 0xFF NOT AND DUP4 DUP1 ADD OR DUP6 SSTORE PUSH2 0x11FF JUMP JUMPDEST DUP3 DUP1 ADD PUSH1 0x1 ADD DUP6 SSTORE DUP3 ISZERO PUSH2 0x11FF JUMPI SWAP2 DUP3 ADD JUMPDEST DUP3 DUP2 GT ISZERO PUSH2 0x11FE JUMPI DUP3 MLOAD DUP3 SSTORE SWAP2 PUSH1 0x20 ADD SWAP2 SWAP1 PUSH1 0x1 ADD SWAP1 PUSH2 0x11E3 JUMP JUMPDEST JUMPDEST POP SWAP1 POP PUSH2 0x120C SWAP2 SWAP1 PUSH2 0x1210 JUMP JUMPDEST POP SWAP1 JUMP JUMPDEST JUMPDEST DUP1 DUP3 GT ISZERO PUSH2 0x1229 JUMPI PUSH1 0x0 DUP2 PUSH1 0x0 SWAP1 SSTORE POP PUSH1 0x1 ADD PUSH2 0x1211 JUMP JUMPDEST POP SWAP1 JUMP JUMPDEST PUSH1 0x0 PUSH2 0x1240 PUSH2 0x123B DUP5 PUSH2 0x18C0 JUMP JUMPDEST PUSH2 0x189B JUMP JUMPDEST SWAP1 POP DUP3 DUP2 MSTORE PUSH1 0x20 DUP2 ADD DUP5 DUP5 DUP5 ADD GT ISZERO PUSH2 0x125C JUMPI PUSH2 0x125B PUSH2 0x1B73 JUMP JUMPDEST JUMPDEST PUSH2 0x1267 DUP5 DUP3 DUP6 PUSH2 0x1A3C JUMP JUMPDEST POP SWAP4 SWAP3 POP POP POP JUMP JUMPDEST PUSH1 0x0 PUSH2 0x1282 PUSH2 0x127D DUP5 PUSH2 0x18F1 JUMP JUMPDEST PUSH2 0x189B JUMP JUMPDEST SWAP1 POP DUP3 DUP2 MSTORE PUSH1 0x20 DUP2 ADD DUP5 DUP5 DUP5 ADD GT ISZERO PUSH2 0x129E JUMPI PUSH2 0x129D PUSH2 0x1B73 JUMP JUMPDEST JUMPDEST PUSH2 0x12A9 DUP5 DUP3 DUP6 PUSH2 0x1A3C JUMP JUMPDEST POP SWAP4 SWAP3 POP POP POP JUMP JUMPDEST PUSH1 0x0 DUP2 CALLDATALOAD SWAP1 POP PUSH2 0x12C0 DUP2 PUSH2 0x1CB2 JUMP JUMPDEST SWAP3 SWAP2 POP POP JUMP JUMPDEST PUSH1 0x0 DUP2 CALLDATALOAD SWAP1 POP PUSH2 0x12D5 DUP2 PUSH2 0x1CC9 JUMP JUMPDEST SWAP3 SWAP2 POP POP JUMP JUMPDEST PUSH1 0x0 DUP2 CALLDATALOAD SWAP1 POP PUSH2 0x12EA DUP2 PUSH2 0x1CE0 JUMP JUMPDEST SWAP3 SWAP2 POP POP JUMP JUMPDEST PUSH1 0x0 DUP3 PUSH1 0x1F DUP4 ADD SLT PUSH2 0x1305 JUMPI PUSH2 0x1304 PUSH2 0x1B6E JUMP JUMPDEST JUMPDEST DUP2 CALLDATALOAD PUSH2 0x1315 DUP5 DUP3 PUSH1 0x20 DUP7 ADD PUSH2 0x122D JUMP JUMPDEST SWAP2 POP POP SWAP3 SWAP2 POP POP JUMP JUMPDEST PUSH1 0x0 DUP3 PUSH1 0x1F DUP4 ADD SLT PUSH2 0x1333 JUMPI PUSH2 0x1332 PUSH2 0x1B6E JUMP JUMPDEST JUMPDEST DUP2 CALLDATALOAD PUSH2 0x1343 DUP5 DUP3 PUSH1 0x20 DUP7 ADD PUSH2 0x126F JUMP JUMPDEST SWAP2 POP POP SWAP3 SWAP2 POP POP JUMP JUMPDEST PUSH1 0x0 DUP2 CALLDATALOAD SWAP1 POP PUSH2 0x135B DUP2 PUSH2 0x1CF7 JUMP JUMPDEST SWAP3 SWAP2 POP POP JUMP JUMPDEST PUSH1 0x0 PUSH1 0x20 DUP3 DUP5 SUB SLT ISZERO PUSH2 0x1377 JUMPI PUSH2 0x1376 PUSH2 0x1B7D JUMP JUMPDEST JUMPDEST PUSH1 0x0 PUSH2 0x1385 DUP5 DUP3 DUP6 ADD PUSH2 0x12B1 JUMP JUMPDEST SWAP2 POP POP SWAP3 SWAP2 POP POP JUMP JUMPDEST PUSH1 0x0 DUP1 PUSH1 0x40 DUP4 DUP6 SUB SLT ISZERO PUSH2 0x13A5 JUMPI PUSH2 0x13A4 PUSH2 0x1B7D JUMP JUMPDEST JUMPDEST PUSH1 0x0 PUSH2 0x13B3 DUP6 DUP3 DUP7 ADD PUSH2 0x12B1 JUMP JUMPDEST SWAP3 POP POP PUSH1 0x20 PUSH2 0x13C4 DUP6 DUP3 DUP7 ADD PUSH2 0x12B1 JUMP JUMPDEST SWAP2 POP POP SWAP3 POP SWAP3 SWAP1 POP JUMP JUMPDEST PUSH1 0x0 DUP1 PUSH1 0x0 PUSH1 0x60 DUP5 DUP7 SUB SLT ISZERO PUSH2 0x13E7 JUMPI PUSH2 0x13E6 PUSH2 0x1B7D JUMP JUMPDEST JUMPDEST PUSH1 0x0 PUSH2 0x13F5 DUP7 DUP3 DUP8 ADD PUSH2 0x12B1 JUMP JUMPDEST SWAP4 POP POP PUSH1 0x20 PUSH2 0x1406 DUP7 DUP3 DUP8 ADD PUSH2 0x12B1 JUMP JUMPDEST SWAP3 POP POP PUSH1 0x40 PUSH2 0x1417 DUP7 DUP3 DUP8 ADD PUSH2 0x134C JUMP JUMPDEST SWAP2 POP POP SWAP3 POP SWAP3 POP SWAP3 JUMP JUMPDEST PUSH1 0x0 DUP1 PUSH1 0x0 DUP1 PUSH1 0x80 DUP6 DUP8 SUB SLT ISZERO PUSH2 0x143B JUMPI PUSH2 0x143A PUSH2 0x1B7D JUMP JUMPDEST JUMPDEST PUSH1 0x0 PUSH2 0x1449 DUP8 DUP3 DUP9 ADD PUSH2 0x12B1 JUMP JUMPDEST SWAP5 POP POP PUSH1 0x20 PUSH2 0x145A DUP8 DUP3 DUP9 ADD PUSH2 0x12B1 JUMP JUMPDEST SWAP4 POP POP PUSH1 0x40 PUSH2 0x146B DUP8 DUP3 DUP9 ADD PUSH2 0x134C JUMP JUMPDEST SWAP3 POP POP PUSH1 0x60 DUP6 ADD CALLDATALOAD PUSH8 0xFFFFFFFFFFFFFFFF DUP2 GT ISZERO PUSH2 0x148C JUMPI PUSH2 0x148B PUSH2 0x1B78 JUMP JUMPDEST JUMPDEST PUSH2 0x1498 DUP8 DUP3 DUP9 ADD PUSH2 0x12F0 JUMP JUMPDEST SWAP2 POP POP SWAP3 SWAP6 SWAP2 SWAP5 POP SWAP3 POP JUMP JUMPDEST PUSH1 0x0 DUP1 PUSH1 0x40 DUP4 DUP6 SUB SLT ISZERO PUSH2 0x14BB JUMPI PUSH2 0x14BA PUSH2 0x1B7D JUMP JUMPDEST JUMPDEST PUSH1 0x0 PUSH2 0x14C9 DUP6 DUP3 DUP7 ADD PUSH2 0x12B1 JUMP JUMPDEST SWAP3 POP POP PUSH1 0x20 PUSH2 0x14DA DUP6 DUP3 DUP7 ADD PUSH2 0x12C6 JUMP JUMPDEST SWAP2 POP POP SWAP3 POP SWAP3 SWAP1 POP JUMP JUMPDEST PUSH1 0x0 DUP1 PUSH1 0x40 DUP4 DUP6 SUB SLT ISZERO PUSH2 0x14FB JUMPI PUSH2 0x14FA PUSH2 0x1B7D JUMP JUMPDEST JUMPDEST PUSH1 0x0 PUSH2 0x1509 DUP6 DUP3 DUP7 ADD PUSH2 0x12B1 JUMP JUMPDEST SWAP3 POP POP PUSH1 0x20 PUSH2 0x151A DUP6 DUP3 DUP7 ADD PUSH2 0x134C JUMP JUMPDEST SWAP2 POP POP SWAP3 POP SWAP3 SWAP1 POP JUMP JUMPDEST PUSH1 0x0 DUP1 PUSH1 0x0 PUSH1 0x60 DUP5 DUP7 SUB SLT ISZERO PUSH2 0x153D JUMPI PUSH2 0x153C PUSH2 0x1B7D JUMP JUMPDEST JUMPDEST PUSH1 0x0 PUSH2 0x154B DUP7 DUP3 DUP8 ADD PUSH2 0x12B1 JUMP JUMPDEST SWAP4 POP POP PUSH1 0x20 PUSH2 0x155C DUP7 DUP3 DUP8 ADD PUSH2 0x134C JUMP JUMPDEST SWAP3 POP POP PUSH1 0x40 DUP5 ADD CALLDATALOAD PUSH8 0xFFFFFFFFFFFFFFFF DUP2 GT ISZERO PUSH2 0x157D JUMPI PUSH2 0x157C PUSH2 0x1B78 JUMP JUMPDEST JUMPDEST PUSH2 0x1589 DUP7 DUP3 DUP8 ADD PUSH2 0x131E JUMP JUMPDEST SWAP2 POP POP SWAP3 POP SWAP3 POP SWAP3 JUMP JUMPDEST PUSH1 0x0 PUSH1 0x20 DUP3 DUP5 SUB SLT ISZERO PUSH2 0x15A9 JUMPI PUSH2 0x15A8 PUSH2 0x1B7D JUMP JUMPDEST JUMPDEST PUSH1 0x0 PUSH2 0x15B7 DUP5 DUP3 DUP6 ADD PUSH2 0x12DB JUMP JUMPDEST SWAP2 POP POP SWAP3 SWAP2 POP POP JUMP JUMPDEST PUSH1 0x0 PUSH1 0x20 DUP3 DUP5 SUB SLT ISZERO PUSH2 0x15D6 JUMPI PUSH2 0x15D5 PUSH2 0x1B7D JUMP JUMPDEST JUMPDEST PUSH1 0x0 PUSH2 0x15E4 DUP5 DUP3 DUP6 ADD PUSH2 0x134C JUMP JUMPDEST SWAP2 POP POP SWAP3 SWAP2 POP POP JUMP JUMPDEST PUSH2 0x15F6 DUP2 PUSH2 0x19C8 JUMP JUMPDEST DUP3 MSTORE POP POP JUMP JUMPDEST PUSH2 0x1605 DUP2 PUSH2 0x19DA JUMP JUMPDEST DUP3 MSTORE POP POP JUMP JUMPDEST PUSH1 0x0 PUSH2 0x1616 DUP3 PUSH2 0x1922 JUMP JUMPDEST PUSH2 0x1620 DUP2 DUP6 PUSH2 0x192D JUMP JUMPDEST SWAP4 POP PUSH2 0x1630 DUP2 DUP6 PUSH1 0x20 DUP7 ADD PUSH2 0x1A4B JUMP JUMPDEST PUSH2 0x1639 DUP2 PUSH2 0x1B82 JUMP JUMPDEST DUP5 ADD SWAP2 POP POP SWAP3 SWAP2 POP POP JUMP JUMPDEST PUSH1 0x0 PUSH2 0x1651 PUSH1 0xF DUP4 PUSH2 0x192D JUMP JUMPDEST SWAP2 POP PUSH2 0x165C DUP3 PUSH2 0x1B93 JUMP JUMPDEST PUSH1 0x20 DUP3 ADD SWAP1 POP SWAP2 SWAP1 POP JUMP JUMPDEST PUSH1 0x0 PUSH2 0x1674 PUSH1 0x12 DUP4 PUSH2 0x192D JUMP JUMPDEST SWAP2 POP PUSH2 0x167F DUP3 PUSH2 0x1BBC JUMP JUMPDEST PUSH1 0x20 DUP3 ADD SWAP1 POP SWAP2 SWAP1 POP JUMP JUMPDEST PUSH1 0x0 PUSH2 0x1697 PUSH1 0x8 DUP4 PUSH2 0x192D JUMP JUMPDEST SWAP2 POP PUSH2 0x16A2 DUP3 PUSH2 0x1BE5 JUMP JUMPDEST PUSH1 0x20 DUP3 ADD SWAP1 POP SWAP2 SWAP1 POP JUMP JUMPDEST PUSH1 0x0 PUSH2 0x16BA PUSH1 0xA DUP4 PUSH2 0x192D JUMP JUMPDEST SWAP2 POP PUSH2 0x16C5 DUP3 PUSH2 0x1C0E JUMP JUMPDEST PUSH1 0x20 DUP3 ADD SWAP1 POP SWAP2 SWAP1 POP JUMP JUMPDEST PUSH1 0x0 PUSH2 0x16DD PUSH1 0x10 DUP4 PUSH2 0x192D JUMP JUMPDEST SWAP2 POP PUSH2 0x16E8 DUP3 PUSH2 0x1C37 JUMP JUMPDEST PUSH1 0x20 DUP3 ADD SWAP1 POP SWAP2 SWAP1 POP JUMP JUMPDEST PUSH1 0x0 PUSH2 0x1700 PUSH1 0xE DUP4 PUSH2 0x192D JUMP JUMPDEST SWAP2 POP PUSH2 0x170B DUP3 PUSH2 0x1C60 JUMP JUMPDEST PUSH1 0x20 DUP3 ADD SWAP1 POP SWAP2 SWAP1 POP JUMP JUMPDEST PUSH1 0x0 PUSH2 0x1723 PUSH1 0x18 DUP4 PUSH2 0x192D JUMP JUMPDEST SWAP2 POP PUSH2 0x172E DUP3 PUSH2 0x1C89 JUMP JUMPDEST PUSH1 0x20 DUP3 ADD SWAP1 POP SWAP2 SWAP1 POP JUMP JUMPDEST PUSH2 0x1742 DUP2 PUSH2 0x1A32 JUMP JUMPDEST DUP3 MSTORE POP POP JUMP JUMPDEST PUSH1 0x0 PUSH1 0x20 DUP3 ADD SWAP1 POP PUSH2 0x175D PUSH1 0x0 DUP4 ADD DUP5 PUSH2 0x15ED JUMP JUMPDEST SWAP3 SWAP2 POP POP JUMP JUMPDEST PUSH1 0x0 PUSH1 0x20 DUP3 ADD SWAP1 POP PUSH2 0x1778 PUSH1 0x0 DUP4 ADD DUP5 PUSH2 0x15FC JUMP JUMPDEST SWAP3 SWAP2 POP POP JUMP JUMPDEST PUSH1 0x0 PUSH1 0x20 DUP3 ADD SWAP1 POP DUP2 DUP2 SUB PUSH1 0x0 DUP4 ADD MSTORE PUSH2 0x1798 DUP2 DUP5 PUSH2 0x160B JUMP JUMPDEST SWAP1 POP SWAP3 SWAP2 POP POP JUMP JUMPDEST PUSH1 0x0 PUSH1 0x20 DUP3 ADD SWAP1 POP DUP2 DUP2 SUB PUSH1 0x0 DUP4 ADD MSTORE PUSH2 0x17B9 DUP2 PUSH2 0x1644 JUMP JUMPDEST SWAP1 POP SWAP2 SWAP1 POP JUMP JUMPDEST PUSH1 0x0 PUSH1 0x20 DUP3 ADD SWAP1 POP DUP2 DUP2 SUB PUSH1 0x0 DUP4 ADD MSTORE PUSH2 0x17D9 DUP2 PUSH2 0x1667 JUMP JUMPDEST SWAP1 POP SWAP2 SWAP1 POP JUMP JUMPDEST PUSH1 0x0 PUSH1 0x20 DUP3 ADD SWAP1 POP DUP2 DUP2 SUB PUSH1 0x0 DUP4 ADD MSTORE PUSH2 0x17F9 DUP2 PUSH2 0x168A JUMP JUMPDEST SWAP1 POP SWAP2 SWAP1 POP JUMP JUMPDEST PUSH1 0x0 PUSH1 0x20 DUP3 ADD SWAP1 POP DUP2 DUP2 SUB PUSH1 0x0 DUP4 ADD MSTORE PUSH2 0x1819 DUP2 PUSH2 0x16AD JUMP JUMPDEST SWAP1 POP SWAP2 SWAP1 POP JUMP JUMPDEST PUSH1 0x0 PUSH1 0x20 DUP3 ADD SWAP1 POP DUP2 DUP2 SUB PUSH1 0x0 DUP4 ADD MSTORE PUSH2 0x1839 DUP2 PUSH2 0x16D0 JUMP JUMPDEST SWAP1 POP SWAP2 SWAP1 POP JUMP JUMPDEST PUSH1 0x0 PUSH1 0x20 DUP3 ADD SWAP1 POP DUP2 DUP2 SUB PUSH1 0x0 DUP4 ADD MSTORE PUSH2 0x1859 DUP2 PUSH2 0x16F3 JUMP JUMPDEST SWAP1 POP SWAP2 SWAP1 POP JUMP JUMPDEST PUSH1 0x0 PUSH1 0x20 DUP3 ADD SWAP1 POP DUP2 DUP2 SUB PUSH1 0x0 DUP4 ADD MSTORE PUSH2 0x1879 DUP2 PUSH2 0x1716 JUMP JUMPDEST SWAP1 POP SWAP2 SWAP1 POP JUMP JUMPDEST PUSH1 0x0 PUSH1 0x20 DUP3 ADD SWAP1 POP PUSH2 0x1895 PUSH1 0x0 DUP4 ADD DUP5 PUSH2 0x1739 JUMP JUMPDEST SWAP3 SWAP2 POP POP JUMP JUMPDEST PUSH1 0x0 PUSH2 0x18A5 PUSH2 0x18B6 JUMP JUMPDEST SWAP1 POP PUSH2 0x18B1 DUP3 DUP3 PUSH2 0x1AB0 JUMP JUMPDEST SWAP2 SWAP1 POP JUMP JUMPDEST PUSH1 0x0 PUSH1 0x40 MLOAD SWAP1 POP SWAP1 JUMP JUMPDEST PUSH1 0x0 PUSH8 0xFFFFFFFFFFFFFFFF DUP3 GT ISZERO PUSH2 0x18DB JUMPI PUSH2 0x18DA PUSH2 0x1B3F JUMP JUMPDEST JUMPDEST PUSH2 0x18E4 DUP3 PUSH2 0x1B82 JUMP JUMPDEST SWAP1 POP PUSH1 0x20 DUP2 ADD SWAP1 POP SWAP2 SWAP1 POP JUMP JUMPDEST PUSH1 0x0 PUSH8 0xFFFFFFFFFFFFFFFF DUP3 GT ISZERO PUSH2 0x190C JUMPI PUSH2 0x190B PUSH2 0x1B3F JUMP JUMPDEST JUMPDEST PUSH2 0x1915 DUP3 PUSH2 0x1B82 JUMP JUMPDEST SWAP1 POP PUSH1 0x20 DUP2 ADD SWAP1 POP SWAP2 SWAP1 POP JUMP JUMPDEST PUSH1 0x0 DUP2 MLOAD SWAP1 POP SWAP2 SWAP1 POP JUMP JUMPDEST PUSH1 0x0 DUP3 DUP3 MSTORE PUSH1 0x20 DUP3 ADD SWAP1 POP SWAP3 SWAP2 POP POP JUMP JUMPDEST PUSH1 0x0 PUSH2 0x1949 DUP3 PUSH2 0x1A32 JUMP JUMPDEST SWAP2 POP PUSH2 0x1954 DUP4 PUSH2 0x1A32 JUMP JUMPDEST SWAP3 POP DUP3 PUSH32 0xFFFFFFFFFFFFFFFFFFFFFFFFFFFFFFFFFFFFFFFFFFFFFFFFFFFFFFFFFFFFFFFF SUB DUP3 GT ISZERO PUSH2 0x1989 JUMPI PUSH2 0x1988 PUSH2 0x1AE1 JUMP JUMPDEST JUMPDEST DUP3 DUP3 ADD SWAP1 POP SWAP3 SWAP2 POP POP JUMP JUMPDEST PUSH1 0x0 PUSH2 0x199F DUP3 PUSH2 0x1A32 JUMP JUMPDEST SWAP2 POP PUSH2 0x19AA DUP4 PUSH2 0x1A32 JUMP JUMPDEST SWAP3 POP DUP3 DUP3 LT ISZERO PUSH2 0x19BD JUMPI PUSH2 0x19BC PUSH2 0x1AE1 JUMP JUMPDEST JUMPDEST DUP3 DUP3 SUB SWAP1 POP SWAP3 SWAP2 POP POP JUMP JUMPDEST PUSH1 0x0 PUSH2 0x19D3 DUP3 PUSH2 0x1A12 JUMP JUMPDEST SWAP1 POP SWAP2 SWAP1 POP JUMP JUMPDEST PUSH1 0x0 DUP2 ISZERO ISZERO SWAP1 POP SWAP2 SWAP1 POP JUMP JUMPDEST PUSH1 0x0 PUSH32 0xFFFFFFFF00000000000000000000000000000000000000000000000000000000 DUP3 AND SWAP1 POP SWAP2 SWAP1 POP JUMP JUMPDEST PUSH1 0x0 PUSH20 0xFFFFFFFFFFFFFFFFFFFFFFFFFFFFFFFFFFFFFFFF DUP3 AND SWAP1 POP SWAP2 SWAP1 POP JUMP JUMPDEST PUSH1 0x0 DUP2 SWAP1 POP SWAP2 SWAP1 POP JUMP JUMPDEST DUP3 DUP2 DUP4 CALLDATACOPY PUSH1 0x0 DUP4 DUP4 ADD MSTORE POP POP POP JUMP JUMPDEST PUSH1 0x0 JUMPDEST DUP4 DUP2 LT ISZERO PUSH2 0x1A69 JUMPI DUP1 DUP3 ADD MLOAD DUP2 DUP5 ADD MSTORE PUSH1 0x20 DUP2 ADD SWAP1 POP PUSH2 0x1A4E JUMP JUMPDEST DUP4 DUP2 GT ISZERO PUSH2 0x1A78 JUMPI PUSH1 0x0 DUP5 DUP5 ADD MSTORE JUMPDEST POP POP POP POP JUMP JUMPDEST PUSH1 0x0 PUSH1 0x2 DUP3 DIV SWAP1 POP PUSH1 0x1 DUP3 AND DUP1 PUSH2 0x1A96 JUMPI PUSH1 0x7F DUP3 AND SWAP2 POP JUMPDEST PUSH1 0x20 DUP3 LT DUP2 EQ ISZERO PUSH2 0x1AAA JUMPI PUSH2 0x1AA9 PUSH2 0x1B10 JUMP JUMPDEST JUMPDEST POP SWAP2 SWAP1 POP JUMP JUMPDEST PUSH2 0x1AB9 DUP3 PUSH2 0x1B82 JUMP JUMPDEST DUP2 ADD DUP2 DUP2 LT PUSH8 0xFFFFFFFFFFFFFFFF DUP3 GT OR ISZERO PUSH2 0x1AD8 JUMPI PUSH2 0x1AD7 PUSH2 0x1B3F JUMP JUMPDEST JUMPDEST DUP1 PUSH1 0x40 MSTORE POP POP POP JUMP JUMPDEST PUSH32 0x4E487B7100000000000000000000000000000000000000000000000000000000 PUSH1 0x0 MSTORE PUSH1 0x11 PUSH1 0x4 MSTORE PUSH1 0x24 PUSH1 0x0 REVERT JUMPDEST PUSH32 0x4E487B7100000000000000000000000000000000000000000000000000000000 PUSH1 0x0 MSTORE PUSH1 0x22 PUSH1 0x4 MSTORE PUSH1 0x24 PUSH1 0x0 REVERT JUMPDEST PUSH32 0x4E487B7100000000000000000000000000000000000000000000000000000000 PUSH1 0x0 MSTORE PUSH1 0x41 PUSH1 0x4 MSTORE PUSH1 0x24 PUSH1 0x0 REVERT JUMPDEST PUSH1 0x0 DUP1 REVERT JUMPDEST PUSH1 0x0 DUP1 REVERT JUMPDEST PUSH1 0x0 DUP1 REVERT JUMPDEST PUSH1 0x0 DUP1 REVERT JUMPDEST PUSH1 0x0 PUSH1 0x1F NOT PUSH1 0x1F DUP4 ADD AND SWAP1 POP SWAP2 SWAP1 POP JUMP JUMPDEST PUSH32 0x696E76616C696420746F6B656E49640000000000000000000000000000000000 PUSH1 0x0 DUP3 ADD MSTORE POP JUMP JUMPDEST PUSH32 0x696E76616C696420544F20616464726573730000000000000000000000000000 PUSH1 0x0 DUP3 ADD MSTORE POP JUMP JUMPDEST PUSH32 0x6E6F742041757468000000000000000000000000000000000000000000000000 PUSH1 0x0 DUP3 ADD MSTORE POP JUMP JUMPDEST PUSH32 0x6E6F74206D696E74656400000000000000000000000000000000000000000000 PUSH1 0x0 DUP3 ADD MSTORE POP JUMP JUMPDEST PUSH32 0x696E76616C6964206F70657261746F7200000000000000000000000000000000 PUSH1 0x0 DUP3 ADD MSTORE POP JUMP JUMPDEST PUSH32 0x616C7265616479206D696E746564000000000000000000000000000000000000 PUSH1 0x0 DUP3 ADD MSTORE POP JUMP JUMPDEST PUSH32 0x796F752063616E207472616E66657220796F757273656C660000000000000000 PUSH1 0x0 DUP3 ADD MSTORE POP JUMP JUMPDEST PUSH2 0x1CBB DUP2 PUSH2 0x19C8 JUMP JUMPDEST DUP2 EQ PUSH2 0x1CC6 JUMPI PUSH1 0x0 DUP1 REVERT JUMPDEST POP JUMP JUMPDEST PUSH2 0x1CD2 DUP2 PUSH2 0x19DA JUMP JUMPDEST DUP2 EQ PUSH2 0x1CDD JUMPI PUSH1 0x0 DUP1 REVERT JUMPDEST POP JUMP JUMPDEST PUSH2 0x1CE9 DUP2 PUSH2 0x19E6 JUMP JUMPDEST DUP2 EQ PUSH2 0x1CF4 JUMPI PUSH1 0x0 DUP1 REVERT JUMPDEST POP JUMP JUMPDEST PUSH2 0x1D00 DUP2 PUSH2 0x1A32 JUMP JUMPDEST DUP2 EQ PUSH2 0x1D0B JUMPI PUSH1 0x0 DUP1 REVERT JUMPDEST POP JUMP INVALID LOG2 PUSH5 0x6970667358 0x22 SLT KECCAK256 CALLDATALOAD 0xC5 NOT PUSH4 0xA4F2ECF 0x4B PUSH26 0xBA60F889728B970A4883AAE076F35AAB01E3187D769264736F6C PUSH4 0x43000807 STOP CALLER "
				},
				"gasEstimates": {
					"creation": {
						"codeDepositCost": "1498400",
						"executionCost": "infinite",
						"totalCost": "infinite"
					},
					"external": {
						"approve(address,uint256)": "29227",
						"balanceOf(address)": "2864",
						"getApproved(uint256)": "2933",
						"isApprovedForAll(address,address)": "infinite",
						"mint(address,uint256,string)": "infinite",
						"name()": "infinite",
						"ownerOf(uint256)": "2932",
						"safeTransferFrom(address,address,uint256)": "infinite",
						"safeTransferFrom(address,address,uint256,bytes)": "infinite",
						"setApprovalForAll(address,bool)": "infinite",
						"supportsInterface(bytes4)": "781",
						"symbol()": "infinite",
						"tokenName()": "infinite",
						"tokenSymbol()": "infinite",
						"tokenURI(uint256)": "infinite",
						"transferFrom(address,address,uint256)": "infinite"
					}
				},
				"methodIdentifiers": {
					"approve(address,uint256)": "095ea7b3",
					"balanceOf(address)": "70a08231",
					"getApproved(uint256)": "081812fc",
					"isApprovedForAll(address,address)": "e985e9c5",
					"mint(address,uint256,string)": "d3fc9864",
					"name()": "06fdde03",
					"ownerOf(uint256)": "6352211e",
					"safeTransferFrom(address,address,uint256)": "42842e0e",
					"safeTransferFrom(address,address,uint256,bytes)": "b88d4fde",
					"setApprovalForAll(address,bool)": "a22cb465",
					"supportsInterface(bytes4)": "01ffc9a7",
					"symbol()": "95d89b41",
					"tokenName()": "6c02a931",
					"tokenSymbol()": "7b61c320",
					"tokenURI(uint256)": "c87b56dd",
					"transferFrom(address,address,uint256)": "23b872dd"
				}
			},
			"storageLayout": {
				"storage": [
					{
						"astId": 151,
						"contract": "mokkozi/week3/erc721.sol:minionToken",
						"label": "tokenName",
						"offset": 0,
						"slot": "0",
						"type": "t_string_storage"
					},
					{
						"astId": 154,
						"contract": "mokkozi/week3/erc721.sol:minionToken",
						"label": "tokenSymbol",
						"offset": 0,
						"slot": "1",
						"type": "t_string_storage"
					},
					{
						"astId": 158,
						"contract": "mokkozi/week3/erc721.sol:minionToken",
						"label": "tokenURIs",
						"offset": 0,
						"slot": "2",
						"type": "t_mapping(t_uint256,t_string_storage)"
					},
					{
						"astId": 162,
						"contract": "mokkozi/week3/erc721.sol:minionToken",
						"label": "balanceByOwner",
						"offset": 0,
						"slot": "3",
						"type": "t_mapping(t_address,t_uint256)"
					},
					{
						"astId": 166,
						"contract": "mokkozi/week3/erc721.sol:minionToken",
						"label": "ownerByTokenId",
						"offset": 0,
						"slot": "4",
						"type": "t_mapping(t_uint256,t_address)"
					},
					{
						"astId": 170,
						"contract": "mokkozi/week3/erc721.sol:minionToken",
						"label": "approveOfTokenId",
						"offset": 0,
						"slot": "5",
						"type": "t_mapping(t_uint256,t_address)"
					},
					{
						"astId": 176,
						"contract": "mokkozi/week3/erc721.sol:minionToken",
						"label": "approvedOfOwner",
						"offset": 0,
						"slot": "6",
						"type": "t_mapping(t_address,t_mapping(t_address,t_bool))"
					}
				],
				"types": {
					"t_address": {
						"encoding": "inplace",
						"label": "address",
						"numberOfBytes": "20"
					},
					"t_bool": {
						"encoding": "inplace",
						"label": "bool",
						"numberOfBytes": "1"
					},
					"t_mapping(t_address,t_bool)": {
						"encoding": "mapping",
						"key": "t_address",
						"label": "mapping(address => bool)",
						"numberOfBytes": "32",
						"value": "t_bool"
					},
					"t_mapping(t_address,t_mapping(t_address,t_bool))": {
						"encoding": "mapping",
						"key": "t_address",
						"label": "mapping(address => mapping(address => bool))",
						"numberOfBytes": "32",
						"value": "t_mapping(t_address,t_bool)"
					},
					"t_mapping(t_address,t_uint256)": {
						"encoding": "mapping",
						"key": "t_address",
						"label": "mapping(address => uint256)",
						"numberOfBytes": "32",
						"value": "t_uint256"
					},
					"t_mapping(t_uint256,t_address)": {
						"encoding": "mapping",
						"key": "t_uint256",
						"label": "mapping(uint256 => address)",
						"numberOfBytes": "32",
						"value": "t_address"
					},
					"t_mapping(t_uint256,t_string_storage)": {
						"encoding": "mapping",
						"key": "t_uint256",
						"label": "mapping(uint256 => string)",
						"numberOfBytes": "32",
						"value": "t_string_storage"
					},
					"t_string_storage": {
						"encoding": "bytes",
						"label": "string",
						"numberOfBytes": "32"
					},
					"t_uint256": {
						"encoding": "inplace",
						"label": "uint256",
						"numberOfBytes": "32"
					}
				}
			},
			"userdoc": {
				"kind": "user",
				"methods": {
					"approve(address,uint256)": {
						"notice": "Change or reaffirm the approved address for an NFT"
					},
					"balanceOf(address)": {
						"notice": "Count all NFTs assigned to an owner"
					},
					"getApproved(uint256)": {
						"notice": "Get the approved address for a single NFT"
					},
					"isApprovedForAll(address,address)": {
						"notice": "Query if an address is an authorized operator for another address"
					},
					"name()": {
						"notice": "A descriptive name for a collection of NFTs in this contract"
					},
					"ownerOf(uint256)": {
						"notice": "Find the owner of an NFT"
					},
					"safeTransferFrom(address,address,uint256)": {
						"notice": "Transfers the ownership of an NFT from one address to another address"
					},
					"safeTransferFrom(address,address,uint256,bytes)": {
						"notice": "Transfers the ownership of an NFT from one address to another address"
					},
					"setApprovalForAll(address,bool)": {
						"notice": "Enable or disable approval for a third party (\"operator\") to manage  all of `msg.sender`'s assets"
					},
					"supportsInterface(bytes4)": {
						"notice": "Query if a contract implements an interface"
					},
					"symbol()": {
						"notice": "An abbreviated name for NFTs in this contract"
					},
					"tokenURI(uint256)": {
						"notice": "A distinct Uniform Resource Identifier (URI) for a given asset."
					},
					"transferFrom(address,address,uint256)": {
						"notice": "Transfer ownership of an NFT -- THE CALLER IS RESPONSIBLE  TO CONFIRM THAT `_to` IS CAPABLE OF RECEIVING NFTS OR ELSE  THEY MAY BE PERMANENTLY LOST"
					}
				},
				"version": 1
			}
		}
	}
}