{
	"mokkozi/week3/erc721.sol": {
		"minionToken": {
			"abi": [
				{
					"anonymous": false,
					"inputs": [
						{
							"indexed": true,
							"internalType": "address",
							"name": "owner",
							"type": "address"
						},
						{
							"indexed": true,
							"internalType": "address",
							"name": "approved",
							"type": "address"
						},
						{
							"indexed": true,
							"internalType": "uint256",
							"name": "tokenId",
							"type": "uint256"
						}
					],
					"name": "Approval",
					"type": "event"
				},
				{
					"anonymous": false,
					"inputs": [
						{
							"indexed": true,
							"internalType": "address",
							"name": "owner",
							"type": "address"
						},
						{
							"indexed": true,
							"internalType": "address",
							"name": "operator",
							"type": "address"
						},
						{
							"indexed": false,
							"internalType": "bool",
							"name": "approved",
							"type": "bool"
						}
					],
					"name": "ApprovalForAll",
					"type": "event"
				},
				{
					"anonymous": false,
					"inputs": [
						{
							"indexed": true,
							"internalType": "address",
							"name": "from",
							"type": "address"
						},
						{
							"indexed": true,
							"internalType": "address",
							"name": "to",
							"type": "address"
						},
						{
							"indexed": true,
							"internalType": "uint256",
							"name": "tokenId",
							"type": "uint256"
						}
					],
					"name": "Transfer",
					"type": "event"
				},
				{
					"inputs": [
						{
							"internalType": "address",
							"name": "approved",
							"type": "address"
						},
						{
							"internalType": "uint256",
							"name": "tokenId",
							"type": "uint256"
						}
					],
					"name": "approve",
					"outputs": [],
					"stateMutability": "payable",
					"type": "function"
				},
				{
					"inputs": [
						{
							"internalType": "address",
							"name": "owner",
							"type": "address"
						}
					],
					"name": "balanceOf",
					"outputs": [
						{
							"internalType": "uint256",
							"name": "",
							"type": "uint256"
						}
					],
					"stateMutability": "view",
					"type": "function"
				},
				{
					"inputs": [
						{
							"internalType": "uint256",
							"name": "tokenId",
							"type": "uint256"
						}
					],
					"name": "getApproved",
					"outputs": [
						{
							"internalType": "address",
							"name": "",
							"type": "address"
						}
					],
					"stateMutability": "view",
					"type": "function"
				},
				{
					"inputs": [
						{
							"internalType": "address",
							"name": "owner",
							"type": "address"
						},
						{
							"internalType": "address",
							"name": "operator",
							"type": "address"
						}
					],
					"name": "isApprovedForAll",
					"outputs": [
						{
							"internalType": "bool",
							"name": "",
							"type": "bool"
						}
					],
					"stateMutability": "view",
					"type": "function"
				},
				{
					"inputs": [
						{
							"internalType": "address",
							"name": "to",
							"type": "address"
						},
						{
							"internalType": "uint256",
							"name": "tokenId",
							"type": "uint256"
						},
						{
							"internalType": "string",
							"name": "uri",
							"type": "string"
						}
					],
					"name": "mint",
					"outputs": [],
					"stateMutability": "nonpayable",
					"type": "function"
				},
				{
					"inputs": [],
					"name": "name",
					"outputs": [
						{
							"internalType": "string",
							"name": "_name",
							"type": "string"
						}
					],
					"stateMutability": "view",
					"type": "function"
				},
				{
					"inputs": [
						{
							"internalType": "uint256",
							"name": "tokenId",
							"type": "uint256"
						}
					],
					"name": "ownerOf",
					"outputs": [
						{
							"internalType": "address",
							"name": "",
							"type": "address"
						}
					],
					"stateMutability": "view",
					"type": "function"
				},
				{
					"inputs": [
						{
							"internalType": "address",
							"name": "from",
							"type": "address"
						},
						{
							"internalType": "address",
							"name": "to",
							"type": "address"
						},
						{
							"internalType": "uint256",
							"name": "tokenId",
							"type": "uint256"
						}
					],
					"name": "safeTransferFrom",
					"outputs": [],
					"stateMutability": "payable",
					"type": "function"
				},
				{
					"inputs": [
						{
							"internalType": "address",
							"name": "from",
							"type": "address"
						},
						{
							"internalType": "address",
							"name": "to",
							"type": "address"
						},
						{
							"internalType": "uint256",
							"name": "tokenId",
							"type": "uint256"
						},
						{
							"internalType": "bytes",
							"name": "data",
							"type": "bytes"
						}
					],
					"name": "safeTransferFrom",
					"outputs": [],
					"stateMutability": "payable",
					"type": "function"
				},
				{
					"inputs": [
						{
							"internalType": "address",
							"name": "operator",
							"type": "address"
						},
						{
							"internalType": "bool",
							"name": "approved",
							"type": "bool"
						}
					],
					"name": "setApprovalForAll",
					"outputs": [],
					"stateMutability": "nonpayable",
					"type": "function"
				},
				{
					"inputs": [
						{
							"internalType": "bytes4",
							"name": "interfaceID",
							"type": "bytes4"
						}
					],
					"name": "supportsInterface",
					"outputs": [
						{
							"internalType": "bool",
							"name": "",
							"type": "bool"
						}
					],
					"stateMutability": "pure",
					"type": "function"
				},
				{
					"inputs": [],
					"name": "symbol",
					"outputs": [
						{
							"internalType": "string",
							"name": "_symbol",
							"type": "string"
						}
					],
					"stateMutability": "view",
					"type": "function"
				},
				{
					"inputs": [],
					"name": "tokenName",
					"outputs": [
						{
							"internalType": "string",
							"name": "",
							"type": "string"
						}
					],
					"stateMutability": "view",
					"type": "function"
				},
				{
					"inputs": [],
					"name": "tokenSymbol",
					"outputs": [
						{
							"internalType": "string",
							"name": "",
							"type": "string"
						}
					],
					"stateMutability": "view",
					"type": "function"
				},
				{
					"inputs": [
						{
							"internalType": "uint256",
							"name": "_tokenId",
							"type": "uint256"
						}
					],
					"name": "tokenURI",
					"outputs": [
						{
							"internalType": "string",
							"name": "",
							"type": "string"
						}
					],
					"stateMutability": "view",
					"type": "function"
				},
				{
					"inputs": [
						{
							"internalType": "address",
							"name": "from",
							"type": "address"
						},
						{
							"internalType": "address",
							"name": "to",
							"type": "address"
						},
						{
							"internalType": "uint256",
							"name": "tokenId",
							"type": "uint256"
						}
					],
					"name": "transferFrom",
					"outputs": [],
					"stateMutability": "payable",
					"type": "function"
				}
			],
			"devdoc": {
				"kind": "dev",
				"methods": {
					"approve(address,uint256)": {
						"details": "The zero address indicates there is no approved address.  Throws unless `msg.sender` is the current NFT owner, or an authorized  operator of the current owner.",
						"params": {
							"approved": "The new approved NFT controller",
							"tokenId": "The NFT to approve"
						}
					},
					"balanceOf(address)": {
						"details": "NFTs assigned to the zero address are considered invalid, and this  function throws for queries about the zero address.",
						"params": {
							"owner": "An address for whom to query the balance"
						},
						"returns": {
							"_0": "The number of NFTs owned by `_owner`, possibly zero"
						}
					},
					"getApproved(uint256)": {
						"details": "Throws if `_tokenId` is not a valid NFT.",
						"params": {
							"tokenId": "The NFT to find the approved address for"
						},
						"returns": {
							"_0": "The approved address for this NFT, or the zero address if there is none"
						}
					},
					"isApprovedForAll(address,address)": {
						"params": {
							"operator": "The address that acts on behalf of the owner",
							"owner": "The address that owns the NFTs"
						},
						"returns": {
							"_0": "True if `_operator` is an approved operator for `_owner`, false otherwise"
						}
					},
					"ownerOf(uint256)": {
						"details": "NFTs assigned to zero address are considered invalid, and queries  about them do throw.",
						"params": {
							"tokenId": "The identifier for an NFT"
						},
						"returns": {
							"_0": "The address of the owner of the NFT"
						}
					},
					"safeTransferFrom(address,address,uint256)": {
						"details": "This works identically to the other function with an extra data parameter,  except this function just sets data to \"\".",
						"params": {
							"from": "The current owner of the NFT",
							"to": "The new owner",
							"tokenId": "The NFT to transfer"
						}
					},
					"safeTransferFrom(address,address,uint256,bytes)": {
						"details": "Throws unless `msg.sender` is the current owner, an authorized  operator, or the approved address for this NFT. Throws if `_from` is  not the current owner. Throws if `_to` is the zero address. Throws if  `_tokenId` is not a valid NFT. When transfer is complete, this function  checks if `_to` is a smart contract (code size > 0). If so, it calls  `onERC721Received` on `_to` and throws if the return value is not  `bytes4(keccak256(\"onERC721Received(address,address,uint256,bytes)\"))`.",
						"params": {
							"data": "Additional data with no specified format, sent in call to `_to`",
							"from": "The current owner of the NFT",
							"to": "The new owner",
							"tokenId": "The NFT to transfer"
						}
					},
					"setApprovalForAll(address,bool)": {
						"details": "Emits the ApprovalForAll event. The contract MUST allow  multiple operators per owner.",
						"params": {
							"approved": "True if the operator is approved, false to revoke approval",
							"operator": "Address to add to the set of authorized operators"
						}
					},
					"supportsInterface(bytes4)": {
						"details": "Interface identification is specified in ERC-165. This function  uses less than 30,000 gas.",
						"params": {
							"interfaceID": "The interface identifier, as specified in ERC-165"
						},
						"returns": {
							"_0": "`true` if the contract implements `interfaceID` and  `interfaceID` is not 0xffffffff, `false` otherwise"
						}
					},
					"tokenURI(uint256)": {
						"details": "Throws if `_tokenId` is not a valid NFT. URIs are defined in RFC  3986. The URI may point to a JSON file that conforms to the \"ERC721  Metadata JSON Schema\"."
					},
					"transferFrom(address,address,uint256)": {
						"details": "Throws unless `msg.sender` is the current owner, an authorized  operator, or the approved address for this NFT. Throws if `_from` is  not the current owner. Throws if `_to` is the zero address. Throws if  `_tokenId` is not a valid NFT.",
						"params": {
							"from": "The current owner of the NFT",
							"to": "The new owner",
							"tokenId": "The NFT to transfer"
						}
					}
				},
				"version": 1
			},
			"evm": {
				"assembly": "    /* \"mokkozi/week3/erc721.sol\":7184:11806  contract minionToken is ERC721, ERC721Metadata... */\n  mstore(0x40, 0x80)\n    /* \"mokkozi/week3/erc721.sol\":7271:7305  string public tokenName = \"minion\" */\n  mload(0x40)\n  dup1\n  0x40\n  add\n  0x40\n  mstore\n  dup1\n  0x06\n  dup2\n  mstore\n  0x20\n  add\n  0x6d696e696f6e0000000000000000000000000000000000000000000000000000\n  dup2\n  mstore\n  pop\n  0x00\n  swap1\n  dup1\n  mload\n  swap1\n  0x20\n  add\n  swap1\n  tag_1\n  swap3\n  swap2\n  swap1\n  tag_2\n  jump\t// in\ntag_1:\n  pop\n    /* \"mokkozi/week3/erc721.sol\":7311:7344  string public tokenSymbol = \"MIN\" */\n  mload(0x40)\n  dup1\n  0x40\n  add\n  0x40\n  mstore\n  dup1\n  0x03\n  dup2\n  mstore\n  0x20\n  add\n  0x4d494e0000000000000000000000000000000000000000000000000000000000\n  dup2\n  mstore\n  pop\n  0x01\n  swap1\n  dup1\n  mload\n  swap1\n  0x20\n  add\n  swap1\n  tag_3\n  swap3\n  swap2\n  swap1\n  tag_2\n  jump\t// in\ntag_3:\n  pop\n    /* \"mokkozi/week3/erc721.sol\":7184:11806  contract minionToken is ERC721, ERC721Metadata... */\n  callvalue\n  dup1\n  iszero\n  tag_4\n  jumpi\n  0x00\n  dup1\n  revert\ntag_4:\n  pop\n  jump(tag_5)\ntag_2:\n  dup3\n  dup1\n  sload\n  tag_6\n  swap1\n  tag_7\n  jump\t// in\ntag_6:\n  swap1\n  0x00\n  mstore\n  keccak256(0x00, 0x20)\n  swap1\n  0x1f\n  add\n  0x20\n  swap1\n  div\n  dup2\n  add\n  swap3\n  dup3\n  tag_9\n  jumpi\n  0x00\n  dup6\n  sstore\n  jump(tag_8)\ntag_9:\n  dup3\n  0x1f\n  lt\n  tag_10\n  jumpi\n  dup1\n  mload\n  not(0xff)\n  and\n  dup4\n  dup1\n  add\n  or\n  dup6\n  sstore\n  jump(tag_8)\ntag_10:\n  dup3\n  dup1\n  add\n  0x01\n  add\n  dup6\n  sstore\n  dup3\n  iszero\n  tag_8\n  jumpi\n  swap2\n  dup3\n  add\ntag_11:\n  dup3\n  dup2\n  gt\n  iszero\n  tag_12\n  jumpi\n  dup3\n  mload\n  dup3\n  sstore\n  swap2\n  0x20\n  add\n  swap2\n  swap1\n  0x01\n  add\n  swap1\n  jump(tag_11)\ntag_12:\ntag_8:\n  pop\n  swap1\n  pop\n  tag_13\n  swap2\n  swap1\n  tag_14\n  jump\t// in\ntag_13:\n  pop\n  swap1\n  jump\t// out\ntag_14:\ntag_15:\n  dup1\n  dup3\n  gt\n  iszero\n  tag_16\n  jumpi\n  0x00\n  dup2\n  0x00\n  swap1\n  sstore\n  pop\n  0x01\n  add\n  jump(tag_15)\ntag_16:\n  pop\n  swap1\n  jump\t// out\n    /* \"#utility.yul\":7:327   */\ntag_7:\n    /* \"#utility.yul\":51:57   */\n  0x00\n    /* \"#utility.yul\":88:89   */\n  0x02\n    /* \"#utility.yul\":82:86   */\n  dup3\n    /* \"#utility.yul\":78:90   */\n  div\n    /* \"#utility.yul\":68:90   */\n  swap1\n  pop\n    /* \"#utility.yul\":135:136   */\n  0x01\n    /* \"#utility.yul\":129:133   */\n  dup3\n    /* \"#utility.yul\":125:137   */\n  and\n    /* \"#utility.yul\":156:174   */\n  dup1\n    /* \"#utility.yul\":146:227   */\n  tag_19\n  jumpi\n    /* \"#utility.yul\":212:216   */\n  0x7f\n    /* \"#utility.yul\":204:210   */\n  dup3\n    /* \"#utility.yul\":200:217   */\n  and\n    /* \"#utility.yul\":190:217   */\n  swap2\n  pop\n    /* \"#utility.yul\":146:227   */\ntag_19:\n    /* \"#utility.yul\":274:276   */\n  0x20\n    /* \"#utility.yul\":266:272   */\n  dup3\n    /* \"#utility.yul\":263:277   */\n  lt\n    /* \"#utility.yul\":243:261   */\n  dup2\n    /* \"#utility.yul\":240:278   */\n  eq\n    /* \"#utility.yul\":237:321   */\n  iszero\n  tag_20\n  jumpi\n    /* \"#utility.yul\":293:311   */\n  tag_21\n  tag_22\n  jump\t// in\ntag_21:\n    /* \"#utility.yul\":237:321   */\ntag_20:\n    /* \"#utility.yul\":58:327   */\n  pop\n    /* \"#utility.yul\":7:327   */\n  swap2\n  swap1\n  pop\n  jump\t// out\n    /* \"#utility.yul\":333:513   */\ntag_22:\n    /* \"#utility.yul\":381:458   */\n  0x4e487b7100000000000000000000000000000000000000000000000000000000\n    /* \"#utility.yul\":378:379   */\n  0x00\n    /* \"#utility.yul\":371:459   */\n  mstore\n    /* \"#utility.yul\":478:482   */\n  0x22\n    /* \"#utility.yul\":475:476   */\n  0x04\n    /* \"#utility.yul\":468:483   */\n  mstore\n    /* \"#utility.yul\":502:506   */\n  0x24\n    /* \"#utility.yul\":499:500   */\n  0x00\n    /* \"#utility.yul\":492:507   */\n  revert\n    /* \"mokkozi/week3/erc721.sol\":7184:11806  contract minionToken is ERC721, ERC721Metadata... */\ntag_5:\n  dataSize(sub_0)\n  dup1\n  dataOffset(sub_0)\n  0x00\n  codecopy\n  0x00\n  return\nstop\n\nsub_0: assembly {\n        /* \"mokkozi/week3/erc721.sol\":7184:11806  contract minionToken is ERC721, ERC721Metadata... */\n      mstore(0x40, 0x80)\n      jumpi(tag_1, lt(calldatasize, 0x04))\n      shr(0xe0, calldataload(0x00))\n      dup1\n      0x70a08231\n      gt\n      tag_18\n      jumpi\n      dup1\n      0xb88d4fde\n      gt\n      tag_19\n      jumpi\n      dup1\n      0xb88d4fde\n      eq\n      tag_14\n      jumpi\n      dup1\n      0xc87b56dd\n      eq\n      tag_15\n      jumpi\n      dup1\n      0xd3fc9864\n      eq\n      tag_16\n      jumpi\n      dup1\n      0xe985e9c5\n      eq\n      tag_17\n      jumpi\n      jump(tag_1)\n    tag_19:\n      dup1\n      0x70a08231\n      eq\n      tag_10\n      jumpi\n      dup1\n      0x7b61c320\n      eq\n      tag_11\n      jumpi\n      dup1\n      0x95d89b41\n      eq\n      tag_12\n      jumpi\n      dup1\n      0xa22cb465\n      eq\n      tag_13\n      jumpi\n      jump(tag_1)\n    tag_18:\n      dup1\n      0x23b872dd\n      gt\n      tag_20\n      jumpi\n      dup1\n      0x23b872dd\n      eq\n      tag_6\n      jumpi\n      dup1\n      0x42842e0e\n      eq\n      tag_7\n      jumpi\n      dup1\n      0x6352211e\n      eq\n      tag_8\n      jumpi\n      dup1\n      0x6c02a931\n      eq\n      tag_9\n      jumpi\n      jump(tag_1)\n    tag_20:\n      dup1\n      0x01ffc9a7\n      eq\n      tag_2\n      jumpi\n      dup1\n      0x06fdde03\n      eq\n      tag_3\n      jumpi\n      dup1\n      0x081812fc\n      eq\n      tag_4\n      jumpi\n      dup1\n      0x095ea7b3\n      eq\n      tag_5\n      jumpi\n    tag_1:\n      0x00\n      dup1\n      revert\n        /* \"mokkozi/week3/erc721.sol\":7676:8105  function supportsInterface(bytes4 interfaceID) public override pure returns(bool)... */\n    tag_2:\n      callvalue\n      dup1\n      iszero\n      tag_21\n      jumpi\n      0x00\n      dup1\n      revert\n    tag_21:\n      pop\n      tag_22\n      0x04\n      dup1\n      calldatasize\n      sub\n      dup2\n      add\n      swap1\n      tag_23\n      swap2\n      swap1\n      tag_24\n      jump\t// in\n    tag_23:\n      tag_25\n      jump\t// in\n    tag_22:\n      mload(0x40)\n      tag_26\n      swap2\n      swap1\n      tag_27\n      jump\t// in\n    tag_26:\n      mload(0x40)\n      dup1\n      swap2\n      sub\n      swap1\n      return\n        /* \"mokkozi/week3/erc721.sol\":8110:8214  function name() public override view returns (string memory _name)... */\n    tag_3:\n      callvalue\n      dup1\n      iszero\n      tag_28\n      jumpi\n      0x00\n      dup1\n      revert\n    tag_28:\n      pop\n      tag_29\n      tag_30\n      jump\t// in\n    tag_29:\n      mload(0x40)\n      tag_31\n      swap2\n      swap1\n      tag_32\n      jump\t// in\n    tag_31:\n      mload(0x40)\n      dup1\n      swap2\n      sub\n      swap1\n      return\n        /* \"mokkozi/week3/erc721.sol\":11231:11361  function getApproved(uint256 tokenId) public override view returns (address)... */\n    tag_4:\n      callvalue\n      dup1\n      iszero\n      tag_33\n      jumpi\n      0x00\n      dup1\n      revert\n    tag_33:\n      pop\n      tag_34\n      0x04\n      dup1\n      calldatasize\n      sub\n      dup2\n      add\n      swap1\n      tag_35\n      swap2\n      swap1\n      tag_36\n      jump\t// in\n    tag_35:\n      tag_37\n      jump\t// in\n    tag_34:\n      mload(0x40)\n      tag_38\n      swap2\n      swap1\n      tag_39\n      jump\t// in\n    tag_38:\n      mload(0x40)\n      dup1\n      swap2\n      sub\n      swap1\n      return\n        /* \"mokkozi/week3/erc721.sol\":10718:11225  function approve(address approved, uint256 tokenId) public override payable... */\n    tag_5:\n      tag_40\n      0x04\n      dup1\n      calldatasize\n      sub\n      dup2\n      add\n      swap1\n      tag_41\n      swap2\n      swap1\n      tag_42\n      jump\t// in\n    tag_41:\n      tag_43\n      jump\t// in\n    tag_40:\n      stop\n        /* \"mokkozi/week3/erc721.sol\":8733:8878  function transferFrom(address from, address to, uint256 tokenId) public override payable... */\n    tag_6:\n      tag_44\n      0x04\n      dup1\n      calldatasize\n      sub\n      dup2\n      add\n      swap1\n      tag_45\n      swap2\n      swap1\n      tag_46\n      jump\t// in\n    tag_45:\n      tag_47\n      jump\t// in\n    tag_44:\n      stop\n        /* \"mokkozi/week3/erc721.sol\":9062:10009  function safeTransferFrom(address from, address to, uint256 tokenId) public override payable... */\n    tag_7:\n      tag_48\n      0x04\n      dup1\n      calldatasize\n      sub\n      dup2\n      add\n      swap1\n      tag_49\n      swap2\n      swap1\n      tag_46\n      jump\t// in\n    tag_49:\n      tag_50\n      jump\t// in\n    tag_48:\n      stop\n        /* \"mokkozi/week3/erc721.sol\":8603:8727  function ownerOf(uint256 tokenId) public override view returns (address)... */\n    tag_8:\n      callvalue\n      dup1\n      iszero\n      tag_51\n      jumpi\n      0x00\n      dup1\n      revert\n    tag_51:\n      pop\n      tag_52\n      0x04\n      dup1\n      calldatasize\n      sub\n      dup2\n      add\n      swap1\n      tag_53\n      swap2\n      swap1\n      tag_36\n      jump\t// in\n    tag_53:\n      tag_54\n      jump\t// in\n    tag_52:\n      mload(0x40)\n      tag_55\n      swap2\n      swap1\n      tag_39\n      jump\t// in\n    tag_55:\n      mload(0x40)\n      dup1\n      swap2\n      sub\n      swap1\n      return\n        /* \"mokkozi/week3/erc721.sol\":7271:7305  string public tokenName = \"minion\" */\n    tag_9:\n      callvalue\n      dup1\n      iszero\n      tag_56\n      jumpi\n      0x00\n      dup1\n      revert\n    tag_56:\n      pop\n      tag_57\n      tag_58\n      jump\t// in\n    tag_57:\n      mload(0x40)\n      tag_59\n      swap2\n      swap1\n      tag_32\n      jump\t// in\n    tag_59:\n      mload(0x40)\n      dup1\n      swap2\n      sub\n      swap1\n      return\n        /* \"mokkozi/week3/erc721.sol\":8475:8597  function balanceOf(address owner) public override view returns (uint256)... */\n    tag_10:\n      callvalue\n      dup1\n      iszero\n      tag_60\n      jumpi\n      0x00\n      dup1\n      revert\n    tag_60:\n      pop\n      tag_61\n      0x04\n      dup1\n      calldatasize\n      sub\n      dup2\n      add\n      swap1\n      tag_62\n      swap2\n      swap1\n      tag_63\n      jump\t// in\n    tag_62:\n      tag_64\n      jump\t// in\n    tag_61:\n      mload(0x40)\n      tag_65\n      swap2\n      swap1\n      tag_66\n      jump\t// in\n    tag_65:\n      mload(0x40)\n      dup1\n      swap2\n      sub\n      swap1\n      return\n        /* \"mokkozi/week3/erc721.sol\":7311:7344  string public tokenSymbol = \"MIN\" */\n    tag_11:\n      callvalue\n      dup1\n      iszero\n      tag_67\n      jumpi\n      0x00\n      dup1\n      revert\n    tag_67:\n      pop\n      tag_68\n      tag_69\n      jump\t// in\n    tag_68:\n      mload(0x40)\n      tag_70\n      swap2\n      swap1\n      tag_32\n      jump\t// in\n    tag_70:\n      mload(0x40)\n      dup1\n      swap2\n      sub\n      swap1\n      return\n        /* \"mokkozi/week3/erc721.sol\":8220:8330  function symbol() public override view returns (string memory _symbol)... */\n    tag_12:\n      callvalue\n      dup1\n      iszero\n      tag_71\n      jumpi\n      0x00\n      dup1\n      revert\n    tag_71:\n      pop\n      tag_72\n      tag_73\n      jump\t// in\n    tag_72:\n      mload(0x40)\n      tag_74\n      swap2\n      swap1\n      tag_32\n      jump\t// in\n    tag_74:\n      mload(0x40)\n      dup1\n      swap2\n      sub\n      swap1\n      return\n        /* \"mokkozi/week3/erc721.sol\":11367:11643  function setApprovalForAll(address operator, bool approved) public override... */\n    tag_13:\n      callvalue\n      dup1\n      iszero\n      tag_75\n      jumpi\n      0x00\n      dup1\n      revert\n    tag_75:\n      pop\n      tag_76\n      0x04\n      dup1\n      calldatasize\n      sub\n      dup2\n      add\n      swap1\n      tag_77\n      swap2\n      swap1\n      tag_78\n      jump\t// in\n    tag_77:\n      tag_79\n      jump\t// in\n    tag_76:\n      stop\n        /* \"mokkozi/week3/erc721.sol\":8884:9056  function safeTransferFrom(address from, address to, uint256 tokenId, bytes memory data) public override payable... */\n    tag_14:\n      tag_80\n      0x04\n      dup1\n      calldatasize\n      sub\n      dup2\n      add\n      swap1\n      tag_81\n      swap2\n      swap1\n      tag_82\n      jump\t// in\n    tag_81:\n      tag_83\n      jump\t// in\n    tag_80:\n      stop\n        /* \"mokkozi/week3/erc721.sol\":8336:8464  function tokenURI(uint256 _tokenId) public override view returns (string memory)... */\n    tag_15:\n      callvalue\n      dup1\n      iszero\n      tag_84\n      jumpi\n      0x00\n      dup1\n      revert\n    tag_84:\n      pop\n      tag_85\n      0x04\n      dup1\n      calldatasize\n      sub\n      dup2\n      add\n      swap1\n      tag_86\n      swap2\n      swap1\n      tag_36\n      jump\t// in\n    tag_86:\n      tag_87\n      jump\t// in\n    tag_85:\n      mload(0x40)\n      tag_88\n      swap2\n      swap1\n      tag_32\n      jump\t// in\n    tag_88:\n      mload(0x40)\n      dup1\n      swap2\n      sub\n      swap1\n      return\n        /* \"mokkozi/week3/erc721.sol\":10289:10602  function mint(address to, uint256 tokenId, string memory uri) public... */\n    tag_16:\n      callvalue\n      dup1\n      iszero\n      tag_89\n      jumpi\n      0x00\n      dup1\n      revert\n    tag_89:\n      pop\n      tag_90\n      0x04\n      dup1\n      calldatasize\n      sub\n      dup2\n      add\n      swap1\n      tag_91\n      swap2\n      swap1\n      tag_92\n      jump\t// in\n    tag_91:\n      tag_93\n      jump\t// in\n    tag_90:\n      stop\n        /* \"mokkozi/week3/erc721.sol\":11649:11804  function isApprovedForAll(address owner, address operator) public override view returns (bool)... */\n    tag_17:\n      callvalue\n      dup1\n      iszero\n      tag_94\n      jumpi\n      0x00\n      dup1\n      revert\n    tag_94:\n      pop\n      tag_95\n      0x04\n      dup1\n      calldatasize\n      sub\n      dup2\n      add\n      swap1\n      tag_96\n      swap2\n      swap1\n      tag_97\n      jump\t// in\n    tag_96:\n      tag_98\n      jump\t// in\n    tag_95:\n      mload(0x40)\n      tag_99\n      swap2\n      swap1\n      tag_27\n      jump\t// in\n    tag_99:\n      mload(0x40)\n      dup1\n      swap2\n      sub\n      swap1\n      return\n        /* \"mokkozi/week3/erc721.sol\":7676:8105  function supportsInterface(bytes4 interfaceID) public override pure returns(bool)... */\n    tag_25:\n        /* \"mokkozi/week3/erc721.sol\":7752:7756  bool */\n      0x00\n        /* \"mokkozi/week3/erc721.sol\":7791:7815  type(ERC165).interfaceId */\n      0x01ffc9a700000000000000000000000000000000000000000000000000000000\n        /* \"mokkozi/week3/erc721.sol\":7776:7815  interfaceID == type(ERC165).interfaceId */\n      not(0xffffffffffffffffffffffffffffffffffffffffffffffffffffffff)\n      and\n        /* \"mokkozi/week3/erc721.sol\":7776:7787  interfaceID */\n      dup3\n        /* \"mokkozi/week3/erc721.sol\":7776:7815  interfaceID == type(ERC165).interfaceId */\n      not(0xffffffffffffffffffffffffffffffffffffffffffffffffffffffff)\n      and\n      eq\n        /* \"mokkozi/week3/erc721.sol\":7772:8077  if (interfaceID == type(ERC165).interfaceId)... */\n      iszero\n      tag_101\n      jumpi\n        /* \"mokkozi/week3/erc721.sol\":7846:7850  true */\n      0x01\n        /* \"mokkozi/week3/erc721.sol\":7839:7850  return true */\n      swap1\n      pop\n      jump(tag_100)\n        /* \"mokkozi/week3/erc721.sol\":7772:8077  if (interfaceID == type(ERC165).interfaceId)... */\n    tag_101:\n        /* \"mokkozi/week3/erc721.sol\":7895:7919  type(ERC721).interfaceId */\n      0x80ac58cd00000000000000000000000000000000000000000000000000000000\n        /* \"mokkozi/week3/erc721.sol\":7880:7919  interfaceID == type(ERC721).interfaceId */\n      not(0xffffffffffffffffffffffffffffffffffffffffffffffffffffffff)\n      and\n        /* \"mokkozi/week3/erc721.sol\":7880:7891  interfaceID */\n      dup3\n        /* \"mokkozi/week3/erc721.sol\":7880:7919  interfaceID == type(ERC721).interfaceId */\n      not(0xffffffffffffffffffffffffffffffffffffffffffffffffffffffff)\n      and\n      eq\n        /* \"mokkozi/week3/erc721.sol\":7875:8077  if ( interfaceID == type(ERC721).interfaceId)... */\n      iszero\n      tag_103\n      jumpi\n        /* \"mokkozi/week3/erc721.sol\":7950:7954  true */\n      0x01\n        /* \"mokkozi/week3/erc721.sol\":7943:7954  return true */\n      swap1\n      pop\n      jump(tag_100)\n        /* \"mokkozi/week3/erc721.sol\":7875:8077  if ( interfaceID == type(ERC721).interfaceId)... */\n    tag_103:\n        /* \"mokkozi/week3/erc721.sol\":7999:8031  type(ERC721Metadata).interfaceId */\n      0x5b5e139f00000000000000000000000000000000000000000000000000000000\n        /* \"mokkozi/week3/erc721.sol\":7984:8031  interfaceID == type(ERC721Metadata).interfaceId */\n      not(0xffffffffffffffffffffffffffffffffffffffffffffffffffffffff)\n      and\n        /* \"mokkozi/week3/erc721.sol\":7984:7995  interfaceID */\n      dup3\n        /* \"mokkozi/week3/erc721.sol\":7984:8031  interfaceID == type(ERC721Metadata).interfaceId */\n      not(0xffffffffffffffffffffffffffffffffffffffffffffffffffffffff)\n      and\n      eq\n        /* \"mokkozi/week3/erc721.sol\":7979:8077  if ( interfaceID == type(ERC721Metadata).interfaceId)... */\n      iszero\n      tag_105\n      jumpi\n        /* \"mokkozi/week3/erc721.sol\":8062:8066  true */\n      0x01\n        /* \"mokkozi/week3/erc721.sol\":8055:8066  return true */\n      swap1\n      pop\n      jump(tag_100)\n        /* \"mokkozi/week3/erc721.sol\":7979:8077  if ( interfaceID == type(ERC721Metadata).interfaceId)... */\n    tag_105:\n        /* \"mokkozi/week3/erc721.sol\":8093:8098  false */\n      0x00\n        /* \"mokkozi/week3/erc721.sol\":8086:8098  return false */\n      swap1\n      pop\n        /* \"mokkozi/week3/erc721.sol\":7676:8105  function supportsInterface(bytes4 interfaceID) public override pure returns(bool)... */\n    tag_100:\n      swap2\n      swap1\n      pop\n      jump\t// out\n        /* \"mokkozi/week3/erc721.sol\":8110:8214  function name() public override view returns (string memory _name)... */\n    tag_30:\n        /* \"mokkozi/week3/erc721.sol\":8156:8175  string memory _name */\n      0x60\n        /* \"mokkozi/week3/erc721.sol\":8198:8207  tokenName */\n      0x00\n        /* \"mokkozi/week3/erc721.sol\":8191:8207  return tokenName */\n      dup1\n      sload\n      tag_107\n      swap1\n      tag_108\n      jump\t// in\n    tag_107:\n      dup1\n      0x1f\n      add\n      0x20\n      dup1\n      swap2\n      div\n      mul\n      0x20\n      add\n      mload(0x40)\n      swap1\n      dup2\n      add\n      0x40\n      mstore\n      dup1\n      swap3\n      swap2\n      swap1\n      dup2\n      dup2\n      mstore\n      0x20\n      add\n      dup3\n      dup1\n      sload\n      tag_109\n      swap1\n      tag_108\n      jump\t// in\n    tag_109:\n      dup1\n      iszero\n      tag_110\n      jumpi\n      dup1\n      0x1f\n      lt\n      tag_111\n      jumpi\n      0x0100\n      dup1\n      dup4\n      sload\n      div\n      mul\n      dup4\n      mstore\n      swap2\n      0x20\n      add\n      swap2\n      jump(tag_110)\n    tag_111:\n      dup3\n      add\n      swap2\n      swap1\n      0x00\n      mstore\n      keccak256(0x00, 0x20)\n      swap1\n    tag_112:\n      dup2\n      sload\n      dup2\n      mstore\n      swap1\n      0x01\n      add\n      swap1\n      0x20\n      add\n      dup1\n      dup4\n      gt\n      tag_112\n      jumpi\n      dup3\n      swap1\n      sub\n      0x1f\n      and\n      dup3\n      add\n      swap2\n    tag_110:\n      pop\n      pop\n      pop\n      pop\n      pop\n      swap1\n      pop\n        /* \"mokkozi/week3/erc721.sol\":8110:8214  function name() public override view returns (string memory _name)... */\n      swap1\n      jump\t// out\n        /* \"mokkozi/week3/erc721.sol\":11231:11361  function getApproved(uint256 tokenId) public override view returns (address)... */\n    tag_37:\n        /* \"mokkozi/week3/erc721.sol\":11299:11306  address */\n      0x00\n        /* \"mokkozi/week3/erc721.sol\":11329:11345  approveOfTokenId */\n      0x05\n        /* \"mokkozi/week3/erc721.sol\":11329:11354  approveOfTokenId[tokenId] */\n      0x00\n        /* \"mokkozi/week3/erc721.sol\":11346:11353  tokenId */\n      dup4\n        /* \"mokkozi/week3/erc721.sol\":11329:11354  approveOfTokenId[tokenId] */\n      dup2\n      mstore\n      0x20\n      add\n      swap1\n      dup2\n      mstore\n      0x20\n      add\n      0x00\n      keccak256\n      0x00\n      swap1\n      sload\n      swap1\n      0x0100\n      exp\n      swap1\n      div\n      0xffffffffffffffffffffffffffffffffffffffff\n      and\n        /* \"mokkozi/week3/erc721.sol\":11322:11354  return approveOfTokenId[tokenId] */\n      swap1\n      pop\n        /* \"mokkozi/week3/erc721.sol\":11231:11361  function getApproved(uint256 tokenId) public override view returns (address)... */\n      swap2\n      swap1\n      pop\n      jump\t// out\n        /* \"mokkozi/week3/erc721.sol\":10718:11225  function approve(address approved, uint256 tokenId) public override payable... */\n    tag_43:\n        /* \"mokkozi/week3/erc721.sol\":10857:10875  address tokenOwner */\n      0x00\n        /* \"mokkozi/week3/erc721.sol\":10878:10892  ownerByTokenId */\n      0x04\n        /* \"mokkozi/week3/erc721.sol\":10878:10901  ownerByTokenId[tokenId] */\n      0x00\n        /* \"mokkozi/week3/erc721.sol\":10893:10900  tokenId */\n      dup4\n        /* \"mokkozi/week3/erc721.sol\":10878:10901  ownerByTokenId[tokenId] */\n      dup2\n      mstore\n      0x20\n      add\n      swap1\n      dup2\n      mstore\n      0x20\n      add\n      0x00\n      keccak256\n      0x00\n      swap1\n      sload\n      swap1\n      0x0100\n      exp\n      swap1\n      div\n      0xffffffffffffffffffffffffffffffffffffffff\n      and\n        /* \"mokkozi/week3/erc721.sol\":10857:10901  address tokenOwner = ownerByTokenId[tokenId] */\n      swap1\n      pop\n        /* \"mokkozi/week3/erc721.sol\":10982:10983  0 */\n      0x00\n        /* \"mokkozi/week3/erc721.sol\":10960:10984  tokenOwner != address(0) */\n      0xffffffffffffffffffffffffffffffffffffffff\n      and\n        /* \"mokkozi/week3/erc721.sol\":10960:10970  tokenOwner */\n      dup2\n        /* \"mokkozi/week3/erc721.sol\":10960:10984  tokenOwner != address(0) */\n      0xffffffffffffffffffffffffffffffffffffffff\n      and\n      eq\n      iszero\n        /* \"mokkozi/week3/erc721.sol\":10952:10999  require(tokenOwner != address(0), \"not minted\") */\n      tag_115\n      jumpi\n      mload(0x40)\n      0x08c379a000000000000000000000000000000000000000000000000000000000\n      dup2\n      mstore\n      0x04\n      add\n      tag_116\n      swap1\n      tag_117\n      jump\t// in\n    tag_116:\n      mload(0x40)\n      dup1\n      swap2\n      sub\n      swap1\n      revert\n    tag_115:\n        /* \"mokkozi/week3/erc721.sol\":11089:11099  msg.sender */\n      caller\n        /* \"mokkozi/week3/erc721.sol\":11075:11099  tokenOwner == msg.sender */\n      0xffffffffffffffffffffffffffffffffffffffff\n      and\n        /* \"mokkozi/week3/erc721.sol\":11075:11085  tokenOwner */\n      dup2\n        /* \"mokkozi/week3/erc721.sol\":11075:11099  tokenOwner == msg.sender */\n      0xffffffffffffffffffffffffffffffffffffffff\n      and\n      eq\n        /* \"mokkozi/week3/erc721.sol\":11067:11118  require(tokenOwner == msg.sender, \"now permission\") */\n      tag_118\n      jumpi\n      mload(0x40)\n      0x08c379a000000000000000000000000000000000000000000000000000000000\n      dup2\n      mstore\n      0x04\n      add\n      tag_119\n      swap1\n      tag_120\n      jump\t// in\n    tag_119:\n      mload(0x40)\n      dup1\n      swap2\n      sub\n      swap1\n      revert\n    tag_118:\n        /* \"mokkozi/week3/erc721.sol\":11156:11164  approved */\n      dup3\n        /* \"mokkozi/week3/erc721.sol\":11128:11144  approveOfTokenId */\n      0x05\n        /* \"mokkozi/week3/erc721.sol\":11128:11153  approveOfTokenId[tokenId] */\n      0x00\n        /* \"mokkozi/week3/erc721.sol\":11145:11152  tokenId */\n      dup5\n        /* \"mokkozi/week3/erc721.sol\":11128:11153  approveOfTokenId[tokenId] */\n      dup2\n      mstore\n      0x20\n      add\n      swap1\n      dup2\n      mstore\n      0x20\n      add\n      0x00\n      keccak256\n      0x00\n        /* \"mokkozi/week3/erc721.sol\":11128:11164  approveOfTokenId[tokenId] = approved */\n      0x0100\n      exp\n      dup2\n      sload\n      dup2\n      0xffffffffffffffffffffffffffffffffffffffff\n      mul\n      not\n      and\n      swap1\n      dup4\n      0xffffffffffffffffffffffffffffffffffffffff\n      and\n      mul\n      or\n      swap1\n      sstore\n      pop\n        /* \"mokkozi/week3/erc721.sol\":11210:11217  tokenId */\n      dup2\n        /* \"mokkozi/week3/erc721.sol\":11200:11208  approved */\n      dup4\n        /* \"mokkozi/week3/erc721.sol\":11179:11218  Approval(tokenOwner, approved, tokenId) */\n      0xffffffffffffffffffffffffffffffffffffffff\n      and\n        /* \"mokkozi/week3/erc721.sol\":11188:11198  tokenOwner */\n      dup3\n        /* \"mokkozi/week3/erc721.sol\":11179:11218  Approval(tokenOwner, approved, tokenId) */\n      0xffffffffffffffffffffffffffffffffffffffff\n      and\n      0x8c5be1e5ebec7d5bd14f71427d1e84f3dd0314c0f7b2291e5b200ac8c7c3b925\n      mload(0x40)\n      mload(0x40)\n      dup1\n      swap2\n      sub\n      swap1\n      log4\n        /* \"mokkozi/week3/erc721.sol\":10798:11225  {   // 소유권 이전의 원래 소유자 주소... */\n      pop\n        /* \"mokkozi/week3/erc721.sol\":10718:11225  function approve(address approved, uint256 tokenId) public override payable... */\n      pop\n      pop\n      jump\t// out\n        /* \"mokkozi/week3/erc721.sol\":8733:8878  function transferFrom(address from, address to, uint256 tokenId) public override payable... */\n    tag_47:\n        /* \"mokkozi/week3/erc721.sol\":8836:8871  safeTransferFrom(from, to, tokenId) */\n      tag_122\n        /* \"mokkozi/week3/erc721.sol\":8853:8857  from */\n      dup4\n        /* \"mokkozi/week3/erc721.sol\":8859:8861  to */\n      dup4\n        /* \"mokkozi/week3/erc721.sol\":8863:8870  tokenId */\n      dup4\n        /* \"mokkozi/week3/erc721.sol\":8836:8852  safeTransferFrom */\n      tag_50\n        /* \"mokkozi/week3/erc721.sol\":8836:8871  safeTransferFrom(from, to, tokenId) */\n      jump\t// in\n    tag_122:\n        /* \"mokkozi/week3/erc721.sol\":8733:8878  function transferFrom(address from, address to, uint256 tokenId) public override payable... */\n      pop\n      pop\n      pop\n      jump\t// out\n        /* \"mokkozi/week3/erc721.sol\":9062:10009  function safeTransferFrom(address from, address to, uint256 tokenId) public override payable... */\n    tag_50:\n        /* \"mokkozi/week3/erc721.sol\":9251:9252  0 */\n      0x00\n        /* \"mokkozi/week3/erc721.sol\":9237:9253  to != address(0) */\n      0xffffffffffffffffffffffffffffffffffffffff\n      and\n        /* \"mokkozi/week3/erc721.sol\":9237:9239  to */\n      dup3\n        /* \"mokkozi/week3/erc721.sol\":9237:9253  to != address(0) */\n      0xffffffffffffffffffffffffffffffffffffffff\n      and\n      eq\n      iszero\n        /* \"mokkozi/week3/erc721.sol\":9228:9276  require( to != address(0), \"invalid TO address\") */\n      tag_124\n      jumpi\n      mload(0x40)\n      0x08c379a000000000000000000000000000000000000000000000000000000000\n      dup2\n      mstore\n      0x04\n      add\n      tag_125\n      swap1\n      tag_126\n      jump\t// in\n    tag_125:\n      mload(0x40)\n      dup1\n      swap2\n      sub\n      swap1\n      revert\n    tag_124:\n        /* \"mokkozi/week3/erc721.sol\":9425:9443  address tokenOwner */\n      0x00\n        /* \"mokkozi/week3/erc721.sol\":9446:9460  ownerByTokenId */\n      0x04\n        /* \"mokkozi/week3/erc721.sol\":9446:9469  ownerByTokenId[tokenId] */\n      0x00\n        /* \"mokkozi/week3/erc721.sol\":9461:9468  tokenId */\n      dup4\n        /* \"mokkozi/week3/erc721.sol\":9446:9469  ownerByTokenId[tokenId] */\n      dup2\n      mstore\n      0x20\n      add\n      swap1\n      dup2\n      mstore\n      0x20\n      add\n      0x00\n      keccak256\n      0x00\n      swap1\n      sload\n      swap1\n      0x0100\n      exp\n      swap1\n      div\n      0xffffffffffffffffffffffffffffffffffffffff\n      and\n        /* \"mokkozi/week3/erc721.sol\":9425:9469  address tokenOwner = ownerByTokenId[tokenId] */\n      swap1\n      pop\n        /* \"mokkozi/week3/erc721.sol\":9510:9511  0 */\n      0x00\n        /* \"mokkozi/week3/erc721.sol\":9488:9512  tokenOwner != address(0) */\n      0xffffffffffffffffffffffffffffffffffffffff\n      and\n        /* \"mokkozi/week3/erc721.sol\":9488:9498  tokenOwner */\n      dup2\n        /* \"mokkozi/week3/erc721.sol\":9488:9512  tokenOwner != address(0) */\n      0xffffffffffffffffffffffffffffffffffffffff\n      and\n      eq\n      iszero\n        /* \"mokkozi/week3/erc721.sol\":9479:9532  require( tokenOwner != address(0), \"invalid tokenId\") */\n      tag_127\n      jumpi\n      mload(0x40)\n      0x08c379a000000000000000000000000000000000000000000000000000000000\n      dup2\n      mstore\n      0x04\n      add\n      tag_128\n      swap1\n      tag_129\n      jump\t// in\n    tag_128:\n      mload(0x40)\n      dup1\n      swap2\n      sub\n      swap1\n      revert\n    tag_127:\n        /* \"mokkozi/week3/erc721.sol\":9566:9570  from */\n      dup4\n        /* \"mokkozi/week3/erc721.sol\":9552:9570  tokenOwner == from */\n      0xffffffffffffffffffffffffffffffffffffffff\n      and\n        /* \"mokkozi/week3/erc721.sol\":9552:9562  tokenOwner */\n      dup2\n        /* \"mokkozi/week3/erc721.sol\":9552:9570  tokenOwner == from */\n      0xffffffffffffffffffffffffffffffffffffffff\n      and\n      eq\n        /* \"mokkozi/week3/erc721.sol\":9543:9583  require( tokenOwner == from, \"not Auth\") */\n      tag_130\n      jumpi\n      mload(0x40)\n      0x08c379a000000000000000000000000000000000000000000000000000000000\n      dup2\n      mstore\n      0x04\n      add\n      tag_131\n      swap1\n      tag_132\n      jump\t// in\n    tag_131:\n      mload(0x40)\n      dup1\n      swap2\n      sub\n      swap1\n      revert\n    tag_130:\n        /* \"mokkozi/week3/erc721.sol\":9611:9613  to */\n      dup3\n        /* \"mokkozi/week3/erc721.sol\":9603:9613  from != to */\n      0xffffffffffffffffffffffffffffffffffffffff\n      and\n        /* \"mokkozi/week3/erc721.sol\":9603:9607  from */\n      dup5\n        /* \"mokkozi/week3/erc721.sol\":9603:9613  from != to */\n      0xffffffffffffffffffffffffffffffffffffffff\n      and\n      eq\n      iszero\n        /* \"mokkozi/week3/erc721.sol\":9594:9643  require( from != to , \"you can tranfer yourself\") */\n      tag_133\n      jumpi\n      mload(0x40)\n      0x08c379a000000000000000000000000000000000000000000000000000000000\n      dup2\n      mstore\n      0x04\n      add\n      tag_134\n      swap1\n      tag_135\n      jump\t// in\n    tag_134:\n      mload(0x40)\n      dup1\n      swap2\n      sub\n      swap1\n      revert\n    tag_133:\n        /* \"mokkozi/week3/erc721.sol\":9677:9681  from */\n      dup4\n        /* \"mokkozi/week3/erc721.sol\":9663:9681  msg.sender == from */\n      0xffffffffffffffffffffffffffffffffffffffff\n      and\n        /* \"mokkozi/week3/erc721.sol\":9663:9673  msg.sender */\n      caller\n        /* \"mokkozi/week3/erc721.sol\":9663:9681  msg.sender == from */\n      0xffffffffffffffffffffffffffffffffffffffff\n      and\n      eq\n        /* \"mokkozi/week3/erc721.sol\":9663:9729  msg.sender == from... */\n      dup1\n      tag_136\n      jumpi\n      pop\n        /* \"mokkozi/week3/erc721.sol\":9718:9728  msg.sender */\n      caller\n        /* \"mokkozi/week3/erc721.sol\":9694:9728  getApproved(tokenId) == msg.sender */\n      0xffffffffffffffffffffffffffffffffffffffff\n      and\n        /* \"mokkozi/week3/erc721.sol\":9694:9714  getApproved(tokenId) */\n      tag_137\n        /* \"mokkozi/week3/erc721.sol\":9706:9713  tokenId */\n      dup4\n        /* \"mokkozi/week3/erc721.sol\":9694:9705  getApproved */\n      tag_37\n        /* \"mokkozi/week3/erc721.sol\":9694:9714  getApproved(tokenId) */\n      jump\t// in\n    tag_137:\n        /* \"mokkozi/week3/erc721.sol\":9694:9728  getApproved(tokenId) == msg.sender */\n      0xffffffffffffffffffffffffffffffffffffffff\n      and\n      eq\n        /* \"mokkozi/week3/erc721.sol\":9663:9729  msg.sender == from... */\n    tag_136:\n        /* \"mokkozi/week3/erc721.sol\":9663:9789  msg.sender == from... */\n      dup1\n      tag_138\n      jumpi\n      pop\n        /* \"mokkozi/week3/erc721.sol\":9785:9789  true */\n      0x01\n        /* \"mokkozi/week3/erc721.sol\":9741:9789  isApprovedForAll(tokenOwner, msg.sender) == true */\n      iszero\n      iszero\n        /* \"mokkozi/week3/erc721.sol\":9741:9781  isApprovedForAll(tokenOwner, msg.sender) */\n      tag_139\n        /* \"mokkozi/week3/erc721.sol\":9758:9768  tokenOwner */\n      dup3\n        /* \"mokkozi/week3/erc721.sol\":9770:9780  msg.sender */\n      caller\n        /* \"mokkozi/week3/erc721.sol\":9741:9757  isApprovedForAll */\n      tag_98\n        /* \"mokkozi/week3/erc721.sol\":9741:9781  isApprovedForAll(tokenOwner, msg.sender) */\n      jump\t// in\n    tag_139:\n        /* \"mokkozi/week3/erc721.sol\":9741:9789  isApprovedForAll(tokenOwner, msg.sender) == true */\n      iszero\n      iszero\n      eq\n        /* \"mokkozi/week3/erc721.sol\":9663:9789  msg.sender == from... */\n    tag_138:\n        /* \"mokkozi/week3/erc721.sol\":9654:9808  require( msg.sender == from... */\n      tag_140\n      jumpi\n      mload(0x40)\n      0x08c379a000000000000000000000000000000000000000000000000000000000\n      dup2\n      mstore\n      0x04\n      add\n      tag_141\n      swap1\n      tag_142\n      jump\t// in\n    tag_141:\n      mload(0x40)\n      dup1\n      swap2\n      sub\n      swap1\n      revert\n    tag_140:\n        /* \"mokkozi/week3/erc721.sol\":9826:9842  approveOfTokenId */\n      0x05\n        /* \"mokkozi/week3/erc721.sol\":9826:9851  approveOfTokenId[tokenId] */\n      0x00\n        /* \"mokkozi/week3/erc721.sol\":9843:9850  tokenId */\n      dup4\n        /* \"mokkozi/week3/erc721.sol\":9826:9851  approveOfTokenId[tokenId] */\n      dup2\n      mstore\n      0x20\n      add\n      swap1\n      dup2\n      mstore\n      0x20\n      add\n      0x00\n      keccak256\n      0x00\n        /* \"mokkozi/week3/erc721.sol\":9819:9851  delete approveOfTokenId[tokenId] */\n      0x0100\n      exp\n      dup2\n      sload\n      swap1\n      0xffffffffffffffffffffffffffffffffffffffff\n      mul\n      not\n      and\n      swap1\n      sstore\n        /* \"mokkozi/week3/erc721.sol\":9888:9890  to */\n      dup3\n        /* \"mokkozi/week3/erc721.sol\":9862:9876  ownerByTokenId */\n      0x04\n        /* \"mokkozi/week3/erc721.sol\":9862:9885  ownerByTokenId[tokenId] */\n      0x00\n        /* \"mokkozi/week3/erc721.sol\":9877:9884  tokenId */\n      dup5\n        /* \"mokkozi/week3/erc721.sol\":9862:9885  ownerByTokenId[tokenId] */\n      dup2\n      mstore\n      0x20\n      add\n      swap1\n      dup2\n      mstore\n      0x20\n      add\n      0x00\n      keccak256\n      0x00\n        /* \"mokkozi/week3/erc721.sol\":9862:9890  ownerByTokenId[tokenId] = to */\n      0x0100\n      exp\n      dup2\n      sload\n      dup2\n      0xffffffffffffffffffffffffffffffffffffffff\n      mul\n      not\n      and\n      swap1\n      dup4\n      0xffffffffffffffffffffffffffffffffffffffff\n      and\n      mul\n      or\n      swap1\n      sstore\n      pop\n        /* \"mokkozi/week3/erc721.sol\":9925:9926  1 */\n      0x01\n        /* \"mokkozi/week3/erc721.sol\":9901:9915  balanceByOwner */\n      0x03\n        /* \"mokkozi/week3/erc721.sol\":9901:9921  balanceByOwner[from] */\n      0x00\n        /* \"mokkozi/week3/erc721.sol\":9916:9920  from */\n      dup7\n        /* \"mokkozi/week3/erc721.sol\":9901:9921  balanceByOwner[from] */\n      0xffffffffffffffffffffffffffffffffffffffff\n      and\n      0xffffffffffffffffffffffffffffffffffffffff\n      and\n      dup2\n      mstore\n      0x20\n      add\n      swap1\n      dup2\n      mstore\n      0x20\n      add\n      0x00\n      keccak256\n      0x00\n        /* \"mokkozi/week3/erc721.sol\":9901:9926  balanceByOwner[from] -= 1 */\n      dup3\n      dup3\n      sload\n      tag_143\n      swap2\n      swap1\n      tag_144\n      jump\t// in\n    tag_143:\n      swap3\n      pop\n      pop\n      dup2\n      swap1\n      sstore\n      pop\n        /* \"mokkozi/week3/erc721.sol\":9958:9959  1 */\n      0x01\n        /* \"mokkozi/week3/erc721.sol\":9936:9950  balanceByOwner */\n      0x03\n        /* \"mokkozi/week3/erc721.sol\":9936:9954  balanceByOwner[to] */\n      0x00\n        /* \"mokkozi/week3/erc721.sol\":9951:9953  to */\n      dup6\n        /* \"mokkozi/week3/erc721.sol\":9936:9954  balanceByOwner[to] */\n      0xffffffffffffffffffffffffffffffffffffffff\n      and\n      0xffffffffffffffffffffffffffffffffffffffff\n      and\n      dup2\n      mstore\n      0x20\n      add\n      swap1\n      dup2\n      mstore\n      0x20\n      add\n      0x00\n      keccak256\n      0x00\n        /* \"mokkozi/week3/erc721.sol\":9936:9959  balanceByOwner[to] += 1 */\n      dup3\n      dup3\n      sload\n      tag_145\n      swap2\n      swap1\n      tag_146\n      jump\t// in\n    tag_145:\n      swap3\n      pop\n      pop\n      dup2\n      swap1\n      sstore\n      pop\n        /* \"mokkozi/week3/erc721.sol\":9994:10001  tokenId */\n      dup2\n        /* \"mokkozi/week3/erc721.sol\":9990:9992  to */\n      dup4\n        /* \"mokkozi/week3/erc721.sol\":9975:10002  Transfer(from, to, tokenId) */\n      0xffffffffffffffffffffffffffffffffffffffff\n      and\n        /* \"mokkozi/week3/erc721.sol\":9984:9988  from */\n      dup6\n        /* \"mokkozi/week3/erc721.sol\":9975:10002  Transfer(from, to, tokenId) */\n      0xffffffffffffffffffffffffffffffffffffffff\n      and\n      0xddf252ad1be2c89b69c2b068fc378daa952ba7f163c4a11628f55a4df523b3ef\n      mload(0x40)\n      mload(0x40)\n      dup1\n      swap2\n      sub\n      swap1\n      log4\n        /* \"mokkozi/week3/erc721.sol\":9159:10009  {   ... */\n      pop\n        /* \"mokkozi/week3/erc721.sol\":9062:10009  function safeTransferFrom(address from, address to, uint256 tokenId) public override payable... */\n      pop\n      pop\n      pop\n      jump\t// out\n        /* \"mokkozi/week3/erc721.sol\":8603:8727  function ownerOf(uint256 tokenId) public override view returns (address)... */\n    tag_54:\n        /* \"mokkozi/week3/erc721.sol\":8667:8674  address */\n      0x00\n        /* \"mokkozi/week3/erc721.sol\":8697:8711  ownerByTokenId */\n      0x04\n        /* \"mokkozi/week3/erc721.sol\":8697:8720  ownerByTokenId[tokenId] */\n      0x00\n        /* \"mokkozi/week3/erc721.sol\":8712:8719  tokenId */\n      dup4\n        /* \"mokkozi/week3/erc721.sol\":8697:8720  ownerByTokenId[tokenId] */\n      dup2\n      mstore\n      0x20\n      add\n      swap1\n      dup2\n      mstore\n      0x20\n      add\n      0x00\n      keccak256\n      0x00\n      swap1\n      sload\n      swap1\n      0x0100\n      exp\n      swap1\n      div\n      0xffffffffffffffffffffffffffffffffffffffff\n      and\n        /* \"mokkozi/week3/erc721.sol\":8690:8720  return ownerByTokenId[tokenId] */\n      swap1\n      pop\n        /* \"mokkozi/week3/erc721.sol\":8603:8727  function ownerOf(uint256 tokenId) public override view returns (address)... */\n      swap2\n      swap1\n      pop\n      jump\t// out\n        /* \"mokkozi/week3/erc721.sol\":7271:7305  string public tokenName = \"minion\" */\n    tag_58:\n      0x00\n      dup1\n      sload\n      tag_148\n      swap1\n      tag_108\n      jump\t// in\n    tag_148:\n      dup1\n      0x1f\n      add\n      0x20\n      dup1\n      swap2\n      div\n      mul\n      0x20\n      add\n      mload(0x40)\n      swap1\n      dup2\n      add\n      0x40\n      mstore\n      dup1\n      swap3\n      swap2\n      swap1\n      dup2\n      dup2\n      mstore\n      0x20\n      add\n      dup3\n      dup1\n      sload\n      tag_149\n      swap1\n      tag_108\n      jump\t// in\n    tag_149:\n      dup1\n      iszero\n      tag_150\n      jumpi\n      dup1\n      0x1f\n      lt\n      tag_151\n      jumpi\n      0x0100\n      dup1\n      dup4\n      sload\n      div\n      mul\n      dup4\n      mstore\n      swap2\n      0x20\n      add\n      swap2\n      jump(tag_150)\n    tag_151:\n      dup3\n      add\n      swap2\n      swap1\n      0x00\n      mstore\n      keccak256(0x00, 0x20)\n      swap1\n    tag_152:\n      dup2\n      sload\n      dup2\n      mstore\n      swap1\n      0x01\n      add\n      swap1\n      0x20\n      add\n      dup1\n      dup4\n      gt\n      tag_152\n      jumpi\n      dup3\n      swap1\n      sub\n      0x1f\n      and\n      dup3\n      add\n      swap2\n    tag_150:\n      pop\n      pop\n      pop\n      pop\n      pop\n      dup2\n      jump\t// out\n        /* \"mokkozi/week3/erc721.sol\":8475:8597  function balanceOf(address owner) public override view returns (uint256)... */\n    tag_64:\n        /* \"mokkozi/week3/erc721.sol\":8539:8546  uint256 */\n      0x00\n        /* \"mokkozi/week3/erc721.sol\":8569:8583  balanceByOwner */\n      0x03\n        /* \"mokkozi/week3/erc721.sol\":8569:8590  balanceByOwner[owner] */\n      0x00\n        /* \"mokkozi/week3/erc721.sol\":8584:8589  owner */\n      dup4\n        /* \"mokkozi/week3/erc721.sol\":8569:8590  balanceByOwner[owner] */\n      0xffffffffffffffffffffffffffffffffffffffff\n      and\n      0xffffffffffffffffffffffffffffffffffffffff\n      and\n      dup2\n      mstore\n      0x20\n      add\n      swap1\n      dup2\n      mstore\n      0x20\n      add\n      0x00\n      keccak256\n      sload\n        /* \"mokkozi/week3/erc721.sol\":8562:8590  return balanceByOwner[owner] */\n      swap1\n      pop\n        /* \"mokkozi/week3/erc721.sol\":8475:8597  function balanceOf(address owner) public override view returns (uint256)... */\n      swap2\n      swap1\n      pop\n      jump\t// out\n        /* \"mokkozi/week3/erc721.sol\":7311:7344  string public tokenSymbol = \"MIN\" */\n    tag_69:\n      0x01\n      dup1\n      sload\n      tag_154\n      swap1\n      tag_108\n      jump\t// in\n    tag_154:\n      dup1\n      0x1f\n      add\n      0x20\n      dup1\n      swap2\n      div\n      mul\n      0x20\n      add\n      mload(0x40)\n      swap1\n      dup2\n      add\n      0x40\n      mstore\n      dup1\n      swap3\n      swap2\n      swap1\n      dup2\n      dup2\n      mstore\n      0x20\n      add\n      dup3\n      dup1\n      sload\n      tag_155\n      swap1\n      tag_108\n      jump\t// in\n    tag_155:\n      dup1\n      iszero\n      tag_156\n      jumpi\n      dup1\n      0x1f\n      lt\n      tag_157\n      jumpi\n      0x0100\n      dup1\n      dup4\n      sload\n      div\n      mul\n      dup4\n      mstore\n      swap2\n      0x20\n      add\n      swap2\n      jump(tag_156)\n    tag_157:\n      dup3\n      add\n      swap2\n      swap1\n      0x00\n      mstore\n      keccak256(0x00, 0x20)\n      swap1\n    tag_158:\n      dup2\n      sload\n      dup2\n      mstore\n      swap1\n      0x01\n      add\n      swap1\n      0x20\n      add\n      dup1\n      dup4\n      gt\n      tag_158\n      jumpi\n      dup3\n      swap1\n      sub\n      0x1f\n      and\n      dup3\n      add\n      swap2\n    tag_156:\n      pop\n      pop\n      pop\n      pop\n      pop\n      dup2\n      jump\t// out\n        /* \"mokkozi/week3/erc721.sol\":8220:8330  function symbol() public override view returns (string memory _symbol)... */\n    tag_73:\n        /* \"mokkozi/week3/erc721.sol\":8268:8289  string memory _symbol */\n      0x60\n        /* \"mokkozi/week3/erc721.sol\":8312:8323  tokenSymbol */\n      0x01\n        /* \"mokkozi/week3/erc721.sol\":8305:8323  return tokenSymbol */\n      dup1\n      sload\n      tag_160\n      swap1\n      tag_108\n      jump\t// in\n    tag_160:\n      dup1\n      0x1f\n      add\n      0x20\n      dup1\n      swap2\n      div\n      mul\n      0x20\n      add\n      mload(0x40)\n      swap1\n      dup2\n      add\n      0x40\n      mstore\n      dup1\n      swap3\n      swap2\n      swap1\n      dup2\n      dup2\n      mstore\n      0x20\n      add\n      dup3\n      dup1\n      sload\n      tag_161\n      swap1\n      tag_108\n      jump\t// in\n    tag_161:\n      dup1\n      iszero\n      tag_162\n      jumpi\n      dup1\n      0x1f\n      lt\n      tag_163\n      jumpi\n      0x0100\n      dup1\n      dup4\n      sload\n      div\n      mul\n      dup4\n      mstore\n      swap2\n      0x20\n      add\n      swap2\n      jump(tag_162)\n    tag_163:\n      dup3\n      add\n      swap2\n      swap1\n      0x00\n      mstore\n      keccak256(0x00, 0x20)\n      swap1\n    tag_164:\n      dup2\n      sload\n      dup2\n      mstore\n      swap1\n      0x01\n      add\n      swap1\n      0x20\n      add\n      dup1\n      dup4\n      gt\n      tag_164\n      jumpi\n      dup3\n      swap1\n      sub\n      0x1f\n      and\n      dup3\n      add\n      swap2\n    tag_162:\n      pop\n      pop\n      pop\n      pop\n      pop\n      swap1\n      pop\n        /* \"mokkozi/week3/erc721.sol\":8220:8330  function symbol() public override view returns (string memory _symbol)... */\n      swap1\n      jump\t// out\n        /* \"mokkozi/week3/erc721.sol\":11367:11643  function setApprovalForAll(address operator, bool approved) public override... */\n    tag_79:\n        /* \"mokkozi/week3/erc721.sol\":11479:11487  operator */\n      dup2\n        /* \"mokkozi/week3/erc721.sol\":11465:11487  msg.sender != operator */\n      0xffffffffffffffffffffffffffffffffffffffff\n      and\n        /* \"mokkozi/week3/erc721.sol\":11465:11475  msg.sender */\n      caller\n        /* \"mokkozi/week3/erc721.sol\":11465:11487  msg.sender != operator */\n      0xffffffffffffffffffffffffffffffffffffffff\n      and\n      eq\n      iszero\n        /* \"mokkozi/week3/erc721.sol\":11457:11508  require(msg.sender != operator, \"invalid operator\") */\n      tag_166\n      jumpi\n      mload(0x40)\n      0x08c379a000000000000000000000000000000000000000000000000000000000\n      dup2\n      mstore\n      0x04\n      add\n      tag_167\n      swap1\n      tag_168\n      jump\t// in\n    tag_167:\n      mload(0x40)\n      dup1\n      swap2\n      sub\n      swap1\n      revert\n    tag_166:\n        /* \"mokkozi/week3/erc721.sol\":11567:11575  approved */\n      dup1\n        /* \"mokkozi/week3/erc721.sol\":11527:11542  approvedOfOwner */\n      0x06\n        /* \"mokkozi/week3/erc721.sol\":11527:11554  approvedOfOwner[msg.sender] */\n      0x00\n        /* \"mokkozi/week3/erc721.sol\":11543:11553  msg.sender */\n      caller\n        /* \"mokkozi/week3/erc721.sol\":11527:11554  approvedOfOwner[msg.sender] */\n      0xffffffffffffffffffffffffffffffffffffffff\n      and\n      0xffffffffffffffffffffffffffffffffffffffff\n      and\n      dup2\n      mstore\n      0x20\n      add\n      swap1\n      dup2\n      mstore\n      0x20\n      add\n      0x00\n      keccak256\n        /* \"mokkozi/week3/erc721.sol\":11527:11564  approvedOfOwner[msg.sender][operator] */\n      0x00\n        /* \"mokkozi/week3/erc721.sol\":11555:11563  operator */\n      dup5\n        /* \"mokkozi/week3/erc721.sol\":11527:11564  approvedOfOwner[msg.sender][operator] */\n      0xffffffffffffffffffffffffffffffffffffffff\n      and\n      0xffffffffffffffffffffffffffffffffffffffff\n      and\n      dup2\n      mstore\n      0x20\n      add\n      swap1\n      dup2\n      mstore\n      0x20\n      add\n      0x00\n      keccak256\n      0x00\n        /* \"mokkozi/week3/erc721.sol\":11527:11575  approvedOfOwner[msg.sender][operator] = approved */\n      0x0100\n      exp\n      dup2\n      sload\n      dup2\n      0xff\n      mul\n      not\n      and\n      swap1\n      dup4\n      iszero\n      iszero\n      mul\n      or\n      swap1\n      sstore\n      pop\n        /* \"mokkozi/week3/erc721.sol\":11617:11625  operator */\n      dup2\n        /* \"mokkozi/week3/erc721.sol\":11590:11636  ApprovalForAll(msg.sender, operator, approved) */\n      0xffffffffffffffffffffffffffffffffffffffff\n      and\n        /* \"mokkozi/week3/erc721.sol\":11605:11615  msg.sender */\n      caller\n        /* \"mokkozi/week3/erc721.sol\":11590:11636  ApprovalForAll(msg.sender, operator, approved) */\n      0xffffffffffffffffffffffffffffffffffffffff\n      and\n      0x17307eab39ab6107e8899845ad3d59bd9653f200f220920489ca2b5937696c31\n        /* \"mokkozi/week3/erc721.sol\":11627:11635  approved */\n      dup4\n        /* \"mokkozi/week3/erc721.sol\":11590:11636  ApprovalForAll(msg.sender, operator, approved) */\n      mload(0x40)\n      tag_169\n      swap2\n      swap1\n      tag_27\n      jump\t// in\n    tag_169:\n      mload(0x40)\n      dup1\n      swap2\n      sub\n      swap1\n      log3\n        /* \"mokkozi/week3/erc721.sol\":11367:11643  function setApprovalForAll(address operator, bool approved) public override... */\n      pop\n      pop\n      jump\t// out\n        /* \"mokkozi/week3/erc721.sol\":8884:9056  function safeTransferFrom(address from, address to, uint256 tokenId, bytes memory data) public override payable... */\n    tag_83:\n        /* \"mokkozi/week3/erc721.sol\":9010:9049  safeTransferFrom(from, to, tokenId, \"\") */\n      tag_171\n        /* \"mokkozi/week3/erc721.sol\":9027:9031  from */\n      dup5\n        /* \"mokkozi/week3/erc721.sol\":9033:9035  to */\n      dup5\n        /* \"mokkozi/week3/erc721.sol\":9037:9044  tokenId */\n      dup5\n        /* \"mokkozi/week3/erc721.sol\":9010:9049  safeTransferFrom(from, to, tokenId, \"\") */\n      mload(0x40)\n      dup1\n      0x20\n      add\n      0x40\n      mstore\n      dup1\n      0x00\n      dup2\n      mstore\n      pop\n        /* \"mokkozi/week3/erc721.sol\":9010:9026  safeTransferFrom */\n      tag_83\n        /* \"mokkozi/week3/erc721.sol\":9010:9049  safeTransferFrom(from, to, tokenId, \"\") */\n      jump\t// in\n    tag_171:\n        /* \"mokkozi/week3/erc721.sol\":8884:9056  function safeTransferFrom(address from, address to, uint256 tokenId, bytes memory data) public override payable... */\n      pop\n      pop\n      pop\n      pop\n      jump\t// out\n        /* \"mokkozi/week3/erc721.sol\":8336:8464  function tokenURI(uint256 _tokenId) public override view returns (string memory)... */\n    tag_87:\n        /* \"mokkozi/week3/erc721.sol\":8402:8415  string memory */\n      0x60\n        /* \"mokkozi/week3/erc721.sol\":8438:8447  tokenURIs */\n      0x02\n        /* \"mokkozi/week3/erc721.sol\":8438:8457  tokenURIs[_tokenId] */\n      0x00\n        /* \"mokkozi/week3/erc721.sol\":8448:8456  _tokenId */\n      dup4\n        /* \"mokkozi/week3/erc721.sol\":8438:8457  tokenURIs[_tokenId] */\n      dup2\n      mstore\n      0x20\n      add\n      swap1\n      dup2\n      mstore\n      0x20\n      add\n      0x00\n      keccak256\n        /* \"mokkozi/week3/erc721.sol\":8431:8457  return tokenURIs[_tokenId] */\n      dup1\n      sload\n      tag_173\n      swap1\n      tag_108\n      jump\t// in\n    tag_173:\n      dup1\n      0x1f\n      add\n      0x20\n      dup1\n      swap2\n      div\n      mul\n      0x20\n      add\n      mload(0x40)\n      swap1\n      dup2\n      add\n      0x40\n      mstore\n      dup1\n      swap3\n      swap2\n      swap1\n      dup2\n      dup2\n      mstore\n      0x20\n      add\n      dup3\n      dup1\n      sload\n      tag_174\n      swap1\n      tag_108\n      jump\t// in\n    tag_174:\n      dup1\n      iszero\n      tag_175\n      jumpi\n      dup1\n      0x1f\n      lt\n      tag_176\n      jumpi\n      0x0100\n      dup1\n      dup4\n      sload\n      div\n      mul\n      dup4\n      mstore\n      swap2\n      0x20\n      add\n      swap2\n      jump(tag_175)\n    tag_176:\n      dup3\n      add\n      swap2\n      swap1\n      0x00\n      mstore\n      keccak256(0x00, 0x20)\n      swap1\n    tag_177:\n      dup2\n      sload\n      dup2\n      mstore\n      swap1\n      0x01\n      add\n      swap1\n      0x20\n      add\n      dup1\n      dup4\n      gt\n      tag_177\n      jumpi\n      dup3\n      swap1\n      sub\n      0x1f\n      and\n      dup3\n      add\n      swap2\n    tag_175:\n      pop\n      pop\n      pop\n      pop\n      pop\n      swap1\n      pop\n        /* \"mokkozi/week3/erc721.sol\":8336:8464  function tokenURI(uint256 _tokenId) public override view returns (string memory)... */\n      swap2\n      swap1\n      pop\n      jump\t// out\n        /* \"mokkozi/week3/erc721.sol\":10289:10602  function mint(address to, uint256 tokenId, string memory uri) public... */\n    tag_93:\n        /* \"mokkozi/week3/erc721.sol\":10419:10420  0 */\n      0x00\n        /* \"mokkozi/week3/erc721.sol\":10384:10421  ownerByTokenId[tokenId] == address(0) */\n      0xffffffffffffffffffffffffffffffffffffffff\n      and\n        /* \"mokkozi/week3/erc721.sol\":10384:10398  ownerByTokenId */\n      0x04\n        /* \"mokkozi/week3/erc721.sol\":10384:10407  ownerByTokenId[tokenId] */\n      0x00\n        /* \"mokkozi/week3/erc721.sol\":10399:10406  tokenId */\n      dup5\n        /* \"mokkozi/week3/erc721.sol\":10384:10407  ownerByTokenId[tokenId] */\n      dup2\n      mstore\n      0x20\n      add\n      swap1\n      dup2\n      mstore\n      0x20\n      add\n      0x00\n      keccak256\n      0x00\n      swap1\n      sload\n      swap1\n      0x0100\n      exp\n      swap1\n      div\n      0xffffffffffffffffffffffffffffffffffffffff\n      and\n        /* \"mokkozi/week3/erc721.sol\":10384:10421  ownerByTokenId[tokenId] == address(0) */\n      0xffffffffffffffffffffffffffffffffffffffff\n      and\n      eq\n        /* \"mokkozi/week3/erc721.sol\":10376:10440  require(ownerByTokenId[tokenId] == address(0), \"already minted\") */\n      tag_179\n      jumpi\n      mload(0x40)\n      0x08c379a000000000000000000000000000000000000000000000000000000000\n      dup2\n      mstore\n      0x04\n      add\n      tag_180\n      swap1\n      tag_181\n      jump\t// in\n    tag_180:\n      mload(0x40)\n      dup1\n      swap2\n      sub\n      swap1\n      revert\n    tag_179:\n        /* \"mokkozi/week3/erc721.sol\":10477:10479  to */\n      dup3\n        /* \"mokkozi/week3/erc721.sol\":10451:10465  ownerByTokenId */\n      0x04\n        /* \"mokkozi/week3/erc721.sol\":10451:10474  ownerByTokenId[tokenId] */\n      0x00\n        /* \"mokkozi/week3/erc721.sol\":10466:10473  tokenId */\n      dup5\n        /* \"mokkozi/week3/erc721.sol\":10451:10474  ownerByTokenId[tokenId] */\n      dup2\n      mstore\n      0x20\n      add\n      swap1\n      dup2\n      mstore\n      0x20\n      add\n      0x00\n      keccak256\n      0x00\n        /* \"mokkozi/week3/erc721.sol\":10451:10479  ownerByTokenId[tokenId] = to */\n      0x0100\n      exp\n      dup2\n      sload\n      dup2\n      0xffffffffffffffffffffffffffffffffffffffff\n      mul\n      not\n      and\n      swap1\n      dup4\n      0xffffffffffffffffffffffffffffffffffffffff\n      and\n      mul\n      or\n      swap1\n      sstore\n      pop\n        /* \"mokkozi/week3/erc721.sol\":10511:10512  1 */\n      0x01\n        /* \"mokkozi/week3/erc721.sol\":10489:10503  balanceByOwner */\n      0x03\n        /* \"mokkozi/week3/erc721.sol\":10489:10507  balanceByOwner[to] */\n      0x00\n        /* \"mokkozi/week3/erc721.sol\":10504:10506  to */\n      dup6\n        /* \"mokkozi/week3/erc721.sol\":10489:10507  balanceByOwner[to] */\n      0xffffffffffffffffffffffffffffffffffffffff\n      and\n      0xffffffffffffffffffffffffffffffffffffffff\n      and\n      dup2\n      mstore\n      0x20\n      add\n      swap1\n      dup2\n      mstore\n      0x20\n      add\n      0x00\n      keccak256\n      0x00\n        /* \"mokkozi/week3/erc721.sol\":10489:10512  balanceByOwner[to] += 1 */\n      dup3\n      dup3\n      sload\n      tag_182\n      swap2\n      swap1\n      tag_146\n      jump\t// in\n    tag_182:\n      swap3\n      pop\n      pop\n      dup2\n      swap1\n      sstore\n      pop\n        /* \"mokkozi/week3/erc721.sol\":10544:10547  uri */\n      dup1\n        /* \"mokkozi/week3/erc721.sol\":10523:10532  tokenURIs */\n      0x02\n        /* \"mokkozi/week3/erc721.sol\":10523:10541  tokenURIs[tokenId] */\n      0x00\n        /* \"mokkozi/week3/erc721.sol\":10533:10540  tokenId */\n      dup5\n        /* \"mokkozi/week3/erc721.sol\":10523:10541  tokenURIs[tokenId] */\n      dup2\n      mstore\n      0x20\n      add\n      swap1\n      dup2\n      mstore\n      0x20\n      add\n      0x00\n      keccak256\n        /* \"mokkozi/week3/erc721.sol\":10523:10547  tokenURIs[tokenId] = uri */\n      swap1\n      dup1\n      mload\n      swap1\n      0x20\n      add\n      swap1\n      tag_183\n      swap3\n      swap2\n      swap1\n      tag_184\n      jump\t// in\n    tag_183:\n      pop\n        /* \"mokkozi/week3/erc721.sol\":10587:10594  tokenId */\n      dup2\n        /* \"mokkozi/week3/erc721.sol\":10583:10585  to */\n      dup4\n        /* \"mokkozi/week3/erc721.sol\":10562:10595  Transfer(address(0), to, tokenId) */\n      0xffffffffffffffffffffffffffffffffffffffff\n      and\n        /* \"mokkozi/week3/erc721.sol\":10579:10580  0 */\n      0x00\n        /* \"mokkozi/week3/erc721.sol\":10562:10595  Transfer(address(0), to, tokenId) */\n      0xffffffffffffffffffffffffffffffffffffffff\n      and\n      0xddf252ad1be2c89b69c2b068fc378daa952ba7f163c4a11628f55a4df523b3ef\n      mload(0x40)\n      mload(0x40)\n      dup1\n      swap2\n      sub\n      swap1\n      log4\n        /* \"mokkozi/week3/erc721.sol\":10289:10602  function mint(address to, uint256 tokenId, string memory uri) public... */\n      pop\n      pop\n      pop\n      jump\t// out\n        /* \"mokkozi/week3/erc721.sol\":11649:11804  function isApprovedForAll(address owner, address operator) public override view returns (bool)... */\n    tag_98:\n        /* \"mokkozi/week3/erc721.sol\":11738:11742  bool */\n      0x00\n        /* \"mokkozi/week3/erc721.sol\":11765:11780  approvedOfOwner */\n      0x06\n        /* \"mokkozi/week3/erc721.sol\":11765:11787  approvedOfOwner[owner] */\n      0x00\n        /* \"mokkozi/week3/erc721.sol\":11781:11786  owner */\n      dup5\n        /* \"mokkozi/week3/erc721.sol\":11765:11787  approvedOfOwner[owner] */\n      0xffffffffffffffffffffffffffffffffffffffff\n      and\n      0xffffffffffffffffffffffffffffffffffffffff\n      and\n      dup2\n      mstore\n      0x20\n      add\n      swap1\n      dup2\n      mstore\n      0x20\n      add\n      0x00\n      keccak256\n        /* \"mokkozi/week3/erc721.sol\":11765:11797  approvedOfOwner[owner][operator] */\n      0x00\n        /* \"mokkozi/week3/erc721.sol\":11788:11796  operator */\n      dup4\n        /* \"mokkozi/week3/erc721.sol\":11765:11797  approvedOfOwner[owner][operator] */\n      0xffffffffffffffffffffffffffffffffffffffff\n      and\n      0xffffffffffffffffffffffffffffffffffffffff\n      and\n      dup2\n      mstore\n      0x20\n      add\n      swap1\n      dup2\n      mstore\n      0x20\n      add\n      0x00\n      keccak256\n      0x00\n      swap1\n      sload\n      swap1\n      0x0100\n      exp\n      swap1\n      div\n      0xff\n      and\n        /* \"mokkozi/week3/erc721.sol\":11758:11797  return approvedOfOwner[owner][operator] */\n      swap1\n      pop\n        /* \"mokkozi/week3/erc721.sol\":11649:11804  function isApprovedForAll(address owner, address operator) public override view returns (bool)... */\n      swap3\n      swap2\n      pop\n      pop\n      jump\t// out\n    tag_184:\n      dup3\n      dup1\n      sload\n      tag_186\n      swap1\n      tag_108\n      jump\t// in\n    tag_186:\n      swap1\n      0x00\n      mstore\n      keccak256(0x00, 0x20)\n      swap1\n      0x1f\n      add\n      0x20\n      swap1\n      div\n      dup2\n      add\n      swap3\n      dup3\n      tag_188\n      jumpi\n      0x00\n      dup6\n      sstore\n      jump(tag_187)\n    tag_188:\n      dup3\n      0x1f\n      lt\n      tag_189\n      jumpi\n      dup1\n      mload\n      not(0xff)\n      and\n      dup4\n      dup1\n      add\n      or\n      dup6\n      sstore\n      jump(tag_187)\n    tag_189:\n      dup3\n      dup1\n      add\n      0x01\n      add\n      dup6\n      sstore\n      dup3\n      iszero\n      tag_187\n      jumpi\n      swap2\n      dup3\n      add\n    tag_190:\n      dup3\n      dup2\n      gt\n      iszero\n      tag_191\n      jumpi\n      dup3\n      mload\n      dup3\n      sstore\n      swap2\n      0x20\n      add\n      swap2\n      swap1\n      0x01\n      add\n      swap1\n      jump(tag_190)\n    tag_191:\n    tag_187:\n      pop\n      swap1\n      pop\n      tag_192\n      swap2\n      swap1\n      tag_193\n      jump\t// in\n    tag_192:\n      pop\n      swap1\n      jump\t// out\n    tag_193:\n    tag_194:\n      dup1\n      dup3\n      gt\n      iszero\n      tag_195\n      jumpi\n      0x00\n      dup2\n      0x00\n      swap1\n      sstore\n      pop\n      0x01\n      add\n      jump(tag_194)\n    tag_195:\n      pop\n      swap1\n      jump\t// out\n        /* \"#utility.yul\":7:417   */\n    tag_197:\n        /* \"#utility.yul\":84:89   */\n      0x00\n        /* \"#utility.yul\":109:174   */\n      tag_199\n        /* \"#utility.yul\":125:173   */\n      tag_200\n        /* \"#utility.yul\":166:172   */\n      dup5\n        /* \"#utility.yul\":125:173   */\n      tag_201\n      jump\t// in\n    tag_200:\n        /* \"#utility.yul\":109:174   */\n      tag_202\n      jump\t// in\n    tag_199:\n        /* \"#utility.yul\":100:174   */\n      swap1\n      pop\n        /* \"#utility.yul\":197:203   */\n      dup3\n        /* \"#utility.yul\":190:195   */\n      dup2\n        /* \"#utility.yul\":183:204   */\n      mstore\n        /* \"#utility.yul\":235:239   */\n      0x20\n        /* \"#utility.yul\":228:233   */\n      dup2\n        /* \"#utility.yul\":224:240   */\n      add\n        /* \"#utility.yul\":273:276   */\n      dup5\n        /* \"#utility.yul\":264:270   */\n      dup5\n        /* \"#utility.yul\":259:262   */\n      dup5\n        /* \"#utility.yul\":255:271   */\n      add\n        /* \"#utility.yul\":252:277   */\n      gt\n        /* \"#utility.yul\":249:361   */\n      iszero\n      tag_203\n      jumpi\n        /* \"#utility.yul\":280:359   */\n      tag_204\n      tag_205\n      jump\t// in\n    tag_204:\n        /* \"#utility.yul\":249:361   */\n    tag_203:\n        /* \"#utility.yul\":370:411   */\n      tag_206\n        /* \"#utility.yul\":404:410   */\n      dup5\n        /* \"#utility.yul\":399:402   */\n      dup3\n        /* \"#utility.yul\":394:397   */\n      dup6\n        /* \"#utility.yul\":370:411   */\n      tag_207\n      jump\t// in\n    tag_206:\n        /* \"#utility.yul\":90:417   */\n      pop\n        /* \"#utility.yul\":7:417   */\n      swap4\n      swap3\n      pop\n      pop\n      pop\n      jump\t// out\n        /* \"#utility.yul\":423:835   */\n    tag_208:\n        /* \"#utility.yul\":501:506   */\n      0x00\n        /* \"#utility.yul\":526:592   */\n      tag_210\n        /* \"#utility.yul\":542:591   */\n      tag_211\n        /* \"#utility.yul\":584:590   */\n      dup5\n        /* \"#utility.yul\":542:591   */\n      tag_212\n      jump\t// in\n    tag_211:\n        /* \"#utility.yul\":526:592   */\n      tag_202\n      jump\t// in\n    tag_210:\n        /* \"#utility.yul\":517:592   */\n      swap1\n      pop\n        /* \"#utility.yul\":615:621   */\n      dup3\n        /* \"#utility.yul\":608:613   */\n      dup2\n        /* \"#utility.yul\":601:622   */\n      mstore\n        /* \"#utility.yul\":653:657   */\n      0x20\n        /* \"#utility.yul\":646:651   */\n      dup2\n        /* \"#utility.yul\":642:658   */\n      add\n        /* \"#utility.yul\":691:694   */\n      dup5\n        /* \"#utility.yul\":682:688   */\n      dup5\n        /* \"#utility.yul\":677:680   */\n      dup5\n        /* \"#utility.yul\":673:689   */\n      add\n        /* \"#utility.yul\":670:695   */\n      gt\n        /* \"#utility.yul\":667:779   */\n      iszero\n      tag_213\n      jumpi\n        /* \"#utility.yul\":698:777   */\n      tag_214\n      tag_205\n      jump\t// in\n    tag_214:\n        /* \"#utility.yul\":667:779   */\n    tag_213:\n        /* \"#utility.yul\":788:829   */\n      tag_215\n        /* \"#utility.yul\":822:828   */\n      dup5\n        /* \"#utility.yul\":817:820   */\n      dup3\n        /* \"#utility.yul\":812:815   */\n      dup6\n        /* \"#utility.yul\":788:829   */\n      tag_207\n      jump\t// in\n    tag_215:\n        /* \"#utility.yul\":507:835   */\n      pop\n        /* \"#utility.yul\":423:835   */\n      swap4\n      swap3\n      pop\n      pop\n      pop\n      jump\t// out\n        /* \"#utility.yul\":841:980   */\n    tag_216:\n        /* \"#utility.yul\":887:892   */\n      0x00\n        /* \"#utility.yul\":925:931   */\n      dup2\n        /* \"#utility.yul\":912:932   */\n      calldataload\n        /* \"#utility.yul\":903:932   */\n      swap1\n      pop\n        /* \"#utility.yul\":941:974   */\n      tag_218\n        /* \"#utility.yul\":968:973   */\n      dup2\n        /* \"#utility.yul\":941:974   */\n      tag_219\n      jump\t// in\n    tag_218:\n        /* \"#utility.yul\":841:980   */\n      swap3\n      swap2\n      pop\n      pop\n      jump\t// out\n        /* \"#utility.yul\":986:1119   */\n    tag_220:\n        /* \"#utility.yul\":1029:1034   */\n      0x00\n        /* \"#utility.yul\":1067:1073   */\n      dup2\n        /* \"#utility.yul\":1054:1074   */\n      calldataload\n        /* \"#utility.yul\":1045:1074   */\n      swap1\n      pop\n        /* \"#utility.yul\":1083:1113   */\n      tag_222\n        /* \"#utility.yul\":1107:1112   */\n      dup2\n        /* \"#utility.yul\":1083:1113   */\n      tag_223\n      jump\t// in\n    tag_222:\n        /* \"#utility.yul\":986:1119   */\n      swap3\n      swap2\n      pop\n      pop\n      jump\t// out\n        /* \"#utility.yul\":1125:1262   */\n    tag_224:\n        /* \"#utility.yul\":1170:1175   */\n      0x00\n        /* \"#utility.yul\":1208:1214   */\n      dup2\n        /* \"#utility.yul\":1195:1215   */\n      calldataload\n        /* \"#utility.yul\":1186:1215   */\n      swap1\n      pop\n        /* \"#utility.yul\":1224:1256   */\n      tag_226\n        /* \"#utility.yul\":1250:1255   */\n      dup2\n        /* \"#utility.yul\":1224:1256   */\n      tag_227\n      jump\t// in\n    tag_226:\n        /* \"#utility.yul\":1125:1262   */\n      swap3\n      swap2\n      pop\n      pop\n      jump\t// out\n        /* \"#utility.yul\":1281:1619   */\n    tag_228:\n        /* \"#utility.yul\":1336:1341   */\n      0x00\n        /* \"#utility.yul\":1385:1388   */\n      dup3\n        /* \"#utility.yul\":1378:1382   */\n      0x1f\n        /* \"#utility.yul\":1370:1376   */\n      dup4\n        /* \"#utility.yul\":1366:1383   */\n      add\n        /* \"#utility.yul\":1362:1389   */\n      slt\n        /* \"#utility.yul\":1352:1474   */\n      tag_230\n      jumpi\n        /* \"#utility.yul\":1393:1472   */\n      tag_231\n      tag_232\n      jump\t// in\n    tag_231:\n        /* \"#utility.yul\":1352:1474   */\n    tag_230:\n        /* \"#utility.yul\":1510:1516   */\n      dup2\n        /* \"#utility.yul\":1497:1517   */\n      calldataload\n        /* \"#utility.yul\":1535:1613   */\n      tag_233\n        /* \"#utility.yul\":1609:1612   */\n      dup5\n        /* \"#utility.yul\":1601:1607   */\n      dup3\n        /* \"#utility.yul\":1594:1598   */\n      0x20\n        /* \"#utility.yul\":1586:1592   */\n      dup7\n        /* \"#utility.yul\":1582:1599   */\n      add\n        /* \"#utility.yul\":1535:1613   */\n      tag_197\n      jump\t// in\n    tag_233:\n        /* \"#utility.yul\":1526:1613   */\n      swap2\n      pop\n        /* \"#utility.yul\":1342:1619   */\n      pop\n        /* \"#utility.yul\":1281:1619   */\n      swap3\n      swap2\n      pop\n      pop\n      jump\t// out\n        /* \"#utility.yul\":1639:1979   */\n    tag_234:\n        /* \"#utility.yul\":1695:1700   */\n      0x00\n        /* \"#utility.yul\":1744:1747   */\n      dup3\n        /* \"#utility.yul\":1737:1741   */\n      0x1f\n        /* \"#utility.yul\":1729:1735   */\n      dup4\n        /* \"#utility.yul\":1725:1742   */\n      add\n        /* \"#utility.yul\":1721:1748   */\n      slt\n        /* \"#utility.yul\":1711:1833   */\n      tag_236\n      jumpi\n        /* \"#utility.yul\":1752:1831   */\n      tag_237\n      tag_232\n      jump\t// in\n    tag_237:\n        /* \"#utility.yul\":1711:1833   */\n    tag_236:\n        /* \"#utility.yul\":1869:1875   */\n      dup2\n        /* \"#utility.yul\":1856:1876   */\n      calldataload\n        /* \"#utility.yul\":1894:1973   */\n      tag_238\n        /* \"#utility.yul\":1969:1972   */\n      dup5\n        /* \"#utility.yul\":1961:1967   */\n      dup3\n        /* \"#utility.yul\":1954:1958   */\n      0x20\n        /* \"#utility.yul\":1946:1952   */\n      dup7\n        /* \"#utility.yul\":1942:1959   */\n      add\n        /* \"#utility.yul\":1894:1973   */\n      tag_208\n      jump\t// in\n    tag_238:\n        /* \"#utility.yul\":1885:1973   */\n      swap2\n      pop\n        /* \"#utility.yul\":1701:1979   */\n      pop\n        /* \"#utility.yul\":1639:1979   */\n      swap3\n      swap2\n      pop\n      pop\n      jump\t// out\n        /* \"#utility.yul\":1985:2124   */\n    tag_239:\n        /* \"#utility.yul\":2031:2036   */\n      0x00\n        /* \"#utility.yul\":2069:2075   */\n      dup2\n        /* \"#utility.yul\":2056:2076   */\n      calldataload\n        /* \"#utility.yul\":2047:2076   */\n      swap1\n      pop\n        /* \"#utility.yul\":2085:2118   */\n      tag_241\n        /* \"#utility.yul\":2112:2117   */\n      dup2\n        /* \"#utility.yul\":2085:2118   */\n      tag_242\n      jump\t// in\n    tag_241:\n        /* \"#utility.yul\":1985:2124   */\n      swap3\n      swap2\n      pop\n      pop\n      jump\t// out\n        /* \"#utility.yul\":2130:2459   */\n    tag_63:\n        /* \"#utility.yul\":2189:2195   */\n      0x00\n        /* \"#utility.yul\":2238:2240   */\n      0x20\n        /* \"#utility.yul\":2226:2235   */\n      dup3\n        /* \"#utility.yul\":2217:2224   */\n      dup5\n        /* \"#utility.yul\":2213:2236   */\n      sub\n        /* \"#utility.yul\":2209:2241   */\n      slt\n        /* \"#utility.yul\":2206:2325   */\n      iszero\n      tag_244\n      jumpi\n        /* \"#utility.yul\":2244:2323   */\n      tag_245\n      tag_246\n      jump\t// in\n    tag_245:\n        /* \"#utility.yul\":2206:2325   */\n    tag_244:\n        /* \"#utility.yul\":2364:2365   */\n      0x00\n        /* \"#utility.yul\":2389:2442   */\n      tag_247\n        /* \"#utility.yul\":2434:2441   */\n      dup5\n        /* \"#utility.yul\":2425:2431   */\n      dup3\n        /* \"#utility.yul\":2414:2423   */\n      dup6\n        /* \"#utility.yul\":2410:2432   */\n      add\n        /* \"#utility.yul\":2389:2442   */\n      tag_216\n      jump\t// in\n    tag_247:\n        /* \"#utility.yul\":2379:2442   */\n      swap2\n      pop\n        /* \"#utility.yul\":2335:2452   */\n      pop\n        /* \"#utility.yul\":2130:2459   */\n      swap3\n      swap2\n      pop\n      pop\n      jump\t// out\n        /* \"#utility.yul\":2465:2939   */\n    tag_97:\n        /* \"#utility.yul\":2533:2539   */\n      0x00\n        /* \"#utility.yul\":2541:2547   */\n      dup1\n        /* \"#utility.yul\":2590:2592   */\n      0x40\n        /* \"#utility.yul\":2578:2587   */\n      dup4\n        /* \"#utility.yul\":2569:2576   */\n      dup6\n        /* \"#utility.yul\":2565:2588   */\n      sub\n        /* \"#utility.yul\":2561:2593   */\n      slt\n        /* \"#utility.yul\":2558:2677   */\n      iszero\n      tag_249\n      jumpi\n        /* \"#utility.yul\":2596:2675   */\n      tag_250\n      tag_246\n      jump\t// in\n    tag_250:\n        /* \"#utility.yul\":2558:2677   */\n    tag_249:\n        /* \"#utility.yul\":2716:2717   */\n      0x00\n        /* \"#utility.yul\":2741:2794   */\n      tag_251\n        /* \"#utility.yul\":2786:2793   */\n      dup6\n        /* \"#utility.yul\":2777:2783   */\n      dup3\n        /* \"#utility.yul\":2766:2775   */\n      dup7\n        /* \"#utility.yul\":2762:2784   */\n      add\n        /* \"#utility.yul\":2741:2794   */\n      tag_216\n      jump\t// in\n    tag_251:\n        /* \"#utility.yul\":2731:2794   */\n      swap3\n      pop\n        /* \"#utility.yul\":2687:2804   */\n      pop\n        /* \"#utility.yul\":2843:2845   */\n      0x20\n        /* \"#utility.yul\":2869:2922   */\n      tag_252\n        /* \"#utility.yul\":2914:2921   */\n      dup6\n        /* \"#utility.yul\":2905:2911   */\n      dup3\n        /* \"#utility.yul\":2894:2903   */\n      dup7\n        /* \"#utility.yul\":2890:2912   */\n      add\n        /* \"#utility.yul\":2869:2922   */\n      tag_216\n      jump\t// in\n    tag_252:\n        /* \"#utility.yul\":2859:2922   */\n      swap2\n      pop\n        /* \"#utility.yul\":2814:2932   */\n      pop\n        /* \"#utility.yul\":2465:2939   */\n      swap3\n      pop\n      swap3\n      swap1\n      pop\n      jump\t// out\n        /* \"#utility.yul\":2945:3564   */\n    tag_46:\n        /* \"#utility.yul\":3022:3028   */\n      0x00\n        /* \"#utility.yul\":3030:3036   */\n      dup1\n        /* \"#utility.yul\":3038:3044   */\n      0x00\n        /* \"#utility.yul\":3087:3089   */\n      0x60\n        /* \"#utility.yul\":3075:3084   */\n      dup5\n        /* \"#utility.yul\":3066:3073   */\n      dup7\n        /* \"#utility.yul\":3062:3085   */\n      sub\n        /* \"#utility.yul\":3058:3090   */\n      slt\n        /* \"#utility.yul\":3055:3174   */\n      iszero\n      tag_254\n      jumpi\n        /* \"#utility.yul\":3093:3172   */\n      tag_255\n      tag_246\n      jump\t// in\n    tag_255:\n        /* \"#utility.yul\":3055:3174   */\n    tag_254:\n        /* \"#utility.yul\":3213:3214   */\n      0x00\n        /* \"#utility.yul\":3238:3291   */\n      tag_256\n        /* \"#utility.yul\":3283:3290   */\n      dup7\n        /* \"#utility.yul\":3274:3280   */\n      dup3\n        /* \"#utility.yul\":3263:3272   */\n      dup8\n        /* \"#utility.yul\":3259:3281   */\n      add\n        /* \"#utility.yul\":3238:3291   */\n      tag_216\n      jump\t// in\n    tag_256:\n        /* \"#utility.yul\":3228:3291   */\n      swap4\n      pop\n        /* \"#utility.yul\":3184:3301   */\n      pop\n        /* \"#utility.yul\":3340:3342   */\n      0x20\n        /* \"#utility.yul\":3366:3419   */\n      tag_257\n        /* \"#utility.yul\":3411:3418   */\n      dup7\n        /* \"#utility.yul\":3402:3408   */\n      dup3\n        /* \"#utility.yul\":3391:3400   */\n      dup8\n        /* \"#utility.yul\":3387:3409   */\n      add\n        /* \"#utility.yul\":3366:3419   */\n      tag_216\n      jump\t// in\n    tag_257:\n        /* \"#utility.yul\":3356:3419   */\n      swap3\n      pop\n        /* \"#utility.yul\":3311:3429   */\n      pop\n        /* \"#utility.yul\":3468:3470   */\n      0x40\n        /* \"#utility.yul\":3494:3547   */\n      tag_258\n        /* \"#utility.yul\":3539:3546   */\n      dup7\n        /* \"#utility.yul\":3530:3536   */\n      dup3\n        /* \"#utility.yul\":3519:3528   */\n      dup8\n        /* \"#utility.yul\":3515:3537   */\n      add\n        /* \"#utility.yul\":3494:3547   */\n      tag_239\n      jump\t// in\n    tag_258:\n        /* \"#utility.yul\":3484:3547   */\n      swap2\n      pop\n        /* \"#utility.yul\":3439:3557   */\n      pop\n        /* \"#utility.yul\":2945:3564   */\n      swap3\n      pop\n      swap3\n      pop\n      swap3\n      jump\t// out\n        /* \"#utility.yul\":3570:4513   */\n    tag_82:\n        /* \"#utility.yul\":3665:3671   */\n      0x00\n        /* \"#utility.yul\":3673:3679   */\n      dup1\n        /* \"#utility.yul\":3681:3687   */\n      0x00\n        /* \"#utility.yul\":3689:3695   */\n      dup1\n        /* \"#utility.yul\":3738:3741   */\n      0x80\n        /* \"#utility.yul\":3726:3735   */\n      dup6\n        /* \"#utility.yul\":3717:3724   */\n      dup8\n        /* \"#utility.yul\":3713:3736   */\n      sub\n        /* \"#utility.yul\":3709:3742   */\n      slt\n        /* \"#utility.yul\":3706:3826   */\n      iszero\n      tag_260\n      jumpi\n        /* \"#utility.yul\":3745:3824   */\n      tag_261\n      tag_246\n      jump\t// in\n    tag_261:\n        /* \"#utility.yul\":3706:3826   */\n    tag_260:\n        /* \"#utility.yul\":3865:3866   */\n      0x00\n        /* \"#utility.yul\":3890:3943   */\n      tag_262\n        /* \"#utility.yul\":3935:3942   */\n      dup8\n        /* \"#utility.yul\":3926:3932   */\n      dup3\n        /* \"#utility.yul\":3915:3924   */\n      dup9\n        /* \"#utility.yul\":3911:3933   */\n      add\n        /* \"#utility.yul\":3890:3943   */\n      tag_216\n      jump\t// in\n    tag_262:\n        /* \"#utility.yul\":3880:3943   */\n      swap5\n      pop\n        /* \"#utility.yul\":3836:3953   */\n      pop\n        /* \"#utility.yul\":3992:3994   */\n      0x20\n        /* \"#utility.yul\":4018:4071   */\n      tag_263\n        /* \"#utility.yul\":4063:4070   */\n      dup8\n        /* \"#utility.yul\":4054:4060   */\n      dup3\n        /* \"#utility.yul\":4043:4052   */\n      dup9\n        /* \"#utility.yul\":4039:4061   */\n      add\n        /* \"#utility.yul\":4018:4071   */\n      tag_216\n      jump\t// in\n    tag_263:\n        /* \"#utility.yul\":4008:4071   */\n      swap4\n      pop\n        /* \"#utility.yul\":3963:4081   */\n      pop\n        /* \"#utility.yul\":4120:4122   */\n      0x40\n        /* \"#utility.yul\":4146:4199   */\n      tag_264\n        /* \"#utility.yul\":4191:4198   */\n      dup8\n        /* \"#utility.yul\":4182:4188   */\n      dup3\n        /* \"#utility.yul\":4171:4180   */\n      dup9\n        /* \"#utility.yul\":4167:4189   */\n      add\n        /* \"#utility.yul\":4146:4199   */\n      tag_239\n      jump\t// in\n    tag_264:\n        /* \"#utility.yul\":4136:4199   */\n      swap3\n      pop\n        /* \"#utility.yul\":4091:4209   */\n      pop\n        /* \"#utility.yul\":4276:4278   */\n      0x60\n        /* \"#utility.yul\":4265:4274   */\n      dup6\n        /* \"#utility.yul\":4261:4279   */\n      add\n        /* \"#utility.yul\":4248:4280   */\n      calldataload\n        /* \"#utility.yul\":4307:4325   */\n      0xffffffffffffffff\n        /* \"#utility.yul\":4299:4305   */\n      dup2\n        /* \"#utility.yul\":4296:4326   */\n      gt\n        /* \"#utility.yul\":4293:4410   */\n      iszero\n      tag_265\n      jumpi\n        /* \"#utility.yul\":4329:4408   */\n      tag_266\n      tag_267\n      jump\t// in\n    tag_266:\n        /* \"#utility.yul\":4293:4410   */\n    tag_265:\n        /* \"#utility.yul\":4434:4496   */\n      tag_268\n        /* \"#utility.yul\":4488:4495   */\n      dup8\n        /* \"#utility.yul\":4479:4485   */\n      dup3\n        /* \"#utility.yul\":4468:4477   */\n      dup9\n        /* \"#utility.yul\":4464:4486   */\n      add\n        /* \"#utility.yul\":4434:4496   */\n      tag_228\n      jump\t// in\n    tag_268:\n        /* \"#utility.yul\":4424:4496   */\n      swap2\n      pop\n        /* \"#utility.yul\":4219:4506   */\n      pop\n        /* \"#utility.yul\":3570:4513   */\n      swap3\n      swap6\n      swap2\n      swap5\n      pop\n      swap3\n      pop\n      jump\t// out\n        /* \"#utility.yul\":4519:4987   */\n    tag_78:\n        /* \"#utility.yul\":4584:4590   */\n      0x00\n        /* \"#utility.yul\":4592:4598   */\n      dup1\n        /* \"#utility.yul\":4641:4643   */\n      0x40\n        /* \"#utility.yul\":4629:4638   */\n      dup4\n        /* \"#utility.yul\":4620:4627   */\n      dup6\n        /* \"#utility.yul\":4616:4639   */\n      sub\n        /* \"#utility.yul\":4612:4644   */\n      slt\n        /* \"#utility.yul\":4609:4728   */\n      iszero\n      tag_270\n      jumpi\n        /* \"#utility.yul\":4647:4726   */\n      tag_271\n      tag_246\n      jump\t// in\n    tag_271:\n        /* \"#utility.yul\":4609:4728   */\n    tag_270:\n        /* \"#utility.yul\":4767:4768   */\n      0x00\n        /* \"#utility.yul\":4792:4845   */\n      tag_272\n        /* \"#utility.yul\":4837:4844   */\n      dup6\n        /* \"#utility.yul\":4828:4834   */\n      dup3\n        /* \"#utility.yul\":4817:4826   */\n      dup7\n        /* \"#utility.yul\":4813:4835   */\n      add\n        /* \"#utility.yul\":4792:4845   */\n      tag_216\n      jump\t// in\n    tag_272:\n        /* \"#utility.yul\":4782:4845   */\n      swap3\n      pop\n        /* \"#utility.yul\":4738:4855   */\n      pop\n        /* \"#utility.yul\":4894:4896   */\n      0x20\n        /* \"#utility.yul\":4920:4970   */\n      tag_273\n        /* \"#utility.yul\":4962:4969   */\n      dup6\n        /* \"#utility.yul\":4953:4959   */\n      dup3\n        /* \"#utility.yul\":4942:4951   */\n      dup7\n        /* \"#utility.yul\":4938:4960   */\n      add\n        /* \"#utility.yul\":4920:4970   */\n      tag_220\n      jump\t// in\n    tag_273:\n        /* \"#utility.yul\":4910:4970   */\n      swap2\n      pop\n        /* \"#utility.yul\":4865:4980   */\n      pop\n        /* \"#utility.yul\":4519:4987   */\n      swap3\n      pop\n      swap3\n      swap1\n      pop\n      jump\t// out\n        /* \"#utility.yul\":4993:5467   */\n    tag_42:\n        /* \"#utility.yul\":5061:5067   */\n      0x00\n        /* \"#utility.yul\":5069:5075   */\n      dup1\n        /* \"#utility.yul\":5118:5120   */\n      0x40\n        /* \"#utility.yul\":5106:5115   */\n      dup4\n        /* \"#utility.yul\":5097:5104   */\n      dup6\n        /* \"#utility.yul\":5093:5116   */\n      sub\n        /* \"#utility.yul\":5089:5121   */\n      slt\n        /* \"#utility.yul\":5086:5205   */\n      iszero\n      tag_275\n      jumpi\n        /* \"#utility.yul\":5124:5203   */\n      tag_276\n      tag_246\n      jump\t// in\n    tag_276:\n        /* \"#utility.yul\":5086:5205   */\n    tag_275:\n        /* \"#utility.yul\":5244:5245   */\n      0x00\n        /* \"#utility.yul\":5269:5322   */\n      tag_277\n        /* \"#utility.yul\":5314:5321   */\n      dup6\n        /* \"#utility.yul\":5305:5311   */\n      dup3\n        /* \"#utility.yul\":5294:5303   */\n      dup7\n        /* \"#utility.yul\":5290:5312   */\n      add\n        /* \"#utility.yul\":5269:5322   */\n      tag_216\n      jump\t// in\n    tag_277:\n        /* \"#utility.yul\":5259:5322   */\n      swap3\n      pop\n        /* \"#utility.yul\":5215:5332   */\n      pop\n        /* \"#utility.yul\":5371:5373   */\n      0x20\n        /* \"#utility.yul\":5397:5450   */\n      tag_278\n        /* \"#utility.yul\":5442:5449   */\n      dup6\n        /* \"#utility.yul\":5433:5439   */\n      dup3\n        /* \"#utility.yul\":5422:5431   */\n      dup7\n        /* \"#utility.yul\":5418:5440   */\n      add\n        /* \"#utility.yul\":5397:5450   */\n      tag_239\n      jump\t// in\n    tag_278:\n        /* \"#utility.yul\":5387:5450   */\n      swap2\n      pop\n        /* \"#utility.yul\":5342:5460   */\n      pop\n        /* \"#utility.yul\":4993:5467   */\n      swap3\n      pop\n      swap3\n      swap1\n      pop\n      jump\t// out\n        /* \"#utility.yul\":5473:6272   */\n    tag_92:\n        /* \"#utility.yul\":5560:5566   */\n      0x00\n        /* \"#utility.yul\":5568:5574   */\n      dup1\n        /* \"#utility.yul\":5576:5582   */\n      0x00\n        /* \"#utility.yul\":5625:5627   */\n      0x60\n        /* \"#utility.yul\":5613:5622   */\n      dup5\n        /* \"#utility.yul\":5604:5611   */\n      dup7\n        /* \"#utility.yul\":5600:5623   */\n      sub\n        /* \"#utility.yul\":5596:5628   */\n      slt\n        /* \"#utility.yul\":5593:5712   */\n      iszero\n      tag_280\n      jumpi\n        /* \"#utility.yul\":5631:5710   */\n      tag_281\n      tag_246\n      jump\t// in\n    tag_281:\n        /* \"#utility.yul\":5593:5712   */\n    tag_280:\n        /* \"#utility.yul\":5751:5752   */\n      0x00\n        /* \"#utility.yul\":5776:5829   */\n      tag_282\n        /* \"#utility.yul\":5821:5828   */\n      dup7\n        /* \"#utility.yul\":5812:5818   */\n      dup3\n        /* \"#utility.yul\":5801:5810   */\n      dup8\n        /* \"#utility.yul\":5797:5819   */\n      add\n        /* \"#utility.yul\":5776:5829   */\n      tag_216\n      jump\t// in\n    tag_282:\n        /* \"#utility.yul\":5766:5829   */\n      swap4\n      pop\n        /* \"#utility.yul\":5722:5839   */\n      pop\n        /* \"#utility.yul\":5878:5880   */\n      0x20\n        /* \"#utility.yul\":5904:5957   */\n      tag_283\n        /* \"#utility.yul\":5949:5956   */\n      dup7\n        /* \"#utility.yul\":5940:5946   */\n      dup3\n        /* \"#utility.yul\":5929:5938   */\n      dup8\n        /* \"#utility.yul\":5925:5947   */\n      add\n        /* \"#utility.yul\":5904:5957   */\n      tag_239\n      jump\t// in\n    tag_283:\n        /* \"#utility.yul\":5894:5957   */\n      swap3\n      pop\n        /* \"#utility.yul\":5849:5967   */\n      pop\n        /* \"#utility.yul\":6034:6036   */\n      0x40\n        /* \"#utility.yul\":6023:6032   */\n      dup5\n        /* \"#utility.yul\":6019:6037   */\n      add\n        /* \"#utility.yul\":6006:6038   */\n      calldataload\n        /* \"#utility.yul\":6065:6083   */\n      0xffffffffffffffff\n        /* \"#utility.yul\":6057:6063   */\n      dup2\n        /* \"#utility.yul\":6054:6084   */\n      gt\n        /* \"#utility.yul\":6051:6168   */\n      iszero\n      tag_284\n      jumpi\n        /* \"#utility.yul\":6087:6166   */\n      tag_285\n      tag_267\n      jump\t// in\n    tag_285:\n        /* \"#utility.yul\":6051:6168   */\n    tag_284:\n        /* \"#utility.yul\":6192:6255   */\n      tag_286\n        /* \"#utility.yul\":6247:6254   */\n      dup7\n        /* \"#utility.yul\":6238:6244   */\n      dup3\n        /* \"#utility.yul\":6227:6236   */\n      dup8\n        /* \"#utility.yul\":6223:6245   */\n      add\n        /* \"#utility.yul\":6192:6255   */\n      tag_234\n      jump\t// in\n    tag_286:\n        /* \"#utility.yul\":6182:6255   */\n      swap2\n      pop\n        /* \"#utility.yul\":5977:6265   */\n      pop\n        /* \"#utility.yul\":5473:6272   */\n      swap3\n      pop\n      swap3\n      pop\n      swap3\n      jump\t// out\n        /* \"#utility.yul\":6278:6605   */\n    tag_24:\n        /* \"#utility.yul\":6336:6342   */\n      0x00\n        /* \"#utility.yul\":6385:6387   */\n      0x20\n        /* \"#utility.yul\":6373:6382   */\n      dup3\n        /* \"#utility.yul\":6364:6371   */\n      dup5\n        /* \"#utility.yul\":6360:6383   */\n      sub\n        /* \"#utility.yul\":6356:6388   */\n      slt\n        /* \"#utility.yul\":6353:6472   */\n      iszero\n      tag_288\n      jumpi\n        /* \"#utility.yul\":6391:6470   */\n      tag_289\n      tag_246\n      jump\t// in\n    tag_289:\n        /* \"#utility.yul\":6353:6472   */\n    tag_288:\n        /* \"#utility.yul\":6511:6512   */\n      0x00\n        /* \"#utility.yul\":6536:6588   */\n      tag_290\n        /* \"#utility.yul\":6580:6587   */\n      dup5\n        /* \"#utility.yul\":6571:6577   */\n      dup3\n        /* \"#utility.yul\":6560:6569   */\n      dup6\n        /* \"#utility.yul\":6556:6578   */\n      add\n        /* \"#utility.yul\":6536:6588   */\n      tag_224\n      jump\t// in\n    tag_290:\n        /* \"#utility.yul\":6526:6588   */\n      swap2\n      pop\n        /* \"#utility.yul\":6482:6598   */\n      pop\n        /* \"#utility.yul\":6278:6605   */\n      swap3\n      swap2\n      pop\n      pop\n      jump\t// out\n        /* \"#utility.yul\":6611:6940   */\n    tag_36:\n        /* \"#utility.yul\":6670:6676   */\n      0x00\n        /* \"#utility.yul\":6719:6721   */\n      0x20\n        /* \"#utility.yul\":6707:6716   */\n      dup3\n        /* \"#utility.yul\":6698:6705   */\n      dup5\n        /* \"#utility.yul\":6694:6717   */\n      sub\n        /* \"#utility.yul\":6690:6722   */\n      slt\n        /* \"#utility.yul\":6687:6806   */\n      iszero\n      tag_292\n      jumpi\n        /* \"#utility.yul\":6725:6804   */\n      tag_293\n      tag_246\n      jump\t// in\n    tag_293:\n        /* \"#utility.yul\":6687:6806   */\n    tag_292:\n        /* \"#utility.yul\":6845:6846   */\n      0x00\n        /* \"#utility.yul\":6870:6923   */\n      tag_294\n        /* \"#utility.yul\":6915:6922   */\n      dup5\n        /* \"#utility.yul\":6906:6912   */\n      dup3\n        /* \"#utility.yul\":6895:6904   */\n      dup6\n        /* \"#utility.yul\":6891:6913   */\n      add\n        /* \"#utility.yul\":6870:6923   */\n      tag_239\n      jump\t// in\n    tag_294:\n        /* \"#utility.yul\":6860:6923   */\n      swap2\n      pop\n        /* \"#utility.yul\":6816:6933   */\n      pop\n        /* \"#utility.yul\":6611:6940   */\n      swap3\n      swap2\n      pop\n      pop\n      jump\t// out\n        /* \"#utility.yul\":6946:7064   */\n    tag_295:\n        /* \"#utility.yul\":7033:7057   */\n      tag_297\n        /* \"#utility.yul\":7051:7056   */\n      dup2\n        /* \"#utility.yul\":7033:7057   */\n      tag_298\n      jump\t// in\n    tag_297:\n        /* \"#utility.yul\":7028:7031   */\n      dup3\n        /* \"#utility.yul\":7021:7058   */\n      mstore\n        /* \"#utility.yul\":6946:7064   */\n      pop\n      pop\n      jump\t// out\n        /* \"#utility.yul\":7070:7179   */\n    tag_299:\n        /* \"#utility.yul\":7151:7172   */\n      tag_301\n        /* \"#utility.yul\":7166:7171   */\n      dup2\n        /* \"#utility.yul\":7151:7172   */\n      tag_302\n      jump\t// in\n    tag_301:\n        /* \"#utility.yul\":7146:7149   */\n      dup3\n        /* \"#utility.yul\":7139:7173   */\n      mstore\n        /* \"#utility.yul\":7070:7179   */\n      pop\n      pop\n      jump\t// out\n        /* \"#utility.yul\":7185:7549   */\n    tag_303:\n        /* \"#utility.yul\":7273:7276   */\n      0x00\n        /* \"#utility.yul\":7301:7340   */\n      tag_305\n        /* \"#utility.yul\":7334:7339   */\n      dup3\n        /* \"#utility.yul\":7301:7340   */\n      tag_306\n      jump\t// in\n    tag_305:\n        /* \"#utility.yul\":7356:7427   */\n      tag_307\n        /* \"#utility.yul\":7420:7426   */\n      dup2\n        /* \"#utility.yul\":7415:7418   */\n      dup6\n        /* \"#utility.yul\":7356:7427   */\n      tag_308\n      jump\t// in\n    tag_307:\n        /* \"#utility.yul\":7349:7427   */\n      swap4\n      pop\n        /* \"#utility.yul\":7436:7488   */\n      tag_309\n        /* \"#utility.yul\":7481:7487   */\n      dup2\n        /* \"#utility.yul\":7476:7479   */\n      dup6\n        /* \"#utility.yul\":7469:7473   */\n      0x20\n        /* \"#utility.yul\":7462:7467   */\n      dup7\n        /* \"#utility.yul\":7458:7474   */\n      add\n        /* \"#utility.yul\":7436:7488   */\n      tag_310\n      jump\t// in\n    tag_309:\n        /* \"#utility.yul\":7513:7542   */\n      tag_311\n        /* \"#utility.yul\":7535:7541   */\n      dup2\n        /* \"#utility.yul\":7513:7542   */\n      tag_312\n      jump\t// in\n    tag_311:\n        /* \"#utility.yul\":7508:7511   */\n      dup5\n        /* \"#utility.yul\":7504:7543   */\n      add\n        /* \"#utility.yul\":7497:7543   */\n      swap2\n      pop\n        /* \"#utility.yul\":7277:7549   */\n      pop\n        /* \"#utility.yul\":7185:7549   */\n      swap3\n      swap2\n      pop\n      pop\n      jump\t// out\n        /* \"#utility.yul\":7555:7921   */\n    tag_313:\n        /* \"#utility.yul\":7697:7700   */\n      0x00\n        /* \"#utility.yul\":7718:7785   */\n      tag_315\n        /* \"#utility.yul\":7782:7784   */\n      0x0e\n        /* \"#utility.yul\":7777:7780   */\n      dup4\n        /* \"#utility.yul\":7718:7785   */\n      tag_308\n      jump\t// in\n    tag_315:\n        /* \"#utility.yul\":7711:7785   */\n      swap2\n      pop\n        /* \"#utility.yul\":7794:7887   */\n      tag_316\n        /* \"#utility.yul\":7883:7886   */\n      dup3\n        /* \"#utility.yul\":7794:7887   */\n      tag_317\n      jump\t// in\n    tag_316:\n        /* \"#utility.yul\":7912:7914   */\n      0x20\n        /* \"#utility.yul\":7907:7910   */\n      dup3\n        /* \"#utility.yul\":7903:7915   */\n      add\n        /* \"#utility.yul\":7896:7915   */\n      swap1\n      pop\n        /* \"#utility.yul\":7555:7921   */\n      swap2\n      swap1\n      pop\n      jump\t// out\n        /* \"#utility.yul\":7927:8293   */\n    tag_318:\n        /* \"#utility.yul\":8069:8072   */\n      0x00\n        /* \"#utility.yul\":8090:8157   */\n      tag_320\n        /* \"#utility.yul\":8154:8156   */\n      0x0f\n        /* \"#utility.yul\":8149:8152   */\n      dup4\n        /* \"#utility.yul\":8090:8157   */\n      tag_308\n      jump\t// in\n    tag_320:\n        /* \"#utility.yul\":8083:8157   */\n      swap2\n      pop\n        /* \"#utility.yul\":8166:8259   */\n      tag_321\n        /* \"#utility.yul\":8255:8258   */\n      dup3\n        /* \"#utility.yul\":8166:8259   */\n      tag_322\n      jump\t// in\n    tag_321:\n        /* \"#utility.yul\":8284:8286   */\n      0x20\n        /* \"#utility.yul\":8279:8282   */\n      dup3\n        /* \"#utility.yul\":8275:8287   */\n      add\n        /* \"#utility.yul\":8268:8287   */\n      swap1\n      pop\n        /* \"#utility.yul\":7927:8293   */\n      swap2\n      swap1\n      pop\n      jump\t// out\n        /* \"#utility.yul\":8299:8665   */\n    tag_323:\n        /* \"#utility.yul\":8441:8444   */\n      0x00\n        /* \"#utility.yul\":8462:8529   */\n      tag_325\n        /* \"#utility.yul\":8526:8528   */\n      0x12\n        /* \"#utility.yul\":8521:8524   */\n      dup4\n        /* \"#utility.yul\":8462:8529   */\n      tag_308\n      jump\t// in\n    tag_325:\n        /* \"#utility.yul\":8455:8529   */\n      swap2\n      pop\n        /* \"#utility.yul\":8538:8631   */\n      tag_326\n        /* \"#utility.yul\":8627:8630   */\n      dup3\n        /* \"#utility.yul\":8538:8631   */\n      tag_327\n      jump\t// in\n    tag_326:\n        /* \"#utility.yul\":8656:8658   */\n      0x20\n        /* \"#utility.yul\":8651:8654   */\n      dup3\n        /* \"#utility.yul\":8647:8659   */\n      add\n        /* \"#utility.yul\":8640:8659   */\n      swap1\n      pop\n        /* \"#utility.yul\":8299:8665   */\n      swap2\n      swap1\n      pop\n      jump\t// out\n        /* \"#utility.yul\":8671:9037   */\n    tag_328:\n        /* \"#utility.yul\":8813:8816   */\n      0x00\n        /* \"#utility.yul\":8834:8901   */\n      tag_330\n        /* \"#utility.yul\":8898:8900   */\n      0x0e\n        /* \"#utility.yul\":8893:8896   */\n      dup4\n        /* \"#utility.yul\":8834:8901   */\n      tag_308\n      jump\t// in\n    tag_330:\n        /* \"#utility.yul\":8827:8901   */\n      swap2\n      pop\n        /* \"#utility.yul\":8910:9003   */\n      tag_331\n        /* \"#utility.yul\":8999:9002   */\n      dup3\n        /* \"#utility.yul\":8910:9003   */\n      tag_332\n      jump\t// in\n    tag_331:\n        /* \"#utility.yul\":9028:9030   */\n      0x20\n        /* \"#utility.yul\":9023:9026   */\n      dup3\n        /* \"#utility.yul\":9019:9031   */\n      add\n        /* \"#utility.yul\":9012:9031   */\n      swap1\n      pop\n        /* \"#utility.yul\":8671:9037   */\n      swap2\n      swap1\n      pop\n      jump\t// out\n        /* \"#utility.yul\":9043:9408   */\n    tag_333:\n        /* \"#utility.yul\":9185:9188   */\n      0x00\n        /* \"#utility.yul\":9206:9272   */\n      tag_335\n        /* \"#utility.yul\":9270:9271   */\n      0x08\n        /* \"#utility.yul\":9265:9268   */\n      dup4\n        /* \"#utility.yul\":9206:9272   */\n      tag_308\n      jump\t// in\n    tag_335:\n        /* \"#utility.yul\":9199:9272   */\n      swap2\n      pop\n        /* \"#utility.yul\":9281:9374   */\n      tag_336\n        /* \"#utility.yul\":9370:9373   */\n      dup3\n        /* \"#utility.yul\":9281:9374   */\n      tag_337\n      jump\t// in\n    tag_336:\n        /* \"#utility.yul\":9399:9401   */\n      0x20\n        /* \"#utility.yul\":9394:9397   */\n      dup3\n        /* \"#utility.yul\":9390:9402   */\n      add\n        /* \"#utility.yul\":9383:9402   */\n      swap1\n      pop\n        /* \"#utility.yul\":9043:9408   */\n      swap2\n      swap1\n      pop\n      jump\t// out\n        /* \"#utility.yul\":9414:9780   */\n    tag_338:\n        /* \"#utility.yul\":9556:9559   */\n      0x00\n        /* \"#utility.yul\":9577:9644   */\n      tag_340\n        /* \"#utility.yul\":9641:9643   */\n      0x0a\n        /* \"#utility.yul\":9636:9639   */\n      dup4\n        /* \"#utility.yul\":9577:9644   */\n      tag_308\n      jump\t// in\n    tag_340:\n        /* \"#utility.yul\":9570:9644   */\n      swap2\n      pop\n        /* \"#utility.yul\":9653:9746   */\n      tag_341\n        /* \"#utility.yul\":9742:9745   */\n      dup3\n        /* \"#utility.yul\":9653:9746   */\n      tag_342\n      jump\t// in\n    tag_341:\n        /* \"#utility.yul\":9771:9773   */\n      0x20\n        /* \"#utility.yul\":9766:9769   */\n      dup3\n        /* \"#utility.yul\":9762:9774   */\n      add\n        /* \"#utility.yul\":9755:9774   */\n      swap1\n      pop\n        /* \"#utility.yul\":9414:9780   */\n      swap2\n      swap1\n      pop\n      jump\t// out\n        /* \"#utility.yul\":9786:10152   */\n    tag_343:\n        /* \"#utility.yul\":9928:9931   */\n      0x00\n        /* \"#utility.yul\":9949:10016   */\n      tag_345\n        /* \"#utility.yul\":10013:10015   */\n      0x10\n        /* \"#utility.yul\":10008:10011   */\n      dup4\n        /* \"#utility.yul\":9949:10016   */\n      tag_308\n      jump\t// in\n    tag_345:\n        /* \"#utility.yul\":9942:10016   */\n      swap2\n      pop\n        /* \"#utility.yul\":10025:10118   */\n      tag_346\n        /* \"#utility.yul\":10114:10117   */\n      dup3\n        /* \"#utility.yul\":10025:10118   */\n      tag_347\n      jump\t// in\n    tag_346:\n        /* \"#utility.yul\":10143:10145   */\n      0x20\n        /* \"#utility.yul\":10138:10141   */\n      dup3\n        /* \"#utility.yul\":10134:10146   */\n      add\n        /* \"#utility.yul\":10127:10146   */\n      swap1\n      pop\n        /* \"#utility.yul\":9786:10152   */\n      swap2\n      swap1\n      pop\n      jump\t// out\n        /* \"#utility.yul\":10158:10524   */\n    tag_348:\n        /* \"#utility.yul\":10300:10303   */\n      0x00\n        /* \"#utility.yul\":10321:10388   */\n      tag_350\n        /* \"#utility.yul\":10385:10387   */\n      0x0e\n        /* \"#utility.yul\":10380:10383   */\n      dup4\n        /* \"#utility.yul\":10321:10388   */\n      tag_308\n      jump\t// in\n    tag_350:\n        /* \"#utility.yul\":10314:10388   */\n      swap2\n      pop\n        /* \"#utility.yul\":10397:10490   */\n      tag_351\n        /* \"#utility.yul\":10486:10489   */\n      dup3\n        /* \"#utility.yul\":10397:10490   */\n      tag_352\n      jump\t// in\n    tag_351:\n        /* \"#utility.yul\":10515:10517   */\n      0x20\n        /* \"#utility.yul\":10510:10513   */\n      dup3\n        /* \"#utility.yul\":10506:10518   */\n      add\n        /* \"#utility.yul\":10499:10518   */\n      swap1\n      pop\n        /* \"#utility.yul\":10158:10524   */\n      swap2\n      swap1\n      pop\n      jump\t// out\n        /* \"#utility.yul\":10530:10896   */\n    tag_353:\n        /* \"#utility.yul\":10672:10675   */\n      0x00\n        /* \"#utility.yul\":10693:10760   */\n      tag_355\n        /* \"#utility.yul\":10757:10759   */\n      0x18\n        /* \"#utility.yul\":10752:10755   */\n      dup4\n        /* \"#utility.yul\":10693:10760   */\n      tag_308\n      jump\t// in\n    tag_355:\n        /* \"#utility.yul\":10686:10760   */\n      swap2\n      pop\n        /* \"#utility.yul\":10769:10862   */\n      tag_356\n        /* \"#utility.yul\":10858:10861   */\n      dup3\n        /* \"#utility.yul\":10769:10862   */\n      tag_357\n      jump\t// in\n    tag_356:\n        /* \"#utility.yul\":10887:10889   */\n      0x20\n        /* \"#utility.yul\":10882:10885   */\n      dup3\n        /* \"#utility.yul\":10878:10890   */\n      add\n        /* \"#utility.yul\":10871:10890   */\n      swap1\n      pop\n        /* \"#utility.yul\":10530:10896   */\n      swap2\n      swap1\n      pop\n      jump\t// out\n        /* \"#utility.yul\":10902:11020   */\n    tag_358:\n        /* \"#utility.yul\":10989:11013   */\n      tag_360\n        /* \"#utility.yul\":11007:11012   */\n      dup2\n        /* \"#utility.yul\":10989:11013   */\n      tag_361\n      jump\t// in\n    tag_360:\n        /* \"#utility.yul\":10984:10987   */\n      dup3\n        /* \"#utility.yul\":10977:11014   */\n      mstore\n        /* \"#utility.yul\":10902:11020   */\n      pop\n      pop\n      jump\t// out\n        /* \"#utility.yul\":11026:11248   */\n    tag_39:\n        /* \"#utility.yul\":11119:11123   */\n      0x00\n        /* \"#utility.yul\":11157:11159   */\n      0x20\n        /* \"#utility.yul\":11146:11155   */\n      dup3\n        /* \"#utility.yul\":11142:11160   */\n      add\n        /* \"#utility.yul\":11134:11160   */\n      swap1\n      pop\n        /* \"#utility.yul\":11170:11241   */\n      tag_363\n        /* \"#utility.yul\":11238:11239   */\n      0x00\n        /* \"#utility.yul\":11227:11236   */\n      dup4\n        /* \"#utility.yul\":11223:11240   */\n      add\n        /* \"#utility.yul\":11214:11220   */\n      dup5\n        /* \"#utility.yul\":11170:11241   */\n      tag_295\n      jump\t// in\n    tag_363:\n        /* \"#utility.yul\":11026:11248   */\n      swap3\n      swap2\n      pop\n      pop\n      jump\t// out\n        /* \"#utility.yul\":11254:11464   */\n    tag_27:\n        /* \"#utility.yul\":11341:11345   */\n      0x00\n        /* \"#utility.yul\":11379:11381   */\n      0x20\n        /* \"#utility.yul\":11368:11377   */\n      dup3\n        /* \"#utility.yul\":11364:11382   */\n      add\n        /* \"#utility.yul\":11356:11382   */\n      swap1\n      pop\n        /* \"#utility.yul\":11392:11457   */\n      tag_365\n        /* \"#utility.yul\":11454:11455   */\n      0x00\n        /* \"#utility.yul\":11443:11452   */\n      dup4\n        /* \"#utility.yul\":11439:11456   */\n      add\n        /* \"#utility.yul\":11430:11436   */\n      dup5\n        /* \"#utility.yul\":11392:11457   */\n      tag_299\n      jump\t// in\n    tag_365:\n        /* \"#utility.yul\":11254:11464   */\n      swap3\n      swap2\n      pop\n      pop\n      jump\t// out\n        /* \"#utility.yul\":11470:11783   */\n    tag_32:\n        /* \"#utility.yul\":11583:11587   */\n      0x00\n        /* \"#utility.yul\":11621:11623   */\n      0x20\n        /* \"#utility.yul\":11610:11619   */\n      dup3\n        /* \"#utility.yul\":11606:11624   */\n      add\n        /* \"#utility.yul\":11598:11624   */\n      swap1\n      pop\n        /* \"#utility.yul\":11670:11679   */\n      dup2\n        /* \"#utility.yul\":11664:11668   */\n      dup2\n        /* \"#utility.yul\":11660:11680   */\n      sub\n        /* \"#utility.yul\":11656:11657   */\n      0x00\n        /* \"#utility.yul\":11645:11654   */\n      dup4\n        /* \"#utility.yul\":11641:11658   */\n      add\n        /* \"#utility.yul\":11634:11681   */\n      mstore\n        /* \"#utility.yul\":11698:11776   */\n      tag_367\n        /* \"#utility.yul\":11771:11775   */\n      dup2\n        /* \"#utility.yul\":11762:11768   */\n      dup5\n        /* \"#utility.yul\":11698:11776   */\n      tag_303\n      jump\t// in\n    tag_367:\n        /* \"#utility.yul\":11690:11776   */\n      swap1\n      pop\n        /* \"#utility.yul\":11470:11783   */\n      swap3\n      swap2\n      pop\n      pop\n      jump\t// out\n        /* \"#utility.yul\":11789:12208   */\n    tag_142:\n        /* \"#utility.yul\":11955:11959   */\n      0x00\n        /* \"#utility.yul\":11993:11995   */\n      0x20\n        /* \"#utility.yul\":11982:11991   */\n      dup3\n        /* \"#utility.yul\":11978:11996   */\n      add\n        /* \"#utility.yul\":11970:11996   */\n      swap1\n      pop\n        /* \"#utility.yul\":12042:12051   */\n      dup2\n        /* \"#utility.yul\":12036:12040   */\n      dup2\n        /* \"#utility.yul\":12032:12052   */\n      sub\n        /* \"#utility.yul\":12028:12029   */\n      0x00\n        /* \"#utility.yul\":12017:12026   */\n      dup4\n        /* \"#utility.yul\":12013:12030   */\n      add\n        /* \"#utility.yul\":12006:12053   */\n      mstore\n        /* \"#utility.yul\":12070:12201   */\n      tag_369\n        /* \"#utility.yul\":12196:12200   */\n      dup2\n        /* \"#utility.yul\":12070:12201   */\n      tag_313\n      jump\t// in\n    tag_369:\n        /* \"#utility.yul\":12062:12201   */\n      swap1\n      pop\n        /* \"#utility.yul\":11789:12208   */\n      swap2\n      swap1\n      pop\n      jump\t// out\n        /* \"#utility.yul\":12214:12633   */\n    tag_129:\n        /* \"#utility.yul\":12380:12384   */\n      0x00\n        /* \"#utility.yul\":12418:12420   */\n      0x20\n        /* \"#utility.yul\":12407:12416   */\n      dup3\n        /* \"#utility.yul\":12403:12421   */\n      add\n        /* \"#utility.yul\":12395:12421   */\n      swap1\n      pop\n        /* \"#utility.yul\":12467:12476   */\n      dup2\n        /* \"#utility.yul\":12461:12465   */\n      dup2\n        /* \"#utility.yul\":12457:12477   */\n      sub\n        /* \"#utility.yul\":12453:12454   */\n      0x00\n        /* \"#utility.yul\":12442:12451   */\n      dup4\n        /* \"#utility.yul\":12438:12455   */\n      add\n        /* \"#utility.yul\":12431:12478   */\n      mstore\n        /* \"#utility.yul\":12495:12626   */\n      tag_371\n        /* \"#utility.yul\":12621:12625   */\n      dup2\n        /* \"#utility.yul\":12495:12626   */\n      tag_318\n      jump\t// in\n    tag_371:\n        /* \"#utility.yul\":12487:12626   */\n      swap1\n      pop\n        /* \"#utility.yul\":12214:12633   */\n      swap2\n      swap1\n      pop\n      jump\t// out\n        /* \"#utility.yul\":12639:13058   */\n    tag_126:\n        /* \"#utility.yul\":12805:12809   */\n      0x00\n        /* \"#utility.yul\":12843:12845   */\n      0x20\n        /* \"#utility.yul\":12832:12841   */\n      dup3\n        /* \"#utility.yul\":12828:12846   */\n      add\n        /* \"#utility.yul\":12820:12846   */\n      swap1\n      pop\n        /* \"#utility.yul\":12892:12901   */\n      dup2\n        /* \"#utility.yul\":12886:12890   */\n      dup2\n        /* \"#utility.yul\":12882:12902   */\n      sub\n        /* \"#utility.yul\":12878:12879   */\n      0x00\n        /* \"#utility.yul\":12867:12876   */\n      dup4\n        /* \"#utility.yul\":12863:12880   */\n      add\n        /* \"#utility.yul\":12856:12903   */\n      mstore\n        /* \"#utility.yul\":12920:13051   */\n      tag_373\n        /* \"#utility.yul\":13046:13050   */\n      dup2\n        /* \"#utility.yul\":12920:13051   */\n      tag_323\n      jump\t// in\n    tag_373:\n        /* \"#utility.yul\":12912:13051   */\n      swap1\n      pop\n        /* \"#utility.yul\":12639:13058   */\n      swap2\n      swap1\n      pop\n      jump\t// out\n        /* \"#utility.yul\":13064:13483   */\n    tag_120:\n        /* \"#utility.yul\":13230:13234   */\n      0x00\n        /* \"#utility.yul\":13268:13270   */\n      0x20\n        /* \"#utility.yul\":13257:13266   */\n      dup3\n        /* \"#utility.yul\":13253:13271   */\n      add\n        /* \"#utility.yul\":13245:13271   */\n      swap1\n      pop\n        /* \"#utility.yul\":13317:13326   */\n      dup2\n        /* \"#utility.yul\":13311:13315   */\n      dup2\n        /* \"#utility.yul\":13307:13327   */\n      sub\n        /* \"#utility.yul\":13303:13304   */\n      0x00\n        /* \"#utility.yul\":13292:13301   */\n      dup4\n        /* \"#utility.yul\":13288:13305   */\n      add\n        /* \"#utility.yul\":13281:13328   */\n      mstore\n        /* \"#utility.yul\":13345:13476   */\n      tag_375\n        /* \"#utility.yul\":13471:13475   */\n      dup2\n        /* \"#utility.yul\":13345:13476   */\n      tag_328\n      jump\t// in\n    tag_375:\n        /* \"#utility.yul\":13337:13476   */\n      swap1\n      pop\n        /* \"#utility.yul\":13064:13483   */\n      swap2\n      swap1\n      pop\n      jump\t// out\n        /* \"#utility.yul\":13489:13908   */\n    tag_132:\n        /* \"#utility.yul\":13655:13659   */\n      0x00\n        /* \"#utility.yul\":13693:13695   */\n      0x20\n        /* \"#utility.yul\":13682:13691   */\n      dup3\n        /* \"#utility.yul\":13678:13696   */\n      add\n        /* \"#utility.yul\":13670:13696   */\n      swap1\n      pop\n        /* \"#utility.yul\":13742:13751   */\n      dup2\n        /* \"#utility.yul\":13736:13740   */\n      dup2\n        /* \"#utility.yul\":13732:13752   */\n      sub\n        /* \"#utility.yul\":13728:13729   */\n      0x00\n        /* \"#utility.yul\":13717:13726   */\n      dup4\n        /* \"#utility.yul\":13713:13730   */\n      add\n        /* \"#utility.yul\":13706:13753   */\n      mstore\n        /* \"#utility.yul\":13770:13901   */\n      tag_377\n        /* \"#utility.yul\":13896:13900   */\n      dup2\n        /* \"#utility.yul\":13770:13901   */\n      tag_333\n      jump\t// in\n    tag_377:\n        /* \"#utility.yul\":13762:13901   */\n      swap1\n      pop\n        /* \"#utility.yul\":13489:13908   */\n      swap2\n      swap1\n      pop\n      jump\t// out\n        /* \"#utility.yul\":13914:14333   */\n    tag_117:\n        /* \"#utility.yul\":14080:14084   */\n      0x00\n        /* \"#utility.yul\":14118:14120   */\n      0x20\n        /* \"#utility.yul\":14107:14116   */\n      dup3\n        /* \"#utility.yul\":14103:14121   */\n      add\n        /* \"#utility.yul\":14095:14121   */\n      swap1\n      pop\n        /* \"#utility.yul\":14167:14176   */\n      dup2\n        /* \"#utility.yul\":14161:14165   */\n      dup2\n        /* \"#utility.yul\":14157:14177   */\n      sub\n        /* \"#utility.yul\":14153:14154   */\n      0x00\n        /* \"#utility.yul\":14142:14151   */\n      dup4\n        /* \"#utility.yul\":14138:14155   */\n      add\n        /* \"#utility.yul\":14131:14178   */\n      mstore\n        /* \"#utility.yul\":14195:14326   */\n      tag_379\n        /* \"#utility.yul\":14321:14325   */\n      dup2\n        /* \"#utility.yul\":14195:14326   */\n      tag_338\n      jump\t// in\n    tag_379:\n        /* \"#utility.yul\":14187:14326   */\n      swap1\n      pop\n        /* \"#utility.yul\":13914:14333   */\n      swap2\n      swap1\n      pop\n      jump\t// out\n        /* \"#utility.yul\":14339:14758   */\n    tag_168:\n        /* \"#utility.yul\":14505:14509   */\n      0x00\n        /* \"#utility.yul\":14543:14545   */\n      0x20\n        /* \"#utility.yul\":14532:14541   */\n      dup3\n        /* \"#utility.yul\":14528:14546   */\n      add\n        /* \"#utility.yul\":14520:14546   */\n      swap1\n      pop\n        /* \"#utility.yul\":14592:14601   */\n      dup2\n        /* \"#utility.yul\":14586:14590   */\n      dup2\n        /* \"#utility.yul\":14582:14602   */\n      sub\n        /* \"#utility.yul\":14578:14579   */\n      0x00\n        /* \"#utility.yul\":14567:14576   */\n      dup4\n        /* \"#utility.yul\":14563:14580   */\n      add\n        /* \"#utility.yul\":14556:14603   */\n      mstore\n        /* \"#utility.yul\":14620:14751   */\n      tag_381\n        /* \"#utility.yul\":14746:14750   */\n      dup2\n        /* \"#utility.yul\":14620:14751   */\n      tag_343\n      jump\t// in\n    tag_381:\n        /* \"#utility.yul\":14612:14751   */\n      swap1\n      pop\n        /* \"#utility.yul\":14339:14758   */\n      swap2\n      swap1\n      pop\n      jump\t// out\n        /* \"#utility.yul\":14764:15183   */\n    tag_181:\n        /* \"#utility.yul\":14930:14934   */\n      0x00\n        /* \"#utility.yul\":14968:14970   */\n      0x20\n        /* \"#utility.yul\":14957:14966   */\n      dup3\n        /* \"#utility.yul\":14953:14971   */\n      add\n        /* \"#utility.yul\":14945:14971   */\n      swap1\n      pop\n        /* \"#utility.yul\":15017:15026   */\n      dup2\n        /* \"#utility.yul\":15011:15015   */\n      dup2\n        /* \"#utility.yul\":15007:15027   */\n      sub\n        /* \"#utility.yul\":15003:15004   */\n      0x00\n        /* \"#utility.yul\":14992:15001   */\n      dup4\n        /* \"#utility.yul\":14988:15005   */\n      add\n        /* \"#utility.yul\":14981:15028   */\n      mstore\n        /* \"#utility.yul\":15045:15176   */\n      tag_383\n        /* \"#utility.yul\":15171:15175   */\n      dup2\n        /* \"#utility.yul\":15045:15176   */\n      tag_348\n      jump\t// in\n    tag_383:\n        /* \"#utility.yul\":15037:15176   */\n      swap1\n      pop\n        /* \"#utility.yul\":14764:15183   */\n      swap2\n      swap1\n      pop\n      jump\t// out\n        /* \"#utility.yul\":15189:15608   */\n    tag_135:\n        /* \"#utility.yul\":15355:15359   */\n      0x00\n        /* \"#utility.yul\":15393:15395   */\n      0x20\n        /* \"#utility.yul\":15382:15391   */\n      dup3\n        /* \"#utility.yul\":15378:15396   */\n      add\n        /* \"#utility.yul\":15370:15396   */\n      swap1\n      pop\n        /* \"#utility.yul\":15442:15451   */\n      dup2\n        /* \"#utility.yul\":15436:15440   */\n      dup2\n        /* \"#utility.yul\":15432:15452   */\n      sub\n        /* \"#utility.yul\":15428:15429   */\n      0x00\n        /* \"#utility.yul\":15417:15426   */\n      dup4\n        /* \"#utility.yul\":15413:15430   */\n      add\n        /* \"#utility.yul\":15406:15453   */\n      mstore\n        /* \"#utility.yul\":15470:15601   */\n      tag_385\n        /* \"#utility.yul\":15596:15600   */\n      dup2\n        /* \"#utility.yul\":15470:15601   */\n      tag_353\n      jump\t// in\n    tag_385:\n        /* \"#utility.yul\":15462:15601   */\n      swap1\n      pop\n        /* \"#utility.yul\":15189:15608   */\n      swap2\n      swap1\n      pop\n      jump\t// out\n        /* \"#utility.yul\":15614:15836   */\n    tag_66:\n        /* \"#utility.yul\":15707:15711   */\n      0x00\n        /* \"#utility.yul\":15745:15747   */\n      0x20\n        /* \"#utility.yul\":15734:15743   */\n      dup3\n        /* \"#utility.yul\":15730:15748   */\n      add\n        /* \"#utility.yul\":15722:15748   */\n      swap1\n      pop\n        /* \"#utility.yul\":15758:15829   */\n      tag_387\n        /* \"#utility.yul\":15826:15827   */\n      0x00\n        /* \"#utility.yul\":15815:15824   */\n      dup4\n        /* \"#utility.yul\":15811:15828   */\n      add\n        /* \"#utility.yul\":15802:15808   */\n      dup5\n        /* \"#utility.yul\":15758:15829   */\n      tag_358\n      jump\t// in\n    tag_387:\n        /* \"#utility.yul\":15614:15836   */\n      swap3\n      swap2\n      pop\n      pop\n      jump\t// out\n        /* \"#utility.yul\":15842:15971   */\n    tag_202:\n        /* \"#utility.yul\":15876:15882   */\n      0x00\n        /* \"#utility.yul\":15903:15923   */\n      tag_389\n      tag_390\n      jump\t// in\n    tag_389:\n        /* \"#utility.yul\":15893:15923   */\n      swap1\n      pop\n        /* \"#utility.yul\":15932:15965   */\n      tag_391\n        /* \"#utility.yul\":15960:15964   */\n      dup3\n        /* \"#utility.yul\":15952:15958   */\n      dup3\n        /* \"#utility.yul\":15932:15965   */\n      tag_392\n      jump\t// in\n    tag_391:\n        /* \"#utility.yul\":15842:15971   */\n      swap2\n      swap1\n      pop\n      jump\t// out\n        /* \"#utility.yul\":15977:16052   */\n    tag_390:\n        /* \"#utility.yul\":16010:16016   */\n      0x00\n        /* \"#utility.yul\":16043:16045   */\n      0x40\n        /* \"#utility.yul\":16037:16046   */\n      mload\n        /* \"#utility.yul\":16027:16046   */\n      swap1\n      pop\n        /* \"#utility.yul\":15977:16052   */\n      swap1\n      jump\t// out\n        /* \"#utility.yul\":16058:16365   */\n    tag_201:\n        /* \"#utility.yul\":16119:16123   */\n      0x00\n        /* \"#utility.yul\":16209:16227   */\n      0xffffffffffffffff\n        /* \"#utility.yul\":16201:16207   */\n      dup3\n        /* \"#utility.yul\":16198:16228   */\n      gt\n        /* \"#utility.yul\":16195:16251   */\n      iszero\n      tag_395\n      jumpi\n        /* \"#utility.yul\":16231:16249   */\n      tag_396\n      tag_397\n      jump\t// in\n    tag_396:\n        /* \"#utility.yul\":16195:16251   */\n    tag_395:\n        /* \"#utility.yul\":16269:16298   */\n      tag_398\n        /* \"#utility.yul\":16291:16297   */\n      dup3\n        /* \"#utility.yul\":16269:16298   */\n      tag_312\n      jump\t// in\n    tag_398:\n        /* \"#utility.yul\":16261:16298   */\n      swap1\n      pop\n        /* \"#utility.yul\":16353:16357   */\n      0x20\n        /* \"#utility.yul\":16347:16351   */\n      dup2\n        /* \"#utility.yul\":16343:16358   */\n      add\n        /* \"#utility.yul\":16335:16358   */\n      swap1\n      pop\n        /* \"#utility.yul\":16058:16365   */\n      swap2\n      swap1\n      pop\n      jump\t// out\n        /* \"#utility.yul\":16371:16679   */\n    tag_212:\n        /* \"#utility.yul\":16433:16437   */\n      0x00\n        /* \"#utility.yul\":16523:16541   */\n      0xffffffffffffffff\n        /* \"#utility.yul\":16515:16521   */\n      dup3\n        /* \"#utility.yul\":16512:16542   */\n      gt\n        /* \"#utility.yul\":16509:16565   */\n      iszero\n      tag_400\n      jumpi\n        /* \"#utility.yul\":16545:16563   */\n      tag_401\n      tag_397\n      jump\t// in\n    tag_401:\n        /* \"#utility.yul\":16509:16565   */\n    tag_400:\n        /* \"#utility.yul\":16583:16612   */\n      tag_402\n        /* \"#utility.yul\":16605:16611   */\n      dup3\n        /* \"#utility.yul\":16583:16612   */\n      tag_312\n      jump\t// in\n    tag_402:\n        /* \"#utility.yul\":16575:16612   */\n      swap1\n      pop\n        /* \"#utility.yul\":16667:16671   */\n      0x20\n        /* \"#utility.yul\":16661:16665   */\n      dup2\n        /* \"#utility.yul\":16657:16672   */\n      add\n        /* \"#utility.yul\":16649:16672   */\n      swap1\n      pop\n        /* \"#utility.yul\":16371:16679   */\n      swap2\n      swap1\n      pop\n      jump\t// out\n        /* \"#utility.yul\":16685:16784   */\n    tag_306:\n        /* \"#utility.yul\":16737:16743   */\n      0x00\n        /* \"#utility.yul\":16771:16776   */\n      dup2\n        /* \"#utility.yul\":16765:16777   */\n      mload\n        /* \"#utility.yul\":16755:16777   */\n      swap1\n      pop\n        /* \"#utility.yul\":16685:16784   */\n      swap2\n      swap1\n      pop\n      jump\t// out\n        /* \"#utility.yul\":16790:16959   */\n    tag_308:\n        /* \"#utility.yul\":16874:16885   */\n      0x00\n        /* \"#utility.yul\":16908:16914   */\n      dup3\n        /* \"#utility.yul\":16903:16906   */\n      dup3\n        /* \"#utility.yul\":16896:16915   */\n      mstore\n        /* \"#utility.yul\":16948:16952   */\n      0x20\n        /* \"#utility.yul\":16943:16946   */\n      dup3\n        /* \"#utility.yul\":16939:16953   */\n      add\n        /* \"#utility.yul\":16924:16953   */\n      swap1\n      pop\n        /* \"#utility.yul\":16790:16959   */\n      swap3\n      swap2\n      pop\n      pop\n      jump\t// out\n        /* \"#utility.yul\":16965:17270   */\n    tag_146:\n        /* \"#utility.yul\":17005:17008   */\n      0x00\n        /* \"#utility.yul\":17024:17044   */\n      tag_406\n        /* \"#utility.yul\":17042:17043   */\n      dup3\n        /* \"#utility.yul\":17024:17044   */\n      tag_361\n      jump\t// in\n    tag_406:\n        /* \"#utility.yul\":17019:17044   */\n      swap2\n      pop\n        /* \"#utility.yul\":17058:17078   */\n      tag_407\n        /* \"#utility.yul\":17076:17077   */\n      dup4\n        /* \"#utility.yul\":17058:17078   */\n      tag_361\n      jump\t// in\n    tag_407:\n        /* \"#utility.yul\":17053:17078   */\n      swap3\n      pop\n        /* \"#utility.yul\":17212:17213   */\n      dup3\n        /* \"#utility.yul\":17144:17210   */\n      0xffffffffffffffffffffffffffffffffffffffffffffffffffffffffffffffff\n        /* \"#utility.yul\":17140:17214   */\n      sub\n        /* \"#utility.yul\":17137:17138   */\n      dup3\n        /* \"#utility.yul\":17134:17215   */\n      gt\n        /* \"#utility.yul\":17131:17238   */\n      iszero\n      tag_408\n      jumpi\n        /* \"#utility.yul\":17218:17236   */\n      tag_409\n      tag_410\n      jump\t// in\n    tag_409:\n        /* \"#utility.yul\":17131:17238   */\n    tag_408:\n        /* \"#utility.yul\":17262:17263   */\n      dup3\n        /* \"#utility.yul\":17259:17260   */\n      dup3\n        /* \"#utility.yul\":17255:17264   */\n      add\n        /* \"#utility.yul\":17248:17264   */\n      swap1\n      pop\n        /* \"#utility.yul\":16965:17270   */\n      swap3\n      swap2\n      pop\n      pop\n      jump\t// out\n        /* \"#utility.yul\":17276:17467   */\n    tag_144:\n        /* \"#utility.yul\":17316:17320   */\n      0x00\n        /* \"#utility.yul\":17336:17356   */\n      tag_412\n        /* \"#utility.yul\":17354:17355   */\n      dup3\n        /* \"#utility.yul\":17336:17356   */\n      tag_361\n      jump\t// in\n    tag_412:\n        /* \"#utility.yul\":17331:17356   */\n      swap2\n      pop\n        /* \"#utility.yul\":17370:17390   */\n      tag_413\n        /* \"#utility.yul\":17388:17389   */\n      dup4\n        /* \"#utility.yul\":17370:17390   */\n      tag_361\n      jump\t// in\n    tag_413:\n        /* \"#utility.yul\":17365:17390   */\n      swap3\n      pop\n        /* \"#utility.yul\":17409:17410   */\n      dup3\n        /* \"#utility.yul\":17406:17407   */\n      dup3\n        /* \"#utility.yul\":17403:17411   */\n      lt\n        /* \"#utility.yul\":17400:17434   */\n      iszero\n      tag_414\n      jumpi\n        /* \"#utility.yul\":17414:17432   */\n      tag_415\n      tag_410\n      jump\t// in\n    tag_415:\n        /* \"#utility.yul\":17400:17434   */\n    tag_414:\n        /* \"#utility.yul\":17459:17460   */\n      dup3\n        /* \"#utility.yul\":17456:17457   */\n      dup3\n        /* \"#utility.yul\":17452:17461   */\n      sub\n        /* \"#utility.yul\":17444:17461   */\n      swap1\n      pop\n        /* \"#utility.yul\":17276:17467   */\n      swap3\n      swap2\n      pop\n      pop\n      jump\t// out\n        /* \"#utility.yul\":17473:17569   */\n    tag_298:\n        /* \"#utility.yul\":17510:17517   */\n      0x00\n        /* \"#utility.yul\":17539:17563   */\n      tag_417\n        /* \"#utility.yul\":17557:17562   */\n      dup3\n        /* \"#utility.yul\":17539:17563   */\n      tag_418\n      jump\t// in\n    tag_417:\n        /* \"#utility.yul\":17528:17563   */\n      swap1\n      pop\n        /* \"#utility.yul\":17473:17569   */\n      swap2\n      swap1\n      pop\n      jump\t// out\n        /* \"#utility.yul\":17575:17665   */\n    tag_302:\n        /* \"#utility.yul\":17609:17616   */\n      0x00\n        /* \"#utility.yul\":17652:17657   */\n      dup2\n        /* \"#utility.yul\":17645:17658   */\n      iszero\n        /* \"#utility.yul\":17638:17659   */\n      iszero\n        /* \"#utility.yul\":17627:17659   */\n      swap1\n      pop\n        /* \"#utility.yul\":17575:17665   */\n      swap2\n      swap1\n      pop\n      jump\t// out\n        /* \"#utility.yul\":17671:17820   */\n    tag_420:\n        /* \"#utility.yul\":17707:17714   */\n      0x00\n        /* \"#utility.yul\":17747:17813   */\n      0xffffffff00000000000000000000000000000000000000000000000000000000\n        /* \"#utility.yul\":17740:17745   */\n      dup3\n        /* \"#utility.yul\":17736:17814   */\n      and\n        /* \"#utility.yul\":17725:17814   */\n      swap1\n      pop\n        /* \"#utility.yul\":17671:17820   */\n      swap2\n      swap1\n      pop\n      jump\t// out\n        /* \"#utility.yul\":17826:17952   */\n    tag_418:\n        /* \"#utility.yul\":17863:17870   */\n      0x00\n        /* \"#utility.yul\":17903:17945   */\n      0xffffffffffffffffffffffffffffffffffffffff\n        /* \"#utility.yul\":17896:17901   */\n      dup3\n        /* \"#utility.yul\":17892:17946   */\n      and\n        /* \"#utility.yul\":17881:17946   */\n      swap1\n      pop\n        /* \"#utility.yul\":17826:17952   */\n      swap2\n      swap1\n      pop\n      jump\t// out\n        /* \"#utility.yul\":17958:18035   */\n    tag_361:\n        /* \"#utility.yul\":17995:18002   */\n      0x00\n        /* \"#utility.yul\":18024:18029   */\n      dup2\n        /* \"#utility.yul\":18013:18029   */\n      swap1\n      pop\n        /* \"#utility.yul\":17958:18035   */\n      swap2\n      swap1\n      pop\n      jump\t// out\n        /* \"#utility.yul\":18041:18195   */\n    tag_207:\n        /* \"#utility.yul\":18125:18131   */\n      dup3\n        /* \"#utility.yul\":18120:18123   */\n      dup2\n        /* \"#utility.yul\":18115:18118   */\n      dup4\n        /* \"#utility.yul\":18102:18132   */\n      calldatacopy\n        /* \"#utility.yul\":18187:18188   */\n      0x00\n        /* \"#utility.yul\":18178:18184   */\n      dup4\n        /* \"#utility.yul\":18173:18176   */\n      dup4\n        /* \"#utility.yul\":18169:18185   */\n      add\n        /* \"#utility.yul\":18162:18189   */\n      mstore\n        /* \"#utility.yul\":18041:18195   */\n      pop\n      pop\n      pop\n      jump\t// out\n        /* \"#utility.yul\":18201:18508   */\n    tag_310:\n        /* \"#utility.yul\":18269:18270   */\n      0x00\n        /* \"#utility.yul\":18279:18392   */\n    tag_426:\n        /* \"#utility.yul\":18293:18299   */\n      dup4\n        /* \"#utility.yul\":18290:18291   */\n      dup2\n        /* \"#utility.yul\":18287:18300   */\n      lt\n        /* \"#utility.yul\":18279:18392   */\n      iszero\n      tag_428\n      jumpi\n        /* \"#utility.yul\":18378:18379   */\n      dup1\n        /* \"#utility.yul\":18373:18376   */\n      dup3\n        /* \"#utility.yul\":18369:18380   */\n      add\n        /* \"#utility.yul\":18363:18381   */\n      mload\n        /* \"#utility.yul\":18359:18360   */\n      dup2\n        /* \"#utility.yul\":18354:18357   */\n      dup5\n        /* \"#utility.yul\":18350:18361   */\n      add\n        /* \"#utility.yul\":18343:18382   */\n      mstore\n        /* \"#utility.yul\":18315:18317   */\n      0x20\n        /* \"#utility.yul\":18312:18313   */\n      dup2\n        /* \"#utility.yul\":18308:18318   */\n      add\n        /* \"#utility.yul\":18303:18318   */\n      swap1\n      pop\n        /* \"#utility.yul\":18279:18392   */\n      jump(tag_426)\n    tag_428:\n        /* \"#utility.yul\":18410:18416   */\n      dup4\n        /* \"#utility.yul\":18407:18408   */\n      dup2\n        /* \"#utility.yul\":18404:18417   */\n      gt\n        /* \"#utility.yul\":18401:18502   */\n      iszero\n      tag_429\n      jumpi\n        /* \"#utility.yul\":18490:18491   */\n      0x00\n        /* \"#utility.yul\":18481:18487   */\n      dup5\n        /* \"#utility.yul\":18476:18479   */\n      dup5\n        /* \"#utility.yul\":18472:18488   */\n      add\n        /* \"#utility.yul\":18465:18492   */\n      mstore\n        /* \"#utility.yul\":18401:18502   */\n    tag_429:\n        /* \"#utility.yul\":18250:18508   */\n      pop\n        /* \"#utility.yul\":18201:18508   */\n      pop\n      pop\n      pop\n      jump\t// out\n        /* \"#utility.yul\":18514:18834   */\n    tag_108:\n        /* \"#utility.yul\":18558:18564   */\n      0x00\n        /* \"#utility.yul\":18595:18596   */\n      0x02\n        /* \"#utility.yul\":18589:18593   */\n      dup3\n        /* \"#utility.yul\":18585:18597   */\n      div\n        /* \"#utility.yul\":18575:18597   */\n      swap1\n      pop\n        /* \"#utility.yul\":18642:18643   */\n      0x01\n        /* \"#utility.yul\":18636:18640   */\n      dup3\n        /* \"#utility.yul\":18632:18644   */\n      and\n        /* \"#utility.yul\":18663:18681   */\n      dup1\n        /* \"#utility.yul\":18653:18734   */\n      tag_431\n      jumpi\n        /* \"#utility.yul\":18719:18723   */\n      0x7f\n        /* \"#utility.yul\":18711:18717   */\n      dup3\n        /* \"#utility.yul\":18707:18724   */\n      and\n        /* \"#utility.yul\":18697:18724   */\n      swap2\n      pop\n        /* \"#utility.yul\":18653:18734   */\n    tag_431:\n        /* \"#utility.yul\":18781:18783   */\n      0x20\n        /* \"#utility.yul\":18773:18779   */\n      dup3\n        /* \"#utility.yul\":18770:18784   */\n      lt\n        /* \"#utility.yul\":18750:18768   */\n      dup2\n        /* \"#utility.yul\":18747:18785   */\n      eq\n        /* \"#utility.yul\":18744:18828   */\n      iszero\n      tag_432\n      jumpi\n        /* \"#utility.yul\":18800:18818   */\n      tag_433\n      tag_434\n      jump\t// in\n    tag_433:\n        /* \"#utility.yul\":18744:18828   */\n    tag_432:\n        /* \"#utility.yul\":18565:18834   */\n      pop\n        /* \"#utility.yul\":18514:18834   */\n      swap2\n      swap1\n      pop\n      jump\t// out\n        /* \"#utility.yul\":18840:19121   */\n    tag_392:\n        /* \"#utility.yul\":18923:18950   */\n      tag_436\n        /* \"#utility.yul\":18945:18949   */\n      dup3\n        /* \"#utility.yul\":18923:18950   */\n      tag_312\n      jump\t// in\n    tag_436:\n        /* \"#utility.yul\":18915:18921   */\n      dup2\n        /* \"#utility.yul\":18911:18951   */\n      add\n        /* \"#utility.yul\":19053:19059   */\n      dup2\n        /* \"#utility.yul\":19041:19051   */\n      dup2\n        /* \"#utility.yul\":19038:19060   */\n      lt\n        /* \"#utility.yul\":19017:19035   */\n      0xffffffffffffffff\n        /* \"#utility.yul\":19005:19015   */\n      dup3\n        /* \"#utility.yul\":19002:19036   */\n      gt\n        /* \"#utility.yul\":18999:19061   */\n      or\n        /* \"#utility.yul\":18996:19084   */\n      iszero\n      tag_437\n      jumpi\n        /* \"#utility.yul\":19064:19082   */\n      tag_438\n      tag_397\n      jump\t// in\n    tag_438:\n        /* \"#utility.yul\":18996:19084   */\n    tag_437:\n        /* \"#utility.yul\":19104:19114   */\n      dup1\n        /* \"#utility.yul\":19100:19102   */\n      0x40\n        /* \"#utility.yul\":19093:19115   */\n      mstore\n        /* \"#utility.yul\":18883:19121   */\n      pop\n        /* \"#utility.yul\":18840:19121   */\n      pop\n      pop\n      jump\t// out\n        /* \"#utility.yul\":19127:19307   */\n    tag_410:\n        /* \"#utility.yul\":19175:19252   */\n      0x4e487b7100000000000000000000000000000000000000000000000000000000\n        /* \"#utility.yul\":19172:19173   */\n      0x00\n        /* \"#utility.yul\":19165:19253   */\n      mstore\n        /* \"#utility.yul\":19272:19276   */\n      0x11\n        /* \"#utility.yul\":19269:19270   */\n      0x04\n        /* \"#utility.yul\":19262:19277   */\n      mstore\n        /* \"#utility.yul\":19296:19300   */\n      0x24\n        /* \"#utility.yul\":19293:19294   */\n      0x00\n        /* \"#utility.yul\":19286:19301   */\n      revert\n        /* \"#utility.yul\":19313:19493   */\n    tag_434:\n        /* \"#utility.yul\":19361:19438   */\n      0x4e487b7100000000000000000000000000000000000000000000000000000000\n        /* \"#utility.yul\":19358:19359   */\n      0x00\n        /* \"#utility.yul\":19351:19439   */\n      mstore\n        /* \"#utility.yul\":19458:19462   */\n      0x22\n        /* \"#utility.yul\":19455:19456   */\n      0x04\n        /* \"#utility.yul\":19448:19463   */\n      mstore\n        /* \"#utility.yul\":19482:19486   */\n      0x24\n        /* \"#utility.yul\":19479:19480   */\n      0x00\n        /* \"#utility.yul\":19472:19487   */\n      revert\n        /* \"#utility.yul\":19499:19679   */\n    tag_397:\n        /* \"#utility.yul\":19547:19624   */\n      0x4e487b7100000000000000000000000000000000000000000000000000000000\n        /* \"#utility.yul\":19544:19545   */\n      0x00\n        /* \"#utility.yul\":19537:19625   */\n      mstore\n        /* \"#utility.yul\":19644:19648   */\n      0x41\n        /* \"#utility.yul\":19641:19642   */\n      0x04\n        /* \"#utility.yul\":19634:19649   */\n      mstore\n        /* \"#utility.yul\":19668:19672   */\n      0x24\n        /* \"#utility.yul\":19665:19666   */\n      0x00\n        /* \"#utility.yul\":19658:19673   */\n      revert\n        /* \"#utility.yul\":19685:19802   */\n    tag_232:\n        /* \"#utility.yul\":19794:19795   */\n      0x00\n        /* \"#utility.yul\":19791:19792   */\n      dup1\n        /* \"#utility.yul\":19784:19796   */\n      revert\n        /* \"#utility.yul\":19808:19925   */\n    tag_205:\n        /* \"#utility.yul\":19917:19918   */\n      0x00\n        /* \"#utility.yul\":19914:19915   */\n      dup1\n        /* \"#utility.yul\":19907:19919   */\n      revert\n        /* \"#utility.yul\":19931:20048   */\n    tag_267:\n        /* \"#utility.yul\":20040:20041   */\n      0x00\n        /* \"#utility.yul\":20037:20038   */\n      dup1\n        /* \"#utility.yul\":20030:20042   */\n      revert\n        /* \"#utility.yul\":20054:20171   */\n    tag_246:\n        /* \"#utility.yul\":20163:20164   */\n      0x00\n        /* \"#utility.yul\":20160:20161   */\n      dup1\n        /* \"#utility.yul\":20153:20165   */\n      revert\n        /* \"#utility.yul\":20177:20279   */\n    tag_312:\n        /* \"#utility.yul\":20218:20224   */\n      0x00\n        /* \"#utility.yul\":20269:20271   */\n      0x1f\n        /* \"#utility.yul\":20265:20272   */\n      not\n        /* \"#utility.yul\":20260:20262   */\n      0x1f\n        /* \"#utility.yul\":20253:20258   */\n      dup4\n        /* \"#utility.yul\":20249:20263   */\n      add\n        /* \"#utility.yul\":20245:20273   */\n      and\n        /* \"#utility.yul\":20235:20273   */\n      swap1\n      pop\n        /* \"#utility.yul\":20177:20279   */\n      swap2\n      swap1\n      pop\n      jump\t// out\n        /* \"#utility.yul\":20285:20449   */\n    tag_317:\n        /* \"#utility.yul\":20425:20441   */\n      0x6e6f74207065726d697373696f6e000000000000000000000000000000000000\n        /* \"#utility.yul\":20421:20422   */\n      0x00\n        /* \"#utility.yul\":20413:20419   */\n      dup3\n        /* \"#utility.yul\":20409:20423   */\n      add\n        /* \"#utility.yul\":20402:20442   */\n      mstore\n        /* \"#utility.yul\":20285:20449   */\n      pop\n      jump\t// out\n        /* \"#utility.yul\":20455:20620   */\n    tag_322:\n        /* \"#utility.yul\":20595:20612   */\n      0x696e76616c696420746f6b656e49640000000000000000000000000000000000\n        /* \"#utility.yul\":20591:20592   */\n      0x00\n        /* \"#utility.yul\":20583:20589   */\n      dup3\n        /* \"#utility.yul\":20579:20593   */\n      add\n        /* \"#utility.yul\":20572:20613   */\n      mstore\n        /* \"#utility.yul\":20455:20620   */\n      pop\n      jump\t// out\n        /* \"#utility.yul\":20626:20794   */\n    tag_327:\n        /* \"#utility.yul\":20766:20786   */\n      0x696e76616c696420544f20616464726573730000000000000000000000000000\n        /* \"#utility.yul\":20762:20763   */\n      0x00\n        /* \"#utility.yul\":20754:20760   */\n      dup3\n        /* \"#utility.yul\":20750:20764   */\n      add\n        /* \"#utility.yul\":20743:20787   */\n      mstore\n        /* \"#utility.yul\":20626:20794   */\n      pop\n      jump\t// out\n        /* \"#utility.yul\":20800:20964   */\n    tag_332:\n        /* \"#utility.yul\":20940:20956   */\n      0x6e6f77207065726d697373696f6e000000000000000000000000000000000000\n        /* \"#utility.yul\":20936:20937   */\n      0x00\n        /* \"#utility.yul\":20928:20934   */\n      dup3\n        /* \"#utility.yul\":20924:20938   */\n      add\n        /* \"#utility.yul\":20917:20957   */\n      mstore\n        /* \"#utility.yul\":20800:20964   */\n      pop\n      jump\t// out\n        /* \"#utility.yul\":20970:21128   */\n    tag_337:\n        /* \"#utility.yul\":21110:21120   */\n      0x6e6f742041757468000000000000000000000000000000000000000000000000\n        /* \"#utility.yul\":21106:21107   */\n      0x00\n        /* \"#utility.yul\":21098:21104   */\n      dup3\n        /* \"#utility.yul\":21094:21108   */\n      add\n        /* \"#utility.yul\":21087:21121   */\n      mstore\n        /* \"#utility.yul\":20970:21128   */\n      pop\n      jump\t// out\n        /* \"#utility.yul\":21134:21294   */\n    tag_342:\n        /* \"#utility.yul\":21274:21286   */\n      0x6e6f74206d696e74656400000000000000000000000000000000000000000000\n        /* \"#utility.yul\":21270:21271   */\n      0x00\n        /* \"#utility.yul\":21262:21268   */\n      dup3\n        /* \"#utility.yul\":21258:21272   */\n      add\n        /* \"#utility.yul\":21251:21287   */\n      mstore\n        /* \"#utility.yul\":21134:21294   */\n      pop\n      jump\t// out\n        /* \"#utility.yul\":21300:21466   */\n    tag_347:\n        /* \"#utility.yul\":21440:21458   */\n      0x696e76616c6964206f70657261746f7200000000000000000000000000000000\n        /* \"#utility.yul\":21436:21437   */\n      0x00\n        /* \"#utility.yul\":21428:21434   */\n      dup3\n        /* \"#utility.yul\":21424:21438   */\n      add\n        /* \"#utility.yul\":21417:21459   */\n      mstore\n        /* \"#utility.yul\":21300:21466   */\n      pop\n      jump\t// out\n        /* \"#utility.yul\":21472:21636   */\n    tag_352:\n        /* \"#utility.yul\":21612:21628   */\n      0x616c7265616479206d696e746564000000000000000000000000000000000000\n        /* \"#utility.yul\":21608:21609   */\n      0x00\n        /* \"#utility.yul\":21600:21606   */\n      dup3\n        /* \"#utility.yul\":21596:21610   */\n      add\n        /* \"#utility.yul\":21589:21629   */\n      mstore\n        /* \"#utility.yul\":21472:21636   */\n      pop\n      jump\t// out\n        /* \"#utility.yul\":21642:21816   */\n    tag_357:\n        /* \"#utility.yul\":21782:21808   */\n      0x796f752063616e207472616e66657220796f757273656c660000000000000000\n        /* \"#utility.yul\":21778:21779   */\n      0x00\n        /* \"#utility.yul\":21770:21776   */\n      dup3\n        /* \"#utility.yul\":21766:21780   */\n      add\n        /* \"#utility.yul\":21759:21809   */\n      mstore\n        /* \"#utility.yul\":21642:21816   */\n      pop\n      jump\t// out\n        /* \"#utility.yul\":21822:21944   */\n    tag_219:\n        /* \"#utility.yul\":21895:21919   */\n      tag_457\n        /* \"#utility.yul\":21913:21918   */\n      dup2\n        /* \"#utility.yul\":21895:21919   */\n      tag_298\n      jump\t// in\n    tag_457:\n        /* \"#utility.yul\":21888:21893   */\n      dup2\n        /* \"#utility.yul\":21885:21920   */\n      eq\n        /* \"#utility.yul\":21875:21938   */\n      tag_458\n      jumpi\n        /* \"#utility.yul\":21934:21935   */\n      0x00\n        /* \"#utility.yul\":21931:21932   */\n      dup1\n        /* \"#utility.yul\":21924:21936   */\n      revert\n        /* \"#utility.yul\":21875:21938   */\n    tag_458:\n        /* \"#utility.yul\":21822:21944   */\n      pop\n      jump\t// out\n        /* \"#utility.yul\":21950:22066   */\n    tag_223:\n        /* \"#utility.yul\":22020:22041   */\n      tag_460\n        /* \"#utility.yul\":22035:22040   */\n      dup2\n        /* \"#utility.yul\":22020:22041   */\n      tag_302\n      jump\t// in\n    tag_460:\n        /* \"#utility.yul\":22013:22018   */\n      dup2\n        /* \"#utility.yul\":22010:22042   */\n      eq\n        /* \"#utility.yul\":22000:22060   */\n      tag_461\n      jumpi\n        /* \"#utility.yul\":22056:22057   */\n      0x00\n        /* \"#utility.yul\":22053:22054   */\n      dup1\n        /* \"#utility.yul\":22046:22058   */\n      revert\n        /* \"#utility.yul\":22000:22060   */\n    tag_461:\n        /* \"#utility.yul\":21950:22066   */\n      pop\n      jump\t// out\n        /* \"#utility.yul\":22072:22192   */\n    tag_227:\n        /* \"#utility.yul\":22144:22167   */\n      tag_463\n        /* \"#utility.yul\":22161:22166   */\n      dup2\n        /* \"#utility.yul\":22144:22167   */\n      tag_420\n      jump\t// in\n    tag_463:\n        /* \"#utility.yul\":22137:22142   */\n      dup2\n        /* \"#utility.yul\":22134:22168   */\n      eq\n        /* \"#utility.yul\":22124:22186   */\n      tag_464\n      jumpi\n        /* \"#utility.yul\":22182:22183   */\n      0x00\n        /* \"#utility.yul\":22179:22180   */\n      dup1\n        /* \"#utility.yul\":22172:22184   */\n      revert\n        /* \"#utility.yul\":22124:22186   */\n    tag_464:\n        /* \"#utility.yul\":22072:22192   */\n      pop\n      jump\t// out\n        /* \"#utility.yul\":22198:22320   */\n    tag_242:\n        /* \"#utility.yul\":22271:22295   */\n      tag_466\n        /* \"#utility.yul\":22289:22294   */\n      dup2\n        /* \"#utility.yul\":22271:22295   */\n      tag_361\n      jump\t// in\n    tag_466:\n        /* \"#utility.yul\":22264:22269   */\n      dup2\n        /* \"#utility.yul\":22261:22296   */\n      eq\n        /* \"#utility.yul\":22251:22314   */\n      tag_467\n      jumpi\n        /* \"#utility.yul\":22310:22311   */\n      0x00\n        /* \"#utility.yul\":22307:22308   */\n      dup1\n        /* \"#utility.yul\":22300:22312   */\n      revert\n        /* \"#utility.yul\":22251:22314   */\n    tag_467:\n        /* \"#utility.yul\":22198:22320   */\n      pop\n      jump\t// out\n\n    auxdata: 0xa2646970667358221220ba67747ccd710c3e96d7523f7d94a0566c854ca5305831195f429ce20e95042e64736f6c63430008070033\n}\n",
				"bytecode": {
					"linkReferences": {},
					"object": "60806040526040518060400160405280600681526020017f6d696e696f6e00000000000000000000000000000000000000000000000000008152506000908051906020019062000051929190620000b4565b506040518060400160405280600381526020017f4d494e0000000000000000000000000000000000000000000000000000000000815250600190805190602001906200009f929190620000b4565b50348015620000ad57600080fd5b50620001c9565b828054620000c29062000164565b90600052602060002090601f016020900481019282620000e6576000855562000132565b82601f106200010157805160ff191683800117855562000132565b8280016001018555821562000132579182015b828111156200013157825182559160200191906001019062000114565b5b50905062000141919062000145565b5090565b5b808211156200016057600081600090555060010162000146565b5090565b600060028204905060018216806200017d57607f821691505b602082108114156200019457620001936200019a565b5b50919050565b7f4e487b7100000000000000000000000000000000000000000000000000000000600052602260045260246000fd5b611f8480620001d96000396000f3fe6080604052600436106100f35760003560e01c806370a082311161008a578063b88d4fde11610059578063b88d4fde14610315578063c87b56dd14610331578063d3fc98641461036e578063e985e9c514610397576100f3565b806370a08231146102595780637b61c3201461029657806395d89b41146102c1578063a22cb465146102ec576100f3565b806323b872dd116100c657806323b872dd146101b957806342842e0e146101d55780636352211e146101f15780636c02a9311461022e576100f3565b806301ffc9a7146100f857806306fdde0314610135578063081812fc14610160578063095ea7b31461019d575b600080fd5b34801561010457600080fd5b5061011f600480360381019061011a91906116fb565b6103d4565b60405161012c9190611911565b60405180910390f35b34801561014157600080fd5b5061014a61052d565b604051610157919061192c565b60405180910390f35b34801561016c57600080fd5b5061018760048036038101906101829190611728565b6105bf565b60405161019491906118f6565b60405180910390f35b6101b760048036038101906101b2919061164c565b6105fc565b005b6101d360048036038101906101ce9190611536565b6107c4565b005b6101ef60048036038101906101ea9190611536565b6107d4565b005b3480156101fd57600080fd5b5061021860048036038101906102139190611728565b610c24565b60405161022591906118f6565b60405180910390f35b34801561023a57600080fd5b50610243610c61565b604051610250919061192c565b60405180910390f35b34801561026557600080fd5b50610280600480360381019061027b91906114c9565b610cef565b60405161028d9190611a6e565b60405180910390f35b3480156102a257600080fd5b506102ab610d38565b6040516102b8919061192c565b60405180910390f35b3480156102cd57600080fd5b506102d6610dc6565b6040516102e3919061192c565b60405180910390f35b3480156102f857600080fd5b50610313600480360381019061030e919061160c565b610e58565b005b61032f600480360381019061032a9190611589565b610fc4565b005b34801561033d57600080fd5b5061035860048036038101906103539190611728565b610fe5565b604051610365919061192c565b60405180910390f35b34801561037a57600080fd5b506103956004803603810190610390919061168c565b61108a565b005b3480156103a357600080fd5b506103be60048036038101906103b991906114f6565b61125e565b6040516103cb9190611911565b60405180910390f35b60007f01ffc9a7000000000000000000000000000000000000000000000000000000007bffffffffffffffffffffffffffffffffffffffffffffffffffffffff1916827bffffffffffffffffffffffffffffffffffffffffffffffffffffffff191614156104455760019050610528565b7f80ac58cd000000000000000000000000000000000000000000000000000000007bffffffffffffffffffffffffffffffffffffffffffffffffffffffff1916827bffffffffffffffffffffffffffffffffffffffffffffffffffffffff191614156104b45760019050610528565b7f5b5e139f000000000000000000000000000000000000000000000000000000007bffffffffffffffffffffffffffffffffffffffffffffffffffffffff1916827bffffffffffffffffffffffffffffffffffffffffffffffffffffffff191614156105235760019050610528565b600090505b919050565b60606000805461053c90611c6c565b80601f016020809104026020016040519081016040528092919081815260200182805461056890611c6c565b80156105b55780601f1061058a576101008083540402835291602001916105b5565b820191906000526020600020905b81548152906001019060200180831161059857829003601f168201915b5050505050905090565b60006005600083815260200190815260200160002060009054906101000a900473ffffffffffffffffffffffffffffffffffffffff169050919050565b60006004600083815260200190815260200160002060009054906101000a900473ffffffffffffffffffffffffffffffffffffffff169050600073ffffffffffffffffffffffffffffffffffffffff168173ffffffffffffffffffffffffffffffffffffffff1614156106a4576040517f08c379a000000000000000000000000000000000000000000000000000000000815260040161069b906119ee565b60405180910390fd5b3373ffffffffffffffffffffffffffffffffffffffff168173ffffffffffffffffffffffffffffffffffffffff1614610712576040517f08c379a0000000000000000000000000000000000000000000000000000000008152600401610709906119ae565b60405180910390fd5b826005600084815260200190815260200160002060006101000a81548173ffffffffffffffffffffffffffffffffffffffff021916908373ffffffffffffffffffffffffffffffffffffffff160217905550818373ffffffffffffffffffffffffffffffffffffffff168273ffffffffffffffffffffffffffffffffffffffff167f8c5be1e5ebec7d5bd14f71427d1e84f3dd0314c0f7b2291e5b200ac8c7c3b92560405160405180910390a4505050565b6107cf8383836107d4565b505050565b600073ffffffffffffffffffffffffffffffffffffffff168273ffffffffffffffffffffffffffffffffffffffff161415610844576040517f08c379a000000000000000000000000000000000000000000000000000000000815260040161083b9061198e565b60405180910390fd5b60006004600083815260200190815260200160002060009054906101000a900473ffffffffffffffffffffffffffffffffffffffff169050600073ffffffffffffffffffffffffffffffffffffffff168173ffffffffffffffffffffffffffffffffffffffff1614156108ec576040517f08c379a00000000000000000000000000000000000000000000000000000000081526004016108e39061196e565b60405180910390fd5b8373ffffffffffffffffffffffffffffffffffffffff168173ffffffffffffffffffffffffffffffffffffffff161461095a576040517f08c379a0000000000000000000000000000000000000000000000000000000008152600401610951906119ce565b60405180910390fd5b8273ffffffffffffffffffffffffffffffffffffffff168473ffffffffffffffffffffffffffffffffffffffff1614156109c9576040517f08c379a00000000000000000000000000000000000000000000000000000000081526004016109c090611a4e565b60405180910390fd5b8373ffffffffffffffffffffffffffffffffffffffff163373ffffffffffffffffffffffffffffffffffffffff161480610a3657503373ffffffffffffffffffffffffffffffffffffffff16610a1e836105bf565b73ffffffffffffffffffffffffffffffffffffffff16145b80610a4e575060011515610a4a823361125e565b1515145b610a8d576040517f08c379a0000000000000000000000000000000000000000000000000000000008152600401610a849061194e565b60405180910390fd5b6005600083815260200190815260200160002060006101000a81549073ffffffffffffffffffffffffffffffffffffffff0219169055826004600084815260200190815260200160002060006101000a81548173ffffffffffffffffffffffffffffffffffffffff021916908373ffffffffffffffffffffffffffffffffffffffff1602179055506001600360008673ffffffffffffffffffffffffffffffffffffffff1673ffffffffffffffffffffffffffffffffffffffff1681526020019081526020016000206000828254610b659190611b82565b925050819055506001600360008573ffffffffffffffffffffffffffffffffffffffff1673ffffffffffffffffffffffffffffffffffffffff1681526020019081526020016000206000828254610bbc9190611b2c565b92505081905550818373ffffffffffffffffffffffffffffffffffffffff168573ffffffffffffffffffffffffffffffffffffffff167fddf252ad1be2c89b69c2b068fc378daa952ba7f163c4a11628f55a4df523b3ef60405160405180910390a450505050565b60006004600083815260200190815260200160002060009054906101000a900473ffffffffffffffffffffffffffffffffffffffff169050919050565b60008054610c6e90611c6c565b80601f0160208091040260200160405190810160405280929190818152602001828054610c9a90611c6c565b8015610ce75780601f10610cbc57610100808354040283529160200191610ce7565b820191906000526020600020905b815481529060010190602001808311610cca57829003601f168201915b505050505081565b6000600360008373ffffffffffffffffffffffffffffffffffffffff1673ffffffffffffffffffffffffffffffffffffffff168152602001908152602001600020549050919050565b60018054610d4590611c6c565b80601f0160208091040260200160405190810160405280929190818152602001828054610d7190611c6c565b8015610dbe5780601f10610d9357610100808354040283529160200191610dbe565b820191906000526020600020905b815481529060010190602001808311610da157829003601f168201915b505050505081565b606060018054610dd590611c6c565b80601f0160208091040260200160405190810160405280929190818152602001828054610e0190611c6c565b8015610e4e5780601f10610e2357610100808354040283529160200191610e4e565b820191906000526020600020905b815481529060010190602001808311610e3157829003601f168201915b5050505050905090565b8173ffffffffffffffffffffffffffffffffffffffff163373ffffffffffffffffffffffffffffffffffffffff161415610ec7576040517f08c379a0000000000000000000000000000000000000000000000000000000008152600401610ebe90611a0e565b60405180910390fd5b80600660003373ffffffffffffffffffffffffffffffffffffffff1673ffffffffffffffffffffffffffffffffffffffff16815260200190815260200160002060008473ffffffffffffffffffffffffffffffffffffffff1673ffffffffffffffffffffffffffffffffffffffff16815260200190815260200160002060006101000a81548160ff0219169083151502179055508173ffffffffffffffffffffffffffffffffffffffff163373ffffffffffffffffffffffffffffffffffffffff167f17307eab39ab6107e8899845ad3d59bd9653f200f220920489ca2b5937696c3183604051610fb89190611911565b60405180910390a35050565b610fdf84848460405180602001604052806000815250610fc4565b50505050565b606060026000838152602001908152602001600020805461100590611c6c565b80601f016020809104026020016040519081016040528092919081815260200182805461103190611c6c565b801561107e5780601f106110535761010080835404028352916020019161107e565b820191906000526020600020905b81548152906001019060200180831161106157829003601f168201915b50505050509050919050565b600073ffffffffffffffffffffffffffffffffffffffff166004600084815260200190815260200160002060009054906101000a900473ffffffffffffffffffffffffffffffffffffffff1673ffffffffffffffffffffffffffffffffffffffff161461112c576040517f08c379a000000000000000000000000000000000000000000000000000000000815260040161112390611a2e565b60405180910390fd5b826004600084815260200190815260200160002060006101000a81548173ffffffffffffffffffffffffffffffffffffffff021916908373ffffffffffffffffffffffffffffffffffffffff1602179055506001600360008573ffffffffffffffffffffffffffffffffffffffff1673ffffffffffffffffffffffffffffffffffffffff16815260200190815260200160002060008282546111ce9190611b2c565b92505081905550806002600084815260200190815260200160002090805190602001906111fc9291906112f2565b50818373ffffffffffffffffffffffffffffffffffffffff16600073ffffffffffffffffffffffffffffffffffffffff167fddf252ad1be2c89b69c2b068fc378daa952ba7f163c4a11628f55a4df523b3ef60405160405180910390a4505050565b6000600660008473ffffffffffffffffffffffffffffffffffffffff1673ffffffffffffffffffffffffffffffffffffffff16815260200190815260200160002060008373ffffffffffffffffffffffffffffffffffffffff1673ffffffffffffffffffffffffffffffffffffffff16815260200190815260200160002060009054906101000a900460ff16905092915050565b8280546112fe90611c6c565b90600052602060002090601f0160209004810192826113205760008555611367565b82601f1061133957805160ff1916838001178555611367565b82800160010185558215611367579182015b8281111561136657825182559160200191906001019061134b565b5b5090506113749190611378565b5090565b5b80821115611391576000816000905550600101611379565b5090565b60006113a86113a384611aae565b611a89565b9050828152602081018484840111156113c4576113c3611d61565b5b6113cf848285611c2a565b509392505050565b60006113ea6113e584611adf565b611a89565b90508281526020810184848401111561140657611405611d61565b5b611411848285611c2a565b509392505050565b60008135905061142881611ef2565b92915050565b60008135905061143d81611f09565b92915050565b60008135905061145281611f20565b92915050565b600082601f83011261146d5761146c611d5c565b5b813561147d848260208601611395565b91505092915050565b600082601f83011261149b5761149a611d5c565b5b81356114ab8482602086016113d7565b91505092915050565b6000813590506114c381611f37565b92915050565b6000602082840312156114df576114de611d6b565b5b60006114ed84828501611419565b91505092915050565b6000806040838503121561150d5761150c611d6b565b5b600061151b85828601611419565b925050602061152c85828601611419565b9150509250929050565b60008060006060848603121561154f5761154e611d6b565b5b600061155d86828701611419565b935050602061156e86828701611419565b925050604061157f868287016114b4565b9150509250925092565b600080600080608085870312156115a3576115a2611d6b565b5b60006115b187828801611419565b94505060206115c287828801611419565b93505060406115d3878288016114b4565b925050606085013567ffffffffffffffff8111156115f4576115f3611d66565b5b61160087828801611458565b91505092959194509250565b6000806040838503121561162357611622611d6b565b5b600061163185828601611419565b92505060206116428582860161142e565b9150509250929050565b6000806040838503121561166357611662611d6b565b5b600061167185828601611419565b9250506020611682858286016114b4565b9150509250929050565b6000806000606084860312156116a5576116a4611d6b565b5b60006116b386828701611419565b93505060206116c4868287016114b4565b925050604084013567ffffffffffffffff8111156116e5576116e4611d66565b5b6116f186828701611486565b9150509250925092565b60006020828403121561171157611710611d6b565b5b600061171f84828501611443565b91505092915050565b60006020828403121561173e5761173d611d6b565b5b600061174c848285016114b4565b91505092915050565b61175e81611bb6565b82525050565b61176d81611bc8565b82525050565b600061177e82611b10565b6117888185611b1b565b9350611798818560208601611c39565b6117a181611d70565b840191505092915050565b60006117b9600e83611b1b565b91506117c482611d81565b602082019050919050565b60006117dc600f83611b1b565b91506117e782611daa565b602082019050919050565b60006117ff601283611b1b565b915061180a82611dd3565b602082019050919050565b6000611822600e83611b1b565b915061182d82611dfc565b602082019050919050565b6000611845600883611b1b565b915061185082611e25565b602082019050919050565b6000611868600a83611b1b565b915061187382611e4e565b602082019050919050565b600061188b601083611b1b565b915061189682611e77565b602082019050919050565b60006118ae600e83611b1b565b91506118b982611ea0565b602082019050919050565b60006118d1601883611b1b565b91506118dc82611ec9565b602082019050919050565b6118f081611c20565b82525050565b600060208201905061190b6000830184611755565b92915050565b60006020820190506119266000830184611764565b92915050565b600060208201905081810360008301526119468184611773565b905092915050565b60006020820190508181036000830152611967816117ac565b9050919050565b60006020820190508181036000830152611987816117cf565b9050919050565b600060208201905081810360008301526119a7816117f2565b9050919050565b600060208201905081810360008301526119c781611815565b9050919050565b600060208201905081810360008301526119e781611838565b9050919050565b60006020820190508181036000830152611a078161185b565b9050919050565b60006020820190508181036000830152611a278161187e565b9050919050565b60006020820190508181036000830152611a47816118a1565b9050919050565b60006020820190508181036000830152611a67816118c4565b9050919050565b6000602082019050611a8360008301846118e7565b92915050565b6000611a93611aa4565b9050611a9f8282611c9e565b919050565b6000604051905090565b600067ffffffffffffffff821115611ac957611ac8611d2d565b5b611ad282611d70565b9050602081019050919050565b600067ffffffffffffffff821115611afa57611af9611d2d565b5b611b0382611d70565b9050602081019050919050565b600081519050919050565b600082825260208201905092915050565b6000611b3782611c20565b9150611b4283611c20565b9250827fffffffffffffffffffffffffffffffffffffffffffffffffffffffffffffffff03821115611b7757611b76611ccf565b5b828201905092915050565b6000611b8d82611c20565b9150611b9883611c20565b925082821015611bab57611baa611ccf565b5b828203905092915050565b6000611bc182611c00565b9050919050565b60008115159050919050565b60007fffffffff0000000000000000000000000000000000000000000000000000000082169050919050565b600073ffffffffffffffffffffffffffffffffffffffff82169050919050565b6000819050919050565b82818337600083830152505050565b60005b83811015611c57578082015181840152602081019050611c3c565b83811115611c66576000848401525b50505050565b60006002820490506001821680611c8457607f821691505b60208210811415611c9857611c97611cfe565b5b50919050565b611ca782611d70565b810181811067ffffffffffffffff82111715611cc657611cc5611d2d565b5b80604052505050565b7f4e487b7100000000000000000000000000000000000000000000000000000000600052601160045260246000fd5b7f4e487b7100000000000000000000000000000000000000000000000000000000600052602260045260246000fd5b7f4e487b7100000000000000000000000000000000000000000000000000000000600052604160045260246000fd5b600080fd5b600080fd5b600080fd5b600080fd5b6000601f19601f8301169050919050565b7f6e6f74207065726d697373696f6e000000000000000000000000000000000000600082015250565b7f696e76616c696420746f6b656e49640000000000000000000000000000000000600082015250565b7f696e76616c696420544f20616464726573730000000000000000000000000000600082015250565b7f6e6f77207065726d697373696f6e000000000000000000000000000000000000600082015250565b7f6e6f742041757468000000000000000000000000000000000000000000000000600082015250565b7f6e6f74206d696e74656400000000000000000000000000000000000000000000600082015250565b7f696e76616c6964206f70657261746f7200000000000000000000000000000000600082015250565b7f616c7265616479206d696e746564000000000000000000000000000000000000600082015250565b7f796f752063616e207472616e66657220796f757273656c660000000000000000600082015250565b611efb81611bb6565b8114611f0657600080fd5b50565b611f1281611bc8565b8114611f1d57600080fd5b50565b611f2981611bd4565b8114611f3457600080fd5b50565b611f4081611c20565b8114611f4b57600080fd5b5056fea2646970667358221220ba67747ccd710c3e96d7523f7d94a0566c854ca5305831195f429ce20e95042e64736f6c63430008070033",
					"opcodes": "PUSH1 0x80 PUSH1 0x40 MSTORE PUSH1 0x40 MLOAD DUP1 PUSH1 0x40 ADD PUSH1 0x40 MSTORE DUP1 PUSH1 0x6 DUP2 MSTORE PUSH1 0x20 ADD PUSH32 0x6D696E696F6E0000000000000000000000000000000000000000000000000000 DUP2 MSTORE POP PUSH1 0x0 SWAP1 DUP1 MLOAD SWAP1 PUSH1 0x20 ADD SWAP1 PUSH3 0x51 SWAP3 SWAP2 SWAP1 PUSH3 0xB4 JUMP JUMPDEST POP PUSH1 0x40 MLOAD DUP1 PUSH1 0x40 ADD PUSH1 0x40 MSTORE DUP1 PUSH1 0x3 DUP2 MSTORE PUSH1 0x20 ADD PUSH32 0x4D494E0000000000000000000000000000000000000000000000000000000000 DUP2 MSTORE POP PUSH1 0x1 SWAP1 DUP1 MLOAD SWAP1 PUSH1 0x20 ADD SWAP1 PUSH3 0x9F SWAP3 SWAP2 SWAP1 PUSH3 0xB4 JUMP JUMPDEST POP CALLVALUE DUP1 ISZERO PUSH3 0xAD JUMPI PUSH1 0x0 DUP1 REVERT JUMPDEST POP PUSH3 0x1C9 JUMP JUMPDEST DUP3 DUP1 SLOAD PUSH3 0xC2 SWAP1 PUSH3 0x164 JUMP JUMPDEST SWAP1 PUSH1 0x0 MSTORE PUSH1 0x20 PUSH1 0x0 KECCAK256 SWAP1 PUSH1 0x1F ADD PUSH1 0x20 SWAP1 DIV DUP2 ADD SWAP3 DUP3 PUSH3 0xE6 JUMPI PUSH1 0x0 DUP6 SSTORE PUSH3 0x132 JUMP JUMPDEST DUP3 PUSH1 0x1F LT PUSH3 0x101 JUMPI DUP1 MLOAD PUSH1 0xFF NOT AND DUP4 DUP1 ADD OR DUP6 SSTORE PUSH3 0x132 JUMP JUMPDEST DUP3 DUP1 ADD PUSH1 0x1 ADD DUP6 SSTORE DUP3 ISZERO PUSH3 0x132 JUMPI SWAP2 DUP3 ADD JUMPDEST DUP3 DUP2 GT ISZERO PUSH3 0x131 JUMPI DUP3 MLOAD DUP3 SSTORE SWAP2 PUSH1 0x20 ADD SWAP2 SWAP1 PUSH1 0x1 ADD SWAP1 PUSH3 0x114 JUMP JUMPDEST JUMPDEST POP SWAP1 POP PUSH3 0x141 SWAP2 SWAP1 PUSH3 0x145 JUMP JUMPDEST POP SWAP1 JUMP JUMPDEST JUMPDEST DUP1 DUP3 GT ISZERO PUSH3 0x160 JUMPI PUSH1 0x0 DUP2 PUSH1 0x0 SWAP1 SSTORE POP PUSH1 0x1 ADD PUSH3 0x146 JUMP JUMPDEST POP SWAP1 JUMP JUMPDEST PUSH1 0x0 PUSH1 0x2 DUP3 DIV SWAP1 POP PUSH1 0x1 DUP3 AND DUP1 PUSH3 0x17D JUMPI PUSH1 0x7F DUP3 AND SWAP2 POP JUMPDEST PUSH1 0x20 DUP3 LT DUP2 EQ ISZERO PUSH3 0x194 JUMPI PUSH3 0x193 PUSH3 0x19A JUMP JUMPDEST JUMPDEST POP SWAP2 SWAP1 POP JUMP JUMPDEST PUSH32 0x4E487B7100000000000000000000000000000000000000000000000000000000 PUSH1 0x0 MSTORE PUSH1 0x22 PUSH1 0x4 MSTORE PUSH1 0x24 PUSH1 0x0 REVERT JUMPDEST PUSH2 0x1F84 DUP1 PUSH3 0x1D9 PUSH1 0x0 CODECOPY PUSH1 0x0 RETURN INVALID PUSH1 0x80 PUSH1 0x40 MSTORE PUSH1 0x4 CALLDATASIZE LT PUSH2 0xF3 JUMPI PUSH1 0x0 CALLDATALOAD PUSH1 0xE0 SHR DUP1 PUSH4 0x70A08231 GT PUSH2 0x8A JUMPI DUP1 PUSH4 0xB88D4FDE GT PUSH2 0x59 JUMPI DUP1 PUSH4 0xB88D4FDE EQ PUSH2 0x315 JUMPI DUP1 PUSH4 0xC87B56DD EQ PUSH2 0x331 JUMPI DUP1 PUSH4 0xD3FC9864 EQ PUSH2 0x36E JUMPI DUP1 PUSH4 0xE985E9C5 EQ PUSH2 0x397 JUMPI PUSH2 0xF3 JUMP JUMPDEST DUP1 PUSH4 0x70A08231 EQ PUSH2 0x259 JUMPI DUP1 PUSH4 0x7B61C320 EQ PUSH2 0x296 JUMPI DUP1 PUSH4 0x95D89B41 EQ PUSH2 0x2C1 JUMPI DUP1 PUSH4 0xA22CB465 EQ PUSH2 0x2EC JUMPI PUSH2 0xF3 JUMP JUMPDEST DUP1 PUSH4 0x23B872DD GT PUSH2 0xC6 JUMPI DUP1 PUSH4 0x23B872DD EQ PUSH2 0x1B9 JUMPI DUP1 PUSH4 0x42842E0E EQ PUSH2 0x1D5 JUMPI DUP1 PUSH4 0x6352211E EQ PUSH2 0x1F1 JUMPI DUP1 PUSH4 0x6C02A931 EQ PUSH2 0x22E JUMPI PUSH2 0xF3 JUMP JUMPDEST DUP1 PUSH4 0x1FFC9A7 EQ PUSH2 0xF8 JUMPI DUP1 PUSH4 0x6FDDE03 EQ PUSH2 0x135 JUMPI DUP1 PUSH4 0x81812FC EQ PUSH2 0x160 JUMPI DUP1 PUSH4 0x95EA7B3 EQ PUSH2 0x19D JUMPI JUMPDEST PUSH1 0x0 DUP1 REVERT JUMPDEST CALLVALUE DUP1 ISZERO PUSH2 0x104 JUMPI PUSH1 0x0 DUP1 REVERT JUMPDEST POP PUSH2 0x11F PUSH1 0x4 DUP1 CALLDATASIZE SUB DUP2 ADD SWAP1 PUSH2 0x11A SWAP2 SWAP1 PUSH2 0x16FB JUMP JUMPDEST PUSH2 0x3D4 JUMP JUMPDEST PUSH1 0x40 MLOAD PUSH2 0x12C SWAP2 SWAP1 PUSH2 0x1911 JUMP JUMPDEST PUSH1 0x40 MLOAD DUP1 SWAP2 SUB SWAP1 RETURN JUMPDEST CALLVALUE DUP1 ISZERO PUSH2 0x141 JUMPI PUSH1 0x0 DUP1 REVERT JUMPDEST POP PUSH2 0x14A PUSH2 0x52D JUMP JUMPDEST PUSH1 0x40 MLOAD PUSH2 0x157 SWAP2 SWAP1 PUSH2 0x192C JUMP JUMPDEST PUSH1 0x40 MLOAD DUP1 SWAP2 SUB SWAP1 RETURN JUMPDEST CALLVALUE DUP1 ISZERO PUSH2 0x16C JUMPI PUSH1 0x0 DUP1 REVERT JUMPDEST POP PUSH2 0x187 PUSH1 0x4 DUP1 CALLDATASIZE SUB DUP2 ADD SWAP1 PUSH2 0x182 SWAP2 SWAP1 PUSH2 0x1728 JUMP JUMPDEST PUSH2 0x5BF JUMP JUMPDEST PUSH1 0x40 MLOAD PUSH2 0x194 SWAP2 SWAP1 PUSH2 0x18F6 JUMP JUMPDEST PUSH1 0x40 MLOAD DUP1 SWAP2 SUB SWAP1 RETURN JUMPDEST PUSH2 0x1B7 PUSH1 0x4 DUP1 CALLDATASIZE SUB DUP2 ADD SWAP1 PUSH2 0x1B2 SWAP2 SWAP1 PUSH2 0x164C JUMP JUMPDEST PUSH2 0x5FC JUMP JUMPDEST STOP JUMPDEST PUSH2 0x1D3 PUSH1 0x4 DUP1 CALLDATASIZE SUB DUP2 ADD SWAP1 PUSH2 0x1CE SWAP2 SWAP1 PUSH2 0x1536 JUMP JUMPDEST PUSH2 0x7C4 JUMP JUMPDEST STOP JUMPDEST PUSH2 0x1EF PUSH1 0x4 DUP1 CALLDATASIZE SUB DUP2 ADD SWAP1 PUSH2 0x1EA SWAP2 SWAP1 PUSH2 0x1536 JUMP JUMPDEST PUSH2 0x7D4 JUMP JUMPDEST STOP JUMPDEST CALLVALUE DUP1 ISZERO PUSH2 0x1FD JUMPI PUSH1 0x0 DUP1 REVERT JUMPDEST POP PUSH2 0x218 PUSH1 0x4 DUP1 CALLDATASIZE SUB DUP2 ADD SWAP1 PUSH2 0x213 SWAP2 SWAP1 PUSH2 0x1728 JUMP JUMPDEST PUSH2 0xC24 JUMP JUMPDEST PUSH1 0x40 MLOAD PUSH2 0x225 SWAP2 SWAP1 PUSH2 0x18F6 JUMP JUMPDEST PUSH1 0x40 MLOAD DUP1 SWAP2 SUB SWAP1 RETURN JUMPDEST CALLVALUE DUP1 ISZERO PUSH2 0x23A JUMPI PUSH1 0x0 DUP1 REVERT JUMPDEST POP PUSH2 0x243 PUSH2 0xC61 JUMP JUMPDEST PUSH1 0x40 MLOAD PUSH2 0x250 SWAP2 SWAP1 PUSH2 0x192C JUMP JUMPDEST PUSH1 0x40 MLOAD DUP1 SWAP2 SUB SWAP1 RETURN JUMPDEST CALLVALUE DUP1 ISZERO PUSH2 0x265 JUMPI PUSH1 0x0 DUP1 REVERT JUMPDEST POP PUSH2 0x280 PUSH1 0x4 DUP1 CALLDATASIZE SUB DUP2 ADD SWAP1 PUSH2 0x27B SWAP2 SWAP1 PUSH2 0x14C9 JUMP JUMPDEST PUSH2 0xCEF JUMP JUMPDEST PUSH1 0x40 MLOAD PUSH2 0x28D SWAP2 SWAP1 PUSH2 0x1A6E JUMP JUMPDEST PUSH1 0x40 MLOAD DUP1 SWAP2 SUB SWAP1 RETURN JUMPDEST CALLVALUE DUP1 ISZERO PUSH2 0x2A2 JUMPI PUSH1 0x0 DUP1 REVERT JUMPDEST POP PUSH2 0x2AB PUSH2 0xD38 JUMP JUMPDEST PUSH1 0x40 MLOAD PUSH2 0x2B8 SWAP2 SWAP1 PUSH2 0x192C JUMP JUMPDEST PUSH1 0x40 MLOAD DUP1 SWAP2 SUB SWAP1 RETURN JUMPDEST CALLVALUE DUP1 ISZERO PUSH2 0x2CD JUMPI PUSH1 0x0 DUP1 REVERT JUMPDEST POP PUSH2 0x2D6 PUSH2 0xDC6 JUMP JUMPDEST PUSH1 0x40 MLOAD PUSH2 0x2E3 SWAP2 SWAP1 PUSH2 0x192C JUMP JUMPDEST PUSH1 0x40 MLOAD DUP1 SWAP2 SUB SWAP1 RETURN JUMPDEST CALLVALUE DUP1 ISZERO PUSH2 0x2F8 JUMPI PUSH1 0x0 DUP1 REVERT JUMPDEST POP PUSH2 0x313 PUSH1 0x4 DUP1 CALLDATASIZE SUB DUP2 ADD SWAP1 PUSH2 0x30E SWAP2 SWAP1 PUSH2 0x160C JUMP JUMPDEST PUSH2 0xE58 JUMP JUMPDEST STOP JUMPDEST PUSH2 0x32F PUSH1 0x4 DUP1 CALLDATASIZE SUB DUP2 ADD SWAP1 PUSH2 0x32A SWAP2 SWAP1 PUSH2 0x1589 JUMP JUMPDEST PUSH2 0xFC4 JUMP JUMPDEST STOP JUMPDEST CALLVALUE DUP1 ISZERO PUSH2 0x33D JUMPI PUSH1 0x0 DUP1 REVERT JUMPDEST POP PUSH2 0x358 PUSH1 0x4 DUP1 CALLDATASIZE SUB DUP2 ADD SWAP1 PUSH2 0x353 SWAP2 SWAP1 PUSH2 0x1728 JUMP JUMPDEST PUSH2 0xFE5 JUMP JUMPDEST PUSH1 0x40 MLOAD PUSH2 0x365 SWAP2 SWAP1 PUSH2 0x192C JUMP JUMPDEST PUSH1 0x40 MLOAD DUP1 SWAP2 SUB SWAP1 RETURN JUMPDEST CALLVALUE DUP1 ISZERO PUSH2 0x37A JUMPI PUSH1 0x0 DUP1 REVERT JUMPDEST POP PUSH2 0x395 PUSH1 0x4 DUP1 CALLDATASIZE SUB DUP2 ADD SWAP1 PUSH2 0x390 SWAP2 SWAP1 PUSH2 0x168C JUMP JUMPDEST PUSH2 0x108A JUMP JUMPDEST STOP JUMPDEST CALLVALUE DUP1 ISZERO PUSH2 0x3A3 JUMPI PUSH1 0x0 DUP1 REVERT JUMPDEST POP PUSH2 0x3BE PUSH1 0x4 DUP1 CALLDATASIZE SUB DUP2 ADD SWAP1 PUSH2 0x3B9 SWAP2 SWAP1 PUSH2 0x14F6 JUMP JUMPDEST PUSH2 0x125E JUMP JUMPDEST PUSH1 0x40 MLOAD PUSH2 0x3CB SWAP2 SWAP1 PUSH2 0x1911 JUMP JUMPDEST PUSH1 0x40 MLOAD DUP1 SWAP2 SUB SWAP1 RETURN JUMPDEST PUSH1 0x0 PUSH32 0x1FFC9A700000000000000000000000000000000000000000000000000000000 PUSH28 0xFFFFFFFFFFFFFFFFFFFFFFFFFFFFFFFFFFFFFFFFFFFFFFFFFFFFFFFF NOT AND DUP3 PUSH28 0xFFFFFFFFFFFFFFFFFFFFFFFFFFFFFFFFFFFFFFFFFFFFFFFFFFFFFFFF NOT AND EQ ISZERO PUSH2 0x445 JUMPI PUSH1 0x1 SWAP1 POP PUSH2 0x528 JUMP JUMPDEST PUSH32 0x80AC58CD00000000000000000000000000000000000000000000000000000000 PUSH28 0xFFFFFFFFFFFFFFFFFFFFFFFFFFFFFFFFFFFFFFFFFFFFFFFFFFFFFFFF NOT AND DUP3 PUSH28 0xFFFFFFFFFFFFFFFFFFFFFFFFFFFFFFFFFFFFFFFFFFFFFFFFFFFFFFFF NOT AND EQ ISZERO PUSH2 0x4B4 JUMPI PUSH1 0x1 SWAP1 POP PUSH2 0x528 JUMP JUMPDEST PUSH32 0x5B5E139F00000000000000000000000000000000000000000000000000000000 PUSH28 0xFFFFFFFFFFFFFFFFFFFFFFFFFFFFFFFFFFFFFFFFFFFFFFFFFFFFFFFF NOT AND DUP3 PUSH28 0xFFFFFFFFFFFFFFFFFFFFFFFFFFFFFFFFFFFFFFFFFFFFFFFFFFFFFFFF NOT AND EQ ISZERO PUSH2 0x523 JUMPI PUSH1 0x1 SWAP1 POP PUSH2 0x528 JUMP JUMPDEST PUSH1 0x0 SWAP1 POP JUMPDEST SWAP2 SWAP1 POP JUMP JUMPDEST PUSH1 0x60 PUSH1 0x0 DUP1 SLOAD PUSH2 0x53C SWAP1 PUSH2 0x1C6C JUMP JUMPDEST DUP1 PUSH1 0x1F ADD PUSH1 0x20 DUP1 SWAP2 DIV MUL PUSH1 0x20 ADD PUSH1 0x40 MLOAD SWAP1 DUP2 ADD PUSH1 0x40 MSTORE DUP1 SWAP3 SWAP2 SWAP1 DUP2 DUP2 MSTORE PUSH1 0x20 ADD DUP3 DUP1 SLOAD PUSH2 0x568 SWAP1 PUSH2 0x1C6C JUMP JUMPDEST DUP1 ISZERO PUSH2 0x5B5 JUMPI DUP1 PUSH1 0x1F LT PUSH2 0x58A JUMPI PUSH2 0x100 DUP1 DUP4 SLOAD DIV MUL DUP4 MSTORE SWAP2 PUSH1 0x20 ADD SWAP2 PUSH2 0x5B5 JUMP JUMPDEST DUP3 ADD SWAP2 SWAP1 PUSH1 0x0 MSTORE PUSH1 0x20 PUSH1 0x0 KECCAK256 SWAP1 JUMPDEST DUP2 SLOAD DUP2 MSTORE SWAP1 PUSH1 0x1 ADD SWAP1 PUSH1 0x20 ADD DUP1 DUP4 GT PUSH2 0x598 JUMPI DUP3 SWAP1 SUB PUSH1 0x1F AND DUP3 ADD SWAP2 JUMPDEST POP POP POP POP POP SWAP1 POP SWAP1 JUMP JUMPDEST PUSH1 0x0 PUSH1 0x5 PUSH1 0x0 DUP4 DUP2 MSTORE PUSH1 0x20 ADD SWAP1 DUP2 MSTORE PUSH1 0x20 ADD PUSH1 0x0 KECCAK256 PUSH1 0x0 SWAP1 SLOAD SWAP1 PUSH2 0x100 EXP SWAP1 DIV PUSH20 0xFFFFFFFFFFFFFFFFFFFFFFFFFFFFFFFFFFFFFFFF AND SWAP1 POP SWAP2 SWAP1 POP JUMP JUMPDEST PUSH1 0x0 PUSH1 0x4 PUSH1 0x0 DUP4 DUP2 MSTORE PUSH1 0x20 ADD SWAP1 DUP2 MSTORE PUSH1 0x20 ADD PUSH1 0x0 KECCAK256 PUSH1 0x0 SWAP1 SLOAD SWAP1 PUSH2 0x100 EXP SWAP1 DIV PUSH20 0xFFFFFFFFFFFFFFFFFFFFFFFFFFFFFFFFFFFFFFFF AND SWAP1 POP PUSH1 0x0 PUSH20 0xFFFFFFFFFFFFFFFFFFFFFFFFFFFFFFFFFFFFFFFF AND DUP2 PUSH20 0xFFFFFFFFFFFFFFFFFFFFFFFFFFFFFFFFFFFFFFFF AND EQ ISZERO PUSH2 0x6A4 JUMPI PUSH1 0x40 MLOAD PUSH32 0x8C379A000000000000000000000000000000000000000000000000000000000 DUP2 MSTORE PUSH1 0x4 ADD PUSH2 0x69B SWAP1 PUSH2 0x19EE JUMP JUMPDEST PUSH1 0x40 MLOAD DUP1 SWAP2 SUB SWAP1 REVERT JUMPDEST CALLER PUSH20 0xFFFFFFFFFFFFFFFFFFFFFFFFFFFFFFFFFFFFFFFF AND DUP2 PUSH20 0xFFFFFFFFFFFFFFFFFFFFFFFFFFFFFFFFFFFFFFFF AND EQ PUSH2 0x712 JUMPI PUSH1 0x40 MLOAD PUSH32 0x8C379A000000000000000000000000000000000000000000000000000000000 DUP2 MSTORE PUSH1 0x4 ADD PUSH2 0x709 SWAP1 PUSH2 0x19AE JUMP JUMPDEST PUSH1 0x40 MLOAD DUP1 SWAP2 SUB SWAP1 REVERT JUMPDEST DUP3 PUSH1 0x5 PUSH1 0x0 DUP5 DUP2 MSTORE PUSH1 0x20 ADD SWAP1 DUP2 MSTORE PUSH1 0x20 ADD PUSH1 0x0 KECCAK256 PUSH1 0x0 PUSH2 0x100 EXP DUP2 SLOAD DUP2 PUSH20 0xFFFFFFFFFFFFFFFFFFFFFFFFFFFFFFFFFFFFFFFF MUL NOT AND SWAP1 DUP4 PUSH20 0xFFFFFFFFFFFFFFFFFFFFFFFFFFFFFFFFFFFFFFFF AND MUL OR SWAP1 SSTORE POP DUP2 DUP4 PUSH20 0xFFFFFFFFFFFFFFFFFFFFFFFFFFFFFFFFFFFFFFFF AND DUP3 PUSH20 0xFFFFFFFFFFFFFFFFFFFFFFFFFFFFFFFFFFFFFFFF AND PUSH32 0x8C5BE1E5EBEC7D5BD14F71427D1E84F3DD0314C0F7B2291E5B200AC8C7C3B925 PUSH1 0x40 MLOAD PUSH1 0x40 MLOAD DUP1 SWAP2 SUB SWAP1 LOG4 POP POP POP JUMP JUMPDEST PUSH2 0x7CF DUP4 DUP4 DUP4 PUSH2 0x7D4 JUMP JUMPDEST POP POP POP JUMP JUMPDEST PUSH1 0x0 PUSH20 0xFFFFFFFFFFFFFFFFFFFFFFFFFFFFFFFFFFFFFFFF AND DUP3 PUSH20 0xFFFFFFFFFFFFFFFFFFFFFFFFFFFFFFFFFFFFFFFF AND EQ ISZERO PUSH2 0x844 JUMPI PUSH1 0x40 MLOAD PUSH32 0x8C379A000000000000000000000000000000000000000000000000000000000 DUP2 MSTORE PUSH1 0x4 ADD PUSH2 0x83B SWAP1 PUSH2 0x198E JUMP JUMPDEST PUSH1 0x40 MLOAD DUP1 SWAP2 SUB SWAP1 REVERT JUMPDEST PUSH1 0x0 PUSH1 0x4 PUSH1 0x0 DUP4 DUP2 MSTORE PUSH1 0x20 ADD SWAP1 DUP2 MSTORE PUSH1 0x20 ADD PUSH1 0x0 KECCAK256 PUSH1 0x0 SWAP1 SLOAD SWAP1 PUSH2 0x100 EXP SWAP1 DIV PUSH20 0xFFFFFFFFFFFFFFFFFFFFFFFFFFFFFFFFFFFFFFFF AND SWAP1 POP PUSH1 0x0 PUSH20 0xFFFFFFFFFFFFFFFFFFFFFFFFFFFFFFFFFFFFFFFF AND DUP2 PUSH20 0xFFFFFFFFFFFFFFFFFFFFFFFFFFFFFFFFFFFFFFFF AND EQ ISZERO PUSH2 0x8EC JUMPI PUSH1 0x40 MLOAD PUSH32 0x8C379A000000000000000000000000000000000000000000000000000000000 DUP2 MSTORE PUSH1 0x4 ADD PUSH2 0x8E3 SWAP1 PUSH2 0x196E JUMP JUMPDEST PUSH1 0x40 MLOAD DUP1 SWAP2 SUB SWAP1 REVERT JUMPDEST DUP4 PUSH20 0xFFFFFFFFFFFFFFFFFFFFFFFFFFFFFFFFFFFFFFFF AND DUP2 PUSH20 0xFFFFFFFFFFFFFFFFFFFFFFFFFFFFFFFFFFFFFFFF AND EQ PUSH2 0x95A JUMPI PUSH1 0x40 MLOAD PUSH32 0x8C379A000000000000000000000000000000000000000000000000000000000 DUP2 MSTORE PUSH1 0x4 ADD PUSH2 0x951 SWAP1 PUSH2 0x19CE JUMP JUMPDEST PUSH1 0x40 MLOAD DUP1 SWAP2 SUB SWAP1 REVERT JUMPDEST DUP3 PUSH20 0xFFFFFFFFFFFFFFFFFFFFFFFFFFFFFFFFFFFFFFFF AND DUP5 PUSH20 0xFFFFFFFFFFFFFFFFFFFFFFFFFFFFFFFFFFFFFFFF AND EQ ISZERO PUSH2 0x9C9 JUMPI PUSH1 0x40 MLOAD PUSH32 0x8C379A000000000000000000000000000000000000000000000000000000000 DUP2 MSTORE PUSH1 0x4 ADD PUSH2 0x9C0 SWAP1 PUSH2 0x1A4E JUMP JUMPDEST PUSH1 0x40 MLOAD DUP1 SWAP2 SUB SWAP1 REVERT JUMPDEST DUP4 PUSH20 0xFFFFFFFFFFFFFFFFFFFFFFFFFFFFFFFFFFFFFFFF AND CALLER PUSH20 0xFFFFFFFFFFFFFFFFFFFFFFFFFFFFFFFFFFFFFFFF AND EQ DUP1 PUSH2 0xA36 JUMPI POP CALLER PUSH20 0xFFFFFFFFFFFFFFFFFFFFFFFFFFFFFFFFFFFFFFFF AND PUSH2 0xA1E DUP4 PUSH2 0x5BF JUMP JUMPDEST PUSH20 0xFFFFFFFFFFFFFFFFFFFFFFFFFFFFFFFFFFFFFFFF AND EQ JUMPDEST DUP1 PUSH2 0xA4E JUMPI POP PUSH1 0x1 ISZERO ISZERO PUSH2 0xA4A DUP3 CALLER PUSH2 0x125E JUMP JUMPDEST ISZERO ISZERO EQ JUMPDEST PUSH2 0xA8D JUMPI PUSH1 0x40 MLOAD PUSH32 0x8C379A000000000000000000000000000000000000000000000000000000000 DUP2 MSTORE PUSH1 0x4 ADD PUSH2 0xA84 SWAP1 PUSH2 0x194E JUMP JUMPDEST PUSH1 0x40 MLOAD DUP1 SWAP2 SUB SWAP1 REVERT JUMPDEST PUSH1 0x5 PUSH1 0x0 DUP4 DUP2 MSTORE PUSH1 0x20 ADD SWAP1 DUP2 MSTORE PUSH1 0x20 ADD PUSH1 0x0 KECCAK256 PUSH1 0x0 PUSH2 0x100 EXP DUP2 SLOAD SWAP1 PUSH20 0xFFFFFFFFFFFFFFFFFFFFFFFFFFFFFFFFFFFFFFFF MUL NOT AND SWAP1 SSTORE DUP3 PUSH1 0x4 PUSH1 0x0 DUP5 DUP2 MSTORE PUSH1 0x20 ADD SWAP1 DUP2 MSTORE PUSH1 0x20 ADD PUSH1 0x0 KECCAK256 PUSH1 0x0 PUSH2 0x100 EXP DUP2 SLOAD DUP2 PUSH20 0xFFFFFFFFFFFFFFFFFFFFFFFFFFFFFFFFFFFFFFFF MUL NOT AND SWAP1 DUP4 PUSH20 0xFFFFFFFFFFFFFFFFFFFFFFFFFFFFFFFFFFFFFFFF AND MUL OR SWAP1 SSTORE POP PUSH1 0x1 PUSH1 0x3 PUSH1 0x0 DUP7 PUSH20 0xFFFFFFFFFFFFFFFFFFFFFFFFFFFFFFFFFFFFFFFF AND PUSH20 0xFFFFFFFFFFFFFFFFFFFFFFFFFFFFFFFFFFFFFFFF AND DUP2 MSTORE PUSH1 0x20 ADD SWAP1 DUP2 MSTORE PUSH1 0x20 ADD PUSH1 0x0 KECCAK256 PUSH1 0x0 DUP3 DUP3 SLOAD PUSH2 0xB65 SWAP2 SWAP1 PUSH2 0x1B82 JUMP JUMPDEST SWAP3 POP POP DUP2 SWAP1 SSTORE POP PUSH1 0x1 PUSH1 0x3 PUSH1 0x0 DUP6 PUSH20 0xFFFFFFFFFFFFFFFFFFFFFFFFFFFFFFFFFFFFFFFF AND PUSH20 0xFFFFFFFFFFFFFFFFFFFFFFFFFFFFFFFFFFFFFFFF AND DUP2 MSTORE PUSH1 0x20 ADD SWAP1 DUP2 MSTORE PUSH1 0x20 ADD PUSH1 0x0 KECCAK256 PUSH1 0x0 DUP3 DUP3 SLOAD PUSH2 0xBBC SWAP2 SWAP1 PUSH2 0x1B2C JUMP JUMPDEST SWAP3 POP POP DUP2 SWAP1 SSTORE POP DUP2 DUP4 PUSH20 0xFFFFFFFFFFFFFFFFFFFFFFFFFFFFFFFFFFFFFFFF AND DUP6 PUSH20 0xFFFFFFFFFFFFFFFFFFFFFFFFFFFFFFFFFFFFFFFF AND PUSH32 0xDDF252AD1BE2C89B69C2B068FC378DAA952BA7F163C4A11628F55A4DF523B3EF PUSH1 0x40 MLOAD PUSH1 0x40 MLOAD DUP1 SWAP2 SUB SWAP1 LOG4 POP POP POP POP JUMP JUMPDEST PUSH1 0x0 PUSH1 0x4 PUSH1 0x0 DUP4 DUP2 MSTORE PUSH1 0x20 ADD SWAP1 DUP2 MSTORE PUSH1 0x20 ADD PUSH1 0x0 KECCAK256 PUSH1 0x0 SWAP1 SLOAD SWAP1 PUSH2 0x100 EXP SWAP1 DIV PUSH20 0xFFFFFFFFFFFFFFFFFFFFFFFFFFFFFFFFFFFFFFFF AND SWAP1 POP SWAP2 SWAP1 POP JUMP JUMPDEST PUSH1 0x0 DUP1 SLOAD PUSH2 0xC6E SWAP1 PUSH2 0x1C6C JUMP JUMPDEST DUP1 PUSH1 0x1F ADD PUSH1 0x20 DUP1 SWAP2 DIV MUL PUSH1 0x20 ADD PUSH1 0x40 MLOAD SWAP1 DUP2 ADD PUSH1 0x40 MSTORE DUP1 SWAP3 SWAP2 SWAP1 DUP2 DUP2 MSTORE PUSH1 0x20 ADD DUP3 DUP1 SLOAD PUSH2 0xC9A SWAP1 PUSH2 0x1C6C JUMP JUMPDEST DUP1 ISZERO PUSH2 0xCE7 JUMPI DUP1 PUSH1 0x1F LT PUSH2 0xCBC JUMPI PUSH2 0x100 DUP1 DUP4 SLOAD DIV MUL DUP4 MSTORE SWAP2 PUSH1 0x20 ADD SWAP2 PUSH2 0xCE7 JUMP JUMPDEST DUP3 ADD SWAP2 SWAP1 PUSH1 0x0 MSTORE PUSH1 0x20 PUSH1 0x0 KECCAK256 SWAP1 JUMPDEST DUP2 SLOAD DUP2 MSTORE SWAP1 PUSH1 0x1 ADD SWAP1 PUSH1 0x20 ADD DUP1 DUP4 GT PUSH2 0xCCA JUMPI DUP3 SWAP1 SUB PUSH1 0x1F AND DUP3 ADD SWAP2 JUMPDEST POP POP POP POP POP DUP2 JUMP JUMPDEST PUSH1 0x0 PUSH1 0x3 PUSH1 0x0 DUP4 PUSH20 0xFFFFFFFFFFFFFFFFFFFFFFFFFFFFFFFFFFFFFFFF AND PUSH20 0xFFFFFFFFFFFFFFFFFFFFFFFFFFFFFFFFFFFFFFFF AND DUP2 MSTORE PUSH1 0x20 ADD SWAP1 DUP2 MSTORE PUSH1 0x20 ADD PUSH1 0x0 KECCAK256 SLOAD SWAP1 POP SWAP2 SWAP1 POP JUMP JUMPDEST PUSH1 0x1 DUP1 SLOAD PUSH2 0xD45 SWAP1 PUSH2 0x1C6C JUMP JUMPDEST DUP1 PUSH1 0x1F ADD PUSH1 0x20 DUP1 SWAP2 DIV MUL PUSH1 0x20 ADD PUSH1 0x40 MLOAD SWAP1 DUP2 ADD PUSH1 0x40 MSTORE DUP1 SWAP3 SWAP2 SWAP1 DUP2 DUP2 MSTORE PUSH1 0x20 ADD DUP3 DUP1 SLOAD PUSH2 0xD71 SWAP1 PUSH2 0x1C6C JUMP JUMPDEST DUP1 ISZERO PUSH2 0xDBE JUMPI DUP1 PUSH1 0x1F LT PUSH2 0xD93 JUMPI PUSH2 0x100 DUP1 DUP4 SLOAD DIV MUL DUP4 MSTORE SWAP2 PUSH1 0x20 ADD SWAP2 PUSH2 0xDBE JUMP JUMPDEST DUP3 ADD SWAP2 SWAP1 PUSH1 0x0 MSTORE PUSH1 0x20 PUSH1 0x0 KECCAK256 SWAP1 JUMPDEST DUP2 SLOAD DUP2 MSTORE SWAP1 PUSH1 0x1 ADD SWAP1 PUSH1 0x20 ADD DUP1 DUP4 GT PUSH2 0xDA1 JUMPI DUP3 SWAP1 SUB PUSH1 0x1F AND DUP3 ADD SWAP2 JUMPDEST POP POP POP POP POP DUP2 JUMP JUMPDEST PUSH1 0x60 PUSH1 0x1 DUP1 SLOAD PUSH2 0xDD5 SWAP1 PUSH2 0x1C6C JUMP JUMPDEST DUP1 PUSH1 0x1F ADD PUSH1 0x20 DUP1 SWAP2 DIV MUL PUSH1 0x20 ADD PUSH1 0x40 MLOAD SWAP1 DUP2 ADD PUSH1 0x40 MSTORE DUP1 SWAP3 SWAP2 SWAP1 DUP2 DUP2 MSTORE PUSH1 0x20 ADD DUP3 DUP1 SLOAD PUSH2 0xE01 SWAP1 PUSH2 0x1C6C JUMP JUMPDEST DUP1 ISZERO PUSH2 0xE4E JUMPI DUP1 PUSH1 0x1F LT PUSH2 0xE23 JUMPI PUSH2 0x100 DUP1 DUP4 SLOAD DIV MUL DUP4 MSTORE SWAP2 PUSH1 0x20 ADD SWAP2 PUSH2 0xE4E JUMP JUMPDEST DUP3 ADD SWAP2 SWAP1 PUSH1 0x0 MSTORE PUSH1 0x20 PUSH1 0x0 KECCAK256 SWAP1 JUMPDEST DUP2 SLOAD DUP2 MSTORE SWAP1 PUSH1 0x1 ADD SWAP1 PUSH1 0x20 ADD DUP1 DUP4 GT PUSH2 0xE31 JUMPI DUP3 SWAP1 SUB PUSH1 0x1F AND DUP3 ADD SWAP2 JUMPDEST POP POP POP POP POP SWAP1 POP SWAP1 JUMP JUMPDEST DUP2 PUSH20 0xFFFFFFFFFFFFFFFFFFFFFFFFFFFFFFFFFFFFFFFF AND CALLER PUSH20 0xFFFFFFFFFFFFFFFFFFFFFFFFFFFFFFFFFFFFFFFF AND EQ ISZERO PUSH2 0xEC7 JUMPI PUSH1 0x40 MLOAD PUSH32 0x8C379A000000000000000000000000000000000000000000000000000000000 DUP2 MSTORE PUSH1 0x4 ADD PUSH2 0xEBE SWAP1 PUSH2 0x1A0E JUMP JUMPDEST PUSH1 0x40 MLOAD DUP1 SWAP2 SUB SWAP1 REVERT JUMPDEST DUP1 PUSH1 0x6 PUSH1 0x0 CALLER PUSH20 0xFFFFFFFFFFFFFFFFFFFFFFFFFFFFFFFFFFFFFFFF AND PUSH20 0xFFFFFFFFFFFFFFFFFFFFFFFFFFFFFFFFFFFFFFFF AND DUP2 MSTORE PUSH1 0x20 ADD SWAP1 DUP2 MSTORE PUSH1 0x20 ADD PUSH1 0x0 KECCAK256 PUSH1 0x0 DUP5 PUSH20 0xFFFFFFFFFFFFFFFFFFFFFFFFFFFFFFFFFFFFFFFF AND PUSH20 0xFFFFFFFFFFFFFFFFFFFFFFFFFFFFFFFFFFFFFFFF AND DUP2 MSTORE PUSH1 0x20 ADD SWAP1 DUP2 MSTORE PUSH1 0x20 ADD PUSH1 0x0 KECCAK256 PUSH1 0x0 PUSH2 0x100 EXP DUP2 SLOAD DUP2 PUSH1 0xFF MUL NOT AND SWAP1 DUP4 ISZERO ISZERO MUL OR SWAP1 SSTORE POP DUP2 PUSH20 0xFFFFFFFFFFFFFFFFFFFFFFFFFFFFFFFFFFFFFFFF AND CALLER PUSH20 0xFFFFFFFFFFFFFFFFFFFFFFFFFFFFFFFFFFFFFFFF AND PUSH32 0x17307EAB39AB6107E8899845AD3D59BD9653F200F220920489CA2B5937696C31 DUP4 PUSH1 0x40 MLOAD PUSH2 0xFB8 SWAP2 SWAP1 PUSH2 0x1911 JUMP JUMPDEST PUSH1 0x40 MLOAD DUP1 SWAP2 SUB SWAP1 LOG3 POP POP JUMP JUMPDEST PUSH2 0xFDF DUP5 DUP5 DUP5 PUSH1 0x40 MLOAD DUP1 PUSH1 0x20 ADD PUSH1 0x40 MSTORE DUP1 PUSH1 0x0 DUP2 MSTORE POP PUSH2 0xFC4 JUMP JUMPDEST POP POP POP POP JUMP JUMPDEST PUSH1 0x60 PUSH1 0x2 PUSH1 0x0 DUP4 DUP2 MSTORE PUSH1 0x20 ADD SWAP1 DUP2 MSTORE PUSH1 0x20 ADD PUSH1 0x0 KECCAK256 DUP1 SLOAD PUSH2 0x1005 SWAP1 PUSH2 0x1C6C JUMP JUMPDEST DUP1 PUSH1 0x1F ADD PUSH1 0x20 DUP1 SWAP2 DIV MUL PUSH1 0x20 ADD PUSH1 0x40 MLOAD SWAP1 DUP2 ADD PUSH1 0x40 MSTORE DUP1 SWAP3 SWAP2 SWAP1 DUP2 DUP2 MSTORE PUSH1 0x20 ADD DUP3 DUP1 SLOAD PUSH2 0x1031 SWAP1 PUSH2 0x1C6C JUMP JUMPDEST DUP1 ISZERO PUSH2 0x107E JUMPI DUP1 PUSH1 0x1F LT PUSH2 0x1053 JUMPI PUSH2 0x100 DUP1 DUP4 SLOAD DIV MUL DUP4 MSTORE SWAP2 PUSH1 0x20 ADD SWAP2 PUSH2 0x107E JUMP JUMPDEST DUP3 ADD SWAP2 SWAP1 PUSH1 0x0 MSTORE PUSH1 0x20 PUSH1 0x0 KECCAK256 SWAP1 JUMPDEST DUP2 SLOAD DUP2 MSTORE SWAP1 PUSH1 0x1 ADD SWAP1 PUSH1 0x20 ADD DUP1 DUP4 GT PUSH2 0x1061 JUMPI DUP3 SWAP1 SUB PUSH1 0x1F AND DUP3 ADD SWAP2 JUMPDEST POP POP POP POP POP SWAP1 POP SWAP2 SWAP1 POP JUMP JUMPDEST PUSH1 0x0 PUSH20 0xFFFFFFFFFFFFFFFFFFFFFFFFFFFFFFFFFFFFFFFF AND PUSH1 0x4 PUSH1 0x0 DUP5 DUP2 MSTORE PUSH1 0x20 ADD SWAP1 DUP2 MSTORE PUSH1 0x20 ADD PUSH1 0x0 KECCAK256 PUSH1 0x0 SWAP1 SLOAD SWAP1 PUSH2 0x100 EXP SWAP1 DIV PUSH20 0xFFFFFFFFFFFFFFFFFFFFFFFFFFFFFFFFFFFFFFFF AND PUSH20 0xFFFFFFFFFFFFFFFFFFFFFFFFFFFFFFFFFFFFFFFF AND EQ PUSH2 0x112C JUMPI PUSH1 0x40 MLOAD PUSH32 0x8C379A000000000000000000000000000000000000000000000000000000000 DUP2 MSTORE PUSH1 0x4 ADD PUSH2 0x1123 SWAP1 PUSH2 0x1A2E JUMP JUMPDEST PUSH1 0x40 MLOAD DUP1 SWAP2 SUB SWAP1 REVERT JUMPDEST DUP3 PUSH1 0x4 PUSH1 0x0 DUP5 DUP2 MSTORE PUSH1 0x20 ADD SWAP1 DUP2 MSTORE PUSH1 0x20 ADD PUSH1 0x0 KECCAK256 PUSH1 0x0 PUSH2 0x100 EXP DUP2 SLOAD DUP2 PUSH20 0xFFFFFFFFFFFFFFFFFFFFFFFFFFFFFFFFFFFFFFFF MUL NOT AND SWAP1 DUP4 PUSH20 0xFFFFFFFFFFFFFFFFFFFFFFFFFFFFFFFFFFFFFFFF AND MUL OR SWAP1 SSTORE POP PUSH1 0x1 PUSH1 0x3 PUSH1 0x0 DUP6 PUSH20 0xFFFFFFFFFFFFFFFFFFFFFFFFFFFFFFFFFFFFFFFF AND PUSH20 0xFFFFFFFFFFFFFFFFFFFFFFFFFFFFFFFFFFFFFFFF AND DUP2 MSTORE PUSH1 0x20 ADD SWAP1 DUP2 MSTORE PUSH1 0x20 ADD PUSH1 0x0 KECCAK256 PUSH1 0x0 DUP3 DUP3 SLOAD PUSH2 0x11CE SWAP2 SWAP1 PUSH2 0x1B2C JUMP JUMPDEST SWAP3 POP POP DUP2 SWAP1 SSTORE POP DUP1 PUSH1 0x2 PUSH1 0x0 DUP5 DUP2 MSTORE PUSH1 0x20 ADD SWAP1 DUP2 MSTORE PUSH1 0x20 ADD PUSH1 0x0 KECCAK256 SWAP1 DUP1 MLOAD SWAP1 PUSH1 0x20 ADD SWAP1 PUSH2 0x11FC SWAP3 SWAP2 SWAP1 PUSH2 0x12F2 JUMP JUMPDEST POP DUP2 DUP4 PUSH20 0xFFFFFFFFFFFFFFFFFFFFFFFFFFFFFFFFFFFFFFFF AND PUSH1 0x0 PUSH20 0xFFFFFFFFFFFFFFFFFFFFFFFFFFFFFFFFFFFFFFFF AND PUSH32 0xDDF252AD1BE2C89B69C2B068FC378DAA952BA7F163C4A11628F55A4DF523B3EF PUSH1 0x40 MLOAD PUSH1 0x40 MLOAD DUP1 SWAP2 SUB SWAP1 LOG4 POP POP POP JUMP JUMPDEST PUSH1 0x0 PUSH1 0x6 PUSH1 0x0 DUP5 PUSH20 0xFFFFFFFFFFFFFFFFFFFFFFFFFFFFFFFFFFFFFFFF AND PUSH20 0xFFFFFFFFFFFFFFFFFFFFFFFFFFFFFFFFFFFFFFFF AND DUP2 MSTORE PUSH1 0x20 ADD SWAP1 DUP2 MSTORE PUSH1 0x20 ADD PUSH1 0x0 KECCAK256 PUSH1 0x0 DUP4 PUSH20 0xFFFFFFFFFFFFFFFFFFFFFFFFFFFFFFFFFFFFFFFF AND PUSH20 0xFFFFFFFFFFFFFFFFFFFFFFFFFFFFFFFFFFFFFFFF AND DUP2 MSTORE PUSH1 0x20 ADD SWAP1 DUP2 MSTORE PUSH1 0x20 ADD PUSH1 0x0 KECCAK256 PUSH1 0x0 SWAP1 SLOAD SWAP1 PUSH2 0x100 EXP SWAP1 DIV PUSH1 0xFF AND SWAP1 POP SWAP3 SWAP2 POP POP JUMP JUMPDEST DUP3 DUP1 SLOAD PUSH2 0x12FE SWAP1 PUSH2 0x1C6C JUMP JUMPDEST SWAP1 PUSH1 0x0 MSTORE PUSH1 0x20 PUSH1 0x0 KECCAK256 SWAP1 PUSH1 0x1F ADD PUSH1 0x20 SWAP1 DIV DUP2 ADD SWAP3 DUP3 PUSH2 0x1320 JUMPI PUSH1 0x0 DUP6 SSTORE PUSH2 0x1367 JUMP JUMPDEST DUP3 PUSH1 0x1F LT PUSH2 0x1339 JUMPI DUP1 MLOAD PUSH1 0xFF NOT AND DUP4 DUP1 ADD OR DUP6 SSTORE PUSH2 0x1367 JUMP JUMPDEST DUP3 DUP1 ADD PUSH1 0x1 ADD DUP6 SSTORE DUP3 ISZERO PUSH2 0x1367 JUMPI SWAP2 DUP3 ADD JUMPDEST DUP3 DUP2 GT ISZERO PUSH2 0x1366 JUMPI DUP3 MLOAD DUP3 SSTORE SWAP2 PUSH1 0x20 ADD SWAP2 SWAP1 PUSH1 0x1 ADD SWAP1 PUSH2 0x134B JUMP JUMPDEST JUMPDEST POP SWAP1 POP PUSH2 0x1374 SWAP2 SWAP1 PUSH2 0x1378 JUMP JUMPDEST POP SWAP1 JUMP JUMPDEST JUMPDEST DUP1 DUP3 GT ISZERO PUSH2 0x1391 JUMPI PUSH1 0x0 DUP2 PUSH1 0x0 SWAP1 SSTORE POP PUSH1 0x1 ADD PUSH2 0x1379 JUMP JUMPDEST POP SWAP1 JUMP JUMPDEST PUSH1 0x0 PUSH2 0x13A8 PUSH2 0x13A3 DUP5 PUSH2 0x1AAE JUMP JUMPDEST PUSH2 0x1A89 JUMP JUMPDEST SWAP1 POP DUP3 DUP2 MSTORE PUSH1 0x20 DUP2 ADD DUP5 DUP5 DUP5 ADD GT ISZERO PUSH2 0x13C4 JUMPI PUSH2 0x13C3 PUSH2 0x1D61 JUMP JUMPDEST JUMPDEST PUSH2 0x13CF DUP5 DUP3 DUP6 PUSH2 0x1C2A JUMP JUMPDEST POP SWAP4 SWAP3 POP POP POP JUMP JUMPDEST PUSH1 0x0 PUSH2 0x13EA PUSH2 0x13E5 DUP5 PUSH2 0x1ADF JUMP JUMPDEST PUSH2 0x1A89 JUMP JUMPDEST SWAP1 POP DUP3 DUP2 MSTORE PUSH1 0x20 DUP2 ADD DUP5 DUP5 DUP5 ADD GT ISZERO PUSH2 0x1406 JUMPI PUSH2 0x1405 PUSH2 0x1D61 JUMP JUMPDEST JUMPDEST PUSH2 0x1411 DUP5 DUP3 DUP6 PUSH2 0x1C2A JUMP JUMPDEST POP SWAP4 SWAP3 POP POP POP JUMP JUMPDEST PUSH1 0x0 DUP2 CALLDATALOAD SWAP1 POP PUSH2 0x1428 DUP2 PUSH2 0x1EF2 JUMP JUMPDEST SWAP3 SWAP2 POP POP JUMP JUMPDEST PUSH1 0x0 DUP2 CALLDATALOAD SWAP1 POP PUSH2 0x143D DUP2 PUSH2 0x1F09 JUMP JUMPDEST SWAP3 SWAP2 POP POP JUMP JUMPDEST PUSH1 0x0 DUP2 CALLDATALOAD SWAP1 POP PUSH2 0x1452 DUP2 PUSH2 0x1F20 JUMP JUMPDEST SWAP3 SWAP2 POP POP JUMP JUMPDEST PUSH1 0x0 DUP3 PUSH1 0x1F DUP4 ADD SLT PUSH2 0x146D JUMPI PUSH2 0x146C PUSH2 0x1D5C JUMP JUMPDEST JUMPDEST DUP2 CALLDATALOAD PUSH2 0x147D DUP5 DUP3 PUSH1 0x20 DUP7 ADD PUSH2 0x1395 JUMP JUMPDEST SWAP2 POP POP SWAP3 SWAP2 POP POP JUMP JUMPDEST PUSH1 0x0 DUP3 PUSH1 0x1F DUP4 ADD SLT PUSH2 0x149B JUMPI PUSH2 0x149A PUSH2 0x1D5C JUMP JUMPDEST JUMPDEST DUP2 CALLDATALOAD PUSH2 0x14AB DUP5 DUP3 PUSH1 0x20 DUP7 ADD PUSH2 0x13D7 JUMP JUMPDEST SWAP2 POP POP SWAP3 SWAP2 POP POP JUMP JUMPDEST PUSH1 0x0 DUP2 CALLDATALOAD SWAP1 POP PUSH2 0x14C3 DUP2 PUSH2 0x1F37 JUMP JUMPDEST SWAP3 SWAP2 POP POP JUMP JUMPDEST PUSH1 0x0 PUSH1 0x20 DUP3 DUP5 SUB SLT ISZERO PUSH2 0x14DF JUMPI PUSH2 0x14DE PUSH2 0x1D6B JUMP JUMPDEST JUMPDEST PUSH1 0x0 PUSH2 0x14ED DUP5 DUP3 DUP6 ADD PUSH2 0x1419 JUMP JUMPDEST SWAP2 POP POP SWAP3 SWAP2 POP POP JUMP JUMPDEST PUSH1 0x0 DUP1 PUSH1 0x40 DUP4 DUP6 SUB SLT ISZERO PUSH2 0x150D JUMPI PUSH2 0x150C PUSH2 0x1D6B JUMP JUMPDEST JUMPDEST PUSH1 0x0 PUSH2 0x151B DUP6 DUP3 DUP7 ADD PUSH2 0x1419 JUMP JUMPDEST SWAP3 POP POP PUSH1 0x20 PUSH2 0x152C DUP6 DUP3 DUP7 ADD PUSH2 0x1419 JUMP JUMPDEST SWAP2 POP POP SWAP3 POP SWAP3 SWAP1 POP JUMP JUMPDEST PUSH1 0x0 DUP1 PUSH1 0x0 PUSH1 0x60 DUP5 DUP7 SUB SLT ISZERO PUSH2 0x154F JUMPI PUSH2 0x154E PUSH2 0x1D6B JUMP JUMPDEST JUMPDEST PUSH1 0x0 PUSH2 0x155D DUP7 DUP3 DUP8 ADD PUSH2 0x1419 JUMP JUMPDEST SWAP4 POP POP PUSH1 0x20 PUSH2 0x156E DUP7 DUP3 DUP8 ADD PUSH2 0x1419 JUMP JUMPDEST SWAP3 POP POP PUSH1 0x40 PUSH2 0x157F DUP7 DUP3 DUP8 ADD PUSH2 0x14B4 JUMP JUMPDEST SWAP2 POP POP SWAP3 POP SWAP3 POP SWAP3 JUMP JUMPDEST PUSH1 0x0 DUP1 PUSH1 0x0 DUP1 PUSH1 0x80 DUP6 DUP8 SUB SLT ISZERO PUSH2 0x15A3 JUMPI PUSH2 0x15A2 PUSH2 0x1D6B JUMP JUMPDEST JUMPDEST PUSH1 0x0 PUSH2 0x15B1 DUP8 DUP3 DUP9 ADD PUSH2 0x1419 JUMP JUMPDEST SWAP5 POP POP PUSH1 0x20 PUSH2 0x15C2 DUP8 DUP3 DUP9 ADD PUSH2 0x1419 JUMP JUMPDEST SWAP4 POP POP PUSH1 0x40 PUSH2 0x15D3 DUP8 DUP3 DUP9 ADD PUSH2 0x14B4 JUMP JUMPDEST SWAP3 POP POP PUSH1 0x60 DUP6 ADD CALLDATALOAD PUSH8 0xFFFFFFFFFFFFFFFF DUP2 GT ISZERO PUSH2 0x15F4 JUMPI PUSH2 0x15F3 PUSH2 0x1D66 JUMP JUMPDEST JUMPDEST PUSH2 0x1600 DUP8 DUP3 DUP9 ADD PUSH2 0x1458 JUMP JUMPDEST SWAP2 POP POP SWAP3 SWAP6 SWAP2 SWAP5 POP SWAP3 POP JUMP JUMPDEST PUSH1 0x0 DUP1 PUSH1 0x40 DUP4 DUP6 SUB SLT ISZERO PUSH2 0x1623 JUMPI PUSH2 0x1622 PUSH2 0x1D6B JUMP JUMPDEST JUMPDEST PUSH1 0x0 PUSH2 0x1631 DUP6 DUP3 DUP7 ADD PUSH2 0x1419 JUMP JUMPDEST SWAP3 POP POP PUSH1 0x20 PUSH2 0x1642 DUP6 DUP3 DUP7 ADD PUSH2 0x142E JUMP JUMPDEST SWAP2 POP POP SWAP3 POP SWAP3 SWAP1 POP JUMP JUMPDEST PUSH1 0x0 DUP1 PUSH1 0x40 DUP4 DUP6 SUB SLT ISZERO PUSH2 0x1663 JUMPI PUSH2 0x1662 PUSH2 0x1D6B JUMP JUMPDEST JUMPDEST PUSH1 0x0 PUSH2 0x1671 DUP6 DUP3 DUP7 ADD PUSH2 0x1419 JUMP JUMPDEST SWAP3 POP POP PUSH1 0x20 PUSH2 0x1682 DUP6 DUP3 DUP7 ADD PUSH2 0x14B4 JUMP JUMPDEST SWAP2 POP POP SWAP3 POP SWAP3 SWAP1 POP JUMP JUMPDEST PUSH1 0x0 DUP1 PUSH1 0x0 PUSH1 0x60 DUP5 DUP7 SUB SLT ISZERO PUSH2 0x16A5 JUMPI PUSH2 0x16A4 PUSH2 0x1D6B JUMP JUMPDEST JUMPDEST PUSH1 0x0 PUSH2 0x16B3 DUP7 DUP3 DUP8 ADD PUSH2 0x1419 JUMP JUMPDEST SWAP4 POP POP PUSH1 0x20 PUSH2 0x16C4 DUP7 DUP3 DUP8 ADD PUSH2 0x14B4 JUMP JUMPDEST SWAP3 POP POP PUSH1 0x40 DUP5 ADD CALLDATALOAD PUSH8 0xFFFFFFFFFFFFFFFF DUP2 GT ISZERO PUSH2 0x16E5 JUMPI PUSH2 0x16E4 PUSH2 0x1D66 JUMP JUMPDEST JUMPDEST PUSH2 0x16F1 DUP7 DUP3 DUP8 ADD PUSH2 0x1486 JUMP JUMPDEST SWAP2 POP POP SWAP3 POP SWAP3 POP SWAP3 JUMP JUMPDEST PUSH1 0x0 PUSH1 0x20 DUP3 DUP5 SUB SLT ISZERO PUSH2 0x1711 JUMPI PUSH2 0x1710 PUSH2 0x1D6B JUMP JUMPDEST JUMPDEST PUSH1 0x0 PUSH2 0x171F DUP5 DUP3 DUP6 ADD PUSH2 0x1443 JUMP JUMPDEST SWAP2 POP POP SWAP3 SWAP2 POP POP JUMP JUMPDEST PUSH1 0x0 PUSH1 0x20 DUP3 DUP5 SUB SLT ISZERO PUSH2 0x173E JUMPI PUSH2 0x173D PUSH2 0x1D6B JUMP JUMPDEST JUMPDEST PUSH1 0x0 PUSH2 0x174C DUP5 DUP3 DUP6 ADD PUSH2 0x14B4 JUMP JUMPDEST SWAP2 POP POP SWAP3 SWAP2 POP POP JUMP JUMPDEST PUSH2 0x175E DUP2 PUSH2 0x1BB6 JUMP JUMPDEST DUP3 MSTORE POP POP JUMP JUMPDEST PUSH2 0x176D DUP2 PUSH2 0x1BC8 JUMP JUMPDEST DUP3 MSTORE POP POP JUMP JUMPDEST PUSH1 0x0 PUSH2 0x177E DUP3 PUSH2 0x1B10 JUMP JUMPDEST PUSH2 0x1788 DUP2 DUP6 PUSH2 0x1B1B JUMP JUMPDEST SWAP4 POP PUSH2 0x1798 DUP2 DUP6 PUSH1 0x20 DUP7 ADD PUSH2 0x1C39 JUMP JUMPDEST PUSH2 0x17A1 DUP2 PUSH2 0x1D70 JUMP JUMPDEST DUP5 ADD SWAP2 POP POP SWAP3 SWAP2 POP POP JUMP JUMPDEST PUSH1 0x0 PUSH2 0x17B9 PUSH1 0xE DUP4 PUSH2 0x1B1B JUMP JUMPDEST SWAP2 POP PUSH2 0x17C4 DUP3 PUSH2 0x1D81 JUMP JUMPDEST PUSH1 0x20 DUP3 ADD SWAP1 POP SWAP2 SWAP1 POP JUMP JUMPDEST PUSH1 0x0 PUSH2 0x17DC PUSH1 0xF DUP4 PUSH2 0x1B1B JUMP JUMPDEST SWAP2 POP PUSH2 0x17E7 DUP3 PUSH2 0x1DAA JUMP JUMPDEST PUSH1 0x20 DUP3 ADD SWAP1 POP SWAP2 SWAP1 POP JUMP JUMPDEST PUSH1 0x0 PUSH2 0x17FF PUSH1 0x12 DUP4 PUSH2 0x1B1B JUMP JUMPDEST SWAP2 POP PUSH2 0x180A DUP3 PUSH2 0x1DD3 JUMP JUMPDEST PUSH1 0x20 DUP3 ADD SWAP1 POP SWAP2 SWAP1 POP JUMP JUMPDEST PUSH1 0x0 PUSH2 0x1822 PUSH1 0xE DUP4 PUSH2 0x1B1B JUMP JUMPDEST SWAP2 POP PUSH2 0x182D DUP3 PUSH2 0x1DFC JUMP JUMPDEST PUSH1 0x20 DUP3 ADD SWAP1 POP SWAP2 SWAP1 POP JUMP JUMPDEST PUSH1 0x0 PUSH2 0x1845 PUSH1 0x8 DUP4 PUSH2 0x1B1B JUMP JUMPDEST SWAP2 POP PUSH2 0x1850 DUP3 PUSH2 0x1E25 JUMP JUMPDEST PUSH1 0x20 DUP3 ADD SWAP1 POP SWAP2 SWAP1 POP JUMP JUMPDEST PUSH1 0x0 PUSH2 0x1868 PUSH1 0xA DUP4 PUSH2 0x1B1B JUMP JUMPDEST SWAP2 POP PUSH2 0x1873 DUP3 PUSH2 0x1E4E JUMP JUMPDEST PUSH1 0x20 DUP3 ADD SWAP1 POP SWAP2 SWAP1 POP JUMP JUMPDEST PUSH1 0x0 PUSH2 0x188B PUSH1 0x10 DUP4 PUSH2 0x1B1B JUMP JUMPDEST SWAP2 POP PUSH2 0x1896 DUP3 PUSH2 0x1E77 JUMP JUMPDEST PUSH1 0x20 DUP3 ADD SWAP1 POP SWAP2 SWAP1 POP JUMP JUMPDEST PUSH1 0x0 PUSH2 0x18AE PUSH1 0xE DUP4 PUSH2 0x1B1B JUMP JUMPDEST SWAP2 POP PUSH2 0x18B9 DUP3 PUSH2 0x1EA0 JUMP JUMPDEST PUSH1 0x20 DUP3 ADD SWAP1 POP SWAP2 SWAP1 POP JUMP JUMPDEST PUSH1 0x0 PUSH2 0x18D1 PUSH1 0x18 DUP4 PUSH2 0x1B1B JUMP JUMPDEST SWAP2 POP PUSH2 0x18DC DUP3 PUSH2 0x1EC9 JUMP JUMPDEST PUSH1 0x20 DUP3 ADD SWAP1 POP SWAP2 SWAP1 POP JUMP JUMPDEST PUSH2 0x18F0 DUP2 PUSH2 0x1C20 JUMP JUMPDEST DUP3 MSTORE POP POP JUMP JUMPDEST PUSH1 0x0 PUSH1 0x20 DUP3 ADD SWAP1 POP PUSH2 0x190B PUSH1 0x0 DUP4 ADD DUP5 PUSH2 0x1755 JUMP JUMPDEST SWAP3 SWAP2 POP POP JUMP JUMPDEST PUSH1 0x0 PUSH1 0x20 DUP3 ADD SWAP1 POP PUSH2 0x1926 PUSH1 0x0 DUP4 ADD DUP5 PUSH2 0x1764 JUMP JUMPDEST SWAP3 SWAP2 POP POP JUMP JUMPDEST PUSH1 0x0 PUSH1 0x20 DUP3 ADD SWAP1 POP DUP2 DUP2 SUB PUSH1 0x0 DUP4 ADD MSTORE PUSH2 0x1946 DUP2 DUP5 PUSH2 0x1773 JUMP JUMPDEST SWAP1 POP SWAP3 SWAP2 POP POP JUMP JUMPDEST PUSH1 0x0 PUSH1 0x20 DUP3 ADD SWAP1 POP DUP2 DUP2 SUB PUSH1 0x0 DUP4 ADD MSTORE PUSH2 0x1967 DUP2 PUSH2 0x17AC JUMP JUMPDEST SWAP1 POP SWAP2 SWAP1 POP JUMP JUMPDEST PUSH1 0x0 PUSH1 0x20 DUP3 ADD SWAP1 POP DUP2 DUP2 SUB PUSH1 0x0 DUP4 ADD MSTORE PUSH2 0x1987 DUP2 PUSH2 0x17CF JUMP JUMPDEST SWAP1 POP SWAP2 SWAP1 POP JUMP JUMPDEST PUSH1 0x0 PUSH1 0x20 DUP3 ADD SWAP1 POP DUP2 DUP2 SUB PUSH1 0x0 DUP4 ADD MSTORE PUSH2 0x19A7 DUP2 PUSH2 0x17F2 JUMP JUMPDEST SWAP1 POP SWAP2 SWAP1 POP JUMP JUMPDEST PUSH1 0x0 PUSH1 0x20 DUP3 ADD SWAP1 POP DUP2 DUP2 SUB PUSH1 0x0 DUP4 ADD MSTORE PUSH2 0x19C7 DUP2 PUSH2 0x1815 JUMP JUMPDEST SWAP1 POP SWAP2 SWAP1 POP JUMP JUMPDEST PUSH1 0x0 PUSH1 0x20 DUP3 ADD SWAP1 POP DUP2 DUP2 SUB PUSH1 0x0 DUP4 ADD MSTORE PUSH2 0x19E7 DUP2 PUSH2 0x1838 JUMP JUMPDEST SWAP1 POP SWAP2 SWAP1 POP JUMP JUMPDEST PUSH1 0x0 PUSH1 0x20 DUP3 ADD SWAP1 POP DUP2 DUP2 SUB PUSH1 0x0 DUP4 ADD MSTORE PUSH2 0x1A07 DUP2 PUSH2 0x185B JUMP JUMPDEST SWAP1 POP SWAP2 SWAP1 POP JUMP JUMPDEST PUSH1 0x0 PUSH1 0x20 DUP3 ADD SWAP1 POP DUP2 DUP2 SUB PUSH1 0x0 DUP4 ADD MSTORE PUSH2 0x1A27 DUP2 PUSH2 0x187E JUMP JUMPDEST SWAP1 POP SWAP2 SWAP1 POP JUMP JUMPDEST PUSH1 0x0 PUSH1 0x20 DUP3 ADD SWAP1 POP DUP2 DUP2 SUB PUSH1 0x0 DUP4 ADD MSTORE PUSH2 0x1A47 DUP2 PUSH2 0x18A1 JUMP JUMPDEST SWAP1 POP SWAP2 SWAP1 POP JUMP JUMPDEST PUSH1 0x0 PUSH1 0x20 DUP3 ADD SWAP1 POP DUP2 DUP2 SUB PUSH1 0x0 DUP4 ADD MSTORE PUSH2 0x1A67 DUP2 PUSH2 0x18C4 JUMP JUMPDEST SWAP1 POP SWAP2 SWAP1 POP JUMP JUMPDEST PUSH1 0x0 PUSH1 0x20 DUP3 ADD SWAP1 POP PUSH2 0x1A83 PUSH1 0x0 DUP4 ADD DUP5 PUSH2 0x18E7 JUMP JUMPDEST SWAP3 SWAP2 POP POP JUMP JUMPDEST PUSH1 0x0 PUSH2 0x1A93 PUSH2 0x1AA4 JUMP JUMPDEST SWAP1 POP PUSH2 0x1A9F DUP3 DUP3 PUSH2 0x1C9E JUMP JUMPDEST SWAP2 SWAP1 POP JUMP JUMPDEST PUSH1 0x0 PUSH1 0x40 MLOAD SWAP1 POP SWAP1 JUMP JUMPDEST PUSH1 0x0 PUSH8 0xFFFFFFFFFFFFFFFF DUP3 GT ISZERO PUSH2 0x1AC9 JUMPI PUSH2 0x1AC8 PUSH2 0x1D2D JUMP JUMPDEST JUMPDEST PUSH2 0x1AD2 DUP3 PUSH2 0x1D70 JUMP JUMPDEST SWAP1 POP PUSH1 0x20 DUP2 ADD SWAP1 POP SWAP2 SWAP1 POP JUMP JUMPDEST PUSH1 0x0 PUSH8 0xFFFFFFFFFFFFFFFF DUP3 GT ISZERO PUSH2 0x1AFA JUMPI PUSH2 0x1AF9 PUSH2 0x1D2D JUMP JUMPDEST JUMPDEST PUSH2 0x1B03 DUP3 PUSH2 0x1D70 JUMP JUMPDEST SWAP1 POP PUSH1 0x20 DUP2 ADD SWAP1 POP SWAP2 SWAP1 POP JUMP JUMPDEST PUSH1 0x0 DUP2 MLOAD SWAP1 POP SWAP2 SWAP1 POP JUMP JUMPDEST PUSH1 0x0 DUP3 DUP3 MSTORE PUSH1 0x20 DUP3 ADD SWAP1 POP SWAP3 SWAP2 POP POP JUMP JUMPDEST PUSH1 0x0 PUSH2 0x1B37 DUP3 PUSH2 0x1C20 JUMP JUMPDEST SWAP2 POP PUSH2 0x1B42 DUP4 PUSH2 0x1C20 JUMP JUMPDEST SWAP3 POP DUP3 PUSH32 0xFFFFFFFFFFFFFFFFFFFFFFFFFFFFFFFFFFFFFFFFFFFFFFFFFFFFFFFFFFFFFFFF SUB DUP3 GT ISZERO PUSH2 0x1B77 JUMPI PUSH2 0x1B76 PUSH2 0x1CCF JUMP JUMPDEST JUMPDEST DUP3 DUP3 ADD SWAP1 POP SWAP3 SWAP2 POP POP JUMP JUMPDEST PUSH1 0x0 PUSH2 0x1B8D DUP3 PUSH2 0x1C20 JUMP JUMPDEST SWAP2 POP PUSH2 0x1B98 DUP4 PUSH2 0x1C20 JUMP JUMPDEST SWAP3 POP DUP3 DUP3 LT ISZERO PUSH2 0x1BAB JUMPI PUSH2 0x1BAA PUSH2 0x1CCF JUMP JUMPDEST JUMPDEST DUP3 DUP3 SUB SWAP1 POP SWAP3 SWAP2 POP POP JUMP JUMPDEST PUSH1 0x0 PUSH2 0x1BC1 DUP3 PUSH2 0x1C00 JUMP JUMPDEST SWAP1 POP SWAP2 SWAP1 POP JUMP JUMPDEST PUSH1 0x0 DUP2 ISZERO ISZERO SWAP1 POP SWAP2 SWAP1 POP JUMP JUMPDEST PUSH1 0x0 PUSH32 0xFFFFFFFF00000000000000000000000000000000000000000000000000000000 DUP3 AND SWAP1 POP SWAP2 SWAP1 POP JUMP JUMPDEST PUSH1 0x0 PUSH20 0xFFFFFFFFFFFFFFFFFFFFFFFFFFFFFFFFFFFFFFFF DUP3 AND SWAP1 POP SWAP2 SWAP1 POP JUMP JUMPDEST PUSH1 0x0 DUP2 SWAP1 POP SWAP2 SWAP1 POP JUMP JUMPDEST DUP3 DUP2 DUP4 CALLDATACOPY PUSH1 0x0 DUP4 DUP4 ADD MSTORE POP POP POP JUMP JUMPDEST PUSH1 0x0 JUMPDEST DUP4 DUP2 LT ISZERO PUSH2 0x1C57 JUMPI DUP1 DUP3 ADD MLOAD DUP2 DUP5 ADD MSTORE PUSH1 0x20 DUP2 ADD SWAP1 POP PUSH2 0x1C3C JUMP JUMPDEST DUP4 DUP2 GT ISZERO PUSH2 0x1C66 JUMPI PUSH1 0x0 DUP5 DUP5 ADD MSTORE JUMPDEST POP POP POP POP JUMP JUMPDEST PUSH1 0x0 PUSH1 0x2 DUP3 DIV SWAP1 POP PUSH1 0x1 DUP3 AND DUP1 PUSH2 0x1C84 JUMPI PUSH1 0x7F DUP3 AND SWAP2 POP JUMPDEST PUSH1 0x20 DUP3 LT DUP2 EQ ISZERO PUSH2 0x1C98 JUMPI PUSH2 0x1C97 PUSH2 0x1CFE JUMP JUMPDEST JUMPDEST POP SWAP2 SWAP1 POP JUMP JUMPDEST PUSH2 0x1CA7 DUP3 PUSH2 0x1D70 JUMP JUMPDEST DUP2 ADD DUP2 DUP2 LT PUSH8 0xFFFFFFFFFFFFFFFF DUP3 GT OR ISZERO PUSH2 0x1CC6 JUMPI PUSH2 0x1CC5 PUSH2 0x1D2D JUMP JUMPDEST JUMPDEST DUP1 PUSH1 0x40 MSTORE POP POP POP JUMP JUMPDEST PUSH32 0x4E487B7100000000000000000000000000000000000000000000000000000000 PUSH1 0x0 MSTORE PUSH1 0x11 PUSH1 0x4 MSTORE PUSH1 0x24 PUSH1 0x0 REVERT JUMPDEST PUSH32 0x4E487B7100000000000000000000000000000000000000000000000000000000 PUSH1 0x0 MSTORE PUSH1 0x22 PUSH1 0x4 MSTORE PUSH1 0x24 PUSH1 0x0 REVERT JUMPDEST PUSH32 0x4E487B7100000000000000000000000000000000000000000000000000000000 PUSH1 0x0 MSTORE PUSH1 0x41 PUSH1 0x4 MSTORE PUSH1 0x24 PUSH1 0x0 REVERT JUMPDEST PUSH1 0x0 DUP1 REVERT JUMPDEST PUSH1 0x0 DUP1 REVERT JUMPDEST PUSH1 0x0 DUP1 REVERT JUMPDEST PUSH1 0x0 DUP1 REVERT JUMPDEST PUSH1 0x0 PUSH1 0x1F NOT PUSH1 0x1F DUP4 ADD AND SWAP1 POP SWAP2 SWAP1 POP JUMP JUMPDEST PUSH32 0x6E6F74207065726D697373696F6E000000000000000000000000000000000000 PUSH1 0x0 DUP3 ADD MSTORE POP JUMP JUMPDEST PUSH32 0x696E76616C696420746F6B656E49640000000000000000000000000000000000 PUSH1 0x0 DUP3 ADD MSTORE POP JUMP JUMPDEST PUSH32 0x696E76616C696420544F20616464726573730000000000000000000000000000 PUSH1 0x0 DUP3 ADD MSTORE POP JUMP JUMPDEST PUSH32 0x6E6F77207065726D697373696F6E000000000000000000000000000000000000 PUSH1 0x0 DUP3 ADD MSTORE POP JUMP JUMPDEST PUSH32 0x6E6F742041757468000000000000000000000000000000000000000000000000 PUSH1 0x0 DUP3 ADD MSTORE POP JUMP JUMPDEST PUSH32 0x6E6F74206D696E74656400000000000000000000000000000000000000000000 PUSH1 0x0 DUP3 ADD MSTORE POP JUMP JUMPDEST PUSH32 0x696E76616C6964206F70657261746F7200000000000000000000000000000000 PUSH1 0x0 DUP3 ADD MSTORE POP JUMP JUMPDEST PUSH32 0x616C7265616479206D696E746564000000000000000000000000000000000000 PUSH1 0x0 DUP3 ADD MSTORE POP JUMP JUMPDEST PUSH32 0x796F752063616E207472616E66657220796F757273656C660000000000000000 PUSH1 0x0 DUP3 ADD MSTORE POP JUMP JUMPDEST PUSH2 0x1EFB DUP2 PUSH2 0x1BB6 JUMP JUMPDEST DUP2 EQ PUSH2 0x1F06 JUMPI PUSH1 0x0 DUP1 REVERT JUMPDEST POP JUMP JUMPDEST PUSH2 0x1F12 DUP2 PUSH2 0x1BC8 JUMP JUMPDEST DUP2 EQ PUSH2 0x1F1D JUMPI PUSH1 0x0 DUP1 REVERT JUMPDEST POP JUMP JUMPDEST PUSH2 0x1F29 DUP2 PUSH2 0x1BD4 JUMP JUMPDEST DUP2 EQ PUSH2 0x1F34 JUMPI PUSH1 0x0 DUP1 REVERT JUMPDEST POP JUMP JUMPDEST PUSH2 0x1F40 DUP2 PUSH2 0x1C20 JUMP JUMPDEST DUP2 EQ PUSH2 0x1F4B JUMPI PUSH1 0x0 DUP1 REVERT JUMPDEST POP JUMP INVALID LOG2 PUSH5 0x6970667358 0x22 SLT KECCAK256 0xBA PUSH8 0x747CCD710C3E96D7 MSTORE EXTCODEHASH PUSH30 0x94A0566C854CA5305831195F429CE20E95042E64736F6C63430008070033 "
				},
				"gasEstimates": {
					"creation": {
						"codeDepositCost": "1613600",
						"executionCost": "infinite",
						"totalCost": "infinite"
					},
					"external": {
						"approve(address,uint256)": "29261",
						"balanceOf(address)": "2864",
						"getApproved(uint256)": "2933",
						"isApprovedForAll(address,address)": "infinite",
						"mint(address,uint256,string)": "infinite",
						"name()": "infinite",
						"ownerOf(uint256)": "2932",
						"safeTransferFrom(address,address,uint256)": "infinite",
						"safeTransferFrom(address,address,uint256,bytes)": "infinite",
						"setApprovalForAll(address,bool)": "infinite",
						"supportsInterface(bytes4)": "781",
						"symbol()": "infinite",
						"tokenName()": "infinite",
						"tokenSymbol()": "infinite",
						"tokenURI(uint256)": "infinite",
						"transferFrom(address,address,uint256)": "infinite"
					}
				},
				"methodIdentifiers": {
					"approve(address,uint256)": "095ea7b3",
					"balanceOf(address)": "70a08231",
					"getApproved(uint256)": "081812fc",
					"isApprovedForAll(address,address)": "e985e9c5",
					"mint(address,uint256,string)": "d3fc9864",
					"name()": "06fdde03",
					"ownerOf(uint256)": "6352211e",
					"safeTransferFrom(address,address,uint256)": "42842e0e",
					"safeTransferFrom(address,address,uint256,bytes)": "b88d4fde",
					"setApprovalForAll(address,bool)": "a22cb465",
					"supportsInterface(bytes4)": "01ffc9a7",
					"symbol()": "95d89b41",
					"tokenName()": "6c02a931",
					"tokenSymbol()": "7b61c320",
					"tokenURI(uint256)": "c87b56dd",
					"transferFrom(address,address,uint256)": "23b872dd"
				}
			},
			"storageLayout": {
				"storage": [
					{
						"astId": 151,
						"contract": "mokkozi/week3/erc721.sol:minionToken",
						"label": "tokenName",
						"offset": 0,
						"slot": "0",
						"type": "t_string_storage"
					},
					{
						"astId": 154,
						"contract": "mokkozi/week3/erc721.sol:minionToken",
						"label": "tokenSymbol",
						"offset": 0,
						"slot": "1",
						"type": "t_string_storage"
					},
					{
						"astId": 158,
						"contract": "mokkozi/week3/erc721.sol:minionToken",
						"label": "tokenURIs",
						"offset": 0,
						"slot": "2",
						"type": "t_mapping(t_uint256,t_string_storage)"
					},
					{
						"astId": 162,
						"contract": "mokkozi/week3/erc721.sol:minionToken",
						"label": "balanceByOwner",
						"offset": 0,
						"slot": "3",
						"type": "t_mapping(t_address,t_uint256)"
					},
					{
						"astId": 166,
						"contract": "mokkozi/week3/erc721.sol:minionToken",
						"label": "ownerByTokenId",
						"offset": 0,
						"slot": "4",
						"type": "t_mapping(t_uint256,t_address)"
					},
					{
						"astId": 170,
						"contract": "mokkozi/week3/erc721.sol:minionToken",
						"label": "approveOfTokenId",
						"offset": 0,
						"slot": "5",
						"type": "t_mapping(t_uint256,t_address)"
					},
					{
						"astId": 176,
						"contract": "mokkozi/week3/erc721.sol:minionToken",
						"label": "approvedOfOwner",
						"offset": 0,
						"slot": "6",
						"type": "t_mapping(t_address,t_mapping(t_address,t_bool))"
					}
				],
				"types": {
					"t_address": {
						"encoding": "inplace",
						"label": "address",
						"numberOfBytes": "20"
					},
					"t_bool": {
						"encoding": "inplace",
						"label": "bool",
						"numberOfBytes": "1"
					},
					"t_mapping(t_address,t_bool)": {
						"encoding": "mapping",
						"key": "t_address",
						"label": "mapping(address => bool)",
						"numberOfBytes": "32",
						"value": "t_bool"
					},
					"t_mapping(t_address,t_mapping(t_address,t_bool))": {
						"encoding": "mapping",
						"key": "t_address",
						"label": "mapping(address => mapping(address => bool))",
						"numberOfBytes": "32",
						"value": "t_mapping(t_address,t_bool)"
					},
					"t_mapping(t_address,t_uint256)": {
						"encoding": "mapping",
						"key": "t_address",
						"label": "mapping(address => uint256)",
						"numberOfBytes": "32",
						"value": "t_uint256"
					},
					"t_mapping(t_uint256,t_address)": {
						"encoding": "mapping",
						"key": "t_uint256",
						"label": "mapping(uint256 => address)",
						"numberOfBytes": "32",
						"value": "t_address"
					},
					"t_mapping(t_uint256,t_string_storage)": {
						"encoding": "mapping",
						"key": "t_uint256",
						"label": "mapping(uint256 => string)",
						"numberOfBytes": "32",
						"value": "t_string_storage"
					},
					"t_string_storage": {
						"encoding": "bytes",
						"label": "string",
						"numberOfBytes": "32"
					},
					"t_uint256": {
						"encoding": "inplace",
						"label": "uint256",
						"numberOfBytes": "32"
					}
				}
			},
			"userdoc": {
				"kind": "user",
				"methods": {
					"approve(address,uint256)": {
						"notice": "Change or reaffirm the approved address for an NFT"
					},
					"balanceOf(address)": {
						"notice": "Count all NFTs assigned to an owner"
					},
					"getApproved(uint256)": {
						"notice": "Get the approved address for a single NFT"
					},
					"isApprovedForAll(address,address)": {
						"notice": "Query if an address is an authorized operator for another address"
					},
					"name()": {
						"notice": "A descriptive name for a collection of NFTs in this contract"
					},
					"ownerOf(uint256)": {
						"notice": "Find the owner of an NFT"
					},
					"safeTransferFrom(address,address,uint256)": {
						"notice": "Transfers the ownership of an NFT from one address to another address"
					},
					"safeTransferFrom(address,address,uint256,bytes)": {
						"notice": "Transfers the ownership of an NFT from one address to another address"
					},
					"setApprovalForAll(address,bool)": {
						"notice": "Enable or disable approval for a third party (\"operator\") to manage  all of `msg.sender`'s assets"
					},
					"supportsInterface(bytes4)": {
						"notice": "Query if a contract implements an interface"
					},
					"symbol()": {
						"notice": "An abbreviated name for NFTs in this contract"
					},
					"tokenURI(uint256)": {
						"notice": "A distinct Uniform Resource Identifier (URI) for a given asset."
					},
					"transferFrom(address,address,uint256)": {
						"notice": "Transfer ownership of an NFT -- THE CALLER IS RESPONSIBLE  TO CONFIRM THAT `_to` IS CAPABLE OF RECEIVING NFTS OR ELSE  THEY MAY BE PERMANENTLY LOST"
					}
				},
				"version": 1
			}
		}
	}
}