{
	"mokkozi/week3/mapping.sol": {
		"MappingTest": {
			"abi": [
				{
					"inputs": [],
					"stateMutability": "nonpayable",
					"type": "constructor"
				},
				{
					"inputs": [
						{
							"internalType": "string",
							"name": "name",
							"type": "string"
						}
					],
					"name": "getPhoneNumber",
					"outputs": [
						{
							"internalType": "string",
							"name": "",
							"type": "string"
						}
					],
					"stateMutability": "view",
					"type": "function"
				}
			],
			"devdoc": {
				"kind": "dev",
				"methods": {},
				"version": 1
			},
			"evm": {
				"assembly": "    /* \"mokkozi/week3/mapping.sol\":69:381  contract MappingTest... */\n  mstore(0x40, 0x80)\n    /* \"mokkozi/week3/mapping.sol\":144:274  constructor()... */\n  callvalue\n  dup1\n  iszero\n  tag_1\n  jumpi\n  0x00\n  dup1\n  revert\ntag_1:\n  pop\n    /* \"mokkozi/week3/mapping.sol\":172:215  phoneNumberByName[\"tony\"] = \"010-0000-7414\" */\n  mload(0x40)\n  dup1\n  0x40\n  add\n  0x40\n  mstore\n  dup1\n  0x0d\n  dup2\n  mstore\n  0x20\n  add\n  0x3031302d303030302d3734313400000000000000000000000000000000000000\n  dup2\n  mstore\n  pop\n    /* \"mokkozi/week3/mapping.sol\":172:189  phoneNumberByName */\n  0x00\n    /* \"mokkozi/week3/mapping.sol\":172:197  phoneNumberByName[\"tony\"] */\n  mload(0x40)\n  tag_4\n  swap1\n  tag_5\n  jump\t// in\ntag_4:\n  swap1\n  dup2\n  mstore\n  0x20\n  add\n  mload(0x40)\n  dup1\n  swap2\n  sub\n  swap1\n  keccak256\n    /* \"mokkozi/week3/mapping.sol\":172:215  phoneNumberByName[\"tony\"] = \"010-0000-7414\" */\n  swap1\n  dup1\n  mload\n  swap1\n  0x20\n  add\n  swap1\n  tag_6\n  swap3\n  swap2\n  swap1\n  tag_7\n  jump\t// in\ntag_6:\n  pop\n    /* \"mokkozi/week3/mapping.sol\":225:267  phoneNumberByName[\"ann\"] = \"010-1234-1234\" */\n  mload(0x40)\n  dup1\n  0x40\n  add\n  0x40\n  mstore\n  dup1\n  0x0d\n  dup2\n  mstore\n  0x20\n  add\n  0x3031302d313233342d3132333400000000000000000000000000000000000000\n  dup2\n  mstore\n  pop\n    /* \"mokkozi/week3/mapping.sol\":225:242  phoneNumberByName */\n  0x00\n    /* \"mokkozi/week3/mapping.sol\":225:249  phoneNumberByName[\"ann\"] */\n  mload(0x40)\n  tag_8\n  swap1\n  tag_9\n  jump\t// in\ntag_8:\n  swap1\n  dup2\n  mstore\n  0x20\n  add\n  mload(0x40)\n  dup1\n  swap2\n  sub\n  swap1\n  keccak256\n    /* \"mokkozi/week3/mapping.sol\":225:267  phoneNumberByName[\"ann\"] = \"010-1234-1234\" */\n  swap1\n  dup1\n  mload\n  swap1\n  0x20\n  add\n  swap1\n  tag_10\n  swap3\n  swap2\n  swap1\n  tag_7\n  jump\t// in\ntag_10:\n  pop\n    /* \"mokkozi/week3/mapping.sol\":69:381  contract MappingTest... */\n  jump(tag_11)\ntag_7:\n  dup3\n  dup1\n  sload\n  tag_12\n  swap1\n  tag_13\n  jump\t// in\ntag_12:\n  swap1\n  0x00\n  mstore\n  keccak256(0x00, 0x20)\n  swap1\n  0x1f\n  add\n  0x20\n  swap1\n  div\n  dup2\n  add\n  swap3\n  dup3\n  tag_15\n  jumpi\n  0x00\n  dup6\n  sstore\n  jump(tag_14)\ntag_15:\n  dup3\n  0x1f\n  lt\n  tag_16\n  jumpi\n  dup1\n  mload\n  not(0xff)\n  and\n  dup4\n  dup1\n  add\n  or\n  dup6\n  sstore\n  jump(tag_14)\ntag_16:\n  dup3\n  dup1\n  add\n  0x01\n  add\n  dup6\n  sstore\n  dup3\n  iszero\n  tag_14\n  jumpi\n  swap2\n  dup3\n  add\ntag_17:\n  dup3\n  dup2\n  gt\n  iszero\n  tag_18\n  jumpi\n  dup3\n  mload\n  dup3\n  sstore\n  swap2\n  0x20\n  add\n  swap2\n  swap1\n  0x01\n  add\n  swap1\n  jump(tag_17)\ntag_18:\ntag_14:\n  pop\n  swap1\n  pop\n  tag_19\n  swap2\n  swap1\n  tag_20\n  jump\t// in\ntag_19:\n  pop\n  swap1\n  jump\t// out\ntag_20:\ntag_21:\n  dup1\n  dup3\n  gt\n  iszero\n  tag_22\n  jumpi\n  0x00\n  dup2\n  0x00\n  swap1\n  sstore\n  pop\n  0x01\n  add\n  jump(tag_21)\ntag_22:\n  pop\n  swap1\n  jump\t// out\n    /* \"#utility.yul\":7:407   */\ntag_24:\n    /* \"#utility.yul\":167:170   */\n  0x00\n    /* \"#utility.yul\":188:272   */\n  tag_26\n    /* \"#utility.yul\":270:271   */\n  0x04\n    /* \"#utility.yul\":265:268   */\n  dup4\n    /* \"#utility.yul\":188:272   */\n  tag_27\n  jump\t// in\ntag_26:\n    /* \"#utility.yul\":181:272   */\n  swap2\n  pop\n    /* \"#utility.yul\":281:374   */\n  tag_28\n    /* \"#utility.yul\":370:373   */\n  dup3\n    /* \"#utility.yul\":281:374   */\n  tag_29\n  jump\t// in\ntag_28:\n    /* \"#utility.yul\":399:400   */\n  0x04\n    /* \"#utility.yul\":394:397   */\n  dup3\n    /* \"#utility.yul\":390:401   */\n  add\n    /* \"#utility.yul\":383:401   */\n  swap1\n  pop\n    /* \"#utility.yul\":7:407   */\n  swap2\n  swap1\n  pop\n  jump\t// out\n    /* \"#utility.yul\":413:813   */\ntag_30:\n    /* \"#utility.yul\":573:576   */\n  0x00\n    /* \"#utility.yul\":594:678   */\n  tag_32\n    /* \"#utility.yul\":676:677   */\n  0x03\n    /* \"#utility.yul\":671:674   */\n  dup4\n    /* \"#utility.yul\":594:678   */\n  tag_27\n  jump\t// in\ntag_32:\n    /* \"#utility.yul\":587:678   */\n  swap2\n  pop\n    /* \"#utility.yul\":687:780   */\n  tag_33\n    /* \"#utility.yul\":776:779   */\n  dup3\n    /* \"#utility.yul\":687:780   */\n  tag_34\n  jump\t// in\ntag_33:\n    /* \"#utility.yul\":805:806   */\n  0x03\n    /* \"#utility.yul\":800:803   */\n  dup3\n    /* \"#utility.yul\":796:807   */\n  add\n    /* \"#utility.yul\":789:807   */\n  swap1\n  pop\n    /* \"#utility.yul\":413:813   */\n  swap2\n  swap1\n  pop\n  jump\t// out\n    /* \"#utility.yul\":819:1200   */\ntag_5:\n    /* \"#utility.yul\":1004:1007   */\n  0x00\n    /* \"#utility.yul\":1026:1174   */\n  tag_36\n    /* \"#utility.yul\":1170:1173   */\n  dup3\n    /* \"#utility.yul\":1026:1174   */\n  tag_24\n  jump\t// in\ntag_36:\n    /* \"#utility.yul\":1019:1174   */\n  swap2\n  pop\n    /* \"#utility.yul\":1191:1194   */\n  dup2\n    /* \"#utility.yul\":1184:1194   */\n  swap1\n  pop\n    /* \"#utility.yul\":819:1200   */\n  swap2\n  swap1\n  pop\n  jump\t// out\n    /* \"#utility.yul\":1206:1587   */\ntag_9:\n    /* \"#utility.yul\":1391:1394   */\n  0x00\n    /* \"#utility.yul\":1413:1561   */\n  tag_38\n    /* \"#utility.yul\":1557:1560   */\n  dup3\n    /* \"#utility.yul\":1413:1561   */\n  tag_30\n  jump\t// in\ntag_38:\n    /* \"#utility.yul\":1406:1561   */\n  swap2\n  pop\n    /* \"#utility.yul\":1578:1581   */\n  dup2\n    /* \"#utility.yul\":1571:1581   */\n  swap1\n  pop\n    /* \"#utility.yul\":1206:1587   */\n  swap2\n  swap1\n  pop\n  jump\t// out\n    /* \"#utility.yul\":1593:1741   */\ntag_27:\n    /* \"#utility.yul\":1695:1706   */\n  0x00\n    /* \"#utility.yul\":1732:1735   */\n  dup2\n    /* \"#utility.yul\":1717:1735   */\n  swap1\n  pop\n    /* \"#utility.yul\":1593:1741   */\n  swap3\n  swap2\n  pop\n  pop\n  jump\t// out\n    /* \"#utility.yul\":1747:2067   */\ntag_13:\n    /* \"#utility.yul\":1791:1797   */\n  0x00\n    /* \"#utility.yul\":1828:1829   */\n  0x02\n    /* \"#utility.yul\":1822:1826   */\n  dup3\n    /* \"#utility.yul\":1818:1830   */\n  div\n    /* \"#utility.yul\":1808:1830   */\n  swap1\n  pop\n    /* \"#utility.yul\":1875:1876   */\n  0x01\n    /* \"#utility.yul\":1869:1873   */\n  dup3\n    /* \"#utility.yul\":1865:1877   */\n  and\n    /* \"#utility.yul\":1896:1914   */\n  dup1\n    /* \"#utility.yul\":1886:1967   */\n  tag_41\n  jumpi\n    /* \"#utility.yul\":1952:1956   */\n  0x7f\n    /* \"#utility.yul\":1944:1950   */\n  dup3\n    /* \"#utility.yul\":1940:1957   */\n  and\n    /* \"#utility.yul\":1930:1957   */\n  swap2\n  pop\n    /* \"#utility.yul\":1886:1967   */\ntag_41:\n    /* \"#utility.yul\":2014:2016   */\n  0x20\n    /* \"#utility.yul\":2006:2012   */\n  dup3\n    /* \"#utility.yul\":2003:2017   */\n  lt\n    /* \"#utility.yul\":1983:2001   */\n  dup2\n    /* \"#utility.yul\":1980:2018   */\n  eq\n    /* \"#utility.yul\":1977:2061   */\n  iszero\n  tag_42\n  jumpi\n    /* \"#utility.yul\":2033:2051   */\n  tag_43\n  tag_44\n  jump\t// in\ntag_43:\n    /* \"#utility.yul\":1977:2061   */\ntag_42:\n    /* \"#utility.yul\":1798:2067   */\n  pop\n    /* \"#utility.yul\":1747:2067   */\n  swap2\n  swap1\n  pop\n  jump\t// out\n    /* \"#utility.yul\":2073:2253   */\ntag_44:\n    /* \"#utility.yul\":2121:2198   */\n  0x4e487b7100000000000000000000000000000000000000000000000000000000\n    /* \"#utility.yul\":2118:2119   */\n  0x00\n    /* \"#utility.yul\":2111:2199   */\n  mstore\n    /* \"#utility.yul\":2218:2222   */\n  0x22\n    /* \"#utility.yul\":2215:2216   */\n  0x04\n    /* \"#utility.yul\":2208:2223   */\n  mstore\n    /* \"#utility.yul\":2242:2246   */\n  0x24\n    /* \"#utility.yul\":2239:2240   */\n  0x00\n    /* \"#utility.yul\":2232:2247   */\n  revert\n    /* \"#utility.yul\":2259:2413   */\ntag_29:\n    /* \"#utility.yul\":2399:2405   */\n  0x746f6e7900000000000000000000000000000000000000000000000000000000\n    /* \"#utility.yul\":2395:2396   */\n  0x00\n    /* \"#utility.yul\":2387:2393   */\n  dup3\n    /* \"#utility.yul\":2383:2397   */\n  add\n    /* \"#utility.yul\":2376:2406   */\n  mstore\n    /* \"#utility.yul\":2259:2413   */\n  pop\n  jump\t// out\n    /* \"#utility.yul\":2419:2572   */\ntag_34:\n    /* \"#utility.yul\":2559:2564   */\n  0x616e6e0000000000000000000000000000000000000000000000000000000000\n    /* \"#utility.yul\":2555:2556   */\n  0x00\n    /* \"#utility.yul\":2547:2553   */\n  dup3\n    /* \"#utility.yul\":2543:2557   */\n  add\n    /* \"#utility.yul\":2536:2565   */\n  mstore\n    /* \"#utility.yul\":2419:2572   */\n  pop\n  jump\t// out\n    /* \"mokkozi/week3/mapping.sol\":69:381  contract MappingTest... */\ntag_11:\n  dataSize(sub_0)\n  dup1\n  dataOffset(sub_0)\n  0x00\n  codecopy\n  0x00\n  return\nstop\n\nsub_0: assembly {\n        /* \"mokkozi/week3/mapping.sol\":69:381  contract MappingTest... */\n      mstore(0x40, 0x80)\n      callvalue\n      dup1\n      iszero\n      tag_1\n      jumpi\n      0x00\n      dup1\n      revert\n    tag_1:\n      pop\n      jumpi(tag_2, lt(calldatasize, 0x04))\n      shr(0xe0, calldataload(0x00))\n      dup1\n      0x1ca260ac\n      eq\n      tag_3\n      jumpi\n    tag_2:\n      0x00\n      dup1\n      revert\n        /* \"mokkozi/week3/mapping.sol\":280:379  function getPhoneNumber(string memory name) public view returns(string memory)... */\n    tag_3:\n      tag_4\n      0x04\n      dup1\n      calldatasize\n      sub\n      dup2\n      add\n      swap1\n      tag_5\n      swap2\n      swap1\n      tag_6\n      jump\t// in\n    tag_5:\n      tag_7\n      jump\t// in\n    tag_4:\n      mload(0x40)\n      tag_8\n      swap2\n      swap1\n      tag_9\n      jump\t// in\n    tag_8:\n      mload(0x40)\n      dup1\n      swap2\n      sub\n      swap1\n      return\n    tag_7:\n        /* \"mokkozi/week3/mapping.sol\":344:357  string memory */\n      0x60\n        /* \"mokkozi/week3/mapping.sol\":280:379  function getPhoneNumber(string memory name) public view returns(string memory)... */\n      swap2\n      swap1\n      pop\n      jump\t// out\n        /* \"#utility.yul\":7:419   */\n    tag_12:\n        /* \"#utility.yul\":85:90   */\n      0x00\n        /* \"#utility.yul\":110:176   */\n      tag_14\n        /* \"#utility.yul\":126:175   */\n      tag_15\n        /* \"#utility.yul\":168:174   */\n      dup5\n        /* \"#utility.yul\":126:175   */\n      tag_16\n      jump\t// in\n    tag_15:\n        /* \"#utility.yul\":110:176   */\n      tag_17\n      jump\t// in\n    tag_14:\n        /* \"#utility.yul\":101:176   */\n      swap1\n      pop\n        /* \"#utility.yul\":199:205   */\n      dup3\n        /* \"#utility.yul\":192:197   */\n      dup2\n        /* \"#utility.yul\":185:206   */\n      mstore\n        /* \"#utility.yul\":237:241   */\n      0x20\n        /* \"#utility.yul\":230:235   */\n      dup2\n        /* \"#utility.yul\":226:242   */\n      add\n        /* \"#utility.yul\":275:278   */\n      dup5\n        /* \"#utility.yul\":266:272   */\n      dup5\n        /* \"#utility.yul\":261:264   */\n      dup5\n        /* \"#utility.yul\":257:273   */\n      add\n        /* \"#utility.yul\":254:279   */\n      gt\n        /* \"#utility.yul\":251:363   */\n      iszero\n      tag_18\n      jumpi\n        /* \"#utility.yul\":282:361   */\n      tag_19\n      tag_20\n      jump\t// in\n    tag_19:\n        /* \"#utility.yul\":251:363   */\n    tag_18:\n        /* \"#utility.yul\":372:413   */\n      tag_21\n        /* \"#utility.yul\":406:412   */\n      dup5\n        /* \"#utility.yul\":401:404   */\n      dup3\n        /* \"#utility.yul\":396:399   */\n      dup6\n        /* \"#utility.yul\":372:413   */\n      tag_22\n      jump\t// in\n    tag_21:\n        /* \"#utility.yul\":91:419   */\n      pop\n        /* \"#utility.yul\":7:419   */\n      swap4\n      swap3\n      pop\n      pop\n      pop\n      jump\t// out\n        /* \"#utility.yul\":439:779   */\n    tag_23:\n        /* \"#utility.yul\":495:500   */\n      0x00\n        /* \"#utility.yul\":544:547   */\n      dup3\n        /* \"#utility.yul\":537:541   */\n      0x1f\n        /* \"#utility.yul\":529:535   */\n      dup4\n        /* \"#utility.yul\":525:542   */\n      add\n        /* \"#utility.yul\":521:548   */\n      slt\n        /* \"#utility.yul\":511:633   */\n      tag_25\n      jumpi\n        /* \"#utility.yul\":552:631   */\n      tag_26\n      tag_27\n      jump\t// in\n    tag_26:\n        /* \"#utility.yul\":511:633   */\n    tag_25:\n        /* \"#utility.yul\":669:675   */\n      dup2\n        /* \"#utility.yul\":656:676   */\n      calldataload\n        /* \"#utility.yul\":694:773   */\n      tag_28\n        /* \"#utility.yul\":769:772   */\n      dup5\n        /* \"#utility.yul\":761:767   */\n      dup3\n        /* \"#utility.yul\":754:758   */\n      0x20\n        /* \"#utility.yul\":746:752   */\n      dup7\n        /* \"#utility.yul\":742:759   */\n      add\n        /* \"#utility.yul\":694:773   */\n      tag_12\n      jump\t// in\n    tag_28:\n        /* \"#utility.yul\":685:773   */\n      swap2\n      pop\n        /* \"#utility.yul\":501:779   */\n      pop\n        /* \"#utility.yul\":439:779   */\n      swap3\n      swap2\n      pop\n      pop\n      jump\t// out\n        /* \"#utility.yul\":785:1294   */\n    tag_6:\n        /* \"#utility.yul\":854:860   */\n      0x00\n        /* \"#utility.yul\":903:905   */\n      0x20\n        /* \"#utility.yul\":891:900   */\n      dup3\n        /* \"#utility.yul\":882:889   */\n      dup5\n        /* \"#utility.yul\":878:901   */\n      sub\n        /* \"#utility.yul\":874:906   */\n      slt\n        /* \"#utility.yul\":871:990   */\n      iszero\n      tag_30\n      jumpi\n        /* \"#utility.yul\":909:988   */\n      tag_31\n      tag_32\n      jump\t// in\n    tag_31:\n        /* \"#utility.yul\":871:990   */\n    tag_30:\n        /* \"#utility.yul\":1057:1058   */\n      0x00\n        /* \"#utility.yul\":1046:1055   */\n      dup3\n        /* \"#utility.yul\":1042:1059   */\n      add\n        /* \"#utility.yul\":1029:1060   */\n      calldataload\n        /* \"#utility.yul\":1087:1105   */\n      0xffffffffffffffff\n        /* \"#utility.yul\":1079:1085   */\n      dup2\n        /* \"#utility.yul\":1076:1106   */\n      gt\n        /* \"#utility.yul\":1073:1190   */\n      iszero\n      tag_33\n      jumpi\n        /* \"#utility.yul\":1109:1188   */\n      tag_34\n      tag_35\n      jump\t// in\n    tag_34:\n        /* \"#utility.yul\":1073:1190   */\n    tag_33:\n        /* \"#utility.yul\":1214:1277   */\n      tag_36\n        /* \"#utility.yul\":1269:1276   */\n      dup5\n        /* \"#utility.yul\":1260:1266   */\n      dup3\n        /* \"#utility.yul\":1249:1258   */\n      dup6\n        /* \"#utility.yul\":1245:1267   */\n      add\n        /* \"#utility.yul\":1214:1277   */\n      tag_23\n      jump\t// in\n    tag_36:\n        /* \"#utility.yul\":1204:1277   */\n      swap2\n      pop\n        /* \"#utility.yul\":1000:1287   */\n      pop\n        /* \"#utility.yul\":785:1294   */\n      swap3\n      swap2\n      pop\n      pop\n      jump\t// out\n        /* \"#utility.yul\":1300:1664   */\n    tag_37:\n        /* \"#utility.yul\":1388:1391   */\n      0x00\n        /* \"#utility.yul\":1416:1455   */\n      tag_39\n        /* \"#utility.yul\":1449:1454   */\n      dup3\n        /* \"#utility.yul\":1416:1455   */\n      tag_40\n      jump\t// in\n    tag_39:\n        /* \"#utility.yul\":1471:1542   */\n      tag_41\n        /* \"#utility.yul\":1535:1541   */\n      dup2\n        /* \"#utility.yul\":1530:1533   */\n      dup6\n        /* \"#utility.yul\":1471:1542   */\n      tag_42\n      jump\t// in\n    tag_41:\n        /* \"#utility.yul\":1464:1542   */\n      swap4\n      pop\n        /* \"#utility.yul\":1551:1603   */\n      tag_43\n        /* \"#utility.yul\":1596:1602   */\n      dup2\n        /* \"#utility.yul\":1591:1594   */\n      dup6\n        /* \"#utility.yul\":1584:1588   */\n      0x20\n        /* \"#utility.yul\":1577:1582   */\n      dup7\n        /* \"#utility.yul\":1573:1589   */\n      add\n        /* \"#utility.yul\":1551:1603   */\n      tag_44\n      jump\t// in\n    tag_43:\n        /* \"#utility.yul\":1628:1657   */\n      tag_45\n        /* \"#utility.yul\":1650:1656   */\n      dup2\n        /* \"#utility.yul\":1628:1657   */\n      tag_46\n      jump\t// in\n    tag_45:\n        /* \"#utility.yul\":1623:1626   */\n      dup5\n        /* \"#utility.yul\":1619:1658   */\n      add\n        /* \"#utility.yul\":1612:1658   */\n      swap2\n      pop\n        /* \"#utility.yul\":1392:1664   */\n      pop\n        /* \"#utility.yul\":1300:1664   */\n      swap3\n      swap2\n      pop\n      pop\n      jump\t// out\n        /* \"#utility.yul\":1670:1983   */\n    tag_9:\n        /* \"#utility.yul\":1783:1787   */\n      0x00\n        /* \"#utility.yul\":1821:1823   */\n      0x20\n        /* \"#utility.yul\":1810:1819   */\n      dup3\n        /* \"#utility.yul\":1806:1824   */\n      add\n        /* \"#utility.yul\":1798:1824   */\n      swap1\n      pop\n        /* \"#utility.yul\":1870:1879   */\n      dup2\n        /* \"#utility.yul\":1864:1868   */\n      dup2\n        /* \"#utility.yul\":1860:1880   */\n      sub\n        /* \"#utility.yul\":1856:1857   */\n      0x00\n        /* \"#utility.yul\":1845:1854   */\n      dup4\n        /* \"#utility.yul\":1841:1858   */\n      add\n        /* \"#utility.yul\":1834:1881   */\n      mstore\n        /* \"#utility.yul\":1898:1976   */\n      tag_48\n        /* \"#utility.yul\":1971:1975   */\n      dup2\n        /* \"#utility.yul\":1962:1968   */\n      dup5\n        /* \"#utility.yul\":1898:1976   */\n      tag_37\n      jump\t// in\n    tag_48:\n        /* \"#utility.yul\":1890:1976   */\n      swap1\n      pop\n        /* \"#utility.yul\":1670:1983   */\n      swap3\n      swap2\n      pop\n      pop\n      jump\t// out\n        /* \"#utility.yul\":1989:2118   */\n    tag_17:\n        /* \"#utility.yul\":2023:2029   */\n      0x00\n        /* \"#utility.yul\":2050:2070   */\n      tag_50\n      tag_51\n      jump\t// in\n    tag_50:\n        /* \"#utility.yul\":2040:2070   */\n      swap1\n      pop\n        /* \"#utility.yul\":2079:2112   */\n      tag_52\n        /* \"#utility.yul\":2107:2111   */\n      dup3\n        /* \"#utility.yul\":2099:2105   */\n      dup3\n        /* \"#utility.yul\":2079:2112   */\n      tag_53\n      jump\t// in\n    tag_52:\n        /* \"#utility.yul\":1989:2118   */\n      swap2\n      swap1\n      pop\n      jump\t// out\n        /* \"#utility.yul\":2124:2199   */\n    tag_51:\n        /* \"#utility.yul\":2157:2163   */\n      0x00\n        /* \"#utility.yul\":2190:2192   */\n      0x40\n        /* \"#utility.yul\":2184:2193   */\n      mload\n        /* \"#utility.yul\":2174:2193   */\n      swap1\n      pop\n        /* \"#utility.yul\":2124:2199   */\n      swap1\n      jump\t// out\n        /* \"#utility.yul\":2205:2513   */\n    tag_16:\n        /* \"#utility.yul\":2267:2271   */\n      0x00\n        /* \"#utility.yul\":2357:2375   */\n      0xffffffffffffffff\n        /* \"#utility.yul\":2349:2355   */\n      dup3\n        /* \"#utility.yul\":2346:2376   */\n      gt\n        /* \"#utility.yul\":2343:2399   */\n      iszero\n      tag_56\n      jumpi\n        /* \"#utility.yul\":2379:2397   */\n      tag_57\n      tag_58\n      jump\t// in\n    tag_57:\n        /* \"#utility.yul\":2343:2399   */\n    tag_56:\n        /* \"#utility.yul\":2417:2446   */\n      tag_59\n        /* \"#utility.yul\":2439:2445   */\n      dup3\n        /* \"#utility.yul\":2417:2446   */\n      tag_46\n      jump\t// in\n    tag_59:\n        /* \"#utility.yul\":2409:2446   */\n      swap1\n      pop\n        /* \"#utility.yul\":2501:2505   */\n      0x20\n        /* \"#utility.yul\":2495:2499   */\n      dup2\n        /* \"#utility.yul\":2491:2506   */\n      add\n        /* \"#utility.yul\":2483:2506   */\n      swap1\n      pop\n        /* \"#utility.yul\":2205:2513   */\n      swap2\n      swap1\n      pop\n      jump\t// out\n        /* \"#utility.yul\":2519:2618   */\n    tag_40:\n        /* \"#utility.yul\":2571:2577   */\n      0x00\n        /* \"#utility.yul\":2605:2610   */\n      dup2\n        /* \"#utility.yul\":2599:2611   */\n      mload\n        /* \"#utility.yul\":2589:2611   */\n      swap1\n      pop\n        /* \"#utility.yul\":2519:2618   */\n      swap2\n      swap1\n      pop\n      jump\t// out\n        /* \"#utility.yul\":2624:2793   */\n    tag_42:\n        /* \"#utility.yul\":2708:2719   */\n      0x00\n        /* \"#utility.yul\":2742:2748   */\n      dup3\n        /* \"#utility.yul\":2737:2740   */\n      dup3\n        /* \"#utility.yul\":2730:2749   */\n      mstore\n        /* \"#utility.yul\":2782:2786   */\n      0x20\n        /* \"#utility.yul\":2777:2780   */\n      dup3\n        /* \"#utility.yul\":2773:2787   */\n      add\n        /* \"#utility.yul\":2758:2787   */\n      swap1\n      pop\n        /* \"#utility.yul\":2624:2793   */\n      swap3\n      swap2\n      pop\n      pop\n      jump\t// out\n        /* \"#utility.yul\":2799:2953   */\n    tag_22:\n        /* \"#utility.yul\":2883:2889   */\n      dup3\n        /* \"#utility.yul\":2878:2881   */\n      dup2\n        /* \"#utility.yul\":2873:2876   */\n      dup4\n        /* \"#utility.yul\":2860:2890   */\n      calldatacopy\n        /* \"#utility.yul\":2945:2946   */\n      0x00\n        /* \"#utility.yul\":2936:2942   */\n      dup4\n        /* \"#utility.yul\":2931:2934   */\n      dup4\n        /* \"#utility.yul\":2927:2943   */\n      add\n        /* \"#utility.yul\":2920:2947   */\n      mstore\n        /* \"#utility.yul\":2799:2953   */\n      pop\n      pop\n      pop\n      jump\t// out\n        /* \"#utility.yul\":2959:3266   */\n    tag_44:\n        /* \"#utility.yul\":3027:3028   */\n      0x00\n        /* \"#utility.yul\":3037:3150   */\n    tag_64:\n        /* \"#utility.yul\":3051:3057   */\n      dup4\n        /* \"#utility.yul\":3048:3049   */\n      dup2\n        /* \"#utility.yul\":3045:3058   */\n      lt\n        /* \"#utility.yul\":3037:3150   */\n      iszero\n      tag_66\n      jumpi\n        /* \"#utility.yul\":3136:3137   */\n      dup1\n        /* \"#utility.yul\":3131:3134   */\n      dup3\n        /* \"#utility.yul\":3127:3138   */\n      add\n        /* \"#utility.yul\":3121:3139   */\n      mload\n        /* \"#utility.yul\":3117:3118   */\n      dup2\n        /* \"#utility.yul\":3112:3115   */\n      dup5\n        /* \"#utility.yul\":3108:3119   */\n      add\n        /* \"#utility.yul\":3101:3140   */\n      mstore\n        /* \"#utility.yul\":3073:3075   */\n      0x20\n        /* \"#utility.yul\":3070:3071   */\n      dup2\n        /* \"#utility.yul\":3066:3076   */\n      add\n        /* \"#utility.yul\":3061:3076   */\n      swap1\n      pop\n        /* \"#utility.yul\":3037:3150   */\n      jump(tag_64)\n    tag_66:\n        /* \"#utility.yul\":3168:3174   */\n      dup4\n        /* \"#utility.yul\":3165:3166   */\n      dup2\n        /* \"#utility.yul\":3162:3175   */\n      gt\n        /* \"#utility.yul\":3159:3260   */\n      iszero\n      tag_67\n      jumpi\n        /* \"#utility.yul\":3248:3249   */\n      0x00\n        /* \"#utility.yul\":3239:3245   */\n      dup5\n        /* \"#utility.yul\":3234:3237   */\n      dup5\n        /* \"#utility.yul\":3230:3246   */\n      add\n        /* \"#utility.yul\":3223:3250   */\n      mstore\n        /* \"#utility.yul\":3159:3260   */\n    tag_67:\n        /* \"#utility.yul\":3008:3266   */\n      pop\n        /* \"#utility.yul\":2959:3266   */\n      pop\n      pop\n      pop\n      jump\t// out\n        /* \"#utility.yul\":3272:3553   */\n    tag_53:\n        /* \"#utility.yul\":3355:3382   */\n      tag_69\n        /* \"#utility.yul\":3377:3381   */\n      dup3\n        /* \"#utility.yul\":3355:3382   */\n      tag_46\n      jump\t// in\n    tag_69:\n        /* \"#utility.yul\":3347:3353   */\n      dup2\n        /* \"#utility.yul\":3343:3383   */\n      add\n        /* \"#utility.yul\":3485:3491   */\n      dup2\n        /* \"#utility.yul\":3473:3483   */\n      dup2\n        /* \"#utility.yul\":3470:3492   */\n      lt\n        /* \"#utility.yul\":3449:3467   */\n      0xffffffffffffffff\n        /* \"#utility.yul\":3437:3447   */\n      dup3\n        /* \"#utility.yul\":3434:3468   */\n      gt\n        /* \"#utility.yul\":3431:3493   */\n      or\n        /* \"#utility.yul\":3428:3516   */\n      iszero\n      tag_70\n      jumpi\n        /* \"#utility.yul\":3496:3514   */\n      tag_71\n      tag_58\n      jump\t// in\n    tag_71:\n        /* \"#utility.yul\":3428:3516   */\n    tag_70:\n        /* \"#utility.yul\":3536:3546   */\n      dup1\n        /* \"#utility.yul\":3532:3534   */\n      0x40\n        /* \"#utility.yul\":3525:3547   */\n      mstore\n        /* \"#utility.yul\":3315:3553   */\n      pop\n        /* \"#utility.yul\":3272:3553   */\n      pop\n      pop\n      jump\t// out\n        /* \"#utility.yul\":3559:3739   */\n    tag_58:\n        /* \"#utility.yul\":3607:3684   */\n      0x4e487b7100000000000000000000000000000000000000000000000000000000\n        /* \"#utility.yul\":3604:3605   */\n      0x00\n        /* \"#utility.yul\":3597:3685   */\n      mstore\n        /* \"#utility.yul\":3704:3708   */\n      0x41\n        /* \"#utility.yul\":3701:3702   */\n      0x04\n        /* \"#utility.yul\":3694:3709   */\n      mstore\n        /* \"#utility.yul\":3728:3732   */\n      0x24\n        /* \"#utility.yul\":3725:3726   */\n      0x00\n        /* \"#utility.yul\":3718:3733   */\n      revert\n        /* \"#utility.yul\":3745:3862   */\n    tag_27:\n        /* \"#utility.yul\":3854:3855   */\n      0x00\n        /* \"#utility.yul\":3851:3852   */\n      dup1\n        /* \"#utility.yul\":3844:3856   */\n      revert\n        /* \"#utility.yul\":3868:3985   */\n    tag_20:\n        /* \"#utility.yul\":3977:3978   */\n      0x00\n        /* \"#utility.yul\":3974:3975   */\n      dup1\n        /* \"#utility.yul\":3967:3979   */\n      revert\n        /* \"#utility.yul\":3991:4108   */\n    tag_35:\n        /* \"#utility.yul\":4100:4101   */\n      0x00\n        /* \"#utility.yul\":4097:4098   */\n      dup1\n        /* \"#utility.yul\":4090:4102   */\n      revert\n        /* \"#utility.yul\":4114:4231   */\n    tag_32:\n        /* \"#utility.yul\":4223:4224   */\n      0x00\n        /* \"#utility.yul\":4220:4221   */\n      dup1\n        /* \"#utility.yul\":4213:4225   */\n      revert\n        /* \"#utility.yul\":4237:4339   */\n    tag_46:\n        /* \"#utility.yul\":4278:4284   */\n      0x00\n        /* \"#utility.yul\":4329:4331   */\n      0x1f\n        /* \"#utility.yul\":4325:4332   */\n      not\n        /* \"#utility.yul\":4320:4322   */\n      0x1f\n        /* \"#utility.yul\":4313:4318   */\n      dup4\n        /* \"#utility.yul\":4309:4323   */\n      add\n        /* \"#utility.yul\":4305:4333   */\n      and\n        /* \"#utility.yul\":4295:4333   */\n      swap1\n      pop\n        /* \"#utility.yul\":4237:4339   */\n      swap2\n      swap1\n      pop\n      jump\t// out\n\n    auxdata: 0xa26469706673582212203c8cb9e444ccc24a2ea951ab147cf2e6321f6bfe640da35f7b4369c8319f906264736f6c63430008070033\n}\n",
				"bytecode": {
					"linkReferences": {},
					"object": "608060405234801561001057600080fd5b506040518060400160405280600d81526020017f3031302d303030302d37343134000000000000000000000000000000000000008152506000604051610055906101cb565b908152602001604051809103902090805190602001906100769291906100e2565b506040518060400160405280600d81526020017f3031302d313233342d313233340000000000000000000000000000000000000081525060006040516100bb906101e0565b908152602001604051809103902090805190602001906100dc9291906100e2565b506102b3565b8280546100ee90610200565b90600052602060002090601f0160209004810192826101105760008555610157565b82601f1061012957805160ff1916838001178555610157565b82800160010185558215610157579182015b8281111561015657825182559160200191906001019061013b565b5b5090506101649190610168565b5090565b5b80821115610181576000816000905550600101610169565b5090565b60006101926004836101f5565b915061019d82610261565b600482019050919050565b60006101b56003836101f5565b91506101c08261028a565b600382019050919050565b60006101d682610185565b9150819050919050565b60006101eb826101a8565b9150819050919050565b600081905092915050565b6000600282049050600182168061021857607f821691505b6020821081141561022c5761022b610232565b5b50919050565b7f4e487b7100000000000000000000000000000000000000000000000000000000600052602260045260246000fd5b7f746f6e7900000000000000000000000000000000000000000000000000000000600082015250565b7f616e6e0000000000000000000000000000000000000000000000000000000000600082015250565b6102ea806102c26000396000f3fe608060405234801561001057600080fd5b506004361061002b5760003560e01c80631ca260ac14610030575b600080fd5b61004a600480360381019061004591906100d7565b610060565b6040516100579190610159565b60405180910390f35b6060919050565b600061007a610075846101a0565b61017b565b90508281526020810184848401111561009657610095610294565b5b6100a18482856101ed565b509392505050565b600082601f8301126100be576100bd61028f565b5b81356100ce848260208601610067565b91505092915050565b6000602082840312156100ed576100ec61029e565b5b600082013567ffffffffffffffff81111561010b5761010a610299565b5b610117848285016100a9565b91505092915050565b600061012b826101d1565b61013581856101dc565b93506101458185602086016101fc565b61014e816102a3565b840191505092915050565b600060208201905081810360008301526101738184610120565b905092915050565b6000610185610196565b9050610191828261022f565b919050565b6000604051905090565b600067ffffffffffffffff8211156101bb576101ba610260565b5b6101c4826102a3565b9050602081019050919050565b600081519050919050565b600082825260208201905092915050565b82818337600083830152505050565b60005b8381101561021a5780820151818401526020810190506101ff565b83811115610229576000848401525b50505050565b610238826102a3565b810181811067ffffffffffffffff8211171561025757610256610260565b5b80604052505050565b7f4e487b7100000000000000000000000000000000000000000000000000000000600052604160045260246000fd5b600080fd5b600080fd5b600080fd5b600080fd5b6000601f19601f830116905091905056fea26469706673582212203c8cb9e444ccc24a2ea951ab147cf2e6321f6bfe640da35f7b4369c8319f906264736f6c63430008070033",
					"opcodes": "PUSH1 0x80 PUSH1 0x40 MSTORE CALLVALUE DUP1 ISZERO PUSH2 0x10 JUMPI PUSH1 0x0 DUP1 REVERT JUMPDEST POP PUSH1 0x40 MLOAD DUP1 PUSH1 0x40 ADD PUSH1 0x40 MSTORE DUP1 PUSH1 0xD DUP2 MSTORE PUSH1 0x20 ADD PUSH32 0x3031302D303030302D3734313400000000000000000000000000000000000000 DUP2 MSTORE POP PUSH1 0x0 PUSH1 0x40 MLOAD PUSH2 0x55 SWAP1 PUSH2 0x1CB JUMP JUMPDEST SWAP1 DUP2 MSTORE PUSH1 0x20 ADD PUSH1 0x40 MLOAD DUP1 SWAP2 SUB SWAP1 KECCAK256 SWAP1 DUP1 MLOAD SWAP1 PUSH1 0x20 ADD SWAP1 PUSH2 0x76 SWAP3 SWAP2 SWAP1 PUSH2 0xE2 JUMP JUMPDEST POP PUSH1 0x40 MLOAD DUP1 PUSH1 0x40 ADD PUSH1 0x40 MSTORE DUP1 PUSH1 0xD DUP2 MSTORE PUSH1 0x20 ADD PUSH32 0x3031302D313233342D3132333400000000000000000000000000000000000000 DUP2 MSTORE POP PUSH1 0x0 PUSH1 0x40 MLOAD PUSH2 0xBB SWAP1 PUSH2 0x1E0 JUMP JUMPDEST SWAP1 DUP2 MSTORE PUSH1 0x20 ADD PUSH1 0x40 MLOAD DUP1 SWAP2 SUB SWAP1 KECCAK256 SWAP1 DUP1 MLOAD SWAP1 PUSH1 0x20 ADD SWAP1 PUSH2 0xDC SWAP3 SWAP2 SWAP1 PUSH2 0xE2 JUMP JUMPDEST POP PUSH2 0x2B3 JUMP JUMPDEST DUP3 DUP1 SLOAD PUSH2 0xEE SWAP1 PUSH2 0x200 JUMP JUMPDEST SWAP1 PUSH1 0x0 MSTORE PUSH1 0x20 PUSH1 0x0 KECCAK256 SWAP1 PUSH1 0x1F ADD PUSH1 0x20 SWAP1 DIV DUP2 ADD SWAP3 DUP3 PUSH2 0x110 JUMPI PUSH1 0x0 DUP6 SSTORE PUSH2 0x157 JUMP JUMPDEST DUP3 PUSH1 0x1F LT PUSH2 0x129 JUMPI DUP1 MLOAD PUSH1 0xFF NOT AND DUP4 DUP1 ADD OR DUP6 SSTORE PUSH2 0x157 JUMP JUMPDEST DUP3 DUP1 ADD PUSH1 0x1 ADD DUP6 SSTORE DUP3 ISZERO PUSH2 0x157 JUMPI SWAP2 DUP3 ADD JUMPDEST DUP3 DUP2 GT ISZERO PUSH2 0x156 JUMPI DUP3 MLOAD DUP3 SSTORE SWAP2 PUSH1 0x20 ADD SWAP2 SWAP1 PUSH1 0x1 ADD SWAP1 PUSH2 0x13B JUMP JUMPDEST JUMPDEST POP SWAP1 POP PUSH2 0x164 SWAP2 SWAP1 PUSH2 0x168 JUMP JUMPDEST POP SWAP1 JUMP JUMPDEST JUMPDEST DUP1 DUP3 GT ISZERO PUSH2 0x181 JUMPI PUSH1 0x0 DUP2 PUSH1 0x0 SWAP1 SSTORE POP PUSH1 0x1 ADD PUSH2 0x169 JUMP JUMPDEST POP SWAP1 JUMP JUMPDEST PUSH1 0x0 PUSH2 0x192 PUSH1 0x4 DUP4 PUSH2 0x1F5 JUMP JUMPDEST SWAP2 POP PUSH2 0x19D DUP3 PUSH2 0x261 JUMP JUMPDEST PUSH1 0x4 DUP3 ADD SWAP1 POP SWAP2 SWAP1 POP JUMP JUMPDEST PUSH1 0x0 PUSH2 0x1B5 PUSH1 0x3 DUP4 PUSH2 0x1F5 JUMP JUMPDEST SWAP2 POP PUSH2 0x1C0 DUP3 PUSH2 0x28A JUMP JUMPDEST PUSH1 0x3 DUP3 ADD SWAP1 POP SWAP2 SWAP1 POP JUMP JUMPDEST PUSH1 0x0 PUSH2 0x1D6 DUP3 PUSH2 0x185 JUMP JUMPDEST SWAP2 POP DUP2 SWAP1 POP SWAP2 SWAP1 POP JUMP JUMPDEST PUSH1 0x0 PUSH2 0x1EB DUP3 PUSH2 0x1A8 JUMP JUMPDEST SWAP2 POP DUP2 SWAP1 POP SWAP2 SWAP1 POP JUMP JUMPDEST PUSH1 0x0 DUP2 SWAP1 POP SWAP3 SWAP2 POP POP JUMP JUMPDEST PUSH1 0x0 PUSH1 0x2 DUP3 DIV SWAP1 POP PUSH1 0x1 DUP3 AND DUP1 PUSH2 0x218 JUMPI PUSH1 0x7F DUP3 AND SWAP2 POP JUMPDEST PUSH1 0x20 DUP3 LT DUP2 EQ ISZERO PUSH2 0x22C JUMPI PUSH2 0x22B PUSH2 0x232 JUMP JUMPDEST JUMPDEST POP SWAP2 SWAP1 POP JUMP JUMPDEST PUSH32 0x4E487B7100000000000000000000000000000000000000000000000000000000 PUSH1 0x0 MSTORE PUSH1 0x22 PUSH1 0x4 MSTORE PUSH1 0x24 PUSH1 0x0 REVERT JUMPDEST PUSH32 0x746F6E7900000000000000000000000000000000000000000000000000000000 PUSH1 0x0 DUP3 ADD MSTORE POP JUMP JUMPDEST PUSH32 0x616E6E0000000000000000000000000000000000000000000000000000000000 PUSH1 0x0 DUP3 ADD MSTORE POP JUMP JUMPDEST PUSH2 0x2EA DUP1 PUSH2 0x2C2 PUSH1 0x0 CODECOPY PUSH1 0x0 RETURN INVALID PUSH1 0x80 PUSH1 0x40 MSTORE CALLVALUE DUP1 ISZERO PUSH2 0x10 JUMPI PUSH1 0x0 DUP1 REVERT JUMPDEST POP PUSH1 0x4 CALLDATASIZE LT PUSH2 0x2B JUMPI PUSH1 0x0 CALLDATALOAD PUSH1 0xE0 SHR DUP1 PUSH4 0x1CA260AC EQ PUSH2 0x30 JUMPI JUMPDEST PUSH1 0x0 DUP1 REVERT JUMPDEST PUSH2 0x4A PUSH1 0x4 DUP1 CALLDATASIZE SUB DUP2 ADD SWAP1 PUSH2 0x45 SWAP2 SWAP1 PUSH2 0xD7 JUMP JUMPDEST PUSH2 0x60 JUMP JUMPDEST PUSH1 0x40 MLOAD PUSH2 0x57 SWAP2 SWAP1 PUSH2 0x159 JUMP JUMPDEST PUSH1 0x40 MLOAD DUP1 SWAP2 SUB SWAP1 RETURN JUMPDEST PUSH1 0x60 SWAP2 SWAP1 POP JUMP JUMPDEST PUSH1 0x0 PUSH2 0x7A PUSH2 0x75 DUP5 PUSH2 0x1A0 JUMP JUMPDEST PUSH2 0x17B JUMP JUMPDEST SWAP1 POP DUP3 DUP2 MSTORE PUSH1 0x20 DUP2 ADD DUP5 DUP5 DUP5 ADD GT ISZERO PUSH2 0x96 JUMPI PUSH2 0x95 PUSH2 0x294 JUMP JUMPDEST JUMPDEST PUSH2 0xA1 DUP5 DUP3 DUP6 PUSH2 0x1ED JUMP JUMPDEST POP SWAP4 SWAP3 POP POP POP JUMP JUMPDEST PUSH1 0x0 DUP3 PUSH1 0x1F DUP4 ADD SLT PUSH2 0xBE JUMPI PUSH2 0xBD PUSH2 0x28F JUMP JUMPDEST JUMPDEST DUP2 CALLDATALOAD PUSH2 0xCE DUP5 DUP3 PUSH1 0x20 DUP7 ADD PUSH2 0x67 JUMP JUMPDEST SWAP2 POP POP SWAP3 SWAP2 POP POP JUMP JUMPDEST PUSH1 0x0 PUSH1 0x20 DUP3 DUP5 SUB SLT ISZERO PUSH2 0xED JUMPI PUSH2 0xEC PUSH2 0x29E JUMP JUMPDEST JUMPDEST PUSH1 0x0 DUP3 ADD CALLDATALOAD PUSH8 0xFFFFFFFFFFFFFFFF DUP2 GT ISZERO PUSH2 0x10B JUMPI PUSH2 0x10A PUSH2 0x299 JUMP JUMPDEST JUMPDEST PUSH2 0x117 DUP5 DUP3 DUP6 ADD PUSH2 0xA9 JUMP JUMPDEST SWAP2 POP POP SWAP3 SWAP2 POP POP JUMP JUMPDEST PUSH1 0x0 PUSH2 0x12B DUP3 PUSH2 0x1D1 JUMP JUMPDEST PUSH2 0x135 DUP2 DUP6 PUSH2 0x1DC JUMP JUMPDEST SWAP4 POP PUSH2 0x145 DUP2 DUP6 PUSH1 0x20 DUP7 ADD PUSH2 0x1FC JUMP JUMPDEST PUSH2 0x14E DUP2 PUSH2 0x2A3 JUMP JUMPDEST DUP5 ADD SWAP2 POP POP SWAP3 SWAP2 POP POP JUMP JUMPDEST PUSH1 0x0 PUSH1 0x20 DUP3 ADD SWAP1 POP DUP2 DUP2 SUB PUSH1 0x0 DUP4 ADD MSTORE PUSH2 0x173 DUP2 DUP5 PUSH2 0x120 JUMP JUMPDEST SWAP1 POP SWAP3 SWAP2 POP POP JUMP JUMPDEST PUSH1 0x0 PUSH2 0x185 PUSH2 0x196 JUMP JUMPDEST SWAP1 POP PUSH2 0x191 DUP3 DUP3 PUSH2 0x22F JUMP JUMPDEST SWAP2 SWAP1 POP JUMP JUMPDEST PUSH1 0x0 PUSH1 0x40 MLOAD SWAP1 POP SWAP1 JUMP JUMPDEST PUSH1 0x0 PUSH8 0xFFFFFFFFFFFFFFFF DUP3 GT ISZERO PUSH2 0x1BB JUMPI PUSH2 0x1BA PUSH2 0x260 JUMP JUMPDEST JUMPDEST PUSH2 0x1C4 DUP3 PUSH2 0x2A3 JUMP JUMPDEST SWAP1 POP PUSH1 0x20 DUP2 ADD SWAP1 POP SWAP2 SWAP1 POP JUMP JUMPDEST PUSH1 0x0 DUP2 MLOAD SWAP1 POP SWAP2 SWAP1 POP JUMP JUMPDEST PUSH1 0x0 DUP3 DUP3 MSTORE PUSH1 0x20 DUP3 ADD SWAP1 POP SWAP3 SWAP2 POP POP JUMP JUMPDEST DUP3 DUP2 DUP4 CALLDATACOPY PUSH1 0x0 DUP4 DUP4 ADD MSTORE POP POP POP JUMP JUMPDEST PUSH1 0x0 JUMPDEST DUP4 DUP2 LT ISZERO PUSH2 0x21A JUMPI DUP1 DUP3 ADD MLOAD DUP2 DUP5 ADD MSTORE PUSH1 0x20 DUP2 ADD SWAP1 POP PUSH2 0x1FF JUMP JUMPDEST DUP4 DUP2 GT ISZERO PUSH2 0x229 JUMPI PUSH1 0x0 DUP5 DUP5 ADD MSTORE JUMPDEST POP POP POP POP JUMP JUMPDEST PUSH2 0x238 DUP3 PUSH2 0x2A3 JUMP JUMPDEST DUP2 ADD DUP2 DUP2 LT PUSH8 0xFFFFFFFFFFFFFFFF DUP3 GT OR ISZERO PUSH2 0x257 JUMPI PUSH2 0x256 PUSH2 0x260 JUMP JUMPDEST JUMPDEST DUP1 PUSH1 0x40 MSTORE POP POP POP JUMP JUMPDEST PUSH32 0x4E487B7100000000000000000000000000000000000000000000000000000000 PUSH1 0x0 MSTORE PUSH1 0x41 PUSH1 0x4 MSTORE PUSH1 0x24 PUSH1 0x0 REVERT JUMPDEST PUSH1 0x0 DUP1 REVERT JUMPDEST PUSH1 0x0 DUP1 REVERT JUMPDEST PUSH1 0x0 DUP1 REVERT JUMPDEST PUSH1 0x0 DUP1 REVERT JUMPDEST PUSH1 0x0 PUSH1 0x1F NOT PUSH1 0x1F DUP4 ADD AND SWAP1 POP SWAP2 SWAP1 POP JUMP INVALID LOG2 PUSH5 0x6970667358 0x22 SLT KECCAK256 EXTCODECOPY DUP13 0xB9 0xE4 DIFFICULTY 0xCC 0xC2 0x4A 0x2E 0xA9 MLOAD 0xAB EQ PUSH29 0xF2E6321F6BFE640DA35F7B4369C8319F906264736F6C63430008070033 "
				},
				"gasEstimates": {
					"creation": {
						"codeDepositCost": "149200",
						"executionCost": "infinite",
						"totalCost": "infinite"
					},
					"external": {
						"getPhoneNumber(string)": "infinite"
					}
				},
				"methodIdentifiers": {
					"getPhoneNumber(string)": "1ca260ac"
				}
			},
			"storageLayout": {
				"storage": [
					{
						"astId": 5,
						"contract": "mokkozi/week3/mapping.sol:MappingTest",
						"label": "phoneNumberByName",
						"offset": 0,
						"slot": "0",
						"type": "t_mapping(t_string_memory_ptr,t_string_storage)"
					}
				],
				"types": {
					"t_mapping(t_string_memory_ptr,t_string_storage)": {
						"encoding": "mapping",
						"key": "t_string_memory_ptr",
						"label": "mapping(string => string)",
						"numberOfBytes": "32",
						"value": "t_string_storage"
					},
					"t_string_memory_ptr": {
						"encoding": "bytes",
						"label": "string",
						"numberOfBytes": "32"
					},
					"t_string_storage": {
						"encoding": "bytes",
						"label": "string",
						"numberOfBytes": "32"
					}
				}
			},
			"userdoc": {
				"kind": "user",
				"methods": {},
				"version": 1
			}
		}
	}
}