{
	"mokkozi/week3/mapping.sol": {
		"MappingTest": {
			"abi": [
				{
					"inputs": [],
					"stateMutability": "nonpayable",
					"type": "constructor"
				},
				{
					"inputs": [
						{
							"internalType": "string",
							"name": "name",
							"type": "string"
						}
					],
					"name": "getPhoneNumber",
					"outputs": [
						{
							"internalType": "string",
							"name": "",
							"type": "string"
						}
					],
					"stateMutability": "view",
					"type": "function"
				}
			],
			"devdoc": {
				"kind": "dev",
				"methods": {},
				"version": 1
			},
			"evm": {
				"assembly": "    /* \"mokkozi/week3/mapping.sol\":69:414  contract MappingTest... */\n  mstore(0x40, 0x80)\n    /* \"mokkozi/week3/mapping.sol\":144:274  constructor()... */\n  callvalue\n  dup1\n  iszero\n  tag_1\n  jumpi\n  0x00\n  dup1\n  revert\ntag_1:\n  pop\n    /* \"mokkozi/week3/mapping.sol\":172:215  phoneNumberByName[\"tony\"] = \"010-0000-7414\" */\n  mload(0x40)\n  dup1\n  0x40\n  add\n  0x40\n  mstore\n  dup1\n  0x0d\n  dup2\n  mstore\n  0x20\n  add\n  0x3031302d303030302d3734313400000000000000000000000000000000000000\n  dup2\n  mstore\n  pop\n    /* \"mokkozi/week3/mapping.sol\":172:189  phoneNumberByName */\n  0x00\n    /* \"mokkozi/week3/mapping.sol\":172:197  phoneNumberByName[\"tony\"] */\n  mload(0x40)\n  tag_4\n  swap1\n  tag_5\n  jump\t// in\ntag_4:\n  swap1\n  dup2\n  mstore\n  0x20\n  add\n  mload(0x40)\n  dup1\n  swap2\n  sub\n  swap1\n  keccak256\n    /* \"mokkozi/week3/mapping.sol\":172:215  phoneNumberByName[\"tony\"] = \"010-0000-7414\" */\n  swap1\n  dup1\n  mload\n  swap1\n  0x20\n  add\n  swap1\n  tag_6\n  swap3\n  swap2\n  swap1\n  tag_7\n  jump\t// in\ntag_6:\n  pop\n    /* \"mokkozi/week3/mapping.sol\":225:267  phoneNumberByName[\"ann\"] = \"010-1234-1234\" */\n  mload(0x40)\n  dup1\n  0x40\n  add\n  0x40\n  mstore\n  dup1\n  0x0d\n  dup2\n  mstore\n  0x20\n  add\n  0x3031302d313233342d3132333400000000000000000000000000000000000000\n  dup2\n  mstore\n  pop\n    /* \"mokkozi/week3/mapping.sol\":225:242  phoneNumberByName */\n  0x00\n    /* \"mokkozi/week3/mapping.sol\":225:249  phoneNumberByName[\"ann\"] */\n  mload(0x40)\n  tag_8\n  swap1\n  tag_9\n  jump\t// in\ntag_8:\n  swap1\n  dup2\n  mstore\n  0x20\n  add\n  mload(0x40)\n  dup1\n  swap2\n  sub\n  swap1\n  keccak256\n    /* \"mokkozi/week3/mapping.sol\":225:267  phoneNumberByName[\"ann\"] = \"010-1234-1234\" */\n  swap1\n  dup1\n  mload\n  swap1\n  0x20\n  add\n  swap1\n  tag_10\n  swap3\n  swap2\n  swap1\n  tag_7\n  jump\t// in\ntag_10:\n  pop\n    /* \"mokkozi/week3/mapping.sol\":69:414  contract MappingTest... */\n  jump(tag_11)\ntag_7:\n  dup3\n  dup1\n  sload\n  tag_12\n  swap1\n  tag_13\n  jump\t// in\ntag_12:\n  swap1\n  0x00\n  mstore\n  keccak256(0x00, 0x20)\n  swap1\n  0x1f\n  add\n  0x20\n  swap1\n  div\n  dup2\n  add\n  swap3\n  dup3\n  tag_15\n  jumpi\n  0x00\n  dup6\n  sstore\n  jump(tag_14)\ntag_15:\n  dup3\n  0x1f\n  lt\n  tag_16\n  jumpi\n  dup1\n  mload\n  not(0xff)\n  and\n  dup4\n  dup1\n  add\n  or\n  dup6\n  sstore\n  jump(tag_14)\ntag_16:\n  dup3\n  dup1\n  add\n  0x01\n  add\n  dup6\n  sstore\n  dup3\n  iszero\n  tag_14\n  jumpi\n  swap2\n  dup3\n  add\ntag_17:\n  dup3\n  dup2\n  gt\n  iszero\n  tag_18\n  jumpi\n  dup3\n  mload\n  dup3\n  sstore\n  swap2\n  0x20\n  add\n  swap2\n  swap1\n  0x01\n  add\n  swap1\n  jump(tag_17)\ntag_18:\ntag_14:\n  pop\n  swap1\n  pop\n  tag_19\n  swap2\n  swap1\n  tag_20\n  jump\t// in\ntag_19:\n  pop\n  swap1\n  jump\t// out\ntag_20:\ntag_21:\n  dup1\n  dup3\n  gt\n  iszero\n  tag_22\n  jumpi\n  0x00\n  dup2\n  0x00\n  swap1\n  sstore\n  pop\n  0x01\n  add\n  jump(tag_21)\ntag_22:\n  pop\n  swap1\n  jump\t// out\n    /* \"#utility.yul\":7:407   */\ntag_24:\n    /* \"#utility.yul\":167:170   */\n  0x00\n    /* \"#utility.yul\":188:272   */\n  tag_26\n    /* \"#utility.yul\":270:271   */\n  0x04\n    /* \"#utility.yul\":265:268   */\n  dup4\n    /* \"#utility.yul\":188:272   */\n  tag_27\n  jump\t// in\ntag_26:\n    /* \"#utility.yul\":181:272   */\n  swap2\n  pop\n    /* \"#utility.yul\":281:374   */\n  tag_28\n    /* \"#utility.yul\":370:373   */\n  dup3\n    /* \"#utility.yul\":281:374   */\n  tag_29\n  jump\t// in\ntag_28:\n    /* \"#utility.yul\":399:400   */\n  0x04\n    /* \"#utility.yul\":394:397   */\n  dup3\n    /* \"#utility.yul\":390:401   */\n  add\n    /* \"#utility.yul\":383:401   */\n  swap1\n  pop\n    /* \"#utility.yul\":7:407   */\n  swap2\n  swap1\n  pop\n  jump\t// out\n    /* \"#utility.yul\":413:813   */\ntag_30:\n    /* \"#utility.yul\":573:576   */\n  0x00\n    /* \"#utility.yul\":594:678   */\n  tag_32\n    /* \"#utility.yul\":676:677   */\n  0x03\n    /* \"#utility.yul\":671:674   */\n  dup4\n    /* \"#utility.yul\":594:678   */\n  tag_27\n  jump\t// in\ntag_32:\n    /* \"#utility.yul\":587:678   */\n  swap2\n  pop\n    /* \"#utility.yul\":687:780   */\n  tag_33\n    /* \"#utility.yul\":776:779   */\n  dup3\n    /* \"#utility.yul\":687:780   */\n  tag_34\n  jump\t// in\ntag_33:\n    /* \"#utility.yul\":805:806   */\n  0x03\n    /* \"#utility.yul\":800:803   */\n  dup3\n    /* \"#utility.yul\":796:807   */\n  add\n    /* \"#utility.yul\":789:807   */\n  swap1\n  pop\n    /* \"#utility.yul\":413:813   */\n  swap2\n  swap1\n  pop\n  jump\t// out\n    /* \"#utility.yul\":819:1200   */\ntag_5:\n    /* \"#utility.yul\":1004:1007   */\n  0x00\n    /* \"#utility.yul\":1026:1174   */\n  tag_36\n    /* \"#utility.yul\":1170:1173   */\n  dup3\n    /* \"#utility.yul\":1026:1174   */\n  tag_24\n  jump\t// in\ntag_36:\n    /* \"#utility.yul\":1019:1174   */\n  swap2\n  pop\n    /* \"#utility.yul\":1191:1194   */\n  dup2\n    /* \"#utility.yul\":1184:1194   */\n  swap1\n  pop\n    /* \"#utility.yul\":819:1200   */\n  swap2\n  swap1\n  pop\n  jump\t// out\n    /* \"#utility.yul\":1206:1587   */\ntag_9:\n    /* \"#utility.yul\":1391:1394   */\n  0x00\n    /* \"#utility.yul\":1413:1561   */\n  tag_38\n    /* \"#utility.yul\":1557:1560   */\n  dup3\n    /* \"#utility.yul\":1413:1561   */\n  tag_30\n  jump\t// in\ntag_38:\n    /* \"#utility.yul\":1406:1561   */\n  swap2\n  pop\n    /* \"#utility.yul\":1578:1581   */\n  dup2\n    /* \"#utility.yul\":1571:1581   */\n  swap1\n  pop\n    /* \"#utility.yul\":1206:1587   */\n  swap2\n  swap1\n  pop\n  jump\t// out\n    /* \"#utility.yul\":1593:1741   */\ntag_27:\n    /* \"#utility.yul\":1695:1706   */\n  0x00\n    /* \"#utility.yul\":1732:1735   */\n  dup2\n    /* \"#utility.yul\":1717:1735   */\n  swap1\n  pop\n    /* \"#utility.yul\":1593:1741   */\n  swap3\n  swap2\n  pop\n  pop\n  jump\t// out\n    /* \"#utility.yul\":1747:2067   */\ntag_13:\n    /* \"#utility.yul\":1791:1797   */\n  0x00\n    /* \"#utility.yul\":1828:1829   */\n  0x02\n    /* \"#utility.yul\":1822:1826   */\n  dup3\n    /* \"#utility.yul\":1818:1830   */\n  div\n    /* \"#utility.yul\":1808:1830   */\n  swap1\n  pop\n    /* \"#utility.yul\":1875:1876   */\n  0x01\n    /* \"#utility.yul\":1869:1873   */\n  dup3\n    /* \"#utility.yul\":1865:1877   */\n  and\n    /* \"#utility.yul\":1896:1914   */\n  dup1\n    /* \"#utility.yul\":1886:1967   */\n  tag_41\n  jumpi\n    /* \"#utility.yul\":1952:1956   */\n  0x7f\n    /* \"#utility.yul\":1944:1950   */\n  dup3\n    /* \"#utility.yul\":1940:1957   */\n  and\n    /* \"#utility.yul\":1930:1957   */\n  swap2\n  pop\n    /* \"#utility.yul\":1886:1967   */\ntag_41:\n    /* \"#utility.yul\":2014:2016   */\n  0x20\n    /* \"#utility.yul\":2006:2012   */\n  dup3\n    /* \"#utility.yul\":2003:2017   */\n  lt\n    /* \"#utility.yul\":1983:2001   */\n  dup2\n    /* \"#utility.yul\":1980:2018   */\n  eq\n    /* \"#utility.yul\":1977:2061   */\n  iszero\n  tag_42\n  jumpi\n    /* \"#utility.yul\":2033:2051   */\n  tag_43\n  tag_44\n  jump\t// in\ntag_43:\n    /* \"#utility.yul\":1977:2061   */\ntag_42:\n    /* \"#utility.yul\":1798:2067   */\n  pop\n    /* \"#utility.yul\":1747:2067   */\n  swap2\n  swap1\n  pop\n  jump\t// out\n    /* \"#utility.yul\":2073:2253   */\ntag_44:\n    /* \"#utility.yul\":2121:2198   */\n  0x4e487b7100000000000000000000000000000000000000000000000000000000\n    /* \"#utility.yul\":2118:2119   */\n  0x00\n    /* \"#utility.yul\":2111:2199   */\n  mstore\n    /* \"#utility.yul\":2218:2222   */\n  0x22\n    /* \"#utility.yul\":2215:2216   */\n  0x04\n    /* \"#utility.yul\":2208:2223   */\n  mstore\n    /* \"#utility.yul\":2242:2246   */\n  0x24\n    /* \"#utility.yul\":2239:2240   */\n  0x00\n    /* \"#utility.yul\":2232:2247   */\n  revert\n    /* \"#utility.yul\":2259:2413   */\ntag_29:\n    /* \"#utility.yul\":2399:2405   */\n  0x746f6e7900000000000000000000000000000000000000000000000000000000\n    /* \"#utility.yul\":2395:2396   */\n  0x00\n    /* \"#utility.yul\":2387:2393   */\n  dup3\n    /* \"#utility.yul\":2383:2397   */\n  add\n    /* \"#utility.yul\":2376:2406   */\n  mstore\n    /* \"#utility.yul\":2259:2413   */\n  pop\n  jump\t// out\n    /* \"#utility.yul\":2419:2572   */\ntag_34:\n    /* \"#utility.yul\":2559:2564   */\n  0x616e6e0000000000000000000000000000000000000000000000000000000000\n    /* \"#utility.yul\":2555:2556   */\n  0x00\n    /* \"#utility.yul\":2547:2553   */\n  dup3\n    /* \"#utility.yul\":2543:2557   */\n  add\n    /* \"#utility.yul\":2536:2565   */\n  mstore\n    /* \"#utility.yul\":2419:2572   */\n  pop\n  jump\t// out\n    /* \"mokkozi/week3/mapping.sol\":69:414  contract MappingTest... */\ntag_11:\n  dataSize(sub_0)\n  dup1\n  dataOffset(sub_0)\n  0x00\n  codecopy\n  0x00\n  return\nstop\n\nsub_0: assembly {\n        /* \"mokkozi/week3/mapping.sol\":69:414  contract MappingTest... */\n      mstore(0x40, 0x80)\n      callvalue\n      dup1\n      iszero\n      tag_1\n      jumpi\n      0x00\n      dup1\n      revert\n    tag_1:\n      pop\n      jumpi(tag_2, lt(calldatasize, 0x04))\n      shr(0xe0, calldataload(0x00))\n      dup1\n      0x1ca260ac\n      eq\n      tag_3\n      jumpi\n    tag_2:\n      0x00\n      dup1\n      revert\n        /* \"mokkozi/week3/mapping.sol\":280:412  function getPhoneNumber(string memory name) public view returns(string memory)... */\n    tag_3:\n      tag_4\n      0x04\n      dup1\n      calldatasize\n      sub\n      dup2\n      add\n      swap1\n      tag_5\n      swap2\n      swap1\n      tag_6\n      jump\t// in\n    tag_5:\n      tag_7\n      jump\t// in\n    tag_4:\n      mload(0x40)\n      tag_8\n      swap2\n      swap1\n      tag_9\n      jump\t// in\n    tag_8:\n      mload(0x40)\n      dup1\n      swap2\n      sub\n      swap1\n      return\n    tag_7:\n        /* \"mokkozi/week3/mapping.sol\":344:357  string memory */\n      0x60\n        /* \"mokkozi/week3/mapping.sol\":380:397  phoneNumberByName */\n      0x00\n        /* \"mokkozi/week3/mapping.sol\":380:405  phoneNumberByName[\"name\"] */\n      mload(0x40)\n      tag_11\n      swap1\n      tag_12\n      jump\t// in\n    tag_11:\n      swap1\n      dup2\n      mstore\n      0x20\n      add\n      mload(0x40)\n      dup1\n      swap2\n      sub\n      swap1\n      keccak256\n        /* \"mokkozi/week3/mapping.sol\":373:405  return phoneNumberByName[\"name\"] */\n      dup1\n      sload\n      tag_13\n      swap1\n      tag_14\n      jump\t// in\n    tag_13:\n      dup1\n      0x1f\n      add\n      0x20\n      dup1\n      swap2\n      div\n      mul\n      0x20\n      add\n      mload(0x40)\n      swap1\n      dup2\n      add\n      0x40\n      mstore\n      dup1\n      swap3\n      swap2\n      swap1\n      dup2\n      dup2\n      mstore\n      0x20\n      add\n      dup3\n      dup1\n      sload\n      tag_15\n      swap1\n      tag_14\n      jump\t// in\n    tag_15:\n      dup1\n      iszero\n      tag_16\n      jumpi\n      dup1\n      0x1f\n      lt\n      tag_17\n      jumpi\n      0x0100\n      dup1\n      dup4\n      sload\n      div\n      mul\n      dup4\n      mstore\n      swap2\n      0x20\n      add\n      swap2\n      jump(tag_16)\n    tag_17:\n      dup3\n      add\n      swap2\n      swap1\n      0x00\n      mstore\n      keccak256(0x00, 0x20)\n      swap1\n    tag_18:\n      dup2\n      sload\n      dup2\n      mstore\n      swap1\n      0x01\n      add\n      swap1\n      0x20\n      add\n      dup1\n      dup4\n      gt\n      tag_18\n      jumpi\n      dup3\n      swap1\n      sub\n      0x1f\n      and\n      dup3\n      add\n      swap2\n    tag_16:\n      pop\n      pop\n      pop\n      pop\n      pop\n      swap1\n      pop\n        /* \"mokkozi/week3/mapping.sol\":280:412  function getPhoneNumber(string memory name) public view returns(string memory)... */\n      swap2\n      swap1\n      pop\n      jump\t// out\n        /* \"#utility.yul\":7:419   */\n    tag_20:\n        /* \"#utility.yul\":85:90   */\n      0x00\n        /* \"#utility.yul\":110:176   */\n      tag_22\n        /* \"#utility.yul\":126:175   */\n      tag_23\n        /* \"#utility.yul\":168:174   */\n      dup5\n        /* \"#utility.yul\":126:175   */\n      tag_24\n      jump\t// in\n    tag_23:\n        /* \"#utility.yul\":110:176   */\n      tag_25\n      jump\t// in\n    tag_22:\n        /* \"#utility.yul\":101:176   */\n      swap1\n      pop\n        /* \"#utility.yul\":199:205   */\n      dup3\n        /* \"#utility.yul\":192:197   */\n      dup2\n        /* \"#utility.yul\":185:206   */\n      mstore\n        /* \"#utility.yul\":237:241   */\n      0x20\n        /* \"#utility.yul\":230:235   */\n      dup2\n        /* \"#utility.yul\":226:242   */\n      add\n        /* \"#utility.yul\":275:278   */\n      dup5\n        /* \"#utility.yul\":266:272   */\n      dup5\n        /* \"#utility.yul\":261:264   */\n      dup5\n        /* \"#utility.yul\":257:273   */\n      add\n        /* \"#utility.yul\":254:279   */\n      gt\n        /* \"#utility.yul\":251:363   */\n      iszero\n      tag_26\n      jumpi\n        /* \"#utility.yul\":282:361   */\n      tag_27\n      tag_28\n      jump\t// in\n    tag_27:\n        /* \"#utility.yul\":251:363   */\n    tag_26:\n        /* \"#utility.yul\":372:413   */\n      tag_29\n        /* \"#utility.yul\":406:412   */\n      dup5\n        /* \"#utility.yul\":401:404   */\n      dup3\n        /* \"#utility.yul\":396:399   */\n      dup6\n        /* \"#utility.yul\":372:413   */\n      tag_30\n      jump\t// in\n    tag_29:\n        /* \"#utility.yul\":91:419   */\n      pop\n        /* \"#utility.yul\":7:419   */\n      swap4\n      swap3\n      pop\n      pop\n      pop\n      jump\t// out\n        /* \"#utility.yul\":439:779   */\n    tag_31:\n        /* \"#utility.yul\":495:500   */\n      0x00\n        /* \"#utility.yul\":544:547   */\n      dup3\n        /* \"#utility.yul\":537:541   */\n      0x1f\n        /* \"#utility.yul\":529:535   */\n      dup4\n        /* \"#utility.yul\":525:542   */\n      add\n        /* \"#utility.yul\":521:548   */\n      slt\n        /* \"#utility.yul\":511:633   */\n      tag_33\n      jumpi\n        /* \"#utility.yul\":552:631   */\n      tag_34\n      tag_35\n      jump\t// in\n    tag_34:\n        /* \"#utility.yul\":511:633   */\n    tag_33:\n        /* \"#utility.yul\":669:675   */\n      dup2\n        /* \"#utility.yul\":656:676   */\n      calldataload\n        /* \"#utility.yul\":694:773   */\n      tag_36\n        /* \"#utility.yul\":769:772   */\n      dup5\n        /* \"#utility.yul\":761:767   */\n      dup3\n        /* \"#utility.yul\":754:758   */\n      0x20\n        /* \"#utility.yul\":746:752   */\n      dup7\n        /* \"#utility.yul\":742:759   */\n      add\n        /* \"#utility.yul\":694:773   */\n      tag_20\n      jump\t// in\n    tag_36:\n        /* \"#utility.yul\":685:773   */\n      swap2\n      pop\n        /* \"#utility.yul\":501:779   */\n      pop\n        /* \"#utility.yul\":439:779   */\n      swap3\n      swap2\n      pop\n      pop\n      jump\t// out\n        /* \"#utility.yul\":785:1294   */\n    tag_6:\n        /* \"#utility.yul\":854:860   */\n      0x00\n        /* \"#utility.yul\":903:905   */\n      0x20\n        /* \"#utility.yul\":891:900   */\n      dup3\n        /* \"#utility.yul\":882:889   */\n      dup5\n        /* \"#utility.yul\":878:901   */\n      sub\n        /* \"#utility.yul\":874:906   */\n      slt\n        /* \"#utility.yul\":871:990   */\n      iszero\n      tag_38\n      jumpi\n        /* \"#utility.yul\":909:988   */\n      tag_39\n      tag_40\n      jump\t// in\n    tag_39:\n        /* \"#utility.yul\":871:990   */\n    tag_38:\n        /* \"#utility.yul\":1057:1058   */\n      0x00\n        /* \"#utility.yul\":1046:1055   */\n      dup3\n        /* \"#utility.yul\":1042:1059   */\n      add\n        /* \"#utility.yul\":1029:1060   */\n      calldataload\n        /* \"#utility.yul\":1087:1105   */\n      0xffffffffffffffff\n        /* \"#utility.yul\":1079:1085   */\n      dup2\n        /* \"#utility.yul\":1076:1106   */\n      gt\n        /* \"#utility.yul\":1073:1190   */\n      iszero\n      tag_41\n      jumpi\n        /* \"#utility.yul\":1109:1188   */\n      tag_42\n      tag_43\n      jump\t// in\n    tag_42:\n        /* \"#utility.yul\":1073:1190   */\n    tag_41:\n        /* \"#utility.yul\":1214:1277   */\n      tag_44\n        /* \"#utility.yul\":1269:1276   */\n      dup5\n        /* \"#utility.yul\":1260:1266   */\n      dup3\n        /* \"#utility.yul\":1249:1258   */\n      dup6\n        /* \"#utility.yul\":1245:1267   */\n      add\n        /* \"#utility.yul\":1214:1277   */\n      tag_31\n      jump\t// in\n    tag_44:\n        /* \"#utility.yul\":1204:1277   */\n      swap2\n      pop\n        /* \"#utility.yul\":1000:1287   */\n      pop\n        /* \"#utility.yul\":785:1294   */\n      swap3\n      swap2\n      pop\n      pop\n      jump\t// out\n        /* \"#utility.yul\":1300:1664   */\n    tag_45:\n        /* \"#utility.yul\":1388:1391   */\n      0x00\n        /* \"#utility.yul\":1416:1455   */\n      tag_47\n        /* \"#utility.yul\":1449:1454   */\n      dup3\n        /* \"#utility.yul\":1416:1455   */\n      tag_48\n      jump\t// in\n    tag_47:\n        /* \"#utility.yul\":1471:1542   */\n      tag_49\n        /* \"#utility.yul\":1535:1541   */\n      dup2\n        /* \"#utility.yul\":1530:1533   */\n      dup6\n        /* \"#utility.yul\":1471:1542   */\n      tag_50\n      jump\t// in\n    tag_49:\n        /* \"#utility.yul\":1464:1542   */\n      swap4\n      pop\n        /* \"#utility.yul\":1551:1603   */\n      tag_51\n        /* \"#utility.yul\":1596:1602   */\n      dup2\n        /* \"#utility.yul\":1591:1594   */\n      dup6\n        /* \"#utility.yul\":1584:1588   */\n      0x20\n        /* \"#utility.yul\":1577:1582   */\n      dup7\n        /* \"#utility.yul\":1573:1589   */\n      add\n        /* \"#utility.yul\":1551:1603   */\n      tag_52\n      jump\t// in\n    tag_51:\n        /* \"#utility.yul\":1628:1657   */\n      tag_53\n        /* \"#utility.yul\":1650:1656   */\n      dup2\n        /* \"#utility.yul\":1628:1657   */\n      tag_54\n      jump\t// in\n    tag_53:\n        /* \"#utility.yul\":1623:1626   */\n      dup5\n        /* \"#utility.yul\":1619:1658   */\n      add\n        /* \"#utility.yul\":1612:1658   */\n      swap2\n      pop\n        /* \"#utility.yul\":1392:1664   */\n      pop\n        /* \"#utility.yul\":1300:1664   */\n      swap3\n      swap2\n      pop\n      pop\n      jump\t// out\n        /* \"#utility.yul\":1670:2070   */\n    tag_55:\n        /* \"#utility.yul\":1830:1833   */\n      0x00\n        /* \"#utility.yul\":1851:1935   */\n      tag_57\n        /* \"#utility.yul\":1933:1934   */\n      0x04\n        /* \"#utility.yul\":1928:1931   */\n      dup4\n        /* \"#utility.yul\":1851:1935   */\n      tag_58\n      jump\t// in\n    tag_57:\n        /* \"#utility.yul\":1844:1935   */\n      swap2\n      pop\n        /* \"#utility.yul\":1944:2037   */\n      tag_59\n        /* \"#utility.yul\":2033:2036   */\n      dup3\n        /* \"#utility.yul\":1944:2037   */\n      tag_60\n      jump\t// in\n    tag_59:\n        /* \"#utility.yul\":2062:2063   */\n      0x04\n        /* \"#utility.yul\":2057:2060   */\n      dup3\n        /* \"#utility.yul\":2053:2064   */\n      add\n        /* \"#utility.yul\":2046:2064   */\n      swap1\n      pop\n        /* \"#utility.yul\":1670:2070   */\n      swap2\n      swap1\n      pop\n      jump\t// out\n        /* \"#utility.yul\":2076:2457   */\n    tag_12:\n        /* \"#utility.yul\":2261:2264   */\n      0x00\n        /* \"#utility.yul\":2283:2431   */\n      tag_62\n        /* \"#utility.yul\":2427:2430   */\n      dup3\n        /* \"#utility.yul\":2283:2431   */\n      tag_55\n      jump\t// in\n    tag_62:\n        /* \"#utility.yul\":2276:2431   */\n      swap2\n      pop\n        /* \"#utility.yul\":2448:2451   */\n      dup2\n        /* \"#utility.yul\":2441:2451   */\n      swap1\n      pop\n        /* \"#utility.yul\":2076:2457   */\n      swap2\n      swap1\n      pop\n      jump\t// out\n        /* \"#utility.yul\":2463:2776   */\n    tag_9:\n        /* \"#utility.yul\":2576:2580   */\n      0x00\n        /* \"#utility.yul\":2614:2616   */\n      0x20\n        /* \"#utility.yul\":2603:2612   */\n      dup3\n        /* \"#utility.yul\":2599:2617   */\n      add\n        /* \"#utility.yul\":2591:2617   */\n      swap1\n      pop\n        /* \"#utility.yul\":2663:2672   */\n      dup2\n        /* \"#utility.yul\":2657:2661   */\n      dup2\n        /* \"#utility.yul\":2653:2673   */\n      sub\n        /* \"#utility.yul\":2649:2650   */\n      0x00\n        /* \"#utility.yul\":2638:2647   */\n      dup4\n        /* \"#utility.yul\":2634:2651   */\n      add\n        /* \"#utility.yul\":2627:2674   */\n      mstore\n        /* \"#utility.yul\":2691:2769   */\n      tag_64\n        /* \"#utility.yul\":2764:2768   */\n      dup2\n        /* \"#utility.yul\":2755:2761   */\n      dup5\n        /* \"#utility.yul\":2691:2769   */\n      tag_45\n      jump\t// in\n    tag_64:\n        /* \"#utility.yul\":2683:2769   */\n      swap1\n      pop\n        /* \"#utility.yul\":2463:2776   */\n      swap3\n      swap2\n      pop\n      pop\n      jump\t// out\n        /* \"#utility.yul\":2782:2911   */\n    tag_25:\n        /* \"#utility.yul\":2816:2822   */\n      0x00\n        /* \"#utility.yul\":2843:2863   */\n      tag_66\n      tag_67\n      jump\t// in\n    tag_66:\n        /* \"#utility.yul\":2833:2863   */\n      swap1\n      pop\n        /* \"#utility.yul\":2872:2905   */\n      tag_68\n        /* \"#utility.yul\":2900:2904   */\n      dup3\n        /* \"#utility.yul\":2892:2898   */\n      dup3\n        /* \"#utility.yul\":2872:2905   */\n      tag_69\n      jump\t// in\n    tag_68:\n        /* \"#utility.yul\":2782:2911   */\n      swap2\n      swap1\n      pop\n      jump\t// out\n        /* \"#utility.yul\":2917:2992   */\n    tag_67:\n        /* \"#utility.yul\":2950:2956   */\n      0x00\n        /* \"#utility.yul\":2983:2985   */\n      0x40\n        /* \"#utility.yul\":2977:2986   */\n      mload\n        /* \"#utility.yul\":2967:2986   */\n      swap1\n      pop\n        /* \"#utility.yul\":2917:2992   */\n      swap1\n      jump\t// out\n        /* \"#utility.yul\":2998:3306   */\n    tag_24:\n        /* \"#utility.yul\":3060:3064   */\n      0x00\n        /* \"#utility.yul\":3150:3168   */\n      0xffffffffffffffff\n        /* \"#utility.yul\":3142:3148   */\n      dup3\n        /* \"#utility.yul\":3139:3169   */\n      gt\n        /* \"#utility.yul\":3136:3192   */\n      iszero\n      tag_72\n      jumpi\n        /* \"#utility.yul\":3172:3190   */\n      tag_73\n      tag_74\n      jump\t// in\n    tag_73:\n        /* \"#utility.yul\":3136:3192   */\n    tag_72:\n        /* \"#utility.yul\":3210:3239   */\n      tag_75\n        /* \"#utility.yul\":3232:3238   */\n      dup3\n        /* \"#utility.yul\":3210:3239   */\n      tag_54\n      jump\t// in\n    tag_75:\n        /* \"#utility.yul\":3202:3239   */\n      swap1\n      pop\n        /* \"#utility.yul\":3294:3298   */\n      0x20\n        /* \"#utility.yul\":3288:3292   */\n      dup2\n        /* \"#utility.yul\":3284:3299   */\n      add\n        /* \"#utility.yul\":3276:3299   */\n      swap1\n      pop\n        /* \"#utility.yul\":2998:3306   */\n      swap2\n      swap1\n      pop\n      jump\t// out\n        /* \"#utility.yul\":3312:3411   */\n    tag_48:\n        /* \"#utility.yul\":3364:3370   */\n      0x00\n        /* \"#utility.yul\":3398:3403   */\n      dup2\n        /* \"#utility.yul\":3392:3404   */\n      mload\n        /* \"#utility.yul\":3382:3404   */\n      swap1\n      pop\n        /* \"#utility.yul\":3312:3411   */\n      swap2\n      swap1\n      pop\n      jump\t// out\n        /* \"#utility.yul\":3417:3586   */\n    tag_50:\n        /* \"#utility.yul\":3501:3512   */\n      0x00\n        /* \"#utility.yul\":3535:3541   */\n      dup3\n        /* \"#utility.yul\":3530:3533   */\n      dup3\n        /* \"#utility.yul\":3523:3542   */\n      mstore\n        /* \"#utility.yul\":3575:3579   */\n      0x20\n        /* \"#utility.yul\":3570:3573   */\n      dup3\n        /* \"#utility.yul\":3566:3580   */\n      add\n        /* \"#utility.yul\":3551:3580   */\n      swap1\n      pop\n        /* \"#utility.yul\":3417:3586   */\n      swap3\n      swap2\n      pop\n      pop\n      jump\t// out\n        /* \"#utility.yul\":3592:3740   */\n    tag_58:\n        /* \"#utility.yul\":3694:3705   */\n      0x00\n        /* \"#utility.yul\":3731:3734   */\n      dup2\n        /* \"#utility.yul\":3716:3734   */\n      swap1\n      pop\n        /* \"#utility.yul\":3592:3740   */\n      swap3\n      swap2\n      pop\n      pop\n      jump\t// out\n        /* \"#utility.yul\":3746:3900   */\n    tag_30:\n        /* \"#utility.yul\":3830:3836   */\n      dup3\n        /* \"#utility.yul\":3825:3828   */\n      dup2\n        /* \"#utility.yul\":3820:3823   */\n      dup4\n        /* \"#utility.yul\":3807:3837   */\n      calldatacopy\n        /* \"#utility.yul\":3892:3893   */\n      0x00\n        /* \"#utility.yul\":3883:3889   */\n      dup4\n        /* \"#utility.yul\":3878:3881   */\n      dup4\n        /* \"#utility.yul\":3874:3890   */\n      add\n        /* \"#utility.yul\":3867:3894   */\n      mstore\n        /* \"#utility.yul\":3746:3900   */\n      pop\n      pop\n      pop\n      jump\t// out\n        /* \"#utility.yul\":3906:4213   */\n    tag_52:\n        /* \"#utility.yul\":3974:3975   */\n      0x00\n        /* \"#utility.yul\":3984:4097   */\n    tag_81:\n        /* \"#utility.yul\":3998:4004   */\n      dup4\n        /* \"#utility.yul\":3995:3996   */\n      dup2\n        /* \"#utility.yul\":3992:4005   */\n      lt\n        /* \"#utility.yul\":3984:4097   */\n      iszero\n      tag_83\n      jumpi\n        /* \"#utility.yul\":4083:4084   */\n      dup1\n        /* \"#utility.yul\":4078:4081   */\n      dup3\n        /* \"#utility.yul\":4074:4085   */\n      add\n        /* \"#utility.yul\":4068:4086   */\n      mload\n        /* \"#utility.yul\":4064:4065   */\n      dup2\n        /* \"#utility.yul\":4059:4062   */\n      dup5\n        /* \"#utility.yul\":4055:4066   */\n      add\n        /* \"#utility.yul\":4048:4087   */\n      mstore\n        /* \"#utility.yul\":4020:4022   */\n      0x20\n        /* \"#utility.yul\":4017:4018   */\n      dup2\n        /* \"#utility.yul\":4013:4023   */\n      add\n        /* \"#utility.yul\":4008:4023   */\n      swap1\n      pop\n        /* \"#utility.yul\":3984:4097   */\n      jump(tag_81)\n    tag_83:\n        /* \"#utility.yul\":4115:4121   */\n      dup4\n        /* \"#utility.yul\":4112:4113   */\n      dup2\n        /* \"#utility.yul\":4109:4122   */\n      gt\n        /* \"#utility.yul\":4106:4207   */\n      iszero\n      tag_84\n      jumpi\n        /* \"#utility.yul\":4195:4196   */\n      0x00\n        /* \"#utility.yul\":4186:4192   */\n      dup5\n        /* \"#utility.yul\":4181:4184   */\n      dup5\n        /* \"#utility.yul\":4177:4193   */\n      add\n        /* \"#utility.yul\":4170:4197   */\n      mstore\n        /* \"#utility.yul\":4106:4207   */\n    tag_84:\n        /* \"#utility.yul\":3955:4213   */\n      pop\n        /* \"#utility.yul\":3906:4213   */\n      pop\n      pop\n      pop\n      jump\t// out\n        /* \"#utility.yul\":4219:4539   */\n    tag_14:\n        /* \"#utility.yul\":4263:4269   */\n      0x00\n        /* \"#utility.yul\":4300:4301   */\n      0x02\n        /* \"#utility.yul\":4294:4298   */\n      dup3\n        /* \"#utility.yul\":4290:4302   */\n      div\n        /* \"#utility.yul\":4280:4302   */\n      swap1\n      pop\n        /* \"#utility.yul\":4347:4348   */\n      0x01\n        /* \"#utility.yul\":4341:4345   */\n      dup3\n        /* \"#utility.yul\":4337:4349   */\n      and\n        /* \"#utility.yul\":4368:4386   */\n      dup1\n        /* \"#utility.yul\":4358:4439   */\n      tag_86\n      jumpi\n        /* \"#utility.yul\":4424:4428   */\n      0x7f\n        /* \"#utility.yul\":4416:4422   */\n      dup3\n        /* \"#utility.yul\":4412:4429   */\n      and\n        /* \"#utility.yul\":4402:4429   */\n      swap2\n      pop\n        /* \"#utility.yul\":4358:4439   */\n    tag_86:\n        /* \"#utility.yul\":4486:4488   */\n      0x20\n        /* \"#utility.yul\":4478:4484   */\n      dup3\n        /* \"#utility.yul\":4475:4489   */\n      lt\n        /* \"#utility.yul\":4455:4473   */\n      dup2\n        /* \"#utility.yul\":4452:4490   */\n      eq\n        /* \"#utility.yul\":4449:4533   */\n      iszero\n      tag_87\n      jumpi\n        /* \"#utility.yul\":4505:4523   */\n      tag_88\n      tag_89\n      jump\t// in\n    tag_88:\n        /* \"#utility.yul\":4449:4533   */\n    tag_87:\n        /* \"#utility.yul\":4270:4539   */\n      pop\n        /* \"#utility.yul\":4219:4539   */\n      swap2\n      swap1\n      pop\n      jump\t// out\n        /* \"#utility.yul\":4545:4826   */\n    tag_69:\n        /* \"#utility.yul\":4628:4655   */\n      tag_91\n        /* \"#utility.yul\":4650:4654   */\n      dup3\n        /* \"#utility.yul\":4628:4655   */\n      tag_54\n      jump\t// in\n    tag_91:\n        /* \"#utility.yul\":4620:4626   */\n      dup2\n        /* \"#utility.yul\":4616:4656   */\n      add\n        /* \"#utility.yul\":4758:4764   */\n      dup2\n        /* \"#utility.yul\":4746:4756   */\n      dup2\n        /* \"#utility.yul\":4743:4765   */\n      lt\n        /* \"#utility.yul\":4722:4740   */\n      0xffffffffffffffff\n        /* \"#utility.yul\":4710:4720   */\n      dup3\n        /* \"#utility.yul\":4707:4741   */\n      gt\n        /* \"#utility.yul\":4704:4766   */\n      or\n        /* \"#utility.yul\":4701:4789   */\n      iszero\n      tag_92\n      jumpi\n        /* \"#utility.yul\":4769:4787   */\n      tag_93\n      tag_74\n      jump\t// in\n    tag_93:\n        /* \"#utility.yul\":4701:4789   */\n    tag_92:\n        /* \"#utility.yul\":4809:4819   */\n      dup1\n        /* \"#utility.yul\":4805:4807   */\n      0x40\n        /* \"#utility.yul\":4798:4820   */\n      mstore\n        /* \"#utility.yul\":4588:4826   */\n      pop\n        /* \"#utility.yul\":4545:4826   */\n      pop\n      pop\n      jump\t// out\n        /* \"#utility.yul\":4832:5012   */\n    tag_89:\n        /* \"#utility.yul\":4880:4957   */\n      0x4e487b7100000000000000000000000000000000000000000000000000000000\n        /* \"#utility.yul\":4877:4878   */\n      0x00\n        /* \"#utility.yul\":4870:4958   */\n      mstore\n        /* \"#utility.yul\":4977:4981   */\n      0x22\n        /* \"#utility.yul\":4974:4975   */\n      0x04\n        /* \"#utility.yul\":4967:4982   */\n      mstore\n        /* \"#utility.yul\":5001:5005   */\n      0x24\n        /* \"#utility.yul\":4998:4999   */\n      0x00\n        /* \"#utility.yul\":4991:5006   */\n      revert\n        /* \"#utility.yul\":5018:5198   */\n    tag_74:\n        /* \"#utility.yul\":5066:5143   */\n      0x4e487b7100000000000000000000000000000000000000000000000000000000\n        /* \"#utility.yul\":5063:5064   */\n      0x00\n        /* \"#utility.yul\":5056:5144   */\n      mstore\n        /* \"#utility.yul\":5163:5167   */\n      0x41\n        /* \"#utility.yul\":5160:5161   */\n      0x04\n        /* \"#utility.yul\":5153:5168   */\n      mstore\n        /* \"#utility.yul\":5187:5191   */\n      0x24\n        /* \"#utility.yul\":5184:5185   */\n      0x00\n        /* \"#utility.yul\":5177:5192   */\n      revert\n        /* \"#utility.yul\":5204:5321   */\n    tag_35:\n        /* \"#utility.yul\":5313:5314   */\n      0x00\n        /* \"#utility.yul\":5310:5311   */\n      dup1\n        /* \"#utility.yul\":5303:5315   */\n      revert\n        /* \"#utility.yul\":5327:5444   */\n    tag_28:\n        /* \"#utility.yul\":5436:5437   */\n      0x00\n        /* \"#utility.yul\":5433:5434   */\n      dup1\n        /* \"#utility.yul\":5426:5438   */\n      revert\n        /* \"#utility.yul\":5450:5567   */\n    tag_43:\n        /* \"#utility.yul\":5559:5560   */\n      0x00\n        /* \"#utility.yul\":5556:5557   */\n      dup1\n        /* \"#utility.yul\":5549:5561   */\n      revert\n        /* \"#utility.yul\":5573:5690   */\n    tag_40:\n        /* \"#utility.yul\":5682:5683   */\n      0x00\n        /* \"#utility.yul\":5679:5680   */\n      dup1\n        /* \"#utility.yul\":5672:5684   */\n      revert\n        /* \"#utility.yul\":5696:5798   */\n    tag_54:\n        /* \"#utility.yul\":5737:5743   */\n      0x00\n        /* \"#utility.yul\":5788:5790   */\n      0x1f\n        /* \"#utility.yul\":5784:5791   */\n      not\n        /* \"#utility.yul\":5779:5781   */\n      0x1f\n        /* \"#utility.yul\":5772:5777   */\n      dup4\n        /* \"#utility.yul\":5768:5782   */\n      add\n        /* \"#utility.yul\":5764:5792   */\n      and\n        /* \"#utility.yul\":5754:5792   */\n      swap1\n      pop\n        /* \"#utility.yul\":5696:5798   */\n      swap2\n      swap1\n      pop\n      jump\t// out\n        /* \"#utility.yul\":5804:5958   */\n    tag_60:\n        /* \"#utility.yul\":5944:5950   */\n      0x6e616d6500000000000000000000000000000000000000000000000000000000\n        /* \"#utility.yul\":5940:5941   */\n      0x00\n        /* \"#utility.yul\":5932:5938   */\n      dup3\n        /* \"#utility.yul\":5928:5942   */\n      add\n        /* \"#utility.yul\":5921:5951   */\n      mstore\n        /* \"#utility.yul\":5804:5958   */\n      pop\n      jump\t// out\n\n    auxdata: 0xa2646970667358221220817a3829eac7cd5ef341e66b50eef323998d4293410c49382756255a13c8a5fb64736f6c63430008070033\n}\n",
				"bytecode": {
					"linkReferences": {},
					"object": "608060405234801561001057600080fd5b506040518060400160405280600d81526020017f3031302d303030302d37343134000000000000000000000000000000000000008152506000604051610055906101cb565b908152602001604051809103902090805190602001906100769291906100e2565b506040518060400160405280600d81526020017f3031302d313233342d313233340000000000000000000000000000000000000081525060006040516100bb906101e0565b908152602001604051809103902090805190602001906100dc9291906100e2565b506102b3565b8280546100ee90610200565b90600052602060002090601f0160209004810192826101105760008555610157565b82601f1061012957805160ff1916838001178555610157565b82800160010185558215610157579182015b8281111561015657825182559160200191906001019061013b565b5b5090506101649190610168565b5090565b5b80821115610181576000816000905550600101610169565b5090565b60006101926004836101f5565b915061019d82610261565b600482019050919050565b60006101b56003836101f5565b91506101c08261028a565b600382019050919050565b60006101d682610185565b9150819050919050565b60006101eb826101a8565b9150819050919050565b600081905092915050565b6000600282049050600182168061021857607f821691505b6020821081141561022c5761022b610232565b5b50919050565b7f4e487b7100000000000000000000000000000000000000000000000000000000600052602260045260246000fd5b7f746f6e7900000000000000000000000000000000000000000000000000000000600082015250565b7f616e6e0000000000000000000000000000000000000000000000000000000000600082015250565b61045e806102c26000396000f3fe608060405234801561001057600080fd5b506004361061002b5760003560e01c80631ca260ac14610030575b600080fd5b61004a6004803603810190610045919061017e565b610060565b6040516100579190610238565b60405180910390f35b6060600060405161007090610223565b9081526020016040518091039020805461008990610319565b80601f01602080910402602001604051908101604052809291908181526020018280546100b590610319565b80156101025780601f106100d757610100808354040283529160200191610102565b820191906000526020600020905b8154815290600101906020018083116100e557829003601f168201915b50505050509050919050565b600061012161011c8461027f565b61025a565b90508281526020810184848401111561013d5761013c6103df565b5b6101488482856102d7565b509392505050565b600082601f830112610165576101646103da565b5b813561017584826020860161010e565b91505092915050565b600060208284031215610194576101936103e9565b5b600082013567ffffffffffffffff8111156101b2576101b16103e4565b5b6101be84828501610150565b91505092915050565b60006101d2826102b0565b6101dc81856102bb565b93506101ec8185602086016102e6565b6101f5816103ee565b840191505092915050565b600061020d6004836102cc565b9150610218826103ff565b600482019050919050565b600061022e82610200565b9150819050919050565b6000602082019050818103600083015261025281846101c7565b905092915050565b6000610264610275565b9050610270828261034b565b919050565b6000604051905090565b600067ffffffffffffffff82111561029a576102996103ab565b5b6102a3826103ee565b9050602081019050919050565b600081519050919050565b600082825260208201905092915050565b600081905092915050565b82818337600083830152505050565b60005b838110156103045780820151818401526020810190506102e9565b83811115610313576000848401525b50505050565b6000600282049050600182168061033157607f821691505b602082108114156103455761034461037c565b5b50919050565b610354826103ee565b810181811067ffffffffffffffff82111715610373576103726103ab565b5b80604052505050565b7f4e487b7100000000000000000000000000000000000000000000000000000000600052602260045260246000fd5b7f4e487b7100000000000000000000000000000000000000000000000000000000600052604160045260246000fd5b600080fd5b600080fd5b600080fd5b600080fd5b6000601f19601f8301169050919050565b7f6e616d650000000000000000000000000000000000000000000000000000000060008201525056fea2646970667358221220817a3829eac7cd5ef341e66b50eef323998d4293410c49382756255a13c8a5fb64736f6c63430008070033",
					"opcodes": "PUSH1 0x80 PUSH1 0x40 MSTORE CALLVALUE DUP1 ISZERO PUSH2 0x10 JUMPI PUSH1 0x0 DUP1 REVERT JUMPDEST POP PUSH1 0x40 MLOAD DUP1 PUSH1 0x40 ADD PUSH1 0x40 MSTORE DUP1 PUSH1 0xD DUP2 MSTORE PUSH1 0x20 ADD PUSH32 0x3031302D303030302D3734313400000000000000000000000000000000000000 DUP2 MSTORE POP PUSH1 0x0 PUSH1 0x40 MLOAD PUSH2 0x55 SWAP1 PUSH2 0x1CB JUMP JUMPDEST SWAP1 DUP2 MSTORE PUSH1 0x20 ADD PUSH1 0x40 MLOAD DUP1 SWAP2 SUB SWAP1 KECCAK256 SWAP1 DUP1 MLOAD SWAP1 PUSH1 0x20 ADD SWAP1 PUSH2 0x76 SWAP3 SWAP2 SWAP1 PUSH2 0xE2 JUMP JUMPDEST POP PUSH1 0x40 MLOAD DUP1 PUSH1 0x40 ADD PUSH1 0x40 MSTORE DUP1 PUSH1 0xD DUP2 MSTORE PUSH1 0x20 ADD PUSH32 0x3031302D313233342D3132333400000000000000000000000000000000000000 DUP2 MSTORE POP PUSH1 0x0 PUSH1 0x40 MLOAD PUSH2 0xBB SWAP1 PUSH2 0x1E0 JUMP JUMPDEST SWAP1 DUP2 MSTORE PUSH1 0x20 ADD PUSH1 0x40 MLOAD DUP1 SWAP2 SUB SWAP1 KECCAK256 SWAP1 DUP1 MLOAD SWAP1 PUSH1 0x20 ADD SWAP1 PUSH2 0xDC SWAP3 SWAP2 SWAP1 PUSH2 0xE2 JUMP JUMPDEST POP PUSH2 0x2B3 JUMP JUMPDEST DUP3 DUP1 SLOAD PUSH2 0xEE SWAP1 PUSH2 0x200 JUMP JUMPDEST SWAP1 PUSH1 0x0 MSTORE PUSH1 0x20 PUSH1 0x0 KECCAK256 SWAP1 PUSH1 0x1F ADD PUSH1 0x20 SWAP1 DIV DUP2 ADD SWAP3 DUP3 PUSH2 0x110 JUMPI PUSH1 0x0 DUP6 SSTORE PUSH2 0x157 JUMP JUMPDEST DUP3 PUSH1 0x1F LT PUSH2 0x129 JUMPI DUP1 MLOAD PUSH1 0xFF NOT AND DUP4 DUP1 ADD OR DUP6 SSTORE PUSH2 0x157 JUMP JUMPDEST DUP3 DUP1 ADD PUSH1 0x1 ADD DUP6 SSTORE DUP3 ISZERO PUSH2 0x157 JUMPI SWAP2 DUP3 ADD JUMPDEST DUP3 DUP2 GT ISZERO PUSH2 0x156 JUMPI DUP3 MLOAD DUP3 SSTORE SWAP2 PUSH1 0x20 ADD SWAP2 SWAP1 PUSH1 0x1 ADD SWAP1 PUSH2 0x13B JUMP JUMPDEST JUMPDEST POP SWAP1 POP PUSH2 0x164 SWAP2 SWAP1 PUSH2 0x168 JUMP JUMPDEST POP SWAP1 JUMP JUMPDEST JUMPDEST DUP1 DUP3 GT ISZERO PUSH2 0x181 JUMPI PUSH1 0x0 DUP2 PUSH1 0x0 SWAP1 SSTORE POP PUSH1 0x1 ADD PUSH2 0x169 JUMP JUMPDEST POP SWAP1 JUMP JUMPDEST PUSH1 0x0 PUSH2 0x192 PUSH1 0x4 DUP4 PUSH2 0x1F5 JUMP JUMPDEST SWAP2 POP PUSH2 0x19D DUP3 PUSH2 0x261 JUMP JUMPDEST PUSH1 0x4 DUP3 ADD SWAP1 POP SWAP2 SWAP1 POP JUMP JUMPDEST PUSH1 0x0 PUSH2 0x1B5 PUSH1 0x3 DUP4 PUSH2 0x1F5 JUMP JUMPDEST SWAP2 POP PUSH2 0x1C0 DUP3 PUSH2 0x28A JUMP JUMPDEST PUSH1 0x3 DUP3 ADD SWAP1 POP SWAP2 SWAP1 POP JUMP JUMPDEST PUSH1 0x0 PUSH2 0x1D6 DUP3 PUSH2 0x185 JUMP JUMPDEST SWAP2 POP DUP2 SWAP1 POP SWAP2 SWAP1 POP JUMP JUMPDEST PUSH1 0x0 PUSH2 0x1EB DUP3 PUSH2 0x1A8 JUMP JUMPDEST SWAP2 POP DUP2 SWAP1 POP SWAP2 SWAP1 POP JUMP JUMPDEST PUSH1 0x0 DUP2 SWAP1 POP SWAP3 SWAP2 POP POP JUMP JUMPDEST PUSH1 0x0 PUSH1 0x2 DUP3 DIV SWAP1 POP PUSH1 0x1 DUP3 AND DUP1 PUSH2 0x218 JUMPI PUSH1 0x7F DUP3 AND SWAP2 POP JUMPDEST PUSH1 0x20 DUP3 LT DUP2 EQ ISZERO PUSH2 0x22C JUMPI PUSH2 0x22B PUSH2 0x232 JUMP JUMPDEST JUMPDEST POP SWAP2 SWAP1 POP JUMP JUMPDEST PUSH32 0x4E487B7100000000000000000000000000000000000000000000000000000000 PUSH1 0x0 MSTORE PUSH1 0x22 PUSH1 0x4 MSTORE PUSH1 0x24 PUSH1 0x0 REVERT JUMPDEST PUSH32 0x746F6E7900000000000000000000000000000000000000000000000000000000 PUSH1 0x0 DUP3 ADD MSTORE POP JUMP JUMPDEST PUSH32 0x616E6E0000000000000000000000000000000000000000000000000000000000 PUSH1 0x0 DUP3 ADD MSTORE POP JUMP JUMPDEST PUSH2 0x45E DUP1 PUSH2 0x2C2 PUSH1 0x0 CODECOPY PUSH1 0x0 RETURN INVALID PUSH1 0x80 PUSH1 0x40 MSTORE CALLVALUE DUP1 ISZERO PUSH2 0x10 JUMPI PUSH1 0x0 DUP1 REVERT JUMPDEST POP PUSH1 0x4 CALLDATASIZE LT PUSH2 0x2B JUMPI PUSH1 0x0 CALLDATALOAD PUSH1 0xE0 SHR DUP1 PUSH4 0x1CA260AC EQ PUSH2 0x30 JUMPI JUMPDEST PUSH1 0x0 DUP1 REVERT JUMPDEST PUSH2 0x4A PUSH1 0x4 DUP1 CALLDATASIZE SUB DUP2 ADD SWAP1 PUSH2 0x45 SWAP2 SWAP1 PUSH2 0x17E JUMP JUMPDEST PUSH2 0x60 JUMP JUMPDEST PUSH1 0x40 MLOAD PUSH2 0x57 SWAP2 SWAP1 PUSH2 0x238 JUMP JUMPDEST PUSH1 0x40 MLOAD DUP1 SWAP2 SUB SWAP1 RETURN JUMPDEST PUSH1 0x60 PUSH1 0x0 PUSH1 0x40 MLOAD PUSH2 0x70 SWAP1 PUSH2 0x223 JUMP JUMPDEST SWAP1 DUP2 MSTORE PUSH1 0x20 ADD PUSH1 0x40 MLOAD DUP1 SWAP2 SUB SWAP1 KECCAK256 DUP1 SLOAD PUSH2 0x89 SWAP1 PUSH2 0x319 JUMP JUMPDEST DUP1 PUSH1 0x1F ADD PUSH1 0x20 DUP1 SWAP2 DIV MUL PUSH1 0x20 ADD PUSH1 0x40 MLOAD SWAP1 DUP2 ADD PUSH1 0x40 MSTORE DUP1 SWAP3 SWAP2 SWAP1 DUP2 DUP2 MSTORE PUSH1 0x20 ADD DUP3 DUP1 SLOAD PUSH2 0xB5 SWAP1 PUSH2 0x319 JUMP JUMPDEST DUP1 ISZERO PUSH2 0x102 JUMPI DUP1 PUSH1 0x1F LT PUSH2 0xD7 JUMPI PUSH2 0x100 DUP1 DUP4 SLOAD DIV MUL DUP4 MSTORE SWAP2 PUSH1 0x20 ADD SWAP2 PUSH2 0x102 JUMP JUMPDEST DUP3 ADD SWAP2 SWAP1 PUSH1 0x0 MSTORE PUSH1 0x20 PUSH1 0x0 KECCAK256 SWAP1 JUMPDEST DUP2 SLOAD DUP2 MSTORE SWAP1 PUSH1 0x1 ADD SWAP1 PUSH1 0x20 ADD DUP1 DUP4 GT PUSH2 0xE5 JUMPI DUP3 SWAP1 SUB PUSH1 0x1F AND DUP3 ADD SWAP2 JUMPDEST POP POP POP POP POP SWAP1 POP SWAP2 SWAP1 POP JUMP JUMPDEST PUSH1 0x0 PUSH2 0x121 PUSH2 0x11C DUP5 PUSH2 0x27F JUMP JUMPDEST PUSH2 0x25A JUMP JUMPDEST SWAP1 POP DUP3 DUP2 MSTORE PUSH1 0x20 DUP2 ADD DUP5 DUP5 DUP5 ADD GT ISZERO PUSH2 0x13D JUMPI PUSH2 0x13C PUSH2 0x3DF JUMP JUMPDEST JUMPDEST PUSH2 0x148 DUP5 DUP3 DUP6 PUSH2 0x2D7 JUMP JUMPDEST POP SWAP4 SWAP3 POP POP POP JUMP JUMPDEST PUSH1 0x0 DUP3 PUSH1 0x1F DUP4 ADD SLT PUSH2 0x165 JUMPI PUSH2 0x164 PUSH2 0x3DA JUMP JUMPDEST JUMPDEST DUP2 CALLDATALOAD PUSH2 0x175 DUP5 DUP3 PUSH1 0x20 DUP7 ADD PUSH2 0x10E JUMP JUMPDEST SWAP2 POP POP SWAP3 SWAP2 POP POP JUMP JUMPDEST PUSH1 0x0 PUSH1 0x20 DUP3 DUP5 SUB SLT ISZERO PUSH2 0x194 JUMPI PUSH2 0x193 PUSH2 0x3E9 JUMP JUMPDEST JUMPDEST PUSH1 0x0 DUP3 ADD CALLDATALOAD PUSH8 0xFFFFFFFFFFFFFFFF DUP2 GT ISZERO PUSH2 0x1B2 JUMPI PUSH2 0x1B1 PUSH2 0x3E4 JUMP JUMPDEST JUMPDEST PUSH2 0x1BE DUP5 DUP3 DUP6 ADD PUSH2 0x150 JUMP JUMPDEST SWAP2 POP POP SWAP3 SWAP2 POP POP JUMP JUMPDEST PUSH1 0x0 PUSH2 0x1D2 DUP3 PUSH2 0x2B0 JUMP JUMPDEST PUSH2 0x1DC DUP2 DUP6 PUSH2 0x2BB JUMP JUMPDEST SWAP4 POP PUSH2 0x1EC DUP2 DUP6 PUSH1 0x20 DUP7 ADD PUSH2 0x2E6 JUMP JUMPDEST PUSH2 0x1F5 DUP2 PUSH2 0x3EE JUMP JUMPDEST DUP5 ADD SWAP2 POP POP SWAP3 SWAP2 POP POP JUMP JUMPDEST PUSH1 0x0 PUSH2 0x20D PUSH1 0x4 DUP4 PUSH2 0x2CC JUMP JUMPDEST SWAP2 POP PUSH2 0x218 DUP3 PUSH2 0x3FF JUMP JUMPDEST PUSH1 0x4 DUP3 ADD SWAP1 POP SWAP2 SWAP1 POP JUMP JUMPDEST PUSH1 0x0 PUSH2 0x22E DUP3 PUSH2 0x200 JUMP JUMPDEST SWAP2 POP DUP2 SWAP1 POP SWAP2 SWAP1 POP JUMP JUMPDEST PUSH1 0x0 PUSH1 0x20 DUP3 ADD SWAP1 POP DUP2 DUP2 SUB PUSH1 0x0 DUP4 ADD MSTORE PUSH2 0x252 DUP2 DUP5 PUSH2 0x1C7 JUMP JUMPDEST SWAP1 POP SWAP3 SWAP2 POP POP JUMP JUMPDEST PUSH1 0x0 PUSH2 0x264 PUSH2 0x275 JUMP JUMPDEST SWAP1 POP PUSH2 0x270 DUP3 DUP3 PUSH2 0x34B JUMP JUMPDEST SWAP2 SWAP1 POP JUMP JUMPDEST PUSH1 0x0 PUSH1 0x40 MLOAD SWAP1 POP SWAP1 JUMP JUMPDEST PUSH1 0x0 PUSH8 0xFFFFFFFFFFFFFFFF DUP3 GT ISZERO PUSH2 0x29A JUMPI PUSH2 0x299 PUSH2 0x3AB JUMP JUMPDEST JUMPDEST PUSH2 0x2A3 DUP3 PUSH2 0x3EE JUMP JUMPDEST SWAP1 POP PUSH1 0x20 DUP2 ADD SWAP1 POP SWAP2 SWAP1 POP JUMP JUMPDEST PUSH1 0x0 DUP2 MLOAD SWAP1 POP SWAP2 SWAP1 POP JUMP JUMPDEST PUSH1 0x0 DUP3 DUP3 MSTORE PUSH1 0x20 DUP3 ADD SWAP1 POP SWAP3 SWAP2 POP POP JUMP JUMPDEST PUSH1 0x0 DUP2 SWAP1 POP SWAP3 SWAP2 POP POP JUMP JUMPDEST DUP3 DUP2 DUP4 CALLDATACOPY PUSH1 0x0 DUP4 DUP4 ADD MSTORE POP POP POP JUMP JUMPDEST PUSH1 0x0 JUMPDEST DUP4 DUP2 LT ISZERO PUSH2 0x304 JUMPI DUP1 DUP3 ADD MLOAD DUP2 DUP5 ADD MSTORE PUSH1 0x20 DUP2 ADD SWAP1 POP PUSH2 0x2E9 JUMP JUMPDEST DUP4 DUP2 GT ISZERO PUSH2 0x313 JUMPI PUSH1 0x0 DUP5 DUP5 ADD MSTORE JUMPDEST POP POP POP POP JUMP JUMPDEST PUSH1 0x0 PUSH1 0x2 DUP3 DIV SWAP1 POP PUSH1 0x1 DUP3 AND DUP1 PUSH2 0x331 JUMPI PUSH1 0x7F DUP3 AND SWAP2 POP JUMPDEST PUSH1 0x20 DUP3 LT DUP2 EQ ISZERO PUSH2 0x345 JUMPI PUSH2 0x344 PUSH2 0x37C JUMP JUMPDEST JUMPDEST POP SWAP2 SWAP1 POP JUMP JUMPDEST PUSH2 0x354 DUP3 PUSH2 0x3EE JUMP JUMPDEST DUP2 ADD DUP2 DUP2 LT PUSH8 0xFFFFFFFFFFFFFFFF DUP3 GT OR ISZERO PUSH2 0x373 JUMPI PUSH2 0x372 PUSH2 0x3AB JUMP JUMPDEST JUMPDEST DUP1 PUSH1 0x40 MSTORE POP POP POP JUMP JUMPDEST PUSH32 0x4E487B7100000000000000000000000000000000000000000000000000000000 PUSH1 0x0 MSTORE PUSH1 0x22 PUSH1 0x4 MSTORE PUSH1 0x24 PUSH1 0x0 REVERT JUMPDEST PUSH32 0x4E487B7100000000000000000000000000000000000000000000000000000000 PUSH1 0x0 MSTORE PUSH1 0x41 PUSH1 0x4 MSTORE PUSH1 0x24 PUSH1 0x0 REVERT JUMPDEST PUSH1 0x0 DUP1 REVERT JUMPDEST PUSH1 0x0 DUP1 REVERT JUMPDEST PUSH1 0x0 DUP1 REVERT JUMPDEST PUSH1 0x0 DUP1 REVERT JUMPDEST PUSH1 0x0 PUSH1 0x1F NOT PUSH1 0x1F DUP4 ADD AND SWAP1 POP SWAP2 SWAP1 POP JUMP JUMPDEST PUSH32 0x6E616D6500000000000000000000000000000000000000000000000000000000 PUSH1 0x0 DUP3 ADD MSTORE POP JUMP INVALID LOG2 PUSH5 0x6970667358 0x22 SLT KECCAK256 DUP2 PUSH27 0x3829EAC7CD5EF341E66B50EEF323998D4293410C49382756255A13 0xC8 0xA5 0xFB PUSH5 0x736F6C6343 STOP ADDMOD SMOD STOP CALLER "
				},
				"gasEstimates": {
					"creation": {
						"codeDepositCost": "223600",
						"executionCost": "infinite",
						"totalCost": "infinite"
					},
					"external": {
						"getPhoneNumber(string)": "infinite"
					}
				},
				"methodIdentifiers": {
					"getPhoneNumber(string)": "1ca260ac"
				}
			},
			"storageLayout": {
				"storage": [
					{
						"astId": 5,
						"contract": "mokkozi/week3/mapping.sol:MappingTest",
						"label": "phoneNumberByName",
						"offset": 0,
						"slot": "0",
						"type": "t_mapping(t_string_memory_ptr,t_string_storage)"
					}
				],
				"types": {
					"t_mapping(t_string_memory_ptr,t_string_storage)": {
						"encoding": "mapping",
						"key": "t_string_memory_ptr",
						"label": "mapping(string => string)",
						"numberOfBytes": "32",
						"value": "t_string_storage"
					},
					"t_string_memory_ptr": {
						"encoding": "bytes",
						"label": "string",
						"numberOfBytes": "32"
					},
					"t_string_storage": {
						"encoding": "bytes",
						"label": "string",
						"numberOfBytes": "32"
					}
				}
			},
			"userdoc": {
				"kind": "user",
				"methods": {},
				"version": 1
			}
		}
	}
}