{
	"mokkozi/week3/erc721.sol": {
		"minionToken": {
			"abi": [
				{
					"anonymous": false,
					"inputs": [
						{
							"indexed": true,
							"internalType": "address",
							"name": "owner",
							"type": "address"
						},
						{
							"indexed": true,
							"internalType": "address",
							"name": "approved",
							"type": "address"
						},
						{
							"indexed": true,
							"internalType": "uint256",
							"name": "tokenId",
							"type": "uint256"
						}
					],
					"name": "Approval",
					"type": "event"
				},
				{
					"anonymous": false,
					"inputs": [
						{
							"indexed": true,
							"internalType": "address",
							"name": "owner",
							"type": "address"
						},
						{
							"indexed": true,
							"internalType": "address",
							"name": "operator",
							"type": "address"
						},
						{
							"indexed": false,
							"internalType": "bool",
							"name": "approved",
							"type": "bool"
						}
					],
					"name": "ApprovalForAll",
					"type": "event"
				},
				{
					"anonymous": false,
					"inputs": [
						{
							"indexed": true,
							"internalType": "address",
							"name": "from",
							"type": "address"
						},
						{
							"indexed": true,
							"internalType": "address",
							"name": "to",
							"type": "address"
						},
						{
							"indexed": true,
							"internalType": "uint256",
							"name": "tokenId",
							"type": "uint256"
						}
					],
					"name": "Transfer",
					"type": "event"
				},
				{
					"inputs": [
						{
							"internalType": "address",
							"name": "approved",
							"type": "address"
						},
						{
							"internalType": "uint256",
							"name": "tokenId",
							"type": "uint256"
						}
					],
					"name": "approve",
					"outputs": [],
					"stateMutability": "payable",
					"type": "function"
				},
				{
					"inputs": [
						{
							"internalType": "address",
							"name": "owner",
							"type": "address"
						}
					],
					"name": "balanceOf",
					"outputs": [
						{
							"internalType": "uint256",
							"name": "",
							"type": "uint256"
						}
					],
					"stateMutability": "view",
					"type": "function"
				},
				{
					"inputs": [
						{
							"internalType": "uint256",
							"name": "tokenId",
							"type": "uint256"
						}
					],
					"name": "getApproved",
					"outputs": [
						{
							"internalType": "address",
							"name": "",
							"type": "address"
						}
					],
					"stateMutability": "view",
					"type": "function"
				},
				{
					"inputs": [
						{
							"internalType": "address",
							"name": "owner",
							"type": "address"
						},
						{
							"internalType": "address",
							"name": "operator",
							"type": "address"
						}
					],
					"name": "isApprovedForAll",
					"outputs": [
						{
							"internalType": "bool",
							"name": "",
							"type": "bool"
						}
					],
					"stateMutability": "view",
					"type": "function"
				},
				{
					"inputs": [
						{
							"internalType": "address",
							"name": "to",
							"type": "address"
						},
						{
							"internalType": "uint256",
							"name": "tokenId",
							"type": "uint256"
						},
						{
							"internalType": "string",
							"name": "uri",
							"type": "string"
						}
					],
					"name": "mint",
					"outputs": [],
					"stateMutability": "nonpayable",
					"type": "function"
				},
				{
					"inputs": [],
					"name": "name",
					"outputs": [
						{
							"internalType": "string",
							"name": "_name",
							"type": "string"
						}
					],
					"stateMutability": "view",
					"type": "function"
				},
				{
					"inputs": [
						{
							"internalType": "uint256",
							"name": "tokenId",
							"type": "uint256"
						}
					],
					"name": "ownerOf",
					"outputs": [
						{
							"internalType": "address",
							"name": "",
							"type": "address"
						}
					],
					"stateMutability": "view",
					"type": "function"
				},
				{
					"inputs": [
						{
							"internalType": "address",
							"name": "from",
							"type": "address"
						},
						{
							"internalType": "address",
							"name": "to",
							"type": "address"
						},
						{
							"internalType": "uint256",
							"name": "tokenId",
							"type": "uint256"
						}
					],
					"name": "safeTransferFrom",
					"outputs": [],
					"stateMutability": "payable",
					"type": "function"
				},
				{
					"inputs": [
						{
							"internalType": "address",
							"name": "from",
							"type": "address"
						},
						{
							"internalType": "address",
							"name": "to",
							"type": "address"
						},
						{
							"internalType": "uint256",
							"name": "tokenId",
							"type": "uint256"
						},
						{
							"internalType": "bytes",
							"name": "data",
							"type": "bytes"
						}
					],
					"name": "safeTransferFrom",
					"outputs": [],
					"stateMutability": "payable",
					"type": "function"
				},
				{
					"inputs": [
						{
							"internalType": "address",
							"name": "operator",
							"type": "address"
						},
						{
							"internalType": "bool",
							"name": "approved",
							"type": "bool"
						}
					],
					"name": "setApprovalForAll",
					"outputs": [],
					"stateMutability": "nonpayable",
					"type": "function"
				},
				{
					"inputs": [
						{
							"internalType": "uint256",
							"name": "tokenId",
							"type": "uint256"
						},
						{
							"internalType": "string",
							"name": "uri",
							"type": "string"
						}
					],
					"name": "setTokenURI",
					"outputs": [],
					"stateMutability": "nonpayable",
					"type": "function"
				},
				{
					"inputs": [
						{
							"internalType": "bytes4",
							"name": "interfaceID",
							"type": "bytes4"
						}
					],
					"name": "supportsInterface",
					"outputs": [
						{
							"internalType": "bool",
							"name": "",
							"type": "bool"
						}
					],
					"stateMutability": "pure",
					"type": "function"
				},
				{
					"inputs": [],
					"name": "symbol",
					"outputs": [
						{
							"internalType": "string",
							"name": "_symbol",
							"type": "string"
						}
					],
					"stateMutability": "view",
					"type": "function"
				},
				{
					"inputs": [],
					"name": "tokenName",
					"outputs": [
						{
							"internalType": "string",
							"name": "",
							"type": "string"
						}
					],
					"stateMutability": "view",
					"type": "function"
				},
				{
					"inputs": [],
					"name": "tokenSymbol",
					"outputs": [
						{
							"internalType": "string",
							"name": "",
							"type": "string"
						}
					],
					"stateMutability": "view",
					"type": "function"
				},
				{
					"inputs": [
						{
							"internalType": "uint256",
							"name": "_tokenId",
							"type": "uint256"
						}
					],
					"name": "tokenURI",
					"outputs": [
						{
							"internalType": "string",
							"name": "",
							"type": "string"
						}
					],
					"stateMutability": "view",
					"type": "function"
				},
				{
					"inputs": [
						{
							"internalType": "address",
							"name": "from",
							"type": "address"
						},
						{
							"internalType": "address",
							"name": "to",
							"type": "address"
						},
						{
							"internalType": "uint256",
							"name": "tokenId",
							"type": "uint256"
						}
					],
					"name": "transferFrom",
					"outputs": [],
					"stateMutability": "payable",
					"type": "function"
				}
			],
			"devdoc": {
				"kind": "dev",
				"methods": {
					"approve(address,uint256)": {
						"details": "The zero address indicates there is no approved address.  Throws unless `msg.sender` is the current NFT owner, or an authorized  operator of the current owner.",
						"params": {
							"approved": "The new approved NFT controller",
							"tokenId": "The NFT to approve"
						}
					},
					"balanceOf(address)": {
						"details": "NFTs assigned to the zero address are considered invalid, and this  function throws for queries about the zero address.",
						"params": {
							"owner": "An address for whom to query the balance"
						},
						"returns": {
							"_0": "The number of NFTs owned by `_owner`, possibly zero"
						}
					},
					"getApproved(uint256)": {
						"details": "Throws if `_tokenId` is not a valid NFT.",
						"params": {
							"tokenId": "The NFT to find the approved address for"
						},
						"returns": {
							"_0": "The approved address for this NFT, or the zero address if there is none"
						}
					},
					"isApprovedForAll(address,address)": {
						"params": {
							"operator": "The address that acts on behalf of the owner",
							"owner": "The address that owns the NFTs"
						},
						"returns": {
							"_0": "True if `_operator` is an approved operator for `_owner`, false otherwise"
						}
					},
					"ownerOf(uint256)": {
						"details": "NFTs assigned to zero address are considered invalid, and queries  about them do throw.",
						"params": {
							"tokenId": "The identifier for an NFT"
						},
						"returns": {
							"_0": "The address of the owner of the NFT"
						}
					},
					"safeTransferFrom(address,address,uint256)": {
						"details": "This works identically to the other function with an extra data parameter,  except this function just sets data to \"\".",
						"params": {
							"from": "The current owner of the NFT",
							"to": "The new owner",
							"tokenId": "The NFT to transfer"
						}
					},
					"safeTransferFrom(address,address,uint256,bytes)": {
						"details": "Throws unless `msg.sender` is the current owner, an authorized  operator, or the approved address for this NFT. Throws if `_from` is  not the current owner. Throws if `_to` is the zero address. Throws if  `_tokenId` is not a valid NFT. When transfer is complete, this function  checks if `_to` is a smart contract (code size > 0). If so, it calls  `onERC721Received` on `_to` and throws if the return value is not  `bytes4(keccak256(\"onERC721Received(address,address,uint256,bytes)\"))`.",
						"params": {
							"data": "Additional data with no specified format, sent in call to `_to`",
							"from": "The current owner of the NFT",
							"to": "The new owner",
							"tokenId": "The NFT to transfer"
						}
					},
					"setApprovalForAll(address,bool)": {
						"details": "Emits the ApprovalForAll event. The contract MUST allow  multiple operators per owner.",
						"params": {
							"approved": "True if the operator is approved, false to revoke approval",
							"operator": "Address to add to the set of authorized operators"
						}
					},
					"supportsInterface(bytes4)": {
						"details": "Interface identification is specified in ERC-165. This function  uses less than 30,000 gas.",
						"params": {
							"interfaceID": "The interface identifier, as specified in ERC-165"
						},
						"returns": {
							"_0": "`true` if the contract implements `interfaceID` and  `interfaceID` is not 0xffffffff, `false` otherwise"
						}
					},
					"tokenURI(uint256)": {
						"details": "Throws if `_tokenId` is not a valid NFT. URIs are defined in RFC  3986. The URI may point to a JSON file that conforms to the \"ERC721  Metadata JSON Schema\"."
					},
					"transferFrom(address,address,uint256)": {
						"details": "Throws unless `msg.sender` is the current owner, an authorized  operator, or the approved address for this NFT. Throws if `_from` is  not the current owner. Throws if `_to` is the zero address. Throws if  `_tokenId` is not a valid NFT.",
						"params": {
							"from": "The current owner of the NFT",
							"to": "The new owner",
							"tokenId": "The NFT to transfer"
						}
					}
				},
				"version": 1
			},
			"evm": {
				"assembly": "    /* \"mokkozi/week3/erc721.sol\":7184:11989  contract minionToken is ERC721, ERC721Metadata... */\n  mstore(0x40, 0x80)\n    /* \"mokkozi/week3/erc721.sol\":7271:7305  string public tokenName = \"minion\" */\n  mload(0x40)\n  dup1\n  0x40\n  add\n  0x40\n  mstore\n  dup1\n  0x06\n  dup2\n  mstore\n  0x20\n  add\n  0x6d696e696f6e0000000000000000000000000000000000000000000000000000\n  dup2\n  mstore\n  pop\n  0x00\n  swap1\n  dup1\n  mload\n  swap1\n  0x20\n  add\n  swap1\n  tag_1\n  swap3\n  swap2\n  swap1\n  tag_2\n  jump\t// in\ntag_1:\n  pop\n    /* \"mokkozi/week3/erc721.sol\":7311:7344  string public tokenSymbol = \"MIN\" */\n  mload(0x40)\n  dup1\n  0x40\n  add\n  0x40\n  mstore\n  dup1\n  0x03\n  dup2\n  mstore\n  0x20\n  add\n  0x4d494e0000000000000000000000000000000000000000000000000000000000\n  dup2\n  mstore\n  pop\n  0x01\n  swap1\n  dup1\n  mload\n  swap1\n  0x20\n  add\n  swap1\n  tag_3\n  swap3\n  swap2\n  swap1\n  tag_2\n  jump\t// in\ntag_3:\n  pop\n    /* \"mokkozi/week3/erc721.sol\":7184:11989  contract minionToken is ERC721, ERC721Metadata... */\n  callvalue\n  dup1\n  iszero\n  tag_4\n  jumpi\n  0x00\n  dup1\n  revert\ntag_4:\n  pop\n  jump(tag_5)\ntag_2:\n  dup3\n  dup1\n  sload\n  tag_6\n  swap1\n  tag_7\n  jump\t// in\ntag_6:\n  swap1\n  0x00\n  mstore\n  keccak256(0x00, 0x20)\n  swap1\n  0x1f\n  add\n  0x20\n  swap1\n  div\n  dup2\n  add\n  swap3\n  dup3\n  tag_9\n  jumpi\n  0x00\n  dup6\n  sstore\n  jump(tag_8)\ntag_9:\n  dup3\n  0x1f\n  lt\n  tag_10\n  jumpi\n  dup1\n  mload\n  not(0xff)\n  and\n  dup4\n  dup1\n  add\n  or\n  dup6\n  sstore\n  jump(tag_8)\ntag_10:\n  dup3\n  dup1\n  add\n  0x01\n  add\n  dup6\n  sstore\n  dup3\n  iszero\n  tag_8\n  jumpi\n  swap2\n  dup3\n  add\ntag_11:\n  dup3\n  dup2\n  gt\n  iszero\n  tag_12\n  jumpi\n  dup3\n  mload\n  dup3\n  sstore\n  swap2\n  0x20\n  add\n  swap2\n  swap1\n  0x01\n  add\n  swap1\n  jump(tag_11)\ntag_12:\ntag_8:\n  pop\n  swap1\n  pop\n  tag_13\n  swap2\n  swap1\n  tag_14\n  jump\t// in\ntag_13:\n  pop\n  swap1\n  jump\t// out\ntag_14:\ntag_15:\n  dup1\n  dup3\n  gt\n  iszero\n  tag_16\n  jumpi\n  0x00\n  dup2\n  0x00\n  swap1\n  sstore\n  pop\n  0x01\n  add\n  jump(tag_15)\ntag_16:\n  pop\n  swap1\n  jump\t// out\n    /* \"#utility.yul\":7:327   */\ntag_7:\n    /* \"#utility.yul\":51:57   */\n  0x00\n    /* \"#utility.yul\":88:89   */\n  0x02\n    /* \"#utility.yul\":82:86   */\n  dup3\n    /* \"#utility.yul\":78:90   */\n  div\n    /* \"#utility.yul\":68:90   */\n  swap1\n  pop\n    /* \"#utility.yul\":135:136   */\n  0x01\n    /* \"#utility.yul\":129:133   */\n  dup3\n    /* \"#utility.yul\":125:137   */\n  and\n    /* \"#utility.yul\":156:174   */\n  dup1\n    /* \"#utility.yul\":146:227   */\n  tag_19\n  jumpi\n    /* \"#utility.yul\":212:216   */\n  0x7f\n    /* \"#utility.yul\":204:210   */\n  dup3\n    /* \"#utility.yul\":200:217   */\n  and\n    /* \"#utility.yul\":190:217   */\n  swap2\n  pop\n    /* \"#utility.yul\":146:227   */\ntag_19:\n    /* \"#utility.yul\":274:276   */\n  0x20\n    /* \"#utility.yul\":266:272   */\n  dup3\n    /* \"#utility.yul\":263:277   */\n  lt\n    /* \"#utility.yul\":243:261   */\n  dup2\n    /* \"#utility.yul\":240:278   */\n  eq\n    /* \"#utility.yul\":237:321   */\n  iszero\n  tag_20\n  jumpi\n    /* \"#utility.yul\":293:311   */\n  tag_21\n  tag_22\n  jump\t// in\ntag_21:\n    /* \"#utility.yul\":237:321   */\ntag_20:\n    /* \"#utility.yul\":58:327   */\n  pop\n    /* \"#utility.yul\":7:327   */\n  swap2\n  swap1\n  pop\n  jump\t// out\n    /* \"#utility.yul\":333:513   */\ntag_22:\n    /* \"#utility.yul\":381:458   */\n  0x4e487b7100000000000000000000000000000000000000000000000000000000\n    /* \"#utility.yul\":378:379   */\n  0x00\n    /* \"#utility.yul\":371:459   */\n  mstore\n    /* \"#utility.yul\":478:482   */\n  0x22\n    /* \"#utility.yul\":475:476   */\n  0x04\n    /* \"#utility.yul\":468:483   */\n  mstore\n    /* \"#utility.yul\":502:506   */\n  0x24\n    /* \"#utility.yul\":499:500   */\n  0x00\n    /* \"#utility.yul\":492:507   */\n  revert\n    /* \"mokkozi/week3/erc721.sol\":7184:11989  contract minionToken is ERC721, ERC721Metadata... */\ntag_5:\n  dataSize(sub_0)\n  dup1\n  dataOffset(sub_0)\n  0x00\n  codecopy\n  0x00\n  return\nstop\n\nsub_0: assembly {\n        /* \"mokkozi/week3/erc721.sol\":7184:11989  contract minionToken is ERC721, ERC721Metadata... */\n      mstore(0x40, 0x80)\n      jumpi(tag_1, lt(calldatasize, 0x04))\n      shr(0xe0, calldataload(0x00))\n      dup1\n      0x6c02a931\n      gt\n      tag_19\n      jumpi\n      dup1\n      0xa22cb465\n      gt\n      tag_20\n      jumpi\n      dup1\n      0xa22cb465\n      eq\n      tag_14\n      jumpi\n      dup1\n      0xb88d4fde\n      eq\n      tag_15\n      jumpi\n      dup1\n      0xc87b56dd\n      eq\n      tag_16\n      jumpi\n      dup1\n      0xd3fc9864\n      eq\n      tag_17\n      jumpi\n      dup1\n      0xe985e9c5\n      eq\n      tag_18\n      jumpi\n      jump(tag_1)\n    tag_20:\n      dup1\n      0x6c02a931\n      eq\n      tag_10\n      jumpi\n      dup1\n      0x70a08231\n      eq\n      tag_11\n      jumpi\n      dup1\n      0x7b61c320\n      eq\n      tag_12\n      jumpi\n      dup1\n      0x95d89b41\n      eq\n      tag_13\n      jumpi\n      jump(tag_1)\n    tag_19:\n      dup1\n      0x162094c4\n      gt\n      tag_21\n      jumpi\n      dup1\n      0x162094c4\n      eq\n      tag_6\n      jumpi\n      dup1\n      0x23b872dd\n      eq\n      tag_7\n      jumpi\n      dup1\n      0x42842e0e\n      eq\n      tag_8\n      jumpi\n      dup1\n      0x6352211e\n      eq\n      tag_9\n      jumpi\n      jump(tag_1)\n    tag_21:\n      dup1\n      0x01ffc9a7\n      eq\n      tag_2\n      jumpi\n      dup1\n      0x06fdde03\n      eq\n      tag_3\n      jumpi\n      dup1\n      0x081812fc\n      eq\n      tag_4\n      jumpi\n      dup1\n      0x095ea7b3\n      eq\n      tag_5\n      jumpi\n    tag_1:\n      0x00\n      dup1\n      revert\n        /* \"mokkozi/week3/erc721.sol\":7676:8105  function supportsInterface(bytes4 interfaceID) public override pure returns(bool)... */\n    tag_2:\n      callvalue\n      dup1\n      iszero\n      tag_22\n      jumpi\n      0x00\n      dup1\n      revert\n    tag_22:\n      pop\n      tag_23\n      0x04\n      dup1\n      calldatasize\n      sub\n      dup2\n      add\n      swap1\n      tag_24\n      swap2\n      swap1\n      tag_25\n      jump\t// in\n    tag_24:\n      tag_26\n      jump\t// in\n    tag_23:\n      mload(0x40)\n      tag_27\n      swap2\n      swap1\n      tag_28\n      jump\t// in\n    tag_27:\n      mload(0x40)\n      dup1\n      swap2\n      sub\n      swap1\n      return\n        /* \"mokkozi/week3/erc721.sol\":8110:8214  function name() public override view returns (string memory _name)... */\n    tag_3:\n      callvalue\n      dup1\n      iszero\n      tag_29\n      jumpi\n      0x00\n      dup1\n      revert\n    tag_29:\n      pop\n      tag_30\n      tag_31\n      jump\t// in\n    tag_30:\n      mload(0x40)\n      tag_32\n      swap2\n      swap1\n      tag_33\n      jump\t// in\n    tag_32:\n      mload(0x40)\n      dup1\n      swap2\n      sub\n      swap1\n      return\n        /* \"mokkozi/week3/erc721.sol\":11231:11361  function getApproved(uint256 tokenId) public override view returns (address)... */\n    tag_4:\n      callvalue\n      dup1\n      iszero\n      tag_34\n      jumpi\n      0x00\n      dup1\n      revert\n    tag_34:\n      pop\n      tag_35\n      0x04\n      dup1\n      calldatasize\n      sub\n      dup2\n      add\n      swap1\n      tag_36\n      swap2\n      swap1\n      tag_37\n      jump\t// in\n    tag_36:\n      tag_38\n      jump\t// in\n    tag_35:\n      mload(0x40)\n      tag_39\n      swap2\n      swap1\n      tag_40\n      jump\t// in\n    tag_39:\n      mload(0x40)\n      dup1\n      swap2\n      sub\n      swap1\n      return\n        /* \"mokkozi/week3/erc721.sol\":10718:11225  function approve(address approved, uint256 tokenId) public override payable... */\n    tag_5:\n      tag_41\n      0x04\n      dup1\n      calldatasize\n      sub\n      dup2\n      add\n      swap1\n      tag_42\n      swap2\n      swap1\n      tag_43\n      jump\t// in\n    tag_42:\n      tag_44\n      jump\t// in\n    tag_41:\n      stop\n        /* \"mokkozi/week3/erc721.sol\":11801:11987  function setTokenURI(uint256 tokenId, string memory uri) public... */\n    tag_6:\n      callvalue\n      dup1\n      iszero\n      tag_45\n      jumpi\n      0x00\n      dup1\n      revert\n    tag_45:\n      pop\n      tag_46\n      0x04\n      dup1\n      calldatasize\n      sub\n      dup2\n      add\n      swap1\n      tag_47\n      swap2\n      swap1\n      tag_48\n      jump\t// in\n    tag_47:\n      tag_49\n      jump\t// in\n    tag_46:\n      stop\n        /* \"mokkozi/week3/erc721.sol\":8733:8878  function transferFrom(address from, address to, uint256 tokenId) public override payable... */\n    tag_7:\n      tag_50\n      0x04\n      dup1\n      calldatasize\n      sub\n      dup2\n      add\n      swap1\n      tag_51\n      swap2\n      swap1\n      tag_52\n      jump\t// in\n    tag_51:\n      tag_53\n      jump\t// in\n    tag_50:\n      stop\n        /* \"mokkozi/week3/erc721.sol\":9062:10009  function safeTransferFrom(address from, address to, uint256 tokenId) public override payable... */\n    tag_8:\n      tag_54\n      0x04\n      dup1\n      calldatasize\n      sub\n      dup2\n      add\n      swap1\n      tag_55\n      swap2\n      swap1\n      tag_52\n      jump\t// in\n    tag_55:\n      tag_56\n      jump\t// in\n    tag_54:\n      stop\n        /* \"mokkozi/week3/erc721.sol\":8603:8727  function ownerOf(uint256 tokenId) public override view returns (address)... */\n    tag_9:\n      callvalue\n      dup1\n      iszero\n      tag_57\n      jumpi\n      0x00\n      dup1\n      revert\n    tag_57:\n      pop\n      tag_58\n      0x04\n      dup1\n      calldatasize\n      sub\n      dup2\n      add\n      swap1\n      tag_59\n      swap2\n      swap1\n      tag_37\n      jump\t// in\n    tag_59:\n      tag_60\n      jump\t// in\n    tag_58:\n      mload(0x40)\n      tag_61\n      swap2\n      swap1\n      tag_40\n      jump\t// in\n    tag_61:\n      mload(0x40)\n      dup1\n      swap2\n      sub\n      swap1\n      return\n        /* \"mokkozi/week3/erc721.sol\":7271:7305  string public tokenName = \"minion\" */\n    tag_10:\n      callvalue\n      dup1\n      iszero\n      tag_62\n      jumpi\n      0x00\n      dup1\n      revert\n    tag_62:\n      pop\n      tag_63\n      tag_64\n      jump\t// in\n    tag_63:\n      mload(0x40)\n      tag_65\n      swap2\n      swap1\n      tag_33\n      jump\t// in\n    tag_65:\n      mload(0x40)\n      dup1\n      swap2\n      sub\n      swap1\n      return\n        /* \"mokkozi/week3/erc721.sol\":8475:8597  function balanceOf(address owner) public override view returns (uint256)... */\n    tag_11:\n      callvalue\n      dup1\n      iszero\n      tag_66\n      jumpi\n      0x00\n      dup1\n      revert\n    tag_66:\n      pop\n      tag_67\n      0x04\n      dup1\n      calldatasize\n      sub\n      dup2\n      add\n      swap1\n      tag_68\n      swap2\n      swap1\n      tag_69\n      jump\t// in\n    tag_68:\n      tag_70\n      jump\t// in\n    tag_67:\n      mload(0x40)\n      tag_71\n      swap2\n      swap1\n      tag_72\n      jump\t// in\n    tag_71:\n      mload(0x40)\n      dup1\n      swap2\n      sub\n      swap1\n      return\n        /* \"mokkozi/week3/erc721.sol\":7311:7344  string public tokenSymbol = \"MIN\" */\n    tag_12:\n      callvalue\n      dup1\n      iszero\n      tag_73\n      jumpi\n      0x00\n      dup1\n      revert\n    tag_73:\n      pop\n      tag_74\n      tag_75\n      jump\t// in\n    tag_74:\n      mload(0x40)\n      tag_76\n      swap2\n      swap1\n      tag_33\n      jump\t// in\n    tag_76:\n      mload(0x40)\n      dup1\n      swap2\n      sub\n      swap1\n      return\n        /* \"mokkozi/week3/erc721.sol\":8220:8330  function symbol() public override view returns (string memory _symbol)... */\n    tag_13:\n      callvalue\n      dup1\n      iszero\n      tag_77\n      jumpi\n      0x00\n      dup1\n      revert\n    tag_77:\n      pop\n      tag_78\n      tag_79\n      jump\t// in\n    tag_78:\n      mload(0x40)\n      tag_80\n      swap2\n      swap1\n      tag_33\n      jump\t// in\n    tag_80:\n      mload(0x40)\n      dup1\n      swap2\n      sub\n      swap1\n      return\n        /* \"mokkozi/week3/erc721.sol\":11367:11634  function setApprovalForAll(address operator, bool approved) public override... */\n    tag_14:\n      callvalue\n      dup1\n      iszero\n      tag_81\n      jumpi\n      0x00\n      dup1\n      revert\n    tag_81:\n      pop\n      tag_82\n      0x04\n      dup1\n      calldatasize\n      sub\n      dup2\n      add\n      swap1\n      tag_83\n      swap2\n      swap1\n      tag_84\n      jump\t// in\n    tag_83:\n      tag_85\n      jump\t// in\n    tag_82:\n      stop\n        /* \"mokkozi/week3/erc721.sol\":8884:9056  function safeTransferFrom(address from, address to, uint256 tokenId, bytes memory data) public override payable... */\n    tag_15:\n      tag_86\n      0x04\n      dup1\n      calldatasize\n      sub\n      dup2\n      add\n      swap1\n      tag_87\n      swap2\n      swap1\n      tag_88\n      jump\t// in\n    tag_87:\n      tag_89\n      jump\t// in\n    tag_86:\n      stop\n        /* \"mokkozi/week3/erc721.sol\":8336:8464  function tokenURI(uint256 _tokenId) public override view returns (string memory)... */\n    tag_16:\n      callvalue\n      dup1\n      iszero\n      tag_90\n      jumpi\n      0x00\n      dup1\n      revert\n    tag_90:\n      pop\n      tag_91\n      0x04\n      dup1\n      calldatasize\n      sub\n      dup2\n      add\n      swap1\n      tag_92\n      swap2\n      swap1\n      tag_37\n      jump\t// in\n    tag_92:\n      tag_93\n      jump\t// in\n    tag_91:\n      mload(0x40)\n      tag_94\n      swap2\n      swap1\n      tag_33\n      jump\t// in\n    tag_94:\n      mload(0x40)\n      dup1\n      swap2\n      sub\n      swap1\n      return\n        /* \"mokkozi/week3/erc721.sol\":10289:10602  function mint(address to, uint256 tokenId, string memory uri) public... */\n    tag_17:\n      callvalue\n      dup1\n      iszero\n      tag_95\n      jumpi\n      0x00\n      dup1\n      revert\n    tag_95:\n      pop\n      tag_96\n      0x04\n      dup1\n      calldatasize\n      sub\n      dup2\n      add\n      swap1\n      tag_97\n      swap2\n      swap1\n      tag_98\n      jump\t// in\n    tag_97:\n      tag_99\n      jump\t// in\n    tag_96:\n      stop\n        /* \"mokkozi/week3/erc721.sol\":11640:11795  function isApprovedForAll(address owner, address operator) public override view returns (bool)... */\n    tag_18:\n      callvalue\n      dup1\n      iszero\n      tag_100\n      jumpi\n      0x00\n      dup1\n      revert\n    tag_100:\n      pop\n      tag_101\n      0x04\n      dup1\n      calldatasize\n      sub\n      dup2\n      add\n      swap1\n      tag_102\n      swap2\n      swap1\n      tag_103\n      jump\t// in\n    tag_102:\n      tag_104\n      jump\t// in\n    tag_101:\n      mload(0x40)\n      tag_105\n      swap2\n      swap1\n      tag_28\n      jump\t// in\n    tag_105:\n      mload(0x40)\n      dup1\n      swap2\n      sub\n      swap1\n      return\n        /* \"mokkozi/week3/erc721.sol\":7676:8105  function supportsInterface(bytes4 interfaceID) public override pure returns(bool)... */\n    tag_26:\n        /* \"mokkozi/week3/erc721.sol\":7752:7756  bool */\n      0x00\n        /* \"mokkozi/week3/erc721.sol\":7791:7815  type(ERC165).interfaceId */\n      0x01ffc9a700000000000000000000000000000000000000000000000000000000\n        /* \"mokkozi/week3/erc721.sol\":7776:7815  interfaceID == type(ERC165).interfaceId */\n      not(0xffffffffffffffffffffffffffffffffffffffffffffffffffffffff)\n      and\n        /* \"mokkozi/week3/erc721.sol\":7776:7787  interfaceID */\n      dup3\n        /* \"mokkozi/week3/erc721.sol\":7776:7815  interfaceID == type(ERC165).interfaceId */\n      not(0xffffffffffffffffffffffffffffffffffffffffffffffffffffffff)\n      and\n      eq\n        /* \"mokkozi/week3/erc721.sol\":7772:8077  if (interfaceID == type(ERC165).interfaceId)... */\n      iszero\n      tag_107\n      jumpi\n        /* \"mokkozi/week3/erc721.sol\":7846:7850  true */\n      0x01\n        /* \"mokkozi/week3/erc721.sol\":7839:7850  return true */\n      swap1\n      pop\n      jump(tag_106)\n        /* \"mokkozi/week3/erc721.sol\":7772:8077  if (interfaceID == type(ERC165).interfaceId)... */\n    tag_107:\n        /* \"mokkozi/week3/erc721.sol\":7895:7919  type(ERC721).interfaceId */\n      0x80ac58cd00000000000000000000000000000000000000000000000000000000\n        /* \"mokkozi/week3/erc721.sol\":7880:7919  interfaceID == type(ERC721).interfaceId */\n      not(0xffffffffffffffffffffffffffffffffffffffffffffffffffffffff)\n      and\n        /* \"mokkozi/week3/erc721.sol\":7880:7891  interfaceID */\n      dup3\n        /* \"mokkozi/week3/erc721.sol\":7880:7919  interfaceID == type(ERC721).interfaceId */\n      not(0xffffffffffffffffffffffffffffffffffffffffffffffffffffffff)\n      and\n      eq\n        /* \"mokkozi/week3/erc721.sol\":7875:8077  if ( interfaceID == type(ERC721).interfaceId)... */\n      iszero\n      tag_109\n      jumpi\n        /* \"mokkozi/week3/erc721.sol\":7950:7954  true */\n      0x01\n        /* \"mokkozi/week3/erc721.sol\":7943:7954  return true */\n      swap1\n      pop\n      jump(tag_106)\n        /* \"mokkozi/week3/erc721.sol\":7875:8077  if ( interfaceID == type(ERC721).interfaceId)... */\n    tag_109:\n        /* \"mokkozi/week3/erc721.sol\":7999:8031  type(ERC721Metadata).interfaceId */\n      0x5b5e139f00000000000000000000000000000000000000000000000000000000\n        /* \"mokkozi/week3/erc721.sol\":7984:8031  interfaceID == type(ERC721Metadata).interfaceId */\n      not(0xffffffffffffffffffffffffffffffffffffffffffffffffffffffff)\n      and\n        /* \"mokkozi/week3/erc721.sol\":7984:7995  interfaceID */\n      dup3\n        /* \"mokkozi/week3/erc721.sol\":7984:8031  interfaceID == type(ERC721Metadata).interfaceId */\n      not(0xffffffffffffffffffffffffffffffffffffffffffffffffffffffff)\n      and\n      eq\n        /* \"mokkozi/week3/erc721.sol\":7979:8077  if ( interfaceID == type(ERC721Metadata).interfaceId)... */\n      iszero\n      tag_111\n      jumpi\n        /* \"mokkozi/week3/erc721.sol\":8062:8066  true */\n      0x01\n        /* \"mokkozi/week3/erc721.sol\":8055:8066  return true */\n      swap1\n      pop\n      jump(tag_106)\n        /* \"mokkozi/week3/erc721.sol\":7979:8077  if ( interfaceID == type(ERC721Metadata).interfaceId)... */\n    tag_111:\n        /* \"mokkozi/week3/erc721.sol\":8093:8098  false */\n      0x00\n        /* \"mokkozi/week3/erc721.sol\":8086:8098  return false */\n      swap1\n      pop\n        /* \"mokkozi/week3/erc721.sol\":7676:8105  function supportsInterface(bytes4 interfaceID) public override pure returns(bool)... */\n    tag_106:\n      swap2\n      swap1\n      pop\n      jump\t// out\n        /* \"mokkozi/week3/erc721.sol\":8110:8214  function name() public override view returns (string memory _name)... */\n    tag_31:\n        /* \"mokkozi/week3/erc721.sol\":8156:8175  string memory _name */\n      0x60\n        /* \"mokkozi/week3/erc721.sol\":8198:8207  tokenName */\n      0x00\n        /* \"mokkozi/week3/erc721.sol\":8191:8207  return tokenName */\n      dup1\n      sload\n      tag_113\n      swap1\n      tag_114\n      jump\t// in\n    tag_113:\n      dup1\n      0x1f\n      add\n      0x20\n      dup1\n      swap2\n      div\n      mul\n      0x20\n      add\n      mload(0x40)\n      swap1\n      dup2\n      add\n      0x40\n      mstore\n      dup1\n      swap3\n      swap2\n      swap1\n      dup2\n      dup2\n      mstore\n      0x20\n      add\n      dup3\n      dup1\n      sload\n      tag_115\n      swap1\n      tag_114\n      jump\t// in\n    tag_115:\n      dup1\n      iszero\n      tag_116\n      jumpi\n      dup1\n      0x1f\n      lt\n      tag_117\n      jumpi\n      0x0100\n      dup1\n      dup4\n      sload\n      div\n      mul\n      dup4\n      mstore\n      swap2\n      0x20\n      add\n      swap2\n      jump(tag_116)\n    tag_117:\n      dup3\n      add\n      swap2\n      swap1\n      0x00\n      mstore\n      keccak256(0x00, 0x20)\n      swap1\n    tag_118:\n      dup2\n      sload\n      dup2\n      mstore\n      swap1\n      0x01\n      add\n      swap1\n      0x20\n      add\n      dup1\n      dup4\n      gt\n      tag_118\n      jumpi\n      dup3\n      swap1\n      sub\n      0x1f\n      and\n      dup3\n      add\n      swap2\n    tag_116:\n      pop\n      pop\n      pop\n      pop\n      pop\n      swap1\n      pop\n        /* \"mokkozi/week3/erc721.sol\":8110:8214  function name() public override view returns (string memory _name)... */\n      swap1\n      jump\t// out\n        /* \"mokkozi/week3/erc721.sol\":11231:11361  function getApproved(uint256 tokenId) public override view returns (address)... */\n    tag_38:\n        /* \"mokkozi/week3/erc721.sol\":11299:11306  address */\n      0x00\n        /* \"mokkozi/week3/erc721.sol\":11329:11345  approveOfTokenId */\n      0x05\n        /* \"mokkozi/week3/erc721.sol\":11329:11354  approveOfTokenId[tokenId] */\n      0x00\n        /* \"mokkozi/week3/erc721.sol\":11346:11353  tokenId */\n      dup4\n        /* \"mokkozi/week3/erc721.sol\":11329:11354  approveOfTokenId[tokenId] */\n      dup2\n      mstore\n      0x20\n      add\n      swap1\n      dup2\n      mstore\n      0x20\n      add\n      0x00\n      keccak256\n      0x00\n      swap1\n      sload\n      swap1\n      0x0100\n      exp\n      swap1\n      div\n      0xffffffffffffffffffffffffffffffffffffffff\n      and\n        /* \"mokkozi/week3/erc721.sol\":11322:11354  return approveOfTokenId[tokenId] */\n      swap1\n      pop\n        /* \"mokkozi/week3/erc721.sol\":11231:11361  function getApproved(uint256 tokenId) public override view returns (address)... */\n      swap2\n      swap1\n      pop\n      jump\t// out\n        /* \"mokkozi/week3/erc721.sol\":10718:11225  function approve(address approved, uint256 tokenId) public override payable... */\n    tag_44:\n        /* \"mokkozi/week3/erc721.sol\":10857:10875  address tokenOwner */\n      0x00\n        /* \"mokkozi/week3/erc721.sol\":10878:10892  ownerByTokenId */\n      0x04\n        /* \"mokkozi/week3/erc721.sol\":10878:10901  ownerByTokenId[tokenId] */\n      0x00\n        /* \"mokkozi/week3/erc721.sol\":10893:10900  tokenId */\n      dup4\n        /* \"mokkozi/week3/erc721.sol\":10878:10901  ownerByTokenId[tokenId] */\n      dup2\n      mstore\n      0x20\n      add\n      swap1\n      dup2\n      mstore\n      0x20\n      add\n      0x00\n      keccak256\n      0x00\n      swap1\n      sload\n      swap1\n      0x0100\n      exp\n      swap1\n      div\n      0xffffffffffffffffffffffffffffffffffffffff\n      and\n        /* \"mokkozi/week3/erc721.sol\":10857:10901  address tokenOwner = ownerByTokenId[tokenId] */\n      swap1\n      pop\n        /* \"mokkozi/week3/erc721.sol\":10982:10983  0 */\n      0x00\n        /* \"mokkozi/week3/erc721.sol\":10960:10984  tokenOwner != address(0) */\n      0xffffffffffffffffffffffffffffffffffffffff\n      and\n        /* \"mokkozi/week3/erc721.sol\":10960:10970  tokenOwner */\n      dup2\n        /* \"mokkozi/week3/erc721.sol\":10960:10984  tokenOwner != address(0) */\n      0xffffffffffffffffffffffffffffffffffffffff\n      and\n      eq\n      iszero\n        /* \"mokkozi/week3/erc721.sol\":10952:10999  require(tokenOwner != address(0), \"not minted\") */\n      tag_121\n      jumpi\n      mload(0x40)\n      0x08c379a000000000000000000000000000000000000000000000000000000000\n      dup2\n      mstore\n      0x04\n      add\n      tag_122\n      swap1\n      tag_123\n      jump\t// in\n    tag_122:\n      mload(0x40)\n      dup1\n      swap2\n      sub\n      swap1\n      revert\n    tag_121:\n        /* \"mokkozi/week3/erc721.sol\":11089:11099  msg.sender */\n      caller\n        /* \"mokkozi/week3/erc721.sol\":11075:11099  tokenOwner == msg.sender */\n      0xffffffffffffffffffffffffffffffffffffffff\n      and\n        /* \"mokkozi/week3/erc721.sol\":11075:11085  tokenOwner */\n      dup2\n        /* \"mokkozi/week3/erc721.sol\":11075:11099  tokenOwner == msg.sender */\n      0xffffffffffffffffffffffffffffffffffffffff\n      and\n      eq\n        /* \"mokkozi/week3/erc721.sol\":11067:11118  require(tokenOwner == msg.sender, \"now permission\") */\n      tag_124\n      jumpi\n      mload(0x40)\n      0x08c379a000000000000000000000000000000000000000000000000000000000\n      dup2\n      mstore\n      0x04\n      add\n      tag_125\n      swap1\n      tag_126\n      jump\t// in\n    tag_125:\n      mload(0x40)\n      dup1\n      swap2\n      sub\n      swap1\n      revert\n    tag_124:\n        /* \"mokkozi/week3/erc721.sol\":11156:11164  approved */\n      dup3\n        /* \"mokkozi/week3/erc721.sol\":11128:11144  approveOfTokenId */\n      0x05\n        /* \"mokkozi/week3/erc721.sol\":11128:11153  approveOfTokenId[tokenId] */\n      0x00\n        /* \"mokkozi/week3/erc721.sol\":11145:11152  tokenId */\n      dup5\n        /* \"mokkozi/week3/erc721.sol\":11128:11153  approveOfTokenId[tokenId] */\n      dup2\n      mstore\n      0x20\n      add\n      swap1\n      dup2\n      mstore\n      0x20\n      add\n      0x00\n      keccak256\n      0x00\n        /* \"mokkozi/week3/erc721.sol\":11128:11164  approveOfTokenId[tokenId] = approved */\n      0x0100\n      exp\n      dup2\n      sload\n      dup2\n      0xffffffffffffffffffffffffffffffffffffffff\n      mul\n      not\n      and\n      swap1\n      dup4\n      0xffffffffffffffffffffffffffffffffffffffff\n      and\n      mul\n      or\n      swap1\n      sstore\n      pop\n        /* \"mokkozi/week3/erc721.sol\":11210:11217  tokenId */\n      dup2\n        /* \"mokkozi/week3/erc721.sol\":11200:11208  approved */\n      dup4\n        /* \"mokkozi/week3/erc721.sol\":11179:11218  Approval(tokenOwner, approved, tokenId) */\n      0xffffffffffffffffffffffffffffffffffffffff\n      and\n        /* \"mokkozi/week3/erc721.sol\":11188:11198  tokenOwner */\n      dup3\n        /* \"mokkozi/week3/erc721.sol\":11179:11218  Approval(tokenOwner, approved, tokenId) */\n      0xffffffffffffffffffffffffffffffffffffffff\n      and\n      0x8c5be1e5ebec7d5bd14f71427d1e84f3dd0314c0f7b2291e5b200ac8c7c3b925\n      mload(0x40)\n      mload(0x40)\n      dup1\n      swap2\n      sub\n      swap1\n      log4\n        /* \"mokkozi/week3/erc721.sol\":10798:11225  {   // 소유권 이전의 원래 소유자 주소... */\n      pop\n        /* \"mokkozi/week3/erc721.sol\":10718:11225  function approve(address approved, uint256 tokenId) public override payable... */\n      pop\n      pop\n      jump\t// out\n        /* \"mokkozi/week3/erc721.sol\":11801:11987  function setTokenURI(uint256 tokenId, string memory uri) public... */\n    tag_49:\n        /* \"mokkozi/week3/erc721.sol\":11879:11897  address tokenOwner */\n      0x00\n        /* \"mokkozi/week3/erc721.sol\":11900:11914  ownerByTokenId */\n      0x04\n        /* \"mokkozi/week3/erc721.sol\":11900:11923  ownerByTokenId[tokenId] */\n      0x00\n        /* \"mokkozi/week3/erc721.sol\":11915:11922  tokenId */\n      dup5\n        /* \"mokkozi/week3/erc721.sol\":11900:11923  ownerByTokenId[tokenId] */\n      dup2\n      mstore\n      0x20\n      add\n      swap1\n      dup2\n      mstore\n      0x20\n      add\n      0x00\n      keccak256\n      0x00\n      swap1\n      sload\n      swap1\n      0x0100\n      exp\n      swap1\n      div\n      0xffffffffffffffffffffffffffffffffffffffff\n      and\n        /* \"mokkozi/week3/erc721.sol\":11879:11923  address tokenOwner = ownerByTokenId[tokenId] */\n      swap1\n      pop\n        /* \"mokkozi/week3/erc721.sol\":11963:11964  0 */\n      0x00\n        /* \"mokkozi/week3/erc721.sol\":11941:11965  tokenOwner != address(0) */\n      0xffffffffffffffffffffffffffffffffffffffff\n      and\n        /* \"mokkozi/week3/erc721.sol\":11941:11951  tokenOwner */\n      dup2\n        /* \"mokkozi/week3/erc721.sol\":11941:11965  tokenOwner != address(0) */\n      0xffffffffffffffffffffffffffffffffffffffff\n      and\n      eq\n      iszero\n        /* \"mokkozi/week3/erc721.sol\":11933:11980  require(tokenOwner != address(0), \"not minted\") */\n      tag_128\n      jumpi\n      mload(0x40)\n      0x08c379a000000000000000000000000000000000000000000000000000000000\n      dup2\n      mstore\n      0x04\n      add\n      tag_129\n      swap1\n      tag_123\n      jump\t// in\n    tag_129:\n      mload(0x40)\n      dup1\n      swap2\n      sub\n      swap1\n      revert\n    tag_128:\n        /* \"mokkozi/week3/erc721.sol\":11869:11987  {... */\n      pop\n        /* \"mokkozi/week3/erc721.sol\":11801:11987  function setTokenURI(uint256 tokenId, string memory uri) public... */\n      pop\n      pop\n      jump\t// out\n        /* \"mokkozi/week3/erc721.sol\":8733:8878  function transferFrom(address from, address to, uint256 tokenId) public override payable... */\n    tag_53:\n        /* \"mokkozi/week3/erc721.sol\":8836:8871  safeTransferFrom(from, to, tokenId) */\n      tag_131\n        /* \"mokkozi/week3/erc721.sol\":8853:8857  from */\n      dup4\n        /* \"mokkozi/week3/erc721.sol\":8859:8861  to */\n      dup4\n        /* \"mokkozi/week3/erc721.sol\":8863:8870  tokenId */\n      dup4\n        /* \"mokkozi/week3/erc721.sol\":8836:8852  safeTransferFrom */\n      tag_56\n        /* \"mokkozi/week3/erc721.sol\":8836:8871  safeTransferFrom(from, to, tokenId) */\n      jump\t// in\n    tag_131:\n        /* \"mokkozi/week3/erc721.sol\":8733:8878  function transferFrom(address from, address to, uint256 tokenId) public override payable... */\n      pop\n      pop\n      pop\n      jump\t// out\n        /* \"mokkozi/week3/erc721.sol\":9062:10009  function safeTransferFrom(address from, address to, uint256 tokenId) public override payable... */\n    tag_56:\n        /* \"mokkozi/week3/erc721.sol\":9251:9252  0 */\n      0x00\n        /* \"mokkozi/week3/erc721.sol\":9237:9253  to != address(0) */\n      0xffffffffffffffffffffffffffffffffffffffff\n      and\n        /* \"mokkozi/week3/erc721.sol\":9237:9239  to */\n      dup3\n        /* \"mokkozi/week3/erc721.sol\":9237:9253  to != address(0) */\n      0xffffffffffffffffffffffffffffffffffffffff\n      and\n      eq\n      iszero\n        /* \"mokkozi/week3/erc721.sol\":9228:9276  require( to != address(0), \"invalid TO address\") */\n      tag_133\n      jumpi\n      mload(0x40)\n      0x08c379a000000000000000000000000000000000000000000000000000000000\n      dup2\n      mstore\n      0x04\n      add\n      tag_134\n      swap1\n      tag_135\n      jump\t// in\n    tag_134:\n      mload(0x40)\n      dup1\n      swap2\n      sub\n      swap1\n      revert\n    tag_133:\n        /* \"mokkozi/week3/erc721.sol\":9425:9443  address tokenOwner */\n      0x00\n        /* \"mokkozi/week3/erc721.sol\":9446:9460  ownerByTokenId */\n      0x04\n        /* \"mokkozi/week3/erc721.sol\":9446:9469  ownerByTokenId[tokenId] */\n      0x00\n        /* \"mokkozi/week3/erc721.sol\":9461:9468  tokenId */\n      dup4\n        /* \"mokkozi/week3/erc721.sol\":9446:9469  ownerByTokenId[tokenId] */\n      dup2\n      mstore\n      0x20\n      add\n      swap1\n      dup2\n      mstore\n      0x20\n      add\n      0x00\n      keccak256\n      0x00\n      swap1\n      sload\n      swap1\n      0x0100\n      exp\n      swap1\n      div\n      0xffffffffffffffffffffffffffffffffffffffff\n      and\n        /* \"mokkozi/week3/erc721.sol\":9425:9469  address tokenOwner = ownerByTokenId[tokenId] */\n      swap1\n      pop\n        /* \"mokkozi/week3/erc721.sol\":9510:9511  0 */\n      0x00\n        /* \"mokkozi/week3/erc721.sol\":9488:9512  tokenOwner != address(0) */\n      0xffffffffffffffffffffffffffffffffffffffff\n      and\n        /* \"mokkozi/week3/erc721.sol\":9488:9498  tokenOwner */\n      dup2\n        /* \"mokkozi/week3/erc721.sol\":9488:9512  tokenOwner != address(0) */\n      0xffffffffffffffffffffffffffffffffffffffff\n      and\n      eq\n      iszero\n        /* \"mokkozi/week3/erc721.sol\":9479:9532  require( tokenOwner != address(0), \"invalid tokenId\") */\n      tag_136\n      jumpi\n      mload(0x40)\n      0x08c379a000000000000000000000000000000000000000000000000000000000\n      dup2\n      mstore\n      0x04\n      add\n      tag_137\n      swap1\n      tag_138\n      jump\t// in\n    tag_137:\n      mload(0x40)\n      dup1\n      swap2\n      sub\n      swap1\n      revert\n    tag_136:\n        /* \"mokkozi/week3/erc721.sol\":9566:9570  from */\n      dup4\n        /* \"mokkozi/week3/erc721.sol\":9552:9570  tokenOwner == from */\n      0xffffffffffffffffffffffffffffffffffffffff\n      and\n        /* \"mokkozi/week3/erc721.sol\":9552:9562  tokenOwner */\n      dup2\n        /* \"mokkozi/week3/erc721.sol\":9552:9570  tokenOwner == from */\n      0xffffffffffffffffffffffffffffffffffffffff\n      and\n      eq\n        /* \"mokkozi/week3/erc721.sol\":9543:9583  require( tokenOwner == from, \"not Auth\") */\n      tag_139\n      jumpi\n      mload(0x40)\n      0x08c379a000000000000000000000000000000000000000000000000000000000\n      dup2\n      mstore\n      0x04\n      add\n      tag_140\n      swap1\n      tag_141\n      jump\t// in\n    tag_140:\n      mload(0x40)\n      dup1\n      swap2\n      sub\n      swap1\n      revert\n    tag_139:\n        /* \"mokkozi/week3/erc721.sol\":9611:9613  to */\n      dup3\n        /* \"mokkozi/week3/erc721.sol\":9603:9613  from != to */\n      0xffffffffffffffffffffffffffffffffffffffff\n      and\n        /* \"mokkozi/week3/erc721.sol\":9603:9607  from */\n      dup5\n        /* \"mokkozi/week3/erc721.sol\":9603:9613  from != to */\n      0xffffffffffffffffffffffffffffffffffffffff\n      and\n      eq\n      iszero\n        /* \"mokkozi/week3/erc721.sol\":9594:9643  require( from != to , \"you can tranfer yourself\") */\n      tag_142\n      jumpi\n      mload(0x40)\n      0x08c379a000000000000000000000000000000000000000000000000000000000\n      dup2\n      mstore\n      0x04\n      add\n      tag_143\n      swap1\n      tag_144\n      jump\t// in\n    tag_143:\n      mload(0x40)\n      dup1\n      swap2\n      sub\n      swap1\n      revert\n    tag_142:\n        /* \"mokkozi/week3/erc721.sol\":9677:9681  from */\n      dup4\n        /* \"mokkozi/week3/erc721.sol\":9663:9681  msg.sender == from */\n      0xffffffffffffffffffffffffffffffffffffffff\n      and\n        /* \"mokkozi/week3/erc721.sol\":9663:9673  msg.sender */\n      caller\n        /* \"mokkozi/week3/erc721.sol\":9663:9681  msg.sender == from */\n      0xffffffffffffffffffffffffffffffffffffffff\n      and\n      eq\n        /* \"mokkozi/week3/erc721.sol\":9663:9729  msg.sender == from... */\n      dup1\n      tag_145\n      jumpi\n      pop\n        /* \"mokkozi/week3/erc721.sol\":9718:9728  msg.sender */\n      caller\n        /* \"mokkozi/week3/erc721.sol\":9694:9728  getApproved(tokenId) == msg.sender */\n      0xffffffffffffffffffffffffffffffffffffffff\n      and\n        /* \"mokkozi/week3/erc721.sol\":9694:9714  getApproved(tokenId) */\n      tag_146\n        /* \"mokkozi/week3/erc721.sol\":9706:9713  tokenId */\n      dup4\n        /* \"mokkozi/week3/erc721.sol\":9694:9705  getApproved */\n      tag_38\n        /* \"mokkozi/week3/erc721.sol\":9694:9714  getApproved(tokenId) */\n      jump\t// in\n    tag_146:\n        /* \"mokkozi/week3/erc721.sol\":9694:9728  getApproved(tokenId) == msg.sender */\n      0xffffffffffffffffffffffffffffffffffffffff\n      and\n      eq\n        /* \"mokkozi/week3/erc721.sol\":9663:9729  msg.sender == from... */\n    tag_145:\n        /* \"mokkozi/week3/erc721.sol\":9663:9789  msg.sender == from... */\n      dup1\n      tag_147\n      jumpi\n      pop\n        /* \"mokkozi/week3/erc721.sol\":9785:9789  true */\n      0x01\n        /* \"mokkozi/week3/erc721.sol\":9741:9789  isApprovedForAll(tokenOwner, msg.sender) == true */\n      iszero\n      iszero\n        /* \"mokkozi/week3/erc721.sol\":9741:9781  isApprovedForAll(tokenOwner, msg.sender) */\n      tag_148\n        /* \"mokkozi/week3/erc721.sol\":9758:9768  tokenOwner */\n      dup3\n        /* \"mokkozi/week3/erc721.sol\":9770:9780  msg.sender */\n      caller\n        /* \"mokkozi/week3/erc721.sol\":9741:9757  isApprovedForAll */\n      tag_104\n        /* \"mokkozi/week3/erc721.sol\":9741:9781  isApprovedForAll(tokenOwner, msg.sender) */\n      jump\t// in\n    tag_148:\n        /* \"mokkozi/week3/erc721.sol\":9741:9789  isApprovedForAll(tokenOwner, msg.sender) == true */\n      iszero\n      iszero\n      eq\n        /* \"mokkozi/week3/erc721.sol\":9663:9789  msg.sender == from... */\n    tag_147:\n        /* \"mokkozi/week3/erc721.sol\":9654:9808  require( msg.sender == from... */\n      tag_149\n      jumpi\n      mload(0x40)\n      0x08c379a000000000000000000000000000000000000000000000000000000000\n      dup2\n      mstore\n      0x04\n      add\n      tag_150\n      swap1\n      tag_151\n      jump\t// in\n    tag_150:\n      mload(0x40)\n      dup1\n      swap2\n      sub\n      swap1\n      revert\n    tag_149:\n        /* \"mokkozi/week3/erc721.sol\":9826:9842  approveOfTokenId */\n      0x05\n        /* \"mokkozi/week3/erc721.sol\":9826:9851  approveOfTokenId[tokenId] */\n      0x00\n        /* \"mokkozi/week3/erc721.sol\":9843:9850  tokenId */\n      dup4\n        /* \"mokkozi/week3/erc721.sol\":9826:9851  approveOfTokenId[tokenId] */\n      dup2\n      mstore\n      0x20\n      add\n      swap1\n      dup2\n      mstore\n      0x20\n      add\n      0x00\n      keccak256\n      0x00\n        /* \"mokkozi/week3/erc721.sol\":9819:9851  delete approveOfTokenId[tokenId] */\n      0x0100\n      exp\n      dup2\n      sload\n      swap1\n      0xffffffffffffffffffffffffffffffffffffffff\n      mul\n      not\n      and\n      swap1\n      sstore\n        /* \"mokkozi/week3/erc721.sol\":9888:9890  to */\n      dup3\n        /* \"mokkozi/week3/erc721.sol\":9862:9876  ownerByTokenId */\n      0x04\n        /* \"mokkozi/week3/erc721.sol\":9862:9885  ownerByTokenId[tokenId] */\n      0x00\n        /* \"mokkozi/week3/erc721.sol\":9877:9884  tokenId */\n      dup5\n        /* \"mokkozi/week3/erc721.sol\":9862:9885  ownerByTokenId[tokenId] */\n      dup2\n      mstore\n      0x20\n      add\n      swap1\n      dup2\n      mstore\n      0x20\n      add\n      0x00\n      keccak256\n      0x00\n        /* \"mokkozi/week3/erc721.sol\":9862:9890  ownerByTokenId[tokenId] = to */\n      0x0100\n      exp\n      dup2\n      sload\n      dup2\n      0xffffffffffffffffffffffffffffffffffffffff\n      mul\n      not\n      and\n      swap1\n      dup4\n      0xffffffffffffffffffffffffffffffffffffffff\n      and\n      mul\n      or\n      swap1\n      sstore\n      pop\n        /* \"mokkozi/week3/erc721.sol\":9925:9926  1 */\n      0x01\n        /* \"mokkozi/week3/erc721.sol\":9901:9915  balanceByOwner */\n      0x03\n        /* \"mokkozi/week3/erc721.sol\":9901:9921  balanceByOwner[from] */\n      0x00\n        /* \"mokkozi/week3/erc721.sol\":9916:9920  from */\n      dup7\n        /* \"mokkozi/week3/erc721.sol\":9901:9921  balanceByOwner[from] */\n      0xffffffffffffffffffffffffffffffffffffffff\n      and\n      0xffffffffffffffffffffffffffffffffffffffff\n      and\n      dup2\n      mstore\n      0x20\n      add\n      swap1\n      dup2\n      mstore\n      0x20\n      add\n      0x00\n      keccak256\n      0x00\n        /* \"mokkozi/week3/erc721.sol\":9901:9926  balanceByOwner[from] -= 1 */\n      dup3\n      dup3\n      sload\n      tag_152\n      swap2\n      swap1\n      tag_153\n      jump\t// in\n    tag_152:\n      swap3\n      pop\n      pop\n      dup2\n      swap1\n      sstore\n      pop\n        /* \"mokkozi/week3/erc721.sol\":9958:9959  1 */\n      0x01\n        /* \"mokkozi/week3/erc721.sol\":9936:9950  balanceByOwner */\n      0x03\n        /* \"mokkozi/week3/erc721.sol\":9936:9954  balanceByOwner[to] */\n      0x00\n        /* \"mokkozi/week3/erc721.sol\":9951:9953  to */\n      dup6\n        /* \"mokkozi/week3/erc721.sol\":9936:9954  balanceByOwner[to] */\n      0xffffffffffffffffffffffffffffffffffffffff\n      and\n      0xffffffffffffffffffffffffffffffffffffffff\n      and\n      dup2\n      mstore\n      0x20\n      add\n      swap1\n      dup2\n      mstore\n      0x20\n      add\n      0x00\n      keccak256\n      0x00\n        /* \"mokkozi/week3/erc721.sol\":9936:9959  balanceByOwner[to] += 1 */\n      dup3\n      dup3\n      sload\n      tag_154\n      swap2\n      swap1\n      tag_155\n      jump\t// in\n    tag_154:\n      swap3\n      pop\n      pop\n      dup2\n      swap1\n      sstore\n      pop\n        /* \"mokkozi/week3/erc721.sol\":9994:10001  tokenId */\n      dup2\n        /* \"mokkozi/week3/erc721.sol\":9990:9992  to */\n      dup4\n        /* \"mokkozi/week3/erc721.sol\":9975:10002  Transfer(from, to, tokenId) */\n      0xffffffffffffffffffffffffffffffffffffffff\n      and\n        /* \"mokkozi/week3/erc721.sol\":9984:9988  from */\n      dup6\n        /* \"mokkozi/week3/erc721.sol\":9975:10002  Transfer(from, to, tokenId) */\n      0xffffffffffffffffffffffffffffffffffffffff\n      and\n      0xddf252ad1be2c89b69c2b068fc378daa952ba7f163c4a11628f55a4df523b3ef\n      mload(0x40)\n      mload(0x40)\n      dup1\n      swap2\n      sub\n      swap1\n      log4\n        /* \"mokkozi/week3/erc721.sol\":9159:10009  {   ... */\n      pop\n        /* \"mokkozi/week3/erc721.sol\":9062:10009  function safeTransferFrom(address from, address to, uint256 tokenId) public override payable... */\n      pop\n      pop\n      pop\n      jump\t// out\n        /* \"mokkozi/week3/erc721.sol\":8603:8727  function ownerOf(uint256 tokenId) public override view returns (address)... */\n    tag_60:\n        /* \"mokkozi/week3/erc721.sol\":8667:8674  address */\n      0x00\n        /* \"mokkozi/week3/erc721.sol\":8697:8711  ownerByTokenId */\n      0x04\n        /* \"mokkozi/week3/erc721.sol\":8697:8720  ownerByTokenId[tokenId] */\n      0x00\n        /* \"mokkozi/week3/erc721.sol\":8712:8719  tokenId */\n      dup4\n        /* \"mokkozi/week3/erc721.sol\":8697:8720  ownerByTokenId[tokenId] */\n      dup2\n      mstore\n      0x20\n      add\n      swap1\n      dup2\n      mstore\n      0x20\n      add\n      0x00\n      keccak256\n      0x00\n      swap1\n      sload\n      swap1\n      0x0100\n      exp\n      swap1\n      div\n      0xffffffffffffffffffffffffffffffffffffffff\n      and\n        /* \"mokkozi/week3/erc721.sol\":8690:8720  return ownerByTokenId[tokenId] */\n      swap1\n      pop\n        /* \"mokkozi/week3/erc721.sol\":8603:8727  function ownerOf(uint256 tokenId) public override view returns (address)... */\n      swap2\n      swap1\n      pop\n      jump\t// out\n        /* \"mokkozi/week3/erc721.sol\":7271:7305  string public tokenName = \"minion\" */\n    tag_64:\n      0x00\n      dup1\n      sload\n      tag_157\n      swap1\n      tag_114\n      jump\t// in\n    tag_157:\n      dup1\n      0x1f\n      add\n      0x20\n      dup1\n      swap2\n      div\n      mul\n      0x20\n      add\n      mload(0x40)\n      swap1\n      dup2\n      add\n      0x40\n      mstore\n      dup1\n      swap3\n      swap2\n      swap1\n      dup2\n      dup2\n      mstore\n      0x20\n      add\n      dup3\n      dup1\n      sload\n      tag_158\n      swap1\n      tag_114\n      jump\t// in\n    tag_158:\n      dup1\n      iszero\n      tag_159\n      jumpi\n      dup1\n      0x1f\n      lt\n      tag_160\n      jumpi\n      0x0100\n      dup1\n      dup4\n      sload\n      div\n      mul\n      dup4\n      mstore\n      swap2\n      0x20\n      add\n      swap2\n      jump(tag_159)\n    tag_160:\n      dup3\n      add\n      swap2\n      swap1\n      0x00\n      mstore\n      keccak256(0x00, 0x20)\n      swap1\n    tag_161:\n      dup2\n      sload\n      dup2\n      mstore\n      swap1\n      0x01\n      add\n      swap1\n      0x20\n      add\n      dup1\n      dup4\n      gt\n      tag_161\n      jumpi\n      dup3\n      swap1\n      sub\n      0x1f\n      and\n      dup3\n      add\n      swap2\n    tag_159:\n      pop\n      pop\n      pop\n      pop\n      pop\n      dup2\n      jump\t// out\n        /* \"mokkozi/week3/erc721.sol\":8475:8597  function balanceOf(address owner) public override view returns (uint256)... */\n    tag_70:\n        /* \"mokkozi/week3/erc721.sol\":8539:8546  uint256 */\n      0x00\n        /* \"mokkozi/week3/erc721.sol\":8569:8583  balanceByOwner */\n      0x03\n        /* \"mokkozi/week3/erc721.sol\":8569:8590  balanceByOwner[owner] */\n      0x00\n        /* \"mokkozi/week3/erc721.sol\":8584:8589  owner */\n      dup4\n        /* \"mokkozi/week3/erc721.sol\":8569:8590  balanceByOwner[owner] */\n      0xffffffffffffffffffffffffffffffffffffffff\n      and\n      0xffffffffffffffffffffffffffffffffffffffff\n      and\n      dup2\n      mstore\n      0x20\n      add\n      swap1\n      dup2\n      mstore\n      0x20\n      add\n      0x00\n      keccak256\n      sload\n        /* \"mokkozi/week3/erc721.sol\":8562:8590  return balanceByOwner[owner] */\n      swap1\n      pop\n        /* \"mokkozi/week3/erc721.sol\":8475:8597  function balanceOf(address owner) public override view returns (uint256)... */\n      swap2\n      swap1\n      pop\n      jump\t// out\n        /* \"mokkozi/week3/erc721.sol\":7311:7344  string public tokenSymbol = \"MIN\" */\n    tag_75:\n      0x01\n      dup1\n      sload\n      tag_163\n      swap1\n      tag_114\n      jump\t// in\n    tag_163:\n      dup1\n      0x1f\n      add\n      0x20\n      dup1\n      swap2\n      div\n      mul\n      0x20\n      add\n      mload(0x40)\n      swap1\n      dup2\n      add\n      0x40\n      mstore\n      dup1\n      swap3\n      swap2\n      swap1\n      dup2\n      dup2\n      mstore\n      0x20\n      add\n      dup3\n      dup1\n      sload\n      tag_164\n      swap1\n      tag_114\n      jump\t// in\n    tag_164:\n      dup1\n      iszero\n      tag_165\n      jumpi\n      dup1\n      0x1f\n      lt\n      tag_166\n      jumpi\n      0x0100\n      dup1\n      dup4\n      sload\n      div\n      mul\n      dup4\n      mstore\n      swap2\n      0x20\n      add\n      swap2\n      jump(tag_165)\n    tag_166:\n      dup3\n      add\n      swap2\n      swap1\n      0x00\n      mstore\n      keccak256(0x00, 0x20)\n      swap1\n    tag_167:\n      dup2\n      sload\n      dup2\n      mstore\n      swap1\n      0x01\n      add\n      swap1\n      0x20\n      add\n      dup1\n      dup4\n      gt\n      tag_167\n      jumpi\n      dup3\n      swap1\n      sub\n      0x1f\n      and\n      dup3\n      add\n      swap2\n    tag_165:\n      pop\n      pop\n      pop\n      pop\n      pop\n      dup2\n      jump\t// out\n        /* \"mokkozi/week3/erc721.sol\":8220:8330  function symbol() public override view returns (string memory _symbol)... */\n    tag_79:\n        /* \"mokkozi/week3/erc721.sol\":8268:8289  string memory _symbol */\n      0x60\n        /* \"mokkozi/week3/erc721.sol\":8312:8323  tokenSymbol */\n      0x01\n        /* \"mokkozi/week3/erc721.sol\":8305:8323  return tokenSymbol */\n      dup1\n      sload\n      tag_169\n      swap1\n      tag_114\n      jump\t// in\n    tag_169:\n      dup1\n      0x1f\n      add\n      0x20\n      dup1\n      swap2\n      div\n      mul\n      0x20\n      add\n      mload(0x40)\n      swap1\n      dup2\n      add\n      0x40\n      mstore\n      dup1\n      swap3\n      swap2\n      swap1\n      dup2\n      dup2\n      mstore\n      0x20\n      add\n      dup3\n      dup1\n      sload\n      tag_170\n      swap1\n      tag_114\n      jump\t// in\n    tag_170:\n      dup1\n      iszero\n      tag_171\n      jumpi\n      dup1\n      0x1f\n      lt\n      tag_172\n      jumpi\n      0x0100\n      dup1\n      dup4\n      sload\n      div\n      mul\n      dup4\n      mstore\n      swap2\n      0x20\n      add\n      swap2\n      jump(tag_171)\n    tag_172:\n      dup3\n      add\n      swap2\n      swap1\n      0x00\n      mstore\n      keccak256(0x00, 0x20)\n      swap1\n    tag_173:\n      dup2\n      sload\n      dup2\n      mstore\n      swap1\n      0x01\n      add\n      swap1\n      0x20\n      add\n      dup1\n      dup4\n      gt\n      tag_173\n      jumpi\n      dup3\n      swap1\n      sub\n      0x1f\n      and\n      dup3\n      add\n      swap2\n    tag_171:\n      pop\n      pop\n      pop\n      pop\n      pop\n      swap1\n      pop\n        /* \"mokkozi/week3/erc721.sol\":8220:8330  function symbol() public override view returns (string memory _symbol)... */\n      swap1\n      jump\t// out\n        /* \"mokkozi/week3/erc721.sol\":11367:11634  function setApprovalForAll(address operator, bool approved) public override... */\n    tag_85:\n        /* \"mokkozi/week3/erc721.sol\":11479:11487  operator */\n      dup2\n        /* \"mokkozi/week3/erc721.sol\":11465:11487  msg.sender != operator */\n      0xffffffffffffffffffffffffffffffffffffffff\n      and\n        /* \"mokkozi/week3/erc721.sol\":11465:11475  msg.sender */\n      caller\n        /* \"mokkozi/week3/erc721.sol\":11465:11487  msg.sender != operator */\n      0xffffffffffffffffffffffffffffffffffffffff\n      and\n      eq\n      iszero\n        /* \"mokkozi/week3/erc721.sol\":11457:11508  require(msg.sender != operator, \"invalid operator\") */\n      tag_175\n      jumpi\n      mload(0x40)\n      0x08c379a000000000000000000000000000000000000000000000000000000000\n      dup2\n      mstore\n      0x04\n      add\n      tag_176\n      swap1\n      tag_177\n      jump\t// in\n    tag_176:\n      mload(0x40)\n      dup1\n      swap2\n      sub\n      swap1\n      revert\n    tag_175:\n        /* \"mokkozi/week3/erc721.sol\":11558:11566  approved */\n      dup1\n        /* \"mokkozi/week3/erc721.sol\":11518:11533  approvedOfOwner */\n      0x06\n        /* \"mokkozi/week3/erc721.sol\":11518:11545  approvedOfOwner[msg.sender] */\n      0x00\n        /* \"mokkozi/week3/erc721.sol\":11534:11544  msg.sender */\n      caller\n        /* \"mokkozi/week3/erc721.sol\":11518:11545  approvedOfOwner[msg.sender] */\n      0xffffffffffffffffffffffffffffffffffffffff\n      and\n      0xffffffffffffffffffffffffffffffffffffffff\n      and\n      dup2\n      mstore\n      0x20\n      add\n      swap1\n      dup2\n      mstore\n      0x20\n      add\n      0x00\n      keccak256\n        /* \"mokkozi/week3/erc721.sol\":11518:11555  approvedOfOwner[msg.sender][operator] */\n      0x00\n        /* \"mokkozi/week3/erc721.sol\":11546:11554  operator */\n      dup5\n        /* \"mokkozi/week3/erc721.sol\":11518:11555  approvedOfOwner[msg.sender][operator] */\n      0xffffffffffffffffffffffffffffffffffffffff\n      and\n      0xffffffffffffffffffffffffffffffffffffffff\n      and\n      dup2\n      mstore\n      0x20\n      add\n      swap1\n      dup2\n      mstore\n      0x20\n      add\n      0x00\n      keccak256\n      0x00\n        /* \"mokkozi/week3/erc721.sol\":11518:11566  approvedOfOwner[msg.sender][operator] = approved */\n      0x0100\n      exp\n      dup2\n      sload\n      dup2\n      0xff\n      mul\n      not\n      and\n      swap1\n      dup4\n      iszero\n      iszero\n      mul\n      or\n      swap1\n      sstore\n      pop\n        /* \"mokkozi/week3/erc721.sol\":11608:11616  operator */\n      dup2\n        /* \"mokkozi/week3/erc721.sol\":11581:11627  ApprovalForAll(msg.sender, operator, approved) */\n      0xffffffffffffffffffffffffffffffffffffffff\n      and\n        /* \"mokkozi/week3/erc721.sol\":11596:11606  msg.sender */\n      caller\n        /* \"mokkozi/week3/erc721.sol\":11581:11627  ApprovalForAll(msg.sender, operator, approved) */\n      0xffffffffffffffffffffffffffffffffffffffff\n      and\n      0x17307eab39ab6107e8899845ad3d59bd9653f200f220920489ca2b5937696c31\n        /* \"mokkozi/week3/erc721.sol\":11618:11626  approved */\n      dup4\n        /* \"mokkozi/week3/erc721.sol\":11581:11627  ApprovalForAll(msg.sender, operator, approved) */\n      mload(0x40)\n      tag_178\n      swap2\n      swap1\n      tag_28\n      jump\t// in\n    tag_178:\n      mload(0x40)\n      dup1\n      swap2\n      sub\n      swap1\n      log3\n        /* \"mokkozi/week3/erc721.sol\":11367:11634  function setApprovalForAll(address operator, bool approved) public override... */\n      pop\n      pop\n      jump\t// out\n        /* \"mokkozi/week3/erc721.sol\":8884:9056  function safeTransferFrom(address from, address to, uint256 tokenId, bytes memory data) public override payable... */\n    tag_89:\n        /* \"mokkozi/week3/erc721.sol\":9010:9049  safeTransferFrom(from, to, tokenId, \"\") */\n      tag_180\n        /* \"mokkozi/week3/erc721.sol\":9027:9031  from */\n      dup5\n        /* \"mokkozi/week3/erc721.sol\":9033:9035  to */\n      dup5\n        /* \"mokkozi/week3/erc721.sol\":9037:9044  tokenId */\n      dup5\n        /* \"mokkozi/week3/erc721.sol\":9010:9049  safeTransferFrom(from, to, tokenId, \"\") */\n      mload(0x40)\n      dup1\n      0x20\n      add\n      0x40\n      mstore\n      dup1\n      0x00\n      dup2\n      mstore\n      pop\n        /* \"mokkozi/week3/erc721.sol\":9010:9026  safeTransferFrom */\n      tag_89\n        /* \"mokkozi/week3/erc721.sol\":9010:9049  safeTransferFrom(from, to, tokenId, \"\") */\n      jump\t// in\n    tag_180:\n        /* \"mokkozi/week3/erc721.sol\":8884:9056  function safeTransferFrom(address from, address to, uint256 tokenId, bytes memory data) public override payable... */\n      pop\n      pop\n      pop\n      pop\n      jump\t// out\n        /* \"mokkozi/week3/erc721.sol\":8336:8464  function tokenURI(uint256 _tokenId) public override view returns (string memory)... */\n    tag_93:\n        /* \"mokkozi/week3/erc721.sol\":8402:8415  string memory */\n      0x60\n        /* \"mokkozi/week3/erc721.sol\":8438:8447  tokenURIs */\n      0x02\n        /* \"mokkozi/week3/erc721.sol\":8438:8457  tokenURIs[_tokenId] */\n      0x00\n        /* \"mokkozi/week3/erc721.sol\":8448:8456  _tokenId */\n      dup4\n        /* \"mokkozi/week3/erc721.sol\":8438:8457  tokenURIs[_tokenId] */\n      dup2\n      mstore\n      0x20\n      add\n      swap1\n      dup2\n      mstore\n      0x20\n      add\n      0x00\n      keccak256\n        /* \"mokkozi/week3/erc721.sol\":8431:8457  return tokenURIs[_tokenId] */\n      dup1\n      sload\n      tag_182\n      swap1\n      tag_114\n      jump\t// in\n    tag_182:\n      dup1\n      0x1f\n      add\n      0x20\n      dup1\n      swap2\n      div\n      mul\n      0x20\n      add\n      mload(0x40)\n      swap1\n      dup2\n      add\n      0x40\n      mstore\n      dup1\n      swap3\n      swap2\n      swap1\n      dup2\n      dup2\n      mstore\n      0x20\n      add\n      dup3\n      dup1\n      sload\n      tag_183\n      swap1\n      tag_114\n      jump\t// in\n    tag_183:\n      dup1\n      iszero\n      tag_184\n      jumpi\n      dup1\n      0x1f\n      lt\n      tag_185\n      jumpi\n      0x0100\n      dup1\n      dup4\n      sload\n      div\n      mul\n      dup4\n      mstore\n      swap2\n      0x20\n      add\n      swap2\n      jump(tag_184)\n    tag_185:\n      dup3\n      add\n      swap2\n      swap1\n      0x00\n      mstore\n      keccak256(0x00, 0x20)\n      swap1\n    tag_186:\n      dup2\n      sload\n      dup2\n      mstore\n      swap1\n      0x01\n      add\n      swap1\n      0x20\n      add\n      dup1\n      dup4\n      gt\n      tag_186\n      jumpi\n      dup3\n      swap1\n      sub\n      0x1f\n      and\n      dup3\n      add\n      swap2\n    tag_184:\n      pop\n      pop\n      pop\n      pop\n      pop\n      swap1\n      pop\n        /* \"mokkozi/week3/erc721.sol\":8336:8464  function tokenURI(uint256 _tokenId) public override view returns (string memory)... */\n      swap2\n      swap1\n      pop\n      jump\t// out\n        /* \"mokkozi/week3/erc721.sol\":10289:10602  function mint(address to, uint256 tokenId, string memory uri) public... */\n    tag_99:\n        /* \"mokkozi/week3/erc721.sol\":10419:10420  0 */\n      0x00\n        /* \"mokkozi/week3/erc721.sol\":10384:10421  ownerByTokenId[tokenId] == address(0) */\n      0xffffffffffffffffffffffffffffffffffffffff\n      and\n        /* \"mokkozi/week3/erc721.sol\":10384:10398  ownerByTokenId */\n      0x04\n        /* \"mokkozi/week3/erc721.sol\":10384:10407  ownerByTokenId[tokenId] */\n      0x00\n        /* \"mokkozi/week3/erc721.sol\":10399:10406  tokenId */\n      dup5\n        /* \"mokkozi/week3/erc721.sol\":10384:10407  ownerByTokenId[tokenId] */\n      dup2\n      mstore\n      0x20\n      add\n      swap1\n      dup2\n      mstore\n      0x20\n      add\n      0x00\n      keccak256\n      0x00\n      swap1\n      sload\n      swap1\n      0x0100\n      exp\n      swap1\n      div\n      0xffffffffffffffffffffffffffffffffffffffff\n      and\n        /* \"mokkozi/week3/erc721.sol\":10384:10421  ownerByTokenId[tokenId] == address(0) */\n      0xffffffffffffffffffffffffffffffffffffffff\n      and\n      eq\n        /* \"mokkozi/week3/erc721.sol\":10376:10440  require(ownerByTokenId[tokenId] == address(0), \"already minted\") */\n      tag_188\n      jumpi\n      mload(0x40)\n      0x08c379a000000000000000000000000000000000000000000000000000000000\n      dup2\n      mstore\n      0x04\n      add\n      tag_189\n      swap1\n      tag_190\n      jump\t// in\n    tag_189:\n      mload(0x40)\n      dup1\n      swap2\n      sub\n      swap1\n      revert\n    tag_188:\n        /* \"mokkozi/week3/erc721.sol\":10477:10479  to */\n      dup3\n        /* \"mokkozi/week3/erc721.sol\":10451:10465  ownerByTokenId */\n      0x04\n        /* \"mokkozi/week3/erc721.sol\":10451:10474  ownerByTokenId[tokenId] */\n      0x00\n        /* \"mokkozi/week3/erc721.sol\":10466:10473  tokenId */\n      dup5\n        /* \"mokkozi/week3/erc721.sol\":10451:10474  ownerByTokenId[tokenId] */\n      dup2\n      mstore\n      0x20\n      add\n      swap1\n      dup2\n      mstore\n      0x20\n      add\n      0x00\n      keccak256\n      0x00\n        /* \"mokkozi/week3/erc721.sol\":10451:10479  ownerByTokenId[tokenId] = to */\n      0x0100\n      exp\n      dup2\n      sload\n      dup2\n      0xffffffffffffffffffffffffffffffffffffffff\n      mul\n      not\n      and\n      swap1\n      dup4\n      0xffffffffffffffffffffffffffffffffffffffff\n      and\n      mul\n      or\n      swap1\n      sstore\n      pop\n        /* \"mokkozi/week3/erc721.sol\":10511:10512  1 */\n      0x01\n        /* \"mokkozi/week3/erc721.sol\":10489:10503  balanceByOwner */\n      0x03\n        /* \"mokkozi/week3/erc721.sol\":10489:10507  balanceByOwner[to] */\n      0x00\n        /* \"mokkozi/week3/erc721.sol\":10504:10506  to */\n      dup6\n        /* \"mokkozi/week3/erc721.sol\":10489:10507  balanceByOwner[to] */\n      0xffffffffffffffffffffffffffffffffffffffff\n      and\n      0xffffffffffffffffffffffffffffffffffffffff\n      and\n      dup2\n      mstore\n      0x20\n      add\n      swap1\n      dup2\n      mstore\n      0x20\n      add\n      0x00\n      keccak256\n      0x00\n        /* \"mokkozi/week3/erc721.sol\":10489:10512  balanceByOwner[to] += 1 */\n      dup3\n      dup3\n      sload\n      tag_191\n      swap2\n      swap1\n      tag_155\n      jump\t// in\n    tag_191:\n      swap3\n      pop\n      pop\n      dup2\n      swap1\n      sstore\n      pop\n        /* \"mokkozi/week3/erc721.sol\":10544:10547  uri */\n      dup1\n        /* \"mokkozi/week3/erc721.sol\":10523:10532  tokenURIs */\n      0x02\n        /* \"mokkozi/week3/erc721.sol\":10523:10541  tokenURIs[tokenId] */\n      0x00\n        /* \"mokkozi/week3/erc721.sol\":10533:10540  tokenId */\n      dup5\n        /* \"mokkozi/week3/erc721.sol\":10523:10541  tokenURIs[tokenId] */\n      dup2\n      mstore\n      0x20\n      add\n      swap1\n      dup2\n      mstore\n      0x20\n      add\n      0x00\n      keccak256\n        /* \"mokkozi/week3/erc721.sol\":10523:10547  tokenURIs[tokenId] = uri */\n      swap1\n      dup1\n      mload\n      swap1\n      0x20\n      add\n      swap1\n      tag_192\n      swap3\n      swap2\n      swap1\n      tag_193\n      jump\t// in\n    tag_192:\n      pop\n        /* \"mokkozi/week3/erc721.sol\":10587:10594  tokenId */\n      dup2\n        /* \"mokkozi/week3/erc721.sol\":10583:10585  to */\n      dup4\n        /* \"mokkozi/week3/erc721.sol\":10562:10595  Transfer(address(0), to, tokenId) */\n      0xffffffffffffffffffffffffffffffffffffffff\n      and\n        /* \"mokkozi/week3/erc721.sol\":10579:10580  0 */\n      0x00\n        /* \"mokkozi/week3/erc721.sol\":10562:10595  Transfer(address(0), to, tokenId) */\n      0xffffffffffffffffffffffffffffffffffffffff\n      and\n      0xddf252ad1be2c89b69c2b068fc378daa952ba7f163c4a11628f55a4df523b3ef\n      mload(0x40)\n      mload(0x40)\n      dup1\n      swap2\n      sub\n      swap1\n      log4\n        /* \"mokkozi/week3/erc721.sol\":10289:10602  function mint(address to, uint256 tokenId, string memory uri) public... */\n      pop\n      pop\n      pop\n      jump\t// out\n        /* \"mokkozi/week3/erc721.sol\":11640:11795  function isApprovedForAll(address owner, address operator) public override view returns (bool)... */\n    tag_104:\n        /* \"mokkozi/week3/erc721.sol\":11729:11733  bool */\n      0x00\n        /* \"mokkozi/week3/erc721.sol\":11756:11771  approvedOfOwner */\n      0x06\n        /* \"mokkozi/week3/erc721.sol\":11756:11778  approvedOfOwner[owner] */\n      0x00\n        /* \"mokkozi/week3/erc721.sol\":11772:11777  owner */\n      dup5\n        /* \"mokkozi/week3/erc721.sol\":11756:11778  approvedOfOwner[owner] */\n      0xffffffffffffffffffffffffffffffffffffffff\n      and\n      0xffffffffffffffffffffffffffffffffffffffff\n      and\n      dup2\n      mstore\n      0x20\n      add\n      swap1\n      dup2\n      mstore\n      0x20\n      add\n      0x00\n      keccak256\n        /* \"mokkozi/week3/erc721.sol\":11756:11788  approvedOfOwner[owner][operator] */\n      0x00\n        /* \"mokkozi/week3/erc721.sol\":11779:11787  operator */\n      dup4\n        /* \"mokkozi/week3/erc721.sol\":11756:11788  approvedOfOwner[owner][operator] */\n      0xffffffffffffffffffffffffffffffffffffffff\n      and\n      0xffffffffffffffffffffffffffffffffffffffff\n      and\n      dup2\n      mstore\n      0x20\n      add\n      swap1\n      dup2\n      mstore\n      0x20\n      add\n      0x00\n      keccak256\n      0x00\n      swap1\n      sload\n      swap1\n      0x0100\n      exp\n      swap1\n      div\n      0xff\n      and\n        /* \"mokkozi/week3/erc721.sol\":11749:11788  return approvedOfOwner[owner][operator] */\n      swap1\n      pop\n        /* \"mokkozi/week3/erc721.sol\":11640:11795  function isApprovedForAll(address owner, address operator) public override view returns (bool)... */\n      swap3\n      swap2\n      pop\n      pop\n      jump\t// out\n    tag_193:\n      dup3\n      dup1\n      sload\n      tag_195\n      swap1\n      tag_114\n      jump\t// in\n    tag_195:\n      swap1\n      0x00\n      mstore\n      keccak256(0x00, 0x20)\n      swap1\n      0x1f\n      add\n      0x20\n      swap1\n      div\n      dup2\n      add\n      swap3\n      dup3\n      tag_197\n      jumpi\n      0x00\n      dup6\n      sstore\n      jump(tag_196)\n    tag_197:\n      dup3\n      0x1f\n      lt\n      tag_198\n      jumpi\n      dup1\n      mload\n      not(0xff)\n      and\n      dup4\n      dup1\n      add\n      or\n      dup6\n      sstore\n      jump(tag_196)\n    tag_198:\n      dup3\n      dup1\n      add\n      0x01\n      add\n      dup6\n      sstore\n      dup3\n      iszero\n      tag_196\n      jumpi\n      swap2\n      dup3\n      add\n    tag_199:\n      dup3\n      dup2\n      gt\n      iszero\n      tag_200\n      jumpi\n      dup3\n      mload\n      dup3\n      sstore\n      swap2\n      0x20\n      add\n      swap2\n      swap1\n      0x01\n      add\n      swap1\n      jump(tag_199)\n    tag_200:\n    tag_196:\n      pop\n      swap1\n      pop\n      tag_201\n      swap2\n      swap1\n      tag_202\n      jump\t// in\n    tag_201:\n      pop\n      swap1\n      jump\t// out\n    tag_202:\n    tag_203:\n      dup1\n      dup3\n      gt\n      iszero\n      tag_204\n      jumpi\n      0x00\n      dup2\n      0x00\n      swap1\n      sstore\n      pop\n      0x01\n      add\n      jump(tag_203)\n    tag_204:\n      pop\n      swap1\n      jump\t// out\n        /* \"#utility.yul\":7:417   */\n    tag_206:\n        /* \"#utility.yul\":84:89   */\n      0x00\n        /* \"#utility.yul\":109:174   */\n      tag_208\n        /* \"#utility.yul\":125:173   */\n      tag_209\n        /* \"#utility.yul\":166:172   */\n      dup5\n        /* \"#utility.yul\":125:173   */\n      tag_210\n      jump\t// in\n    tag_209:\n        /* \"#utility.yul\":109:174   */\n      tag_211\n      jump\t// in\n    tag_208:\n        /* \"#utility.yul\":100:174   */\n      swap1\n      pop\n        /* \"#utility.yul\":197:203   */\n      dup3\n        /* \"#utility.yul\":190:195   */\n      dup2\n        /* \"#utility.yul\":183:204   */\n      mstore\n        /* \"#utility.yul\":235:239   */\n      0x20\n        /* \"#utility.yul\":228:233   */\n      dup2\n        /* \"#utility.yul\":224:240   */\n      add\n        /* \"#utility.yul\":273:276   */\n      dup5\n        /* \"#utility.yul\":264:270   */\n      dup5\n        /* \"#utility.yul\":259:262   */\n      dup5\n        /* \"#utility.yul\":255:271   */\n      add\n        /* \"#utility.yul\":252:277   */\n      gt\n        /* \"#utility.yul\":249:361   */\n      iszero\n      tag_212\n      jumpi\n        /* \"#utility.yul\":280:359   */\n      tag_213\n      tag_214\n      jump\t// in\n    tag_213:\n        /* \"#utility.yul\":249:361   */\n    tag_212:\n        /* \"#utility.yul\":370:411   */\n      tag_215\n        /* \"#utility.yul\":404:410   */\n      dup5\n        /* \"#utility.yul\":399:402   */\n      dup3\n        /* \"#utility.yul\":394:397   */\n      dup6\n        /* \"#utility.yul\":370:411   */\n      tag_216\n      jump\t// in\n    tag_215:\n        /* \"#utility.yul\":90:417   */\n      pop\n        /* \"#utility.yul\":7:417   */\n      swap4\n      swap3\n      pop\n      pop\n      pop\n      jump\t// out\n        /* \"#utility.yul\":423:835   */\n    tag_217:\n        /* \"#utility.yul\":501:506   */\n      0x00\n        /* \"#utility.yul\":526:592   */\n      tag_219\n        /* \"#utility.yul\":542:591   */\n      tag_220\n        /* \"#utility.yul\":584:590   */\n      dup5\n        /* \"#utility.yul\":542:591   */\n      tag_221\n      jump\t// in\n    tag_220:\n        /* \"#utility.yul\":526:592   */\n      tag_211\n      jump\t// in\n    tag_219:\n        /* \"#utility.yul\":517:592   */\n      swap1\n      pop\n        /* \"#utility.yul\":615:621   */\n      dup3\n        /* \"#utility.yul\":608:613   */\n      dup2\n        /* \"#utility.yul\":601:622   */\n      mstore\n        /* \"#utility.yul\":653:657   */\n      0x20\n        /* \"#utility.yul\":646:651   */\n      dup2\n        /* \"#utility.yul\":642:658   */\n      add\n        /* \"#utility.yul\":691:694   */\n      dup5\n        /* \"#utility.yul\":682:688   */\n      dup5\n        /* \"#utility.yul\":677:680   */\n      dup5\n        /* \"#utility.yul\":673:689   */\n      add\n        /* \"#utility.yul\":670:695   */\n      gt\n        /* \"#utility.yul\":667:779   */\n      iszero\n      tag_222\n      jumpi\n        /* \"#utility.yul\":698:777   */\n      tag_223\n      tag_214\n      jump\t// in\n    tag_223:\n        /* \"#utility.yul\":667:779   */\n    tag_222:\n        /* \"#utility.yul\":788:829   */\n      tag_224\n        /* \"#utility.yul\":822:828   */\n      dup5\n        /* \"#utility.yul\":817:820   */\n      dup3\n        /* \"#utility.yul\":812:815   */\n      dup6\n        /* \"#utility.yul\":788:829   */\n      tag_216\n      jump\t// in\n    tag_224:\n        /* \"#utility.yul\":507:835   */\n      pop\n        /* \"#utility.yul\":423:835   */\n      swap4\n      swap3\n      pop\n      pop\n      pop\n      jump\t// out\n        /* \"#utility.yul\":841:980   */\n    tag_225:\n        /* \"#utility.yul\":887:892   */\n      0x00\n        /* \"#utility.yul\":925:931   */\n      dup2\n        /* \"#utility.yul\":912:932   */\n      calldataload\n        /* \"#utility.yul\":903:932   */\n      swap1\n      pop\n        /* \"#utility.yul\":941:974   */\n      tag_227\n        /* \"#utility.yul\":968:973   */\n      dup2\n        /* \"#utility.yul\":941:974   */\n      tag_228\n      jump\t// in\n    tag_227:\n        /* \"#utility.yul\":841:980   */\n      swap3\n      swap2\n      pop\n      pop\n      jump\t// out\n        /* \"#utility.yul\":986:1119   */\n    tag_229:\n        /* \"#utility.yul\":1029:1034   */\n      0x00\n        /* \"#utility.yul\":1067:1073   */\n      dup2\n        /* \"#utility.yul\":1054:1074   */\n      calldataload\n        /* \"#utility.yul\":1045:1074   */\n      swap1\n      pop\n        /* \"#utility.yul\":1083:1113   */\n      tag_231\n        /* \"#utility.yul\":1107:1112   */\n      dup2\n        /* \"#utility.yul\":1083:1113   */\n      tag_232\n      jump\t// in\n    tag_231:\n        /* \"#utility.yul\":986:1119   */\n      swap3\n      swap2\n      pop\n      pop\n      jump\t// out\n        /* \"#utility.yul\":1125:1262   */\n    tag_233:\n        /* \"#utility.yul\":1170:1175   */\n      0x00\n        /* \"#utility.yul\":1208:1214   */\n      dup2\n        /* \"#utility.yul\":1195:1215   */\n      calldataload\n        /* \"#utility.yul\":1186:1215   */\n      swap1\n      pop\n        /* \"#utility.yul\":1224:1256   */\n      tag_235\n        /* \"#utility.yul\":1250:1255   */\n      dup2\n        /* \"#utility.yul\":1224:1256   */\n      tag_236\n      jump\t// in\n    tag_235:\n        /* \"#utility.yul\":1125:1262   */\n      swap3\n      swap2\n      pop\n      pop\n      jump\t// out\n        /* \"#utility.yul\":1281:1619   */\n    tag_237:\n        /* \"#utility.yul\":1336:1341   */\n      0x00\n        /* \"#utility.yul\":1385:1388   */\n      dup3\n        /* \"#utility.yul\":1378:1382   */\n      0x1f\n        /* \"#utility.yul\":1370:1376   */\n      dup4\n        /* \"#utility.yul\":1366:1383   */\n      add\n        /* \"#utility.yul\":1362:1389   */\n      slt\n        /* \"#utility.yul\":1352:1474   */\n      tag_239\n      jumpi\n        /* \"#utility.yul\":1393:1472   */\n      tag_240\n      tag_241\n      jump\t// in\n    tag_240:\n        /* \"#utility.yul\":1352:1474   */\n    tag_239:\n        /* \"#utility.yul\":1510:1516   */\n      dup2\n        /* \"#utility.yul\":1497:1517   */\n      calldataload\n        /* \"#utility.yul\":1535:1613   */\n      tag_242\n        /* \"#utility.yul\":1609:1612   */\n      dup5\n        /* \"#utility.yul\":1601:1607   */\n      dup3\n        /* \"#utility.yul\":1594:1598   */\n      0x20\n        /* \"#utility.yul\":1586:1592   */\n      dup7\n        /* \"#utility.yul\":1582:1599   */\n      add\n        /* \"#utility.yul\":1535:1613   */\n      tag_206\n      jump\t// in\n    tag_242:\n        /* \"#utility.yul\":1526:1613   */\n      swap2\n      pop\n        /* \"#utility.yul\":1342:1619   */\n      pop\n        /* \"#utility.yul\":1281:1619   */\n      swap3\n      swap2\n      pop\n      pop\n      jump\t// out\n        /* \"#utility.yul\":1639:1979   */\n    tag_243:\n        /* \"#utility.yul\":1695:1700   */\n      0x00\n        /* \"#utility.yul\":1744:1747   */\n      dup3\n        /* \"#utility.yul\":1737:1741   */\n      0x1f\n        /* \"#utility.yul\":1729:1735   */\n      dup4\n        /* \"#utility.yul\":1725:1742   */\n      add\n        /* \"#utility.yul\":1721:1748   */\n      slt\n        /* \"#utility.yul\":1711:1833   */\n      tag_245\n      jumpi\n        /* \"#utility.yul\":1752:1831   */\n      tag_246\n      tag_241\n      jump\t// in\n    tag_246:\n        /* \"#utility.yul\":1711:1833   */\n    tag_245:\n        /* \"#utility.yul\":1869:1875   */\n      dup2\n        /* \"#utility.yul\":1856:1876   */\n      calldataload\n        /* \"#utility.yul\":1894:1973   */\n      tag_247\n        /* \"#utility.yul\":1969:1972   */\n      dup5\n        /* \"#utility.yul\":1961:1967   */\n      dup3\n        /* \"#utility.yul\":1954:1958   */\n      0x20\n        /* \"#utility.yul\":1946:1952   */\n      dup7\n        /* \"#utility.yul\":1942:1959   */\n      add\n        /* \"#utility.yul\":1894:1973   */\n      tag_217\n      jump\t// in\n    tag_247:\n        /* \"#utility.yul\":1885:1973   */\n      swap2\n      pop\n        /* \"#utility.yul\":1701:1979   */\n      pop\n        /* \"#utility.yul\":1639:1979   */\n      swap3\n      swap2\n      pop\n      pop\n      jump\t// out\n        /* \"#utility.yul\":1985:2124   */\n    tag_248:\n        /* \"#utility.yul\":2031:2036   */\n      0x00\n        /* \"#utility.yul\":2069:2075   */\n      dup2\n        /* \"#utility.yul\":2056:2076   */\n      calldataload\n        /* \"#utility.yul\":2047:2076   */\n      swap1\n      pop\n        /* \"#utility.yul\":2085:2118   */\n      tag_250\n        /* \"#utility.yul\":2112:2117   */\n      dup2\n        /* \"#utility.yul\":2085:2118   */\n      tag_251\n      jump\t// in\n    tag_250:\n        /* \"#utility.yul\":1985:2124   */\n      swap3\n      swap2\n      pop\n      pop\n      jump\t// out\n        /* \"#utility.yul\":2130:2459   */\n    tag_69:\n        /* \"#utility.yul\":2189:2195   */\n      0x00\n        /* \"#utility.yul\":2238:2240   */\n      0x20\n        /* \"#utility.yul\":2226:2235   */\n      dup3\n        /* \"#utility.yul\":2217:2224   */\n      dup5\n        /* \"#utility.yul\":2213:2236   */\n      sub\n        /* \"#utility.yul\":2209:2241   */\n      slt\n        /* \"#utility.yul\":2206:2325   */\n      iszero\n      tag_253\n      jumpi\n        /* \"#utility.yul\":2244:2323   */\n      tag_254\n      tag_255\n      jump\t// in\n    tag_254:\n        /* \"#utility.yul\":2206:2325   */\n    tag_253:\n        /* \"#utility.yul\":2364:2365   */\n      0x00\n        /* \"#utility.yul\":2389:2442   */\n      tag_256\n        /* \"#utility.yul\":2434:2441   */\n      dup5\n        /* \"#utility.yul\":2425:2431   */\n      dup3\n        /* \"#utility.yul\":2414:2423   */\n      dup6\n        /* \"#utility.yul\":2410:2432   */\n      add\n        /* \"#utility.yul\":2389:2442   */\n      tag_225\n      jump\t// in\n    tag_256:\n        /* \"#utility.yul\":2379:2442   */\n      swap2\n      pop\n        /* \"#utility.yul\":2335:2452   */\n      pop\n        /* \"#utility.yul\":2130:2459   */\n      swap3\n      swap2\n      pop\n      pop\n      jump\t// out\n        /* \"#utility.yul\":2465:2939   */\n    tag_103:\n        /* \"#utility.yul\":2533:2539   */\n      0x00\n        /* \"#utility.yul\":2541:2547   */\n      dup1\n        /* \"#utility.yul\":2590:2592   */\n      0x40\n        /* \"#utility.yul\":2578:2587   */\n      dup4\n        /* \"#utility.yul\":2569:2576   */\n      dup6\n        /* \"#utility.yul\":2565:2588   */\n      sub\n        /* \"#utility.yul\":2561:2593   */\n      slt\n        /* \"#utility.yul\":2558:2677   */\n      iszero\n      tag_258\n      jumpi\n        /* \"#utility.yul\":2596:2675   */\n      tag_259\n      tag_255\n      jump\t// in\n    tag_259:\n        /* \"#utility.yul\":2558:2677   */\n    tag_258:\n        /* \"#utility.yul\":2716:2717   */\n      0x00\n        /* \"#utility.yul\":2741:2794   */\n      tag_260\n        /* \"#utility.yul\":2786:2793   */\n      dup6\n        /* \"#utility.yul\":2777:2783   */\n      dup3\n        /* \"#utility.yul\":2766:2775   */\n      dup7\n        /* \"#utility.yul\":2762:2784   */\n      add\n        /* \"#utility.yul\":2741:2794   */\n      tag_225\n      jump\t// in\n    tag_260:\n        /* \"#utility.yul\":2731:2794   */\n      swap3\n      pop\n        /* \"#utility.yul\":2687:2804   */\n      pop\n        /* \"#utility.yul\":2843:2845   */\n      0x20\n        /* \"#utility.yul\":2869:2922   */\n      tag_261\n        /* \"#utility.yul\":2914:2921   */\n      dup6\n        /* \"#utility.yul\":2905:2911   */\n      dup3\n        /* \"#utility.yul\":2894:2903   */\n      dup7\n        /* \"#utility.yul\":2890:2912   */\n      add\n        /* \"#utility.yul\":2869:2922   */\n      tag_225\n      jump\t// in\n    tag_261:\n        /* \"#utility.yul\":2859:2922   */\n      swap2\n      pop\n        /* \"#utility.yul\":2814:2932   */\n      pop\n        /* \"#utility.yul\":2465:2939   */\n      swap3\n      pop\n      swap3\n      swap1\n      pop\n      jump\t// out\n        /* \"#utility.yul\":2945:3564   */\n    tag_52:\n        /* \"#utility.yul\":3022:3028   */\n      0x00\n        /* \"#utility.yul\":3030:3036   */\n      dup1\n        /* \"#utility.yul\":3038:3044   */\n      0x00\n        /* \"#utility.yul\":3087:3089   */\n      0x60\n        /* \"#utility.yul\":3075:3084   */\n      dup5\n        /* \"#utility.yul\":3066:3073   */\n      dup7\n        /* \"#utility.yul\":3062:3085   */\n      sub\n        /* \"#utility.yul\":3058:3090   */\n      slt\n        /* \"#utility.yul\":3055:3174   */\n      iszero\n      tag_263\n      jumpi\n        /* \"#utility.yul\":3093:3172   */\n      tag_264\n      tag_255\n      jump\t// in\n    tag_264:\n        /* \"#utility.yul\":3055:3174   */\n    tag_263:\n        /* \"#utility.yul\":3213:3214   */\n      0x00\n        /* \"#utility.yul\":3238:3291   */\n      tag_265\n        /* \"#utility.yul\":3283:3290   */\n      dup7\n        /* \"#utility.yul\":3274:3280   */\n      dup3\n        /* \"#utility.yul\":3263:3272   */\n      dup8\n        /* \"#utility.yul\":3259:3281   */\n      add\n        /* \"#utility.yul\":3238:3291   */\n      tag_225\n      jump\t// in\n    tag_265:\n        /* \"#utility.yul\":3228:3291   */\n      swap4\n      pop\n        /* \"#utility.yul\":3184:3301   */\n      pop\n        /* \"#utility.yul\":3340:3342   */\n      0x20\n        /* \"#utility.yul\":3366:3419   */\n      tag_266\n        /* \"#utility.yul\":3411:3418   */\n      dup7\n        /* \"#utility.yul\":3402:3408   */\n      dup3\n        /* \"#utility.yul\":3391:3400   */\n      dup8\n        /* \"#utility.yul\":3387:3409   */\n      add\n        /* \"#utility.yul\":3366:3419   */\n      tag_225\n      jump\t// in\n    tag_266:\n        /* \"#utility.yul\":3356:3419   */\n      swap3\n      pop\n        /* \"#utility.yul\":3311:3429   */\n      pop\n        /* \"#utility.yul\":3468:3470   */\n      0x40\n        /* \"#utility.yul\":3494:3547   */\n      tag_267\n        /* \"#utility.yul\":3539:3546   */\n      dup7\n        /* \"#utility.yul\":3530:3536   */\n      dup3\n        /* \"#utility.yul\":3519:3528   */\n      dup8\n        /* \"#utility.yul\":3515:3537   */\n      add\n        /* \"#utility.yul\":3494:3547   */\n      tag_248\n      jump\t// in\n    tag_267:\n        /* \"#utility.yul\":3484:3547   */\n      swap2\n      pop\n        /* \"#utility.yul\":3439:3557   */\n      pop\n        /* \"#utility.yul\":2945:3564   */\n      swap3\n      pop\n      swap3\n      pop\n      swap3\n      jump\t// out\n        /* \"#utility.yul\":3570:4513   */\n    tag_88:\n        /* \"#utility.yul\":3665:3671   */\n      0x00\n        /* \"#utility.yul\":3673:3679   */\n      dup1\n        /* \"#utility.yul\":3681:3687   */\n      0x00\n        /* \"#utility.yul\":3689:3695   */\n      dup1\n        /* \"#utility.yul\":3738:3741   */\n      0x80\n        /* \"#utility.yul\":3726:3735   */\n      dup6\n        /* \"#utility.yul\":3717:3724   */\n      dup8\n        /* \"#utility.yul\":3713:3736   */\n      sub\n        /* \"#utility.yul\":3709:3742   */\n      slt\n        /* \"#utility.yul\":3706:3826   */\n      iszero\n      tag_269\n      jumpi\n        /* \"#utility.yul\":3745:3824   */\n      tag_270\n      tag_255\n      jump\t// in\n    tag_270:\n        /* \"#utility.yul\":3706:3826   */\n    tag_269:\n        /* \"#utility.yul\":3865:3866   */\n      0x00\n        /* \"#utility.yul\":3890:3943   */\n      tag_271\n        /* \"#utility.yul\":3935:3942   */\n      dup8\n        /* \"#utility.yul\":3926:3932   */\n      dup3\n        /* \"#utility.yul\":3915:3924   */\n      dup9\n        /* \"#utility.yul\":3911:3933   */\n      add\n        /* \"#utility.yul\":3890:3943   */\n      tag_225\n      jump\t// in\n    tag_271:\n        /* \"#utility.yul\":3880:3943   */\n      swap5\n      pop\n        /* \"#utility.yul\":3836:3953   */\n      pop\n        /* \"#utility.yul\":3992:3994   */\n      0x20\n        /* \"#utility.yul\":4018:4071   */\n      tag_272\n        /* \"#utility.yul\":4063:4070   */\n      dup8\n        /* \"#utility.yul\":4054:4060   */\n      dup3\n        /* \"#utility.yul\":4043:4052   */\n      dup9\n        /* \"#utility.yul\":4039:4061   */\n      add\n        /* \"#utility.yul\":4018:4071   */\n      tag_225\n      jump\t// in\n    tag_272:\n        /* \"#utility.yul\":4008:4071   */\n      swap4\n      pop\n        /* \"#utility.yul\":3963:4081   */\n      pop\n        /* \"#utility.yul\":4120:4122   */\n      0x40\n        /* \"#utility.yul\":4146:4199   */\n      tag_273\n        /* \"#utility.yul\":4191:4198   */\n      dup8\n        /* \"#utility.yul\":4182:4188   */\n      dup3\n        /* \"#utility.yul\":4171:4180   */\n      dup9\n        /* \"#utility.yul\":4167:4189   */\n      add\n        /* \"#utility.yul\":4146:4199   */\n      tag_248\n      jump\t// in\n    tag_273:\n        /* \"#utility.yul\":4136:4199   */\n      swap3\n      pop\n        /* \"#utility.yul\":4091:4209   */\n      pop\n        /* \"#utility.yul\":4276:4278   */\n      0x60\n        /* \"#utility.yul\":4265:4274   */\n      dup6\n        /* \"#utility.yul\":4261:4279   */\n      add\n        /* \"#utility.yul\":4248:4280   */\n      calldataload\n        /* \"#utility.yul\":4307:4325   */\n      0xffffffffffffffff\n        /* \"#utility.yul\":4299:4305   */\n      dup2\n        /* \"#utility.yul\":4296:4326   */\n      gt\n        /* \"#utility.yul\":4293:4410   */\n      iszero\n      tag_274\n      jumpi\n        /* \"#utility.yul\":4329:4408   */\n      tag_275\n      tag_276\n      jump\t// in\n    tag_275:\n        /* \"#utility.yul\":4293:4410   */\n    tag_274:\n        /* \"#utility.yul\":4434:4496   */\n      tag_277\n        /* \"#utility.yul\":4488:4495   */\n      dup8\n        /* \"#utility.yul\":4479:4485   */\n      dup3\n        /* \"#utility.yul\":4468:4477   */\n      dup9\n        /* \"#utility.yul\":4464:4486   */\n      add\n        /* \"#utility.yul\":4434:4496   */\n      tag_237\n      jump\t// in\n    tag_277:\n        /* \"#utility.yul\":4424:4496   */\n      swap2\n      pop\n        /* \"#utility.yul\":4219:4506   */\n      pop\n        /* \"#utility.yul\":3570:4513   */\n      swap3\n      swap6\n      swap2\n      swap5\n      pop\n      swap3\n      pop\n      jump\t// out\n        /* \"#utility.yul\":4519:4987   */\n    tag_84:\n        /* \"#utility.yul\":4584:4590   */\n      0x00\n        /* \"#utility.yul\":4592:4598   */\n      dup1\n        /* \"#utility.yul\":4641:4643   */\n      0x40\n        /* \"#utility.yul\":4629:4638   */\n      dup4\n        /* \"#utility.yul\":4620:4627   */\n      dup6\n        /* \"#utility.yul\":4616:4639   */\n      sub\n        /* \"#utility.yul\":4612:4644   */\n      slt\n        /* \"#utility.yul\":4609:4728   */\n      iszero\n      tag_279\n      jumpi\n        /* \"#utility.yul\":4647:4726   */\n      tag_280\n      tag_255\n      jump\t// in\n    tag_280:\n        /* \"#utility.yul\":4609:4728   */\n    tag_279:\n        /* \"#utility.yul\":4767:4768   */\n      0x00\n        /* \"#utility.yul\":4792:4845   */\n      tag_281\n        /* \"#utility.yul\":4837:4844   */\n      dup6\n        /* \"#utility.yul\":4828:4834   */\n      dup3\n        /* \"#utility.yul\":4817:4826   */\n      dup7\n        /* \"#utility.yul\":4813:4835   */\n      add\n        /* \"#utility.yul\":4792:4845   */\n      tag_225\n      jump\t// in\n    tag_281:\n        /* \"#utility.yul\":4782:4845   */\n      swap3\n      pop\n        /* \"#utility.yul\":4738:4855   */\n      pop\n        /* \"#utility.yul\":4894:4896   */\n      0x20\n        /* \"#utility.yul\":4920:4970   */\n      tag_282\n        /* \"#utility.yul\":4962:4969   */\n      dup6\n        /* \"#utility.yul\":4953:4959   */\n      dup3\n        /* \"#utility.yul\":4942:4951   */\n      dup7\n        /* \"#utility.yul\":4938:4960   */\n      add\n        /* \"#utility.yul\":4920:4970   */\n      tag_229\n      jump\t// in\n    tag_282:\n        /* \"#utility.yul\":4910:4970   */\n      swap2\n      pop\n        /* \"#utility.yul\":4865:4980   */\n      pop\n        /* \"#utility.yul\":4519:4987   */\n      swap3\n      pop\n      swap3\n      swap1\n      pop\n      jump\t// out\n        /* \"#utility.yul\":4993:5467   */\n    tag_43:\n        /* \"#utility.yul\":5061:5067   */\n      0x00\n        /* \"#utility.yul\":5069:5075   */\n      dup1\n        /* \"#utility.yul\":5118:5120   */\n      0x40\n        /* \"#utility.yul\":5106:5115   */\n      dup4\n        /* \"#utility.yul\":5097:5104   */\n      dup6\n        /* \"#utility.yul\":5093:5116   */\n      sub\n        /* \"#utility.yul\":5089:5121   */\n      slt\n        /* \"#utility.yul\":5086:5205   */\n      iszero\n      tag_284\n      jumpi\n        /* \"#utility.yul\":5124:5203   */\n      tag_285\n      tag_255\n      jump\t// in\n    tag_285:\n        /* \"#utility.yul\":5086:5205   */\n    tag_284:\n        /* \"#utility.yul\":5244:5245   */\n      0x00\n        /* \"#utility.yul\":5269:5322   */\n      tag_286\n        /* \"#utility.yul\":5314:5321   */\n      dup6\n        /* \"#utility.yul\":5305:5311   */\n      dup3\n        /* \"#utility.yul\":5294:5303   */\n      dup7\n        /* \"#utility.yul\":5290:5312   */\n      add\n        /* \"#utility.yul\":5269:5322   */\n      tag_225\n      jump\t// in\n    tag_286:\n        /* \"#utility.yul\":5259:5322   */\n      swap3\n      pop\n        /* \"#utility.yul\":5215:5332   */\n      pop\n        /* \"#utility.yul\":5371:5373   */\n      0x20\n        /* \"#utility.yul\":5397:5450   */\n      tag_287\n        /* \"#utility.yul\":5442:5449   */\n      dup6\n        /* \"#utility.yul\":5433:5439   */\n      dup3\n        /* \"#utility.yul\":5422:5431   */\n      dup7\n        /* \"#utility.yul\":5418:5440   */\n      add\n        /* \"#utility.yul\":5397:5450   */\n      tag_248\n      jump\t// in\n    tag_287:\n        /* \"#utility.yul\":5387:5450   */\n      swap2\n      pop\n        /* \"#utility.yul\":5342:5460   */\n      pop\n        /* \"#utility.yul\":4993:5467   */\n      swap3\n      pop\n      swap3\n      swap1\n      pop\n      jump\t// out\n        /* \"#utility.yul\":5473:6272   */\n    tag_98:\n        /* \"#utility.yul\":5560:5566   */\n      0x00\n        /* \"#utility.yul\":5568:5574   */\n      dup1\n        /* \"#utility.yul\":5576:5582   */\n      0x00\n        /* \"#utility.yul\":5625:5627   */\n      0x60\n        /* \"#utility.yul\":5613:5622   */\n      dup5\n        /* \"#utility.yul\":5604:5611   */\n      dup7\n        /* \"#utility.yul\":5600:5623   */\n      sub\n        /* \"#utility.yul\":5596:5628   */\n      slt\n        /* \"#utility.yul\":5593:5712   */\n      iszero\n      tag_289\n      jumpi\n        /* \"#utility.yul\":5631:5710   */\n      tag_290\n      tag_255\n      jump\t// in\n    tag_290:\n        /* \"#utility.yul\":5593:5712   */\n    tag_289:\n        /* \"#utility.yul\":5751:5752   */\n      0x00\n        /* \"#utility.yul\":5776:5829   */\n      tag_291\n        /* \"#utility.yul\":5821:5828   */\n      dup7\n        /* \"#utility.yul\":5812:5818   */\n      dup3\n        /* \"#utility.yul\":5801:5810   */\n      dup8\n        /* \"#utility.yul\":5797:5819   */\n      add\n        /* \"#utility.yul\":5776:5829   */\n      tag_225\n      jump\t// in\n    tag_291:\n        /* \"#utility.yul\":5766:5829   */\n      swap4\n      pop\n        /* \"#utility.yul\":5722:5839   */\n      pop\n        /* \"#utility.yul\":5878:5880   */\n      0x20\n        /* \"#utility.yul\":5904:5957   */\n      tag_292\n        /* \"#utility.yul\":5949:5956   */\n      dup7\n        /* \"#utility.yul\":5940:5946   */\n      dup3\n        /* \"#utility.yul\":5929:5938   */\n      dup8\n        /* \"#utility.yul\":5925:5947   */\n      add\n        /* \"#utility.yul\":5904:5957   */\n      tag_248\n      jump\t// in\n    tag_292:\n        /* \"#utility.yul\":5894:5957   */\n      swap3\n      pop\n        /* \"#utility.yul\":5849:5967   */\n      pop\n        /* \"#utility.yul\":6034:6036   */\n      0x40\n        /* \"#utility.yul\":6023:6032   */\n      dup5\n        /* \"#utility.yul\":6019:6037   */\n      add\n        /* \"#utility.yul\":6006:6038   */\n      calldataload\n        /* \"#utility.yul\":6065:6083   */\n      0xffffffffffffffff\n        /* \"#utility.yul\":6057:6063   */\n      dup2\n        /* \"#utility.yul\":6054:6084   */\n      gt\n        /* \"#utility.yul\":6051:6168   */\n      iszero\n      tag_293\n      jumpi\n        /* \"#utility.yul\":6087:6166   */\n      tag_294\n      tag_276\n      jump\t// in\n    tag_294:\n        /* \"#utility.yul\":6051:6168   */\n    tag_293:\n        /* \"#utility.yul\":6192:6255   */\n      tag_295\n        /* \"#utility.yul\":6247:6254   */\n      dup7\n        /* \"#utility.yul\":6238:6244   */\n      dup3\n        /* \"#utility.yul\":6227:6236   */\n      dup8\n        /* \"#utility.yul\":6223:6245   */\n      add\n        /* \"#utility.yul\":6192:6255   */\n      tag_243\n      jump\t// in\n    tag_295:\n        /* \"#utility.yul\":6182:6255   */\n      swap2\n      pop\n        /* \"#utility.yul\":5977:6265   */\n      pop\n        /* \"#utility.yul\":5473:6272   */\n      swap3\n      pop\n      swap3\n      pop\n      swap3\n      jump\t// out\n        /* \"#utility.yul\":6278:6605   */\n    tag_25:\n        /* \"#utility.yul\":6336:6342   */\n      0x00\n        /* \"#utility.yul\":6385:6387   */\n      0x20\n        /* \"#utility.yul\":6373:6382   */\n      dup3\n        /* \"#utility.yul\":6364:6371   */\n      dup5\n        /* \"#utility.yul\":6360:6383   */\n      sub\n        /* \"#utility.yul\":6356:6388   */\n      slt\n        /* \"#utility.yul\":6353:6472   */\n      iszero\n      tag_297\n      jumpi\n        /* \"#utility.yul\":6391:6470   */\n      tag_298\n      tag_255\n      jump\t// in\n    tag_298:\n        /* \"#utility.yul\":6353:6472   */\n    tag_297:\n        /* \"#utility.yul\":6511:6512   */\n      0x00\n        /* \"#utility.yul\":6536:6588   */\n      tag_299\n        /* \"#utility.yul\":6580:6587   */\n      dup5\n        /* \"#utility.yul\":6571:6577   */\n      dup3\n        /* \"#utility.yul\":6560:6569   */\n      dup6\n        /* \"#utility.yul\":6556:6578   */\n      add\n        /* \"#utility.yul\":6536:6588   */\n      tag_233\n      jump\t// in\n    tag_299:\n        /* \"#utility.yul\":6526:6588   */\n      swap2\n      pop\n        /* \"#utility.yul\":6482:6598   */\n      pop\n        /* \"#utility.yul\":6278:6605   */\n      swap3\n      swap2\n      pop\n      pop\n      jump\t// out\n        /* \"#utility.yul\":6611:6940   */\n    tag_37:\n        /* \"#utility.yul\":6670:6676   */\n      0x00\n        /* \"#utility.yul\":6719:6721   */\n      0x20\n        /* \"#utility.yul\":6707:6716   */\n      dup3\n        /* \"#utility.yul\":6698:6705   */\n      dup5\n        /* \"#utility.yul\":6694:6717   */\n      sub\n        /* \"#utility.yul\":6690:6722   */\n      slt\n        /* \"#utility.yul\":6687:6806   */\n      iszero\n      tag_301\n      jumpi\n        /* \"#utility.yul\":6725:6804   */\n      tag_302\n      tag_255\n      jump\t// in\n    tag_302:\n        /* \"#utility.yul\":6687:6806   */\n    tag_301:\n        /* \"#utility.yul\":6845:6846   */\n      0x00\n        /* \"#utility.yul\":6870:6923   */\n      tag_303\n        /* \"#utility.yul\":6915:6922   */\n      dup5\n        /* \"#utility.yul\":6906:6912   */\n      dup3\n        /* \"#utility.yul\":6895:6904   */\n      dup6\n        /* \"#utility.yul\":6891:6913   */\n      add\n        /* \"#utility.yul\":6870:6923   */\n      tag_248\n      jump\t// in\n    tag_303:\n        /* \"#utility.yul\":6860:6923   */\n      swap2\n      pop\n        /* \"#utility.yul\":6816:6933   */\n      pop\n        /* \"#utility.yul\":6611:6940   */\n      swap3\n      swap2\n      pop\n      pop\n      jump\t// out\n        /* \"#utility.yul\":6946:7600   */\n    tag_48:\n        /* \"#utility.yul\":7024:7030   */\n      0x00\n        /* \"#utility.yul\":7032:7038   */\n      dup1\n        /* \"#utility.yul\":7081:7083   */\n      0x40\n        /* \"#utility.yul\":7069:7078   */\n      dup4\n        /* \"#utility.yul\":7060:7067   */\n      dup6\n        /* \"#utility.yul\":7056:7079   */\n      sub\n        /* \"#utility.yul\":7052:7084   */\n      slt\n        /* \"#utility.yul\":7049:7168   */\n      iszero\n      tag_305\n      jumpi\n        /* \"#utility.yul\":7087:7166   */\n      tag_306\n      tag_255\n      jump\t// in\n    tag_306:\n        /* \"#utility.yul\":7049:7168   */\n    tag_305:\n        /* \"#utility.yul\":7207:7208   */\n      0x00\n        /* \"#utility.yul\":7232:7285   */\n      tag_307\n        /* \"#utility.yul\":7277:7284   */\n      dup6\n        /* \"#utility.yul\":7268:7274   */\n      dup3\n        /* \"#utility.yul\":7257:7266   */\n      dup7\n        /* \"#utility.yul\":7253:7275   */\n      add\n        /* \"#utility.yul\":7232:7285   */\n      tag_248\n      jump\t// in\n    tag_307:\n        /* \"#utility.yul\":7222:7285   */\n      swap3\n      pop\n        /* \"#utility.yul\":7178:7295   */\n      pop\n        /* \"#utility.yul\":7362:7364   */\n      0x20\n        /* \"#utility.yul\":7351:7360   */\n      dup4\n        /* \"#utility.yul\":7347:7365   */\n      add\n        /* \"#utility.yul\":7334:7366   */\n      calldataload\n        /* \"#utility.yul\":7393:7411   */\n      0xffffffffffffffff\n        /* \"#utility.yul\":7385:7391   */\n      dup2\n        /* \"#utility.yul\":7382:7412   */\n      gt\n        /* \"#utility.yul\":7379:7496   */\n      iszero\n      tag_308\n      jumpi\n        /* \"#utility.yul\":7415:7494   */\n      tag_309\n      tag_276\n      jump\t// in\n    tag_309:\n        /* \"#utility.yul\":7379:7496   */\n    tag_308:\n        /* \"#utility.yul\":7520:7583   */\n      tag_310\n        /* \"#utility.yul\":7575:7582   */\n      dup6\n        /* \"#utility.yul\":7566:7572   */\n      dup3\n        /* \"#utility.yul\":7555:7564   */\n      dup7\n        /* \"#utility.yul\":7551:7573   */\n      add\n        /* \"#utility.yul\":7520:7583   */\n      tag_243\n      jump\t// in\n    tag_310:\n        /* \"#utility.yul\":7510:7583   */\n      swap2\n      pop\n        /* \"#utility.yul\":7305:7593   */\n      pop\n        /* \"#utility.yul\":6946:7600   */\n      swap3\n      pop\n      swap3\n      swap1\n      pop\n      jump\t// out\n        /* \"#utility.yul\":7606:7724   */\n    tag_311:\n        /* \"#utility.yul\":7693:7717   */\n      tag_313\n        /* \"#utility.yul\":7711:7716   */\n      dup2\n        /* \"#utility.yul\":7693:7717   */\n      tag_314\n      jump\t// in\n    tag_313:\n        /* \"#utility.yul\":7688:7691   */\n      dup3\n        /* \"#utility.yul\":7681:7718   */\n      mstore\n        /* \"#utility.yul\":7606:7724   */\n      pop\n      pop\n      jump\t// out\n        /* \"#utility.yul\":7730:7839   */\n    tag_315:\n        /* \"#utility.yul\":7811:7832   */\n      tag_317\n        /* \"#utility.yul\":7826:7831   */\n      dup2\n        /* \"#utility.yul\":7811:7832   */\n      tag_318\n      jump\t// in\n    tag_317:\n        /* \"#utility.yul\":7806:7809   */\n      dup3\n        /* \"#utility.yul\":7799:7833   */\n      mstore\n        /* \"#utility.yul\":7730:7839   */\n      pop\n      pop\n      jump\t// out\n        /* \"#utility.yul\":7845:8209   */\n    tag_319:\n        /* \"#utility.yul\":7933:7936   */\n      0x00\n        /* \"#utility.yul\":7961:8000   */\n      tag_321\n        /* \"#utility.yul\":7994:7999   */\n      dup3\n        /* \"#utility.yul\":7961:8000   */\n      tag_322\n      jump\t// in\n    tag_321:\n        /* \"#utility.yul\":8016:8087   */\n      tag_323\n        /* \"#utility.yul\":8080:8086   */\n      dup2\n        /* \"#utility.yul\":8075:8078   */\n      dup6\n        /* \"#utility.yul\":8016:8087   */\n      tag_324\n      jump\t// in\n    tag_323:\n        /* \"#utility.yul\":8009:8087   */\n      swap4\n      pop\n        /* \"#utility.yul\":8096:8148   */\n      tag_325\n        /* \"#utility.yul\":8141:8147   */\n      dup2\n        /* \"#utility.yul\":8136:8139   */\n      dup6\n        /* \"#utility.yul\":8129:8133   */\n      0x20\n        /* \"#utility.yul\":8122:8127   */\n      dup7\n        /* \"#utility.yul\":8118:8134   */\n      add\n        /* \"#utility.yul\":8096:8148   */\n      tag_326\n      jump\t// in\n    tag_325:\n        /* \"#utility.yul\":8173:8202   */\n      tag_327\n        /* \"#utility.yul\":8195:8201   */\n      dup2\n        /* \"#utility.yul\":8173:8202   */\n      tag_328\n      jump\t// in\n    tag_327:\n        /* \"#utility.yul\":8168:8171   */\n      dup5\n        /* \"#utility.yul\":8164:8203   */\n      add\n        /* \"#utility.yul\":8157:8203   */\n      swap2\n      pop\n        /* \"#utility.yul\":7937:8209   */\n      pop\n        /* \"#utility.yul\":7845:8209   */\n      swap3\n      swap2\n      pop\n      pop\n      jump\t// out\n        /* \"#utility.yul\":8215:8581   */\n    tag_329:\n        /* \"#utility.yul\":8357:8360   */\n      0x00\n        /* \"#utility.yul\":8378:8445   */\n      tag_331\n        /* \"#utility.yul\":8442:8444   */\n      0x0e\n        /* \"#utility.yul\":8437:8440   */\n      dup4\n        /* \"#utility.yul\":8378:8445   */\n      tag_324\n      jump\t// in\n    tag_331:\n        /* \"#utility.yul\":8371:8445   */\n      swap2\n      pop\n        /* \"#utility.yul\":8454:8547   */\n      tag_332\n        /* \"#utility.yul\":8543:8546   */\n      dup3\n        /* \"#utility.yul\":8454:8547   */\n      tag_333\n      jump\t// in\n    tag_332:\n        /* \"#utility.yul\":8572:8574   */\n      0x20\n        /* \"#utility.yul\":8567:8570   */\n      dup3\n        /* \"#utility.yul\":8563:8575   */\n      add\n        /* \"#utility.yul\":8556:8575   */\n      swap1\n      pop\n        /* \"#utility.yul\":8215:8581   */\n      swap2\n      swap1\n      pop\n      jump\t// out\n        /* \"#utility.yul\":8587:8953   */\n    tag_334:\n        /* \"#utility.yul\":8729:8732   */\n      0x00\n        /* \"#utility.yul\":8750:8817   */\n      tag_336\n        /* \"#utility.yul\":8814:8816   */\n      0x0f\n        /* \"#utility.yul\":8809:8812   */\n      dup4\n        /* \"#utility.yul\":8750:8817   */\n      tag_324\n      jump\t// in\n    tag_336:\n        /* \"#utility.yul\":8743:8817   */\n      swap2\n      pop\n        /* \"#utility.yul\":8826:8919   */\n      tag_337\n        /* \"#utility.yul\":8915:8918   */\n      dup3\n        /* \"#utility.yul\":8826:8919   */\n      tag_338\n      jump\t// in\n    tag_337:\n        /* \"#utility.yul\":8944:8946   */\n      0x20\n        /* \"#utility.yul\":8939:8942   */\n      dup3\n        /* \"#utility.yul\":8935:8947   */\n      add\n        /* \"#utility.yul\":8928:8947   */\n      swap1\n      pop\n        /* \"#utility.yul\":8587:8953   */\n      swap2\n      swap1\n      pop\n      jump\t// out\n        /* \"#utility.yul\":8959:9325   */\n    tag_339:\n        /* \"#utility.yul\":9101:9104   */\n      0x00\n        /* \"#utility.yul\":9122:9189   */\n      tag_341\n        /* \"#utility.yul\":9186:9188   */\n      0x12\n        /* \"#utility.yul\":9181:9184   */\n      dup4\n        /* \"#utility.yul\":9122:9189   */\n      tag_324\n      jump\t// in\n    tag_341:\n        /* \"#utility.yul\":9115:9189   */\n      swap2\n      pop\n        /* \"#utility.yul\":9198:9291   */\n      tag_342\n        /* \"#utility.yul\":9287:9290   */\n      dup3\n        /* \"#utility.yul\":9198:9291   */\n      tag_343\n      jump\t// in\n    tag_342:\n        /* \"#utility.yul\":9316:9318   */\n      0x20\n        /* \"#utility.yul\":9311:9314   */\n      dup3\n        /* \"#utility.yul\":9307:9319   */\n      add\n        /* \"#utility.yul\":9300:9319   */\n      swap1\n      pop\n        /* \"#utility.yul\":8959:9325   */\n      swap2\n      swap1\n      pop\n      jump\t// out\n        /* \"#utility.yul\":9331:9697   */\n    tag_344:\n        /* \"#utility.yul\":9473:9476   */\n      0x00\n        /* \"#utility.yul\":9494:9561   */\n      tag_346\n        /* \"#utility.yul\":9558:9560   */\n      0x0e\n        /* \"#utility.yul\":9553:9556   */\n      dup4\n        /* \"#utility.yul\":9494:9561   */\n      tag_324\n      jump\t// in\n    tag_346:\n        /* \"#utility.yul\":9487:9561   */\n      swap2\n      pop\n        /* \"#utility.yul\":9570:9663   */\n      tag_347\n        /* \"#utility.yul\":9659:9662   */\n      dup3\n        /* \"#utility.yul\":9570:9663   */\n      tag_348\n      jump\t// in\n    tag_347:\n        /* \"#utility.yul\":9688:9690   */\n      0x20\n        /* \"#utility.yul\":9683:9686   */\n      dup3\n        /* \"#utility.yul\":9679:9691   */\n      add\n        /* \"#utility.yul\":9672:9691   */\n      swap1\n      pop\n        /* \"#utility.yul\":9331:9697   */\n      swap2\n      swap1\n      pop\n      jump\t// out\n        /* \"#utility.yul\":9703:10068   */\n    tag_349:\n        /* \"#utility.yul\":9845:9848   */\n      0x00\n        /* \"#utility.yul\":9866:9932   */\n      tag_351\n        /* \"#utility.yul\":9930:9931   */\n      0x08\n        /* \"#utility.yul\":9925:9928   */\n      dup4\n        /* \"#utility.yul\":9866:9932   */\n      tag_324\n      jump\t// in\n    tag_351:\n        /* \"#utility.yul\":9859:9932   */\n      swap2\n      pop\n        /* \"#utility.yul\":9941:10034   */\n      tag_352\n        /* \"#utility.yul\":10030:10033   */\n      dup3\n        /* \"#utility.yul\":9941:10034   */\n      tag_353\n      jump\t// in\n    tag_352:\n        /* \"#utility.yul\":10059:10061   */\n      0x20\n        /* \"#utility.yul\":10054:10057   */\n      dup3\n        /* \"#utility.yul\":10050:10062   */\n      add\n        /* \"#utility.yul\":10043:10062   */\n      swap1\n      pop\n        /* \"#utility.yul\":9703:10068   */\n      swap2\n      swap1\n      pop\n      jump\t// out\n        /* \"#utility.yul\":10074:10440   */\n    tag_354:\n        /* \"#utility.yul\":10216:10219   */\n      0x00\n        /* \"#utility.yul\":10237:10304   */\n      tag_356\n        /* \"#utility.yul\":10301:10303   */\n      0x0a\n        /* \"#utility.yul\":10296:10299   */\n      dup4\n        /* \"#utility.yul\":10237:10304   */\n      tag_324\n      jump\t// in\n    tag_356:\n        /* \"#utility.yul\":10230:10304   */\n      swap2\n      pop\n        /* \"#utility.yul\":10313:10406   */\n      tag_357\n        /* \"#utility.yul\":10402:10405   */\n      dup3\n        /* \"#utility.yul\":10313:10406   */\n      tag_358\n      jump\t// in\n    tag_357:\n        /* \"#utility.yul\":10431:10433   */\n      0x20\n        /* \"#utility.yul\":10426:10429   */\n      dup3\n        /* \"#utility.yul\":10422:10434   */\n      add\n        /* \"#utility.yul\":10415:10434   */\n      swap1\n      pop\n        /* \"#utility.yul\":10074:10440   */\n      swap2\n      swap1\n      pop\n      jump\t// out\n        /* \"#utility.yul\":10446:10812   */\n    tag_359:\n        /* \"#utility.yul\":10588:10591   */\n      0x00\n        /* \"#utility.yul\":10609:10676   */\n      tag_361\n        /* \"#utility.yul\":10673:10675   */\n      0x10\n        /* \"#utility.yul\":10668:10671   */\n      dup4\n        /* \"#utility.yul\":10609:10676   */\n      tag_324\n      jump\t// in\n    tag_361:\n        /* \"#utility.yul\":10602:10676   */\n      swap2\n      pop\n        /* \"#utility.yul\":10685:10778   */\n      tag_362\n        /* \"#utility.yul\":10774:10777   */\n      dup3\n        /* \"#utility.yul\":10685:10778   */\n      tag_363\n      jump\t// in\n    tag_362:\n        /* \"#utility.yul\":10803:10805   */\n      0x20\n        /* \"#utility.yul\":10798:10801   */\n      dup3\n        /* \"#utility.yul\":10794:10806   */\n      add\n        /* \"#utility.yul\":10787:10806   */\n      swap1\n      pop\n        /* \"#utility.yul\":10446:10812   */\n      swap2\n      swap1\n      pop\n      jump\t// out\n        /* \"#utility.yul\":10818:11184   */\n    tag_364:\n        /* \"#utility.yul\":10960:10963   */\n      0x00\n        /* \"#utility.yul\":10981:11048   */\n      tag_366\n        /* \"#utility.yul\":11045:11047   */\n      0x0e\n        /* \"#utility.yul\":11040:11043   */\n      dup4\n        /* \"#utility.yul\":10981:11048   */\n      tag_324\n      jump\t// in\n    tag_366:\n        /* \"#utility.yul\":10974:11048   */\n      swap2\n      pop\n        /* \"#utility.yul\":11057:11150   */\n      tag_367\n        /* \"#utility.yul\":11146:11149   */\n      dup3\n        /* \"#utility.yul\":11057:11150   */\n      tag_368\n      jump\t// in\n    tag_367:\n        /* \"#utility.yul\":11175:11177   */\n      0x20\n        /* \"#utility.yul\":11170:11173   */\n      dup3\n        /* \"#utility.yul\":11166:11178   */\n      add\n        /* \"#utility.yul\":11159:11178   */\n      swap1\n      pop\n        /* \"#utility.yul\":10818:11184   */\n      swap2\n      swap1\n      pop\n      jump\t// out\n        /* \"#utility.yul\":11190:11556   */\n    tag_369:\n        /* \"#utility.yul\":11332:11335   */\n      0x00\n        /* \"#utility.yul\":11353:11420   */\n      tag_371\n        /* \"#utility.yul\":11417:11419   */\n      0x18\n        /* \"#utility.yul\":11412:11415   */\n      dup4\n        /* \"#utility.yul\":11353:11420   */\n      tag_324\n      jump\t// in\n    tag_371:\n        /* \"#utility.yul\":11346:11420   */\n      swap2\n      pop\n        /* \"#utility.yul\":11429:11522   */\n      tag_372\n        /* \"#utility.yul\":11518:11521   */\n      dup3\n        /* \"#utility.yul\":11429:11522   */\n      tag_373\n      jump\t// in\n    tag_372:\n        /* \"#utility.yul\":11547:11549   */\n      0x20\n        /* \"#utility.yul\":11542:11545   */\n      dup3\n        /* \"#utility.yul\":11538:11550   */\n      add\n        /* \"#utility.yul\":11531:11550   */\n      swap1\n      pop\n        /* \"#utility.yul\":11190:11556   */\n      swap2\n      swap1\n      pop\n      jump\t// out\n        /* \"#utility.yul\":11562:11680   */\n    tag_374:\n        /* \"#utility.yul\":11649:11673   */\n      tag_376\n        /* \"#utility.yul\":11667:11672   */\n      dup2\n        /* \"#utility.yul\":11649:11673   */\n      tag_377\n      jump\t// in\n    tag_376:\n        /* \"#utility.yul\":11644:11647   */\n      dup3\n        /* \"#utility.yul\":11637:11674   */\n      mstore\n        /* \"#utility.yul\":11562:11680   */\n      pop\n      pop\n      jump\t// out\n        /* \"#utility.yul\":11686:11908   */\n    tag_40:\n        /* \"#utility.yul\":11779:11783   */\n      0x00\n        /* \"#utility.yul\":11817:11819   */\n      0x20\n        /* \"#utility.yul\":11806:11815   */\n      dup3\n        /* \"#utility.yul\":11802:11820   */\n      add\n        /* \"#utility.yul\":11794:11820   */\n      swap1\n      pop\n        /* \"#utility.yul\":11830:11901   */\n      tag_379\n        /* \"#utility.yul\":11898:11899   */\n      0x00\n        /* \"#utility.yul\":11887:11896   */\n      dup4\n        /* \"#utility.yul\":11883:11900   */\n      add\n        /* \"#utility.yul\":11874:11880   */\n      dup5\n        /* \"#utility.yul\":11830:11901   */\n      tag_311\n      jump\t// in\n    tag_379:\n        /* \"#utility.yul\":11686:11908   */\n      swap3\n      swap2\n      pop\n      pop\n      jump\t// out\n        /* \"#utility.yul\":11914:12124   */\n    tag_28:\n        /* \"#utility.yul\":12001:12005   */\n      0x00\n        /* \"#utility.yul\":12039:12041   */\n      0x20\n        /* \"#utility.yul\":12028:12037   */\n      dup3\n        /* \"#utility.yul\":12024:12042   */\n      add\n        /* \"#utility.yul\":12016:12042   */\n      swap1\n      pop\n        /* \"#utility.yul\":12052:12117   */\n      tag_381\n        /* \"#utility.yul\":12114:12115   */\n      0x00\n        /* \"#utility.yul\":12103:12112   */\n      dup4\n        /* \"#utility.yul\":12099:12116   */\n      add\n        /* \"#utility.yul\":12090:12096   */\n      dup5\n        /* \"#utility.yul\":12052:12117   */\n      tag_315\n      jump\t// in\n    tag_381:\n        /* \"#utility.yul\":11914:12124   */\n      swap3\n      swap2\n      pop\n      pop\n      jump\t// out\n        /* \"#utility.yul\":12130:12443   */\n    tag_33:\n        /* \"#utility.yul\":12243:12247   */\n      0x00\n        /* \"#utility.yul\":12281:12283   */\n      0x20\n        /* \"#utility.yul\":12270:12279   */\n      dup3\n        /* \"#utility.yul\":12266:12284   */\n      add\n        /* \"#utility.yul\":12258:12284   */\n      swap1\n      pop\n        /* \"#utility.yul\":12330:12339   */\n      dup2\n        /* \"#utility.yul\":12324:12328   */\n      dup2\n        /* \"#utility.yul\":12320:12340   */\n      sub\n        /* \"#utility.yul\":12316:12317   */\n      0x00\n        /* \"#utility.yul\":12305:12314   */\n      dup4\n        /* \"#utility.yul\":12301:12318   */\n      add\n        /* \"#utility.yul\":12294:12341   */\n      mstore\n        /* \"#utility.yul\":12358:12436   */\n      tag_383\n        /* \"#utility.yul\":12431:12435   */\n      dup2\n        /* \"#utility.yul\":12422:12428   */\n      dup5\n        /* \"#utility.yul\":12358:12436   */\n      tag_319\n      jump\t// in\n    tag_383:\n        /* \"#utility.yul\":12350:12436   */\n      swap1\n      pop\n        /* \"#utility.yul\":12130:12443   */\n      swap3\n      swap2\n      pop\n      pop\n      jump\t// out\n        /* \"#utility.yul\":12449:12868   */\n    tag_151:\n        /* \"#utility.yul\":12615:12619   */\n      0x00\n        /* \"#utility.yul\":12653:12655   */\n      0x20\n        /* \"#utility.yul\":12642:12651   */\n      dup3\n        /* \"#utility.yul\":12638:12656   */\n      add\n        /* \"#utility.yul\":12630:12656   */\n      swap1\n      pop\n        /* \"#utility.yul\":12702:12711   */\n      dup2\n        /* \"#utility.yul\":12696:12700   */\n      dup2\n        /* \"#utility.yul\":12692:12712   */\n      sub\n        /* \"#utility.yul\":12688:12689   */\n      0x00\n        /* \"#utility.yul\":12677:12686   */\n      dup4\n        /* \"#utility.yul\":12673:12690   */\n      add\n        /* \"#utility.yul\":12666:12713   */\n      mstore\n        /* \"#utility.yul\":12730:12861   */\n      tag_385\n        /* \"#utility.yul\":12856:12860   */\n      dup2\n        /* \"#utility.yul\":12730:12861   */\n      tag_329\n      jump\t// in\n    tag_385:\n        /* \"#utility.yul\":12722:12861   */\n      swap1\n      pop\n        /* \"#utility.yul\":12449:12868   */\n      swap2\n      swap1\n      pop\n      jump\t// out\n        /* \"#utility.yul\":12874:13293   */\n    tag_138:\n        /* \"#utility.yul\":13040:13044   */\n      0x00\n        /* \"#utility.yul\":13078:13080   */\n      0x20\n        /* \"#utility.yul\":13067:13076   */\n      dup3\n        /* \"#utility.yul\":13063:13081   */\n      add\n        /* \"#utility.yul\":13055:13081   */\n      swap1\n      pop\n        /* \"#utility.yul\":13127:13136   */\n      dup2\n        /* \"#utility.yul\":13121:13125   */\n      dup2\n        /* \"#utility.yul\":13117:13137   */\n      sub\n        /* \"#utility.yul\":13113:13114   */\n      0x00\n        /* \"#utility.yul\":13102:13111   */\n      dup4\n        /* \"#utility.yul\":13098:13115   */\n      add\n        /* \"#utility.yul\":13091:13138   */\n      mstore\n        /* \"#utility.yul\":13155:13286   */\n      tag_387\n        /* \"#utility.yul\":13281:13285   */\n      dup2\n        /* \"#utility.yul\":13155:13286   */\n      tag_334\n      jump\t// in\n    tag_387:\n        /* \"#utility.yul\":13147:13286   */\n      swap1\n      pop\n        /* \"#utility.yul\":12874:13293   */\n      swap2\n      swap1\n      pop\n      jump\t// out\n        /* \"#utility.yul\":13299:13718   */\n    tag_135:\n        /* \"#utility.yul\":13465:13469   */\n      0x00\n        /* \"#utility.yul\":13503:13505   */\n      0x20\n        /* \"#utility.yul\":13492:13501   */\n      dup3\n        /* \"#utility.yul\":13488:13506   */\n      add\n        /* \"#utility.yul\":13480:13506   */\n      swap1\n      pop\n        /* \"#utility.yul\":13552:13561   */\n      dup2\n        /* \"#utility.yul\":13546:13550   */\n      dup2\n        /* \"#utility.yul\":13542:13562   */\n      sub\n        /* \"#utility.yul\":13538:13539   */\n      0x00\n        /* \"#utility.yul\":13527:13536   */\n      dup4\n        /* \"#utility.yul\":13523:13540   */\n      add\n        /* \"#utility.yul\":13516:13563   */\n      mstore\n        /* \"#utility.yul\":13580:13711   */\n      tag_389\n        /* \"#utility.yul\":13706:13710   */\n      dup2\n        /* \"#utility.yul\":13580:13711   */\n      tag_339\n      jump\t// in\n    tag_389:\n        /* \"#utility.yul\":13572:13711   */\n      swap1\n      pop\n        /* \"#utility.yul\":13299:13718   */\n      swap2\n      swap1\n      pop\n      jump\t// out\n        /* \"#utility.yul\":13724:14143   */\n    tag_126:\n        /* \"#utility.yul\":13890:13894   */\n      0x00\n        /* \"#utility.yul\":13928:13930   */\n      0x20\n        /* \"#utility.yul\":13917:13926   */\n      dup3\n        /* \"#utility.yul\":13913:13931   */\n      add\n        /* \"#utility.yul\":13905:13931   */\n      swap1\n      pop\n        /* \"#utility.yul\":13977:13986   */\n      dup2\n        /* \"#utility.yul\":13971:13975   */\n      dup2\n        /* \"#utility.yul\":13967:13987   */\n      sub\n        /* \"#utility.yul\":13963:13964   */\n      0x00\n        /* \"#utility.yul\":13952:13961   */\n      dup4\n        /* \"#utility.yul\":13948:13965   */\n      add\n        /* \"#utility.yul\":13941:13988   */\n      mstore\n        /* \"#utility.yul\":14005:14136   */\n      tag_391\n        /* \"#utility.yul\":14131:14135   */\n      dup2\n        /* \"#utility.yul\":14005:14136   */\n      tag_344\n      jump\t// in\n    tag_391:\n        /* \"#utility.yul\":13997:14136   */\n      swap1\n      pop\n        /* \"#utility.yul\":13724:14143   */\n      swap2\n      swap1\n      pop\n      jump\t// out\n        /* \"#utility.yul\":14149:14568   */\n    tag_141:\n        /* \"#utility.yul\":14315:14319   */\n      0x00\n        /* \"#utility.yul\":14353:14355   */\n      0x20\n        /* \"#utility.yul\":14342:14351   */\n      dup3\n        /* \"#utility.yul\":14338:14356   */\n      add\n        /* \"#utility.yul\":14330:14356   */\n      swap1\n      pop\n        /* \"#utility.yul\":14402:14411   */\n      dup2\n        /* \"#utility.yul\":14396:14400   */\n      dup2\n        /* \"#utility.yul\":14392:14412   */\n      sub\n        /* \"#utility.yul\":14388:14389   */\n      0x00\n        /* \"#utility.yul\":14377:14386   */\n      dup4\n        /* \"#utility.yul\":14373:14390   */\n      add\n        /* \"#utility.yul\":14366:14413   */\n      mstore\n        /* \"#utility.yul\":14430:14561   */\n      tag_393\n        /* \"#utility.yul\":14556:14560   */\n      dup2\n        /* \"#utility.yul\":14430:14561   */\n      tag_349\n      jump\t// in\n    tag_393:\n        /* \"#utility.yul\":14422:14561   */\n      swap1\n      pop\n        /* \"#utility.yul\":14149:14568   */\n      swap2\n      swap1\n      pop\n      jump\t// out\n        /* \"#utility.yul\":14574:14993   */\n    tag_123:\n        /* \"#utility.yul\":14740:14744   */\n      0x00\n        /* \"#utility.yul\":14778:14780   */\n      0x20\n        /* \"#utility.yul\":14767:14776   */\n      dup3\n        /* \"#utility.yul\":14763:14781   */\n      add\n        /* \"#utility.yul\":14755:14781   */\n      swap1\n      pop\n        /* \"#utility.yul\":14827:14836   */\n      dup2\n        /* \"#utility.yul\":14821:14825   */\n      dup2\n        /* \"#utility.yul\":14817:14837   */\n      sub\n        /* \"#utility.yul\":14813:14814   */\n      0x00\n        /* \"#utility.yul\":14802:14811   */\n      dup4\n        /* \"#utility.yul\":14798:14815   */\n      add\n        /* \"#utility.yul\":14791:14838   */\n      mstore\n        /* \"#utility.yul\":14855:14986   */\n      tag_395\n        /* \"#utility.yul\":14981:14985   */\n      dup2\n        /* \"#utility.yul\":14855:14986   */\n      tag_354\n      jump\t// in\n    tag_395:\n        /* \"#utility.yul\":14847:14986   */\n      swap1\n      pop\n        /* \"#utility.yul\":14574:14993   */\n      swap2\n      swap1\n      pop\n      jump\t// out\n        /* \"#utility.yul\":14999:15418   */\n    tag_177:\n        /* \"#utility.yul\":15165:15169   */\n      0x00\n        /* \"#utility.yul\":15203:15205   */\n      0x20\n        /* \"#utility.yul\":15192:15201   */\n      dup3\n        /* \"#utility.yul\":15188:15206   */\n      add\n        /* \"#utility.yul\":15180:15206   */\n      swap1\n      pop\n        /* \"#utility.yul\":15252:15261   */\n      dup2\n        /* \"#utility.yul\":15246:15250   */\n      dup2\n        /* \"#utility.yul\":15242:15262   */\n      sub\n        /* \"#utility.yul\":15238:15239   */\n      0x00\n        /* \"#utility.yul\":15227:15236   */\n      dup4\n        /* \"#utility.yul\":15223:15240   */\n      add\n        /* \"#utility.yul\":15216:15263   */\n      mstore\n        /* \"#utility.yul\":15280:15411   */\n      tag_397\n        /* \"#utility.yul\":15406:15410   */\n      dup2\n        /* \"#utility.yul\":15280:15411   */\n      tag_359\n      jump\t// in\n    tag_397:\n        /* \"#utility.yul\":15272:15411   */\n      swap1\n      pop\n        /* \"#utility.yul\":14999:15418   */\n      swap2\n      swap1\n      pop\n      jump\t// out\n        /* \"#utility.yul\":15424:15843   */\n    tag_190:\n        /* \"#utility.yul\":15590:15594   */\n      0x00\n        /* \"#utility.yul\":15628:15630   */\n      0x20\n        /* \"#utility.yul\":15617:15626   */\n      dup3\n        /* \"#utility.yul\":15613:15631   */\n      add\n        /* \"#utility.yul\":15605:15631   */\n      swap1\n      pop\n        /* \"#utility.yul\":15677:15686   */\n      dup2\n        /* \"#utility.yul\":15671:15675   */\n      dup2\n        /* \"#utility.yul\":15667:15687   */\n      sub\n        /* \"#utility.yul\":15663:15664   */\n      0x00\n        /* \"#utility.yul\":15652:15661   */\n      dup4\n        /* \"#utility.yul\":15648:15665   */\n      add\n        /* \"#utility.yul\":15641:15688   */\n      mstore\n        /* \"#utility.yul\":15705:15836   */\n      tag_399\n        /* \"#utility.yul\":15831:15835   */\n      dup2\n        /* \"#utility.yul\":15705:15836   */\n      tag_364\n      jump\t// in\n    tag_399:\n        /* \"#utility.yul\":15697:15836   */\n      swap1\n      pop\n        /* \"#utility.yul\":15424:15843   */\n      swap2\n      swap1\n      pop\n      jump\t// out\n        /* \"#utility.yul\":15849:16268   */\n    tag_144:\n        /* \"#utility.yul\":16015:16019   */\n      0x00\n        /* \"#utility.yul\":16053:16055   */\n      0x20\n        /* \"#utility.yul\":16042:16051   */\n      dup3\n        /* \"#utility.yul\":16038:16056   */\n      add\n        /* \"#utility.yul\":16030:16056   */\n      swap1\n      pop\n        /* \"#utility.yul\":16102:16111   */\n      dup2\n        /* \"#utility.yul\":16096:16100   */\n      dup2\n        /* \"#utility.yul\":16092:16112   */\n      sub\n        /* \"#utility.yul\":16088:16089   */\n      0x00\n        /* \"#utility.yul\":16077:16086   */\n      dup4\n        /* \"#utility.yul\":16073:16090   */\n      add\n        /* \"#utility.yul\":16066:16113   */\n      mstore\n        /* \"#utility.yul\":16130:16261   */\n      tag_401\n        /* \"#utility.yul\":16256:16260   */\n      dup2\n        /* \"#utility.yul\":16130:16261   */\n      tag_369\n      jump\t// in\n    tag_401:\n        /* \"#utility.yul\":16122:16261   */\n      swap1\n      pop\n        /* \"#utility.yul\":15849:16268   */\n      swap2\n      swap1\n      pop\n      jump\t// out\n        /* \"#utility.yul\":16274:16496   */\n    tag_72:\n        /* \"#utility.yul\":16367:16371   */\n      0x00\n        /* \"#utility.yul\":16405:16407   */\n      0x20\n        /* \"#utility.yul\":16394:16403   */\n      dup3\n        /* \"#utility.yul\":16390:16408   */\n      add\n        /* \"#utility.yul\":16382:16408   */\n      swap1\n      pop\n        /* \"#utility.yul\":16418:16489   */\n      tag_403\n        /* \"#utility.yul\":16486:16487   */\n      0x00\n        /* \"#utility.yul\":16475:16484   */\n      dup4\n        /* \"#utility.yul\":16471:16488   */\n      add\n        /* \"#utility.yul\":16462:16468   */\n      dup5\n        /* \"#utility.yul\":16418:16489   */\n      tag_374\n      jump\t// in\n    tag_403:\n        /* \"#utility.yul\":16274:16496   */\n      swap3\n      swap2\n      pop\n      pop\n      jump\t// out\n        /* \"#utility.yul\":16502:16631   */\n    tag_211:\n        /* \"#utility.yul\":16536:16542   */\n      0x00\n        /* \"#utility.yul\":16563:16583   */\n      tag_405\n      tag_406\n      jump\t// in\n    tag_405:\n        /* \"#utility.yul\":16553:16583   */\n      swap1\n      pop\n        /* \"#utility.yul\":16592:16625   */\n      tag_407\n        /* \"#utility.yul\":16620:16624   */\n      dup3\n        /* \"#utility.yul\":16612:16618   */\n      dup3\n        /* \"#utility.yul\":16592:16625   */\n      tag_408\n      jump\t// in\n    tag_407:\n        /* \"#utility.yul\":16502:16631   */\n      swap2\n      swap1\n      pop\n      jump\t// out\n        /* \"#utility.yul\":16637:16712   */\n    tag_406:\n        /* \"#utility.yul\":16670:16676   */\n      0x00\n        /* \"#utility.yul\":16703:16705   */\n      0x40\n        /* \"#utility.yul\":16697:16706   */\n      mload\n        /* \"#utility.yul\":16687:16706   */\n      swap1\n      pop\n        /* \"#utility.yul\":16637:16712   */\n      swap1\n      jump\t// out\n        /* \"#utility.yul\":16718:17025   */\n    tag_210:\n        /* \"#utility.yul\":16779:16783   */\n      0x00\n        /* \"#utility.yul\":16869:16887   */\n      0xffffffffffffffff\n        /* \"#utility.yul\":16861:16867   */\n      dup3\n        /* \"#utility.yul\":16858:16888   */\n      gt\n        /* \"#utility.yul\":16855:16911   */\n      iszero\n      tag_411\n      jumpi\n        /* \"#utility.yul\":16891:16909   */\n      tag_412\n      tag_413\n      jump\t// in\n    tag_412:\n        /* \"#utility.yul\":16855:16911   */\n    tag_411:\n        /* \"#utility.yul\":16929:16958   */\n      tag_414\n        /* \"#utility.yul\":16951:16957   */\n      dup3\n        /* \"#utility.yul\":16929:16958   */\n      tag_328\n      jump\t// in\n    tag_414:\n        /* \"#utility.yul\":16921:16958   */\n      swap1\n      pop\n        /* \"#utility.yul\":17013:17017   */\n      0x20\n        /* \"#utility.yul\":17007:17011   */\n      dup2\n        /* \"#utility.yul\":17003:17018   */\n      add\n        /* \"#utility.yul\":16995:17018   */\n      swap1\n      pop\n        /* \"#utility.yul\":16718:17025   */\n      swap2\n      swap1\n      pop\n      jump\t// out\n        /* \"#utility.yul\":17031:17339   */\n    tag_221:\n        /* \"#utility.yul\":17093:17097   */\n      0x00\n        /* \"#utility.yul\":17183:17201   */\n      0xffffffffffffffff\n        /* \"#utility.yul\":17175:17181   */\n      dup3\n        /* \"#utility.yul\":17172:17202   */\n      gt\n        /* \"#utility.yul\":17169:17225   */\n      iszero\n      tag_416\n      jumpi\n        /* \"#utility.yul\":17205:17223   */\n      tag_417\n      tag_413\n      jump\t// in\n    tag_417:\n        /* \"#utility.yul\":17169:17225   */\n    tag_416:\n        /* \"#utility.yul\":17243:17272   */\n      tag_418\n        /* \"#utility.yul\":17265:17271   */\n      dup3\n        /* \"#utility.yul\":17243:17272   */\n      tag_328\n      jump\t// in\n    tag_418:\n        /* \"#utility.yul\":17235:17272   */\n      swap1\n      pop\n        /* \"#utility.yul\":17327:17331   */\n      0x20\n        /* \"#utility.yul\":17321:17325   */\n      dup2\n        /* \"#utility.yul\":17317:17332   */\n      add\n        /* \"#utility.yul\":17309:17332   */\n      swap1\n      pop\n        /* \"#utility.yul\":17031:17339   */\n      swap2\n      swap1\n      pop\n      jump\t// out\n        /* \"#utility.yul\":17345:17444   */\n    tag_322:\n        /* \"#utility.yul\":17397:17403   */\n      0x00\n        /* \"#utility.yul\":17431:17436   */\n      dup2\n        /* \"#utility.yul\":17425:17437   */\n      mload\n        /* \"#utility.yul\":17415:17437   */\n      swap1\n      pop\n        /* \"#utility.yul\":17345:17444   */\n      swap2\n      swap1\n      pop\n      jump\t// out\n        /* \"#utility.yul\":17450:17619   */\n    tag_324:\n        /* \"#utility.yul\":17534:17545   */\n      0x00\n        /* \"#utility.yul\":17568:17574   */\n      dup3\n        /* \"#utility.yul\":17563:17566   */\n      dup3\n        /* \"#utility.yul\":17556:17575   */\n      mstore\n        /* \"#utility.yul\":17608:17612   */\n      0x20\n        /* \"#utility.yul\":17603:17606   */\n      dup3\n        /* \"#utility.yul\":17599:17613   */\n      add\n        /* \"#utility.yul\":17584:17613   */\n      swap1\n      pop\n        /* \"#utility.yul\":17450:17619   */\n      swap3\n      swap2\n      pop\n      pop\n      jump\t// out\n        /* \"#utility.yul\":17625:17930   */\n    tag_155:\n        /* \"#utility.yul\":17665:17668   */\n      0x00\n        /* \"#utility.yul\":17684:17704   */\n      tag_422\n        /* \"#utility.yul\":17702:17703   */\n      dup3\n        /* \"#utility.yul\":17684:17704   */\n      tag_377\n      jump\t// in\n    tag_422:\n        /* \"#utility.yul\":17679:17704   */\n      swap2\n      pop\n        /* \"#utility.yul\":17718:17738   */\n      tag_423\n        /* \"#utility.yul\":17736:17737   */\n      dup4\n        /* \"#utility.yul\":17718:17738   */\n      tag_377\n      jump\t// in\n    tag_423:\n        /* \"#utility.yul\":17713:17738   */\n      swap3\n      pop\n        /* \"#utility.yul\":17872:17873   */\n      dup3\n        /* \"#utility.yul\":17804:17870   */\n      0xffffffffffffffffffffffffffffffffffffffffffffffffffffffffffffffff\n        /* \"#utility.yul\":17800:17874   */\n      sub\n        /* \"#utility.yul\":17797:17798   */\n      dup3\n        /* \"#utility.yul\":17794:17875   */\n      gt\n        /* \"#utility.yul\":17791:17898   */\n      iszero\n      tag_424\n      jumpi\n        /* \"#utility.yul\":17878:17896   */\n      tag_425\n      tag_426\n      jump\t// in\n    tag_425:\n        /* \"#utility.yul\":17791:17898   */\n    tag_424:\n        /* \"#utility.yul\":17922:17923   */\n      dup3\n        /* \"#utility.yul\":17919:17920   */\n      dup3\n        /* \"#utility.yul\":17915:17924   */\n      add\n        /* \"#utility.yul\":17908:17924   */\n      swap1\n      pop\n        /* \"#utility.yul\":17625:17930   */\n      swap3\n      swap2\n      pop\n      pop\n      jump\t// out\n        /* \"#utility.yul\":17936:18127   */\n    tag_153:\n        /* \"#utility.yul\":17976:17980   */\n      0x00\n        /* \"#utility.yul\":17996:18016   */\n      tag_428\n        /* \"#utility.yul\":18014:18015   */\n      dup3\n        /* \"#utility.yul\":17996:18016   */\n      tag_377\n      jump\t// in\n    tag_428:\n        /* \"#utility.yul\":17991:18016   */\n      swap2\n      pop\n        /* \"#utility.yul\":18030:18050   */\n      tag_429\n        /* \"#utility.yul\":18048:18049   */\n      dup4\n        /* \"#utility.yul\":18030:18050   */\n      tag_377\n      jump\t// in\n    tag_429:\n        /* \"#utility.yul\":18025:18050   */\n      swap3\n      pop\n        /* \"#utility.yul\":18069:18070   */\n      dup3\n        /* \"#utility.yul\":18066:18067   */\n      dup3\n        /* \"#utility.yul\":18063:18071   */\n      lt\n        /* \"#utility.yul\":18060:18094   */\n      iszero\n      tag_430\n      jumpi\n        /* \"#utility.yul\":18074:18092   */\n      tag_431\n      tag_426\n      jump\t// in\n    tag_431:\n        /* \"#utility.yul\":18060:18094   */\n    tag_430:\n        /* \"#utility.yul\":18119:18120   */\n      dup3\n        /* \"#utility.yul\":18116:18117   */\n      dup3\n        /* \"#utility.yul\":18112:18121   */\n      sub\n        /* \"#utility.yul\":18104:18121   */\n      swap1\n      pop\n        /* \"#utility.yul\":17936:18127   */\n      swap3\n      swap2\n      pop\n      pop\n      jump\t// out\n        /* \"#utility.yul\":18133:18229   */\n    tag_314:\n        /* \"#utility.yul\":18170:18177   */\n      0x00\n        /* \"#utility.yul\":18199:18223   */\n      tag_433\n        /* \"#utility.yul\":18217:18222   */\n      dup3\n        /* \"#utility.yul\":18199:18223   */\n      tag_434\n      jump\t// in\n    tag_433:\n        /* \"#utility.yul\":18188:18223   */\n      swap1\n      pop\n        /* \"#utility.yul\":18133:18229   */\n      swap2\n      swap1\n      pop\n      jump\t// out\n        /* \"#utility.yul\":18235:18325   */\n    tag_318:\n        /* \"#utility.yul\":18269:18276   */\n      0x00\n        /* \"#utility.yul\":18312:18317   */\n      dup2\n        /* \"#utility.yul\":18305:18318   */\n      iszero\n        /* \"#utility.yul\":18298:18319   */\n      iszero\n        /* \"#utility.yul\":18287:18319   */\n      swap1\n      pop\n        /* \"#utility.yul\":18235:18325   */\n      swap2\n      swap1\n      pop\n      jump\t// out\n        /* \"#utility.yul\":18331:18480   */\n    tag_436:\n        /* \"#utility.yul\":18367:18374   */\n      0x00\n        /* \"#utility.yul\":18407:18473   */\n      0xffffffff00000000000000000000000000000000000000000000000000000000\n        /* \"#utility.yul\":18400:18405   */\n      dup3\n        /* \"#utility.yul\":18396:18474   */\n      and\n        /* \"#utility.yul\":18385:18474   */\n      swap1\n      pop\n        /* \"#utility.yul\":18331:18480   */\n      swap2\n      swap1\n      pop\n      jump\t// out\n        /* \"#utility.yul\":18486:18612   */\n    tag_434:\n        /* \"#utility.yul\":18523:18530   */\n      0x00\n        /* \"#utility.yul\":18563:18605   */\n      0xffffffffffffffffffffffffffffffffffffffff\n        /* \"#utility.yul\":18556:18561   */\n      dup3\n        /* \"#utility.yul\":18552:18606   */\n      and\n        /* \"#utility.yul\":18541:18606   */\n      swap1\n      pop\n        /* \"#utility.yul\":18486:18612   */\n      swap2\n      swap1\n      pop\n      jump\t// out\n        /* \"#utility.yul\":18618:18695   */\n    tag_377:\n        /* \"#utility.yul\":18655:18662   */\n      0x00\n        /* \"#utility.yul\":18684:18689   */\n      dup2\n        /* \"#utility.yul\":18673:18689   */\n      swap1\n      pop\n        /* \"#utility.yul\":18618:18695   */\n      swap2\n      swap1\n      pop\n      jump\t// out\n        /* \"#utility.yul\":18701:18855   */\n    tag_216:\n        /* \"#utility.yul\":18785:18791   */\n      dup3\n        /* \"#utility.yul\":18780:18783   */\n      dup2\n        /* \"#utility.yul\":18775:18778   */\n      dup4\n        /* \"#utility.yul\":18762:18792   */\n      calldatacopy\n        /* \"#utility.yul\":18847:18848   */\n      0x00\n        /* \"#utility.yul\":18838:18844   */\n      dup4\n        /* \"#utility.yul\":18833:18836   */\n      dup4\n        /* \"#utility.yul\":18829:18845   */\n      add\n        /* \"#utility.yul\":18822:18849   */\n      mstore\n        /* \"#utility.yul\":18701:18855   */\n      pop\n      pop\n      pop\n      jump\t// out\n        /* \"#utility.yul\":18861:19168   */\n    tag_326:\n        /* \"#utility.yul\":18929:18930   */\n      0x00\n        /* \"#utility.yul\":18939:19052   */\n    tag_442:\n        /* \"#utility.yul\":18953:18959   */\n      dup4\n        /* \"#utility.yul\":18950:18951   */\n      dup2\n        /* \"#utility.yul\":18947:18960   */\n      lt\n        /* \"#utility.yul\":18939:19052   */\n      iszero\n      tag_444\n      jumpi\n        /* \"#utility.yul\":19038:19039   */\n      dup1\n        /* \"#utility.yul\":19033:19036   */\n      dup3\n        /* \"#utility.yul\":19029:19040   */\n      add\n        /* \"#utility.yul\":19023:19041   */\n      mload\n        /* \"#utility.yul\":19019:19020   */\n      dup2\n        /* \"#utility.yul\":19014:19017   */\n      dup5\n        /* \"#utility.yul\":19010:19021   */\n      add\n        /* \"#utility.yul\":19003:19042   */\n      mstore\n        /* \"#utility.yul\":18975:18977   */\n      0x20\n        /* \"#utility.yul\":18972:18973   */\n      dup2\n        /* \"#utility.yul\":18968:18978   */\n      add\n        /* \"#utility.yul\":18963:18978   */\n      swap1\n      pop\n        /* \"#utility.yul\":18939:19052   */\n      jump(tag_442)\n    tag_444:\n        /* \"#utility.yul\":19070:19076   */\n      dup4\n        /* \"#utility.yul\":19067:19068   */\n      dup2\n        /* \"#utility.yul\":19064:19077   */\n      gt\n        /* \"#utility.yul\":19061:19162   */\n      iszero\n      tag_445\n      jumpi\n        /* \"#utility.yul\":19150:19151   */\n      0x00\n        /* \"#utility.yul\":19141:19147   */\n      dup5\n        /* \"#utility.yul\":19136:19139   */\n      dup5\n        /* \"#utility.yul\":19132:19148   */\n      add\n        /* \"#utility.yul\":19125:19152   */\n      mstore\n        /* \"#utility.yul\":19061:19162   */\n    tag_445:\n        /* \"#utility.yul\":18910:19168   */\n      pop\n        /* \"#utility.yul\":18861:19168   */\n      pop\n      pop\n      pop\n      jump\t// out\n        /* \"#utility.yul\":19174:19494   */\n    tag_114:\n        /* \"#utility.yul\":19218:19224   */\n      0x00\n        /* \"#utility.yul\":19255:19256   */\n      0x02\n        /* \"#utility.yul\":19249:19253   */\n      dup3\n        /* \"#utility.yul\":19245:19257   */\n      div\n        /* \"#utility.yul\":19235:19257   */\n      swap1\n      pop\n        /* \"#utility.yul\":19302:19303   */\n      0x01\n        /* \"#utility.yul\":19296:19300   */\n      dup3\n        /* \"#utility.yul\":19292:19304   */\n      and\n        /* \"#utility.yul\":19323:19341   */\n      dup1\n        /* \"#utility.yul\":19313:19394   */\n      tag_447\n      jumpi\n        /* \"#utility.yul\":19379:19383   */\n      0x7f\n        /* \"#utility.yul\":19371:19377   */\n      dup3\n        /* \"#utility.yul\":19367:19384   */\n      and\n        /* \"#utility.yul\":19357:19384   */\n      swap2\n      pop\n        /* \"#utility.yul\":19313:19394   */\n    tag_447:\n        /* \"#utility.yul\":19441:19443   */\n      0x20\n        /* \"#utility.yul\":19433:19439   */\n      dup3\n        /* \"#utility.yul\":19430:19444   */\n      lt\n        /* \"#utility.yul\":19410:19428   */\n      dup2\n        /* \"#utility.yul\":19407:19445   */\n      eq\n        /* \"#utility.yul\":19404:19488   */\n      iszero\n      tag_448\n      jumpi\n        /* \"#utility.yul\":19460:19478   */\n      tag_449\n      tag_450\n      jump\t// in\n    tag_449:\n        /* \"#utility.yul\":19404:19488   */\n    tag_448:\n        /* \"#utility.yul\":19225:19494   */\n      pop\n        /* \"#utility.yul\":19174:19494   */\n      swap2\n      swap1\n      pop\n      jump\t// out\n        /* \"#utility.yul\":19500:19781   */\n    tag_408:\n        /* \"#utility.yul\":19583:19610   */\n      tag_452\n        /* \"#utility.yul\":19605:19609   */\n      dup3\n        /* \"#utility.yul\":19583:19610   */\n      tag_328\n      jump\t// in\n    tag_452:\n        /* \"#utility.yul\":19575:19581   */\n      dup2\n        /* \"#utility.yul\":19571:19611   */\n      add\n        /* \"#utility.yul\":19713:19719   */\n      dup2\n        /* \"#utility.yul\":19701:19711   */\n      dup2\n        /* \"#utility.yul\":19698:19720   */\n      lt\n        /* \"#utility.yul\":19677:19695   */\n      0xffffffffffffffff\n        /* \"#utility.yul\":19665:19675   */\n      dup3\n        /* \"#utility.yul\":19662:19696   */\n      gt\n        /* \"#utility.yul\":19659:19721   */\n      or\n        /* \"#utility.yul\":19656:19744   */\n      iszero\n      tag_453\n      jumpi\n        /* \"#utility.yul\":19724:19742   */\n      tag_454\n      tag_413\n      jump\t// in\n    tag_454:\n        /* \"#utility.yul\":19656:19744   */\n    tag_453:\n        /* \"#utility.yul\":19764:19774   */\n      dup1\n        /* \"#utility.yul\":19760:19762   */\n      0x40\n        /* \"#utility.yul\":19753:19775   */\n      mstore\n        /* \"#utility.yul\":19543:19781   */\n      pop\n        /* \"#utility.yul\":19500:19781   */\n      pop\n      pop\n      jump\t// out\n        /* \"#utility.yul\":19787:19967   */\n    tag_426:\n        /* \"#utility.yul\":19835:19912   */\n      0x4e487b7100000000000000000000000000000000000000000000000000000000\n        /* \"#utility.yul\":19832:19833   */\n      0x00\n        /* \"#utility.yul\":19825:19913   */\n      mstore\n        /* \"#utility.yul\":19932:19936   */\n      0x11\n        /* \"#utility.yul\":19929:19930   */\n      0x04\n        /* \"#utility.yul\":19922:19937   */\n      mstore\n        /* \"#utility.yul\":19956:19960   */\n      0x24\n        /* \"#utility.yul\":19953:19954   */\n      0x00\n        /* \"#utility.yul\":19946:19961   */\n      revert\n        /* \"#utility.yul\":19973:20153   */\n    tag_450:\n        /* \"#utility.yul\":20021:20098   */\n      0x4e487b7100000000000000000000000000000000000000000000000000000000\n        /* \"#utility.yul\":20018:20019   */\n      0x00\n        /* \"#utility.yul\":20011:20099   */\n      mstore\n        /* \"#utility.yul\":20118:20122   */\n      0x22\n        /* \"#utility.yul\":20115:20116   */\n      0x04\n        /* \"#utility.yul\":20108:20123   */\n      mstore\n        /* \"#utility.yul\":20142:20146   */\n      0x24\n        /* \"#utility.yul\":20139:20140   */\n      0x00\n        /* \"#utility.yul\":20132:20147   */\n      revert\n        /* \"#utility.yul\":20159:20339   */\n    tag_413:\n        /* \"#utility.yul\":20207:20284   */\n      0x4e487b7100000000000000000000000000000000000000000000000000000000\n        /* \"#utility.yul\":20204:20205   */\n      0x00\n        /* \"#utility.yul\":20197:20285   */\n      mstore\n        /* \"#utility.yul\":20304:20308   */\n      0x41\n        /* \"#utility.yul\":20301:20302   */\n      0x04\n        /* \"#utility.yul\":20294:20309   */\n      mstore\n        /* \"#utility.yul\":20328:20332   */\n      0x24\n        /* \"#utility.yul\":20325:20326   */\n      0x00\n        /* \"#utility.yul\":20318:20333   */\n      revert\n        /* \"#utility.yul\":20345:20462   */\n    tag_241:\n        /* \"#utility.yul\":20454:20455   */\n      0x00\n        /* \"#utility.yul\":20451:20452   */\n      dup1\n        /* \"#utility.yul\":20444:20456   */\n      revert\n        /* \"#utility.yul\":20468:20585   */\n    tag_214:\n        /* \"#utility.yul\":20577:20578   */\n      0x00\n        /* \"#utility.yul\":20574:20575   */\n      dup1\n        /* \"#utility.yul\":20567:20579   */\n      revert\n        /* \"#utility.yul\":20591:20708   */\n    tag_276:\n        /* \"#utility.yul\":20700:20701   */\n      0x00\n        /* \"#utility.yul\":20697:20698   */\n      dup1\n        /* \"#utility.yul\":20690:20702   */\n      revert\n        /* \"#utility.yul\":20714:20831   */\n    tag_255:\n        /* \"#utility.yul\":20823:20824   */\n      0x00\n        /* \"#utility.yul\":20820:20821   */\n      dup1\n        /* \"#utility.yul\":20813:20825   */\n      revert\n        /* \"#utility.yul\":20837:20939   */\n    tag_328:\n        /* \"#utility.yul\":20878:20884   */\n      0x00\n        /* \"#utility.yul\":20929:20931   */\n      0x1f\n        /* \"#utility.yul\":20925:20932   */\n      not\n        /* \"#utility.yul\":20920:20922   */\n      0x1f\n        /* \"#utility.yul\":20913:20918   */\n      dup4\n        /* \"#utility.yul\":20909:20923   */\n      add\n        /* \"#utility.yul\":20905:20933   */\n      and\n        /* \"#utility.yul\":20895:20933   */\n      swap1\n      pop\n        /* \"#utility.yul\":20837:20939   */\n      swap2\n      swap1\n      pop\n      jump\t// out\n        /* \"#utility.yul\":20945:21109   */\n    tag_333:\n        /* \"#utility.yul\":21085:21101   */\n      0x6e6f74207065726d697373696f6e000000000000000000000000000000000000\n        /* \"#utility.yul\":21081:21082   */\n      0x00\n        /* \"#utility.yul\":21073:21079   */\n      dup3\n        /* \"#utility.yul\":21069:21083   */\n      add\n        /* \"#utility.yul\":21062:21102   */\n      mstore\n        /* \"#utility.yul\":20945:21109   */\n      pop\n      jump\t// out\n        /* \"#utility.yul\":21115:21280   */\n    tag_338:\n        /* \"#utility.yul\":21255:21272   */\n      0x696e76616c696420746f6b656e49640000000000000000000000000000000000\n        /* \"#utility.yul\":21251:21252   */\n      0x00\n        /* \"#utility.yul\":21243:21249   */\n      dup3\n        /* \"#utility.yul\":21239:21253   */\n      add\n        /* \"#utility.yul\":21232:21273   */\n      mstore\n        /* \"#utility.yul\":21115:21280   */\n      pop\n      jump\t// out\n        /* \"#utility.yul\":21286:21454   */\n    tag_343:\n        /* \"#utility.yul\":21426:21446   */\n      0x696e76616c696420544f20616464726573730000000000000000000000000000\n        /* \"#utility.yul\":21422:21423   */\n      0x00\n        /* \"#utility.yul\":21414:21420   */\n      dup3\n        /* \"#utility.yul\":21410:21424   */\n      add\n        /* \"#utility.yul\":21403:21447   */\n      mstore\n        /* \"#utility.yul\":21286:21454   */\n      pop\n      jump\t// out\n        /* \"#utility.yul\":21460:21624   */\n    tag_348:\n        /* \"#utility.yul\":21600:21616   */\n      0x6e6f77207065726d697373696f6e000000000000000000000000000000000000\n        /* \"#utility.yul\":21596:21597   */\n      0x00\n        /* \"#utility.yul\":21588:21594   */\n      dup3\n        /* \"#utility.yul\":21584:21598   */\n      add\n        /* \"#utility.yul\":21577:21617   */\n      mstore\n        /* \"#utility.yul\":21460:21624   */\n      pop\n      jump\t// out\n        /* \"#utility.yul\":21630:21788   */\n    tag_353:\n        /* \"#utility.yul\":21770:21780   */\n      0x6e6f742041757468000000000000000000000000000000000000000000000000\n        /* \"#utility.yul\":21766:21767   */\n      0x00\n        /* \"#utility.yul\":21758:21764   */\n      dup3\n        /* \"#utility.yul\":21754:21768   */\n      add\n        /* \"#utility.yul\":21747:21781   */\n      mstore\n        /* \"#utility.yul\":21630:21788   */\n      pop\n      jump\t// out\n        /* \"#utility.yul\":21794:21954   */\n    tag_358:\n        /* \"#utility.yul\":21934:21946   */\n      0x6e6f74206d696e74656400000000000000000000000000000000000000000000\n        /* \"#utility.yul\":21930:21931   */\n      0x00\n        /* \"#utility.yul\":21922:21928   */\n      dup3\n        /* \"#utility.yul\":21918:21932   */\n      add\n        /* \"#utility.yul\":21911:21947   */\n      mstore\n        /* \"#utility.yul\":21794:21954   */\n      pop\n      jump\t// out\n        /* \"#utility.yul\":21960:22126   */\n    tag_363:\n        /* \"#utility.yul\":22100:22118   */\n      0x696e76616c6964206f70657261746f7200000000000000000000000000000000\n        /* \"#utility.yul\":22096:22097   */\n      0x00\n        /* \"#utility.yul\":22088:22094   */\n      dup3\n        /* \"#utility.yul\":22084:22098   */\n      add\n        /* \"#utility.yul\":22077:22119   */\n      mstore\n        /* \"#utility.yul\":21960:22126   */\n      pop\n      jump\t// out\n        /* \"#utility.yul\":22132:22296   */\n    tag_368:\n        /* \"#utility.yul\":22272:22288   */\n      0x616c7265616479206d696e746564000000000000000000000000000000000000\n        /* \"#utility.yul\":22268:22269   */\n      0x00\n        /* \"#utility.yul\":22260:22266   */\n      dup3\n        /* \"#utility.yul\":22256:22270   */\n      add\n        /* \"#utility.yul\":22249:22289   */\n      mstore\n        /* \"#utility.yul\":22132:22296   */\n      pop\n      jump\t// out\n        /* \"#utility.yul\":22302:22476   */\n    tag_373:\n        /* \"#utility.yul\":22442:22468   */\n      0x796f752063616e207472616e66657220796f757273656c660000000000000000\n        /* \"#utility.yul\":22438:22439   */\n      0x00\n        /* \"#utility.yul\":22430:22436   */\n      dup3\n        /* \"#utility.yul\":22426:22440   */\n      add\n        /* \"#utility.yul\":22419:22469   */\n      mstore\n        /* \"#utility.yul\":22302:22476   */\n      pop\n      jump\t// out\n        /* \"#utility.yul\":22482:22604   */\n    tag_228:\n        /* \"#utility.yul\":22555:22579   */\n      tag_473\n        /* \"#utility.yul\":22573:22578   */\n      dup2\n        /* \"#utility.yul\":22555:22579   */\n      tag_314\n      jump\t// in\n    tag_473:\n        /* \"#utility.yul\":22548:22553   */\n      dup2\n        /* \"#utility.yul\":22545:22580   */\n      eq\n        /* \"#utility.yul\":22535:22598   */\n      tag_474\n      jumpi\n        /* \"#utility.yul\":22594:22595   */\n      0x00\n        /* \"#utility.yul\":22591:22592   */\n      dup1\n        /* \"#utility.yul\":22584:22596   */\n      revert\n        /* \"#utility.yul\":22535:22598   */\n    tag_474:\n        /* \"#utility.yul\":22482:22604   */\n      pop\n      jump\t// out\n        /* \"#utility.yul\":22610:22726   */\n    tag_232:\n        /* \"#utility.yul\":22680:22701   */\n      tag_476\n        /* \"#utility.yul\":22695:22700   */\n      dup2\n        /* \"#utility.yul\":22680:22701   */\n      tag_318\n      jump\t// in\n    tag_476:\n        /* \"#utility.yul\":22673:22678   */\n      dup2\n        /* \"#utility.yul\":22670:22702   */\n      eq\n        /* \"#utility.yul\":22660:22720   */\n      tag_477\n      jumpi\n        /* \"#utility.yul\":22716:22717   */\n      0x00\n        /* \"#utility.yul\":22713:22714   */\n      dup1\n        /* \"#utility.yul\":22706:22718   */\n      revert\n        /* \"#utility.yul\":22660:22720   */\n    tag_477:\n        /* \"#utility.yul\":22610:22726   */\n      pop\n      jump\t// out\n        /* \"#utility.yul\":22732:22852   */\n    tag_236:\n        /* \"#utility.yul\":22804:22827   */\n      tag_479\n        /* \"#utility.yul\":22821:22826   */\n      dup2\n        /* \"#utility.yul\":22804:22827   */\n      tag_436\n      jump\t// in\n    tag_479:\n        /* \"#utility.yul\":22797:22802   */\n      dup2\n        /* \"#utility.yul\":22794:22828   */\n      eq\n        /* \"#utility.yul\":22784:22846   */\n      tag_480\n      jumpi\n        /* \"#utility.yul\":22842:22843   */\n      0x00\n        /* \"#utility.yul\":22839:22840   */\n      dup1\n        /* \"#utility.yul\":22832:22844   */\n      revert\n        /* \"#utility.yul\":22784:22846   */\n    tag_480:\n        /* \"#utility.yul\":22732:22852   */\n      pop\n      jump\t// out\n        /* \"#utility.yul\":22858:22980   */\n    tag_251:\n        /* \"#utility.yul\":22931:22955   */\n      tag_482\n        /* \"#utility.yul\":22949:22954   */\n      dup2\n        /* \"#utility.yul\":22931:22955   */\n      tag_377\n      jump\t// in\n    tag_482:\n        /* \"#utility.yul\":22924:22929   */\n      dup2\n        /* \"#utility.yul\":22921:22956   */\n      eq\n        /* \"#utility.yul\":22911:22974   */\n      tag_483\n      jumpi\n        /* \"#utility.yul\":22970:22971   */\n      0x00\n        /* \"#utility.yul\":22967:22968   */\n      dup1\n        /* \"#utility.yul\":22960:22972   */\n      revert\n        /* \"#utility.yul\":22911:22974   */\n    tag_483:\n        /* \"#utility.yul\":22858:22980   */\n      pop\n      jump\t// out\n\n    auxdata: 0xa2646970667358221220d0f4da414da62b1127f2f6feeadea87746999bfc25905cfd2e4f8cfdfb74815864736f6c63430008070033\n}\n",
				"bytecode": {
					"linkReferences": {},
					"object": "60806040526040518060400160405280600681526020017f6d696e696f6e00000000000000000000000000000000000000000000000000008152506000908051906020019062000051929190620000b4565b506040518060400160405280600381526020017f4d494e0000000000000000000000000000000000000000000000000000000000815250600190805190602001906200009f929190620000b4565b50348015620000ad57600080fd5b50620001c9565b828054620000c29062000164565b90600052602060002090601f016020900481019282620000e6576000855562000132565b82601f106200010157805160ff191683800117855562000132565b8280016001018555821562000132579182015b828111156200013157825182559160200191906001019062000114565b5b50905062000141919062000145565b5090565b5b808211156200016057600081600090555060010162000146565b5090565b600060028204905060018216806200017d57607f821691505b602082108114156200019457620001936200019a565b5b50919050565b7f4e487b7100000000000000000000000000000000000000000000000000000000600052602260045260246000fd5b6120c180620001d96000396000f3fe6080604052600436106100fe5760003560e01c80636c02a93111610095578063a22cb46511610064578063a22cb46514610320578063b88d4fde14610349578063c87b56dd14610365578063d3fc9864146103a2578063e985e9c5146103cb576100fe565b80636c02a9311461026257806370a082311461028d5780637b61c320146102ca57806395d89b41146102f5576100fe565b8063162094c4116100d1578063162094c4146101c457806323b872dd146101ed57806342842e0e146102095780636352211e14610225576100fe565b806301ffc9a71461010357806306fdde0314610140578063081812fc1461016b578063095ea7b3146101a8575b600080fd5b34801561010f57600080fd5b5061012a600480360381019061012591906117dc565b610408565b6040516101379190611a4e565b60405180910390f35b34801561014c57600080fd5b50610155610561565b6040516101629190611a69565b60405180910390f35b34801561017757600080fd5b50610192600480360381019061018d9190611809565b6105f3565b60405161019f9190611a33565b60405180910390f35b6101c260048036038101906101bd919061172d565b610630565b005b3480156101d057600080fd5b506101eb60048036038101906101e69190611836565b6107f8565b005b61020760048036038101906102029190611617565b6108a5565b005b610223600480360381019061021e9190611617565b6108b5565b005b34801561023157600080fd5b5061024c60048036038101906102479190611809565b610d05565b6040516102599190611a33565b60405180910390f35b34801561026e57600080fd5b50610277610d42565b6040516102849190611a69565b60405180910390f35b34801561029957600080fd5b506102b460048036038101906102af91906115aa565b610dd0565b6040516102c19190611bab565b60405180910390f35b3480156102d657600080fd5b506102df610e19565b6040516102ec9190611a69565b60405180910390f35b34801561030157600080fd5b5061030a610ea7565b6040516103179190611a69565b60405180910390f35b34801561032c57600080fd5b50610347600480360381019061034291906116ed565b610f39565b005b610363600480360381019061035e919061166a565b6110a5565b005b34801561037157600080fd5b5061038c60048036038101906103879190611809565b6110c6565b6040516103999190611a69565b60405180910390f35b3480156103ae57600080fd5b506103c960048036038101906103c4919061176d565b61116b565b005b3480156103d757600080fd5b506103f260048036038101906103ed91906115d7565b61133f565b6040516103ff9190611a4e565b60405180910390f35b60007f01ffc9a7000000000000000000000000000000000000000000000000000000007bffffffffffffffffffffffffffffffffffffffffffffffffffffffff1916827bffffffffffffffffffffffffffffffffffffffffffffffffffffffff19161415610479576001905061055c565b7f80ac58cd000000000000000000000000000000000000000000000000000000007bffffffffffffffffffffffffffffffffffffffffffffffffffffffff1916827bffffffffffffffffffffffffffffffffffffffffffffffffffffffff191614156104e8576001905061055c565b7f5b5e139f000000000000000000000000000000000000000000000000000000007bffffffffffffffffffffffffffffffffffffffffffffffffffffffff1916827bffffffffffffffffffffffffffffffffffffffffffffffffffffffff19161415610557576001905061055c565b600090505b919050565b60606000805461057090611da9565b80601f016020809104026020016040519081016040528092919081815260200182805461059c90611da9565b80156105e95780601f106105be576101008083540402835291602001916105e9565b820191906000526020600020905b8154815290600101906020018083116105cc57829003601f168201915b5050505050905090565b60006005600083815260200190815260200160002060009054906101000a900473ffffffffffffffffffffffffffffffffffffffff169050919050565b60006004600083815260200190815260200160002060009054906101000a900473ffffffffffffffffffffffffffffffffffffffff169050600073ffffffffffffffffffffffffffffffffffffffff168173ffffffffffffffffffffffffffffffffffffffff1614156106d8576040517f08c379a00000000000000000000000000000000000000000000000000000000081526004016106cf90611b2b565b60405180910390fd5b3373ffffffffffffffffffffffffffffffffffffffff168173ffffffffffffffffffffffffffffffffffffffff1614610746576040517f08c379a000000000000000000000000000000000000000000000000000000000815260040161073d90611aeb565b60405180910390fd5b826005600084815260200190815260200160002060006101000a81548173ffffffffffffffffffffffffffffffffffffffff021916908373ffffffffffffffffffffffffffffffffffffffff160217905550818373ffffffffffffffffffffffffffffffffffffffff168273ffffffffffffffffffffffffffffffffffffffff167f8c5be1e5ebec7d5bd14f71427d1e84f3dd0314c0f7b2291e5b200ac8c7c3b92560405160405180910390a4505050565b60006004600084815260200190815260200160002060009054906101000a900473ffffffffffffffffffffffffffffffffffffffff169050600073ffffffffffffffffffffffffffffffffffffffff168173ffffffffffffffffffffffffffffffffffffffff1614156108a0576040517f08c379a000000000000000000000000000000000000000000000000000000000815260040161089790611b2b565b60405180910390fd5b505050565b6108b08383836108b5565b505050565b600073ffffffffffffffffffffffffffffffffffffffff168273ffffffffffffffffffffffffffffffffffffffff161415610925576040517f08c379a000000000000000000000000000000000000000000000000000000000815260040161091c90611acb565b60405180910390fd5b60006004600083815260200190815260200160002060009054906101000a900473ffffffffffffffffffffffffffffffffffffffff169050600073ffffffffffffffffffffffffffffffffffffffff168173ffffffffffffffffffffffffffffffffffffffff1614156109cd576040517f08c379a00000000000000000000000000000000000000000000000000000000081526004016109c490611aab565b60405180910390fd5b8373ffffffffffffffffffffffffffffffffffffffff168173ffffffffffffffffffffffffffffffffffffffff1614610a3b576040517f08c379a0000000000000000000000000000000000000000000000000000000008152600401610a3290611b0b565b60405180910390fd5b8273ffffffffffffffffffffffffffffffffffffffff168473ffffffffffffffffffffffffffffffffffffffff161415610aaa576040517f08c379a0000000000000000000000000000000000000000000000000000000008152600401610aa190611b8b565b60405180910390fd5b8373ffffffffffffffffffffffffffffffffffffffff163373ffffffffffffffffffffffffffffffffffffffff161480610b1757503373ffffffffffffffffffffffffffffffffffffffff16610aff836105f3565b73ffffffffffffffffffffffffffffffffffffffff16145b80610b2f575060011515610b2b823361133f565b1515145b610b6e576040517f08c379a0000000000000000000000000000000000000000000000000000000008152600401610b6590611a8b565b60405180910390fd5b6005600083815260200190815260200160002060006101000a81549073ffffffffffffffffffffffffffffffffffffffff0219169055826004600084815260200190815260200160002060006101000a81548173ffffffffffffffffffffffffffffffffffffffff021916908373ffffffffffffffffffffffffffffffffffffffff1602179055506001600360008673ffffffffffffffffffffffffffffffffffffffff1673ffffffffffffffffffffffffffffffffffffffff1681526020019081526020016000206000828254610c469190611cbf565b925050819055506001600360008573ffffffffffffffffffffffffffffffffffffffff1673ffffffffffffffffffffffffffffffffffffffff1681526020019081526020016000206000828254610c9d9190611c69565b92505081905550818373ffffffffffffffffffffffffffffffffffffffff168573ffffffffffffffffffffffffffffffffffffffff167fddf252ad1be2c89b69c2b068fc378daa952ba7f163c4a11628f55a4df523b3ef60405160405180910390a450505050565b60006004600083815260200190815260200160002060009054906101000a900473ffffffffffffffffffffffffffffffffffffffff169050919050565b60008054610d4f90611da9565b80601f0160208091040260200160405190810160405280929190818152602001828054610d7b90611da9565b8015610dc85780601f10610d9d57610100808354040283529160200191610dc8565b820191906000526020600020905b815481529060010190602001808311610dab57829003601f168201915b505050505081565b6000600360008373ffffffffffffffffffffffffffffffffffffffff1673ffffffffffffffffffffffffffffffffffffffff168152602001908152602001600020549050919050565b60018054610e2690611da9565b80601f0160208091040260200160405190810160405280929190818152602001828054610e5290611da9565b8015610e9f5780601f10610e7457610100808354040283529160200191610e9f565b820191906000526020600020905b815481529060010190602001808311610e8257829003601f168201915b505050505081565b606060018054610eb690611da9565b80601f0160208091040260200160405190810160405280929190818152602001828054610ee290611da9565b8015610f2f5780601f10610f0457610100808354040283529160200191610f2f565b820191906000526020600020905b815481529060010190602001808311610f1257829003601f168201915b5050505050905090565b8173ffffffffffffffffffffffffffffffffffffffff163373ffffffffffffffffffffffffffffffffffffffff161415610fa8576040517f08c379a0000000000000000000000000000000000000000000000000000000008152600401610f9f90611b4b565b60405180910390fd5b80600660003373ffffffffffffffffffffffffffffffffffffffff1673ffffffffffffffffffffffffffffffffffffffff16815260200190815260200160002060008473ffffffffffffffffffffffffffffffffffffffff1673ffffffffffffffffffffffffffffffffffffffff16815260200190815260200160002060006101000a81548160ff0219169083151502179055508173ffffffffffffffffffffffffffffffffffffffff163373ffffffffffffffffffffffffffffffffffffffff167f17307eab39ab6107e8899845ad3d59bd9653f200f220920489ca2b5937696c31836040516110999190611a4e565b60405180910390a35050565b6110c0848484604051806020016040528060008152506110a5565b50505050565b60606002600083815260200190815260200160002080546110e690611da9565b80601f016020809104026020016040519081016040528092919081815260200182805461111290611da9565b801561115f5780601f106111345761010080835404028352916020019161115f565b820191906000526020600020905b81548152906001019060200180831161114257829003601f168201915b50505050509050919050565b600073ffffffffffffffffffffffffffffffffffffffff166004600084815260200190815260200160002060009054906101000a900473ffffffffffffffffffffffffffffffffffffffff1673ffffffffffffffffffffffffffffffffffffffff161461120d576040517f08c379a000000000000000000000000000000000000000000000000000000000815260040161120490611b6b565b60405180910390fd5b826004600084815260200190815260200160002060006101000a81548173ffffffffffffffffffffffffffffffffffffffff021916908373ffffffffffffffffffffffffffffffffffffffff1602179055506001600360008573ffffffffffffffffffffffffffffffffffffffff1673ffffffffffffffffffffffffffffffffffffffff16815260200190815260200160002060008282546112af9190611c69565b92505081905550806002600084815260200190815260200160002090805190602001906112dd9291906113d3565b50818373ffffffffffffffffffffffffffffffffffffffff16600073ffffffffffffffffffffffffffffffffffffffff167fddf252ad1be2c89b69c2b068fc378daa952ba7f163c4a11628f55a4df523b3ef60405160405180910390a4505050565b6000600660008473ffffffffffffffffffffffffffffffffffffffff1673ffffffffffffffffffffffffffffffffffffffff16815260200190815260200160002060008373ffffffffffffffffffffffffffffffffffffffff1673ffffffffffffffffffffffffffffffffffffffff16815260200190815260200160002060009054906101000a900460ff16905092915050565b8280546113df90611da9565b90600052602060002090601f0160209004810192826114015760008555611448565b82601f1061141a57805160ff1916838001178555611448565b82800160010185558215611448579182015b8281111561144757825182559160200191906001019061142c565b5b5090506114559190611459565b5090565b5b8082111561147257600081600090555060010161145a565b5090565b600061148961148484611beb565b611bc6565b9050828152602081018484840111156114a5576114a4611e9e565b5b6114b0848285611d67565b509392505050565b60006114cb6114c684611c1c565b611bc6565b9050828152602081018484840111156114e7576114e6611e9e565b5b6114f2848285611d67565b509392505050565b6000813590506115098161202f565b92915050565b60008135905061151e81612046565b92915050565b6000813590506115338161205d565b92915050565b600082601f83011261154e5761154d611e99565b5b813561155e848260208601611476565b91505092915050565b600082601f83011261157c5761157b611e99565b5b813561158c8482602086016114b8565b91505092915050565b6000813590506115a481612074565b92915050565b6000602082840312156115c0576115bf611ea8565b5b60006115ce848285016114fa565b91505092915050565b600080604083850312156115ee576115ed611ea8565b5b60006115fc858286016114fa565b925050602061160d858286016114fa565b9150509250929050565b6000806000606084860312156116305761162f611ea8565b5b600061163e868287016114fa565b935050602061164f868287016114fa565b925050604061166086828701611595565b9150509250925092565b6000806000806080858703121561168457611683611ea8565b5b6000611692878288016114fa565b94505060206116a3878288016114fa565b93505060406116b487828801611595565b925050606085013567ffffffffffffffff8111156116d5576116d4611ea3565b5b6116e187828801611539565b91505092959194509250565b6000806040838503121561170457611703611ea8565b5b6000611712858286016114fa565b92505060206117238582860161150f565b9150509250929050565b6000806040838503121561174457611743611ea8565b5b6000611752858286016114fa565b925050602061176385828601611595565b9150509250929050565b60008060006060848603121561178657611785611ea8565b5b6000611794868287016114fa565b93505060206117a586828701611595565b925050604084013567ffffffffffffffff8111156117c6576117c5611ea3565b5b6117d286828701611567565b9150509250925092565b6000602082840312156117f2576117f1611ea8565b5b600061180084828501611524565b91505092915050565b60006020828403121561181f5761181e611ea8565b5b600061182d84828501611595565b91505092915050565b6000806040838503121561184d5761184c611ea8565b5b600061185b85828601611595565b925050602083013567ffffffffffffffff81111561187c5761187b611ea3565b5b61188885828601611567565b9150509250929050565b61189b81611cf3565b82525050565b6118aa81611d05565b82525050565b60006118bb82611c4d565b6118c58185611c58565b93506118d5818560208601611d76565b6118de81611ead565b840191505092915050565b60006118f6600e83611c58565b915061190182611ebe565b602082019050919050565b6000611919600f83611c58565b915061192482611ee7565b602082019050919050565b600061193c601283611c58565b915061194782611f10565b602082019050919050565b600061195f600e83611c58565b915061196a82611f39565b602082019050919050565b6000611982600883611c58565b915061198d82611f62565b602082019050919050565b60006119a5600a83611c58565b91506119b082611f8b565b602082019050919050565b60006119c8601083611c58565b91506119d382611fb4565b602082019050919050565b60006119eb600e83611c58565b91506119f682611fdd565b602082019050919050565b6000611a0e601883611c58565b9150611a1982612006565b602082019050919050565b611a2d81611d5d565b82525050565b6000602082019050611a486000830184611892565b92915050565b6000602082019050611a6360008301846118a1565b92915050565b60006020820190508181036000830152611a8381846118b0565b905092915050565b60006020820190508181036000830152611aa4816118e9565b9050919050565b60006020820190508181036000830152611ac48161190c565b9050919050565b60006020820190508181036000830152611ae48161192f565b9050919050565b60006020820190508181036000830152611b0481611952565b9050919050565b60006020820190508181036000830152611b2481611975565b9050919050565b60006020820190508181036000830152611b4481611998565b9050919050565b60006020820190508181036000830152611b64816119bb565b9050919050565b60006020820190508181036000830152611b84816119de565b9050919050565b60006020820190508181036000830152611ba481611a01565b9050919050565b6000602082019050611bc06000830184611a24565b92915050565b6000611bd0611be1565b9050611bdc8282611ddb565b919050565b6000604051905090565b600067ffffffffffffffff821115611c0657611c05611e6a565b5b611c0f82611ead565b9050602081019050919050565b600067ffffffffffffffff821115611c3757611c36611e6a565b5b611c4082611ead565b9050602081019050919050565b600081519050919050565b600082825260208201905092915050565b6000611c7482611d5d565b9150611c7f83611d5d565b9250827fffffffffffffffffffffffffffffffffffffffffffffffffffffffffffffffff03821115611cb457611cb3611e0c565b5b828201905092915050565b6000611cca82611d5d565b9150611cd583611d5d565b925082821015611ce857611ce7611e0c565b5b828203905092915050565b6000611cfe82611d3d565b9050919050565b60008115159050919050565b60007fffffffff0000000000000000000000000000000000000000000000000000000082169050919050565b600073ffffffffffffffffffffffffffffffffffffffff82169050919050565b6000819050919050565b82818337600083830152505050565b60005b83811015611d94578082015181840152602081019050611d79565b83811115611da3576000848401525b50505050565b60006002820490506001821680611dc157607f821691505b60208210811415611dd557611dd4611e3b565b5b50919050565b611de482611ead565b810181811067ffffffffffffffff82111715611e0357611e02611e6a565b5b80604052505050565b7f4e487b7100000000000000000000000000000000000000000000000000000000600052601160045260246000fd5b7f4e487b7100000000000000000000000000000000000000000000000000000000600052602260045260246000fd5b7f4e487b7100000000000000000000000000000000000000000000000000000000600052604160045260246000fd5b600080fd5b600080fd5b600080fd5b600080fd5b6000601f19601f8301169050919050565b7f6e6f74207065726d697373696f6e000000000000000000000000000000000000600082015250565b7f696e76616c696420746f6b656e49640000000000000000000000000000000000600082015250565b7f696e76616c696420544f20616464726573730000000000000000000000000000600082015250565b7f6e6f77207065726d697373696f6e000000000000000000000000000000000000600082015250565b7f6e6f742041757468000000000000000000000000000000000000000000000000600082015250565b7f6e6f74206d696e74656400000000000000000000000000000000000000000000600082015250565b7f696e76616c6964206f70657261746f7200000000000000000000000000000000600082015250565b7f616c7265616479206d696e746564000000000000000000000000000000000000600082015250565b7f796f752063616e207472616e66657220796f757273656c660000000000000000600082015250565b61203881611cf3565b811461204357600080fd5b50565b61204f81611d05565b811461205a57600080fd5b50565b61206681611d11565b811461207157600080fd5b50565b61207d81611d5d565b811461208857600080fd5b5056fea2646970667358221220d0f4da414da62b1127f2f6feeadea87746999bfc25905cfd2e4f8cfdfb74815864736f6c63430008070033",
					"opcodes": "PUSH1 0x80 PUSH1 0x40 MSTORE PUSH1 0x40 MLOAD DUP1 PUSH1 0x40 ADD PUSH1 0x40 MSTORE DUP1 PUSH1 0x6 DUP2 MSTORE PUSH1 0x20 ADD PUSH32 0x6D696E696F6E0000000000000000000000000000000000000000000000000000 DUP2 MSTORE POP PUSH1 0x0 SWAP1 DUP1 MLOAD SWAP1 PUSH1 0x20 ADD SWAP1 PUSH3 0x51 SWAP3 SWAP2 SWAP1 PUSH3 0xB4 JUMP JUMPDEST POP PUSH1 0x40 MLOAD DUP1 PUSH1 0x40 ADD PUSH1 0x40 MSTORE DUP1 PUSH1 0x3 DUP2 MSTORE PUSH1 0x20 ADD PUSH32 0x4D494E0000000000000000000000000000000000000000000000000000000000 DUP2 MSTORE POP PUSH1 0x1 SWAP1 DUP1 MLOAD SWAP1 PUSH1 0x20 ADD SWAP1 PUSH3 0x9F SWAP3 SWAP2 SWAP1 PUSH3 0xB4 JUMP JUMPDEST POP CALLVALUE DUP1 ISZERO PUSH3 0xAD JUMPI PUSH1 0x0 DUP1 REVERT JUMPDEST POP PUSH3 0x1C9 JUMP JUMPDEST DUP3 DUP1 SLOAD PUSH3 0xC2 SWAP1 PUSH3 0x164 JUMP JUMPDEST SWAP1 PUSH1 0x0 MSTORE PUSH1 0x20 PUSH1 0x0 KECCAK256 SWAP1 PUSH1 0x1F ADD PUSH1 0x20 SWAP1 DIV DUP2 ADD SWAP3 DUP3 PUSH3 0xE6 JUMPI PUSH1 0x0 DUP6 SSTORE PUSH3 0x132 JUMP JUMPDEST DUP3 PUSH1 0x1F LT PUSH3 0x101 JUMPI DUP1 MLOAD PUSH1 0xFF NOT AND DUP4 DUP1 ADD OR DUP6 SSTORE PUSH3 0x132 JUMP JUMPDEST DUP3 DUP1 ADD PUSH1 0x1 ADD DUP6 SSTORE DUP3 ISZERO PUSH3 0x132 JUMPI SWAP2 DUP3 ADD JUMPDEST DUP3 DUP2 GT ISZERO PUSH3 0x131 JUMPI DUP3 MLOAD DUP3 SSTORE SWAP2 PUSH1 0x20 ADD SWAP2 SWAP1 PUSH1 0x1 ADD SWAP1 PUSH3 0x114 JUMP JUMPDEST JUMPDEST POP SWAP1 POP PUSH3 0x141 SWAP2 SWAP1 PUSH3 0x145 JUMP JUMPDEST POP SWAP1 JUMP JUMPDEST JUMPDEST DUP1 DUP3 GT ISZERO PUSH3 0x160 JUMPI PUSH1 0x0 DUP2 PUSH1 0x0 SWAP1 SSTORE POP PUSH1 0x1 ADD PUSH3 0x146 JUMP JUMPDEST POP SWAP1 JUMP JUMPDEST PUSH1 0x0 PUSH1 0x2 DUP3 DIV SWAP1 POP PUSH1 0x1 DUP3 AND DUP1 PUSH3 0x17D JUMPI PUSH1 0x7F DUP3 AND SWAP2 POP JUMPDEST PUSH1 0x20 DUP3 LT DUP2 EQ ISZERO PUSH3 0x194 JUMPI PUSH3 0x193 PUSH3 0x19A JUMP JUMPDEST JUMPDEST POP SWAP2 SWAP1 POP JUMP JUMPDEST PUSH32 0x4E487B7100000000000000000000000000000000000000000000000000000000 PUSH1 0x0 MSTORE PUSH1 0x22 PUSH1 0x4 MSTORE PUSH1 0x24 PUSH1 0x0 REVERT JUMPDEST PUSH2 0x20C1 DUP1 PUSH3 0x1D9 PUSH1 0x0 CODECOPY PUSH1 0x0 RETURN INVALID PUSH1 0x80 PUSH1 0x40 MSTORE PUSH1 0x4 CALLDATASIZE LT PUSH2 0xFE JUMPI PUSH1 0x0 CALLDATALOAD PUSH1 0xE0 SHR DUP1 PUSH4 0x6C02A931 GT PUSH2 0x95 JUMPI DUP1 PUSH4 0xA22CB465 GT PUSH2 0x64 JUMPI DUP1 PUSH4 0xA22CB465 EQ PUSH2 0x320 JUMPI DUP1 PUSH4 0xB88D4FDE EQ PUSH2 0x349 JUMPI DUP1 PUSH4 0xC87B56DD EQ PUSH2 0x365 JUMPI DUP1 PUSH4 0xD3FC9864 EQ PUSH2 0x3A2 JUMPI DUP1 PUSH4 0xE985E9C5 EQ PUSH2 0x3CB JUMPI PUSH2 0xFE JUMP JUMPDEST DUP1 PUSH4 0x6C02A931 EQ PUSH2 0x262 JUMPI DUP1 PUSH4 0x70A08231 EQ PUSH2 0x28D JUMPI DUP1 PUSH4 0x7B61C320 EQ PUSH2 0x2CA JUMPI DUP1 PUSH4 0x95D89B41 EQ PUSH2 0x2F5 JUMPI PUSH2 0xFE JUMP JUMPDEST DUP1 PUSH4 0x162094C4 GT PUSH2 0xD1 JUMPI DUP1 PUSH4 0x162094C4 EQ PUSH2 0x1C4 JUMPI DUP1 PUSH4 0x23B872DD EQ PUSH2 0x1ED JUMPI DUP1 PUSH4 0x42842E0E EQ PUSH2 0x209 JUMPI DUP1 PUSH4 0x6352211E EQ PUSH2 0x225 JUMPI PUSH2 0xFE JUMP JUMPDEST DUP1 PUSH4 0x1FFC9A7 EQ PUSH2 0x103 JUMPI DUP1 PUSH4 0x6FDDE03 EQ PUSH2 0x140 JUMPI DUP1 PUSH4 0x81812FC EQ PUSH2 0x16B JUMPI DUP1 PUSH4 0x95EA7B3 EQ PUSH2 0x1A8 JUMPI JUMPDEST PUSH1 0x0 DUP1 REVERT JUMPDEST CALLVALUE DUP1 ISZERO PUSH2 0x10F JUMPI PUSH1 0x0 DUP1 REVERT JUMPDEST POP PUSH2 0x12A PUSH1 0x4 DUP1 CALLDATASIZE SUB DUP2 ADD SWAP1 PUSH2 0x125 SWAP2 SWAP1 PUSH2 0x17DC JUMP JUMPDEST PUSH2 0x408 JUMP JUMPDEST PUSH1 0x40 MLOAD PUSH2 0x137 SWAP2 SWAP1 PUSH2 0x1A4E JUMP JUMPDEST PUSH1 0x40 MLOAD DUP1 SWAP2 SUB SWAP1 RETURN JUMPDEST CALLVALUE DUP1 ISZERO PUSH2 0x14C JUMPI PUSH1 0x0 DUP1 REVERT JUMPDEST POP PUSH2 0x155 PUSH2 0x561 JUMP JUMPDEST PUSH1 0x40 MLOAD PUSH2 0x162 SWAP2 SWAP1 PUSH2 0x1A69 JUMP JUMPDEST PUSH1 0x40 MLOAD DUP1 SWAP2 SUB SWAP1 RETURN JUMPDEST CALLVALUE DUP1 ISZERO PUSH2 0x177 JUMPI PUSH1 0x0 DUP1 REVERT JUMPDEST POP PUSH2 0x192 PUSH1 0x4 DUP1 CALLDATASIZE SUB DUP2 ADD SWAP1 PUSH2 0x18D SWAP2 SWAP1 PUSH2 0x1809 JUMP JUMPDEST PUSH2 0x5F3 JUMP JUMPDEST PUSH1 0x40 MLOAD PUSH2 0x19F SWAP2 SWAP1 PUSH2 0x1A33 JUMP JUMPDEST PUSH1 0x40 MLOAD DUP1 SWAP2 SUB SWAP1 RETURN JUMPDEST PUSH2 0x1C2 PUSH1 0x4 DUP1 CALLDATASIZE SUB DUP2 ADD SWAP1 PUSH2 0x1BD SWAP2 SWAP1 PUSH2 0x172D JUMP JUMPDEST PUSH2 0x630 JUMP JUMPDEST STOP JUMPDEST CALLVALUE DUP1 ISZERO PUSH2 0x1D0 JUMPI PUSH1 0x0 DUP1 REVERT JUMPDEST POP PUSH2 0x1EB PUSH1 0x4 DUP1 CALLDATASIZE SUB DUP2 ADD SWAP1 PUSH2 0x1E6 SWAP2 SWAP1 PUSH2 0x1836 JUMP JUMPDEST PUSH2 0x7F8 JUMP JUMPDEST STOP JUMPDEST PUSH2 0x207 PUSH1 0x4 DUP1 CALLDATASIZE SUB DUP2 ADD SWAP1 PUSH2 0x202 SWAP2 SWAP1 PUSH2 0x1617 JUMP JUMPDEST PUSH2 0x8A5 JUMP JUMPDEST STOP JUMPDEST PUSH2 0x223 PUSH1 0x4 DUP1 CALLDATASIZE SUB DUP2 ADD SWAP1 PUSH2 0x21E SWAP2 SWAP1 PUSH2 0x1617 JUMP JUMPDEST PUSH2 0x8B5 JUMP JUMPDEST STOP JUMPDEST CALLVALUE DUP1 ISZERO PUSH2 0x231 JUMPI PUSH1 0x0 DUP1 REVERT JUMPDEST POP PUSH2 0x24C PUSH1 0x4 DUP1 CALLDATASIZE SUB DUP2 ADD SWAP1 PUSH2 0x247 SWAP2 SWAP1 PUSH2 0x1809 JUMP JUMPDEST PUSH2 0xD05 JUMP JUMPDEST PUSH1 0x40 MLOAD PUSH2 0x259 SWAP2 SWAP1 PUSH2 0x1A33 JUMP JUMPDEST PUSH1 0x40 MLOAD DUP1 SWAP2 SUB SWAP1 RETURN JUMPDEST CALLVALUE DUP1 ISZERO PUSH2 0x26E JUMPI PUSH1 0x0 DUP1 REVERT JUMPDEST POP PUSH2 0x277 PUSH2 0xD42 JUMP JUMPDEST PUSH1 0x40 MLOAD PUSH2 0x284 SWAP2 SWAP1 PUSH2 0x1A69 JUMP JUMPDEST PUSH1 0x40 MLOAD DUP1 SWAP2 SUB SWAP1 RETURN JUMPDEST CALLVALUE DUP1 ISZERO PUSH2 0x299 JUMPI PUSH1 0x0 DUP1 REVERT JUMPDEST POP PUSH2 0x2B4 PUSH1 0x4 DUP1 CALLDATASIZE SUB DUP2 ADD SWAP1 PUSH2 0x2AF SWAP2 SWAP1 PUSH2 0x15AA JUMP JUMPDEST PUSH2 0xDD0 JUMP JUMPDEST PUSH1 0x40 MLOAD PUSH2 0x2C1 SWAP2 SWAP1 PUSH2 0x1BAB JUMP JUMPDEST PUSH1 0x40 MLOAD DUP1 SWAP2 SUB SWAP1 RETURN JUMPDEST CALLVALUE DUP1 ISZERO PUSH2 0x2D6 JUMPI PUSH1 0x0 DUP1 REVERT JUMPDEST POP PUSH2 0x2DF PUSH2 0xE19 JUMP JUMPDEST PUSH1 0x40 MLOAD PUSH2 0x2EC SWAP2 SWAP1 PUSH2 0x1A69 JUMP JUMPDEST PUSH1 0x40 MLOAD DUP1 SWAP2 SUB SWAP1 RETURN JUMPDEST CALLVALUE DUP1 ISZERO PUSH2 0x301 JUMPI PUSH1 0x0 DUP1 REVERT JUMPDEST POP PUSH2 0x30A PUSH2 0xEA7 JUMP JUMPDEST PUSH1 0x40 MLOAD PUSH2 0x317 SWAP2 SWAP1 PUSH2 0x1A69 JUMP JUMPDEST PUSH1 0x40 MLOAD DUP1 SWAP2 SUB SWAP1 RETURN JUMPDEST CALLVALUE DUP1 ISZERO PUSH2 0x32C JUMPI PUSH1 0x0 DUP1 REVERT JUMPDEST POP PUSH2 0x347 PUSH1 0x4 DUP1 CALLDATASIZE SUB DUP2 ADD SWAP1 PUSH2 0x342 SWAP2 SWAP1 PUSH2 0x16ED JUMP JUMPDEST PUSH2 0xF39 JUMP JUMPDEST STOP JUMPDEST PUSH2 0x363 PUSH1 0x4 DUP1 CALLDATASIZE SUB DUP2 ADD SWAP1 PUSH2 0x35E SWAP2 SWAP1 PUSH2 0x166A JUMP JUMPDEST PUSH2 0x10A5 JUMP JUMPDEST STOP JUMPDEST CALLVALUE DUP1 ISZERO PUSH2 0x371 JUMPI PUSH1 0x0 DUP1 REVERT JUMPDEST POP PUSH2 0x38C PUSH1 0x4 DUP1 CALLDATASIZE SUB DUP2 ADD SWAP1 PUSH2 0x387 SWAP2 SWAP1 PUSH2 0x1809 JUMP JUMPDEST PUSH2 0x10C6 JUMP JUMPDEST PUSH1 0x40 MLOAD PUSH2 0x399 SWAP2 SWAP1 PUSH2 0x1A69 JUMP JUMPDEST PUSH1 0x40 MLOAD DUP1 SWAP2 SUB SWAP1 RETURN JUMPDEST CALLVALUE DUP1 ISZERO PUSH2 0x3AE JUMPI PUSH1 0x0 DUP1 REVERT JUMPDEST POP PUSH2 0x3C9 PUSH1 0x4 DUP1 CALLDATASIZE SUB DUP2 ADD SWAP1 PUSH2 0x3C4 SWAP2 SWAP1 PUSH2 0x176D JUMP JUMPDEST PUSH2 0x116B JUMP JUMPDEST STOP JUMPDEST CALLVALUE DUP1 ISZERO PUSH2 0x3D7 JUMPI PUSH1 0x0 DUP1 REVERT JUMPDEST POP PUSH2 0x3F2 PUSH1 0x4 DUP1 CALLDATASIZE SUB DUP2 ADD SWAP1 PUSH2 0x3ED SWAP2 SWAP1 PUSH2 0x15D7 JUMP JUMPDEST PUSH2 0x133F JUMP JUMPDEST PUSH1 0x40 MLOAD PUSH2 0x3FF SWAP2 SWAP1 PUSH2 0x1A4E JUMP JUMPDEST PUSH1 0x40 MLOAD DUP1 SWAP2 SUB SWAP1 RETURN JUMPDEST PUSH1 0x0 PUSH32 0x1FFC9A700000000000000000000000000000000000000000000000000000000 PUSH28 0xFFFFFFFFFFFFFFFFFFFFFFFFFFFFFFFFFFFFFFFFFFFFFFFFFFFFFFFF NOT AND DUP3 PUSH28 0xFFFFFFFFFFFFFFFFFFFFFFFFFFFFFFFFFFFFFFFFFFFFFFFFFFFFFFFF NOT AND EQ ISZERO PUSH2 0x479 JUMPI PUSH1 0x1 SWAP1 POP PUSH2 0x55C JUMP JUMPDEST PUSH32 0x80AC58CD00000000000000000000000000000000000000000000000000000000 PUSH28 0xFFFFFFFFFFFFFFFFFFFFFFFFFFFFFFFFFFFFFFFFFFFFFFFFFFFFFFFF NOT AND DUP3 PUSH28 0xFFFFFFFFFFFFFFFFFFFFFFFFFFFFFFFFFFFFFFFFFFFFFFFFFFFFFFFF NOT AND EQ ISZERO PUSH2 0x4E8 JUMPI PUSH1 0x1 SWAP1 POP PUSH2 0x55C JUMP JUMPDEST PUSH32 0x5B5E139F00000000000000000000000000000000000000000000000000000000 PUSH28 0xFFFFFFFFFFFFFFFFFFFFFFFFFFFFFFFFFFFFFFFFFFFFFFFFFFFFFFFF NOT AND DUP3 PUSH28 0xFFFFFFFFFFFFFFFFFFFFFFFFFFFFFFFFFFFFFFFFFFFFFFFFFFFFFFFF NOT AND EQ ISZERO PUSH2 0x557 JUMPI PUSH1 0x1 SWAP1 POP PUSH2 0x55C JUMP JUMPDEST PUSH1 0x0 SWAP1 POP JUMPDEST SWAP2 SWAP1 POP JUMP JUMPDEST PUSH1 0x60 PUSH1 0x0 DUP1 SLOAD PUSH2 0x570 SWAP1 PUSH2 0x1DA9 JUMP JUMPDEST DUP1 PUSH1 0x1F ADD PUSH1 0x20 DUP1 SWAP2 DIV MUL PUSH1 0x20 ADD PUSH1 0x40 MLOAD SWAP1 DUP2 ADD PUSH1 0x40 MSTORE DUP1 SWAP3 SWAP2 SWAP1 DUP2 DUP2 MSTORE PUSH1 0x20 ADD DUP3 DUP1 SLOAD PUSH2 0x59C SWAP1 PUSH2 0x1DA9 JUMP JUMPDEST DUP1 ISZERO PUSH2 0x5E9 JUMPI DUP1 PUSH1 0x1F LT PUSH2 0x5BE JUMPI PUSH2 0x100 DUP1 DUP4 SLOAD DIV MUL DUP4 MSTORE SWAP2 PUSH1 0x20 ADD SWAP2 PUSH2 0x5E9 JUMP JUMPDEST DUP3 ADD SWAP2 SWAP1 PUSH1 0x0 MSTORE PUSH1 0x20 PUSH1 0x0 KECCAK256 SWAP1 JUMPDEST DUP2 SLOAD DUP2 MSTORE SWAP1 PUSH1 0x1 ADD SWAP1 PUSH1 0x20 ADD DUP1 DUP4 GT PUSH2 0x5CC JUMPI DUP3 SWAP1 SUB PUSH1 0x1F AND DUP3 ADD SWAP2 JUMPDEST POP POP POP POP POP SWAP1 POP SWAP1 JUMP JUMPDEST PUSH1 0x0 PUSH1 0x5 PUSH1 0x0 DUP4 DUP2 MSTORE PUSH1 0x20 ADD SWAP1 DUP2 MSTORE PUSH1 0x20 ADD PUSH1 0x0 KECCAK256 PUSH1 0x0 SWAP1 SLOAD SWAP1 PUSH2 0x100 EXP SWAP1 DIV PUSH20 0xFFFFFFFFFFFFFFFFFFFFFFFFFFFFFFFFFFFFFFFF AND SWAP1 POP SWAP2 SWAP1 POP JUMP JUMPDEST PUSH1 0x0 PUSH1 0x4 PUSH1 0x0 DUP4 DUP2 MSTORE PUSH1 0x20 ADD SWAP1 DUP2 MSTORE PUSH1 0x20 ADD PUSH1 0x0 KECCAK256 PUSH1 0x0 SWAP1 SLOAD SWAP1 PUSH2 0x100 EXP SWAP1 DIV PUSH20 0xFFFFFFFFFFFFFFFFFFFFFFFFFFFFFFFFFFFFFFFF AND SWAP1 POP PUSH1 0x0 PUSH20 0xFFFFFFFFFFFFFFFFFFFFFFFFFFFFFFFFFFFFFFFF AND DUP2 PUSH20 0xFFFFFFFFFFFFFFFFFFFFFFFFFFFFFFFFFFFFFFFF AND EQ ISZERO PUSH2 0x6D8 JUMPI PUSH1 0x40 MLOAD PUSH32 0x8C379A000000000000000000000000000000000000000000000000000000000 DUP2 MSTORE PUSH1 0x4 ADD PUSH2 0x6CF SWAP1 PUSH2 0x1B2B JUMP JUMPDEST PUSH1 0x40 MLOAD DUP1 SWAP2 SUB SWAP1 REVERT JUMPDEST CALLER PUSH20 0xFFFFFFFFFFFFFFFFFFFFFFFFFFFFFFFFFFFFFFFF AND DUP2 PUSH20 0xFFFFFFFFFFFFFFFFFFFFFFFFFFFFFFFFFFFFFFFF AND EQ PUSH2 0x746 JUMPI PUSH1 0x40 MLOAD PUSH32 0x8C379A000000000000000000000000000000000000000000000000000000000 DUP2 MSTORE PUSH1 0x4 ADD PUSH2 0x73D SWAP1 PUSH2 0x1AEB JUMP JUMPDEST PUSH1 0x40 MLOAD DUP1 SWAP2 SUB SWAP1 REVERT JUMPDEST DUP3 PUSH1 0x5 PUSH1 0x0 DUP5 DUP2 MSTORE PUSH1 0x20 ADD SWAP1 DUP2 MSTORE PUSH1 0x20 ADD PUSH1 0x0 KECCAK256 PUSH1 0x0 PUSH2 0x100 EXP DUP2 SLOAD DUP2 PUSH20 0xFFFFFFFFFFFFFFFFFFFFFFFFFFFFFFFFFFFFFFFF MUL NOT AND SWAP1 DUP4 PUSH20 0xFFFFFFFFFFFFFFFFFFFFFFFFFFFFFFFFFFFFFFFF AND MUL OR SWAP1 SSTORE POP DUP2 DUP4 PUSH20 0xFFFFFFFFFFFFFFFFFFFFFFFFFFFFFFFFFFFFFFFF AND DUP3 PUSH20 0xFFFFFFFFFFFFFFFFFFFFFFFFFFFFFFFFFFFFFFFF AND PUSH32 0x8C5BE1E5EBEC7D5BD14F71427D1E84F3DD0314C0F7B2291E5B200AC8C7C3B925 PUSH1 0x40 MLOAD PUSH1 0x40 MLOAD DUP1 SWAP2 SUB SWAP1 LOG4 POP POP POP JUMP JUMPDEST PUSH1 0x0 PUSH1 0x4 PUSH1 0x0 DUP5 DUP2 MSTORE PUSH1 0x20 ADD SWAP1 DUP2 MSTORE PUSH1 0x20 ADD PUSH1 0x0 KECCAK256 PUSH1 0x0 SWAP1 SLOAD SWAP1 PUSH2 0x100 EXP SWAP1 DIV PUSH20 0xFFFFFFFFFFFFFFFFFFFFFFFFFFFFFFFFFFFFFFFF AND SWAP1 POP PUSH1 0x0 PUSH20 0xFFFFFFFFFFFFFFFFFFFFFFFFFFFFFFFFFFFFFFFF AND DUP2 PUSH20 0xFFFFFFFFFFFFFFFFFFFFFFFFFFFFFFFFFFFFFFFF AND EQ ISZERO PUSH2 0x8A0 JUMPI PUSH1 0x40 MLOAD PUSH32 0x8C379A000000000000000000000000000000000000000000000000000000000 DUP2 MSTORE PUSH1 0x4 ADD PUSH2 0x897 SWAP1 PUSH2 0x1B2B JUMP JUMPDEST PUSH1 0x40 MLOAD DUP1 SWAP2 SUB SWAP1 REVERT JUMPDEST POP POP POP JUMP JUMPDEST PUSH2 0x8B0 DUP4 DUP4 DUP4 PUSH2 0x8B5 JUMP JUMPDEST POP POP POP JUMP JUMPDEST PUSH1 0x0 PUSH20 0xFFFFFFFFFFFFFFFFFFFFFFFFFFFFFFFFFFFFFFFF AND DUP3 PUSH20 0xFFFFFFFFFFFFFFFFFFFFFFFFFFFFFFFFFFFFFFFF AND EQ ISZERO PUSH2 0x925 JUMPI PUSH1 0x40 MLOAD PUSH32 0x8C379A000000000000000000000000000000000000000000000000000000000 DUP2 MSTORE PUSH1 0x4 ADD PUSH2 0x91C SWAP1 PUSH2 0x1ACB JUMP JUMPDEST PUSH1 0x40 MLOAD DUP1 SWAP2 SUB SWAP1 REVERT JUMPDEST PUSH1 0x0 PUSH1 0x4 PUSH1 0x0 DUP4 DUP2 MSTORE PUSH1 0x20 ADD SWAP1 DUP2 MSTORE PUSH1 0x20 ADD PUSH1 0x0 KECCAK256 PUSH1 0x0 SWAP1 SLOAD SWAP1 PUSH2 0x100 EXP SWAP1 DIV PUSH20 0xFFFFFFFFFFFFFFFFFFFFFFFFFFFFFFFFFFFFFFFF AND SWAP1 POP PUSH1 0x0 PUSH20 0xFFFFFFFFFFFFFFFFFFFFFFFFFFFFFFFFFFFFFFFF AND DUP2 PUSH20 0xFFFFFFFFFFFFFFFFFFFFFFFFFFFFFFFFFFFFFFFF AND EQ ISZERO PUSH2 0x9CD JUMPI PUSH1 0x40 MLOAD PUSH32 0x8C379A000000000000000000000000000000000000000000000000000000000 DUP2 MSTORE PUSH1 0x4 ADD PUSH2 0x9C4 SWAP1 PUSH2 0x1AAB JUMP JUMPDEST PUSH1 0x40 MLOAD DUP1 SWAP2 SUB SWAP1 REVERT JUMPDEST DUP4 PUSH20 0xFFFFFFFFFFFFFFFFFFFFFFFFFFFFFFFFFFFFFFFF AND DUP2 PUSH20 0xFFFFFFFFFFFFFFFFFFFFFFFFFFFFFFFFFFFFFFFF AND EQ PUSH2 0xA3B JUMPI PUSH1 0x40 MLOAD PUSH32 0x8C379A000000000000000000000000000000000000000000000000000000000 DUP2 MSTORE PUSH1 0x4 ADD PUSH2 0xA32 SWAP1 PUSH2 0x1B0B JUMP JUMPDEST PUSH1 0x40 MLOAD DUP1 SWAP2 SUB SWAP1 REVERT JUMPDEST DUP3 PUSH20 0xFFFFFFFFFFFFFFFFFFFFFFFFFFFFFFFFFFFFFFFF AND DUP5 PUSH20 0xFFFFFFFFFFFFFFFFFFFFFFFFFFFFFFFFFFFFFFFF AND EQ ISZERO PUSH2 0xAAA JUMPI PUSH1 0x40 MLOAD PUSH32 0x8C379A000000000000000000000000000000000000000000000000000000000 DUP2 MSTORE PUSH1 0x4 ADD PUSH2 0xAA1 SWAP1 PUSH2 0x1B8B JUMP JUMPDEST PUSH1 0x40 MLOAD DUP1 SWAP2 SUB SWAP1 REVERT JUMPDEST DUP4 PUSH20 0xFFFFFFFFFFFFFFFFFFFFFFFFFFFFFFFFFFFFFFFF AND CALLER PUSH20 0xFFFFFFFFFFFFFFFFFFFFFFFFFFFFFFFFFFFFFFFF AND EQ DUP1 PUSH2 0xB17 JUMPI POP CALLER PUSH20 0xFFFFFFFFFFFFFFFFFFFFFFFFFFFFFFFFFFFFFFFF AND PUSH2 0xAFF DUP4 PUSH2 0x5F3 JUMP JUMPDEST PUSH20 0xFFFFFFFFFFFFFFFFFFFFFFFFFFFFFFFFFFFFFFFF AND EQ JUMPDEST DUP1 PUSH2 0xB2F JUMPI POP PUSH1 0x1 ISZERO ISZERO PUSH2 0xB2B DUP3 CALLER PUSH2 0x133F JUMP JUMPDEST ISZERO ISZERO EQ JUMPDEST PUSH2 0xB6E JUMPI PUSH1 0x40 MLOAD PUSH32 0x8C379A000000000000000000000000000000000000000000000000000000000 DUP2 MSTORE PUSH1 0x4 ADD PUSH2 0xB65 SWAP1 PUSH2 0x1A8B JUMP JUMPDEST PUSH1 0x40 MLOAD DUP1 SWAP2 SUB SWAP1 REVERT JUMPDEST PUSH1 0x5 PUSH1 0x0 DUP4 DUP2 MSTORE PUSH1 0x20 ADD SWAP1 DUP2 MSTORE PUSH1 0x20 ADD PUSH1 0x0 KECCAK256 PUSH1 0x0 PUSH2 0x100 EXP DUP2 SLOAD SWAP1 PUSH20 0xFFFFFFFFFFFFFFFFFFFFFFFFFFFFFFFFFFFFFFFF MUL NOT AND SWAP1 SSTORE DUP3 PUSH1 0x4 PUSH1 0x0 DUP5 DUP2 MSTORE PUSH1 0x20 ADD SWAP1 DUP2 MSTORE PUSH1 0x20 ADD PUSH1 0x0 KECCAK256 PUSH1 0x0 PUSH2 0x100 EXP DUP2 SLOAD DUP2 PUSH20 0xFFFFFFFFFFFFFFFFFFFFFFFFFFFFFFFFFFFFFFFF MUL NOT AND SWAP1 DUP4 PUSH20 0xFFFFFFFFFFFFFFFFFFFFFFFFFFFFFFFFFFFFFFFF AND MUL OR SWAP1 SSTORE POP PUSH1 0x1 PUSH1 0x3 PUSH1 0x0 DUP7 PUSH20 0xFFFFFFFFFFFFFFFFFFFFFFFFFFFFFFFFFFFFFFFF AND PUSH20 0xFFFFFFFFFFFFFFFFFFFFFFFFFFFFFFFFFFFFFFFF AND DUP2 MSTORE PUSH1 0x20 ADD SWAP1 DUP2 MSTORE PUSH1 0x20 ADD PUSH1 0x0 KECCAK256 PUSH1 0x0 DUP3 DUP3 SLOAD PUSH2 0xC46 SWAP2 SWAP1 PUSH2 0x1CBF JUMP JUMPDEST SWAP3 POP POP DUP2 SWAP1 SSTORE POP PUSH1 0x1 PUSH1 0x3 PUSH1 0x0 DUP6 PUSH20 0xFFFFFFFFFFFFFFFFFFFFFFFFFFFFFFFFFFFFFFFF AND PUSH20 0xFFFFFFFFFFFFFFFFFFFFFFFFFFFFFFFFFFFFFFFF AND DUP2 MSTORE PUSH1 0x20 ADD SWAP1 DUP2 MSTORE PUSH1 0x20 ADD PUSH1 0x0 KECCAK256 PUSH1 0x0 DUP3 DUP3 SLOAD PUSH2 0xC9D SWAP2 SWAP1 PUSH2 0x1C69 JUMP JUMPDEST SWAP3 POP POP DUP2 SWAP1 SSTORE POP DUP2 DUP4 PUSH20 0xFFFFFFFFFFFFFFFFFFFFFFFFFFFFFFFFFFFFFFFF AND DUP6 PUSH20 0xFFFFFFFFFFFFFFFFFFFFFFFFFFFFFFFFFFFFFFFF AND PUSH32 0xDDF252AD1BE2C89B69C2B068FC378DAA952BA7F163C4A11628F55A4DF523B3EF PUSH1 0x40 MLOAD PUSH1 0x40 MLOAD DUP1 SWAP2 SUB SWAP1 LOG4 POP POP POP POP JUMP JUMPDEST PUSH1 0x0 PUSH1 0x4 PUSH1 0x0 DUP4 DUP2 MSTORE PUSH1 0x20 ADD SWAP1 DUP2 MSTORE PUSH1 0x20 ADD PUSH1 0x0 KECCAK256 PUSH1 0x0 SWAP1 SLOAD SWAP1 PUSH2 0x100 EXP SWAP1 DIV PUSH20 0xFFFFFFFFFFFFFFFFFFFFFFFFFFFFFFFFFFFFFFFF AND SWAP1 POP SWAP2 SWAP1 POP JUMP JUMPDEST PUSH1 0x0 DUP1 SLOAD PUSH2 0xD4F SWAP1 PUSH2 0x1DA9 JUMP JUMPDEST DUP1 PUSH1 0x1F ADD PUSH1 0x20 DUP1 SWAP2 DIV MUL PUSH1 0x20 ADD PUSH1 0x40 MLOAD SWAP1 DUP2 ADD PUSH1 0x40 MSTORE DUP1 SWAP3 SWAP2 SWAP1 DUP2 DUP2 MSTORE PUSH1 0x20 ADD DUP3 DUP1 SLOAD PUSH2 0xD7B SWAP1 PUSH2 0x1DA9 JUMP JUMPDEST DUP1 ISZERO PUSH2 0xDC8 JUMPI DUP1 PUSH1 0x1F LT PUSH2 0xD9D JUMPI PUSH2 0x100 DUP1 DUP4 SLOAD DIV MUL DUP4 MSTORE SWAP2 PUSH1 0x20 ADD SWAP2 PUSH2 0xDC8 JUMP JUMPDEST DUP3 ADD SWAP2 SWAP1 PUSH1 0x0 MSTORE PUSH1 0x20 PUSH1 0x0 KECCAK256 SWAP1 JUMPDEST DUP2 SLOAD DUP2 MSTORE SWAP1 PUSH1 0x1 ADD SWAP1 PUSH1 0x20 ADD DUP1 DUP4 GT PUSH2 0xDAB JUMPI DUP3 SWAP1 SUB PUSH1 0x1F AND DUP3 ADD SWAP2 JUMPDEST POP POP POP POP POP DUP2 JUMP JUMPDEST PUSH1 0x0 PUSH1 0x3 PUSH1 0x0 DUP4 PUSH20 0xFFFFFFFFFFFFFFFFFFFFFFFFFFFFFFFFFFFFFFFF AND PUSH20 0xFFFFFFFFFFFFFFFFFFFFFFFFFFFFFFFFFFFFFFFF AND DUP2 MSTORE PUSH1 0x20 ADD SWAP1 DUP2 MSTORE PUSH1 0x20 ADD PUSH1 0x0 KECCAK256 SLOAD SWAP1 POP SWAP2 SWAP1 POP JUMP JUMPDEST PUSH1 0x1 DUP1 SLOAD PUSH2 0xE26 SWAP1 PUSH2 0x1DA9 JUMP JUMPDEST DUP1 PUSH1 0x1F ADD PUSH1 0x20 DUP1 SWAP2 DIV MUL PUSH1 0x20 ADD PUSH1 0x40 MLOAD SWAP1 DUP2 ADD PUSH1 0x40 MSTORE DUP1 SWAP3 SWAP2 SWAP1 DUP2 DUP2 MSTORE PUSH1 0x20 ADD DUP3 DUP1 SLOAD PUSH2 0xE52 SWAP1 PUSH2 0x1DA9 JUMP JUMPDEST DUP1 ISZERO PUSH2 0xE9F JUMPI DUP1 PUSH1 0x1F LT PUSH2 0xE74 JUMPI PUSH2 0x100 DUP1 DUP4 SLOAD DIV MUL DUP4 MSTORE SWAP2 PUSH1 0x20 ADD SWAP2 PUSH2 0xE9F JUMP JUMPDEST DUP3 ADD SWAP2 SWAP1 PUSH1 0x0 MSTORE PUSH1 0x20 PUSH1 0x0 KECCAK256 SWAP1 JUMPDEST DUP2 SLOAD DUP2 MSTORE SWAP1 PUSH1 0x1 ADD SWAP1 PUSH1 0x20 ADD DUP1 DUP4 GT PUSH2 0xE82 JUMPI DUP3 SWAP1 SUB PUSH1 0x1F AND DUP3 ADD SWAP2 JUMPDEST POP POP POP POP POP DUP2 JUMP JUMPDEST PUSH1 0x60 PUSH1 0x1 DUP1 SLOAD PUSH2 0xEB6 SWAP1 PUSH2 0x1DA9 JUMP JUMPDEST DUP1 PUSH1 0x1F ADD PUSH1 0x20 DUP1 SWAP2 DIV MUL PUSH1 0x20 ADD PUSH1 0x40 MLOAD SWAP1 DUP2 ADD PUSH1 0x40 MSTORE DUP1 SWAP3 SWAP2 SWAP1 DUP2 DUP2 MSTORE PUSH1 0x20 ADD DUP3 DUP1 SLOAD PUSH2 0xEE2 SWAP1 PUSH2 0x1DA9 JUMP JUMPDEST DUP1 ISZERO PUSH2 0xF2F JUMPI DUP1 PUSH1 0x1F LT PUSH2 0xF04 JUMPI PUSH2 0x100 DUP1 DUP4 SLOAD DIV MUL DUP4 MSTORE SWAP2 PUSH1 0x20 ADD SWAP2 PUSH2 0xF2F JUMP JUMPDEST DUP3 ADD SWAP2 SWAP1 PUSH1 0x0 MSTORE PUSH1 0x20 PUSH1 0x0 KECCAK256 SWAP1 JUMPDEST DUP2 SLOAD DUP2 MSTORE SWAP1 PUSH1 0x1 ADD SWAP1 PUSH1 0x20 ADD DUP1 DUP4 GT PUSH2 0xF12 JUMPI DUP3 SWAP1 SUB PUSH1 0x1F AND DUP3 ADD SWAP2 JUMPDEST POP POP POP POP POP SWAP1 POP SWAP1 JUMP JUMPDEST DUP2 PUSH20 0xFFFFFFFFFFFFFFFFFFFFFFFFFFFFFFFFFFFFFFFF AND CALLER PUSH20 0xFFFFFFFFFFFFFFFFFFFFFFFFFFFFFFFFFFFFFFFF AND EQ ISZERO PUSH2 0xFA8 JUMPI PUSH1 0x40 MLOAD PUSH32 0x8C379A000000000000000000000000000000000000000000000000000000000 DUP2 MSTORE PUSH1 0x4 ADD PUSH2 0xF9F SWAP1 PUSH2 0x1B4B JUMP JUMPDEST PUSH1 0x40 MLOAD DUP1 SWAP2 SUB SWAP1 REVERT JUMPDEST DUP1 PUSH1 0x6 PUSH1 0x0 CALLER PUSH20 0xFFFFFFFFFFFFFFFFFFFFFFFFFFFFFFFFFFFFFFFF AND PUSH20 0xFFFFFFFFFFFFFFFFFFFFFFFFFFFFFFFFFFFFFFFF AND DUP2 MSTORE PUSH1 0x20 ADD SWAP1 DUP2 MSTORE PUSH1 0x20 ADD PUSH1 0x0 KECCAK256 PUSH1 0x0 DUP5 PUSH20 0xFFFFFFFFFFFFFFFFFFFFFFFFFFFFFFFFFFFFFFFF AND PUSH20 0xFFFFFFFFFFFFFFFFFFFFFFFFFFFFFFFFFFFFFFFF AND DUP2 MSTORE PUSH1 0x20 ADD SWAP1 DUP2 MSTORE PUSH1 0x20 ADD PUSH1 0x0 KECCAK256 PUSH1 0x0 PUSH2 0x100 EXP DUP2 SLOAD DUP2 PUSH1 0xFF MUL NOT AND SWAP1 DUP4 ISZERO ISZERO MUL OR SWAP1 SSTORE POP DUP2 PUSH20 0xFFFFFFFFFFFFFFFFFFFFFFFFFFFFFFFFFFFFFFFF AND CALLER PUSH20 0xFFFFFFFFFFFFFFFFFFFFFFFFFFFFFFFFFFFFFFFF AND PUSH32 0x17307EAB39AB6107E8899845AD3D59BD9653F200F220920489CA2B5937696C31 DUP4 PUSH1 0x40 MLOAD PUSH2 0x1099 SWAP2 SWAP1 PUSH2 0x1A4E JUMP JUMPDEST PUSH1 0x40 MLOAD DUP1 SWAP2 SUB SWAP1 LOG3 POP POP JUMP JUMPDEST PUSH2 0x10C0 DUP5 DUP5 DUP5 PUSH1 0x40 MLOAD DUP1 PUSH1 0x20 ADD PUSH1 0x40 MSTORE DUP1 PUSH1 0x0 DUP2 MSTORE POP PUSH2 0x10A5 JUMP JUMPDEST POP POP POP POP JUMP JUMPDEST PUSH1 0x60 PUSH1 0x2 PUSH1 0x0 DUP4 DUP2 MSTORE PUSH1 0x20 ADD SWAP1 DUP2 MSTORE PUSH1 0x20 ADD PUSH1 0x0 KECCAK256 DUP1 SLOAD PUSH2 0x10E6 SWAP1 PUSH2 0x1DA9 JUMP JUMPDEST DUP1 PUSH1 0x1F ADD PUSH1 0x20 DUP1 SWAP2 DIV MUL PUSH1 0x20 ADD PUSH1 0x40 MLOAD SWAP1 DUP2 ADD PUSH1 0x40 MSTORE DUP1 SWAP3 SWAP2 SWAP1 DUP2 DUP2 MSTORE PUSH1 0x20 ADD DUP3 DUP1 SLOAD PUSH2 0x1112 SWAP1 PUSH2 0x1DA9 JUMP JUMPDEST DUP1 ISZERO PUSH2 0x115F JUMPI DUP1 PUSH1 0x1F LT PUSH2 0x1134 JUMPI PUSH2 0x100 DUP1 DUP4 SLOAD DIV MUL DUP4 MSTORE SWAP2 PUSH1 0x20 ADD SWAP2 PUSH2 0x115F JUMP JUMPDEST DUP3 ADD SWAP2 SWAP1 PUSH1 0x0 MSTORE PUSH1 0x20 PUSH1 0x0 KECCAK256 SWAP1 JUMPDEST DUP2 SLOAD DUP2 MSTORE SWAP1 PUSH1 0x1 ADD SWAP1 PUSH1 0x20 ADD DUP1 DUP4 GT PUSH2 0x1142 JUMPI DUP3 SWAP1 SUB PUSH1 0x1F AND DUP3 ADD SWAP2 JUMPDEST POP POP POP POP POP SWAP1 POP SWAP2 SWAP1 POP JUMP JUMPDEST PUSH1 0x0 PUSH20 0xFFFFFFFFFFFFFFFFFFFFFFFFFFFFFFFFFFFFFFFF AND PUSH1 0x4 PUSH1 0x0 DUP5 DUP2 MSTORE PUSH1 0x20 ADD SWAP1 DUP2 MSTORE PUSH1 0x20 ADD PUSH1 0x0 KECCAK256 PUSH1 0x0 SWAP1 SLOAD SWAP1 PUSH2 0x100 EXP SWAP1 DIV PUSH20 0xFFFFFFFFFFFFFFFFFFFFFFFFFFFFFFFFFFFFFFFF AND PUSH20 0xFFFFFFFFFFFFFFFFFFFFFFFFFFFFFFFFFFFFFFFF AND EQ PUSH2 0x120D JUMPI PUSH1 0x40 MLOAD PUSH32 0x8C379A000000000000000000000000000000000000000000000000000000000 DUP2 MSTORE PUSH1 0x4 ADD PUSH2 0x1204 SWAP1 PUSH2 0x1B6B JUMP JUMPDEST PUSH1 0x40 MLOAD DUP1 SWAP2 SUB SWAP1 REVERT JUMPDEST DUP3 PUSH1 0x4 PUSH1 0x0 DUP5 DUP2 MSTORE PUSH1 0x20 ADD SWAP1 DUP2 MSTORE PUSH1 0x20 ADD PUSH1 0x0 KECCAK256 PUSH1 0x0 PUSH2 0x100 EXP DUP2 SLOAD DUP2 PUSH20 0xFFFFFFFFFFFFFFFFFFFFFFFFFFFFFFFFFFFFFFFF MUL NOT AND SWAP1 DUP4 PUSH20 0xFFFFFFFFFFFFFFFFFFFFFFFFFFFFFFFFFFFFFFFF AND MUL OR SWAP1 SSTORE POP PUSH1 0x1 PUSH1 0x3 PUSH1 0x0 DUP6 PUSH20 0xFFFFFFFFFFFFFFFFFFFFFFFFFFFFFFFFFFFFFFFF AND PUSH20 0xFFFFFFFFFFFFFFFFFFFFFFFFFFFFFFFFFFFFFFFF AND DUP2 MSTORE PUSH1 0x20 ADD SWAP1 DUP2 MSTORE PUSH1 0x20 ADD PUSH1 0x0 KECCAK256 PUSH1 0x0 DUP3 DUP3 SLOAD PUSH2 0x12AF SWAP2 SWAP1 PUSH2 0x1C69 JUMP JUMPDEST SWAP3 POP POP DUP2 SWAP1 SSTORE POP DUP1 PUSH1 0x2 PUSH1 0x0 DUP5 DUP2 MSTORE PUSH1 0x20 ADD SWAP1 DUP2 MSTORE PUSH1 0x20 ADD PUSH1 0x0 KECCAK256 SWAP1 DUP1 MLOAD SWAP1 PUSH1 0x20 ADD SWAP1 PUSH2 0x12DD SWAP3 SWAP2 SWAP1 PUSH2 0x13D3 JUMP JUMPDEST POP DUP2 DUP4 PUSH20 0xFFFFFFFFFFFFFFFFFFFFFFFFFFFFFFFFFFFFFFFF AND PUSH1 0x0 PUSH20 0xFFFFFFFFFFFFFFFFFFFFFFFFFFFFFFFFFFFFFFFF AND PUSH32 0xDDF252AD1BE2C89B69C2B068FC378DAA952BA7F163C4A11628F55A4DF523B3EF PUSH1 0x40 MLOAD PUSH1 0x40 MLOAD DUP1 SWAP2 SUB SWAP1 LOG4 POP POP POP JUMP JUMPDEST PUSH1 0x0 PUSH1 0x6 PUSH1 0x0 DUP5 PUSH20 0xFFFFFFFFFFFFFFFFFFFFFFFFFFFFFFFFFFFFFFFF AND PUSH20 0xFFFFFFFFFFFFFFFFFFFFFFFFFFFFFFFFFFFFFFFF AND DUP2 MSTORE PUSH1 0x20 ADD SWAP1 DUP2 MSTORE PUSH1 0x20 ADD PUSH1 0x0 KECCAK256 PUSH1 0x0 DUP4 PUSH20 0xFFFFFFFFFFFFFFFFFFFFFFFFFFFFFFFFFFFFFFFF AND PUSH20 0xFFFFFFFFFFFFFFFFFFFFFFFFFFFFFFFFFFFFFFFF AND DUP2 MSTORE PUSH1 0x20 ADD SWAP1 DUP2 MSTORE PUSH1 0x20 ADD PUSH1 0x0 KECCAK256 PUSH1 0x0 SWAP1 SLOAD SWAP1 PUSH2 0x100 EXP SWAP1 DIV PUSH1 0xFF AND SWAP1 POP SWAP3 SWAP2 POP POP JUMP JUMPDEST DUP3 DUP1 SLOAD PUSH2 0x13DF SWAP1 PUSH2 0x1DA9 JUMP JUMPDEST SWAP1 PUSH1 0x0 MSTORE PUSH1 0x20 PUSH1 0x0 KECCAK256 SWAP1 PUSH1 0x1F ADD PUSH1 0x20 SWAP1 DIV DUP2 ADD SWAP3 DUP3 PUSH2 0x1401 JUMPI PUSH1 0x0 DUP6 SSTORE PUSH2 0x1448 JUMP JUMPDEST DUP3 PUSH1 0x1F LT PUSH2 0x141A JUMPI DUP1 MLOAD PUSH1 0xFF NOT AND DUP4 DUP1 ADD OR DUP6 SSTORE PUSH2 0x1448 JUMP JUMPDEST DUP3 DUP1 ADD PUSH1 0x1 ADD DUP6 SSTORE DUP3 ISZERO PUSH2 0x1448 JUMPI SWAP2 DUP3 ADD JUMPDEST DUP3 DUP2 GT ISZERO PUSH2 0x1447 JUMPI DUP3 MLOAD DUP3 SSTORE SWAP2 PUSH1 0x20 ADD SWAP2 SWAP1 PUSH1 0x1 ADD SWAP1 PUSH2 0x142C JUMP JUMPDEST JUMPDEST POP SWAP1 POP PUSH2 0x1455 SWAP2 SWAP1 PUSH2 0x1459 JUMP JUMPDEST POP SWAP1 JUMP JUMPDEST JUMPDEST DUP1 DUP3 GT ISZERO PUSH2 0x1472 JUMPI PUSH1 0x0 DUP2 PUSH1 0x0 SWAP1 SSTORE POP PUSH1 0x1 ADD PUSH2 0x145A JUMP JUMPDEST POP SWAP1 JUMP JUMPDEST PUSH1 0x0 PUSH2 0x1489 PUSH2 0x1484 DUP5 PUSH2 0x1BEB JUMP JUMPDEST PUSH2 0x1BC6 JUMP JUMPDEST SWAP1 POP DUP3 DUP2 MSTORE PUSH1 0x20 DUP2 ADD DUP5 DUP5 DUP5 ADD GT ISZERO PUSH2 0x14A5 JUMPI PUSH2 0x14A4 PUSH2 0x1E9E JUMP JUMPDEST JUMPDEST PUSH2 0x14B0 DUP5 DUP3 DUP6 PUSH2 0x1D67 JUMP JUMPDEST POP SWAP4 SWAP3 POP POP POP JUMP JUMPDEST PUSH1 0x0 PUSH2 0x14CB PUSH2 0x14C6 DUP5 PUSH2 0x1C1C JUMP JUMPDEST PUSH2 0x1BC6 JUMP JUMPDEST SWAP1 POP DUP3 DUP2 MSTORE PUSH1 0x20 DUP2 ADD DUP5 DUP5 DUP5 ADD GT ISZERO PUSH2 0x14E7 JUMPI PUSH2 0x14E6 PUSH2 0x1E9E JUMP JUMPDEST JUMPDEST PUSH2 0x14F2 DUP5 DUP3 DUP6 PUSH2 0x1D67 JUMP JUMPDEST POP SWAP4 SWAP3 POP POP POP JUMP JUMPDEST PUSH1 0x0 DUP2 CALLDATALOAD SWAP1 POP PUSH2 0x1509 DUP2 PUSH2 0x202F JUMP JUMPDEST SWAP3 SWAP2 POP POP JUMP JUMPDEST PUSH1 0x0 DUP2 CALLDATALOAD SWAP1 POP PUSH2 0x151E DUP2 PUSH2 0x2046 JUMP JUMPDEST SWAP3 SWAP2 POP POP JUMP JUMPDEST PUSH1 0x0 DUP2 CALLDATALOAD SWAP1 POP PUSH2 0x1533 DUP2 PUSH2 0x205D JUMP JUMPDEST SWAP3 SWAP2 POP POP JUMP JUMPDEST PUSH1 0x0 DUP3 PUSH1 0x1F DUP4 ADD SLT PUSH2 0x154E JUMPI PUSH2 0x154D PUSH2 0x1E99 JUMP JUMPDEST JUMPDEST DUP2 CALLDATALOAD PUSH2 0x155E DUP5 DUP3 PUSH1 0x20 DUP7 ADD PUSH2 0x1476 JUMP JUMPDEST SWAP2 POP POP SWAP3 SWAP2 POP POP JUMP JUMPDEST PUSH1 0x0 DUP3 PUSH1 0x1F DUP4 ADD SLT PUSH2 0x157C JUMPI PUSH2 0x157B PUSH2 0x1E99 JUMP JUMPDEST JUMPDEST DUP2 CALLDATALOAD PUSH2 0x158C DUP5 DUP3 PUSH1 0x20 DUP7 ADD PUSH2 0x14B8 JUMP JUMPDEST SWAP2 POP POP SWAP3 SWAP2 POP POP JUMP JUMPDEST PUSH1 0x0 DUP2 CALLDATALOAD SWAP1 POP PUSH2 0x15A4 DUP2 PUSH2 0x2074 JUMP JUMPDEST SWAP3 SWAP2 POP POP JUMP JUMPDEST PUSH1 0x0 PUSH1 0x20 DUP3 DUP5 SUB SLT ISZERO PUSH2 0x15C0 JUMPI PUSH2 0x15BF PUSH2 0x1EA8 JUMP JUMPDEST JUMPDEST PUSH1 0x0 PUSH2 0x15CE DUP5 DUP3 DUP6 ADD PUSH2 0x14FA JUMP JUMPDEST SWAP2 POP POP SWAP3 SWAP2 POP POP JUMP JUMPDEST PUSH1 0x0 DUP1 PUSH1 0x40 DUP4 DUP6 SUB SLT ISZERO PUSH2 0x15EE JUMPI PUSH2 0x15ED PUSH2 0x1EA8 JUMP JUMPDEST JUMPDEST PUSH1 0x0 PUSH2 0x15FC DUP6 DUP3 DUP7 ADD PUSH2 0x14FA JUMP JUMPDEST SWAP3 POP POP PUSH1 0x20 PUSH2 0x160D DUP6 DUP3 DUP7 ADD PUSH2 0x14FA JUMP JUMPDEST SWAP2 POP POP SWAP3 POP SWAP3 SWAP1 POP JUMP JUMPDEST PUSH1 0x0 DUP1 PUSH1 0x0 PUSH1 0x60 DUP5 DUP7 SUB SLT ISZERO PUSH2 0x1630 JUMPI PUSH2 0x162F PUSH2 0x1EA8 JUMP JUMPDEST JUMPDEST PUSH1 0x0 PUSH2 0x163E DUP7 DUP3 DUP8 ADD PUSH2 0x14FA JUMP JUMPDEST SWAP4 POP POP PUSH1 0x20 PUSH2 0x164F DUP7 DUP3 DUP8 ADD PUSH2 0x14FA JUMP JUMPDEST SWAP3 POP POP PUSH1 0x40 PUSH2 0x1660 DUP7 DUP3 DUP8 ADD PUSH2 0x1595 JUMP JUMPDEST SWAP2 POP POP SWAP3 POP SWAP3 POP SWAP3 JUMP JUMPDEST PUSH1 0x0 DUP1 PUSH1 0x0 DUP1 PUSH1 0x80 DUP6 DUP8 SUB SLT ISZERO PUSH2 0x1684 JUMPI PUSH2 0x1683 PUSH2 0x1EA8 JUMP JUMPDEST JUMPDEST PUSH1 0x0 PUSH2 0x1692 DUP8 DUP3 DUP9 ADD PUSH2 0x14FA JUMP JUMPDEST SWAP5 POP POP PUSH1 0x20 PUSH2 0x16A3 DUP8 DUP3 DUP9 ADD PUSH2 0x14FA JUMP JUMPDEST SWAP4 POP POP PUSH1 0x40 PUSH2 0x16B4 DUP8 DUP3 DUP9 ADD PUSH2 0x1595 JUMP JUMPDEST SWAP3 POP POP PUSH1 0x60 DUP6 ADD CALLDATALOAD PUSH8 0xFFFFFFFFFFFFFFFF DUP2 GT ISZERO PUSH2 0x16D5 JUMPI PUSH2 0x16D4 PUSH2 0x1EA3 JUMP JUMPDEST JUMPDEST PUSH2 0x16E1 DUP8 DUP3 DUP9 ADD PUSH2 0x1539 JUMP JUMPDEST SWAP2 POP POP SWAP3 SWAP6 SWAP2 SWAP5 POP SWAP3 POP JUMP JUMPDEST PUSH1 0x0 DUP1 PUSH1 0x40 DUP4 DUP6 SUB SLT ISZERO PUSH2 0x1704 JUMPI PUSH2 0x1703 PUSH2 0x1EA8 JUMP JUMPDEST JUMPDEST PUSH1 0x0 PUSH2 0x1712 DUP6 DUP3 DUP7 ADD PUSH2 0x14FA JUMP JUMPDEST SWAP3 POP POP PUSH1 0x20 PUSH2 0x1723 DUP6 DUP3 DUP7 ADD PUSH2 0x150F JUMP JUMPDEST SWAP2 POP POP SWAP3 POP SWAP3 SWAP1 POP JUMP JUMPDEST PUSH1 0x0 DUP1 PUSH1 0x40 DUP4 DUP6 SUB SLT ISZERO PUSH2 0x1744 JUMPI PUSH2 0x1743 PUSH2 0x1EA8 JUMP JUMPDEST JUMPDEST PUSH1 0x0 PUSH2 0x1752 DUP6 DUP3 DUP7 ADD PUSH2 0x14FA JUMP JUMPDEST SWAP3 POP POP PUSH1 0x20 PUSH2 0x1763 DUP6 DUP3 DUP7 ADD PUSH2 0x1595 JUMP JUMPDEST SWAP2 POP POP SWAP3 POP SWAP3 SWAP1 POP JUMP JUMPDEST PUSH1 0x0 DUP1 PUSH1 0x0 PUSH1 0x60 DUP5 DUP7 SUB SLT ISZERO PUSH2 0x1786 JUMPI PUSH2 0x1785 PUSH2 0x1EA8 JUMP JUMPDEST JUMPDEST PUSH1 0x0 PUSH2 0x1794 DUP7 DUP3 DUP8 ADD PUSH2 0x14FA JUMP JUMPDEST SWAP4 POP POP PUSH1 0x20 PUSH2 0x17A5 DUP7 DUP3 DUP8 ADD PUSH2 0x1595 JUMP JUMPDEST SWAP3 POP POP PUSH1 0x40 DUP5 ADD CALLDATALOAD PUSH8 0xFFFFFFFFFFFFFFFF DUP2 GT ISZERO PUSH2 0x17C6 JUMPI PUSH2 0x17C5 PUSH2 0x1EA3 JUMP JUMPDEST JUMPDEST PUSH2 0x17D2 DUP7 DUP3 DUP8 ADD PUSH2 0x1567 JUMP JUMPDEST SWAP2 POP POP SWAP3 POP SWAP3 POP SWAP3 JUMP JUMPDEST PUSH1 0x0 PUSH1 0x20 DUP3 DUP5 SUB SLT ISZERO PUSH2 0x17F2 JUMPI PUSH2 0x17F1 PUSH2 0x1EA8 JUMP JUMPDEST JUMPDEST PUSH1 0x0 PUSH2 0x1800 DUP5 DUP3 DUP6 ADD PUSH2 0x1524 JUMP JUMPDEST SWAP2 POP POP SWAP3 SWAP2 POP POP JUMP JUMPDEST PUSH1 0x0 PUSH1 0x20 DUP3 DUP5 SUB SLT ISZERO PUSH2 0x181F JUMPI PUSH2 0x181E PUSH2 0x1EA8 JUMP JUMPDEST JUMPDEST PUSH1 0x0 PUSH2 0x182D DUP5 DUP3 DUP6 ADD PUSH2 0x1595 JUMP JUMPDEST SWAP2 POP POP SWAP3 SWAP2 POP POP JUMP JUMPDEST PUSH1 0x0 DUP1 PUSH1 0x40 DUP4 DUP6 SUB SLT ISZERO PUSH2 0x184D JUMPI PUSH2 0x184C PUSH2 0x1EA8 JUMP JUMPDEST JUMPDEST PUSH1 0x0 PUSH2 0x185B DUP6 DUP3 DUP7 ADD PUSH2 0x1595 JUMP JUMPDEST SWAP3 POP POP PUSH1 0x20 DUP4 ADD CALLDATALOAD PUSH8 0xFFFFFFFFFFFFFFFF DUP2 GT ISZERO PUSH2 0x187C JUMPI PUSH2 0x187B PUSH2 0x1EA3 JUMP JUMPDEST JUMPDEST PUSH2 0x1888 DUP6 DUP3 DUP7 ADD PUSH2 0x1567 JUMP JUMPDEST SWAP2 POP POP SWAP3 POP SWAP3 SWAP1 POP JUMP JUMPDEST PUSH2 0x189B DUP2 PUSH2 0x1CF3 JUMP JUMPDEST DUP3 MSTORE POP POP JUMP JUMPDEST PUSH2 0x18AA DUP2 PUSH2 0x1D05 JUMP JUMPDEST DUP3 MSTORE POP POP JUMP JUMPDEST PUSH1 0x0 PUSH2 0x18BB DUP3 PUSH2 0x1C4D JUMP JUMPDEST PUSH2 0x18C5 DUP2 DUP6 PUSH2 0x1C58 JUMP JUMPDEST SWAP4 POP PUSH2 0x18D5 DUP2 DUP6 PUSH1 0x20 DUP7 ADD PUSH2 0x1D76 JUMP JUMPDEST PUSH2 0x18DE DUP2 PUSH2 0x1EAD JUMP JUMPDEST DUP5 ADD SWAP2 POP POP SWAP3 SWAP2 POP POP JUMP JUMPDEST PUSH1 0x0 PUSH2 0x18F6 PUSH1 0xE DUP4 PUSH2 0x1C58 JUMP JUMPDEST SWAP2 POP PUSH2 0x1901 DUP3 PUSH2 0x1EBE JUMP JUMPDEST PUSH1 0x20 DUP3 ADD SWAP1 POP SWAP2 SWAP1 POP JUMP JUMPDEST PUSH1 0x0 PUSH2 0x1919 PUSH1 0xF DUP4 PUSH2 0x1C58 JUMP JUMPDEST SWAP2 POP PUSH2 0x1924 DUP3 PUSH2 0x1EE7 JUMP JUMPDEST PUSH1 0x20 DUP3 ADD SWAP1 POP SWAP2 SWAP1 POP JUMP JUMPDEST PUSH1 0x0 PUSH2 0x193C PUSH1 0x12 DUP4 PUSH2 0x1C58 JUMP JUMPDEST SWAP2 POP PUSH2 0x1947 DUP3 PUSH2 0x1F10 JUMP JUMPDEST PUSH1 0x20 DUP3 ADD SWAP1 POP SWAP2 SWAP1 POP JUMP JUMPDEST PUSH1 0x0 PUSH2 0x195F PUSH1 0xE DUP4 PUSH2 0x1C58 JUMP JUMPDEST SWAP2 POP PUSH2 0x196A DUP3 PUSH2 0x1F39 JUMP JUMPDEST PUSH1 0x20 DUP3 ADD SWAP1 POP SWAP2 SWAP1 POP JUMP JUMPDEST PUSH1 0x0 PUSH2 0x1982 PUSH1 0x8 DUP4 PUSH2 0x1C58 JUMP JUMPDEST SWAP2 POP PUSH2 0x198D DUP3 PUSH2 0x1F62 JUMP JUMPDEST PUSH1 0x20 DUP3 ADD SWAP1 POP SWAP2 SWAP1 POP JUMP JUMPDEST PUSH1 0x0 PUSH2 0x19A5 PUSH1 0xA DUP4 PUSH2 0x1C58 JUMP JUMPDEST SWAP2 POP PUSH2 0x19B0 DUP3 PUSH2 0x1F8B JUMP JUMPDEST PUSH1 0x20 DUP3 ADD SWAP1 POP SWAP2 SWAP1 POP JUMP JUMPDEST PUSH1 0x0 PUSH2 0x19C8 PUSH1 0x10 DUP4 PUSH2 0x1C58 JUMP JUMPDEST SWAP2 POP PUSH2 0x19D3 DUP3 PUSH2 0x1FB4 JUMP JUMPDEST PUSH1 0x20 DUP3 ADD SWAP1 POP SWAP2 SWAP1 POP JUMP JUMPDEST PUSH1 0x0 PUSH2 0x19EB PUSH1 0xE DUP4 PUSH2 0x1C58 JUMP JUMPDEST SWAP2 POP PUSH2 0x19F6 DUP3 PUSH2 0x1FDD JUMP JUMPDEST PUSH1 0x20 DUP3 ADD SWAP1 POP SWAP2 SWAP1 POP JUMP JUMPDEST PUSH1 0x0 PUSH2 0x1A0E PUSH1 0x18 DUP4 PUSH2 0x1C58 JUMP JUMPDEST SWAP2 POP PUSH2 0x1A19 DUP3 PUSH2 0x2006 JUMP JUMPDEST PUSH1 0x20 DUP3 ADD SWAP1 POP SWAP2 SWAP1 POP JUMP JUMPDEST PUSH2 0x1A2D DUP2 PUSH2 0x1D5D JUMP JUMPDEST DUP3 MSTORE POP POP JUMP JUMPDEST PUSH1 0x0 PUSH1 0x20 DUP3 ADD SWAP1 POP PUSH2 0x1A48 PUSH1 0x0 DUP4 ADD DUP5 PUSH2 0x1892 JUMP JUMPDEST SWAP3 SWAP2 POP POP JUMP JUMPDEST PUSH1 0x0 PUSH1 0x20 DUP3 ADD SWAP1 POP PUSH2 0x1A63 PUSH1 0x0 DUP4 ADD DUP5 PUSH2 0x18A1 JUMP JUMPDEST SWAP3 SWAP2 POP POP JUMP JUMPDEST PUSH1 0x0 PUSH1 0x20 DUP3 ADD SWAP1 POP DUP2 DUP2 SUB PUSH1 0x0 DUP4 ADD MSTORE PUSH2 0x1A83 DUP2 DUP5 PUSH2 0x18B0 JUMP JUMPDEST SWAP1 POP SWAP3 SWAP2 POP POP JUMP JUMPDEST PUSH1 0x0 PUSH1 0x20 DUP3 ADD SWAP1 POP DUP2 DUP2 SUB PUSH1 0x0 DUP4 ADD MSTORE PUSH2 0x1AA4 DUP2 PUSH2 0x18E9 JUMP JUMPDEST SWAP1 POP SWAP2 SWAP1 POP JUMP JUMPDEST PUSH1 0x0 PUSH1 0x20 DUP3 ADD SWAP1 POP DUP2 DUP2 SUB PUSH1 0x0 DUP4 ADD MSTORE PUSH2 0x1AC4 DUP2 PUSH2 0x190C JUMP JUMPDEST SWAP1 POP SWAP2 SWAP1 POP JUMP JUMPDEST PUSH1 0x0 PUSH1 0x20 DUP3 ADD SWAP1 POP DUP2 DUP2 SUB PUSH1 0x0 DUP4 ADD MSTORE PUSH2 0x1AE4 DUP2 PUSH2 0x192F JUMP JUMPDEST SWAP1 POP SWAP2 SWAP1 POP JUMP JUMPDEST PUSH1 0x0 PUSH1 0x20 DUP3 ADD SWAP1 POP DUP2 DUP2 SUB PUSH1 0x0 DUP4 ADD MSTORE PUSH2 0x1B04 DUP2 PUSH2 0x1952 JUMP JUMPDEST SWAP1 POP SWAP2 SWAP1 POP JUMP JUMPDEST PUSH1 0x0 PUSH1 0x20 DUP3 ADD SWAP1 POP DUP2 DUP2 SUB PUSH1 0x0 DUP4 ADD MSTORE PUSH2 0x1B24 DUP2 PUSH2 0x1975 JUMP JUMPDEST SWAP1 POP SWAP2 SWAP1 POP JUMP JUMPDEST PUSH1 0x0 PUSH1 0x20 DUP3 ADD SWAP1 POP DUP2 DUP2 SUB PUSH1 0x0 DUP4 ADD MSTORE PUSH2 0x1B44 DUP2 PUSH2 0x1998 JUMP JUMPDEST SWAP1 POP SWAP2 SWAP1 POP JUMP JUMPDEST PUSH1 0x0 PUSH1 0x20 DUP3 ADD SWAP1 POP DUP2 DUP2 SUB PUSH1 0x0 DUP4 ADD MSTORE PUSH2 0x1B64 DUP2 PUSH2 0x19BB JUMP JUMPDEST SWAP1 POP SWAP2 SWAP1 POP JUMP JUMPDEST PUSH1 0x0 PUSH1 0x20 DUP3 ADD SWAP1 POP DUP2 DUP2 SUB PUSH1 0x0 DUP4 ADD MSTORE PUSH2 0x1B84 DUP2 PUSH2 0x19DE JUMP JUMPDEST SWAP1 POP SWAP2 SWAP1 POP JUMP JUMPDEST PUSH1 0x0 PUSH1 0x20 DUP3 ADD SWAP1 POP DUP2 DUP2 SUB PUSH1 0x0 DUP4 ADD MSTORE PUSH2 0x1BA4 DUP2 PUSH2 0x1A01 JUMP JUMPDEST SWAP1 POP SWAP2 SWAP1 POP JUMP JUMPDEST PUSH1 0x0 PUSH1 0x20 DUP3 ADD SWAP1 POP PUSH2 0x1BC0 PUSH1 0x0 DUP4 ADD DUP5 PUSH2 0x1A24 JUMP JUMPDEST SWAP3 SWAP2 POP POP JUMP JUMPDEST PUSH1 0x0 PUSH2 0x1BD0 PUSH2 0x1BE1 JUMP JUMPDEST SWAP1 POP PUSH2 0x1BDC DUP3 DUP3 PUSH2 0x1DDB JUMP JUMPDEST SWAP2 SWAP1 POP JUMP JUMPDEST PUSH1 0x0 PUSH1 0x40 MLOAD SWAP1 POP SWAP1 JUMP JUMPDEST PUSH1 0x0 PUSH8 0xFFFFFFFFFFFFFFFF DUP3 GT ISZERO PUSH2 0x1C06 JUMPI PUSH2 0x1C05 PUSH2 0x1E6A JUMP JUMPDEST JUMPDEST PUSH2 0x1C0F DUP3 PUSH2 0x1EAD JUMP JUMPDEST SWAP1 POP PUSH1 0x20 DUP2 ADD SWAP1 POP SWAP2 SWAP1 POP JUMP JUMPDEST PUSH1 0x0 PUSH8 0xFFFFFFFFFFFFFFFF DUP3 GT ISZERO PUSH2 0x1C37 JUMPI PUSH2 0x1C36 PUSH2 0x1E6A JUMP JUMPDEST JUMPDEST PUSH2 0x1C40 DUP3 PUSH2 0x1EAD JUMP JUMPDEST SWAP1 POP PUSH1 0x20 DUP2 ADD SWAP1 POP SWAP2 SWAP1 POP JUMP JUMPDEST PUSH1 0x0 DUP2 MLOAD SWAP1 POP SWAP2 SWAP1 POP JUMP JUMPDEST PUSH1 0x0 DUP3 DUP3 MSTORE PUSH1 0x20 DUP3 ADD SWAP1 POP SWAP3 SWAP2 POP POP JUMP JUMPDEST PUSH1 0x0 PUSH2 0x1C74 DUP3 PUSH2 0x1D5D JUMP JUMPDEST SWAP2 POP PUSH2 0x1C7F DUP4 PUSH2 0x1D5D JUMP JUMPDEST SWAP3 POP DUP3 PUSH32 0xFFFFFFFFFFFFFFFFFFFFFFFFFFFFFFFFFFFFFFFFFFFFFFFFFFFFFFFFFFFFFFFF SUB DUP3 GT ISZERO PUSH2 0x1CB4 JUMPI PUSH2 0x1CB3 PUSH2 0x1E0C JUMP JUMPDEST JUMPDEST DUP3 DUP3 ADD SWAP1 POP SWAP3 SWAP2 POP POP JUMP JUMPDEST PUSH1 0x0 PUSH2 0x1CCA DUP3 PUSH2 0x1D5D JUMP JUMPDEST SWAP2 POP PUSH2 0x1CD5 DUP4 PUSH2 0x1D5D JUMP JUMPDEST SWAP3 POP DUP3 DUP3 LT ISZERO PUSH2 0x1CE8 JUMPI PUSH2 0x1CE7 PUSH2 0x1E0C JUMP JUMPDEST JUMPDEST DUP3 DUP3 SUB SWAP1 POP SWAP3 SWAP2 POP POP JUMP JUMPDEST PUSH1 0x0 PUSH2 0x1CFE DUP3 PUSH2 0x1D3D JUMP JUMPDEST SWAP1 POP SWAP2 SWAP1 POP JUMP JUMPDEST PUSH1 0x0 DUP2 ISZERO ISZERO SWAP1 POP SWAP2 SWAP1 POP JUMP JUMPDEST PUSH1 0x0 PUSH32 0xFFFFFFFF00000000000000000000000000000000000000000000000000000000 DUP3 AND SWAP1 POP SWAP2 SWAP1 POP JUMP JUMPDEST PUSH1 0x0 PUSH20 0xFFFFFFFFFFFFFFFFFFFFFFFFFFFFFFFFFFFFFFFF DUP3 AND SWAP1 POP SWAP2 SWAP1 POP JUMP JUMPDEST PUSH1 0x0 DUP2 SWAP1 POP SWAP2 SWAP1 POP JUMP JUMPDEST DUP3 DUP2 DUP4 CALLDATACOPY PUSH1 0x0 DUP4 DUP4 ADD MSTORE POP POP POP JUMP JUMPDEST PUSH1 0x0 JUMPDEST DUP4 DUP2 LT ISZERO PUSH2 0x1D94 JUMPI DUP1 DUP3 ADD MLOAD DUP2 DUP5 ADD MSTORE PUSH1 0x20 DUP2 ADD SWAP1 POP PUSH2 0x1D79 JUMP JUMPDEST DUP4 DUP2 GT ISZERO PUSH2 0x1DA3 JUMPI PUSH1 0x0 DUP5 DUP5 ADD MSTORE JUMPDEST POP POP POP POP JUMP JUMPDEST PUSH1 0x0 PUSH1 0x2 DUP3 DIV SWAP1 POP PUSH1 0x1 DUP3 AND DUP1 PUSH2 0x1DC1 JUMPI PUSH1 0x7F DUP3 AND SWAP2 POP JUMPDEST PUSH1 0x20 DUP3 LT DUP2 EQ ISZERO PUSH2 0x1DD5 JUMPI PUSH2 0x1DD4 PUSH2 0x1E3B JUMP JUMPDEST JUMPDEST POP SWAP2 SWAP1 POP JUMP JUMPDEST PUSH2 0x1DE4 DUP3 PUSH2 0x1EAD JUMP JUMPDEST DUP2 ADD DUP2 DUP2 LT PUSH8 0xFFFFFFFFFFFFFFFF DUP3 GT OR ISZERO PUSH2 0x1E03 JUMPI PUSH2 0x1E02 PUSH2 0x1E6A JUMP JUMPDEST JUMPDEST DUP1 PUSH1 0x40 MSTORE POP POP POP JUMP JUMPDEST PUSH32 0x4E487B7100000000000000000000000000000000000000000000000000000000 PUSH1 0x0 MSTORE PUSH1 0x11 PUSH1 0x4 MSTORE PUSH1 0x24 PUSH1 0x0 REVERT JUMPDEST PUSH32 0x4E487B7100000000000000000000000000000000000000000000000000000000 PUSH1 0x0 MSTORE PUSH1 0x22 PUSH1 0x4 MSTORE PUSH1 0x24 PUSH1 0x0 REVERT JUMPDEST PUSH32 0x4E487B7100000000000000000000000000000000000000000000000000000000 PUSH1 0x0 MSTORE PUSH1 0x41 PUSH1 0x4 MSTORE PUSH1 0x24 PUSH1 0x0 REVERT JUMPDEST PUSH1 0x0 DUP1 REVERT JUMPDEST PUSH1 0x0 DUP1 REVERT JUMPDEST PUSH1 0x0 DUP1 REVERT JUMPDEST PUSH1 0x0 DUP1 REVERT JUMPDEST PUSH1 0x0 PUSH1 0x1F NOT PUSH1 0x1F DUP4 ADD AND SWAP1 POP SWAP2 SWAP1 POP JUMP JUMPDEST PUSH32 0x6E6F74207065726D697373696F6E000000000000000000000000000000000000 PUSH1 0x0 DUP3 ADD MSTORE POP JUMP JUMPDEST PUSH32 0x696E76616C696420746F6B656E49640000000000000000000000000000000000 PUSH1 0x0 DUP3 ADD MSTORE POP JUMP JUMPDEST PUSH32 0x696E76616C696420544F20616464726573730000000000000000000000000000 PUSH1 0x0 DUP3 ADD MSTORE POP JUMP JUMPDEST PUSH32 0x6E6F77207065726D697373696F6E000000000000000000000000000000000000 PUSH1 0x0 DUP3 ADD MSTORE POP JUMP JUMPDEST PUSH32 0x6E6F742041757468000000000000000000000000000000000000000000000000 PUSH1 0x0 DUP3 ADD MSTORE POP JUMP JUMPDEST PUSH32 0x6E6F74206D696E74656400000000000000000000000000000000000000000000 PUSH1 0x0 DUP3 ADD MSTORE POP JUMP JUMPDEST PUSH32 0x696E76616C6964206F70657261746F7200000000000000000000000000000000 PUSH1 0x0 DUP3 ADD MSTORE POP JUMP JUMPDEST PUSH32 0x616C7265616479206D696E746564000000000000000000000000000000000000 PUSH1 0x0 DUP3 ADD MSTORE POP JUMP JUMPDEST PUSH32 0x796F752063616E207472616E66657220796F757273656C660000000000000000 PUSH1 0x0 DUP3 ADD MSTORE POP JUMP JUMPDEST PUSH2 0x2038 DUP2 PUSH2 0x1CF3 JUMP JUMPDEST DUP2 EQ PUSH2 0x2043 JUMPI PUSH1 0x0 DUP1 REVERT JUMPDEST POP JUMP JUMPDEST PUSH2 0x204F DUP2 PUSH2 0x1D05 JUMP JUMPDEST DUP2 EQ PUSH2 0x205A JUMPI PUSH1 0x0 DUP1 REVERT JUMPDEST POP JUMP JUMPDEST PUSH2 0x2066 DUP2 PUSH2 0x1D11 JUMP JUMPDEST DUP2 EQ PUSH2 0x2071 JUMPI PUSH1 0x0 DUP1 REVERT JUMPDEST POP JUMP JUMPDEST PUSH2 0x207D DUP2 PUSH2 0x1D5D JUMP JUMPDEST DUP2 EQ PUSH2 0x2088 JUMPI PUSH1 0x0 DUP1 REVERT JUMPDEST POP JUMP INVALID LOG2 PUSH5 0x6970667358 0x22 SLT KECCAK256 0xD0 DELEGATECALL 0xDA COINBASE 0x4D 0xA6 0x2B GT 0x27 CALLCODE 0xF6 INVALID 0xEA 0xDE 0xA8 PUSH24 0x46999BFC25905CFD2E4F8CFDFB74815864736F6C63430008 SMOD STOP CALLER "
				},
				"gasEstimates": {
					"creation": {
						"codeDepositCost": "1677000",
						"executionCost": "infinite",
						"totalCost": "infinite"
					},
					"external": {
						"approve(address,uint256)": "29261",
						"balanceOf(address)": "2886",
						"getApproved(uint256)": "2933",
						"isApprovedForAll(address,address)": "infinite",
						"mint(address,uint256,string)": "infinite",
						"name()": "infinite",
						"ownerOf(uint256)": "2954",
						"safeTransferFrom(address,address,uint256)": "infinite",
						"safeTransferFrom(address,address,uint256,bytes)": "infinite",
						"setApprovalForAll(address,bool)": "infinite",
						"setTokenURI(uint256,string)": "infinite",
						"supportsInterface(bytes4)": "781",
						"symbol()": "infinite",
						"tokenName()": "infinite",
						"tokenSymbol()": "infinite",
						"tokenURI(uint256)": "infinite",
						"transferFrom(address,address,uint256)": "infinite"
					}
				},
				"methodIdentifiers": {
					"approve(address,uint256)": "095ea7b3",
					"balanceOf(address)": "70a08231",
					"getApproved(uint256)": "081812fc",
					"isApprovedForAll(address,address)": "e985e9c5",
					"mint(address,uint256,string)": "d3fc9864",
					"name()": "06fdde03",
					"ownerOf(uint256)": "6352211e",
					"safeTransferFrom(address,address,uint256)": "42842e0e",
					"safeTransferFrom(address,address,uint256,bytes)": "b88d4fde",
					"setApprovalForAll(address,bool)": "a22cb465",
					"setTokenURI(uint256,string)": "162094c4",
					"supportsInterface(bytes4)": "01ffc9a7",
					"symbol()": "95d89b41",
					"tokenName()": "6c02a931",
					"tokenSymbol()": "7b61c320",
					"tokenURI(uint256)": "c87b56dd",
					"transferFrom(address,address,uint256)": "23b872dd"
				}
			},
			"storageLayout": {
				"storage": [
					{
						"astId": 151,
						"contract": "mokkozi/week3/erc721.sol:minionToken",
						"label": "tokenName",
						"offset": 0,
						"slot": "0",
						"type": "t_string_storage"
					},
					{
						"astId": 154,
						"contract": "mokkozi/week3/erc721.sol:minionToken",
						"label": "tokenSymbol",
						"offset": 0,
						"slot": "1",
						"type": "t_string_storage"
					},
					{
						"astId": 158,
						"contract": "mokkozi/week3/erc721.sol:minionToken",
						"label": "tokenURIs",
						"offset": 0,
						"slot": "2",
						"type": "t_mapping(t_uint256,t_string_storage)"
					},
					{
						"astId": 162,
						"contract": "mokkozi/week3/erc721.sol:minionToken",
						"label": "balanceByOwner",
						"offset": 0,
						"slot": "3",
						"type": "t_mapping(t_address,t_uint256)"
					},
					{
						"astId": 166,
						"contract": "mokkozi/week3/erc721.sol:minionToken",
						"label": "ownerByTokenId",
						"offset": 0,
						"slot": "4",
						"type": "t_mapping(t_uint256,t_address)"
					},
					{
						"astId": 170,
						"contract": "mokkozi/week3/erc721.sol:minionToken",
						"label": "approveOfTokenId",
						"offset": 0,
						"slot": "5",
						"type": "t_mapping(t_uint256,t_address)"
					},
					{
						"astId": 176,
						"contract": "mokkozi/week3/erc721.sol:minionToken",
						"label": "approvedOfOwner",
						"offset": 0,
						"slot": "6",
						"type": "t_mapping(t_address,t_mapping(t_address,t_bool))"
					}
				],
				"types": {
					"t_address": {
						"encoding": "inplace",
						"label": "address",
						"numberOfBytes": "20"
					},
					"t_bool": {
						"encoding": "inplace",
						"label": "bool",
						"numberOfBytes": "1"
					},
					"t_mapping(t_address,t_bool)": {
						"encoding": "mapping",
						"key": "t_address",
						"label": "mapping(address => bool)",
						"numberOfBytes": "32",
						"value": "t_bool"
					},
					"t_mapping(t_address,t_mapping(t_address,t_bool))": {
						"encoding": "mapping",
						"key": "t_address",
						"label": "mapping(address => mapping(address => bool))",
						"numberOfBytes": "32",
						"value": "t_mapping(t_address,t_bool)"
					},
					"t_mapping(t_address,t_uint256)": {
						"encoding": "mapping",
						"key": "t_address",
						"label": "mapping(address => uint256)",
						"numberOfBytes": "32",
						"value": "t_uint256"
					},
					"t_mapping(t_uint256,t_address)": {
						"encoding": "mapping",
						"key": "t_uint256",
						"label": "mapping(uint256 => address)",
						"numberOfBytes": "32",
						"value": "t_address"
					},
					"t_mapping(t_uint256,t_string_storage)": {
						"encoding": "mapping",
						"key": "t_uint256",
						"label": "mapping(uint256 => string)",
						"numberOfBytes": "32",
						"value": "t_string_storage"
					},
					"t_string_storage": {
						"encoding": "bytes",
						"label": "string",
						"numberOfBytes": "32"
					},
					"t_uint256": {
						"encoding": "inplace",
						"label": "uint256",
						"numberOfBytes": "32"
					}
				}
			},
			"userdoc": {
				"kind": "user",
				"methods": {
					"approve(address,uint256)": {
						"notice": "Change or reaffirm the approved address for an NFT"
					},
					"balanceOf(address)": {
						"notice": "Count all NFTs assigned to an owner"
					},
					"getApproved(uint256)": {
						"notice": "Get the approved address for a single NFT"
					},
					"isApprovedForAll(address,address)": {
						"notice": "Query if an address is an authorized operator for another address"
					},
					"name()": {
						"notice": "A descriptive name for a collection of NFTs in this contract"
					},
					"ownerOf(uint256)": {
						"notice": "Find the owner of an NFT"
					},
					"safeTransferFrom(address,address,uint256)": {
						"notice": "Transfers the ownership of an NFT from one address to another address"
					},
					"safeTransferFrom(address,address,uint256,bytes)": {
						"notice": "Transfers the ownership of an NFT from one address to another address"
					},
					"setApprovalForAll(address,bool)": {
						"notice": "Enable or disable approval for a third party (\"operator\") to manage  all of `msg.sender`'s assets"
					},
					"supportsInterface(bytes4)": {
						"notice": "Query if a contract implements an interface"
					},
					"symbol()": {
						"notice": "An abbreviated name for NFTs in this contract"
					},
					"tokenURI(uint256)": {
						"notice": "A distinct Uniform Resource Identifier (URI) for a given asset."
					},
					"transferFrom(address,address,uint256)": {
						"notice": "Transfer ownership of an NFT -- THE CALLER IS RESPONSIBLE  TO CONFIRM THAT `_to` IS CAPABLE OF RECEIVING NFTS OR ELSE  THEY MAY BE PERMANENTLY LOST"
					}
				},
				"version": 1
			}
		}
	}
}